:1000000099C700000C947C27B6C70000B4C7000055
:10001000B2C70000B0C70000AEC70000ACC7000008
:10002000AAC70000A8C70000A6C70000A4C7000018
:10003000A2C70000A0C700009EC700009CC7000028
:100040009AC7000098C7000096C7000094C7000038
:1000500092C7000090C700008EC700000C94BE2617
:100060008AC700000C9459260C94852684C700008A
:1000700082C7000080C700007EC700007CC7000068
:100080007AC7000078C7000076C7000074C7000078
:1000900072C7000070C700006EC700000C94E12614
:1000A0006AC7000068C7000066C7000064C7000098
:1000B00062C7000060C700005EC700005CC70000A8
:1000C0005AC7000058C7000056C7000054C70000B8
:1000D00052C7000050C700004EC700004CC70000C8
:1000E0004AC7000000002100240027002A002D003C
:1000F0003000330001010000040107010A01000083
:1001000020002300260029002C002F0032000001CF
:10011000000003010601090100002200250028005B
:100120002B002E00310034000201000005010801FF
:100130000B010102102020080810204010204080F0
:10014000020102010804020101020408102040809B
:100150008040201008040201800402018040201029
:100160000804020108040201010204081020408072
:100170000102040810204080050505050705080850
:100180000808020202020A0A080804040404010121
:100190000101010101010303030303030303040736
:1001A00007070C0C0C0C0C0C0C0C020202020606CD
:1001B0000606060606060B0B0B0B0B0B0B0BFF08BC
:1001C0000F0C21260107000000006D6567613235C4
:1001D0003630004552524F5200020F00000001011C
:1001E0000115D4A2000E000000FFFFFFFFFFFFFF7C
:1001F000FFFFFFFFFFFFFFFFFFFF00FF00FF00FF0C
:1002000000FF00FF0040404000B80B04160D0E0F29
:1002100033280B504F525151FFFFFFFFFFFF00FFEC
:1002200000FF00FF000D0080000EFF000010FFFF28
:10023000000F0000FF09FF45000000000000000063
:1002400000000000000000000000000000000000AE
:10025000000000000000000000000000000000009E
:10026000000000000000000000000000000000008E
:10027000000000000000000000000000000000007E
:10028000000000000000000000000000000000006E
:10029000000000000000000000000000000000005E
:1002A000000000000000000000000000000000004E
:1002B000000000000000000000000000000000003E
:1002C00000000000FF0100008000800100008000AD
:1002D000800100008000000100008000000100009B
:1002E00080000001000080000005140000000000F4
:1002F00000000000020000010102020000000000F6
:1003000002020201010002010201000201000002DA
:100310000202010100007000000000240000000241
:100320000003000000650054FFEF0000FA80000B9E
:1003300012820001030C30C30E8C8CE914D54002EC
:1003400013710F8E3883F8833000F883258EF8837D
:100350003000F883FFFFFFFF0FFEA9D62400040042
:100360001A8279A10000003CFFFF0000001000008D
:1003700038836FA2003E03304000000002CAE30948
:100380003E8000002000000000000000400000004F
:1003900060000000000C0000000C186E00000692C7
:1003A0000A16C0DFFFFF0256FD8CD377FFE1C4962B
:1003B000E0C5BEAA00000000FFFF0B2B000016578F
:1003C000000003594000000000001DFA00026C1DEF
:1003D000000000003FFFDFEB003EB3B6000D2278C7
:1003E00000002F3C00000000001942B5000039A2B7
:1003F0000000B365D90E9FC91DCF4C3430000000FA
:10040000500000003BB67AE80064000000C800001D
:1004100000000000100000001000FA921000225EA0
:10042000000D229F0001000000320000FF46000086
:1004300063D400001000000004D6000004CC0000CB
:1004400004CC00000000107200000040000000001A
:100450000000000000060002000500070000000088
:1004600000640000000000000000000500050064BA
:10047000002000000000000000000000000040001C
:100480000000030000000032F8980000FF65000043
:10049000830F0000FF9BFC00000000000000000034
:1004A000000000000000000000000000000000004C
:1004B000000000000000000000000000000000003C
:1004C0000000100040000000000000060000B26ABA
:1004D000000200000001FB830068000000D9FC005E
:1004E0007CF1FF830000000000650000006403E869
:1004F00000640028000000250000000016A0000095
:100500000000100000001000002F0000000001F4A7
:100510000000100000280000FFFF4581FFFFFA7275
:100520000000000000000000004400050005BAC6FD
:10053000004778A200000001000000000000060053
:10054000000000140000254D002F706D000005AE66
:10055000000C02D0000000000000000000000000BD
:1005600000000000001B0000000000000000000070
:10057000000000000064000000080000000000000F
:10058000000000000000000000000000000000006B
:10059000000000000000000000000000000000005B
:1005A000000000000000000000000000000000004B
:1005B000000000000000000000000000000000003B
:1005C000000000000000000000000000000000002B
:1005D00000000000001B0000000000000000000000
:1005E000000E000E00000AC70004000000000032E8
:1005F000FFFFFF9C00000B2B000000020000000129
:1006000000000064FFE500000000000000000000A2
:1006100000000000000000010000000000010000D8
:100620000000000000018000000180000001800047
:10063000002426D300000000000000000006001087
:100640000096003C000000000000000000000000D8
:10065000000000000C0A4E68CDCF7709501667598C
:10066000C619CE820000000000000000000000005B
:1006700000000000000000000000000017D7840008
:10068000030000000000000000000000C7938F9DE1
:100690001E1B1C19000000000000000000000000EC
:1006A00000000000000000000000000002031885A8
:1006B00000004000000000030000000300000000F4
:1006C00000000000400000000000000000000000EA
:1006D000000000000000000000000000000000001A
:1006E000000000000000000000000000000000000A
:1006F0000000000000000000677DDF7E72902E5534
:100700004CF6E68800000000000000000000000039
:1007100000000000D8DCB4B8B0D8B9ABF3F8FAB335
:10072000B7BB8E9EAEF132F51BF1B4B8B08097F135
:10073000A9DFDFDFAADFDFDFF2AAC5CDC7A90CC9B9
:100740002C97F1A989264666B28999A92D557DB0C5
:10075000B08AA896365676F1BAA3B4B280C0B8A8CB
:100760009711B28398BAA3F0240844106418B2B960
:10077000B49883F1A329557DBAB5B1A38393F00052
:100780002850F5B2B6AA839328547CF1B9A382937A
:1007900061BAA2DADEDFDB819AB9AEF5606870F18A
:1007A000DABAA2DFD9BAA2FAB9A38292DB31BAA22D
:1007B000D9BAA2F8DF85A4D0C1BBAD83C2C5C7B882
:1007C000A2DFDFDFBAA0DFDFDFD8D8F1B8AAB38DB0
:1007D000B4980D355DB2B6BAAF8C96198F9FA70E3F
:1007E000161EB49AB8AA872C547CBAA4B08AB691C3
:1007F000325676B28494A4C808CDD8B8B4B0F19972
:1008000082A82D557D98A80E161EA22C547C92A469
:10081000F02C5078F184A898C4CDFCD80DDBA8FC4E
:100820002DF3D9BAA6F8DABAA6DED8BAB2B6869649
:10083000A6D0F3C841DAA6C8F8D8B0B4B882A89256
:10084000F52C548898F135D9F418D8F1A2D0F8F9DC
:10085000A884D9C7DFF8F883C5DADF69DF83C1D898
:10086000F40114F1A8824EA884F311D182F5D99233
:10087000289788F109F41C1CD884A8F3C0F9D1D9B1
:100880009782F129F40DD8F3F9F9D1D982F4C20392
:10089000D8DEDF1AD8F1A2FAF9A88498D9C7DFF810
:1008A000F8F883C7DADF69DFF883C3D8F40114F1FD
:1008B00098A8822EA884F311D182F5D992509788F6
:1008C000F109F41CD884A8F3C0F8F9D1D99782F1C2
:1008D00049F40DD8F3F9F9D1D982F4C403D8DEDF95
:1008E000D8F1AD8898CCA809F9D98292A8F57CF105
:1008F000883ACF944A6E98DB6931DAADF2DEF9D8E6
:100900008795A8F221D1DAA5F9F417D9F1AE8ED0E6
:10091000C0C3AE82C684C3A88595C8A588F2C0F1BD
:10092000F4010EF18E9EA8C63E56F554F18872F47D
:100930000115F19845856EF58E9E0488F142985A0E
:100940008E9E068869F4011CF1981E1108D0F504EA
:10095000F11E970202983625DBF9D985A5F3C1DA95
:1009600085A5F3DFD88595A8F309DAA5FAD8829290
:10097000A8F578F1881A849F26889821DAF41DF367
:10098000D8879F39D1AFD9DFDFFBF9F40CF3D8FA60
:10099000D0F8DAF9F9D0DFD9F9D8F40BD8F3879F7A
:1009A00039D1AFD9DFDFF41DF3D8FAFCA869F9F922
:1009B000AFD0DADEFAD9F88F9FA8F1CCF398DB45F7
:1009C000D9AFDFD0F8D8F18F9FA8CAF38809DAAF82
:1009D0008FCBF8D8F2AD978D0CD9A5DFF9BAA6F375
:1009E000FAF412F2D8950DD1D9BAA6F3FADAA5F233
:1009F000C1BAA6F3DFD8F1BAB2B68696A6D0CAF3CA
:100A000049DAA6CBF8D8B0B4B8D8AD84F2C0DFF1DB
:100A10008FCBC3A8B2B68696C8C1CBC3F3B0B48897
:100A200098A821DB718D9D71859521D9ADF2FAD8F9
:100A30008597A828D9F408D8F28D29DAF405D9F2D7
:100A400085A4C2F2D8A88D9401D1D9F411F2D88727
:100A500021D8F40AD8F28498A8C801D1D9F411D8C1
:100A6000F3A4C8BBAFD0F2DEF8F8F8F8F8F8F8F85D
:100A7000D8F1B8F6B5B9B08A95A3DE3CA3D9F8D8B9
:100A80005CA3D9F8D87CA3D9F8D8F8F9D1A5D9DFD7
:100A9000DAFAD8B18530F7D9DED8F830ADDADED859
:100AA000F2B48C99A32D557DA083DFDFDFB591A033
:100AB000F629D9FBD8A0FC29D9FAD8A0D051D9F869
:100AC000D8FC51D9F9D879D9FBD8A0D0FC79D9FA7A
:100AD000D8A1F9F9F9F9F9A0DADFDFDFD8A1F8F840
:100AE000F8F8F8ACDEF8ADDE8393AC2C547CF1A8BA
:100AF000DFDFDFF69D2CDAA0DFD9FADB2DF8D8A8EE
:100B000050DAA0D0DED9D0F8F8F8DB55F8D8A878BC
:100B1000DAA0D0DFD9D0FAF8F8F8F8DB7DF8D89C65
:100B2000A88CF530DB38D9D0DEDFA0D0DEDFD8A846
:100B300048DB58D9DFD0DEA0DFD0DED8A868DB7074
:100B4000D9DFDFA0DFDFD8F1A888902C547C98A8EB
:100B5000D05C38D1DAF2AE8CDFF9D8B087A8C1C149
:100B6000B188A8C6F9F9DA36D8A8F9DA36D8A8F9DA
:100B7000DA36D8A8F9DA36D8A8F9DA36D8F78D9D5A
:100B8000ADF818DAF2AEDFD8F7ADFA30D9A4DEF955
:100B9000D8F2AEDEFAF983A7D9C3C5C7F1889BA7FF
:100BA0007AADF7DEDFA4F8849408A797F300AEF2DD
:100BB0009819A488C6A39488F632DFF28393DB09E0
:100BC000D9F2AADFD8D8AEF8F9D1DAF3A4DEA7F1CA
:100BD000889B7AD8F38494AE19F9DAAAF1DFD8A801
:100BE00081C0C3C5C7A39283F628ADDED9F8D8A3C8
:100BF00050ADD9F8D8A378ADD9F8D8F8F9D1A1DAA1
:100C0000DEC3C5C7D8A18194F818F2B089ACC3C5BA
:100C1000C7F1D8B8B4B09786A8319B069907AB97AF
:100C200028889BF00C201440B0B4B8F0A88A9A2809
:100C30005078B79BA8295179247059446938644881
:100C400031F1BBAB88002C547CF0B38BB8A80428DE
:100C50005078F1B088B49726A85998BBABB38B02F3
:100C6000264666B0B8F08A9CA82951798B2951791B
:100C70008A2470598B2058718A4469388B394068AE
:100C80008A6448318B30496088F1AC002C547CF088
:100C90008CA804285078F1889726A85998AC8C0223
:100CA000264666F0899CA8295179247059446938F0
:100CB000644831A98809205970AB11384069A819D6
:100CC0003148608CA83C415C207C00F187981986F3
:100CD000A86E767EA999882D557DD8B1B5B9A3DFC8
:100CE000DFDFAED0DFAAD0DEF2ABF8F9D9B087C42F
:100CF000AAF1DFDFBBAFDFDFB9D8B1F1A3978E6018
:100D0000DFB084F2C8F8F9D9DED89385F14AB1830F
:100D1000A308B5839A0810B79F10D8F1B0BAAEB047
:100D20008AC2B2B68E9EF1FBD9F41DD8F9D90CF166
:100D3000D8F8F8AD61D9AEFBD8F40CF1D8F8F8AD1D
:100D400019D9AEFBDFD8F416F1D8F8AD8D61D9F41E
:100D5000F4ACF59C9C8DDF2BBAB6AEFAF8F40BD848
:100D6000F1AED0F8AD51DAAEFAF8F1D8B9B1B6A318
:100D7000839C08B9B1839AB5AAC0FD3083B79F1090
:100D8000B58B93F20202D1ABDADED8F1B080BAAB08
:100D9000C0C3B284C1C3D8B1B9F38BA391B609B4AF
:100DA000D9ABDEB0879CB9A3DDF1B38B8B8B8B8B7A
:100DB000B087A3A3A3A3B28BB69BF2A3A3A3A3A3C1
:100DC000A3A3A3A3A3F1B087B59AA3F39BA3A3DC2A
:100DD000BAACDFB9A3A3A3A3A3A3A3A3A3A3A3A371
:100DE000A3A3A3A3D8D8D8BBB3B7F1AAF9DAFFD984
:100DF000809AAA28B48098A720B79787A86688F019
:100E00007951F1902C870CA781976293F0717160F2
:100E100085940129517990A5F1284C6C870C95187F
:100E20008578A38390284C6C886CD8F3A28200F25A
:100E300010A8921980A2F2D926D8F188A84DD948D5
:100E4000D896A83980D93CD89580A839A68698D953
:100E50002CDA87A72CD8A8899519A980D938D8A8C1
:100E60008939A980DA3CD8A82EA83990D90CD8A8FD
:100E7000953198D90CD8A809D9FFD801DAFFD895AF
:100E800039A9DA26FFD890A80D8999A81080982151
:100E9000DA2ED88999A83180DA2ED8A886963180A2
:100EA000DA2ED8A8873180DA2ED8A88292F3418032
:100EB000F1D92ED8A882F31980F1D92ED882ACF3BB
:100EC000C0A28022F1A62EA72EA92298A829DAACCA
:100ED000DEFFD8A2F22AF1A92E8292A8F23180A6D2
:100EE00096F1D900AC8C9C0C30ACDED0DEFFD88CF7
:100EF0009CACD010ACDE8092A2F24C82A8F1CAF277
:100F000035F19688A6D900D8F1FF0E0C0D0F08FF19
:100F1000FF09050406070A0B0F0C0D0E08FFFF0959
:100F2000050406070A0B0F0C0D0E0908FFFF050448
:100F300006070A0B11241FBECFEFD1E2DEBFCDBFE3
:100F400000E00CBF12E0A0E0B2E0E8E3FEE500E064
:100F50000BBF02C007900D92A03CB107D9F728E063
:100F6000A0ECB2E001C01D92A939B207E1F70E94DE
:100F700082270C941A2F44C89B01FC018FB7F89468
:100F8000718360837383628375836483240F351F49
:100F90003783268351874087138612868FBF089533
:100FA000FC01A081B1816C93808191810196918334
:100FB0008083268137818217930721F4848195816C
:100FC000918380832FB7F8948285938501969387C8
:100FD00082872FBF0895FC01A281B3818D91B383D5
:100FE000A28326813781A217B30721F4248135819A
:100FF000338322839FB7F8942285338521503109AA
:10100000338722879FBF08950F931F93CF93DF935A
:10101000EC018C01060F111DC017D10741F488EBBC
:101020008093C100DF91CF911F910F910895699135
:101030008DE898E0B5DFF0CFCF93DF93FC01DA01C4
:1010400086E0EB01888385E0808315962C911597C7
:10105000822F922F990F990B97FD079653E0959544
:1010600087955A95E1F7828317962C911797822FCF
:10107000922F990F990B91958195910997FD07965C
:1010800043E0959587954A95E1F783831B962C91CC
:101090001B97822F922F990F990B97FD079633E09C
:1010A000959587953A95E1F7848319962C91199730
:1010B000822F922F990F990B97FD079623E0959514
:1010C00087952A95E1F7858311969C9111979295C2
:1010D000917081818E7F982B918311968C911197BD
:1010E000829582709D7F892B818311969C91969524
:1010F000969596959870877F892B8183DF91CF9104
:1011000008959F92AF92BF92CF92DF92EF92FF929B
:101110000F931F93CF93DF9300D00F92CDB7DEB71D
:10112000FC014B835C838CE1DB018C9384E0808346
:1011300090902B08B0908C088AE2C82E82E0D82EBE
:10114000FA83E98390E080E061E070E0A82ED601A8
:101150002D916D012F3F09F44DC0AB0102C0440F2A
:10116000551F2A95E2F7AB81BC812D913C91242338
:10117000352341E02115310509F440E08B010A2CAB
:1011800002C0000F111F0A94E2F700951095E1804C
:10119000F280E022F12250E08A0102C0000F111F0C
:1011A000AA94E2F70E291F2912830183891510F5ED
:1011B000BBE1BB1215C0843098F49C0122543E4F11
:1011C000D9012C918B0102C0000F111F2A95E2F763
:1011D000AB81BC812D913C9120233123242B352BD5
:1011E00041E0232B09F440E0242F2195A981BA8105
:1011F00018962C93019629813A812F5F3F4F3A83AD
:1012000029838E30910509F0A1CFAB81BC812C914F
:101210002F7088E02B3028F430E028563D4FD9015C
:101220008C918383AB81BC811A962D913C91BBE15B
:10123000BB1216C0AB81BC8119968C9185958054E8
:10124000868387EF91E02F3F3F4711F484E891E0D8
:10125000958B848B8DE7878380E88483858363C047
:101260004DE1B41619F080E2B8121AC0AB81BC810E
:1012700019968C9180588683818192818F7D2F3F32
:101280003F4709F460C030E020E0822B932B92832B
:101290008183AB81BC8112969C9180E8891B8783F6
:1012A000BFE1BB1619F02AE1B212D6CF818192813B
:1012B0008F7EAB81BC8112962C91233308F046C0FF
:1012C00030E020E0822B932B928381838F7DAB8152
:1012D000BC8113962C912333E0F530E020E0822B83
:1012E000932B92838183AB81BC8112968C91129750
:1012F000848713968C911397858715968C911597F3
:101300008058848317969C911797905895831996C7
:101310008C911997805886831B968C91805887836F
:10132000BAE1BB16C9F00F900F900F900F90DF91AC
:10133000CF911F910F91FF90EF90DF90CF90BF90D2
:10134000AF909F90089520E230E09FCF20E130E001
:10135000B9CF20E230E0C3CF909595838095878305
:10136000E2CF0F931F93CF93DF9300D000D000D034
:10137000CDB7DEB7E52FF0E0E459FD4F80818F3F18
:1013800081F021E030E002C0220F331F8A95E2F79E
:101390008091C3029091C4022823392381E0232B3A
:1013A00009F480E029960FB6F894DEBF0FBECDBFDA
:1013B000DF91CF911F910F9108950F931F93CF93BA
:1013C000DF93CDB7DEB761970FB6F894DEBF0FBEDF
:1013D000CDBF09871A872B873C874D875E876F872C
:1013E000788BE82F898B8F3F69F4EA85FB858081B4
:1013F000802391E009F490E081E02C859217B9F008
:1014000080E015C088E0E89FF0011124E159F94F10
:1014100088E0DE01119601900D928A95E1F74C81EA
:101420005D8181E02E813F812417350748F7619661
:101430000FB6F894DEBF0FBECDBFDF91CF911F91E5
:101440000F9108950F931F93CF93DF9300D000D097
:1014500000D0CDB7DEB780E029960FB6F894DEBF96
:101460000FBECDBFDF91CF911F910F910895CF9304
:10147000DF9300D00F92CDB7DEB72FB7F8948091ED
:10148000340390913503A0913603B09137032FBFF9
:101490009C01AD0187E0220F331F441F551F8A9521
:1014A000D1F7CA01B9012DE730E040E050E00E94D9
:1014B0004C2ECA01B9010F900F900F900F90DF9141
:1014C000CF910895CF92DF92EF92FF920F931F93E7
:1014D000CF93DF93EC016B01BA01A901F801C701B9
:1014E00020812630E0F4209771F000271127041B9B
:1014F000150B601771073CF431962E0D3F2D311DF1
:10150000D9011396CC93C114D10449F0461757075B
:1015100034F42081820F911DDC011396CC92DF916F
:10152000CF911F910F91FF90EF90DF90CF90089592
:101530008F929F92AF92BF92CF92DF92EF92FF92E3
:101540000F931F93CF93DF930F92CDB7DEB76C014C
:101550004A0189E0DB018C9386E0F6018083E1E1BA
:10156000F8E050E040E080E061E070E09191992384
:10157000A1F0D401AD90BC909B01042E02C0220FBB
:10158000331F0A94E2F72A213B21232B31F0D601A5
:10159000A80FB11D13969C938F5F4F5F5F4F403133
:1015A000510509F05EC08983A0900F08B090100823
:1015B000F401448155816091240870E080912308F2
:1015C00076018E010F5F1F4F950190E07BDFD40104
:1015D00016964D915C916091260870E080912508E7
:1015E000950190E06FDFF4014085518560912808F6
:1015F00070E080912708950190E064DFD4011A968D
:101600004D915C9160912A0870E0809129089501C4
:1016100090E058DFA0900D08B0900E08F4014281D0
:1016200050E06091210870E0950190E080E04ADF91
:10163000D40113964C9150E06091220870E095011E
:1016400090E080E03FDF0F90DF91CF911F910F91ED
:10165000FF90EF90DF90CF90BF90AF909F908F90D2
:101660000895863009F082CF9ECF8EBD00000DB464
:1016700007FEFDCF8EB50895EF920F93DC01CB01ED
:1016800016961C921697642F70E0FB01E858FE4FE7
:101690003491FB01EE5CFE4F5491E32FF0E0EE0F2E
:1016A000FF1FEE2019F1E85EFE4F65917491805F97
:1016B0009E4FFC0180815C9311966C93119712965A
:1016C0007C93129713960C93139714964C9314973C
:1016D00015962C93159717968C9317978FEF18964E
:1016E0008C931897CD010F91EF900895E250FF4F22
:1016F000DCCF90E0FC01EE5CFE4F2491FC01E85849
:10170000FE4FE491EE2389F0F0E0EE0FFF1FE85E5C
:10171000FE4FA591B4918FB7F894611107C09C91C9
:10172000E22FE095E923EC938FBF0895EC91E22B33
:10173000FACF90E0FC01EE5CFE4F2491FC01E858EA
:10174000FE4FE491EE2359F0F0E0EE0FFF1FE25060
:10175000FF4FA591B491EC91E22381E009F480E080
:101760000895CF93DF93EC018091BD07E2DF91E014
:1017700089274FEF5FE7849F9001859F300D1124EB
:101780003B872A87DF91CF91089520917B00982F86
:10179000987F277F922B90937B0087708064809343
:1017A0007C0080917A00806480937A0080917A0036
:1017B00086FDFCCF8091780090917900089580910A
:1017C0007A0086FDFCCF81E0809304020895CF93D8
:1017D000DF9390E0FC01EE5CFE4F249188589E4F11
:1017E000FC0184918823D1F090E0880F991FFC01BF
:1017F000EC51FF4FA591B491FC01E85EFE4FC591FD
:10180000D491613071F49FB7F8948C912095822324
:101810008C938881282328839FBF7894DF91CF9170
:101820000895623051F49FB7F8943C91822F8095CF
:1018300083238C93E8812E2BEECF8FB7F894EC9115
:101840002E2B2C938FBFE9CFCF92DF92EF92FF9296
:101850001F93CF93DF936B017C01142FD22F60E095
:1018600083E3B5DF62E082E3B2DF60E084E3AFDF11
:1018700061E085E33EDF60E085E3A9DF1111C8E0A8
:10188000D111C460C11482E1D8068AE7E806F104E8
:10189000C8F5C11489E0D8068DE3E806F104A0F587
:1018A00080E8C81684E8D8068EE1E806F10470F5F1
:1018B00080E4C81682E4D8068FE0E806F10440F51B
:1018C00080E2C81681EAD80687E0E806F10410F540
:1018D00080E9C81680EDD80683E0E806F104E0F45C
:1018E00087E091E08927982F96959C2B90659CBD69
:1018F00081708DBDDF91CF911F91FF90EF90DF90B0
:10190000CF90089580E0EDCF81E0EBCF82E0E9CF8A
:1019100083E0E7CF84E0E5CF85E0E3CFCF92DF92AD
:10192000EF92FF92F0E0E0E067E675E483E291E099
:1019300041E2409357002491622728E030E06B0198
:101940007C0151E0C522DD24EE24FF249695879585
:1019500077956795CD28CE28CF2841F050E26527AE
:1019600053E8752758EB85275DEE952721503109FF
:1019700031F73196E032F105E1F6FF90EF90DF901C
:10198000CF900895682F85E3B4CE982F8D30A1F0C5
:10199000823090F08091AA07882321F02CEE290F45
:1019A000223058F08091A907882339F0925381E0C2
:1019B000943018F080E0089581E008950F931F930C
:1019C000CF938091D203882391F00CE813E0C0E01C
:1019D0008C2FDBDF811103C061E08C2FF8DE8C2FB0
:1019E000A8DEF80181938F01CF5FC63489F710928A
:1019F000F3031092D203CF911F910F910895CF93CB
:101A0000DF93EC01FB0180818052990B880F880FD6
:101A10001C828D8381818052990B880F880F1E82D2
:101A20008F838581248135812095309590918C0814
:101A3000933260F0938191FF09C09095907E62810E
:101A400066956E736A3120F5623139F1982F96955B
:101A50009695969561E096279170B92FB295BB0F38
:101A6000B07EA0E0367D2A2B3B2B82958695877031
:101A700086278170582F550F550F550F40E0242BA6
:101A8000352B3093C4022093C302DF91CF91089588
:101A90006E31E1F690938403D9CF90938803D6CF2B
:101AA000FC01DB018C91880F880F8058148285839C
:101AB00011968C911197880F880F80581682878312
:101AC00013968C9113978F718E50990B97FD20C0B0
:101AD0009187808720853185C901880F991F820FE2
:101AE000931F80329105BCF4918780878085918512
:101AF0004097880F880F880F1086818714968D91E4
:101B00009C91809590959093C4028093C302089510
:101B100011861086DFCF8FE190E0E6CFFC01DB017C
:101B20008C918058990B1482858312968C91129710
:101B30008058990B1682878311968C911197805843
:101B4000990B1086818713968C9113978058990B67
:101B50001286838714968C911497828315968C91A4
:101B60001597838316968D919C918095909590936F
:101B7000C4028093C3020895FC01DB018C918F7332
:101B80008052990B9583848311968C9111978F7352
:101B90008052990B978386838C9190E023E09595F2
:101BA00087952A95E1F78871992711962C911197BD
:101BB00030E045E0359527954A95E1F726703327C3
:101BC000822B932B12962C911297221F2227221FD1
:101BD000822B40979187808712968C9112978F71F4
:101BE0008051990B9387828712968C9112978695D4
:101BF0008695887113969C911397929596959770F8
:101C0000892B828313968C9113978F7183831496FB
:101C10008D919C91809590959093C4028093C3027E
:101C20000895DC01FB019081818182958695867003
:101C3000292F2695269526952871822B2281221FF1
:101C40002227221F822B990F990F905814961C92CD
:101C5000149715969C9315979181990F990F905809
:101C600016961C92169717969C931797948123812A
:101C700090FF3AC030E0209530952F713327205ED9
:101C80003F4F19963C932E931897082E000C990BF2
:101C9000228120FF30C02FE330E0281B390B1B9638
:101CA0003C932E931A9782818695869588719381AD
:101CB000929596959770892B12968C9312978281A4
:101CC00090E0959587958F7013968C93848195817C
:101CD000982789279827809590958D7C9376909367
:101CE000C4028093C3020895922F9F7120E230E0D6
:101CF000291B3109C6CF20E230E0CFCFCF93DF934D
:101D0000FC01EB018A8190E0982F882788279F703B
:101D10006881862B958384838A8120E1829FC0011C
:101D2000112488279F706981862B978386838B81F6
:101D300083838D8181FB992790F9392F3295330F59
:101D4000330F307C20E0982F9695969561E096278A
:101D50009170B92FB295BB0FB07EA0E02A2B3B2B20
:101D60008170582F5295507F422F532B5093C402AD
:101D70004093C302DF91CF910895FC01DB018D9167
:101D80009C9111979583848312968D919C911397C2
:101D90009783868314968C9183830895FB018481B5
:101DA0009581982789279827809590959093C402CC
:101DB0008093C3020895DC01E62FF0E06031C8F49F
:101DC00020918908222331F0693020F0E458FC4F3B
:101DD0008081089581E090E002C0880F991F6A9584
:101DE000E2F72D913C9182239323892BF1F480E03B
:101DF00008952091C1073091C207633160F0709758
:101E0000EE0FFF1FEA0FFB1F81E040815181241775
:101E1000350768F70895E80FF91F3E97908181E034
:101E20009217130609F0B4F7E2CF80E4F3CF7F9264
:101E30008F929F92AF92BF92CF92DF92EF92FF92DA
:101E40000F931F93CF93DF93EC017B01742E852EAC
:101E500087E088834BECC42E47E0D42E0EE113E0DC
:101E6000912CB12CF60181916F01882369F130EB3F
:101E7000A32E813011F420E9A22E692D872D982DF3
:101E80009ADF8695F80190819817F1F0F60143A545
:101E90009589F80180832B2D30E054E0B59EF00148
:101EA0001124EC0FFD1F5A2D52955F705183A42A07
:101EB000A2829383F9013196EE0FFF1FEE0FFF1FF1
:101EC000EC0FFD1F8083B3940F5F1F4F939486E147
:101ED0009812C8CFBB0CBB0CB394F701B082DF9152
:101EE000CF911F910F91FF90EF90DF90CF90BF9017
:101EF000AF909F908F907F90089580E043DD81EEBA
:101F0000B4DB81E03FCD80E03DDD82EEAEDB81E001
:101F100039CD80E037DD80E5A8DB83E7A6DB81E013
:101F200031CD0F931F93CF93DF93EC018C01060FFC
:101F3000111D89919ADBC017D107D9F7DF91CF9195
:101F40001F910F910895CF93DF93D82FC62F80E074
:101F500019DD8D2F806289DB8C2F87DB81E0DF919B
:101F6000CF9110CDEF92FF920F931F93CF93DF93FA
:101F7000F82EE92EC62F80914D06811109C0C0E0D0
:101F80008C2FDF91CF911F910F91FF90EF900895CB
:101F900010924D0680E0F6DC8FEF67DBD82F81E0F2
:101FA000F1DC2D2F30E0359527952770332727302A
:101FB000310529F360E487E0C6DFC11109C080E084
:101FC000E1DC80E652DB80E050DBC82F81E0DADC28
:101FD00080E0D8DC81E649DB0F2D1E2D802F8F1984
:101FE0008C1718F081E0CEDCCBCFF80181918F0106
:101FF0003CDBF80131978083F1CFCF93DF9300D0A2
:102000000F92CDB7DEB7DB019C010E94912E698350
:102010007A838B839C83DC01CB019F77AA27BB2724
:1020200081159044A105B105D1F080E090E4A0E0D5
:10203000B0E029813A814B815C81820F931FA41FFC
:10204000B51F2FE0B595A795979587952A95D1F758
:102050000F900F900F900F90DF91CF91089580E037
:1020600090E0DC01E6CFF89488E198E00FB6F894B0
:10207000A895809360000FBE90936000FFCFCF9330
:10208000DF930F920F92CDB7DEB78A8388E78983FB
:1020900061E0CE0101960E94040861E0CE01029643
:1020A0000E9404086A8188E393E00E9404080F906C
:1020B0000F90DF91CF9108951F93CF93DF93182F47
:1020C000EB0180E05FDC812FD0DA8881CEDA888373
:1020D00081E0DF91CF911F9155CCCF93DF930F9289
:1020E000CDB7DEB7BE016F5F7F4FE6DF89810F900E
:1020F000DF91CF9108951F93CF93DF93182FD62FA1
:10210000C72F80E03FDC812F8062AFDA64E08D2F43
:102110009C2F07DF81E0DF91CF911F9133CC85EDBC
:102120008093BC008FEF9FE72091BC0024FD03C08B
:1021300010926C0602C00197B9F70895CF93DF9310
:10214000DC01FA0184E1EB0188831C9211968C93E7
:10215000119712968CE001900D928A95E1F7DF912C
:10216000CF910895CF93282FCB01C42F4FEF5FE776
:10217000C13228F080E045C041505109D9F3309177
:102180006C063111F9CF31E030936C0630936B0659
:102190004FEF4093FA0210921C034C0F40931B0325
:1021A00030931D0330911D03220F232B20931D0319
:1021B00020916A06222381F110926A0620911D0364
:1021C0002093BB002FEF3FE74091BC0043FD1BC0B5
:1021D00025EC2093BC002FEF3FE740916C06413087
:1021E000E9F020911C032C1710F4C0911C034C2F14
:1021F00050E06BEF72E00E94D92E81E0CC2309F40D
:10220000B9CFCF9108952150310909F4B3CF40914E
:102210001D034093BB00D8CF25EEDBCF2150310901
:10222000E1F6A8CFCF93C82F8FEF9FE7413220F080
:1022300080E03FC00197E1F320916C062111FACFB5
:1022400082E080936C0681E080936B068FEF809331
:10225000FA0210921C0340931B0350E08BEF92E0B4
:102260000E94D92E10921D0380911D03CC0FC82B04
:10227000C0931D0380916A06882329F110926A0693
:1022800080911D038093BB008FEF9FE72091BC00DE
:1022900023FD11C085EC8093BC008FEF9FE7209158
:1022A0006C06223091F09091FA0281E09F3F09F094
:1022B000BFCFCF910895019709F4BACF20911D03A4
:1022C0002093BB00E3CF85EEE6CF019741F7B0CF77
:1022D000EF92FF920F931F93CF93DF930F92CDB79F
:1022E000DEB7182F6983E42EF22E032F41E0BE01E2
:1022F0006F5F7F4F97DF882371F04E2D6F2D702F0A
:10230000812F30DF81700F90DF91CF911F910F915E
:10231000FF90EF90089580E0F5CFA8E5B6E0119624
:10232000ED91FC91129780819C91892B8083AFE481
:10233000B6E01196ED91FC91129780819C91892BCA
:102340008083A1E6B6E01196ED91FC911297808111
:102350009C91892B808380E58A95F1F70895CF922F
:10236000DF92EF92FF920F931F93CF93DF938C0135
:10237000EB016C017B01E40EF11CCE15DF0549F485
:10238000DF91CF911F910F91FF90EF90DF90CF9051
:1023900008958AE50115110589F0F6019081892FCC
:1023A00086958575990F9A7A892B982F969596958B
:1023B0009373880F880F8C7C892B829556D9982F20
:1023C00086958575990F9A7A892B982F969596956B
:1023D0009373880F880F8C7C892B82958993F0E505
:1023E000FA95F1F78FEFC81AD80AC7CF0F931F934A
:1023F000CF93DF938C01C62FE0916206F0916306C4
:10240000908180916106809589238083E0915006B8
:10241000F0915106908180914F06809589238083A9
:10242000E0915906F0915A06908180915806809566
:102430008923808380E58A95F1F743E065EC72E0BB
:10244000C8018DDF8091C6028F3F49F4D0E0C0E023
:1024500064DFCE01DF91CF911F910F91089590918C
:10246000C7029A3511F09111F1CF8F70D82FDD0F7F
:10247000C33039F04DEF4C0F68EC72E0C8010396A1
:102480006EDFDD5F4D2F4C1BDC1761F06C2F70E0B1
:10249000CB01840F911D8197CCF66B537D4F90E05B
:1024A00080E05DDFC5ECD2E0D3CFCF92DF92EF9238
:1024B000FF920F931F93CF93DF9300D000D0CDB73F
:1024C000DEB78D839E83062F0E94370A6B017C0145
:1024D00010E0602F8D819E8189DFFC01892B51F0F6
:1024E0001F5F8D819E818459924059F58181807F43
:1024F000803F81F18FE39CE90197F1F700C0000074
:102500000E94370A69837A838B839C83DC01CB0129
:102510008C199D09AE09BF098B3F9105A105B10535
:10252000C0F280E026960FB6F894DEBF0FBECDBF96
:10253000DF91CF911F910F91FF90EF90DF90CF909F
:1025400008958D819E818059924031F48181807FF0
:10255000803F81F281E0E6CF1330E0F7CBCFCF931D
:10256000DF93EC0163E08DE892E040DFFC01892B12
:1025700049F08181982F907F903F31F464E080E9A9
:1025800092E093DF80E01FC0238134819035F1F425
:1025900088E0809301028181823179F489E080931F
:1025A000010285818058990B1C828D8346818FE7BB
:1025B00090E0841B91091E828F838181807D80350C
:1025C00009F457C081E0DF91CF910895833241F53E
:1025D00085E08093010285818058990B1C828D8350
:1025E000888199819F7B46814138B0F550E040E079
:1025F000842B952B998388839F774781413878F581
:1026000050E040E0842B952B998388839E7F408502
:10261000413F40F550E040E0842B952B998388831F
:102620008181807F803E09F0B6CF86E080930102F1
:10263000858190E09D838C839681858197FD15C06F
:1026400087FD8FE790E09D838C838C819D818058EE
:102650009F4F9D838C839FCF40E050E4C9CF40E0E3
:1026600050E8D0CF40E051E0D7CF813858F781E82B
:10267000E9CF85818058990B1886898746818FE735
:1026800090E0BC01641B71091A866B874781405832
:10269000550B1C824D834085841B91091E828F83BC
:1026A0008181893709F08ECF83898A8384898B83DE
:1026B00080910102843009F085CF818990E099876B
:1026C000888720953095222731704FEF5FE7249F50
:1026D000C001259F900D349F900D11249B878A8700
:1026E00071CF1F93CF93DF93182FD92F80910102C1
:1026F0008A30A9F5C5E0812F9D2F31DF8FE99FE05A
:102700000197F1F700C00000C150A9F7812F9D2F5C
:1027100026DF882361F164E084E992E0C6DE882345
:1027200081F163E08CE792E061DEFC01892B49F0E6
:102730008381833021F18130F1F48181823409F089
:10274000C4E0C093010265E088E892E0AEDE69E093
:102750008FE792E0AADE64E080E992E0A6DE812FB6
:102760009D2FFDDE811103C08AE080930102DF917D
:10277000CF911F9108958C3021F7C3E0E2CFC2E0E2
:10278000E0CF81E080930102EACFFF920F931F9385
:10279000CF93DF930F92CDB7DEB78983F62E8A01F0
:1027A00041E0BE016F5F7F4F82E53CDD882351F041
:1027B0008FEC92E00197F1F700C000004F2DB801B7
:1027C00082E5D0DC0F90DF91CF911F910F91FF90A8
:1027D0000895CF93DF9300D000D0CDB7DEB7AE0120
:1027E0004F5F5F4F66E08AEFD0DFFE013196AE01AA
:1027F000495F5F4F8FEF90E02191922B82234E171C
:102800005F07D1F7992369F08F3F59F099818E8145
:1028100026960FB6F894DEBF0FBECDBFDF91CF91E5
:1028200008958FEF9FEFF4CFCF93DF93CDB7DEB74F
:10283000C251D1400FB6F894DEBF0FBECDBF42E10A
:1028400051E069ED71E0CE0101960E94BC2E42E19B
:1028500051E061E070E0CE0101960E94F92ECE5E5B
:10286000DE4F0FB6F894DEBF0FBECDBFDF91CF9124
:102870000895EF92FF920F931F93CF93DF930F92E0
:102880000F92CDB7DEB7082F142F732F8DB79EB7D9
:102890009A83898350E0CA010196EDB7FEB7E81B21
:1028A000F90B0FB6F894FEBF0FBEEDBF8DB79EB704
:1028B00001967C016183622F01960E94D92E41E02E
:1028C000410FB701802FAEDCE981FA810FB6F89491
:1028D000FEBF0FBEEDBF0F900F90DF91CF911F9104
:1028E0000F91FF90EF900895EF92FF920F931F9337
:1028F000CF93DF930F92CDB7DEB780910D02811198
:1029000009C08FEF0F90DF91CF911F910F91FF9032
:10291000EF9008951982A0910702B0910802E0910A
:102920000902F0910A028E010F5F1F4F980141E0EA
:1029300051966C9180819DDF7801882311F3A091DD
:102940000702B0910802E0910902F0910A02980191
:1029500041E015966C9180818CDF882391F2A091E3
:102960000702B0910802E0910902F0910A02980171
:1029700041E014966C9180817CDF882309F4C1CFFB
:10298000E0910702F09108026481E0910902F09160
:102990000A0280912402882309F457C08CE08983BD
:1029A000980141E0808165DF882309F4AACF2FEFE9
:1029B00080E792E0215080409040E1F700C00000A5
:1029C00080EC898380910D0280FF02C080EE8983B4
:1029D000A0910702B0910802E0910902F0910A0269
:1029E000970141E014966C91808143DF882309F4BC
:1029F00088CF80911302882331F182E08983A091EE
:102A00000702B0910802E0910902F0910A029701D1
:102A100041E051966C9180812CDF882309F471CFBD
:102A20001982A0910702B0910802E0910902F09189
:102A30000A02970141E015966C9180811ADF91E0BE
:102A4000892781955FCF1982DACF84E08983980145
:102A500041E080810EDF882309F453CF8091140276
:102A6000811104C080910D0280FD3EC080E4898305
:102A7000A0910702B0910802E0910902F0910A02C8
:102A8000970141E014966C918081F3DE882309F46C
:102A900038CF2FEF80E792E0215080409040E1F75F
:102AA00000C0000080911302882301F181E0898336
:102AB000A0910702B0910802E0910902F0910A0288
:102AC000970141E051966C918081D3DE882309F40F
:102AD00018CFA0910702B0910802E0910902F0918D
:102AE0000A0222E132E0A6CF80E6C1CF1982E0CF10
:102AF000CF93DF930F92CDB7DEB79C0180910D028B
:102B0000811105C08FEF0F90DF91CF91089581E083
:102B10002C3B310588F482E02236310568F483E0ED
:102B20002A32310548F484E02431310528F485E067
:102B30002A30310508F486E0898390910E0289815C
:102B40009817A9F0A0910702B0910802E09109023C
:102B5000F0910A029E012F5F3F4F41E012966C9167
:102B6000808187DE882371F2898180930E0280E064
:102B7000CACFEF92FF920F931F93CF93DF930F92E1
:102B80000F92CDB7DEB7FC018B017A0180910D0267
:102B900081110AC08FEF0F900F90DF91CF911F919D
:102BA0000F91FF90EF9008959E2F8F2F9A83898326
:102BB000A0910902B0910A029B012E0F311D1896B7
:102BC0008D919C9119978217930720F3E09107024A
:102BD000F09108029E012F5F3F4F42E0638D8C9180
:102BE00048DE8823B9F2A0910702B0910802E09173
:102BF0000902F0910A029701402F58966C9180814A
:102C000038DE91E089278195C6CFCF93DF930F926D
:102C1000CDB7DEB780910D02811105C08FEF0F9007
:102C2000DF91CF91089588E1898380910B028330F1
:102C3000C1F0A0910702B0910802E0910902F09161
:102C40000A029E012F5F3F4F41E016966C918081F2
:102C500010DE882319F38981869586958695809361
:102C60000B0280E0DCCFCF93DF930F92CDB7DEB7BE
:102C700080910D02811105C08FEF0F90DF91CF91F0
:102C80000895198280910C028823C1F0A091070257
:102C9000B0910802E0910902F0910A029E012F5FB3
:102CA0003F4F41E017966C918081E3DD882321F34B
:102CB000898186958695869580930C0280E0DDCF8C
:102CC0000F931F93CF93DF930F92CDB7DEB7809111
:102CD0001402882309F457C0A0910702B09108029A
:102CE000E0910902F0910A028E010F5F1F4F9801D7
:102CF00041E014966C918081EBDA811107C08FEF6F
:102D00000F90DF91CF911F910F910895898190913C
:102D10000D0290FF3AC080628983A0910702B091B2
:102D20000802E0910902F0910A02980141E014962C
:102D30006C9180819EDD882311F38FED9EE20197D7
:102D4000F1F700C0000080912202882301F180E8A1
:102D5000898380912302882319F089818063898384
:102D6000A0910702B0910802E0910902F0910A02D5
:102D7000980141E057966C9180817BDD882309F4AE
:102D8000BECF1092140280E0BBCF8F7DC5CF1982D9
:102D9000E0CFCF93DF930F92CDB7DEB769839E016B
:102DA0002F5F3F4F41E0682F82E563DD0F90DF9199
:102DB000CF910895EF92FF920F931F93CF93DF93DC
:102DC000CDB7DEB768970FB6F894DEBF0FBECDBFA4
:102DD0007C0180910202909103028F3F980709F0D5
:102DE0006EC0F7DC9C0190930302809302022F3F98
:102DF0003F4FB9F465E580EFCCDF85E38A95F1F7C5
:102E0000000060E08BEFC5DF95E39A95F1F70000D5
:102E1000E0DC909303028093020225E32A95F1F708
:102E20000000809102029091030283319F4F71F460
:102E300061E08BEFAEDF85E38A95F1F7000065E591
:102E400080EFA7DF95E39A95F1F7000080910202E9
:102E5000909103029E7F019709F0A5C063E08EEF79
:102E600098DF25E32A95F1F70000AE01475F5F4F39
:102E700068E080E08ADC8FE193E00197F1F700C021
:102E80000000AE014F5F5F4F68E080E07EDC48E00D
:102E900050E0BE016F5F7F4FCE0109960E94CC2E9D
:102EA000892BD1F58F859889892B09F073C08CEB1C
:102EB0009DE09093C2028093C10286E072C08B3085
:102EC000984109F48ECF8E010F5E1F4FA8016091CB
:102ED000000280E05ADCB801882389F0F801809173
:102EE0000002A801480F511D8FEF90E04E175F07B9
:102EF00079F4992309F475CF8F3F09F472CFE091EB
:102F0000C102F091C202309779F1C70119952CC026
:102F10002191922B8223EACF8FE193E00197F1F781
:102F200000C0A2CF419709F051C08EEC9EE018C0BE
:102F300082312FEF920759F158F4833021E0920744
:102F400019F18330934009F041C081E19EE008C04F
:102F500083319F4FD9F58DEB9EE002C080E59DE067
:102F60009093C2028093C10268960FB6F894DEBFB8
:102F70000FBECDBFDF91CF911F910F91FF90EF90CA
:102F8000089586ED95E2ECCF8FEF9CE0E9CF8EE7D8
:102F90009EE0E6CF8EE89DE09093C2028093C1024E
:102FA00088E08093000280910202909103028130B8
:102FB00021E09207C9F208F0BBCF8330910571F28E
:102FC00008F0B0CF0097E9F2019771F28BE098E139
:102FD00090930302809302021092C2021092C102E7
:102FE000C3CF1F93CF93DF930F92CDB7DEB7182FC8
:102FF00080912302811729F1112341F180E3898314
:1030000080911402882319F08981826089838091DC
:103010002202882319F0898180688983A0910702A0
:10302000B0910802E0910902F0910A029E012F5F1F
:103030003F4F41E057966C9180811BDC81111093CA
:1030400023020F90DF91CF911F9108951982D8CF5D
:10305000EF92FF921F93CF93DF930F92CDB7DEB71E
:10306000182F807719F081E0898303C01123F1F0D4
:103070001982A0910702B0910802E0910902F09133
:103080000A02CE0101967C019C0141E055966C91AB
:103090008081EFDB970181110BC010920D020F9020
:1030A000DF91CF911F91FF90EF90089580E4DCCFE6
:1030B00089818F7B80930F0216FF32C0198215FD24
:1030C00003C089818260898314FD03C08981816086
:1030D000898313FD03C0898188638983A0910702D6
:1030E000B0910802E0910902F0910A0241E056967F
:1030F0006C918081BEDB882381F2812F877F11F064
:1031000080E06FDF10930D02109216029FEF20E710
:1031100082E0915020408040E1F700C00000BFCF26
:1031200084E08983CCCFCF93DF930F92CDB7DEB706
:10313000909124029923E9F0882339F182E0898370
:10314000A0910702B0910802E0910902F0910A02F1
:103150009E012F5F3F4F41E051966C91808189DB4A
:10316000882319F08981809313020F90DF91CF910A
:10317000089590910D029923C1F3882331F0809135
:1031800013028111F2CF81E0DACF1982D9CF1F93D8
:10319000CF93DF93D82F80912402C0E081111FC00C
:1031A00080910D028823B9F0109112028D23809333
:1031B0001202C1E08D1301C0C0E0C19580911602DA
:1031C0008D2B59F081E0AFDFDD2349F08DDB8823C3
:1031D00031F010931202CFEF02C080E0A4DF8C2FF9
:1031E000DF91CF911F9108951F93CF93DF930F929B
:1031F0000F92CDB7DEB7182F81111EC080E0F1DE2F
:10320000198287E08A83A0910702B0910802E091B9
:103210000902F0910A029E012F5F3F4F42E055964E
:103220006C91808126DB8111109216020F900F9015
:10323000DF91CF911F91089581E0D3DE80E28983F1
:10324000113041F51A8285E090E052DC8A8120E459
:10325000829FC001112487608A83A0910702B091E8
:103260000802E0910902F0910A029E012F5F3F4F90
:1032700042E055966C918081FCDA8823B9F288E0AF
:1032800080930D0210920F0281E08093160280E07D
:103290007EDFCCCF163018F481E08A83D4CF15318D
:1032A00028F482E08A838AE090E0CFCF83E08A83AB
:1032B00084E190E0CACF0F931F93CF93DF930F92D7
:1032C000CDB7DEB78C0180910D02811107C08FEF61
:1032D0000F90DF91CF911F910F910895809124025B
:1032E0008111F5CF80911602882351F0C801019712
:1032F000889720F4802F78DF80E0EACF80E074DFC9
:10330000B801093E134010F068EE73E064307105B7
:1033100010F464E070E008EE13E0C8010E94252E6E
:1033200061506983A0910702B0910802E0910902FF
:10333000F0910A029E012F5F3F4F41E011966C9180
:10334000808197DA882309F4C2CF698170E06F5FCA
:103350007F4FC8010E94392E7093110260931002B2
:10336000CB0196958795C4DBC7CF7F928F929F92B2
:10337000AF92BF92CF92DF92EF92FF920F931F9383
:10338000CF93DF93CDB7DEB7CB53D2400FB6F894CF
:10339000DEBF0FBECDBF42E151E061E070E0CE0183
:1033A00001960E94E92E8D859E85AF85B889089784
:1033B000A105B10540F442E151E060E070E0CE01CA
:1033C00001960E94E92E89859A85AB85BC85853159
:1033D000944DA24AB105B1F042E151E069ED71E0CE
:1033E000CE0101960E94BC2E1D861E861F86188A5D
:1033F00042E450E06DE772E0CE018B559F4F0E9492
:10340000BC2E08C08D859E85AF85B8890297A10521
:10341000B10570F38A81873009F040C08FE08A835C
:103420008D859E85AF85B8890497A105B10548F4BF
:1034300048E550E065E272E0CE01835B9F4F0E9459
:10344000BC2E8D859E85AF85B88986309105A105F6
:10345000B10548F51C82C951DF4F1882C75ED040C4
:10346000EA81F0E0E551FD4FE491E23021F48AA5D4
:1034700091E089278AA742E050E069EE72E0CE0130
:103480008F5E9E4F0E94BC2E44E250E065EC72E0DD
:10349000CE0183519F4F0E94BC2E13C0883009F08B
:1034A000BFCF8DE0BCCF86309105A105B10599F263
:1034B00089309105A105B10598F20D97A105B105D7
:1034C000D0F28D859E85AF85B8890E97A105B1058F
:1034D000E8F488A9843030F4823008F4B1C181E086
:1034E00088AB04C08450823008F418AA8EE090E0C3
:1034F000A0E0B0E08D879E87AF87B88B42E151E0B6
:1035000061E070E0CE0101960E94F92E82E191E027
:10351000FE013196DE01AD5EBE4F01900D92019726
:10352000E1F7CC5EDE4FE881C451D140E0938C08D6
:10353000CA5EDE4F8881C651D14080938B08CD5E34
:10354000DE4F8881C351D14080938A08F0E0E55175
:10355000FD4F949181E0913009F080E080938908DB
:10356000E49181E0E23009F080E08093880885B53D
:10357000826085BD85B5816085BD80916E0081606A
:1035800080936E00C750DE4F8881C95FD140882389
:1035900009F458C10E948E0CC85CDD4F68837983A2
:1035A0008A839B83C853D2408E010B5D1D4FC6504A
:1035B000DE4F88819981AA81BB81CA5FD140F80121
:1035C00080839183A283B383C85CDD4F8881998116
:1035D000AA81BB81C853D24089839A83AB83BC83C1
:1035E00010924D0660E088E00E94E70B60E085E302
:1035F0000E94E70B20E040E060E074E284EF90E09E
:103600000E94240C60E088E00E94790B81E00E9417
:10361000C20CAFE1BEE41197F1F700C0000061EF0A
:1036200084E00E94A30F62E083E00E94A30FBE012A
:103630006B5C7D4F86E00E945C10CB5CDD4F688147
:10364000C553D240697FCB5CDD4F6883C553D24000
:1036500086E00E94A30F8DE10E946D10F82E0E945B
:10366000890F8DE10E946D10882341F0F81202C08D
:103670000E94890F60E08DE10E94A30FBE01695C8A
:103680007D4F86E00E945C10C95CDD4F6881C753A6
:10369000D240677D6360C95CDD4F6883C753D24009
:1036A00086E00E94A30FBE016B5C7D4F86E00E9406
:1036B0005C10BE016B5C7D4F80E00E945C10CB5CB7
:1036C000DD4F6881C553D2406C60CB5CDD4F6883B1
:1036D000C553D24080E00E94A30F6CE485E00E94B5
:1036E000A30F8DE10E946D10682F64608DE10E9430
:1036F000A30F8CE10E946D10682F6F638CE10E9414
:10370000A30F8DE10E946D10682F66608DE10E940D
:10371000A30F8CE10E946D10682F63608CE10E9402
:10372000A30F6FE381E00E94A30F60E787E00E9490
:10373000A30F0E94830F0E947D0F60E787E00E9425
:10374000A30FCB5CDD4F1882C553D240BE016B5C2A
:103750007D4F80E00E945C10CB5CDD4F8881C553BB
:10376000D2408C78CB5CDD4F8883C553D24060E07B
:1037700088E00E94790BCB5CDD4F6881C553D24055
:10378000636080E00E94A30F61E088E00E94790BF3
:10379000B8018AE00E947B10B80180E10E947B1092
:1037A00060E088E00E94790BBE016F5F7F4F8BE085
:1037B0000E947B1063E082E00E94A30F61E088E03A
:1037C0000E94790B80916900826080936900EC9A75
:1037D00081E08093870880918C08823209F0D1C4FF
:1037E0008CE198E090932D0880932C0881E0C95ECD
:1037F000DE4F9881C751D140923009F480E0809328
:10380000860888E5FE01E15AFE4FAEE2B8E001907D
:103810000D928A95E1F7C55CDD4F0FB6F894DEBFD7
:103820000FBECDBFDF91CF911F910F91FF90EF9011
:10383000DF90CF90BF90AF909F908F907F90089532
:1038400082E04ECEC85EDE4F8881C851D140809361
:10385000CA07C75EDE4F8881C951D1408093C9072E
:1038600080917A00846080937A0080917A008260EF
:1038700080937A0080917A00816080937A008091B1
:103880007A00806880937A00CD5EDE4F8881C351D4
:10389000D140823009F4CEC3833009F4CEC38130E5
:1038A00099F4C65EDE4F8881CA51D14080934E069E
:1038B0008AED96E19093C8078093C70781EB99E062
:1038C0009093C6078093C507CD5EDE4F8881C351B4
:1038D000D140833009F0EAC3CB5EDE4F8881C55109
:1038E000D1408130C9F410926C0681E080936B0660
:1038F00010926A06589A599A8091B9008E7F8093E7
:10390000B9008091B9008D7F8093B9008AE08093DF
:10391000B80085E48093BC00CB5EDE4F9881C55132
:10392000D14081E0913041F0CD5EDE4F2881C3511E
:10393000D140213009F080E081708093AA07C95EF0
:10394000DE4F8881C751D140823009F4C7C381E07E
:10395000CD5EDE4F2881C351D140233009F080E095
:1039600081708093A907C250DE4F8881CE5FD1401D
:103970008093A8079093A70784E2FE01E150FE4FD1
:10398000A3E8B7E001900D928A95E1F710928207C3
:10399000109281070E94DF0B1092F0061092EF0642
:1039A00010926E0610926D06FE01ED5EFE4F5F01F5
:1039B0006F0100E045E0942E7E0194E0E90EF11CD9
:1039C000D701E92D1D92EA95E9F70983D601909672
:1039D0008C9010918808BFEF8B1669F1053049F47F
:1039E000112339F0CB5EDE4F8881C551D140833041
:1039F00011F5F60171A061E0882D0E94E70B7B8232
:103A00008AEC880D8A83A091EF06B091F006CD0173
:103A100001969093F0068093EF0633E0AA0FBB1F48
:103A20003A95E1F7A159B94F88E0FE01319601902E
:103A30000D928A95E1F70F5FF2E0CF0ED11C0630B0
:103A400009F0BECFC250DE4F8881CE5FD1408F3F9C
:103A500019F060E00E94E70BD12CC12C29E0F22E76
:103A600088248394CD5EDE4F9880C351D14022E0FC
:103A700092124FC3D50150964C914F3F09F495C017
:103A800081E0BCE0CB16D10438F49601285031090E
:103A90002230310508F080E0E82FE1707E2E80FFB3
:103AA00008C001E0C95EDE4F8881C751D140813036
:103AB00009F000E00170E12C2C2DBE016D5E7E4FFF
:103AC000CE0101960E943C0BE8840985809189080B
:103AD000882309F405C3772009F402C3D501509661
:103AE0007C90B5E3B71508F0FBC2CF5BDE4F888151
:103AF000C154D140E8E08E9FC0011124C95DDD4F63
:103B0000188219821A82C752D240CB5DDD4F78826B
:103B1000C552D240C45DDD4F8882CC52D240C65DD2
:103B2000DD4F99838883CA52D24061E0872D0E947D
:103B3000E70BA091EF06B091F0060A2F8AEC870DF3
:103B4000CA5DDD4F8883C652D240CD010196909365
:103B5000F0068093EF0693E0AA0FBB1F9A95E1F75A
:103B6000A159B94F88E0FE01EB5DFD4F01900D9228
:103B70008A95E1F780918107909182079C012F5FE0
:103B80003F4F3093820720938107E8860987F89E8C
:103B9000D001F99EB00D1124AF50B94FFE013196FE
:103BA0008F2D01900D928A95E1F7FFEFCF1ADF0A72
:103BB0002FEFA21AB20A80E1C816D10409F052CF41
:103BC000112309F423C2CB5EDE4F1881C551D140C9
:103BD000113009F0C6C2CE5BDE4F8881C254D1409D
:103BE0008093C007789480E88983A0910702B09100
:103BF0000802E0910902F0910A029E012F5F3F4FF7
:103C000041E055966C9180810E943914882309F413
:103C100067C09FEFA9E6B8E19150A040B040E1F73E
:103C200000C000001982A0910702B0910802E09143
:103C30000902F0910A029E012F5F3F4F41E0559625
:103C40006C9180810E943914882309F449C0109234
:103C500015028FEF80930D0280930B0280930C026C
:103C600080930E022FEF3FEF30931102209310024A
:103C7000809312028093140210930F021093220279
:103C8000109223021092170210921602E8E1F2E05D
:103C90008AE0DF011D928A95E9F7109224021092C2
:103CA000250210922702109226020E940516811109
:103CB00017C00E943316811113C08AE290E00E945F
:103CC000781581110DC082E390E0F5DA811108C00A
:103CD0005EDA811105C00E946016811101C0B8D959
:103CE00088E7B6D90E9405160E94331688E74FDA96
:103CF00080912502811199C0D12CC12C86EFE82E2C
:103D00008BE0F82E87010C191D090131110510F007
:103D100000E110E0F601EC5EFC4FDE011196CD01F2
:103D2000800F911F8A179B0709F017C2AE014F5FE2
:103D30005F4FB801C6010E94B915811176C080910C
:103D40000D02882309F471C09C2D8D2DCB5CDD4FB5
:103D500099838883C553D240E0910902F0910A0209
:103D600020853185C8018C0D911D2817390708F46D
:103D70005CC0A0910702B09108029E012B5C3D4FF0
:103D800042E05B966C9180810E943914882309F48B
:103D90004CC0A0910702B0910802E0910902F09195
:103DA0000A029E012B5D3D4F402F58966C918081F9
:103DB0000E9468118823C9F1A801BE016B5D7D4F87
:103DC000CE0101960E94CC2E892B79F5C00ED11E12
:103DD000B6EFCB16BBE0DB0608F494CF84E0CB5CF7
:103DE000DD4F8883C553D240CA5CDD4F1882C6536D
:103DF000D240A0910702B0910802E0910902F0912F
:103E00000A029E012B5C3D4F42E05D966C918081E1
:103E10000E943914882349F081E08093250288ECC0
:103E200090E090932702809326028CE0E9EAF2E08A
:103E3000DE01119601900D928A95E1F7CB5DDD4F81
:103E40001882C552D24085E0CA5DDD4F8883C652D4
:103E5000D240AE014B5D5D4F62E070E086E192E0E2
:103E60000E94B915811111C0AE014F5F5F4F6CE028
:103E700070E081EC9AE00E94B915811106C08EE1D4
:103E800090E09093B4078093B3078091240281302F
:103E900011F1809125028823F1F080E044D90E943D
:103EA0006016809126029091270205DA1982E0912E
:103EB0000902F0910A029E012F5F3F4F41E063E249
:103EC00080810E943914882331F081E0809324029C
:103ED0002AD90E94741482E089838AEC8A8383EE53
:103EE0008B8319E01C83AE014F5F5F4F64E070E08D
:103EF00088E690E00E94B91583EA89838A838B83E0
:103F00008C838D838E838F83888789878A87AE0190
:103F10004F5F5F4F6AE070E087EA9AE00E94B91550
:103F200088ED8983AE014F5F5F4F61E070E086EB03
:103F30009AE00E94B915E6EBF2E0DE01AB5DBD4F01
:103F400001900D921A95E1F7AE014B5D5D4F69E06E
:103F500070E088EB94E00E94B91544E050E06BE813
:103F600070E0CE018B5D9D4F0E94E22EAE014B5D55
:103F70005D4F64E070E088E99AE00E94B9150E9404
:103F8000741480E2CB5DDD4F8883C552D24088E255
:103F9000CA5DDD4F8883C652D24080E3C95DDD4FE4
:103FA0008883C752D24088E3C85DDD4F8883C852FA
:103FB000D240AE014B5D5D4F64E070E08EE99AE067
:103FC0000E94B9150E94741488E190E09093B207A2
:103FD0008093B1070E94741480E18093B5078AE250
:103FE00092E29093BF078093BE0786E0FE01E35EF6
:103FF000FD4FA7EBB7E001900D928A95E1F7C25C07
:10400000DE4F8881CE53D1408093B607C05CDE4F2F
:104010008881C054D1401092C3078093C407C15C0B
:10402000DE4F8881CF53D14090E09093C2078093B8
:10403000C107D1CB8DED99E043CC21E041E060EAAE
:1040400076E881E090E00E94240CEE24E39400E006
:1040500020E04AE0BE016D5E7E4F81E696E00E9460
:104060003C0B20E043E3BE016D5E7E4F88E596E0A9
:104070000E943C0B20E044E3BE016D5E7E4F8FE466
:1040800096E00E943C0B60E08AE00E94E70B0E94F1
:104090008D1182E29AE09093C6078093C50781E76D
:1040A00093E19093C8078093C7070ECCC95EDE4F9B
:1040B0008881C751D140823041F421E041E060E085
:1040C00072E18AE790E00E94240CCD5EDE4F888189
:1040D000C351D140813009F0FFCB05CC81E040CC09
:1040E0008C81882311F099249394692DD5015096E1
:1040F0008C910E94E70B112309F43CCDB2E0CB1662
:10410000D10408F037CDCC5DDD4FE880C452D240F9
:1041100031CDE12C00E02C2D40E0BE016D5E7E4FE4
:10412000CE0101960E943C0B2885112349F0E2E064
:10413000CE16D10428F4CC5DDD4F2881C452D24084
:104140008091810790918207AC014F5F5F4F509340
:1041500082074093810728871ACD24912D933196A9
:10416000E1CD123009F041CFC35CDE4F8881CD53E1
:10417000D1408093BD0762E00E94E70B81EB9BE09A
:1041800030CF833268F082E4FE01E954FE4FABEC9D
:10419000B7E001900D928A95E1F787E19FE022CB8D
:1041A000843118F48EE990E11DCB9CEE980F963087
:1041B00008F58AE1E3E1F1E0EC0FFD1FF296A1E1E1
:1041C000B8E001900D928A95E1F7C05CDE4F8881DE
:1041D000C054D14010920F0880931008C15CDE4F8C
:1041E0008881CF53D14010920D0880930E0888E942
:1041F0009AE0F8CA803258F046E050E063EA72E094
:1042000088E392E00E94BC2E86E080932B08809188
:104210008C088A3149F48DE080932B028CE08093E6
:104220002C0281E898E0DECA982F9D7F4EE050E096
:1042300066E27FE09C3171F04EE050E068E17FE0A3
:104240008B3141F08D3111F0803259F74EE050E062
:104250006AE07FE08AE292E00E94BC2EE2CFCF9338
:10426000DF9300D00F92CDB7DEB720E030E040E022
:1042700057E469837A838B839C8369817A818B81FC
:104280009C810E948B2D69837A838B839C836981B7
:104290007A818B819C810E94282DCB010F900F90F9
:1042A0000F900F90DF91CF9108958F929F92AF92D0
:1042B000BF92CF92DF92EF92FF920F931F93CF9313
:1042C000DF9300D000D00F920F92CDB7DEB78C01F4
:1042D0006F8378872F8138852817390771F480E03C
:1042E00090E2121613060CF471C090E080E0232BCC
:1042F00009F46CC080E090EA69C0990F880B982F90
:1043000080959095980128273927A901481B590BBA
:104310005E834D838F819885990F880B982F8095A8
:1043200090952F81388528273927B901681B790B8B
:104330007A83698364EE77EF81EB9DE390DFD82E7B
:10434000C92E69EF7DE78CEA9EE389DF7C018F81CE
:1043500098859C01990F440B550B4801012E000CC8
:10436000AA08BB08A981BA816D817E81A617B7070B
:104370000CF03FC0D501C4016FE0880F991FAA1F40
:10438000BB1F6A95D1F789839A83AB83BC83BC0139
:10439000CD010E946E2E4901C901990F880B982FFB
:1043A00080959095BC0162277925681B790B8D2D2E
:1043B0009C2D0E94FD0FB4018E0D9F1D0E94FD0FCC
:1043C000AF81B8851A161B060CF0905828960FB6C8
:1043D000F894DEBF0FBECDBFDF91CF911F910F913B
:1043E000FF90EF90DF90CF90BF90AF909F908F9015
:1043F0000895CA01B9012FE0660F771F881F991F22
:104400002A95D1F769837A838B839C83A5019401D4
:104410000E946E2E4901C901990F880B982F809533
:104420009095BC0168257925681B790B8D2D9C2DF5
:104430000E94FD0FB4018E0D9F1D0E94FD0F9C0177
:1044400080E090E41016110614F080E090EC821BDE
:10445000930BBCCF8F929F92AF92BF92CF92DF927D
:10446000EF92FF920F931F93CF93DF93CDB7DEB7F9
:10447000EA970FB6F894DEBF0FBECDBF89AF9AAFF3
:104480001092E9021092E802D090B507ED2CF12CC1
:1044900080912402882311F180910D028823F1F08C
:1044A000A0910702B0910802E0910902F0910A027E
:1044B0009E012F5D3F4F42E01C966C9180810E94CF
:1044C0006811882359F009A11AA110270127102784
:1044D0000E151F0508F08FC01092E7028091E802C8
:1044E0009091E9028115914009F0E5C2C090EA027D
:1044F000D090EB02E090EC02F090ED0277E1F594C1
:10450000E794D794C7947A95D1F7D092EB02C092F2
:10451000EA028090EE029090EF02A090F002B0903C
:10452000F102E7E1B594A79497948794EA95D1F7BF
:104530009092ED028092EC024091F2025091F302CF
:104540006091F4027091F502F7E1759567955795C2
:104550004795FA95D1F75093EF024093EE02009100
:10456000F6021091F7022091F8023091F902A7E1CA
:104570003595279517950795AA95D1F71093F102D0
:104580000093F0028091C007009FF001019FF00DA1
:10459000F00D1124813009F4D7C1823009F4E0C252
:1045A000811165C2449FC001459F900D900D11245B
:1045B0008E0F9F1F880F991FE0E0F0E8E81BF90BB2
:1045C000489DD001499DB00D589DB00D11240C9D02
:1045D000C0010D9D900D1C9D900D11249D01281B67
:1045E000390BC901BF01880F991F5FDE9093E60266
:1045F0008093E5023CC2E0910902F0910A028181B8
:1046000092819695879580179107B0F4A091070243
:10461000B09108029E012F5D3F4F41E053966C918F
:1046200080810E946811882309F458CF89A184FFF2
:1046300003C00E94741452CFA0910702B0910802E7
:10464000E0910902F0910A029E012F5F3F4F4D2D2C
:104650001D966C9180810E946811882309F43ECFD9
:10466000C801B7010E94252E61506093E702E091D6
:10467000B107F091B207CF0184719927892B09F412
:1046800061C129813A814B815C81CA01B9010E94D3
:104690008A2E4B015C018092EA029092EB02A0927A
:1046A000EC02B092ED028D819E81AF81B885BC0194
:1046B000CD010E948A2E6B017C01C092EE02D09245
:1046C000EF02E092F002F092F10229853A854B85E3
:1046D0005C85CA01B9010E948A2E8B019C0100935E
:1046E000F2021093F3022093F4023093F5028D85C9
:1046F0009E85AF85B889BC01CD010E948A2EAB0191
:10470000BC014093F6025093F7026093F802709355
:10471000F902C501BB2797FDB095AB2F8BA39CA3D6
:10472000ADA3BEA3C701BB2797FDB095AB2F8FA349
:1047300098A7A9A7BAA7C901BB2797FDB095AB2F2A
:104740008BA79CA7ADA7BEA7CB01BB2797FDB095B4
:10475000AB2F8FA798ABA9ABBAAB2BA13CA14DA1B6
:104760005EA1CA01B9010E94162E6BA37CA38DA382
:104770009EA32FA138A549A55AA5CA01B9010E9437
:10478000162E6FA378A789A79AA7CBA0DCA0EDA0CF
:10479000FEA0C60ED71EE81EF91E2BA53CA54DA5F2
:1047A0005EA5CA01B9010E94162EC60ED71EE81ECC
:1047B000F91E2FA538A949A95AA9CA01B9010E9411
:1047C000162E6BA37CA38DA39EA3C60ED71EE81E38
:1047D000F91E9FE0F91AA1E0CA16D104E104A2E093
:1047E000FA0638F00E9474141092E9021092E8025E
:1047F00075CE8091E8029091E90291609093E90270
:104800008093E80280E1E6FF4DC0A1E0B0E0AC0F8C
:10481000BD1FA80FB11D9C9121E0280FA1E0B0E0C1
:10482000AC0FBD1FA20FB11D2C91392F3093010089
:104830002093000092E0980FA1E0B0E0AC0FBD1F04
:10484000A90FB11D9C9123E0280FA1E0B0E0AC0FAF
:10485000BD1FA20FB11D2C91392F3093030020935F
:10486000020094E0980FA1E0B0E0AC0FBD1FA90FCB
:10487000B11D9C9125E0280FA1E0B0E0AC0FBD1F59
:10488000A20FB11D2C91392F309305002093040005
:104890008A5F2091E8023091E90228603093E902B2
:1048A0002093E802E078F170EF2B09F417CEE1E0F5
:1048B000F0E0EC0FFD1FE80FF11D908121E0280FC3
:1048C000E1E0F0E0EC0FFD1FE20FF11D2081392F38
:1048D000309301002093000092E0980FE1E0F0E0B7
:1048E000EC0FFD1FE90FF11D908123E0280FE1E09F
:1048F000F0E0EC0FFD1FE20FF11D2081392F309306
:1049000003002093020094E0980FE1E0F0E0EC0F48
:10491000FD1FE90FF11D90818B5FE1E0F0E0EC0FEE
:10492000FD1FE80FF11D8081909305008093040026
:104930008091E8029091E90280679093E902809368
:10494000E802CCCD80E05FCF089DC001099D900DAD
:10495000189D900D11244C9D90014D9D300D5C9D36
:10496000300D11247C01E21AF30AB701C7010E943D
:10497000FD0F8C01BC010E94FD0F5C01BC010E9477
:10498000FD0F6C0160E670EB89E39DE368DCB80124
:104990000E94FD0F8BA39CA36AE27EEE87E39CE35B
:1049A0005EDC8FA398A76EEF7AEB87ED9CE357DC74
:1049B000B8010E94FD0F8BA79CA766EA79EB88EAF5
:1049C0009CE34DDC8FA798AB62E377E88AEF9CE32A
:1049D00046DCB8010E94FD0F8BAB9CAB63E87EEC1C
:1049E00086E39DE33CDC8DAB9EAB6AEC79E989E91B
:1049F0009DE335DCB8010E94FD0F8FAB98AF6AEAEA
:104A00007AEA8AE29EE32BDC4C01B5018BA19CA1E2
:104A10004FA158A5841B950B0E94FD0F2BA53CA50B
:104A2000AFA5B8A92A0F3B1FB601820F931F0E94A2
:104A3000FD0F6C01B5018BA99CA9EDA9FEA98E0FF4
:104A40009F1F0E94FD0F8C0D9D1D2FA938AD820E5A
:104A5000931EB801880D991D0E94FD0FB7010E9499
:104A6000FD0FE80EF91EF092E602E092E502809159
:104A7000E5029091E6028A3939E193070CF48FC080
:104A800089E999E19093E6028093E5022091E5029D
:104A90003091E60245E0429FC001439F900D1124F2
:104AA0002091B607222319F0919581959109909351
:104AB000E6028093E5022091E5023091E602309310
:104AC000830320938203032E000C440B550B80912B
:104AD000B9079091BA07092E000CAA0BBB0B281B33
:104AE000390B4A0B5B0BA091B707B091B8070E9436
:104AF000B62E20E034E040E050E00E946E2EDA0155
:104B0000C9019058A109B109811550E895075FEFD7
:104B1000A507B50724F480E090E8AFEFBFEF81155B
:104B2000E0E89E07A105B10524F08FEF9FE7A0E024
:104B3000B0E0E9ADFAAD93878287EA960FB6F894B4
:104B4000DEBF0FBECDBFDF91CF911F910F91FF90C0
:104B5000EF90DF90CF90BF90AF909F908F9008958F
:104B6000CC9CC001CD9C900D900D11248E0F9F1FE9
:104B7000880F991FE0E0F0E8E81BF90B8C9CD0014E
:104B80008D9CB00D9C9CB00D1124049FC001059F0D
:104B9000900D149F900D11248A0F9B1F23CD8736F3
:104BA000964E0CF073CF87E696EE6CCF8F929F9265
:104BB000AF92BF92CF92DF92EF92FF920F931F932B
:104BC000CF93DF938C01EB0188818058990BF8011A
:104BD0001482858389818058990B168287838091FE
:104BE0004E06882309F43EC02D81822F90E0CB80B1
:104BF000F4E0CF9E60011124AC0134E05595479557
:104C00003A95E1F743705527C42AD52A3FEFC31AD6
:104C100031E0D30AEC80E4E0EE9E7001112495951A
:104C200087959595879583709927E82AF92AFFEF4C
:104C3000EF1AF1E0FF0A8A8134E0839FC00111245A
:104C40002295269526952370822BB7018F5F914080
:104C50002CDBF80191878087B701C60126DBF801BC
:104C6000938782878D81982F90959170B92EB294F9
:104C700090EFB922A12C869591E089278170982E1A
:104C80009294990C990C20EC9222812CA828B92896
:104C9000B092C402A092C302DF91CF911F910F91F5
:104CA000FF90EF90DF90CF90BF90AF909F908F904C
:104CB00008951F920F920FB60F9211240BB60F9208
:104CC0002F933F934F935F936F937F938F939F9314
:104CD000AF93BF93EF93FF936091C60081E496E09A
:104CE0000E94D007FF91EF91BF91AF919F918F915B
:104CF0007F916F915F914F913F912F910F900BBEDC
:104D00000F900FBE0F901F9018951F920F920FB625
:104D10000F9211240BB60F922F933F934F935F93F3
:104D20006F937F938F939F93AF93BF93EF93FF9373
:104D30002FB7F89480919708909198082FBF892BEE
:104D4000C9F08DE898E00E94EB078093C600FF91C0
:104D5000EF91BF91AF919F918F917F916F915F91F3
:104D60004F913F912F910F900BBE0F900FBE0F9060
:104D70001F90189588E98093C100E9CF1F921FB654
:104D80001F9211248F939F93AF93BF93809134030D
:104D900090913503A0913603B09137030196A11D80
:104DA000B11D8093340390933503A0933603B093E1
:104DB0003703BF91AF919F918F911F901FBE1F909E
:104DC00018951F920F920FB60F9211240BB60F92E7
:104DD0002F933F934F935F936F937F938F939F9303
:104DE000AF93BF93EF93FF938091B900887F88338F
:104DF00009F463C0C8F58032A1F178F5883009F470
:104E000054C0B0F4882309F474C0FF91EF91BF91AE
:104E1000AF919F918F917F916F915F914F913F9152
:104E20002F910F900BBE0F900FBE0F901F901895F3
:104E30008031D9F1883149F790911C0380911B038F
:104E4000981750F5E0911C0381E08E0F80931C03AE
:104E5000F0E0E550FD4F80812AC0883269F380334D
:104E6000A1F68093FA0207C0803579F138F48034D6
:104E7000C1F1883451F60E948F10C7CF883529F6CA
:104E8000E0911C0381E08E0F80931C038091BB0096
:104E9000F0E0E550FD4F808380916B068111EBCFF0
:104EA00081E080936A0684EA0BC080911D038093A1
:104EB000BB0085EC8093BC00A8CF8093FA0285EC00
:104EC0008093BC0010926C06A0CFE0911C0381E09F
:104ED0008E0F80931C038091BB00F0E0E550FD4FE6
:104EE000808390911C0380911B03981710F385E831
:104EF000E1CF1092FA02BFCF8F9381E080934D06ED
:104F00008F911895CDB7DEB7AC970FB6F894DEBF8A
:104F10000FBECDBF0E94B51981E090E09093C5000F
:104F20008093C40086E08093C20082E08093C0003A
:104F300088E98093C100539A5A9A40E850E061ECA6
:104F400075E081E496E00E94BC0740E051E061EC2E
:104F500074E08DE898E00E94BC0778941FA2B12C01
:104F6000712C8FB7F894D0904B068FBFDD2009F4D9
:104F70004CC2FF24F3946CE1E62E81E496E00E949B
:104F8000EB07682FB11011C08E3709F465C18D375A
:104F900009F465C1873711F4F0920602DA94D11052
:104FA000ECCF27E0B212DDCF28C121E0B21609F420
:104FB00059C132E0B312E7C080918708882309F411
:104FC0005BC06E3308F058C0623309F455C0698382
:104FD00081E08A830E947D0F0E94830F0E94370A1E
:104FE0006B017C0180E00E94C20C8FEF0E94350BA8
:104FF000182F81E00E94C20C10FD0EC080E00E94BC
:10500000C20C89EA0E94350B62E0CE0101960E9433
:10501000910F81E00E94C20C81E080934D0660E018
:1050200088E393E00E94B20F882311F08C3001F5E1
:1050300060E387E00E94A30F0E94370A6E8F7F8F84
:1050400088A399A3DC01CB018C199D09AE09BF0986
:10505000853F9140A105B10528F288E0809338038F
:1050600046E050E063ED71E089E393E085D687E0A8
:105070000E943F10B12C75CF88E0809338036E33C7
:10508000F8F0262F2E53330BC90122E3289FB001DD
:10509000299F700D112402E111E0061B170B02334A
:1050A000110514F002E310E0A80155276F5F7F4F50
:1050B00089E393E08ED6BB24B394B00E8B2DD8CF6A
:1050C000623311F0673301F56AEC71E08EE393E02F
:1050D0005CD680E094E2A4EFB0E080933903909333
:1050E0003A03A0933B03B0933C030E948E0C609361
:1050F0004D0370934E0380934F039093500310928F
:105100003D0359E1B52EDACF6C3361F48CE0E8E76A
:10511000F3E0A9E3B3E001900D928A95E1F74DE049
:10512000B42ECCCF6533B1F4B0908A0831E0B3121D
:1051300009C0809102028093390310923A0333E050
:10514000B32EBCCF83E0B812FACF809101028093D6
:105150003903B4CF663339F4809105028093390363
:105160000E94DE0CABCF48E050E062EC71E089E3D6
:1051700093E002D680918C088F3110F410923C039A
:1051800029E0B22E9BCF93E0B91211C08D3361F0AC
:10519000893309F06BC0A9E6B4E0BCA3ABA37A9451
:1051A0006AA394E0B92EFACEB1E0BFA3F8CFE4E051
:1051B000BE120FC08E9D900111243EA32DA38BA182
:1051C0009CA1820F931F9CA38BA36CA715E0B12E0B
:1051D000E5CE95E0B912E2CE7A94AFA1AA2329F1E7
:1051E0000DA11EA10F5F1F4F8DA19EA18F5F9F4F2D
:1051F0000FD61EA30DA37110D1CE809187088E010A
:105200000F5F1F4FDD24D39481113FC08AA18033EB
:1052100009F08BC09FEFA1EEB4E09150A040B040E8
:10522000E1F700C000000E943310EBA1FCA1309711
:1052300021F08193FCA3EBA3DECFFAA1FB33D9F6D7
:105240008091A8078F3FB9F291E0611101C090E011
:10525000692F0E94790BCFCFBB24B3949FCE82E0FD
:10526000B82E9CCE782E03E0B02E98CE8AA31CA236
:105270001BA2ACCFD0924D0660E08BA19CA10E94F6
:10528000B20F60E387E00E94A30FB80187E10E949C
:105290005C108981780184FFEDCF60E387E00E9494
:1052A000A30F80E00E94C20C89EA0E94350B8AA1FC
:1052B0000E94350B80E00E94350B8AA18B7F8933D9
:1052C00091F48CA50E94350B3FA13323E1F04CE112
:1052D00050E06DA17EA16F5F7F4FC8017AD56CE170
:1052E000C8010E94910F81E00E94C20C81E080936E
:1052F0004D0611E0B70187E10E945C10898184FFAF
:1053000008C01FA283CF6CE18DA19EA187599B4F3E
:10531000E8CF10934D0660E08BA19CA10E94B20FD4
:1053200060E387E00E94A30FE5CFEAA1E433A1F098
:1053300060F4E333E1F1E13309F09CCE87E797E7CE
:1053400090930108809300086ECFFAA1FA3309F018
:1053500091CE0E9414148ECE8091870881118ACE3E
:105360008091F303811186CE8FEF809305020E9416
:10537000DF0B03ED13E0B6E3FB2E62E08F2D0E94FE
:10538000E70B8FE891E00197F1F700C000008AEC8D
:105390008F0D0E94C50BD8018D939D938D01F394C1
:1053A000B6E4FB12EACF81E08093F30363CE8091F1
:1053B000870881115FCE8091D20381115BCE8FEF80
:1053C000809305020E94DF0B10E000E0802F0E9416
:1053D000C50C811111C062E0802F0E94E70BEFE83D
:1053E000F1E03197F1F700C00000802F0E94990B87
:1053F000F801E457FC4F80830F5F1F4F06341105FF
:1054000029F781E08093D20335CE0E94370A6E8F50
:105410007F8F88A399A3209187088091650490913C
:105420006604A0916704B09168044E8D5F8D68A1F9
:1054300079A1481B590B6A0B7B0B80918B0890E07C
:10544000B0E0A0E084179507A607B70708F44AC0A4
:10545000222309F486CD6CE089E594E00E94B20F26
:105460004CE050E069E574E08DE494E095D4892B3C
:1054700009F477CD80910602882309F472CDE0917A
:105480002C08F0912D0849E554E0BE01635E7F4F82
:1054900084EF93E019950E94370A60936504709336
:1054A000660480936704909368041092060288E76C
:1054B000898361E0CE0101960E94040861E0CE017B
:1054C0004D960E9404086D8D84EF93E00E940408BD
:1054D0008CE0E9E5F4E0ADE4B4E001900D928A954A
:1054E000E1F73FCD2111B7CFE091C707F091C80791
:1054F000309719F089E594E019958091F30388239A
:1055000009F4EDC003ED13E0F12C8F2D0E94C50BC3
:10551000D8012D913D918D01821B930B97FF03C004
:105520009195819591090B970CF4D4C086E38F0D6A
:10553000809305021092F30399E0C92E8824839486
:10554000912C2D2D30E080918107909182072817B2
:1055500039070CF40EC28091CA07882309F440C0B1
:1055600060915D0470915E048091C3079091C407BF
:1055700044275527481B590B641775074CF4209195
:10558000590430915A04246030935A0420935904EA
:10559000861797074CF42091590430915A042860DB
:1055A00030935A042093590420915F043091600491
:1055B000241735074CF44091590450915A04426025
:1055C00050935A0440935904821793074CF48091E6
:1055D000590490915A04816090935A04809359041D
:1055E0008091C907882381F08091590490915A04D1
:1055F0009C01207333272033310531F48F7C946074
:1056000090935A048093590480918808882349F024
:10561000E091BE07F091BF07309719F089E594E05B
:1056200019958091860881111BCF0E94350B80E06F
:105630000E94350B80E00E94350B80E00E94350B04
:105640008EE2E82E88E0F82E09E614E0D12CC12C79
:10565000F7016081D8011196AC90119712968C9049
:1056600012971396BC91BE8FF8019080962A09F488
:10567000EBC1B1111AC0A11018C0811016C0662369
:10568000A1F0D70111969C90119712968C901297C9
:105690001396BC91BE8F615089E594E00E94DB0EA9
:1056A000A82E882309F4C8C1A92C8FEF0E94350BBE
:1056B0008E8D0E94350B882D0E94350B8A2D0E94FD
:1056C000350BEFEFCE1ADE0AF4E0EF0EF11C0C5FA3
:1056D0001F4FBECFF394B0E1FB1217CF2DCF8091B7
:1056E000D2038823E9F010E000E0802F0E94C50C6F
:1056F000811110C0802F0E94990BF801E457FC4FD4
:105700009081891739F00E94DE0C009305021092F7
:10571000D20312CF0F5F1F4F0634110531F70CCFA4
:10572000E091EF06F091F006309709F45FC08091A8
:105730000402811135C080917A0086FD57C08091A6
:1057400078009091790020916D0630916E06A90144
:10575000A3E0440F551FAA95E1F7DA01A159B94F0B
:1057600017966C91179761110AC012966C9161118E
:1057700066C0925076E0880F991F7A95E1F74159FB
:10578000594FDA0114969C938E9313972F5F3F4FD6
:10579000E217F30709F45AC030936E0620936D06A2
:1057A00010920402E0916D06F0916E0663E0EE0F38
:1057B000FF1F6A95E1F7E159F94F88E0DE01119684
:1057C00001900D928A95E1F790917B008A81887013
:1057D000977F892B80937B008A8187708064809378
:1057E0007C0080917A00806480937A0010E056E01B
:1057F000C52EE12F012E000CFF0B8091EF0690913A
:10580000F006E817F9070CF097CE43E0EE0FFF1F04
:105810004A95E1F7E159F94F88E0DE0111960190D0
:105820000D928A95E1F788858823A9F08C819D8166
:10583000E981F0E0E458FC4F80831F5FDACF60E03D
:1058400072E0DB01A81BB90BCD0194CF10926E065C
:1058500010926D06A5CF153041F4809188088823F9
:1058600021F08091A707823041F30981E02EF12CCD
:105870008C819D81F701EE0FFF1FFF8FEE8FE8589F
:10588000FC4F91838083CE9CF001CF9CF00D1124BE
:10589000ED57F84F848095802C813D81032E000CBC
:1058A000440B550B82819381092E000CAA0BBB0B74
:1058B000281B390B4A0B5B0BA081B18157D268A71B
:1058C00079A78AA79BA720E034E040E050E006D209
:1058D000BA01A9015058610971094115F0E85F0743
:1058E000FFEF6F077F0724F440E050E86FEF7FEF92
:1058F000411520E852076105710524F04FEF5FE77D
:1059000060E070E0C401092C000CAA0BBB0B023054
:1059100030F020918808222371F0043061F4481798
:1059200059076A077B0714F10230C8F4F701E75AF8
:10593000FB4F528382CF481759076A077B077CF4D5
:105940008827992788199909092E000CAA0BBB0BE7
:1059500084179507A607B70714F440E050E0EE8DD2
:10596000FF8DE75AFB4F5183408367CF40E050E8FB
:10597000DBCFC29EC001C39E900D11248F50994F62
:10598000FC01DE0111962C2D01900D922A95E1F774
:10599000DC011596AC90159716961C9116971796E4
:1059A0000C910E94370A6E8F7F8F88A399A3DC0128
:1059B000CB01811B9109A109B10910E030E020E081
:1059C000081719072A073B07A8F5E091C507F091CA
:1059D000C60709811A812B813C814D815E816F81CF
:1059E00078858985199584010A2C02C0000F111F42
:1059F0000A94E2F7E82EF12C8091590490915A0410
:105A000080239123E816F906A9F00E94370A009531
:105A100010958091590490915A040823192302C0CB
:105A2000EE0CFF1CAA94E2F70E291F2910935A04CA
:105A300000935904D39485CD1E8E812C36CE8FEFE2
:105A40000E94350B20E1920E9C141D04C4F308CD76
:105A500041D0A8F19E57A8F1985160F039F19830E3
:105A600070F5092E9927660F771F881F991F0A94D2
:105A7000D1F71CC0BB27993F4CF4B111B1E0B62B54
:105A8000672F782F8827985FB1F708C0869577959C
:105A90006795B79508F4B1609395C1F7BB0F30F4E3
:105AA00011F460FF03C06F5F7F4F8F4F3EF49095FE
:105AB0008095709561957F4F8F4F9F4F08956894A3
:105AC00024C022C057FD9058440F551F59F05F3F26
:105AD00071F04795880F97FB991F61F09F3F79F010
