:100000000C94DF080C94FC080C94FC080C94FC087D
:100010000C94EF2E0C94FC080C94FC080C94FC0837
:100020000C94FC080C94FC080C94792D0C94FC089E
:100030000C94FC080C94FC080C94FC080C94FC0830
:100040000C94FC080C94FC080C94FC080C94FC0820
:100050000C94FC080C94FC080C94FC080C94352EB1
:100060000C94FC080C94FC080C94FC080C94FC0800
:100070000C94FC080C94FC080C94FC080C94FC08F0
:100080000C94FC080C94FC080C94FC080C94FC08E0
:100090000C94582E0C94FC080C94FC080C94FC084E
:1000A0000C94FC080C94FC080C94FC08120341000E
:1000B000720064007700690069006E006F0014032D
:1000C000730061006E006A00610079003900300041
:1000D00030000403090400000000240027002A0067
:1000E0002D003000000000002300260029002C0015
:1000F0002F0000000000250028002B002E003100FA
:100100000408020110408040102040804080080216
:100110000401804020100201108010204040200483
:10012000040404040304050202020204030202029E
:100130000206060606060604040202020404FF087C
:100140000F0C21260107000000006D6963726F002B
:100150004552524F5200000800000000000000828B
:10016000F82300143FF7FFFF00000000C0FFC0FFAE
:100170000000000000004000000000010400020038
:1001800000000000000001045855534231300000C7
:100190000000000000000000000000000000020459
:1001A00057494E5553420000000000000000000077
:1001B0000000000000008E000000000105000100AA
:1001C0008400000001000000280044006500760063
:1001D00069006300650049006E00740065007200EC
:1001E0006600610063006500470055004900440057
:1001F00000004E0000007B0044004600350039003E
:1002000030003300370044002D0037004300390030
:1002100032002D0034003100350035002D00410042
:100220004300310032002D00370044003700300019
:100230003000410033003100330044003700380003
:100240007D00000005010906A1018506050719E0EA
:1002500029E71500250175019508810295017508AA
:10026000810105081901290595057501910295017E
:1002700075039101150026FF000507190029FF9558
:100280000675088100C005010902A1018505090163
:10029000A10005091901290415002501950475011E
:1002A000810275049501810305010930093109387E
:1002B0001581257F950375088106050C0A380216FD
:1002C00081FF267F00950175088106C0C0050109E0
:1002D00005A10115002501350045017501950D05A4
:1002E000091901290D8102950381010501250746A0
:1002F0003B0175049501651409398142650095013A
:10030000810126FF0046FF00093009310932093515
:100310007508950481020600FF09200921092209B8
:1003200023092409250926092709280929092A0951
:100330002B950C81020A21269520B1020A212691D3
:100340000226FF0346FF03092C092D092E092F75EC
:100350001095048102C012034D0053004600540062
:100360003100300030002000D200BE00AC00090295
:10037000B6000501008032090400000203000000FD
:1003800009210101000122890007058103200001E4
:10039000070506032000010904010002FF5D0100BA
:1003A0001121000100258220000000001307200019
:1003B000000705820320000107050703200001094B
:1003C00004020000FFFFFF00090403000001010018
:1003D00000092401000109000104090404000201CC
:1003E000030000072401000141000624020101006E
:1003F000062402020200092403010301020100098C
:100400002403020401010100090508022000010083
:1004100000052501010109058302200001000005F6
:100420002501010392000001200100021002822830
:1004300004004B070D0FBA12BA12BA12BA120912FF
:10044000AD1BAD1B12010002000000400912822802
:1004500033080102DC01020F00000001010115D484
:10046000A2000E000000FFFFFFFFFFFFFFFFFFFFE6
:10047000FFFFFFFFFFFFFF00FF00FF00FF00FF0087
:10048000FF0040404000B80B04160D0E0F33280B40
:10049000504F525151FFFFFFFFFFFF00FF00FF00D1
:1004A000FF000D0080000EFF000010FFFF000F0096
:1004B00000FF09FF450000000000000000000000F0
:1004C000000000000000000000000000000000002C
:1004D000000000000000000000000000000000001C
:1004E000000000000000000000000000000000000C
:1004F00000000000000000000000000000000000FC
:1005000000000000000000000000000000000000EB
:1005100000000000000000000000000000000000DB
:1005200000000000000000000000000000000000CB
:1005300000000000000000000000000000000000BB
:1005400000FF0100008000800100008000800100A9
:100550000080000001000080000001000080000019
:1005600001000080000005140000000000000000F1
:10057000000200000101020200000000000202026D
:100580000101000201020100020100000202020159
:1005900001070605040100080A0B0C0D0900007094
:1005A00000000000240000000200030000006500BD
:1005B00054FFEF0000FA80000B12820001030C30A0
:1005C000C30E8C8CE914D5400213710F8E3883F85A
:1005D000833000F883258EF8833000F883FFFFFF17
:1005E000FF0FFEA9D6240004001A8279A1000000A2
:1005F0003CFFFF00000010000038836FA2003E03A4
:10060000304000000002CAE3093E800000200000E4
:1006100000000000004000000060000000000C002E
:1006200000000C186E000006920A16C0DFFFFF02E1
:1006300056FD8CD377FFE1C496E0C5BEAA0000004A
:1006400000FFFF0B2B00001657000003594000006D
:100650000000001DFA00026C1D000000003FFFDFDB
:10066000EB003EB3B6000D227800002F3C000000E6
:1006700000001942B5000039A20000B365D90E9FF1
:10068000C91DCF4C3430000000500000003BB67A4A
:10069000E80064000000C800000000000010000036
:1006A000001000FA921000225E000D229F0001004F
:1006B0000000320000FF46000063D400001000007C
:1006C0000004D6000004CC000004CC0000000010A0
:1006D0007200000040000000000000000000060062
:1006E0000200050007000000000064000000000098
:1006F000000000000500050064002000000000006C
:1007000000000000000000400000000300000000A6
:1007100032F8980000FF650000830F0000FF9BFC8B
:1007200000000000000000000000000000000000C9
:1007300000000000000000000000000000000000B9
:100740000000000000000000000000100040000059
:1007500000000000060000B26A000200000001FB79
:10076000830068000000D9FC007CF1FF83000000DA
:100770000000650000006403E80064002800000039
:10078000250000000016A00000000010000000106E
:1007900000002F0000000001F400001000002800FD
:1007A00000FFFF4581FFFFFA72000000000000001B
:1007B00000004400050005BAC6004778A20000000A
:1007C00001000000000000060000000014000025E9
:1007D0004D002F706D000005AE000C02D00000002F
:1007E00000000000000000000000000000001B00EE
:1007F0000000000000000000000000000000640095
:1008000000000800000000000000000000000000E0
:1008100000000000000000000000000000000000D8
:1008200000000000000000000000000000000000C8
:1008300000000000000000000000000000000000B8
:1008400000000000000000000000000000000000A8
:1008500000000000000000000000000000001B007D
:10086000000000000000000000000E000E00000A62
:10087000C70004000000000032FFFFFF9C00000BD7
:100880002B000000020000000100000064FFE500F2
:100890000000000000000000000000000000000058
:1008A00001000000000001000000000000000180C5
:1008B000000001800000018000002426D300000019
:1008C0000000000000000600100096003C00000040
:1008D000000000000000000000000000000C0A4EB4
:1008E00068CDCF770950166759C619CE820000002F
:1008F00000000000000000000000000000000000F8
:10090000000000000017D784000300000000000072
:100910000000000000C7938F9D1E1B1C19000000E3
:1009200000000000000000000000000000000000C7
:1009300000000000000203188500004000000000D5
:100940000300000003000000000000000040000061
:100950000000000000000000000000000000000097
:100960000000000000000000000000000000000087
:100970000000000000000000000000000000000077
:1009800000677DDF7E72902E554CF6E688000000F1
:1009900000000000000000000000000000D8DCB4EF
:1009A000B8B0D8B9ABF3F8FAB3B7BB8E9EAEF1329C
:1009B000F51BF1B4B8B08097F1A9DFDFDFAADFDF64
:1009C000DFF2AAC5CDC7A90CC92C97F1A989264683
:1009D00066B28999A92D557DB0B08AA8963656760B
:1009E000F1BAA3B4B280C0B8A89711B28398BAA3E1
:1009F000F0240844106418B2B9B49883F1A32955BF
:100A00007DBAB5B1A38393F0002850F5B2B6AA839E
:100A10009328547CF1B9A3829361BAA2DADEDFDBBA
:100A2000819AB9AEF5606870F1DABAA2DFD9BAA2DC
:100A3000FAB9A38292DB31BAA2D9BAA2F8DF85A4AF
:100A4000D0C1BBAD83C2C5C7B8A2DFDFDFBAA0DFAC
:100A5000DFDFD8D8F1B8AAB38DB4980D355DB2B642
:100A6000BAAF8C96198F9FA70E161EB49AB8AA8794
:100A70002C547CBAA4B08AB691325676B28494A42F
:100A8000C808CDD8B8B4B0F19982A82D557D98A8E2
:100A90000E161EA22C547C92A4F02C5078F184A83F
:100AA00098C4CDFCD80DDBA8FC2DF3D9BAA6F8DA92
:100AB000BAA6DED8BAB2B68696A6D0F3C841DAA6F0
:100AC000C8F8D8B0B4B882A892F52C548898F135FB
:100AD000D9F418D8F1A2D0F8F9A884D9C7DFF8F86A
:100AE00083C5DADF69DF83C1D8F40114F1A8824E2F
:100AF000A884F311D182F5D992289788F109F41CC2
:100B00001CD884A8F3C0F9D1D99782F129F40DD863
:100B1000F3F9F9D1D982F4C203D8DEDF1AD8F1A2F1
:100B2000FAF9A88498D9C7DFF8F8F883C7DADF693B
:100B3000DFF883C3D8F40114F198A8822EA884F3B7
:100B400011D182F5D992509788F109F41CD884A864
:100B5000F3C0F8F9D1D99782F149F40DD8F3F9F936
:100B6000D1D982F4C403D8DEDFD8F1AD8898CCA8FF
:100B700009F9D98292A8F57CF1883ACF944A6E9807
:100B8000DB6931DAADF2DEF9D88795A8F221D1DA46
:100B9000A5F9F417D9F1AE8ED0C0C3AE82C684C316
:100BA000A88595C8A588F2C0F1F4010EF18E9EA823
:100BB000C63E56F554F18872F40115F19845856EDC
:100BC000F58E9E0488F142985A8E9E068869F4013B
:100BD0001CF1981E1108D0F504F11E9702029836F8
:100BE00025DBF9D985A5F3C1DA85A5F3DFD885958D
:100BF000A8F309DAA5FAD88292A8F578F1881A84C0
:100C00009F26889821DAF41DF3D8879F39D1AFD970
:100C1000DFDFFBF9F40CF3D8FAD0F8DAF9F9D0DF1A
:100C2000D9F9D8F40BD8F3879F39D1AFD9DFDFF4E6
:100C30001DF3D8FAFCA869F9F9AFD0DADEFAD9F8D1
:100C40008F9FA8F1CCF398DB45D9AFDFD0F8D8F16E
:100C50008F9FA8CAF38809DAAF8FCBF8D8F2AD9787
:100C60008D0CD9A5DFF9BAA6F3FAF412F2D8950DD6
:100C7000D1D9BAA6F3FADAA5F2C1BAA6F3DFD8F150
:100C8000BAB2B68696A6D0CAF349DAA6CBF8D8B0DF
:100C9000B4B8D8AD84F2C0DFF18FCBC3A8B2B686AA
:100CA00096C8C1CBC3F3B0B48898A821DB718D9DE1
:100CB00071859521D9ADF2FAD88597A828D9F4087D
:100CC000D8F28D29DAF405D9F285A4C2F2D8A88D1C
:100CD0009401D1D9F411F2D88721D8F40AD8F2843A
:100CE00098A8C801D1D9F411D8F3A4C8BBAFD0F2E9
:100CF000DEF8F8F8F8F8F8F8F8D8F1B8F6B5B9B0C1
:100D00008A95A3DE3CA3D9F8D85CA3D9F8D87CA3F4
:100D1000D9F8D8F8F9D1A5D9DFDAFAD8B18530F702
:100D2000D9DED8F830ADDADED8F2B48C99A32D55DF
:100D30007DA083DFDFDFB591A0F629D9FBD8A0FC29
:100D400029D9FAD8A0D051D9F8D8FC51D9F9D879F5
:100D5000D9FBD8A0D0FC79D9FAD8A1F9F9F9F9F9D9
:100D6000A0DADFDFDFD8A1F8F8F8F8F8ACDEF8ADEC
:100D7000DE8393AC2C547CF1A8DFDFDFF69D2CDA08
:100D8000A0DFD9FADB2DF8D8A850DAA0D0DED9D070
:100D9000F8F8F8DB55F8D8A878DAA0D0DFD9D0FA7F
:100DA000F8F8F8F8DB7DF8D89CA88CF530DB38D95A
:100DB000D0DEDFA0D0DEDFD8A848DB58D9DFD0DE18
:100DC000A0DFD0DED8A868DB70D9DFDFA0DFDFD8F6
:100DD000F1A888902C547C98A8D05C38D1DAF2AE77
:100DE0008CDFF9D8B087A8C1C1B188A8C6F9F9DAF3
:100DF00036D8A8F9DA36D8A8F9DA36D8A8F9DA3622
:100E0000D8A8F9DA36D8F78D9DADF818DAF2AEDF4A
:100E1000D8F7ADFA30D9A4DEF9D8F2AEDEFAF9830C
:100E2000A7D9C3C5C7F1889BA77AADF7DEDFA4F8C1
:100E3000849408A797F300AEF29819A488C6A394E7
:100E400088F632DFF28393DB09D9F2AADFD8D8AE75
:100E5000F8F9D1DAF3A4DEA7F1889B7AD8F3849469
:100E6000AE19F9DAAAF1DFD8A881C0C3C5C7A39229
:100E700083F628ADDED9F8D8A350ADD9F8D8A37839
:100E8000ADD9F8D8F8F9D1A1DADEC3C5C7D8A181A8
:100E900094F818F2B089ACC3C5C7F1D8B8B4B0970C
:100EA00086A8319B069907AB9728889BF00C2014E5
:100EB00040B0B4B8F0A88A9A285078B79BA82951B6
:100EC00079247059446938644831F1BBAB88002CEF
:100ED000547CF0B38BB8A804285078F1B088B4974C
:100EE00026A85998BBABB38B02264666B0B8F08AE9
:100EF0009CA82951798B2951798A2470598B2058C3
:100F0000718A4469388B3940688A6448318B30492A
:100F10006088F1AC002C547CF08CA804285078F147
:100F2000889726A85998AC8C02264666F0899CA81A
:100F3000295179247059446938644831A9880920B5
:100F40005970AB11384069A8193148608CA83C41F0
:100F50005C207C00F187981986A86E767EA9998816
:100F60002D557DD8B1B5B9A3DFDFDFAED0DFAAD074
:100F7000DEF2ABF8F9D9B087C4AAF1DFDFBBAFDF8F
:100F8000DFB9D8B1F1A3978E60DFB084F2C8F8F969
:100F9000D9DED89385F14AB183A308B5839A0810A6
:100FA000B79F10D8F1B0BAAEB08AC2B2B68E9EF179
:100FB000FBD9F41DD8F9D90CF1D8F8F8AD61D9AE48
:100FC000FBD8F40CF1D8F8F8AD19D9AEFBDFD8F4A2
:100FD00016F1D8F8AD8D61D9F4F4ACF59C9C8DDF99
:100FE0002BBAB6AEFAF8F40BD8F1AED0F8AD51DAB0
:100FF000AEFAF8F1D8B9B1B6A3839C08B9B1839A17
:10100000B5AAC0FD3083B79F10B58B93F20202D111
:10101000ABDADED8F1B080BAABC0C3B284C1C3D8FA
:10102000B1B9F38BA391B609B4D9ABDEB0879CB943
:10103000A3DDF1B38B8B8B8B8BB087A3A3A3A3B260
:101040008BB69BF2A3A3A3A3A3A3A3A3A3A3F1B0D3
:1010500087B59AA3F39BA3A3DCBAACDFB9A3A3A380
:10106000A3A3A3A3A3A3A3A3A3A3A3A3A3D8D8D8B1
:10107000BBB3B7F1AAF9DAFFD9809AAA28B480984D
:10108000A720B79787A86688F07951F1902C870C34
:10109000A781976293F071716085940129517990CD
:1010A000A5F1284C6C870C95188578A38390284C63
:1010B0006C886CD8F3A28200F210A8921980A2F278
:1010C000D926D8F188A84DD948D896A83980D93CD6
:1010D000D89580A839A68698D92CDA87A72CD8A8C5
:1010E000899519A980D938D8A88939A980DA3CD836
:1010F000A82EA83990D90CD8A8953198D90CD8A881
:1011000009D9FFD801DAFFD89539A9DA26FFD89096
:10111000A80D8999A810809821DA2ED88999A8312C
:1011200080DA2ED8A886963180DA2ED8A88731802A
:10113000DA2ED8A88292F34180F1D92ED8A882F372
:101140001980F1D92ED882ACF3C0A28022F1A62E4C
:10115000A72EA92298A829DAACDEFFD8A2F22AF19C
:10116000A92E8292A8F23180A696F1D900AC8C9C6F
:101170000C30ACDED0DEFFD88C9CACD010ACDE8066
:1011800092A2F24C82A8F1CAF235F19688A6D90053
:10119000D8F1FF0E0C0D0F08FFFF09050406070A22
:1011A0000B0F0C0D0E08FFFF09050406070A0B0FB5
:1011B0000C0D0E0908FFFF050406070A0B00112499
:1011C0001FBECFEFDAE0DEBFCDBF11E0A0E0B1E09F
:1011D000E0EBF8E602C005900D92A23CB107D9F70A
:1011E00025E0A2ECB1E001C01D92A73BB207E1F7F8
:1011F0000E94F52E0C9456340C940000CF93DF938C
:10120000EC01CB013091E800377F3093E80060912A
:10121000B5057091B6056817790760F1009729F454
:101220003091E8003E773093E80030E0E0E06BB5C5
:10123000662309F450C0653009F44DC06091E800A0
:1012400063FD49C06091E80062FD40C0009711F461
:10125000EE2369F36091E80060FFE9CF7091F3003D
:101260006091F200009739F16034710520F5FA01C0
:10127000A1E00DC0CB01D9CFB081B31307C0A181CC
:10128000A093F100A281A093F100A2E03396BE2FBB
:10129000B41BB21788F3A13031F4FE01E30FF11D46
:1012A000E491E093F100EA2FF0E08E1B9F0B6E0FAC
:1012B0007F1F3A0FD7CFE1E06034710509F0E0E01D
:1012C0006091E8006E776093E800B1CF8091E8000C
:1012D0008B778093E800DF91CF910895CF93DF93D0
:1012E000FC01DA0186E0EB01888385E080831596B6
:1012F0002C911597822F922F990F990B97FD079696
:1013000053E0959587955A95E1F7828317962C912E
:101310001797822F922F990F990B9195819591098B
:1013200097FD079643E0959587954A95E1F7838366
:101330001B962C911B97822F922F990F990B97FD3B
:10134000079633E0959587953A95E1F7848319964A
:101350002C911997822F922F990F990B97FD079631
:1013600023E0959587952A95E1F7858311969C91C1
:1013700011979295917081818E7F982B9183119610
:101380008C911197829582709D7F892B8183119614
:101390009C919695969596959870877F892B8183D9
:1013A000DF91CF9108959F92AF92BF92CF92DF923B
:1013B000EF92FF920F931F93CF93DF9300D000D053
:1013C000CDB7DEB7FC014B835C838CE1DB018C93F2
:1013D00084E0808390904C05B090440189E2C82E4F
:1013E00081E0D82EFA83E98390E080E061E070E04C
:1013F000A82ED6012D916D012F3F09F44DC0AB01F0
:1014000002C0440F551F2A95E2F7AB81BC812D9194
:101410003C912423352341E02115310509F440E0B6
:101420008B010A2C02C0000F111F0A94E2F70095ED
:101430001095E180F280E022F12250E08A0102C0A2
:10144000000F111FAA94E2F70E291F2912830183AE
:10145000891510F5BBE1BB1215C0843098F49C01CE
:10146000225C3E4FD9012C918B0102C0000F111F4D
:101470002A95E2F7AB81BC812D913C912023312349
:10148000242B352B41E0232B09F440E0242F219518
:10149000A981BA8118962C93019629813A812F5FF0
:1014A0003F4F3A8329838E30910509F0A1CFAB815C
:1014B000BC812C912F7088E02B3028F430E0275627
:1014C0003E4FD9018C918383AB81BC811A962D91BB
:1014D0003C91BBE1BB1216C0AB81BC8119968C91CB
:1014E00085958054868387EF91E02F3F3F4711F425
:1014F00084E891E0958B848B8DE7878380E88483F3
:10150000858363C04DE1B41619F080E2B8121AC0A9
:10151000AB81BC8119968C918058868381819281A0
:101520008F7D2F3F3F4709F460C030E020E0822BE1
:10153000932B92838183AB81BC8112969C9180E82E
:10154000891B8783BFE1BB1619F02AE1B212D6CFFF
:10155000818192818F7EAB81BC8112962C91233345
:1015600008F046C030E020E0822B932B92838183E9
:101570008F7DAB81BC8113962C912333E0F530E055
:1015800020E0822B932B92838183AB81BC811296C6
:101590008C911297848713968C9113978587159653
:1015A0008C9115978058848317969C911797905823
:1015B000958319968C911997805886831B968C91E8
:1015C00080588783BAE1BB16C9F00F900F900F9037
:1015D0000F90DF91CF911F910F91FF90EF90DF90CF
:1015E000CF90BF90AF909F90089520E230E09FCFC2
:1015F00020E130E0B9CF20E230E0C3CF9095958371
:1016000080958783E2CF0F931F93CF93DF93CDB75E
:10161000DEB729970FB6F894DEBF0FBECDBFE52F1A
:10162000F0E0E359FE4F80818F3F81F021E030E010
:1016300002C0220F331F8A95E2F78091C501909175
:10164000C6012823392381E0232B09F480E0299661
:101650000FB6F894DEBF0FBECDBFDF91CF911F91C3
:101660000F9108950F931F93CF93DF93CDB7DEB7FC
:1016700061970FB6F894DEBF0FBECDBF09871A87FA
:101680002B873C874D875E876F87788BE82F898B08
:101690008F3F69F4EA85FB858081802391E009F41E
:1016A00090E081E02C859217B9F080E015C088E0C9
:1016B000E89FF0011124E055FC4F88E0DE0111960F
:1016C00001900D928A95E1F74C815D8181E02E8138
:1016D0003F812417350748F761960FB6F894DEBFAF
:1016E0000FBECDBFDF91CF911F910F9108950F9342
:1016F0001F93CF93DF93CDB7DEB729970FB6F8943A
:10170000DEBF0FBECDBF80E029960FB6F894DEBFD6
:101710000FBECDBFDF91CF911F910F910895FC01B6
:10172000CB012091B5053091B6052617370790F00B
:10173000009729F42091E8002E772093E80040E0FC
:10174000009751F4411108C08091E80082FF30C039
:1017500080E00895C901F3CF2BB52223A1F12530F4
:10176000A1F12091E80023FD2CC02091E80022FD8A
:10177000EBCF2091E80020FFE3CF3091F3002091E0
:10178000F200009719F02034310558F041E0203480
:10179000310509F040E02091E8002E772093E80021
:1017A000CFCF41914093F10001972F5F3F4FE9CF99
:1017B0008BB5882341F0853041F08091E80083FFAC
:1017C000C3CF81E0089582E0089583E00895FC018D
:1017D000CB012091B5053091B6052617370790F05B
:1017E000009729F42091E8002E772093E80040E04C
:1017F000009751F4411108C08091E80082FF31C088
:1018000080E00895C901F3CF2BB52223A9F125303B
:10181000A9F12091E80023FD2DC02091E80022FDD0
:10182000EBCF2091E80020FFE3CF3091F30020912F
:10183000F200009719F02034310558F041E02034CF
:10184000310509F040E02091E8002E772093E80070
:10185000CFCF44914093F100319601972F5F3F4FD6
:10186000E8CF8BB5882341F0853041F08091E800C6
:1018700083FFC2CF81E0089582E0089583E0089558
:101880008091AF0587FF11C08091E80082FF06C0FC
:101890008091E8008B778093E80003C08BB58111BD
:1018A000F3CF08958BB58823E1F38091E80080FFA2
:1018B000F9CF8091E8008E77EECF2091E40030914F
:1018C000E50095E6A9012091EC00822F817020FFB0
:1018D00006C08091E80080FF06C080E00895209156
:1018E000E80022FD19C08BB5882389F0853089F086
:1018F0008091EB0085FD0FC02091E4003091E50060
:101900004217530701F39150E9F684E0089582E00D
:10191000089583E0089581E00895CF93DF9300D088
:1019200000D0CDB7DEB72FB7F894809136029091F2
:101930003702A0913802B09139022FBF9C01AD014E
:1019400087E0220F331F441F551F8A95D1F7CA0124
:10195000B9012DE730E040E050E00E948833CA0131
:10196000B9010F900F900F900F90DF91CF910895D4
:10197000CF92DF92EF92FF920F931F93CF93DF935B
:10198000EC016B01BA01A901F801C70120812630E1
:10199000E0F4209771F000271127041B150B601746
:1019A00071073CF431962E0D3F2D311DD901139650
:1019B000CC93C114D10449F04617570734F4208161
:1019C000820F911DDC011396CC92DF91CF911F9174
:1019D0000F91FF90EF90DF90CF9008958F929F929C
:1019E000AF92BF92CF92DF92EF92FF920F931F932D
:1019F000CF93DF930F92CDB7DEB76C014A0189E038
:101A0000DB018C9386E0F6018083E2E3F5E050E0B1
:101A100040E080E061E070E091919923A1F0D40171
:101A2000AD90BC909B01042E02C0220F331F0A947C
:101A3000E2F72A213B21232B31F0D601A80FB11D5B
:101A400013969C938F5F4F5F5F4F4031510509F0B4
:101A50005EC08983A0903005B0903105F4014481C7
:101A600055816091450570E08091440576018E01B5
:101A70000F5F1F4F950190E07BDFD40116964D91CB
:101A80005C916091470570E080914605950190E07A
:101A90006FDFF401408551856091490570E08091C8
:101AA0004805950190E064DFD4011A964D915C9150
:101AB00060914B0570E080914A05950190E058DFF8
:101AC000A0902E05B0902F05F401428150E0609166
:101AD000420570E0950190E080E04ADFD401139662
:101AE0004C9150E06091430570E0950190E080E0FA
:101AF0003FDF0F90DF91CF911F910F91FF90EF90FB
:101B0000DF90CF90BF90AF909F908F9008958630D8
:101B100009F082CF9ECF8EBD00000DB407FEFDCF31
:101B20008EB50895EF920F93DC01CB0116961C92AF
:101B30001697642F70E0FB01E15EFE4F3491FB01CC
:101B4000E050FF4F5491E32FF0E0EE0FFF1FEE2027
:101B500019F1EE50FF4F65917491805F9E4FFC012B
:101B600080815C9311966C93119712967C931297D7
:101B700013960C93139714964C93149715962C93D5
:101B8000159717968C9317978FEF18968C93189735
:101B9000CD010F91EF900895EC51FF4FDCCF90E015
:101BA000FC01E050FF4F2491FC01E15EFE4FE49107
:101BB000EE2389F0F0E0EE0FFF1FEE50FF4FA591EE
:101BC000B4918FB7F894611107C09C91E22FE09512
:101BD000E923EC938FBF0895EC91E22BFACF90E0CC
:101BE000FC01E050FF4F2491FC01E15EFE4FE491C7
:101BF000EE2359F0F0E0EE0FFF1FEC51FF4FA591DF
:101C0000B491EC91E22381E009F480E00895CF9350
:101C1000DF93EC018091DE04E2DF91E089274FEF52
:101C20005FE7849F9001859F300D11243B872A87B1
:101C3000DF91CF910895E82FF0E0EF56FA4FE4914D
:101C400090917B008E2F880F880F80729F7D892B4B
:101C500080937B00E770E064E0937C0080917A00E1
:101C6000806480937A0080917A0086FDFCCF809119
:101C7000780090917900089580917A0086FDFCCFDC
:101C800081E0809304010895CF93DF9390E0FC01FD
:101C9000E050FF4F2491815E9E4FFC018491882388
:101CA000D1F090E0880F991FFC01EA52FF4FA591F7
:101CB000B491FC01EE50FF4FC591D491613071F4A5
:101CC0009FB7F8948C91209582238C938881282348
:101CD00028839FBF7894DF91CF910895623051F4AB
:101CE0009FB7F8943C91822F809583238C93E88151
:101CF0002E2BEECF8FB7F894EC912E2B2C938FBF19
:101D0000E9CFCF92DF92EF92FF921F93CF93DF93B1
:101D10006B017C01142FD22F60E080E1B5DF62E01F
:101D20008EE0B2DF60E08FE0AFDF61E081E137DFBE
:101D300060E081E1A9DF1111C8E0D111C460C114D4
:101D400082E1D8068AE7E806F104C8F5C11489E003
:101D5000D8068DE3E806F104A0F580E8C81684E80B
:101D6000D8068EE1E806F10470F580E4C81682E436
:101D7000D8068FE0E806F10440F580E2C81681EA53
:101D8000D80687E0E806F10410F580E9C81680ED72
:101D9000D80683E0E806F104E0F487E091E08927C3
:101DA000982F96959C2B90659CBD81708DBDDF9181
:101DB000CF911F91FF90EF90DF90CF90089580E03A
:101DC000EDCF81E0EBCF82E0E9CF83E0E7CF84E0A5
:101DD000E5CF85E0E3CFCF92DF92EF92FF92F0E084
:101DE000E0E067E675E483E291E041E2409357006A
:101DF0002491622728E030E06B017C0151E0C5228C
:101E0000DD24EE24FF249695879577956795CD2858
:101E1000CE28CF2841F050E2652753E8752758EBCC
:101E200085275DEE95272150310931F73196E03253
:101E3000F105E1F6FF90EF90DF90CF900895682FC5
:101E40008AE0ADCE982F8D30A1F0823090F0809155
:101E5000CB04882321F02EEF290F223058F08091F7
:101E6000CA04882339F09E5081E0943018F080E055
:101E7000089581E008950F931F93CF938091A60258
:101E8000882391F00EE812E0C0E08C2FDBDF811197
:101E900003C061E08C2FF8DE8C2FA1DEF801819366
:101EA0008F01CF5FC83189F71092BF021092A6024E
:101EB000CF911F910F910895CF93DF93EC01FB0118
:101EC00080818052990B880F880F1C828D838181BD
:101ED0008052990B880F880F1E828F838581248101
:101EE00035812095309590914401933260F0938133
:101EF00091FF09C09095907E628166956E736A31FC
:101F000020F5623139F1982F96959695969561E076
:101F100096279170B92FB295BB0FB07EA0E0367DA9
:101F20002A2B3B2B82958695877086278170582FA8
:101F3000550F550F550F40E0242B352B3093C6011C
:101F40002093C501DF91CF9108956E31E1F6909312
:101F50008602D9CF90938A02D6CFFC01DB018C9107
:101F6000880F880F80581482858311968C91119761
:101F7000880F880F80581682878313968C91139749
:101F80008F718E50990B97FD20C091878087208597
:101F90003185C901880F991F820F931F80329105E7
:101FA000BCF491878087808591854097880F880F42
:101FB000880F1086818714968D919C9180959095BD
:101FC0009093C6018093C501089511861086DFCFD6
:101FD0008FE190E0E6CFFC01DB018C918058990BFA
:101FE0001482858312968C9112978058990B1682D1
:101FF000878311968C9111978058990B1086818751
:1020000013968C9113978058990B12868387149698
:102010008C911497828315968C91159783831696CD
:102020008D919C91809590959093C6018093C50168
:102030000895FC01DB018C918F738052990B95837D
:10204000848311968C9111978F738052990B97838B
:1020500086838C9190E023E0959587952A95E1F70A
:102060008871992711962C91119730E045E03595AC
:1020700027954A95E1F726703327822B932B1296EA
:102080002C911297221F2227221F822B4097918783
:10209000808712968C9112978F718051990B93873C
:1020A000828712968C9112978695869588711396E1
:1020B0009C911397929596959770892B828313968E
:1020C0008C9113978F71838314968D919C91809539
:1020D00090959093C6018093C5010895DC01FB01A2
:1020E00090818181829586958670292F26952695E7
:1020F00026952871822B2281221F2227221F822BC4
:10210000990F990F905814961C92149715969C93BA
:1021100015979181990F990F905816961C921697C2
:1021200017969C9317979481238190FF3AC030E0D3
:10213000209530952F713327205E3F4F19963C93A1
:102140002E931897082E000C990B228120FF30C087
:102150002FE330E0281B390B1B963C932E931A97E4
:1021600082818695869588719381929596959770D0
:10217000892B12968C931297828190E09595879582
:102180008F7013968C93848195819827892798273F
:10219000809590958D7C93769093C6018093C50130
:1021A0000895922F9F7120E230E0291B3109C6CF9C
:1021B00020E230E0CFCFCF93DF93FC01EB018A81A7
:1021C00090E0982F882788279F706881862B9583B9
:1021D00084838A8120E1829FC001112488279F7017
:1021E0006981862B978386838B8183838D8181FB95
:1021F000992790F9392F3295330F330F307C20E037
:10220000982F9695969561E096279170B92FB29583
:10221000BB0FB07EA0E02A2B3B2B8170582F52952C
:10222000507F422F532B5093C6014093C501DF913D
:10223000CF910895FC01DB018D919C9111979583BD
:10224000848312968D919C9113979783868314961D
:102250008C9183830895FB01848195819827892738
:102260009827809590959093C6018093C501089515
:10227000DC01E62FF0E06031C8F42091AC052223A8
:1022800031F0693020F0E258FD4F8081089581E0FF
:1022900090E002C0880F991F6A95E2F72D913C915A
:1022A00082239323892BF1F480E008952091E204A6
:1022B0003091E304633160F07097EE0FFF1FEA0F77
:1022C000FB1F81E0408151812417350768F708958D
:1022D000E80FF91F3E97908181E09217130609F0ED
:1022E000B4F7E2CF80E4F3CF7F928F929F92AF92C8
:1022F000BF92CF92DF92EF92FF920F931F93CF93F3
:10230000DF93EC017B01742E852E87E088834CEEF1
:10231000C42E44E0D42E00E212E0912CB12CF60140
:1023200081916F01882369F130EBA32E813011F484
:1023300020E9A22E692D872D982D9ADF8695F80128
:1023400090819817F1F0F60143A59589F8018083F3
:102350002B2D30E054E0B59EF0011124EC0FFD1F51
:102360005A2D52955F705183A42AA2829383F9015A
:102370003196EE0FFF1FEE0FFF1FEC0FFD1F808346
:10238000B3940F5F1F4F939486E19812C8CFBB0C94
:10239000BB0CB394F701B082DF91CF911F910F91E5
:1023A000FF90EF90DF90CF90BF90AF909F908F9075
:1023B0007F90089580E043DD81EEADDB81E03FCD8D
:1023C00080E03DDD82EEA7DB81E039CD80E037DDC6
:1023D00080E5A1DB83E79FDB81E031CDCF9380E017
:1023E0002EDD8FEF98DBC82F81E029DD8C2FCF9178
:1023F00008950F931F93CF93DF93EC018C01060F89
:10240000111D899188DBC017D107D9F7DF91CF91D2
:102410001F910F910895CF93DF93D82FC62F80E09F
:102420000EDD8D2F806277DB8C2F75DB81E0DF91F5
:10243000CF9105CDFF920F931F93CF93DF93D82FAA
:10244000F92EC62F80918E03811108C0C0E08C2F19
:10245000DF91CF911F910F91FF90089510928E03FD
:10246000BDDF282F30E0359527952770332727309B
:10247000310561F360E487E0CEDFC11109C080E07F
:10248000DEDC80E648DB80E046DBC82F81E0D7DC7D
:1024900080E0D5DC81E63FDB0D2F1F2D802F8D1BCB
:1024A0008C1718F081E0CBDCD2CFF80181918F013D
:1024B00032DBF80131978083F1CFCF93DF9300D0E7
:1024C00000D0CDB7DEB7DB019C010E94CD3369831C
:1024D0007A838B839C83DC01CB019F77AA27BB2760
:1024E00081159044A105B105D1F080E090E4A0E011
:1024F000B0E029813A814B815C81820F931FA41F38
:10250000B51F2FE0B595A795979587952A95D1F793
:102510000F900F900F900F90DF91CF91089580E072
:1025200090E0DC01E6CFF89488E198E00FB6F894EB
:10253000A895809360000FBE90936000FFCF1F931B
:10254000CF93DF93182FEB0180E079DC812FE3DA62
:102550008881E1DA888381E0DF91CF911F916FCC90
:10256000CF93DF930F92CDB7DEB7BE016F5F7F4F82
:10257000E6DF89810F90DF91CF9108951F93CF936C
:10258000DF93182FD62FC72F80E059DC812F806270
:10259000C2DA64E08D2F9C2F2CDF81E0DF91CF9198
:1025A0001F914DCC85ED8093BC008FEF9FE720916C
:1025B000BC0024FD03C01092AD0302C00197B9F71F
:1025C00008958093E900EBEEF0E0808181608083E4
:1025D000EDEEF0E010826093EC0040838091EE001D
:1025E0000895CF93DF93DC01FA0184E1EB01888346
:1025F0001C9211968C93119712968CE001900D927B
:102600008A95E1F7DF91CF910895CF93282FCB01E1
:10261000C42F4FEF5FE7C13228F080E045C0415042
:102620005109D9F33091AD033111F9CF31E0309335
:10263000AD033093AC034FEF4093FC0110921E02A8
:102640004C0F40931D0230931F0230911F02220F46
:10265000232B20931F022091AB03222381F11092A0
:10266000AB0320911F022093BB002FEF3FE7409167
:10267000BC0043FD1BC025EC2093BC002FEF3FE7BF
:102680004091AD034130E9F020911E022C1710F467
:10269000C0911E024C2F50E06DEF71E00E94153486
:1026A00081E0CC2309F4B9CFCF91089521503109AD
:1026B00009F4B3CF40911F024093BB00D8CF25EE61
:1026C000DBCF21503109E1F6A8CFCF93C82F8FEF90
:1026D0009FE7413220F080E03FC00197E1F3209175
:1026E000AD032111FACF82E08093AD0381E08093A6
:1026F000AC038FEF8093FC0110921E0240931D02E9
:1027000050E08DEF91E00E94153410921F028091ED
:102710001F02CC0FC82BC0931F028091AB038823EC
:1027200029F11092AB0380911F028093BB008FEFC1
:102730009FE72091BC0023FD11C085EC8093BC0075
:102740008FEF9FE72091AD03223091F09091FC0133
:1027500081E09F3F09F0BFCFCF910895019709F421
:10276000BACF20911F022093BB00E3CF85EEE6CFC6
:10277000019741F7B0CFEF92FF920F931F93CF9342
:10278000DF930F92CDB7DEB7182F6983E42EF22EB8
:10279000032F41E0BE016F5F7F4F97DF882371F009
:1027A0004E2D6F2D702F812F30DF81700F90DF91B4
:1027B000CF911F910F91FF90EF90089580E0F5CF9A
:1027C000A9E9B3E01196ED91FC91129780819C915B
:1027D000892B8083A0E9B3E01196ED91FC911297CB
:1027E00080819C91892B8083A2EAB3E01196ED91C0
:1027F000FC91129780819C91892B808380E58A953A
:10280000F1F70895CF92DF92EF92FF920F931F930B
:10281000CF93DF938C01EB016C017B01E40EF11C83
:10282000CE15DF0549F4DF91CF911F910F91FF90F5
:10283000EF90DF90CF9008958AE50115110589F09A
:10284000F6019081892F86958575990F9A7A892B43
:10285000982F969596959373880F880F8C7C892B6B
:10286000829559D9982F86958575990F9A7A892BD3
:10287000982F969596959373880F880F8C7C892B4B
:1028800082958993F0E5FA95F1F78FEFC81AD80A87
:10289000C7CF0F931F93CF93DF938C01C62FE09187
:1028A000A303F091A40390818091A20380958923D2
:1028B0008083E0919103F091920390818091900345
:1028C000809589238083E0919A03F0919B03908106
:1028D0008091990380958923808380E58A95F1F71B
:1028E00043E067EC71E0C8018DDF8091C8018F3F44
:1028F00049F4D0E0C0E064DFCE01DF91CF911F91B9
:102900000F9108959091C9019A3511F09111F1CF6D
:102910008F70D82FDD0FC33039F04DEF4C0F6AECBC
:1029200071E0C80103966EDFDD5F4D2F4C1BDC1795
:1029300061F06C2F70E0CB01840F911D8197CCF674
:1029400069537E4F90E080E05DDFC7ECD1E0D3CFEC
:10295000CF92DF92EF92FF920F931F93CF93DF936B
:1029600000D000D000D0CDB7DEB78D839E83062F78
:102970000E948D0C6B017C0110E0602F8D819E8187
:1029800088DFFC01892B51F01F5F8D819E81855965
:10299000914059F58181807F803F81F18FE39CE9EF
:1029A0000197F1F700C000000E948D0C69837A83C3
:1029B0008B839C83DC01CB018C199D09AE09BF0977
:1029C0008B3F9105A105B105C0F280E026960FB6B8
:1029D000F894DEBF0FBECDBFDF91CF911F910F9155
:1029E000FF90EF90DF90CF9008958D819E81815967
:1029F000914031F48181807F803F81F281E0E6CF98
:102A00001330E0F7CBCFCF93DF93EC0163E08EE898
:102A100091E03FDFFC01892B49F08181982F907F65
:102A2000903F31F464E081E991E092DF80E01FC0E3
:102A3000238134819035F1F488E080930101818114
:102A4000823179F489E08093010185818058990B66
:102A50001C828D8346818FE790E0841B91091E8242
:102A60008F838181807D803509F457C081E0DF91BB
:102A7000CF910895833241F585E0809301018581EE
:102A80008058990B1C828D83888199819F7B468118
:102A90004138B0F550E040E0842B952B9983888332
:102AA0009F774781413878F550E040E0842B952BA3
:102AB000998388839E7F4085413F40F550E040E008
:102AC000842B952B998388838181807F803E09F0B8
:102AD000B6CF86E080930101858190E09D838C8351
:102AE0009681858197FD15C087FD8FE790E09D83D6
:102AF0008C838C819D8180589F4F9D838C839FCF39
:102B000040E050E4C9CF40E050E8D0CF40E051E091
:102B1000D7CF813858F781E8E9CF85818058990B64
:102B20001886898746818FE790E0BC01641B710994
:102B30001A866B8747814058550B1C824D83408510
:102B4000841B91091E828F838181893709F08ECF82
:102B500083898A8384898B8380910101843009F081
:102B600085CF818990E099878887209530952227A5
:102B700031704FEF5FE7249FC001259F900D349F78
:102B8000900D11249B878A8771CF1F93CF93DF937A
:102B9000182FD92F809101018A30A9F5C5E0812F26
:102BA0009D2F31DF8FE99FE00197F1F700C0000012
:102BB000C150A9F7812F9D2F26DF882361F164E0A2
:102BC00085E991E0C5DE882381F163E08DE791E03E
:102BD00060DEFC01892B49F08381833021F1813053
:102BE000F1F48181823409F0C4E0C093010165E011
:102BF00089E891E0ADDE69E080E891E0A9DE64E07B
:102C000081E991E0A5DE812F9D2FFDDE811103C0BA
:102C10008AE080930101DF91CF911F9108958C305C
:102C200021F7C3E0E2CFC2E0E0CF81E08093010171
:102C3000EACFFF920F931F93CF93DF930F92CDB7FD
:102C4000DEB78983F62E8A0141E0BE016F5F7F4FB8
:102C500082E53BDD882351F08FEC92E00197F1F79C
:102C600000C000004F2DB80182E5CFDC0F90DF914E
:102C7000CF911F910F91FF900895CF93DF9300D0D4
:102C800000D000D0CDB7DEB7AE014F5F5F4F66E03A
:102C90008AEFCFDFFE013196AE01495F5F4F8FEFC4
:102CA00090E02191922B82234E175F07D1F7992351
:102CB00069F08F3F59F099818E8126960FB6F8946E
:102CC000DEBF0FBECDBFDF91CF9108958FEF9FEF95
:102CD000F4CFCF93DF93CDB7DEB7C251D1400FB65B
:102CE000F894DEBF0FBECDBF42E151E066E574E06F
:102CF000CE0101960E94F83342E151E061E070E0BC
:102D0000CE0101960E943534CE5EDE4F0FB6F894A8
:102D1000DEBF0FBECDBFDF91CF9108958F929F92FE
:102D2000AF92BF92FF920F931F93CF93DF93CDB7D4
:102D3000DEB7C656D1090FB6F894DEBF0FBECDBFC1
:102D40008BB5882309F4A8C18091E9008F70209188
:102D5000EC00922F917020FD90E8F92EF82A109245
:102D6000E9008091E80083FF93C18FEA95E0FC01C0
:102D700001962091F100208325E0873B9207B9F767
:102D80008091E80083FF61C19091B0058091AF050B
:102D9000913009F0E5C0813A09F02DC22091B105CA
:102DA000822F3091AA05332309F458C02E3308F03E
:102DB00055C0223309F452C029839A83FBDA00DB21
:102DC0000E948D0C4B015C0109DB80FD0BC080E093
:102DD00036D889EA0E948B0D62E0CE01019609DBAC
:102DE00081E02DD881E080938E0360E08AE392E059
:102DF00021DB682F882311F08C3011F560E387E028
:102E00000ADB0E948D0CA7966CAF7DAF8EAF9FAF93
:102E1000A797DC01CB0188199909AA09BB09853F4D
:102E20009140A105B10580F288E080933A0246E026
:102E300050E060E571E08BE392E00E94F83367E0D8
:102E40008091E800877F8093E8006150770B8BE3E7
:102E500092E00E948F0B0E94400CF7C098E0909384
:102E60003A028E33E8F0A22FAE53BB0B22E32A9F27
:102E7000B0012B9F700D112402E111E0061B170B0E
:102E80000233110514F002E310E0A80155276F5F2B
:102E90007F4F8BE392E00E94253461E0600FD0CF3A
:102EA000823311F0873301F56AE471E080E492E047
:102EB0000E94013480E094E2A4EFB0E080933B02F2
:102EC00090933C02A0933D02B0933E020E94EB0E11
:102ED00060934F027093500280935102909352027C
:102EE00010923F0269E1ACCF8C3359F48CE0EAE7F1
:102EF000F2E0ABE3B2E001900D928A95E1F76DE06C
:102F00009FCF853399F46091AD05613041F4809194
:102F1000020180933B0210923C0263E091CF633048
:102F2000E1F78091010180933B028ACF863341F41F
:102F30008091050180933B020E943B0F62E080CFAD
:102F400048E050E062E471E08BE392E00E94F833E5
:102F5000809144018F3110F410923E0269E070CFED
:102F6000993009F019C3813209F080C14091B5054B
:102F70005091B6058091B10589831A829091E8003D
:102F8000977F9093E8009A013327411105C09091F3
:102F9000E8009B779093E800FE01339621153105F8
:102FA00001F59091E80090FD05C09BB5992311F0C3
:102FB0009530B9F78B3309F480C08D3391F18933A3
:102FC00009F088C08B81ECE18E9FC0011124415033
:102FD00050E0BE016C5F7F4F80549D4F0E941534BE
:102FE0002DC09BB5992331F3953021F39091E800E2
:102FF00093FDE0CF9091E80092FFD0CF9091F30045
:103000006091F200792F672B31F09091F10091934C
:103010002150310999F79091E8009B779093E8004F
:10302000BDCF415050E06B81BCE16B9FB0011124DA
:103030006F5F7F4FCE0104960E9435340E94400C92
:103040008091AA0511E08111BFC08091E80083FF43
:1030500011C08091AF052091B005253009F4B7C1AA
:1030600008F011C1922F9D7F913009F477C122237E
:1030700009F453C18091E80083FF0AC08091E80001
:10308000877F8093E8008091EB0080628093EB0063
:103090008F2D8F708093E900CA59DF4F0FB6F894D7
:1030A000DEBF0FBECDBFDF91CF911F910F91FF907B
:1030B000BF90AF909F908F9008958091C9048F3FEB
:1030C00009F4BCCF61E09C81911101C060E00E94D5
:1030D000CF0DB4CF833309F43FC060F4803349F09F
:1030E000813309F0ABCF87E797E79093010880938E
:1030F000000819DA843329F08A3309F09FCFE9DD1B
:103100009DCF8091AA05811199CF8091BF02811135
:1031100095CF8FEF809305010E943C0E27EAA22EE7
:1031200022E0B22E12E162E0812F0E94440E8FE86D
:1031300091E00197F1F700C000008EEE810F0E9430
:103140001B0ED5018D939D935D011F5F1E3159F7B5
:1031500081E08093BF0272CF8091AA0581116ECF6A
:103160008091A60281116ACF8FEF809305010E94A2
:103170003C0E10E000E0802F0E94220F811111C050
:1031800062E0802F0E94440EEFE8F1E03197F1F702
:1031900000C00000802F0E94EF0DF801E257FD4FA4
:1031A00080830F5F1F4F0831110529F781E080935D
:1031B000A60244CF10938E0360E0CE018D5B9F4F3B
:1031C00039D960E387E027D909D980FDF3CF60E3DF
:1031D00087E021D980E00E941F0F89EA0E948B0DB1
:1031E00060E2CE01019605D981E00E941F0F81E0C7
:1031F00080938E032ACF813C51F58091B305909145
:10320000B4058130910539F42091B1053091B205B2
:10321000232B09F4B1C1019709F017CF8091B105B3
:103220009091B2058115914009F00FCF64E182E6DB
:1032300091E0A5C1803CD1F48091B3059091B40593
:10324000049709F002CF60E486E791E098C1803CE2
:1032500069F42091B3053091B4054091B1055091C6
:10326000B205242B352B232B09F492C18F778132A1
:1032700009F0EBCE9A3009F4E8CE8091E800877F20
:103280008093E800E8CD283009F442C1293009F4E0
:103290004CC1263009F0EECE8058823008F0EACEDC
:1032A000E091B105F091B205BE016D5F7F4FEC3D3D
:1032B00043E0F40709F0ADC083E08A838AE28983A2
:1032C0004FB7F894DB0120E03EE051E2E32FF0E05D
:1032D00050935700849120FF03C082958F703F5F09
:1032E0008F708A3008F493C0895C90E08D939D9331
:1032F0002F5F243159F74FBF8091E800877F80937B
:10330000E8006AE270E0CE0101960E948F0B809186
:10331000E8008B778093E800ADCE803891F082385A
:1033200009F0A8CE8091B3058F70873008F0A2CE47
:103330008093E9002091EB0025FB222720F91092D1
:10334000E9008091E800877F8093E8002093F100F6
:103350001092F1008091E8008E7721C0823009F050
:1033600089CE8091B105811115C08091B3058F7010
:103370009FEF980F963008F07DCE8093E9009091F2
:10338000EB0090FF07C0233079F48091EB0080625E
:103390008093EB001092E9008091E800877F809392
:1033A000E8000E94400C66CE9091EB0090619093F3
:1033B000EB0021E030E001C0220F8A95EAF720936C
:1033C000EA001092EA008091EB008860E1CF811161
:1033D00051CE1091B1051F778091E3008078812B49
:1033E0008093E3008091E800877F8093E8000E944B
:1033F000400C8091E80080FFFCCF8091E300806862
:103400008093E30082E0111183E08BBD33CE805DB9
:103410006CCF8F2F99271A82198234E0DB011D921D
:103420003A95E9F78330910509F45CC0B0F4813036
:10343000910539F1029709F01DCE86E389838091C9
:1034400043018A8385E28B8323E0AE014F5F5F4FA8
:1034500066EB70E08EE693E03DC0829709F00ACEFD
:10346000809143018A3108F03AC084E492E069E82F
:1034700070E02091E800277F2093E8000E94E70B8E
:1034800046CF809143018A51883038F5880F98E003
:103490009983482F50E0FA01EC5CFB4FE491EA83FA
:1034A0008F5F90E0FC01EC5CFB4FE491EB833AE032
:1034B0003C83FA01EC5DFB4FE491ED83FC01EC5D94
:1034C000FB4FE491EE83AE014F5F5F4F62E170E02E
:1034D00084E494E00E94FE08CDCD20E0F4CF8DEC92
:1034E00092E0C5CFE43070F4FF27EE0FFF1FE859DC
:1034F000FC4F85919491FC012491622F70E0211181
:10350000B8CFB8CDEE3E09F0B5CD86E593E0F3CF68
:10351000803809F0AFCD8091E800877F8093E80084
:103520008091A8058093F10015CF8111A3CD109152
:10353000B105123008F09ECD8091E800877F80931E
:10354000E8001093A8050E94400C112311F084E0BC
:1035500005C08091E30087FDFACF81E08BBD42E298
:1035600061EC82E02ED842E261EC81E02AD842E2AE
:1035700061E883E026D87ECD68E086E591E0209181
:10358000E800277F2093E80070E00E94E70B63CCFF
:1035900064E08EE591E0F3CF903209F067CE813C94
:1035A00009F048CE2091B3053091B405253031059E
:1035B00009F05CCE2091B1053091B2052230310581
:1035C00009F054CE6EE886EB91E0D9CFEF92FF92EE
:1035D0000F931F93CF93DF9300D0CDB7DEB7082FA3
:1035E000142F732F8DB79EB79A83898350E0CA0139
:1035F0000196EDB7FEB7E81BF90B0FB6F894FEBFC6
:103600000FBEEDBF8DB79EB701967C016183622F1F
:1036100001960E94153441E0410FB701802F55D823
:10362000E981FA810FB6F894FEBF0FBEEDBF0F908F
:103630000F90DF91CF911F910F91FF90EF90089520
:10364000EF92FF920F931F93CF93DF930F92CDB71B
:10365000DEB780910C01811109C08FEF0F90DF91CF
:10366000CF911F910F91FF90EF9008951982A09133
:103670000601B0910701E0910801F09109018E0166
:103680000F5F1F4F980141E051966C9180819EDF42
:103690007801882311F3A0910601B0910701E09110
:1036A0000801F0910901980141E015966C91808123
:1036B0008DDF882391F2A0910601B0910701E0917E
:1036C0000801F0910901980141E014966C91808104
:1036D0007DDF882309F4C1CFE0910601F091070155
:1036E0006481E0910801F091090180912301882310
:1036F00009F457C08CE08983980141E0808166DF3E
:10370000882309F4AACF2FEF80E792E02150804070
:103710009040E1F700C0000080EC898380910C01AB
:1037200080FF02C080EE8983A0910601B09107015D
:10373000E0910801F0910901970141E014966C9124
:10374000808144DF882309F488CF80911201882387
:1037500031F182E08983A0910601B0910701E091E7
:103760000801F0910901970141E051966C91808127
:103770002DDF882309F471CF1982A0910601B09141
:103780000701E0910801F0910901970141E01596C8
:103790006C9180811BDF91E0892781955FCF198231
:1037A000DACF84E08983980141E080810FDF8823AC
:1037B00009F453CF80911301811104C080910C0151
:1037C00080FD3EC080E48983A0910601B09107018D
:1037D000E0910801F0910901970141E014966C9184
:1037E0008081F4DE882309F438CF2FEF80E792E060
:1037F000215080409040E1F700C00000809112010C
:10380000882301F181E08983A0910601B09107012D
:10381000E0910801F0910901970141E051966C9106
:103820008081D4DE882309F418CFA0910601B091DD
:103830000701E0910801F091090121E131E0A6CFF3
:1038400080E6C1CF1982E0CFCF93DF930F92CDB73F
:10385000DEB79C0180910C01811105C08FEF0F90A4
:10386000DF91CF91089581E02C3B310588F482E00F
:103870002236310568F483E02A32310548F484E0C9
:103880002431310528F485E02A30310508F486E03A
:10389000898390910D0189819817A9F0A091060163
:1038A000B0910701E0910801F09109019E012F5F9D
:1038B0003F4F41E012966C91808188DE882371F23F
:1038C000898180930D0180E0CACFEF92FF920F9320
:1038D0001F93CF93DF9300D0CDB7DEB7FC018B01F0
:1038E0007A0180910C0181110AC08FEF0F900F9027
:1038F000DF91CF911F910F91FF90EF9008959E2F30
:103900008F2F9A838983A0910801B09109019B01AF
:103910002E0F311D18968D919C9119978217930740
:1039200020F3E0910601F09107019E012F5F3F4FC8
:1039300042E0638D8C914ADE8823B9F2A0910601A2
:10394000B0910701E0910801F09109019701402F22
:1039500058966C9180813ADE91E089278195C6CF97
:10396000CF93DF930F92CDB7DEB780910C01811119
:1039700005C08FEF0F90DF91CF91089588E1898383
:1039800080910A018330C1F0A0910601B091070136
:10399000E0910801F09109019E012F5F3F4F41E046
:1039A00016966C91808112DE882319F389818695A1
:1039B0008695869580930A0180E0DCCFCF93DF93D4
:1039C0000F92CDB7DEB780910C01811105C08FEF4A
:1039D0000F90DF91CF910895198280910B01882378
:1039E000C1F0A0910601B0910701E0910801F091AA
:1039F00009019E012F5F3F4F41E017966C91808136
:103A0000E5DD882321F389818695869586958093C7
:103A10000B0180E0DDCF0F931F93CF93DF930F92C5
:103A2000CDB7DEB780911301882309F458C0A09167
:103A30000601B0910701E0910801F09109018E01A2
:103A40000F5F1F4F980141E014966C9180810E9496
:103A5000BB13811107C08FEF0F90DF91CF911F91A2
:103A60000F910895898190910C0190FF3AC0806276
:103A70008983A0910601B0910701E0910801F091BE
:103A80000901980141E014966C9180819FDD8823A3
:103A900011F38FED9EE20197F1F700C000008091D5
:103AA0002101882301F180E8898380912201882304
:103AB00019F0898180638983A0910601B091070183
:103AC000E0910801F0910901980141E057966C914D
:103AD00080817CDD882309F4BECF1092130180E041
:103AE000BBCF8F7DC5CF1982E0CFCF93DF930F92ED
:103AF000CDB7DEB769839E012F5F3F4F41E0682F4E
:103B000082E564DD0F90DF91CF910895EF92FF92EF
:103B10000F931F93CF93DF93CDB7DEB768970FB6A0
:103B2000F894DEBF0FBECDBF7C0180910201909161
:103B300003018F3F980709F06EC09FD89C019093B6
:103B40000301809302012F3F3F4FB9F465E580EFF9
:103B5000CCDF85E38A95F1F7000060E08BEFC5DFED
:103B600095E39A95F1F7000088D89093030180932C
:103B7000020125E32A95F1F700008091020190915E
:103B8000030183319F4F71F461E08BEFAEDF85E37A
:103B90008A95F1F7000065E580EFA7DF95E39A9538
:103BA000F1F7000080910201909103019E7F01973F
:103BB00009F0A5C063E08EEF98DF25E32A95F1F7C1
:103BC0000000AE01475F5F4F68E080E032D88FE1D0
:103BD00093E00197F1F700C00000AE014F5F5F4F27
:103BE00068E080E026D848E050E0BE016F5F7F4F7C
:103BF000CE0109960E940834892BD1F58F859889CA
:103C0000892B09F073C089E190E19093C4018093FE
:103C1000C30186E072C08B30984109F48ECF8E01CB
:103C20000F5E1F4FA8016091000180E002D8B8012B
:103C3000882389F0F80180910001A801480F511DE7
:103C40008FEF90E04E175F0779F4992309F475CF51
:103C50008F3F09F472CFE091C301F091C401309716
:103C600079F1C70109952CC02191922B8223EACFCB
:103C70008FE193E00197F1F700C0A2CF419709F0DF
:103C800051C08BE291E118C082312FEF920759F1B8
:103C900058F4833021E0920719F18330934009F002
:103CA00041C08EE690E108C083319F4FD9F58AE18B
:103CB00091E102C08DEA9FE09093C4018093C3011B
:103CC00068960FB6F894DEBF0FBECDBFDF91CF91DF
:103CD0001F910F91FF90EF90089586EF9CE2ECCF3B
:103CE0008CE59FE0E9CF8BED90E1E6CF8BEE9FE096
:103CF0009093C4018093C30188E080930001809178
:103D0000020190910301813021E09207C9F208F08D
:103D1000BBCF8330910571F208F0B0CF0097E9F284
:103D2000019771F28BE098E1909303018093020177
:103D30001092C4011092C301C3CF1F93CF93DF939E
:103D40000F92CDB7DEB7182F80912201811729F18C
:103D5000112341F180E3898380911301882319F0B5
:103D600089818260898380912101882319F089816A
:103D700080688983A0910601B0910701E091080154
:103D8000F09109019E012F5F3F4F41E057966C91E2
:103D900080811CDC8111109322010F90DF91CF9163
:103DA0001F9108951982D8CFEF92FF921F93CF935E
:103DB000DF930F92CDB7DEB7182F807719F081E02F
:103DC000898303C01123F1F01982A0910601B091FB
:103DD0000701E0910801F0910901CE0101967C01F3
:103DE0009C0141E055966C918081F0DB9701811137
:103DF0000BC010920C010F90DF91CF911F91FF909B
:103E0000EF90089580E4DCCF89818F7B80930E0151
:103E100016FF32C0198215FD03C089818260898333
:103E200014FD03C089818160898313FD03C08981EA
:103E300088638983A0910601B0910701E091080190
:103E4000F091090141E056966C918081BFDB882397
:103E500081F2812F877F11F080E06FDF10930C01DA
:103E6000109215019FEF20E782E0915020408040A2
:103E7000E1F700C00000BFCF84E08983CCCFCF93AF
:103E8000DF930F92CDB7DEB7909123019923E9F02C
:103E9000882339F182E08983A0910601B09107015E
:103EA000E0910801F09109019E012F5F3F4F41E031
:103EB00051966C9180818ADB882319F089818093E7
:103EC00012010F90DF91CF91089590910C019923E9
:103ED000C1F3882331F0809112018111F2CF81E08A
:103EE000DACF1982D9CF1F93CF93DF93D82F809148
:103EF0002301C0E081111FC080910C018823B9F01B
:103F0000109111018D2380931101C1E08D1301C027
:103F1000C0E0C195809115018D2B59F081E0AFDF94
:103F2000DD2349F08DDB882331F010931101CFEFB1
:103F300002C080E0A4DF8C2FDF91CF911F91089504
:103F40001F93CF93DF9300D0CDB7DEB7182F811129
:103F50001EC080E0F2DE198287E08A83A09106010C
:103F6000B0910701E0910801F09109019E012F5FD6
:103F70003F4F42E055966C91808128DB8111109271
:103F800015010F900F90DF91CF911F91089581E05F
:103F9000D4DE80E28983113041F51A8285E090E019
:103FA00053DC8A8120E4829FC001112487608A83C8
:103FB000A0910601B0910701E0910801F09109017B
:103FC0009E012F5F3F4F42E055966C918081FEDA53
:103FD0008823B9F288E080930C0110920E0181E0F1
:103FE0008093150180E07FDFCCCF163018F481E09C
:103FF0008A83D4CF153128F482E08A838AE090E066
:10400000CFCF83E08A8384E190E0CACF0F931F93E0
:10401000CF93DF930F92CDB7DEB78C0180910C0167
:10402000811107C08FEF0F90DF91CF911F910F91FA
:104030000895809123018111F5CF80911501882386
:1040400051F0C8010197889720F4802F79DF80E034
:10405000EACF80E075DFB801093E134010F068EE4A
:1040600073E06430710510F464E070E008EE13E072
:10407000C8010E94613361506983A0910601B0912B
:104080000701E0910801F09109019E012F5F3F4F68
:1040900041E011966C91808199DA882309F4C2CFAE
:1040A000698170E06F5F7F4FC8010E947533709324
:1040B000100160930F01CB0196958795C5DBC7CFA3
:1040C0007F928F929F92AF92BF92CF92DF92EF92A8
:1040D000FF920F931F93CF93DF93CDB7DEB7CB53F0
:1040E000D2400FB6F894DEBF0FBECDBF42E151E023
:1040F00061E070E0CE0101960E9425348D859E8599
:10410000AF85B8890897A105B10540F442E151E0B7
:1041100060E070E0CE0101960E94253489859A8581
:10412000AB85BC858531944DA24AB105B1F042E121
:1041300051E066E574E0CE0101960E94F8331D86D9
:104140001E861F86188A42E450E06AEF74E0CE01B2
:104150008B559F4F0E94F83308C08D859E85AF8593
:10416000B8890297A105B10570F38A81873009F0FB
:1041700040C08FE08A838D859E85AF85B88904977E
:10418000A105B10548F448E550E062EA74E0CE01CB
:10419000835B9F4F0E94F8338D859E85AF85B889DC
:1041A00086309105A105B10548F51C82C951DF4F44
:1041B0001882C75ED040EA81F0E0E859FA4FE491F6
:1041C000E23021F48AA591E089278AA742E050E0F5
:1041D00066E675E0CE018F5E9E4F0E94F83344E2A2
:1041E00050E062E475E0CE0183519F4F0E94F833A6
:1041F00013C0883009F0BFCF8DE0BCCF8630910569
:10420000A105B10599F289309105A105B10598F292
:104210000D97A105B105D0F28D859E85AF85B88932
:104220000E97A105B105E8F488A9843030F48230F6
:1042300008F417C281E088AB04C08450823008F4CF
:1042400018AA8EE090E0A0E0B0E08D879E87AF874F
:10425000B88B42E151E061E070E0CE0101960E942E
:10426000353482E191E0FE013196DE01AD5EBE4F54
:1042700001900D920197E1F7CC5EDE4F8881C45129
:10428000D1408093440180934301CA5EDE4F988100
:10429000C651D1409093AE05CD5EDE4F9881C3519B
:1042A000D1409093AD05E82FF0E0E859FA4F949192
:1042B00021E0913009F020E02093AC05E49121E069
:1042C000E23009F020E02093AB05E23009F0CBC1E9
:1042D000843140F487E080934301913019F488E001
:1042E0008093430185B5826085BD85B5816085BDBC
:1042F00080916E00816080936E00C750DE4F888190
:10430000C95FD140882309F4B5C10E94EB0EC85C97
:10431000DD4F688379838A839B83C853D2408E01A3
:104320000B5D1D4FC650DE4F88819981AA81BB81EC
:10433000CA5FD140F80180839183A283B383C85CB4
:10434000DD4F88819981AA81BB81C853D24089837E
:104350009A83AB83BC8310928E0360E080E00E945E
:10436000440E60E08AE00E94440E20E040E060E0FD
:1043700074E284EF90E00E94810E60E080E00E9491
:10438000CF0D81E00E941F0FAFE1BEE41197F1F75E
:1043900000C0000061EF84E00E940B1262E083E045
:1043A0000E940B12BE016B5C7D4F86E00E949F1243
:1043B000CB5CDD4F6881C553D240697FCB5CDD4F5C
:1043C0006883C553D24086E00E940B128DE10E94A3
:1043D000B012F82E0E94E6118DE10E94B0128823DF
:1043E00041F0F81202C00E94E61160E08DE10E94E7
:1043F0000B12BE01695C7D4F86E00E949F12C95C72
:10440000DD4F6881C753D240677D6360C95CDD4F73
:104410006883C753D24086E00E940B12BE016B5CDA
:104420007D4F86E00E949F12BE016B5C7D4F80E055
:104430000E949F12CB5CDD4F6881C553D2406C60F7
:10444000CB5CDD4F6883C553D24080E00E940B12E5
:104450006CE485E00E940B128DE10E94B012682F7F
:1044600064608DE10E940B128CE10E94B012682FF3
:104470006F638CE10E940B128DE10E94B012682FD5
:1044800066608DE10E940B128CE10E94B012682FD1
:1044900063608CE10E940B126FE381E00E940B12BB
:1044A00060E787E00E940B120E94E0110E94DA117F
:1044B00060E787E00E940B12CB5CDD4F1882C5538A
:1044C000D240BE016B5C7D4F80E00E949F12CB5CAE
:1044D000DD4F8881C553D2408C78CB5CDD4F88831B
:1044E000C553D24060E080E00E94CF0DCB5CDD4F31
:1044F0006881C553D240636080E00E940B1261E086
:1045000080E00E94CF0DB8018AE00E94BE12B8017F
:1045100080E10E94BE1260E080E00E94CF0DBE01EB
:104520006F5F7F4F8BE00E94BE1263E082E00E94CB
:104530000B1261E080E00E94CF0D809169008068DD
:1045400080936900EB9A81E08093AA0580914401F1
:10455000823209F036C58EE699E090934E0580933D
:104560004D0581E0C95EDE4F9881C751D140923040
:1045700009F480E08093A70588E5FE01E15AFE4F2B
:10458000AFE4B5E001900D928A95E1F78091D800F3
:104590008F7E8093D8008091D70081608093D70070
:1045A00084E082BF81E08093A9058091D8008E7F4E
:1045B0008093D8001092E2001092DA001092E1008D
:1045C0008091D8008F778093D8008091D800806840
:1045D0008093D8008091D8008F7D8093D80019BC3B
:1045E0001BBC1092A8058091E0008B7F8093E000B7
:1045F0008091D80081608093D80042E360E080E041
:104600000E94E1128091E1008E7F8093E100809111
:10461000E20081608093E2008091E20088608093F4
:10462000E2008091E0008E7F8093E0008091D800CE
:1046300080618093D8007894C55CDD4F0FB6F89404
:10464000DEBF0FBECDBFDF91CF911F910F91FF90C5
:10465000EF90DF90CF90BF90AF909F908F907F9022
:10466000089582E0E8CD913009F03CCE843108F025
:1046700039CE35CEC85EDE4F8881C851D140809397
:10468000EB04C75EDE4F8881C951D1408093EA04B4
:1046900080917A00846080937A0080917A008260B1
:1046A00080937A0080917A00816080937A00809173
:1046B0007A00806880937A00CD5EDE4F8881C35196
:1046C000D140823009F4D6C3833009F4D6C3813097
:1046D00099F4C65EDE4F8881CA51D14080938F0322
:1046E00086E89DE19093E9048093E80483E09BE0F1
:1046F0009093E7048093E604CD5EDE4F8881C3513A
:10470000D140833009F0F2C3CB5EDE4F8881C551C2
:10471000D1408130C9F41092AD0381E08093AC03A5
:104720001092AB03589A599A8091B9008E7F80936A
:10473000B9008091B9008D7F8093B9008AE08093A1
:10474000B80085E48093BC00CB5EDE4F9881C551F4
:10475000D14081E0913041F0CD5EDE4F2881C351E0
:10476000D140213009F080E081708093CB04C95E94
:10477000DE4F8881C751D140823009F4CFC381E038
:10478000CD5EDE4F2881C351D140233009F080E057
:1047900081708093CA04C250DE4F8881CE5FD140C1
:1047A0008093C9049093C80484E2FE01E150FE4F57
:1047B000A4EAB4E001900D928A95E1F71092A30467
:1047C0001092A2040E943C0E109211041092100448
:1047D0001092AF031092AE03FE01ED5EFE4F5F013B
:1047E0006F0100E045E0942E7E0194E0E90EF11C9B
:1047F000D701E92D1D92EA95E9F70983D601909634
:104800008C901091AB05BFEF8B1689F1053049F400
:10481000112339F0CB5EDE4F8881C551D140833002
:1048200031F5F60171A061E0882D0E94440E7B8273
:10483000EEEEE80DF0E0EF56FA4FE491EA83A09136
:104840001004B0911104CD0101969093110480934E
:10485000100433E0AA0FBB1F3A95E1F7A055BC4FF7
:1048600088E0FE01319601900D928A95E1F70F5F85
:10487000F2E0CF0ED11C063009F0BACFC250DE4FA5
:104880008881CE5FD1408F3F19F060E00E94440ED6
:10489000D12CC12C29E0F22E88248394CD5EDE4FEA
:1048A0009880C351D14022E0921253C3D501509653
:1048B0004C914F3F09F499C081E0BCE0CB16D10484
:1048C00038F49601285031092230310508F080E093
:1048D000E82FE1707E2E80FF08C001E0C95EDE4F48
:1048E0008881C751D140813009F000E00170E12C8E
:1048F0002C2DBE016D5E7E4FCE0101960E94920D61
:104900000885E9848091AC05882309F409C37720E0
:1049100009F406C3D50150967C90B1E1B71508F0B3
:10492000FFC2CF5BDE4F8881C154D140E8E08E9F4B
:10493000C0011124C95DDD4F188219821A82C75245
:10494000D240CB5DDD4F7882C552D240C45DDD4F91
:104950008882CC52D240C65DDD4F99838883CA528B
:10496000D24061E0872D0E94440EEEEEE70DF0E0AC
:10497000EF56FA4FE491A0911004B0911104EA2E81
:10498000CA5DDD4FE883C652D240CD0101969093B7
:1049900011048093100493E0AA0FBB1F9A95E1F7CE
:1049A000A055BC4F88E0FE01EB5DFD4F01900D92DC
:1049B0008A95E1F78091A2049091A3049C012F5F56
:1049C0003F4F3093A3042093A2040887E986F89E02
:1049D000D001F99EB00D1124AE5EBB4FFE013196A1
:1049E0008F2D01900D928A95E1F7FFEFCF1ADF0A24
:1049F0002FEFA21AB20A80E1C816D10409F04ECFF7
:104A0000112309F423C2CB5EDE4F1881C551D1407A
:104A1000113009F0C6C2CE5BDE4F8881C254D1404E
:104A20008093E104789480E88983A0910601B09195
:104A30000701E0910801F09109019E012F5F3F4FAE
:104A400041E055966C9180810E94E61A882309F412
:104A500067C09FEFA9E6B8E19150A040B040E1F7F0
:104A600000C000001982A0910601B0910701E091F9
:104A70000801F09109019E012F5F3F4F41E05596DB
:104A80006C9180810E94E61A882309F449C0109233
:104A900014018FEF80930C0180930A0180930B0126
:104AA00080930D012FEF3FEF3093100120930F0102
:104AB000809311018093130110930E011093210133
:104AC000109222011092160110921501E7E1F1E017
:104AD0008AE0DF011D928A95E9F710922301109276
:104AE000240110922601109225010E94B01C811110
:104AF00017C00E94DE1C811113C08AE290E00E9460
:104B0000241C81110DC082E390E080DA811108C07D
:104B1000EAD9811105C00E940B1D811101C044D941
:104B200088E742D90E94B01C0E94DE1C88E7DBD9CE
:104B300080912401811199C0F12CE12C86EFC82EBF
:104B40008BE0D82E86010E191F090131110510F0D6
:104B500000E110E0F701E356FA4FDE011196CD01B6
:104B6000800F911FA817B90709F017C2AE014F5F58
:104B70005F4FB801C7010E94651C811176C080910A
:104B80000C01882309F471C09E2D8F2DCB5CDD4F65
:104B900099838883C553D240E0910801F0910901BF
:104BA00020853185C8018E0D911D2817390708F41D
:104BB0005CC0A0910601B09107019E012B5C3D4FA6
:104BC00042E05B966C9180810E94E61A882309F48A
:104BD0004CC0A0910601B0910701E0910801F0914D
:104BE00009019E012B5D3D4F402F58966C918081AD
:104BF0000E94BB138823C9F1A801BE016B5D7D4FE4
:104C0000CE0101960E940834892B79F5E00EF11E41
:104C1000B6EFEB16BBE0FB0608F494CF84E0CB5C68
:104C2000DD4F8883C553D240CA5CDD4F1882C6531E
:104C3000D240A0910601B0910701E0910801F091E6
:104C400009019E012B5C3D4F42E05D966C91808195
:104C50000E94E61A882349F081E08093240188ECC1
:104C600090E090932601809325018CE0EAEAF1E040
:104C7000DE01119601900D928A95E1F7CB5DDD4F33
:104C80001882C552D24085E0CA5DDD4F8883C65286
:104C9000D240AE014B5D5D4F62E070E086E192E094
:104CA0000E94651C811111C0AE014F5F5F4F6CE027
:104CB00070E081EC9AE00E94651C811106C08EE1D3
:104CC00090E09093D5048093D404809123018130A7
:104CD00011F1809124018823F1F080E0D0D80E9466
:104CE0000B1D809125019091260190D91982E091A8
:104CF0000801F09109019E012F5F3F4F41E063E2FF
:104D000080810E94E61A882331F081E0809323019C
:104D1000B6D80E94201B82E089838AEC8A8383EEC6
:104D20008B8319E01C83AE014F5F5F4F64E070E03E
:104D300088E690E00E94651C83EA89838A838B83DE
:104D40008C838D838E838F83888789878A87AE0142
:104D50004F5F5F4F6AE070E087EA9AE00E94651C4F
:104D600088ED8983AE014F5F5F4F61E070E086EBB5
:104D70009AE00E94651CE7EBF1E0DE01AB5DBD4F00
:104D800001900D921A95E1F7AE014B5D5D4F69E020
:104D900070E088EB94E00E94651C44E050E06BE812
:104DA00070E0CE018B5D9D4F0E941E34AE014B5DC5
:104DB0005D4F64E070E088E99AE00E94651C0E9403
:104DC000201B80E2CB5DDD4F8883C552D24088E254
:104DD000CA5DDD4F8883C652D24080E3C95DDD4F96
:104DE0008883C752D24088E3C85DDD4F8883C852AC
:104DF000D240AE014B5D5D4F64E070E08EE99AE019
:104E00000E94651C0E94201B88E190E09093D304CF
:104E10008093D2040E94201B80E18093D6048CE40E
:104E200099E29093E0048093DF0486E0FE01E35E64
:104E3000FD4FA8EDB4E001900D928A95E1F7C25CB8
:104E4000DE4F8881CE53D1408093D704C05CDE4FC3
:104E50008881C054D1401092E4048093E504C15C81
:104E6000DE4F8881CF53D14090E09093E30480934C
:104E7000E2046CCB82E39BE03BCC21E041E060EAC2
:104E800076E881E090E00E94810EEE24E39400E059
:104E900020E04AE0BE016D5E7E4F82EA93E00E9410
:104EA000920D20E040E1BE016D5E7E4F89E993E006
:104EB0000E94920D20E04FE0BE016D5E7E4F80E9C2
:104EC00093E00E94920D60E08AE00E94440E0E94EE
:104ED000E01387E79BE09093E7048093E60485EC7A
:104EE00095E19093E9048093E80406CCC95EDE4F17
:104EF0008881C751D140823041F421E041E060E037
:104F000072E18AE790E00E94810ECD5EDE4F8881DB
:104F1000C351D140813009F0F7CBFDCB81E038CCD3
:104F20008C81882311F099249394692DD501509692
:104F30008C910E94440E112309F43CCDB2E0CB16B3
:104F4000D10408F037CDCC5DDD4F0881C452D2408A
:104F500031CDE12C00E02C2D40E0BE016D5E7E4F96
:104F6000CE0101960E94920D2885112349F0E2E0BE
:104F7000CE16D10428F4CC5DDD4F2881C452D24036
:104F80008091A2049091A304AC014F5F5F4F5093B6
:104F9000A3044093A20428871ACD24912D9331961F
:104FA000E1CD123009F041CFC35CDE4F8881CD5393
:104FB000D1408093DE0462E00E94440E87E09EE0D0
:104FC00030CF833268F082E4FE01E954FE4FACEE4C
:104FD000B4E001900D928A95E1F784E791E1BDCAB2
:104FE000843118F481EF92E1B8CA9CEE980F9630A4
:104FF00008F58AE1E3E1F1E0EC0FFD1FF296A2E390
:10500000B5E001900D928A95E1F7C05CDE4F888192
:10501000C054D1401092300580933105C15CDE4F01
:105020008881CF53D14010922E0580932F058EEEAC
:105030009CE093CA803258F046E050E064EA71E0A8
:1050400087E391E00E94F83386E080934C058091DD
:1050500044018A3149F48DE080932A018CE08093E9
:105060002B0183ED99E079CA982F9D7F4EE050E0A7
:105070006FEA71E19C3171F04EE050E061EA71E15C
:105080008B3141F08D3111F0803259F74EE050E014
:1050900063E971E189E291E00E94F833E2CFCF93B6
:1050A000DF9300D000D0CDB7DEB720E030E040E0A5
:1050B00057E469837A838B839C8369817A818B81AE
:1050C0009C810E94C73269837A838B839C83698128
:1050D0007A818B819C810E946432CB010F900F906A
:1050E0000F900F90DF91CF9108958F929F92AF9282
:1050F000BF92CF92DF92EF92FF920F931F93CF93C5
:10510000DF93CDB7DEB728970FB6F894DEBF0FBE9A
:10511000CDBF8C016F8378872F8138852817390799
:1051200071F480E090E2121613060CF471C090E066
:1051300080E0232B09F46CC080E090EA69C0990FED
:10514000880B982F80959095980128273927A901D9
:10515000481B590B5E834D838F819885990F880B6F
:10516000982F809590952F81388528273927B90168
:10517000681B790B7A83698364EE77EF81EB9DE39B
:105180008EDFD82EC92E69EF7DE78CEA9EE387DF9C
:105190007C018F8198859C01990F440B550B480128
:1051A000012E000CAA08BB08A981BA816D817E81FD
:1051B000A617B7070CF03FC0D501C4016FE0880FF8
:1051C000991FAA1FBB1F6A95D1F789839A83AB8366
:1051D000BC83BC01CD010E94AA334901C901990FCA
:1051E000880B982F80959095BC0162277925681BC4
:1051F000790B8D2D9C2D0E945D12B4018E0D9F1D8B
:105200000E945D12AF81B8851A161B060CF09058EB
:1052100028960FB6F894DEBF0FBECDBFDF91CF91B9
:105220001F910F91FF90EF90DF90CF90BF90AF90C4
:105230009F908F900895CA01B9012FE0660F771FE4
:10524000881F991F2A95D1F769837A838B839C8362
:10525000A50194010E94AA334901C901990F880B45
:10526000982F80959095BC0168257925681B790B4E
:105270008D2D9C2D0E945D12B4018E0D9F1D0E94EC
:105280005D129C0180E090E41016110614F080E09D
:1052900090EC821B930BBCCF8F929F92AF92BF92E8
:1052A000CF92DF92EF92FF920F931F93CF93DF93F2
:1052B000CDB7DEB7EA970FB6F894DEBF0FBECDBF0D
:1052C00089AF9AAF1092EB011092EA01D090D60408
:1052D000ED2CF12C80912301882311F180910C0198
:1052E0008823F1F0A0910601B0910701E091080137
:1052F000F09109019E012F5D3F4F42E01C966C9199
:1053000080810E94BB13882359F009A11AA110279C
:10531000012710270E151F0508F08FC01092E90114
:105320008091EA019091EB018115914009F0E5C26D
:10533000C090EC01D090ED01E090EE01F090EF0113
:1053400077E1F594E794D794C7947A95D1F7D09202
:10535000ED01C092EC018090F0019090F101A090DD
:10536000F201B090F301E7E1B594A7949794879484
:10537000EA95D1F79092EF018092EE014091F4010D
:105380005091F5016091F6017091F701F7E1759583
:10539000679557954795FA95D1F75093F10140934A
:1053A000F0010091F8011091F9012091FA0130917A
:1053B000FB01A7E13595279517950795AA95D1F794
:1053C0001093F3010093F2018091E104009FF0013A
:1053D000019FF00DF00D1124813009F4D7C1823006
:1053E00009F4DEC2811165C2449FC001459F900D42
:1053F000900D11248E0F9F1F880F991FE0E0F0E899
:10540000E81BF90B489DD001499DB00D589DB00D8A
:1054100011240C9DC0010D9D900D1C9D900D11241B
:105420009D01281B390BC901BF01880F991F5DDE43
:105430009093E8018093E7013CC2E0910801F0916C
:105440000901818192819695879580179107B0F423
:10545000A0910601B09107019E012F5D3F4F41E0F1
:1054600053966C9180810E94BB13882309F458CF16
:1054700089A184FF03C00E94201B52CFA091060186
:10548000B0910701E0910801F09109019E012F5FA1
:105490003F4F4D2D1D966C9180810E94BB13882338
:1054A00009F43ECFC801B7010E9461336150609397
:1054B000E901E091D204F091D304CF0184719927DE
:1054C000892B09F461C129813A814B815C81CA0130
:1054D000B9010E94C6334B015C018092EC019092AD
:1054E000ED01A092EE01B092EF018D819E81AF811E
:1054F000B885BC01CD010E94C6336B017C01C0920E
:10550000F001D092F101E092F201F092F3012985CD
:105510003A854B855C85CA01B9010E94C6338B016F
:105520009C010093F4011093F5012093F601309350
:10553000F7018D859E85AF85B889BC01CD010E949C
:10554000C633AB01BC014093F8015093F90160935D
:10555000FA017093FB01C501BB2797FDB095AB2FF6
:105560008BA39CA3ADA3BEA3C701BB2797FDB0959A
:10557000AB2F8FA398A7A9A7BAA7C901BB2797FDEF
:10558000B095AB2F8BA79CA7ADA7BEA7CB01BB2720
:1055900097FDB095AB2F8FA798ABA9ABBAAB2BA15A
:1055A0003CA14DA15EA1CA01B9010E9452336BA377
:1055B0007CA38DA39EA32FA138A549A55AA5CA01F6
:1055C000B9010E9452336FA378A789A79AA7CBA0ED
:1055D000DCA0EDA0FEA0C60ED71EE81EF91E2BA56E
:1055E0003CA54DA55EA5CA01B9010E945233C60E65
:1055F000D71EE81EF91E2FA538A949A95AA9CA0124
:10560000B9010E9452336BA37CA38DA39EA3C60E47
:10561000D71EE81EF91E9FE0F91AA1E0CA16D104B0
:10562000E104A2E0FA0638F00E94201B1092EB0180
:105630001092EA0175CE8091EA019091EB019160A0
:105640009093EB018093EA0180E1E6FF4DC0A1E079
:10565000B0E0AC0FBD1FA80FB11D9C9121E0280F39
:10566000A1E0B0E0AC0FBD1FA20FB11D2C91392FEE
:10567000309301002093000092E0980FA1E0B0E089
:10568000AC0FBD1FA90FB11D9C9123E0280FA1E015
:10569000B0E0AC0FBD1FA20FB11D2C91392F30937C
:1056A00003002093020094E0980FA1E0B0E0AC0F5B
:1056B000BD1FA90FB11D9C9125E0280FA1E0B0E00E
:1056C000AC0FBD1FA20FB11D2C91392F30930500D7
:1056D000209304008A5F2091EA013091EB01286059
:1056E0003093EB012093EA01E078F170EF2B09F49D
:1056F00017CEE1E0F0E0EC0FFD1FE80FF11D908107
:1057000021E0280FE1E0F0E0EC0FFD1FE20FF11DBA
:105710002081392F309301002093000092E0980FF0
:10572000E1E0F0E0EC0FFD1FE90FF11D908123E0B7
:10573000280FE1E0F0E0EC0FFD1FE20FF11D2081EA
:10574000392F309303002093020094E0980FE1E09A
:10575000F0E0EC0FFD1FE90FF11D90818B5FE1E0A0
:10576000F0E0EC0FFD1FE80FF11D80819093050024
:10577000809304008091EA019091EB0180679093FF
:10578000EB018093EA01CCCD80E05FCF089DC001A2
:10579000099D900D189D900D11244C9D90014D9DDB
:1057A000300D5C9D300D11247C01E21AF30AB70123
:1057B000C7010E945D128C01BC010E945D125C0158
:1057C000BC010E945D126C0160E670EB89E39DE311
:1057D00066DCB8010E945D128BA39CA36AE27EEE98
:1057E00087E39CE35CDC8FA398A76EEF7AEB87EDF1
:1057F0009CE355DCB8010E945D128BA79CA766EA6A
:1058000079EB88EA9CE34BDC8FA798AB62E377E8FF
:105810008AEF9CE344DCB8010E945D128BAB9CAB29
:1058200063E87EEC86E39DE33ADC8DAB9EAB6AECED
:1058300079E989E99DE333DCB8010E945D128FAB01
:1058400098AF6AEA7AEA8AE29EE329DC4C01B50164
:105850008BA19CA14FA158A5841B950B0E945D12A2
:105860002BA53CA5AFA5B8A92A0F3B1FB601820FF7
:10587000931F0E945D126C01B5018BA99CA9EDA933
:10588000FEA98E0F9F1F0E945D128C0D9D1D2FA9DA
:1058900038AD820E931EB801880D991D0E945D12CD
:1058A000B7010E945D12E80EF91EF092E801E09245
:1058B000E7018091E7019091E8018A3939E1930786
:1058C0000CF48DC089E999E19093E8018093E70198
:1058D0002091E7013091E80145E0429FC001439FDC
:1058E000900D11242091D704222319F091958195D0
:1058F00091099093E8018093E7012091E7013091AD
:10590000E8013093850220938402032E000C440B9F
:10591000550B8091DA049091DB04092E000CAA0B40
:10592000BB0B281B390B4A0B5B0BA091D804B09121
:10593000D90458D720E034E040E050E00BD7DA013A
:10594000C9019058A109B109811550E895075FEF89
:10595000A507B50724F480E090E8AFEFBFEF81150D
:10596000E0E89E07A105B10524F08FEF9FE7A0E0D6
:10597000B0E0E9ADFAAD93878287EA960FB6F89466
:10598000DEBF0FBECDBFDF91CF911F910F91FF9072
:10599000EF90DF90CF90BF90AF909F908F90089541
:1059A000CC9CC001CD9C900D900D11248E0F9F1F9B
:1059B000880F991FE0E0F0E8E81BF90B8C9CD00100
:1059C0008D9CB00D9C9CB00D1124049FC001059FBF
:1059D000900D149F900D11248A0F9B1F25CD8736A3
:1059E000964E0CF075CF87E696EE6ECF8F929F9213
:1059F000AF92BF92CF92DF92EF92FF920F931F93DD
:105A0000CF93DF938C01EB0188818058990BF801CB
:105A10001482858389818058990B168287838091AF
:105A20008F03882309F43EC02D81822F90E0CB8024
:105A3000F4E0CF9E60011124AC0134E05595479508
:105A40003A95E1F743705527C42AD52A3FEFC31A88
:105A500031E0D30AEC80E4E0EE9E700111249595CC
:105A600087959595879583709927E82AF92AFFEFFE
:105A7000EF1AF1E0FF0A8A8134E0839FC00111240C
:105A80002295269526952370822BB7018F5F914032
:105A90002CDBF80191878087B701C60126DBF8016E
:105AA000938782878D81982F90959170B92EB294AB
:105AB00090EFB922A12C869591E089278170982ECC
:105AC0009294990C990C20EC9222812CA828B92848
:105AD000B092C601A092C501DF91CF911F910F91A5
