:1000000096C700000C9465260C944C25B1C70000DF
:10001000AFC70000ADC70000ABC70000A9C7000014
:10002000A7C70000A5C70000A3C70000A1C7000024
:100030009FC700009DC700009BC7000099C7000034
:1000400097C7000095C7000093C7000091C7000044
:100050008FC700008DC700008BC700000C94A72538
:1000600087C7000085C7000083C7000081C7000064
:100070007FC700007DC700007BC7000079C7000074
:1000800077C7000075C7000073C7000071C7000084
:100090006FC700006DC700006BC700000C94CA2535
:1000A00067C7000065C7000063C7000061C70000A4
:1000B0005FC700005DC700005BC7000059C70000B4
:1000C00057C7000055C7000053C7000051C70000C4
:1000D0004FC700004DC700004BC7000049C70000D4
:1000E00047C7000000002100240027002A002D003F
:1000F0003000330001010000040107010A01000083
:1001000020002300260029002C002F0032000001CF
:10011000000003010601090100002200250028005B
:100120002B002E00310034000201000005010801FF
:100130000B010102102020080810204010204080F0
:10014000020102010804020101020408102040809B
:100150008040201008040201800402018040201029
:100160000804020108040201010204081020408072
:100170000102040810204080050505050705080850
:100180000808020202020A0A080804040404010121
:100190000101010101010303030303030303040736
:1001A00007070C0C0C0C0C0C0C0C020202020606CD
:1001B0000606060606060B0B0B0B0B0B0B0BFF08BC
:1001C0000F0C21260107000000006D656761616466
:1001D0006B00020F00000001010115D4A2000E0007
:1001E0000000FFFFFFFFFFFFFFFFFFFFFFFFFFFF1D
:1001F000FFFFFF00FF00FF00FF00FF00FF00404087
:100200004000B80B04160D0E0F33280B504F5251FF
:1002100051FFFFFFFFFFFF00FF00FF00FF000D0089
:1002200080000EFF000010FFFF000F0000FF09FF1D
:100230004500000000000000000000000000000079
:1002400000000000000000000000000000000000AE
:10025000000000000000000000000000000000009E
:10026000000000000000000000000000000000008E
:10027000000000000000000000000000000000007E
:10028000000000000000000000000000000000006E
:10029000000000000000000000000000000000005E
:1002A000000000000000000000000000000000004E
:1002B00000000000000000000000000000FF01003E
:1002C00000800080010000800080010000800000AC
:1002D000010000800000010000800000010000809B
:1002E00000000514000000000000000000020000F3
:1002F00001010202000000000002020201010002EE
:10030000010201000201000002020201010000706E
:10031000000000002400000002000300000065004F
:1003200054FFEF0000FA80000B12820001030C3032
:10033000C30E8C8CE914D5400213710F8E3883F8EC
:10034000833000F883258EF8833000F883FFFFFFA9
:10035000FF0FFEA9D6240004001A8279A100000034
:100360003CFFFF00000010000038836FA2003E0336
:10037000304000000002CAE3093E80000020000077
:1003800000000000004000000060000000000C00C1
:1003900000000C186E000006920A16C0DFFFFF0274
:1003A00056FD8CD377FFE1C496E0C5BEAA000000DD
:1003B00000FFFF0B2B000016570000035940000000
:1003C0000000001DFA00026C1D000000003FFFDF6E
:1003D000EB003EB3B6000D227800002F3C00000079
:1003E00000001942B5000039A20000B365D90E9F84
:1003F000C91DCF4C3430000000500000003BB67ADD
:10040000E80064000000C8000000000000100000C8
:10041000001000FA921000225E000D229F000100E1
:100420000000320000FF46000063D400001000000E
:100430000004D6000004CC000004CC000000001032
:1004400072000000400000000000000000000600F4
:10045000020005000700000000006400000000002A
:1004600000000000050005006400200000000000FE
:100470000000000000000040000000030000000039
:1004800032F8980000FF650000830F0000FF9BFC1E
:10049000000000000000000000000000000000005C
:1004A000000000000000000000000000000000004C
:1004B00000000000000000000000001000400000EC
:1004C00000000000060000B26A000200000001FB0C
:1004D000830068000000D9FC007CF1FF830000006D
:1004E0000000650000006403E800640028000000CC
:1004F000250000000016A000000000100000001001
:1005000000002F0000000001F4000010000028008F
:1005100000FFFF4581FFFFFA7200000000000000AD
:1005200000004400050005BAC6004778A20000009C
:10053000010000000000000600000000140000257B
:100540004D002F706D000005AE000C02D0000000C1
:1005500000000000000000000000000000001B0080
:100560000000000000000000000000000000640027
:100570000000080000000000000000000000000073
:10058000000000000000000000000000000000006B
:10059000000000000000000000000000000000005B
:1005A000000000000000000000000000000000004B
:1005B000000000000000000000000000000000003B
:1005C00000000000000000000000000000001B0010
:1005D000000000000000000000000E000E00000AF5
:1005E000C70004000000000032FFFFFF9C00000B6A
:1005F0002B000000020000000100000064FFE50085
:1006000000000000000000000000000000000000EA
:100610000100000000000100000000000000018057
:10062000000001800000018000002426D3000000AB
:100630000000000000000600100096003C000000D2
:10064000000000000000000000000000000C0A4E46
:1006500068CDCF770950166759C619CE82000000C1
:10066000000000000000000000000000000000008A
:10067000000000000017D784000300000000000005
:100680000000000000C7938F9D1E1B1C1900000076
:10069000000000000000000000000000000000005A
:1006A0000000000000020318850000400000000068
:1006B00003000000030000000000000000400000F4
:1006C000000000000000000000000000000000002A
:1006D000000000000000000000000000000000001A
:1006E000000000000000000000000000000000000A
:1006F00000677DDF7E72902E554CF6E68800000084
:1007000000000000000000000000000000D8DCB481
:10071000B8B0D8B9ABF3F8FAB3B7BB8E9EAEF1322E
:10072000F51BF1B4B8B08097F1A9DFDFDFAADFDFF6
:10073000DFF2AAC5CDC7A90CC92C97F1A989264615
:1007400066B28999A92D557DB0B08AA8963656769D
:10075000F1BAA3B4B280C0B8A89711B28398BAA373
:10076000F0240844106418B2B9B49883F1A3295551
:100770007DBAB5B1A38393F0002850F5B2B6AA8331
:100780009328547CF1B9A3829361BAA2DADEDFDB4D
:10079000819AB9AEF5606870F1DABAA2DFD9BAA26F
:1007A000FAB9A38292DB31BAA2D9BAA2F8DF85A442
:1007B000D0C1BBAD83C2C5C7B8A2DFDFDFBAA0DF3F
:1007C000DFDFD8D8F1B8AAB38DB4980D355DB2B6D5
:1007D000BAAF8C96198F9FA70E161EB49AB8AA8727
:1007E0002C547CBAA4B08AB691325676B28494A4C2
:1007F000C808CDD8B8B4B0F19982A82D557D98A875
:100800000E161EA22C547C92A4F02C5078F184A8D1
:1008100098C4CDFCD80DDBA8FC2DF3D9BAA6F8DA24
:10082000BAA6DED8BAB2B68696A6D0F3C841DAA682
:10083000C8F8D8B0B4B882A892F52C548898F1358D
:10084000D9F418D8F1A2D0F8F9A884D9C7DFF8F8FC
:1008500083C5DADF69DF83C1D8F40114F1A8824EC1
:10086000A884F311D182F5D992289788F109F41C54
:100870001CD884A8F3C0F9D1D99782F129F40DD8F6
:10088000F3F9F9D1D982F4C203D8DEDF1AD8F1A284
:10089000FAF9A88498D9C7DFF8F8F883C7DADF69CE
:1008A000DFF883C3D8F40114F198A8822EA884F34A
:1008B00011D182F5D992509788F109F41CD884A8F7
:1008C000F3C0F8F9D1D99782F149F40DD8F3F9F9C9
:1008D000D1D982F4C403D8DEDFD8F1AD8898CCA892
:1008E00009F9D98292A8F57CF1883ACF944A6E989A
:1008F000DB6931DAADF2DEF9D88795A8F221D1DAD9
:10090000A5F9F417D9F1AE8ED0C0C3AE82C684C3A8
:10091000A88595C8A588F2C0F1F4010EF18E9EA8B5
:10092000C63E56F554F18872F40115F19845856E6E
:10093000F58E9E0488F142985A8E9E068869F401CD
:100940001CF1981E1108D0F504F11E97020298368A
:1009500025DBF9D985A5F3C1DA85A5F3DFD885951F
:10096000A8F309DAA5FAD88292A8F578F1881A8452
:100970009F26889821DAF41DF3D8879F39D1AFD903
:10098000DFDFFBF9F40CF3D8FAD0F8DAF9F9D0DFAD
:10099000D9F9D8F40BD8F3879F39D1AFD9DFDFF479
:1009A0001DF3D8FAFCA869F9F9AFD0DADEFAD9F864
:1009B0008F9FA8F1CCF398DB45D9AFDFD0F8D8F101
:1009C0008F9FA8CAF38809DAAF8FCBF8D8F2AD971A
:1009D0008D0CD9A5DFF9BAA6F3FAF412F2D8950D69
:1009E000D1D9BAA6F3FADAA5F2C1BAA6F3DFD8F1E3
:1009F000BAB2B68696A6D0CAF349DAA6CBF8D8B072
:100A0000B4B8D8AD84F2C0DFF18FCBC3A8B2B6863C
:100A100096C8C1CBC3F3B0B48898A821DB718D9D73
:100A200071859521D9ADF2FAD88597A828D9F4080F
:100A3000D8F28D29DAF405D9F285A4C2F2D8A88DAE
:100A40009401D1D9F411F2D88721D8F40AD8F284CC
:100A500098A8C801D1D9F411D8F3A4C8BBAFD0F27B
:100A6000DEF8F8F8F8F8F8F8F8D8F1B8F6B5B9B053
:100A70008A95A3DE3CA3D9F8D85CA3D9F8D87CA387
:100A8000D9F8D8F8F9D1A5D9DFDAFAD8B18530F795
:100A9000D9DED8F830ADDADED8F2B48C99A32D5572
:100AA0007DA083DFDFDFB591A0F629D9FBD8A0FCBC
:100AB00029D9FAD8A0D051D9F8D8FC51D9F9D87988
:100AC000D9FBD8A0D0FC79D9FAD8A1F9F9F9F9F96C
:100AD000A0DADFDFDFD8A1F8F8F8F8F8ACDEF8AD7F
:100AE000DE8393AC2C547CF1A8DFDFDFF69D2CDA9B
:100AF000A0DFD9FADB2DF8D8A850DAA0D0DED9D003
:100B0000F8F8F8DB55F8D8A878DAA0D0DFD9D0FA11
:100B1000F8F8F8F8DB7DF8D89CA88CF530DB38D9EC
:100B2000D0DEDFA0D0DEDFD8A848DB58D9DFD0DEAA
:100B3000A0DFD0DED8A868DB70D9DFDFA0DFDFD888
:100B4000F1A888902C547C98A8D05C38D1DAF2AE09
:100B50008CDFF9D8B087A8C1C1B188A8C6F9F9DA85
:100B600036D8A8F9DA36D8A8F9DA36D8A8F9DA36B4
:100B7000D8A8F9DA36D8F78D9DADF818DAF2AEDFDD
:100B8000D8F7ADFA30D9A4DEF9D8F2AEDEFAF9839F
:100B9000A7D9C3C5C7F1889BA77AADF7DEDFA4F854
:100BA000849408A797F300AEF29819A488C6A3947A
:100BB00088F632DFF28393DB09D9F2AADFD8D8AE08
:100BC000F8F9D1DAF3A4DEA7F1889B7AD8F38494FC
:100BD000AE19F9DAAAF1DFD8A881C0C3C5C7A392BC
:100BE00083F628ADDED9F8D8A350ADD9F8D8A378CC
:100BF000ADD9F8D8F8F9D1A1DADEC3C5C7D8A1813B
:100C000094F818F2B089ACC3C5C7F1D8B8B4B0979E
:100C100086A8319B069907AB9728889BF00C201477
:100C200040B0B4B8F0A88A9A285078B79BA8295148
:100C300079247059446938644831F1BBAB88002C81
:100C4000547CF0B38BB8A804285078F1B088B497DE
:100C500026A85998BBABB38B02264666B0B8F08A7B
:100C60009CA82951798B2951798A2470598B205855
:100C7000718A4469388B3940688A6448318B3049BD
:100C80006088F1AC002C547CF08CA804285078F1DA
:100C9000889726A85998AC8C02264666F0899CA8AD
:100CA000295179247059446938644831A988092048
:100CB0005970AB11384069A8193148608CA83C4183
:100CC0005C207C00F187981986A86E767EA99988A9
:100CD0002D557DD8B1B5B9A3DFDFDFAED0DFAAD007
:100CE000DEF2ABF8F9D9B087C4AAF1DFDFBBAFDF22
:100CF000DFB9D8B1F1A3978E60DFB084F2C8F8F9FC
:100D0000D9DED89385F14AB183A308B5839A081038
:100D1000B79F10D8F1B0BAAEB08AC2B2B68E9EF10B
:100D2000FBD9F41DD8F9D90CF1D8F8F8AD61D9AEDA
:100D3000FBD8F40CF1D8F8F8AD19D9AEFBDFD8F434
:100D400016F1D8F8AD8D61D9F4F4ACF59C9C8DDF2B
:100D50002BBAB6AEFAF8F40BD8F1AED0F8AD51DA42
:100D6000AEFAF8F1D8B9B1B6A3839C08B9B1839AA9
:100D7000B5AAC0FD3083B79F10B58B93F20202D1A4
:100D8000ABDADED8F1B080BAABC0C3B284C1C3D88D
:100D9000B1B9F38BA391B609B4D9ABDEB0879CB9D6
:100DA000A3DDF1B38B8B8B8B8BB087A3A3A3A3B2F3
:100DB0008BB69BF2A3A3A3A3A3A3A3A3A3A3F1B066
:100DC00087B59AA3F39BA3A3DCBAACDFB9A3A3A313
:100DD000A3A3A3A3A3A3A3A3A3A3A3A3A3D8D8D844
:100DE000BBB3B7F1AAF9DAFFD9809AAA28B48098E0
:100DF000A720B79787A86688F07951F1902C870CC7
:100E0000A781976293F0717160859401295179905F
:100E1000A5F1284C6C870C95188578A38390284CF5
:100E20006C886CD8F3A28200F210A8921980A2F20A
:100E3000D926D8F188A84DD948D896A83980D93C68
:100E4000D89580A839A68698D92CDA87A72CD8A857
:100E5000899519A980D938D8A88939A980DA3CD8C8
:100E6000A82EA83990D90CD8A8953198D90CD8A813
:100E700009D9FFD801DAFFD89539A9DA26FFD89029
:100E8000A80D8999A810809821DA2ED88999A831BF
:100E900080DA2ED8A886963180DA2ED8A8873180BD
:100EA000DA2ED8A88292F34180F1D92ED8A882F305
:100EB0001980F1D92ED882ACF3C0A28022F1A62EDF
:100EC000A72EA92298A829DAACDEFFD8A2F22AF12F
:100ED000A92E8292A8F23180A696F1D900AC8C9C02
:100EE0000C30ACDED0DEFFD88C9CACD010ACDE80F9
:100EF00092A2F24C82A8F1CAF235F19688A6D900E6
:100F0000D8F1FF0E0C0D0F08FFFF09050406070AB4
:100F10000B0F0C0D0E08FFFF09050406070A0B0F47
:100F20000C0D0E0908FFFF050406070A0B0011242B
:100F30001FBECFEFD1E2DEBFCDBF00E00CBF12E09D
:100F4000A0E0B2E0E8EEF9E500E00BBF02C00790D8
:100F50000D92A03CB107D9F725E0A0ECB2E001C0AA
:100F60001D92A33FB207E1F70E946B260C94F22C6E
:100F700047C8CF93DF93FC01DA0186E0EB01888359
:100F800085E0808315962C911597822F922F990FCB
:100F9000990B97FD079653E0959587955A95E1F73C
:100FA000828317962C911797822F922F990F990B66
:100FB00091958195910997FD079643E095958795C1
:100FC0004A95E1F783831B962C911B97822F922FD2
:100FD000990F990B97FD079633E0959587953A956C
:100FE000E1F7848319962C911997822F922F990FEC
:100FF000990B97FD079623E0959587952A95E1F73C
:10100000858311969C9111979295917081818E7F25
:10101000982B918311968C911197829582709D7F68
:10102000892B818311969C919695969596959870AB
:10103000877F892B8183DF91CF9108959F92AF9213
:10104000BF92CF92DF92EF92FF920F931F93CF93B5
:10105000DF9300D00F92CDB7DEB7FC014B835C83EA
:101060008CE1DB018C9384E080839090EC05B09060
:10107000F20589E2C82E82E0D82EFA83E98390E057
:1010800080E061E070E0A82ED6012D916D012F3F28
:1010900009F44DC0AB0102C0440F551F2A95E2F779
:1010A000AB81BC812D913C912423352341E0211556
:1010B000310509F440E08B010A2C02C0000F111F1A
:1010C0000A94E2F700951095E180F280E022F12287
:1010D00050E08A0102C0000F111FAA94E2F70E2906
:1010E0001F2912830183891510F5BBE1BB1215C0BE
:1010F000843098F49C0122543E4FD9012C918B01ED
:1011000002C0000F111F2A95E2F7AB81BC812D911F
:101110003C9120233123242B352B41E0232B09F450
:1011200040E0242F2195A981BA8118962C9301962D
:1011300029813A812F5F3F4F3A8329838E30910571
:1011400009F0A1CFAB81BC812C912F7088E02B30AE
:1011500028F430E029563D4FD9018C918383AB812F
:10116000BC811A962D913C91BBE1BB1216C0AB819C
:10117000BC8119968C9185958054868387EF91E088
:101180002F3F3F4711F484E891E0958B848B8DE7E6
:10119000878380E88483858363C04DE1B41619F0AA
:1011A00080E2B8121AC0AB81BC8119968C9180582C
:1011B0008683818192818F7D2F3F3F4709F460C0F4
:1011C00030E020E0822B932B92838183AB81BC8122
:1011D00012969C9180E8891B8783BFE1BB1619F0AA
:1011E0002AE1B212D6CF818192818F7EAB81BC8100
:1011F00012962C91233308F046C030E020E0822B79
:10120000932B928381838F7DAB81BC8113962C912C
:101210002333E0F530E020E0822B932B928381830F
:10122000AB81BC8112968C911297848713968C9116
:101230001397858715968C911597805884831796F8
:101240009C9117979058958319968C91199780586F
:1012500086831B968C9180588783BAE1BB16C9F0B0
:101260000F900F900F900F90DF91CF911F910F91E2
:10127000FF90EF90DF90CF90BF90AF909F90089538
:1012800020E230E09FCF20E130E0B9CF20E230E033
:10129000C3CF9095958380958783E2CF0F931F935B
:1012A000CF93DF9300D000D000D0CDB7DEB7E52FCD
:1012B000F0E0E559FD4F80818F3F81F021E030E083
:1012C00002C0220F331F8A95E2F78091C3029091EA
:1012D000C4022823392381E0232B09F480E02996D6
:1012E0000FB6F894DEBF0FBECDBFDF91CF911F9137
:1012F0000F9108950F931F93CF93DF93CDB7DEB770
:1013000061970FB6F894DEBF0FBECDBF09871A876D
:101310002B873C874D875E876F87788BE82F898B7B
:101320008F3F69F4EA85FB858081802391E009F491
:1013300090E081E02C859217B9F080E015C088E03C
:10134000E89FF0011124EE5CFB4F88E0DE0111966E
:1013500001900D928A95E1F74C815D8181E02E81AB
:101360003F812417350748F761960FB6F894DEBF22
:101370000FBECDBFDF91CF911F910F9108950F93B5
:101380001F93CF93DF9300D000D000D0CDB7DEB74E
:1013900080E029960FB6F894DEBF0FBECDBFDF9177
:1013A000CF911F910F910895CF93DF9300D00F92AB
:1013B000CDB7DEB72FB7F894809134039091350301
:1013C000A0913603B09137032FBF9C01AD0187E098
:1013D000220F331F441F551F8A95D1F7CA01B90147
:1013E0002DE730E040E050E00E94242CCA01B90112
:1013F0000F900F900F900F90DF91CF910895CF92A3
:10140000DF92EF92FF920F931F93CF93DF93EC0144
:101410006B01BA01A901F801C70120812630E0F46F
:10142000209771F000271127041B150B6017710717
:101430003CF431962E0D3F2D311DD9011396CC93DE
:10144000C114D10449F04617570734F42081820FA4
:10145000911DDC011396CC92DF91CF911F910F91DA
:10146000FF90EF90DF90CF9008958F929F92AF9270
:10147000BF92CF92DF92EF92FF920F931F93CF9381
:10148000DF930F92CDB7DEB76C014A0189E0DB0133
:101490008C9386E0F6018083E2EDF5E050E040E0D9
:1014A00080E061E070E091919923A1F0D401AD90CA
:1014B000BC909B01042E02C0220F331F0A94E2F756
:1014C0002A213B21232B31F0D601A80FB11D139601
:1014D0009C938F5F4F5F5F4F4031510509F05EC0B5
:1014E0008983A090D005B090D105F4014481558145
:1014F0006091E50570E08091E40576018E010F5F53
:101500001F4F950190E07BDFD40116964D915C91C1
:101510006091E70570E08091E605950190E06FDF4E
:10152000F401408551856091E90570E08091E805FE
:10153000950190E064DFD4011A964D915C91609121
:10154000EB0570E08091EA05950190E058DFA090EE
:10155000CE05B090CF05F401428150E06091E205E4
:1015600070E0950190E080E04ADFD40113964C9141
:1015700050E06091E30570E0950190E080E03FDF8E
:101580000F90DF91CF911F910F91FF90EF90DF901F
:10159000CF90BF90AF909F908F900895863009F0C4
:1015A00082CF9ECF7F928F929F92AF92BF92CF9227
:1015B000DF92EF92FF920F931F93CF93DF9300D0B0
:1015C00000D0CDB7DEB78D839E8369837A83DA013D
:1015D00087E0ED81FE818083A0908205B090830535
:1015E000D090EE054CE855E08EE193E09C838B8330
:1015F000BD016052710930E020E0F12CFA018191C7
:10160000AF01882309F441C000EBE02E813011F4D2
:1016100010E9E12E203108F070C0DD2009F45CC033
:10162000293008F459C0C901805D9C4FFC018081BC
:101630008695EB81FC819081981739F1FA01C3A45A
:101640009589EB81FC8180838F2C912CF4E0FF9EA7
:1016500080011124ED81FE810E0F1F1F7E2C7294DC
:10166000EFE07E22F8017182EC28E282938384010C
:101670000F5F1F4F000F111F000F111FED81FE8123
:101680000E0F1F1FF8018083F3942F5F3F4F8B8154
:101690009C8101969C838B836E5F7F4F2631310541
:1016A00009F0ACCFFF0CFF0CF394E981FA81F082D2
:1016B00026960FB6F894DEBF0FBECDBFDF91CF9157
:1016C0001F910F91FF90EF90DF90CF90BF90AF9060
:1016D0009F908F907F9008950D911C91119781E0BC
:1016E00090E0022E02C0880F991F0A94E2F780232F
:1016F0009123892BD1F480E09BCF233148F081E006
:10170000FB0100811181A016B10608F491CFF3CF3F
:10171000C9010E978A0F9B1FFC01908181E09A15E9
:101720001B0411F00CF084CFE6CF80E481CF8EBD96
:1017300000000DB407FEFDCF8EB50895EF920F9314
:10174000DC01CB0116961C921697642F70E0FB010A
:10175000E858FE4F3491FB01EE5CFE4F5491E32FAD
:10176000F0E0EE0FFF1FEE2019F1E85EFE4F6591ED
:101770007491805F9E4FFC0180815C9311966C9305
:10178000119712967C93129713960C9313971496B5
:101790004C93149715962C93159717968C9317972F
:1017A0008FEF18968C931897CD010F91EF900895B5
:1017B000E250FF4FDCCF90E0FC01EE5CFE4F249145
:1017C000FC01E858FE4FE491EE2389F0F0E0EE0FC3
:1017D000FF1FE85EFE4FA591B4918FB7F894611199
:1017E00007C09C91E22FE095E923EC938FBF089509
:1017F000EC91E22BFACF90E0FC01EE5CFE4F2491DD
:10180000FC01E858FE4FE491EE2359F0F0E0EE0FB2
:10181000FF1FE250FF4FA591B491EC91E22381E0CC
:1018200009F480E00895CF93DF93EC0180917E0569
:10183000E2DF91E089274FEF5FE7849F9001859F6A
:10184000300D11243B872A87DF91CF910895209195
:101850007B00982F987F277F922B90937B00877037
:10186000806480937C0080917A00806480937A0009
:1018700080917A0086FDFCCF80917800909179006C
:10188000089580917A0086FDFCCF81E0809301026B
:101890000895CF93DF9390E0FC01EE5CFE4F24911E
:1018A00088589E4FFC0184918823D1F090E0880FE6
:1018B000991FFC01EC51FF4FA591B491FC01E85E2A
:1018C000FE4FC591D491613071F49FB7F8948C911B
:1018D000209582238C938881282328839FBF789426
:1018E000DF91CF910895623051F49FB7F8943C9105
:1018F000822F809583238C93E8812E2BEECF8FB798
:10190000F894EC912E2B2C938FBFE9CFCF92DF92DE
:10191000EF92FF921F93CF93DF936B017C01142F03
:10192000D22F60E083E3B5DF62E082E3B2DF60E004
:1019300084E3AFDF61E085E33EDF60E085E3A9DFBC
:101940001111C8E0D111C460C11482E1D8068AE740
:10195000E806F104C8F5C11489E0D8068DE3E8066D
:10196000F104A0F580E8C81684E8D8068EE1E80600
:10197000F10470F580E4C81682E4D8068FE0E8062A
:10198000F10440F580E2C81681EAD80687E0E8064F
:10199000F10410F580E9C81680EDD80683E0E8066A
:1019A000F104E0F487E091E08927982F96959C2B2D
:1019B00090659CBD81708DBDDF91CF911F91FF908F
:1019C000EF90DF90CF90089580E0EDCF81E0EBCFF6
:1019D00082E0E9CF83E0E7CF84E0E5CF85E0E3CFA5
:1019E000EAE7F0E080818460808380818260808388
:1019F0008081816080838081806880830895682FE2
:101A000085E3D9CE982F8D30A9F0823098F080915F
:101A10006B05882321F02CEE290F223068F08EEC24
:101A2000890F843038F081E0983031F0923021F025
:101A300080E0089581E0089508950F931F93CF9358
:101A40008091F403882391F00EEA13E0C0E08C2F1C
:101A5000D9DF811103C061E08C2F1BDF8C2FCBDE1F
:101A6000F80181938F01CF5FC63489F71092AD03DF
:101A70001092F403CF911F910F910895CF93DF93AC
:101A8000EC01FB0180818052990B880F880F1C822A
:101A90008D8381818052990B880F880F1E828F83DE
:101AA00024813581209530958091F205833260F054
:101AB000838181FF09C08095807E928196959E7377
:101AC0009A3128F5923141F18581982F9695969516
:101AD000969561E096279170B92FB295BB0FB07EB5
:101AE000A0E0367D2A2B3B2B829586958770862732
:101AF0008170582F550F550F550F40E0242B352B73
:101B00003093C4022093C302DF91CF9108959E3198
:101B1000D9F680933803D8CF80933C03D5CFFC010E
:101B2000DB018C91880F880F805814828583119671
:101B30008C911197880F880F80581682878313968F
:101B40008C9113978F718E50990B97FD20C09187C0
:101B5000808720853185C901880F991F820F931FC7
:101B600080329105BCF4918780878085918540976C
:101B7000880F880F880F1086818714968D919C910D
:101B8000809590959093C4028093C3020895118626
:101B90001086DFCF8FE190E0E6CFFC01DB018C9176
:101BA0008058990B1482858312968C9112978058D5
:101BB000990B1682878311968C9111978058990BF7
:101BC0001086818713968C9113978058990B1286F3
:101BD000838714968C911497828315968C91159710
:101BE000838316968D919C91809590959093C402D5
:101BF0008093C3020895FC01DB018C918F738052A6
:101C0000990B9583848311968C9111978F738052D1
:101C1000990B978386838C9190E023E09595879527
:101C20002A95E1F78871992711962C91119730E048
:101C300045E0359527954A95E1F726703327822BA5
:101C4000932B12962C911297221F2227221F822B50
:101C500040979187808712968C9112978F7180514F
:101C6000990B9387828712968C9112978695869509
:101C7000887113969C911397929596959770892BDE
:101C8000828313968C9113978F71838314968D9111
:101C90009C91809590959093C4028093C30208957F
:101CA000DC01FB0190818181829586958670292FC8
:101CB0002695269526952871822B2281221F222780
:101CC000221F822B990F990F905814961C921497EB
:101CD00015969C9315979181990F990F9058169688
:101CE0001C92169717969C9317979481238190FFC7
:101CF0003AC030E0209530952F713327205E3F4F5A
:101D000019963C932E931897082E000C990B22815C
:101D100020FF30C02FE330E0281B390B1B963C938B
:101D20002E931A97828186958695887193819295D4
:101D300096959770892B12968C931297828190E0DA
:101D4000959587958F7013968C93848195819827AC
:101D500089279827809590958D7C93769093C402DF
:101D60008093C3020895922F9F7120E230E0291BD7
:101D70003109C6CF20E230E0CFCFCF93DF93FC0113
:101D8000EB018A8190E0982F882788279F706881CF
:101D9000862B958384838A8120E1829FC001112450
:101DA00088279F706981862B978386838B818383A5
:101DB0008D8181FB992790F9392F3295330F330F9D
:101DC000307C20E0982F9695969561E0962791704B
:101DD000B92FB295BB0FB07EA0E02A2B3B2B8170B0
:101DE000582F5295507F422F532B5093C40240934B
:101DF000C302DF91CF910895FC01DB018D919C918D
:101E000011979583848312968D919C911397978354
:101E1000868314968C9183830895FB018481958138
:101E2000982789279827809590959093C40280934E
:101E3000C302089580E0E3DD81EE79DC81E0DFCD4F
:101E400080E0DDDD82EE73DC81E0D9CD80E0D7DD9E
:101E500080E56DDC83E76BDC81E0D1CDCF9380E062
:101E6000CEDD8FEF64DCC82F81E0C9DD8C2FCF91F0
:101E700008950F931F93CF93DF93EC018C01060F0E
:101E8000111DC017D10729F4DF91CF911F910F9138
:101E9000089589914CDCF5CFCF93DF93D82FC62FCF
:101EA00080E0ADDD8D2F806242DC8C2F40DC81E054
:101EB000DF91CF91A4CDCF93DF9300D00F92CDB718
:101EC000DEB7DB019C010E94692C69837A838B83D6
:101ED0009C83DC01CB019F77AA27BB278115904407
:101EE000A105B105D1F080E090E4A0E0B0E0298147
:101EF0003A814B815C81820F931FA41FB51F2FE095
:101F0000B595A795979587952A95D1F70F900F903E
:101F10000F900F90DF91CF91089580E090E0DC0169
:101F2000E6CFF89488E198E00FB6F894A8958093EE
:101F300060000FBE90936000FFCF1F93CF93DF939D
:101F4000182FD62FC72F80E05ADD812F8062EFDB5C
:101F500064E08D2F9C2F8DDF81E0DF91CF911F9169
:101F60004ECD1F93CF93DF93182FEB0180E047DD19
:101F7000812FDDDB8881DBDB888381E0DF91CF91FE
:101F80001F913DCDCF93DF930F92CDB7DEB7BE014A
:101F90006F5F7F4FE6DF89810F90DF91CF910895CA
:101FA000FF920F931F93CF93DF93082FF92E60E4D6
:101FB00087E072DF80E023DD80E6B9DB80E0B7DB1D
:101FC000182F81E01CDD80E01ADD81E6B0DBC02F38
:101FD000DF2D8C2F801B811750F081E010DD812FC9
:101FE00090E0DF91CF911F910F91FF90089589911B
:101FF0009EDBFE0131978083ECCFFF920F931F93FE
:10200000CF93DF93D82FC92FF62E072F142F1092BE
:102010008C0324DF282F30E0359527952770332750
:10202000232BE1F48F2D902FBBDF60E487E034DFBA
:1020300001E060E387E030DF80E0E1DC80EA77DB2D
:10204000612F8D2F9C2F15DF81E0D9DC802F90E050
:10205000DF91CF911F910F91FF90089500E0E9CF9C
:1020600085ED8093BC008FEF9FE72091BC0024FD9D
:1020700003C010922F0402C00197B9F70895CF93BF
:10208000DF93DC01FA0184E1EB0188831C92119655
:102090008C93119712968CE001900D928A95E1F73E
:1020A000DF91CF910895CF93282FCB01C42F4FEF0D
:1020B0005FE7C13228F080E045C041505109D9F3B3
:1020C00030912F043111F9CF31E030932F04309348
:1020D0002E044FEF4093FA0210921C034C0F4093D2
:1020E0001B0330931D0330911D03220F232B2093DC
:1020F0001D0320912D04222381F110922D042091A3
:102100001D032093BB002FEF3FE74091BC0043FD30
:102110001BC025EC2093BC002FEF3FE740912F041C
:102120004130E9F020911C032C1710F4C0911C03DE
:102130004C2F50E06BEF72E00E94B12C81E0CC2379
:1021400009F4B9CFCF9108952150310909F4B3CFE3
:1021500040911D034093BB00D8CF25EEDBCF21502B
:102160003109E1F6A8CFCF93C82F8FEF9FE7413217
:1021700020F080E03FC00197E1F320912F0421116E
:10218000FACF82E080932F0481E080932E048FEFBA
:102190008093FA0210921C0340931B0350E08BEFD4
:1021A00092E00E94B12C10921D0380911D03CC0F70
:1021B000C82BC0931D0380912D04882329F1109210
:1021C0002D0480911D038093BB008FEF9FE720912A
:1021D000BC0023FD11C085EC8093BC008FEF9FE70E
:1021E00020912F04223091F09091FA0281E09F3FDC
:1021F00009F0BFCFCF910895019709F4BACF20918C
:102200001D032093BB00E3CF85EEE6CF019741F796
:10221000B0CFEF92FF920F931F93CF93DF930F9264
:10222000CDB7DEB7182F6983E42EF22E032F41E0DD
:10223000BE016F5F7F4F97DF882371F04E2D6F2DAA
:10224000702F812F30DF81700F90DF91CF911F9120
:102250000F91FF90EF90089580E0F5CFABE1B4E0EF
:102260001196ED91FC91129780819C91892B80832E
:10227000A2E1B4E01196ED91FC91129780819C91BE
:10228000892B8083A4E2B4E01196ED91FC91129722
:1022900080819C91892B808380E58A95F1F7089550
:1022A000CF92DF92EF92FF920F931F93CF93DF9322
:1022B0008C01EB016C017B01E40EF11CCE15DF05F6
:1022C00049F4DF91CF911F910F91FF90EF90DF9034
:1022D000CF9008958AE50115110589F0F6019081E6
:1022E000892F86958575990F9A7A892B982F9695BF
:1022F00096959373880F880F8C7C892B829517DABB
:10230000982F86958575990F9A7A892B982F96958F
:1023100096959373880F880F8C7C892B829589936F
:10232000F0E5FA95F1F78FEFC81AD80AC7CF0F93E7
:102330001F93CF93DF938C01C62FE0912504F0917A
:102340002604908180912404809589238083E091E4
:102350001304F091140490818091120480958923D4
:102360008083E0911C04F0911D04908180911B04F6
:1023700080958923808380E58A95F1F743E065ECB9
:1023800072E0C8018DDF8091C6028F3F49F4D0E032
:10239000C0E064DFCE01DF91CF911F910F910895CE
:1023A0009091C7029A3511F09111F1CF8F70D82F0B
:1023B000DD0FC33039F04DEF4C0F68EC72E0C8010F
:1023C00003966EDFDD5F4D2F4C1BDC1761F06C2F29
:1023D00070E0CB01840F911D8197CCF66B537D4F3C
:1023E00090E080E05DDFC5ECD2E0D3CFCF92DF920A
:1023F000EF92FF920F931F93CF93DF9300D000D003
:10240000CDB7DEB78D839E83062F0E94D4096B0162
:102410007C0110E0602F8D819E8189DFFC01892B7A
:1024200051F01F5F8D819E818359924059F58181C2
:10243000807F803F81F18FE39CE90197F1F700C035
:1024400000000E94D40969837A838B839C83DC011A
:10245000CB018C199D09AE09BF098B3F9105A105E0
:10246000B105C0F280E026960FB6F894DEBF0FBE2D
:10247000CDBFDF91CF911F910F91FF90EF90DF9033
:10248000CF9008958D819E818F58924031F4818143
:10249000807F803F81F281E0E6CF1330E0F7CBCF41
:1024A000CF93DF93EC0163E08CE892E040DFFC0126
:1024B000892B49F08181982F907F903F31F464E01F
:1024C0008FE892E093DF80E01FC023813481903554
:1024D000F1F488E0809302028181823179F489E00D
:1024E0008093020285818058990B1C828D834681DE
:1024F0008FE790E0841B91091E828F838181807D0C
:10250000803509F457C081E0DF91CF91089583327F
:1025100041F585E08093020285818058990B1C82E9
:102520008D83888199819F7B46814138B0F550E049
:1025300040E0842B952B998388839F77478141388E
:1025400078F550E040E0842B952B998388839E7F1B
:102550004085413F40F550E040E0842B952B998326
:1025600088838181807F803E09F0B6CF86E08093AA
:102570000202858190E09D838C839681858197FD01
:1025800015C087FD8FE790E09D838C838C819D81B2
:1025900080589F4F9D838C839FCF40E050E4C9CFEC
:1025A00040E050E8D0CF40E051E0D7CF813858F735
:1025B00081E8E9CF85818058990B18868987468103
:1025C0008FE790E0BC01641B71091A866B87478115
:1025D0004058550B1C824D834085841B91091E82F7
:1025E0008F838181893709F08ECF83898A8384899B
:1025F0008B8380910202843009F085CF818990E03D
:102600009987888720953095222731704FEF5FE7B3
:10261000249FC001259F900D349F900D11249B870E
:102620008A8771CF1F93CF93DF93182FD92F809173
:1026300002028A30A9F5C5E0812F9D2F31DF8FE995
:102640009FE00197F1F700C00000C150A9F7812F6A
:102650009D2F26DF882361F164E083E992E0C6DEE6
:10266000882381F163E08BE792E061DEFC01892B36
:1026700049F08381833021F18130F1F4818182340A
:1026800009F0C4E0C093020265E087E892E0AEDEA4
:1026900069E08EE792E0AADE64E08FE892E0A6DED1
:1026A000812F9D2FFDDE811103C08AE080930202FD
:1026B000DF91CF911F9108958C3021F7C3E0E2CFD5
:1026C000C2E0E0CF81E080930202EACFFF920F9355
:1026D0001F93CF93DF930F92CDB7DEB78983F62E8A
:1026E0008A0141E0BE016F5F7F4F82E53CDD8823B8
:1026F00051F08FEC92E00197F1F700C000004F2DF0
:10270000B80182E5D0DC0F90DF91CF911F910F913E
:10271000FF900895CF93DF9300D000D0CDB7DEB700
:10272000AE014F5F5F4F66E08AEFD0DFFE0131966A
:10273000AE01495F5F4F8FEF90E02191922B822392
:102740004E175F07D1F7992369F08F3F59F09981B0
:102750008E8126960FB6F894DEBF0FBECDBFDF91F7
:10276000CF9108958FEF9FEFF4CFFF920F931F93B8
:10277000CF93DF9300D000D000D00F92CDB7DEB75B
:102780006B837C838D839E832F83388749875A8709
:1027900081E080938C0360E088E07BD860E085E393
:1027A00078D820E040E060E074E284EF90E0AED8BA
:1027B00060E088E000D881E022D98FE19EE40197B3
:1027C000F1F700C0000061EF84E066DB62E083E0C7
:1027D00063DB8E010F5F1F4FB80186E0C2DB6981AA
:1027E000697F698386E058DB8DE1CCDBF82E2EDB38
:1027F0008DE1C8DB882331F0F81201C027DB60E0EF
:102800008DE14ADBBE016E5F7F4F86E0AADB6A8105
:10281000677D63606A8386E03FDBB80186E0A1DB09
:10282000B80180E09EDB69816C60698380E034DB05
:102830006CE485E031DB8DE1A5DB682F64608DE120
:102840002BDB8CE19FDB682F6F638CE125DB8DE157
:1028500099DB682F66608DE11FDB8CE193DB682FCD
:1028600063608CE119DB6FE381E016DB60E787E0F2
:1028700013DBE6DADFDA1982B80180E072DB8981E6
:102880008C78898360E088E00E94DB0B698162605C
:1028900080E002DB61E088E00E94DB0BBE016D5F3F
:1028A0007F4F8AE04ADBBE016D5F7F4F80E145DBF1
:1028B00060E088E00E94DB0BBE01695F7F4F8BE028
:1028C0003CDB63E082E0E8DA61E088E00E94DB0B59
:1028D00080916900826080936900EC9A2A960FB615
:1028E000F894DEBF0FBECDBFDF91CF911F910F9146
:1028F000FF900895CF93DF93CDB7DEB7C251D1409B
:102900000FB6F894DEBF0FBECDBF42E151E062EDDD
:1029100071E0CE0101960E94942C42E151E061E009
:1029200070E0CE0101960E94D12CCE5EDE4F0FB634
:10293000F894DEBF0FBECDBFDF91CF910895EF9227
:10294000FF920F931F93CF93DF930F920F92CDB708
:10295000DEB7082F142F732F8DB79EB79A83898304
:1029600050E0CA010196EDB7FEB7E81BF90B0FB6B0
:10297000F894FEBF0FBEEDBF8DB79EB701967C01E8
:102980006183622F01960E94B12C41E0410FB70193
:10299000802FE9DBE981FA810FB6F894FEBF0FBE04
:1029A000EDBF0F900F90DF91CF911F910F91FF908E
:1029B000EF900895EF92FF920F931F93CF93DF93C1
:1029C0000F92CDB7DEB780910C02811109C08FEF55
:1029D0000F90DF91CF911F910F91FF90EF9008958D
:1029E0001982A0910602B0910702E0910802F091CD
:1029F00009028E010F5F1F4F980141E051966C91C3
:102A000080819DDF7801882311F3A0910602B091A7
:102A10000702E0910802F0910902980141E0159641
:102A20006C9180818CDF882391F2A0910602B09195
:102A30000702E0910802F0910902980141E0149622
:102A40006C9180817CDF882309F4C1CFE09106027C
:102A5000F09107026481E0910802F09109028091EF
:102A60002302882309F457C08CE08983980141E050
:102A7000808165DF882309F4AACF2FEF80E792E0F9
:102A8000215080409040E1F700C0000080EC898335
:102A900080910C0280FF02C080EE8983A091060223
:102AA000B0910702E0910802F0910902970141E01C
:102AB00014966C91808143DF882309F488CF80913C
:102AC0001202882331F182E08983A0910602B0913D
:102AD0000702E0910802F0910902970141E0519646
:102AE0006C9180812CDF882309F471CF1982A09129
:102AF0000602B0910702E0910802F09109029701E5
:102B000041E015966C9180811ADF91E089278195CB
:102B10005FCF1982DACF84E08983980141E0808118
:102B20000EDF882309F453CF80911302811104C072
:102B300080910C0280FD3EC080E48983A091060252
:102B4000B0910702E0910802F0910902970141E07B
:102B500014966C918081F3DE882309F438CF2FEF2F
:102B600080E792E0215080409040E1F700C00000F3
:102B700080911202882301F181E08983A0910602ED
:102B8000B0910702E0910802F0910902970141E03B
:102B900051966C918081D3DE882309F418CFA091DF
:102BA0000602B0910702E0910802F091090221E1CA
:102BB00032E0A6CF80E6C1CF1982E0CFCF93DF937A
:102BC0000F92CDB7DEB79C0180910C02811105C038
:102BD0008FEF0F90DF91CF91089581E02C3B31056D
:102BE00088F482E02236310568F483E02A32310528
:102BF00048F484E02431310528F485E02A30310599
:102C000008F486E0898390910D0289819817A9F0D4
:102C1000A0910602B0910702E0910802F09109022A
:102C20009E012F5F3F4F41E012966C91808187DEBD
:102C3000882371F2898180930D0280E0CACFEF92E0
:102C4000FF920F931F93CF93DF930F920F92CDB705
:102C5000DEB7FC018B017A0180910C0281110AC060
:102C60008FEF0F900F90DF91CF911F910F91FF90F9
:102C7000EF9008959E2F8F2F9A838983A091080249
:102C8000B09109029B012E0F311D18968D919C91D8
:102C900019978217930720F3E0910602F09107023B
:102CA0009E012F5F3F4F42E0638D8C9148DE882369
:102CB000B9F2A0910602B0910702E0910802F091EA
:102CC00009029701402F58966C91808138DE91E07F
:102CD00089278195C6CFCF93DF930F92CDB7DEB70B
:102CE00080910C02811105C08FEF0F90DF91CF9181
:102CF000089588E1898380910A028330C1F0A09110
:102D00000602B0910702E0910802F09109029E01CB
:102D10002F5F3F4F41E016966C91808110DE882333
:102D200019F3898186958695869580930A0280E0BD
:102D3000DCCFCF93DF930F92CDB7DEB780910C023B
:102D4000811105C08FEF0F90DF91CF910895198207
:102D500080910B028823C1F0A0910602B091070276
:102D6000E0910802F09109029E012F5F3F4F41E080
:102D700017966C918081E3DD882321F38981869504
:102D80008695869580930B0280E0DDCF0F931F938D
:102D9000CF93DF930F92CDB7DEB7809113028823D4
:102DA00009F457C0A0910602B0910702E091080211
:102DB000F09109028E010F5F1F4F980141E01496B8
:102DC0006C91808126DA811107C08FEF0F90DF911F
:102DD000CF911F910F910895898190910C0290FFDE
:102DE0003AC080628983A0910602B0910702E09107
:102DF0000802F0910902980141E014966C918081DB
:102E00009EDD882311F38FED9EE20197F1F700C05C
:102E1000000080912102882301F180E8898380915C
:102E20002202882319F0898180638983A091060298
:102E3000B0910702E0910802F0910902980141E087
:102E400057966C9180817BDD882309F4BECF109268
:102E5000130280E0BBCF8F7DC5CF1982E0CFCF9327
:102E6000DF930F92CDB7DEB769839E012F5F3F4F8F
:102E700041E0682F82E563DD0F90DF91CF910895E7
:102E8000EF92FF920F931F93CF93DF93CDB7DEB7EF
:102E900068970FB6F894DEBF0FBECDBF7C0180915E
:102EA0000302909104028F3F980709F06EC032DC54
:102EB0009C0190930402809303022F3F3F4FB9F48B
:102EC00065E580EFCCDF85E38A95F1F7000060E0EF
:102ED0008BEFC5DF95E39A95F1F700001BDC90932B
:102EE00004028093030225E32A95F1F70000809104
:102EF00003029091040283319F4F71F461E08BEFE4
:102F0000AEDF85E38A95F1F7000065E580EFA7DF86
:102F100095E39A95F1F700008091030290910402E5
:102F20009E7F019709F0A5C063E08EEF98DF25E34F
:102F30002A95F1F70000AE01475F5F4F68E080E03F
:102F4000C5DB8FE193E00197F1F700C00000AE010F
:102F50004F5F5F4F68E080E0B9DB48E050E0BE01C2
:102F60006F5F7F4FCE0109960E94A42C892BD1F56B
:102F70008F859889892B09F073C08BEF9DE0909322
:102F8000C2028093C10286E072C08B30984109F47E
:102F90008ECF8E010F5E1F4FA8016091000280E06E
:102FA00095DBB801882389F0F80180910002A8011F
:102FB000480F511D8FEF90E04E175F0779F499236A
:102FC00009F475CF8F3F09F472CFE091C102F091FF
:102FD000C202309779F1C70119952CC02191922B2B
:102FE0008223EACF8FE193E00197F1F700C0A2CFEF
:102FF000419709F051C08DE09FE018C082312FEF5A
:10300000920759F158F4833021E0920719F1833087
:10301000934009F041C080E59EE008C083319F4F96
:10302000D9F58CEF9EE002C08FE89DE09093C2023C
:103030008093C10268960FB6F894DEBF0FBECDBF75
:10304000DF91CF911F910F91FF90EF90089589EC40
:1030500094E2ECCF8EE39DE0E9CF8DEB9EE0E6CFEE
:103060008DEC9DE09093C2028093C10288E0809332
:1030700000028091030290910402813021E09207C6
:10308000C9F208F0BBCF8330910571F208F0B0CFE0
:103090000097E9F2019771F28BE098E190930402B6
:1030A000809303021092C2021092C102C3CF1F93F9
:1030B000CF93DF930F92CDB7DEB7182F8091220206
:1030C000811729F1112341F180E389838091130253
:1030D000882319F089818260898380912102882365
:1030E00019F0898180688983A0910602B091070256
:1030F000E0910802F09109029E012F5F3F4F41E0ED
:1031000057966C9180811BDC8111109322020F90E5
:10311000DF91CF911F9108951982D8CFEF92FF923E
:103120001F93CF93DF930F92CDB7DEB7182F807721
:1031300019F081E0898303C01123F1F01982A09175
:103140000602B0910702E0910802F0910902CE0157
:1031500001967C019C0141E055966C918081EFDBEA
:10316000970181110BC010920C020F90DF91CF914B
:103170001F91FF90EF90089580E4DCCF89818F7BD1
:1031800080930E0216FF32C0198215FD03C089819B
:103190008260898314FD03C089818160898313FD66
:1031A00003C0898188638983A0910602B0910702D8
:1031B000E0910802F091090241E056966C918081FD
:1031C000BEDB882381F2812F877F11F080E06FDFE3
:1031D00010930C02109215029FEF20E782E09150AD
:1031E00020408040E1F700C00000BFCF84E0898329
:1031F000CCCFCF93DF930F92CDB7DEB79091230260
:103200009923E9F0882339F182E08983A0910602AD
:10321000B0910702E0910802F09109029E012F5F30
:103220003F4F41E051966C91808189DB882319F0F2
:103230008981809312020F90DF91CF910895909130
:103240000C029923C1F3882331F08091120281117D
:10325000F2CF81E0DACF1982D9CF1F93CF93DF93DA
:10326000D82F80912302C0E081111FC080910C02F1
:103270008823B9F0109111028D2380931102C1E0CF
:103280008D1301C0C0E0C195809115028D2B59F0BE
:1032900081E0AFDFDD2349F08DDB882331F010932F
:1032A0001102CFEF02C080E0A4DF8C2FDF91CF911D
:1032B0001F9108951F93CF93DF930F920F92CDB775
:1032C000DEB7182F81111EC080E0F1DE198287E081
:1032D0008A83A0910602B0910702E0910802F09162
:1032E00009029E012F5F3F4F42E055966C9180810D
:1032F00026DB8111109215020F900F90DF91CF9174
:103300001F91089581E0D3DE80E28983113041F579
:103310001A8285E090E052DC8A8120E4829FC0011D
:10332000112487608A83A0910602B0910702E09180
:103330000802F09109029E012F5F3F4F42E055962F
:103340006C918081FCDA8823B9F288E080930C02CA
:1033500010920E0281E08093150280E07EDFCCCFD8
:10336000163018F481E08A83D4CF153128F482E036
:103370008A838AE090E0CFCF83E08A8384E190E083
:10338000CACF0F931F93CF93DF930F92CDB7DEB7C2
:103390008C0180910C02811107C08FEF0F90DF919B
:1033A000CF911F910F910895809123028111F5CF44
:1033B00080911502882351F0C8010197889720F465
:1033C000802F78DF80E0EACF80E074DFB801093E2B
:1033D000134010F068EE73E06430710510F464E09F
:1033E00070E008EE13E0C8010E94FD2B6150698374
:1033F000A0910602B0910702E0910802F091090243
:103400009E012F5F3F4F41E011966C91808197DACA
:10341000882309F4C2CF698170E06F5F7F4FC801D4
:103420000E94112C7093100260930F02CB019695AD
:103430008795C4DBC7CF7F928F929F92AF92BF9246
:10344000CF92DF92EF92FF920F931F93CF93DF9370
:10345000CDB7DEB7C653D2400FB6F894DEBF0FBE6D
:10346000CDBF42E151E061E070E0CE0101960E94E3
:10347000C12C8D859E85AF85B8890897A105B105BA
:1034800040F442E151E060E070E0CE0101960E941C
:10349000C12C89859A85AB85BC858531944DA24A1E
:1034A000B105B1F042E151E062ED71E0CE0101966B
:1034B0000E94942C1D861E861F86188A42E450E0C6
:1034C00066E772E0CE018B559F4F0E94942C08C096
:1034D0008D859E85AF85B8890297A105B10570F3EA
:1034E0008A81873009F040C08FE08A838D859E8570
:1034F000AF85B8890497A105B10548F448E550E0C7
:103500006EE172E0CE01835B9F4F0E94942C8D850B
:103510009E85AF85B88986309105A105B10548F52E
:103520001C82C951DF4F1882C75ED040EA81F0E0AB
:10353000EC51FD4FE491E23021F48AA591E0892716
:103540008AA742E050E062EE72E0CE018F5E9E4FAD
:103550000E94942C44E250E06EEB72E0CE01835165
:103560009F4F0E94942C13C0883009F0BFCF8DE08C
:10357000BCCF86309105A105B10599F2893091053E
:10358000A105B10598F20D97A105B105D0F28D8581
:103590009E85AF85B8890E97A105B105E8F488A985
:1035A000843030F4823008F450C481E088AB04C029
:1035B0008450823008F418AA8EE090E0A0E0B0E0D9
:1035C0008D879E87AF87B88B42E151E061E070E064
:1035D000CE0101960E94D12C82E191E0FE0131964C
:1035E000DE01AD5EBE4F01900D920197E1F7C7502D
:1035F000DE4F1882C95FD140CC5EDE4F8881C45156
:10360000D1408093F2058093F105CA5EDE4F988128
:10361000C651D1409093F005CD5EDE4F9881C351E5
:10362000D1409093EF05E82FF0E0EC51FD4F9491DD
:1036300021E0913009F020E02093EE05E49121E0B3
:10364000E23009F020E02093ED05E23009F0FFC3FD
:10365000843140F487E08093F105913019F488E0DB
:103660008093F10585B5826085BD85B5816085BD96
:1036700080916E00816080936E00C85EDE4F88810D
:10368000C851D14080938B05C75EDE4F8881C951F8
:10369000D14080938A050E94F00CCD5EDE4F888178
:1036A000C351D140823009F4D9C3833009F4D9C35E
:1036B000813099F4C65EDE4F8881CA51D140809333
:1036C000110480E497E190938905809388058EE446
:1036D00099E09093870580938605CD5EDE4F8881C3
:1036E000C351D140833009F0F5C3CB5EDE4F8881F2
:1036F000C551D1408130C9F410922F0481E08093EC
:103700002E0410922D04589A599A8091B9008E7FF8
:103710008093B9008091B9008D7F8093B9008AE0D1
:103720008093B80085E48093BC00CB5EDE4F988127
:10373000C551D14081E0913041F0CD5EDE4F28810E
:10374000C351D140213009F080E0817080936B0536
:1037500090936A0584E2FE01E150FE4FA6E4B5E0D5
:1037600001900D928A95E1F710924505109244055B
:103770000E94410C1092B3041092B20410923104D2
:1037800010923004CE018D5E9E4F5C016C0100E012
:1037900045E0942E7E01B4E0EB0EF11CF701292DDB
:1037A00011922A95E9F70983D60190968C90109191
:1037B000ED05BFEF8B1669F1053049F4112339F09F
:1037C000CB5EDE4F8881C551D140833011F5F601C3
:1037D00071A061E0882D0E94490C7B828AEC880DE3
:1037E0008A83A091B204B091B304CD010196909365
:1037F000B3048093B20433E0AA0FBB1F3A95E1F7FC
:10380000AE5CBB4F88E0FE01319601900D928A9527
:10381000E1F70F5FF2E0CF0ED11C063009F0BECF0A
:10382000C250DE4F8881CE5FD1408F3F19F060E0FB
:103830000E94490CD12CC12C29E0F22E88248394BB
:10384000CD5EDE4F9880C351D14022E0921273C307
:10385000D50150964C914F3F09F495C081E0BCE0F2
:10386000CB16D10438F496012850310922303105A5
:1038700008F080E0E82FE1707E2E80FF08C001E0B4
:10388000C95EDE4F8881C751D140813009F000E028
:103890000170E12C2C2DBE016D5E7E4FCE01019694
:1038A0000E949E0BE88409858091EE05882309F427
:1038B00029C3772009F426C3D50150967C90B5E33F
:1038C000B71508F01FC3CF5BDE4F8881C154D140CC
:1038D000E8E08E9FC0011124C95DDD4F1882198276
:1038E0001A82C752D240CB5DDD4F7882C552D2409A
:1038F000C45DDD4F8882CC52D240C65DDD4F9983D6
:103900008883CA52D24061E0872D0E94490CA09161
:10391000B204B091B3040A2F8AEC870DCA5DDD4F63
:103920008883C652D240CD0101969093B304809310
:10393000B20493E0AA0FBB1F9A95E1F7AE5CBB4FB0
:1039400088E0FE01EB5DFD4F01900D928A95E1F755
:1039500080914405909145059C012F5F3F4F309326
:10396000450520934405E8860987F89ED001F99E15
:10397000B00D1124AC54BB4FFE0131968F2D019038
:103980000D928A95E1F7FFEFCF1ADF0A2FEFA21A07
:10399000B20A80E1C816D10409F052CF112309F40C
:1039A0001AC2CB5EDE4F1881C551D140113009F0EB
:1039B000EAC2CE5BDE4F8881C254D140809381053C
:1039C000789480E88983A0910602B0910702E09183
:1039D0000802F09109029E012F5F3F4F41E055968A
:1039E0006C9180810E949F14882309F463C09FEF2B
:1039F000A9E6B8E19150A040B040E1F700C0000056
:103A00001982A0910602B0910702E0910802F0919C
:103A100009029E012F5F3F4F41E055966C918081D6
:103A20000E949F14882309F445C0109214028FEF5E
:103A300080930C0280930A0280930B0280930D0204
:103A40002FEF3FEF3093100220930F02809311026B
:103A50008093130210930E021093210210922202FF
:103A60001092160210921502E7E1F2E08AE0DF01FF
:103A70001D928A95E9F71092230210922402109267
:103A800026021092250227D9811114C052D9811122
:103A900011C08AE290E092D881110CC082E390E0DC
:103AA00070DC811107C0D9DB811104C06FD981118D
:103AB00001C034DB88E732DB0ED93BD988E7CDDBA8
:103AC00080912402811198C0D12CC12C86EFE82E60
:103AD0008BE0F82E87010C191D090131110510F03A
:103AE00000E110E0F601E35FFC4FDE011196CD012D
:103AF000800F911F8A179B0709F041C2AE014F5FEB
:103B00005F4FB801C6019BD8811176C080910C022D
:103B1000882309F471C09C2D8D2DCB5CDD4F9983DA
:103B20008883C553D240E0910802F09109022085B4
:103B30003185C8018C0D911D2817390708F45CC028
:103B4000A0910602B09107029E012B5C3D4F42E01E
:103B50005B966C9180810E949F14882309F44CC06D
:103B6000A0910602B0910702E0910802F0910902CB
:103B70009E012B5D3D4F402F58966C9180810E9495
:103B800009118823C9F1A801BE016B5D7D4FCE01EB
:103B900001960E94A42C892B79F5C00ED11EB6EF98
:103BA000CB16BBE0DB0608F495CF84E0CB5CDD4FA1
:103BB0008883C553D240CA5CDD4F1882C653D240B9
:103BC000A0910602B0910702E0910802F09109026B
:103BD0009E012B5C3D4F42E05D966C9180810E947E
:103BE0009F14882349F081E08093240288EC90E0C0
:103BF00090932602809325028CE0E8EAF2E0DE0151
:103C0000119601900D928A95E1F7CB5DDD4F1882F8
:103C1000C552D24085E0CA5DDD4F8883C652D2408E
:103C2000AE014B5D5D4F62E070E086E192E007D847
:103C3000811111C0AE014F5F5F4F6CE070E081EC0D
:103C40009AE00E941F16811106C08EE190E09093C9
:103C500075058093740580912302813009F180916C
:103C600024028823E9F080E0C4DA90D8809125020C
:103C70009091260286DB1982E0910802F0910902F8
:103C80009E012F5F3F4F41E063E280810E949F14BD
:103C9000882331F081E080932302ABDA0E94DA14AA
:103CA00082E089838AEC8A8383EE8B8319E01C830C
:103CB000AE014F5F5F4F64E070E088E690E00E94E5
:103CC0001F1683EA89838A838B838C838D838E83FB
:103CD0008F83888789878A87AE014F5F5F4F6AE04D
:103CE00070E087EA9AE00E941F1688ED8983AE0192
:103CF0004F5F5F4F61E070E086EB9AE00E941F1615
:103D0000E5EBF2E0DE01AB5DBD4F01900D921A953F
:103D1000E1F7AE014B5D5D4F69E070E088EB94E048
:103D20000E941F1644E050E06BE870E0CE018B5D0E
:103D30009D4F0E94BA2CAE014B5D5D4F64E070E078
:103D400088E99AE00E941F160E94DA1480E2CB5D97
:103D5000DD4F8883C552D24088E2CA5DDD4F88833B
:103D6000C652D24080E3C95DDD4F8883C752D2403E
:103D700088E3C85DDD4F8883C852D240AE014B5DF9
:103D80005D4F64E070E08EE99AE00E941F160E9489
:103D9000DA1488E190E090937305809372050E9495
:103DA000DA1480E1809376058EE191E290938005AC
:103DB00080937F0586E0FE01E35EFD4FA8E7B5E056
:103DC00001900D928A95E1F7C25CDE4F8881CE5357
:103DD000D14080937705C05CDE4F2881C054D1402C
:103DE0001092840520938505C15CDE4F9881CF53E6
:103DF000D140492F50E05093830540938205809134
:103E0000F205823261F008F4CEC082E4FE01E9548A
:103E1000FE4FACE8B5E001900D928A95E1F77894F9
:103E2000CA5CDD4F0FB6F894DEBF0FBECDBFDF9189
:103E3000CF911F910F91FF90EF90DF90CF90BF90A7
:103E4000AF909F908F907F90089582E0AFCB91309C
:103E500009F008CC843108F402CC04CC8AE799E05C
:103E600038CC21E041E060EA76E881E090E00E9411
:103E7000860CEE24E39400E020E04AE0BE016D5E93
:103E80007E4F84E294E00E949E0B20E043E3BE015B
:103E90006D5E7E4F8BE194E00E949E0B20E044E338
:103EA000BE016D5E7E4F82E194E00E949E0B60E059
:103EB0008AE00E94490C0E942E118FEB99E09093AA
:103EC00087058093860582E193E19093890580932D
:103ED000880503CCC95EDE4F8881C751D14082304E
:103EE00041F421E041E060E072E18AE790E00E9465
:103EF000860CCD5EDE4F8881C351D140813009F000
:103F0000F4CBFACB8C81882311F099249394692DFA
:103F1000D50150968C910E94490C112309F418CDBB
:103F2000B2E0CB16D10408F013CDCC5DDD4FE880B4
:103F3000C452D2400DCDE12C00E02C2D40E0BE015A
:103F40006D5E7E4FCE0101960E949E0B2885112347
:103F500049F0E2E0CE16D10428F4CC5DDD4F288193
:103F6000C452D2408091440590914505AC014F5F09
:103F70005F4F50934505409344052887F6CC249124
:103F80002D933196B7CD123009F014CFC35CDE4FBC
:103F90008881CD53D14080937E0562E00E94490C18
:103FA00083E19CE003CF843108F439CF3CEE380F35
:103FB0003630A8F48AE1E3E1F1E0EC0FFD1FF29660
:103FC000A2EDB5E001900D928A95E1F71092D0052F
:103FD0002093D1051092CE059093CF0520CF80324B
:103FE00058F046E050E062EA72E087E392E00E9417
:103FF000942C86E08093EC058091F2058A3139F4A7
:104000008DE080932A028CE080932B0208CF982FBA
:104010009D7F4EE050E06FE17FE09C3179F04EE013
:1040200050E061E17FE08B3149F08D3119F0803251
:1040300009F0F5CE4EE050E063E07FE089E292E0E7
:104040000E94942CECCECF93DF9300D00F92CDB78B
:10405000DEB720E030E040E057E469837A838B8369
:104060009C8369817A818B819C810E94632B698307
:104070007A838B839C8369817A818B819C810E9466
:10408000002BCB010F900F900F900F90DF91CF91ED
:1040900008958F929F92AF92BF92CF92DF92EF924C
:1040A000FF920F931F93CF93DF9300D000D00F9216
:1040B0000F92CDB7DEB78C016F8378872F8138855B
:1040C0002817390771F480E090E2121613060CF4F9
:1040D00071C090E080E0232B09F46CC080E090EA8E
:1040E00069C0990F880B982F809590959801282783
:1040F0003927A901481B590B5E834D838F81988511
:10410000990F880B982F809590952F8138852827B7
:104110003927B901681B790B7A83698364EE77EFDD
:1041200081EB9DE390DFD82EC92E69EF7DE78CEA05
:104130009EE389DF7C018F8198859C01990F440B58
:10414000550B4801012E000CAA08BB08A981BA81B1
:104150006D817E81A617B7070CF03FC0D501C40161
:104160006FE0880F991FAA1FBB1F6A95D1F789833B
:104170009A83AB83BC83BC01CD010E94462C4901CC
:10418000C901990F880B982F80959095BC016227E3
:104190007925681B790B8D2D9C2D0E945B0FB40136
:1041A0008E0D9F1D0E945B0FAF81B8851A161B06EE
:1041B0000CF0905828960FB6F894DEBF0FBECDBF16
:1041C000DF91CF911F910F91FF90EF90DF90CF90F3
:1041D000BF90AF909F908F900895CA01B9012FE0D2
:1041E000660F771F881F991F2A95D1F769837A83F5
:1041F0008B839C83A50194010E94462C4901C9012F
:10420000990F880B982F80959095BC01682579258A
:10421000681B790B8D2D9C2D0E945B0FB4018E0DB8
:104220009F1D0E945B0F9C0180E090E41016110618
:1042300014F080E090EC821B930BBCCF8F929F9286
:10424000AF92BF92CF92DF92EF92FF920F931F93A4
:10425000CF93DF93CDB7DEB7EA970FB6F894DEBF02
:104260000FBECDBF89AF9AAF1092E9021092E8025B
:10427000D0907605ED2CF12C80912302882311F14A
:1042800080910C028823F1F0A0910602B091070200
:10429000E0910802F09109029E012F5D3F4F42E03C
:1042A0001C966C9180810E940911882359F009A104
:1042B0001AA11027012710270E151F0508F08FC01F
:1042C0001092E7028091E8029091E90281159140F5
:1042D00009F0E5C2C090EA02D090EB02E090EC0257
:1042E000F090ED0277E1F594E794D794C7947A952E
:1042F000D1F7D092EB02C092EA028090EE02909049
:10430000EF02A090F002B090F102E7E1B594A7941B
:1043100097948794EA95D1F79092ED028092EC02FF
:104320004091F2025091F3026091F4027091F50213
:10433000F7E17595679557954795FA95D1F750939D
:10434000EF024093EE020091F6021091F7022091E5
:10435000F8023091F902A7E1359527951795079551
:10436000AA95D1F71093F1020093F0028091810594
:10437000009FF001019FF00DF00D1124813009F430
:10438000D7C1823009F4DFC2811165C2449FC001E8
:10439000459F900D900D11248E0F9F1F880F991F20
:1043A000E0E0F0E8E81BF90B489DD001499DB00D15
:1043B000589DB00D11240C9DC0010D9D900D1C9DAC
:1043C000900D11249D01281B390BC901BF01880FD5
:1043D000991F5FDE9093E6028093E5023CC2E09174
:1043E0000802F09109028181928196958795801744
:1043F0009107B0F4A0910602B09107029E012F5DD3
:104400003F4F41E053966C9180810E9409118823AF
:1044100009F458CF89A184FF03C00E94DA1452CF57
:10442000A0910602B0910702E0910802F091090202
:104430009E012F5F3F4F4D2D1D966C9180810E94F4
:104440000911882309F43ECFC801B7010E94FD2B52
:1044500061506093E702E0917205F0917305CF011E
:1044600084719927892B09F461C129813A814B8193
:104470005C81CA01B9010E94622C4B015C018092EF
:10448000EA029092EB02A092EC02B092ED028D81D2
:104490009E81AF81B885BC01CD010E94622C6B0169
:1044A0007C01C092EE02D092EF02E092F002F09214
:1044B000F10229853A854B855C85CA01B9010E94C4
:1044C000622C8B019C010093F2021093F302209363
:1044D000F4023093F5028D859E85AF85B889BC01C5
:1044E000CD010E94622CAB01BC014093F6025093B7
:1044F000F7026093F8027093F902C501BB2797FD9C
:10450000B095AB2F8BA39CA3ADA3BEA3C701BB27C4
:1045100097FDB095AB2F8FA398A7A9A7BAA7C901FC
:10452000BB2797FDB095AB2F8BA79CA7ADA7BEA7C8
:10453000CB01BB2797FDB095AB2F8FA798ABA9AB4D
:10454000BAAB2BA13CA14DA15EA1CA01B9010E9449
:10455000EE2B6BA37CA38DA39EA32FA138A549A509
:104560005AA5CA01B9010E94EE2B6FA378A789A7AB
:104570009AA7CBA0DCA0EDA0FEA0C60ED71EE81E19
:10458000F91E2BA53CA54DA55EA5CA01B9010E9447
:10459000EE2BC60ED71EE81EF91E2FA538A949A975
:1045A0005AA9CA01B9010E94EE2B6BA37CA38DA36B
:1045B0009EA3C60ED71EE81EF91E9FE0F91AA1E0C1
:1045C000CA16D104E104A2E0FA0638F00E94DA1417
:1045D0001092E9021092E80275CE8091E802909163
:1045E000E90291609093E9028093E80280E1E6FF9E
:1045F0004DC0A1E0B0E0AC0FBD1FA80FB11D9C9154
:1046000021E0280FA1E0B0E0AC0FBD1FA20FB11D4B
:104610002C91392F309301002093000092E0980FE5
:10462000A1E0B0E0AC0FBD1FA90FB11D9C9123E02C
:10463000280FA1E0B0E0AC0FBD1FA20FB11D2C915F
:10464000392F309303002093020094E0980FA1E0EB
:10465000B0E0AC0FBD1FA90FB11D9C9125E0280F44
:10466000A1E0B0E0AC0FBD1FA20FB11D2C91392FFE
:1046700030930500209304008A5F2091E802309176
:10468000E90228603093E9022093E802E078F170B3
:10469000EF2B09F417CEE1E0F0E0EC0FFD1FE80F7F
:1046A000F11D908121E0280FE1E0F0E0EC0FFD1F0B
:1046B000E20FF11D2081392F30930100209300007B
:1046C00092E0980FE1E0F0E0EC0FFD1FE90FF11D23
:1046D000908123E0280FE1E0F0E0EC0FFD1FE20FF6
:1046E000F11D2081392F309303002093020094E0C4
:1046F000980FE1E0F0E0EC0FFD1FE90FF11D908154
:104700008B5FE1E0F0E0EC0FFD1FE80FF11D808111
:1047100090930500809304008091E8029091E90253
:1047200080679093E9028093E802CCCD80E05FCF70
:10473000089DC001099D900D189D900D11244C9D60
:1047400090014D9D300D5C9D300D11247C01E21ACD
:10475000F30AB701C7010E945B0F8C01BC010E94E4
:104760005B0F5C01BC010E945B0F6C0160E670EBAB
:1047700089E39DE368DCB8010E945B0F8BA39CA3D7
:104780006AE27EEE87E39CE35EDC8FA398A76EEF80
:104790007AEB87ED9CE357DCB8010E945B0F8BA797
:1047A0009CA766EA79EB88EA9CE34DDC8FA798AB7F
:1047B00062E377E88AEF9CE346DCB8010E945B0F76
:1047C0008BAB9CAB63E87EEC86E39DE33CDC8DAB7E
:1047D0009EAB6AEC79E989E99DE335DCB8010E947A
:1047E0005B0F8FAB98AF6AEA7AEA8AE29EE32BDC32
:1047F0004C01B5018BA19CA14FA158A5841B950B21
:104800000E945B0F2BA53CA5AFA5B8A92A0F3B1FA3
:10481000B601820F931F0E945B0F6C01B5018BA93B
:104820009CA9EDA9FEA98E0F9F1F0E945B0F8C0D06
:104830009D1D2FA938AD820E931EB801880D991DBC
:104840000E945B0FB7010E945B0FE80EF91EF09209
:10485000E602E092E5028091E5029091E6028A3953
:1048600039E193070CF48EC089E999E19093E6024F
:104870008093E5022091E5023091E60245E0429FF7
:10488000C001439F900D112420917705222319F038
:104890009195819591099093E6028093E50220918C
:1048A000E5023091E60230934B0320934A03032E36
:1048B000000C440B550B80917A0590917B05092ED5
:1048C000000CAA0BBB0B281B390B4A0B5B0BA091EE
:1048D0007805B09179050E948E2C20E034E040E00C
:1048E00050E0D4D7DA01C9019058A109B109811566
:1048F00050E895075FEFA507B50724F480E090E83E
:10490000AFEFBFEF8115E0E89E07A105B10524F0E8
:104910008FEF9FE7A0E0B0E0E9ADFAAD9387828723
:10492000EA960FB6F894DEBF0FBECDBFDF91CF91F0
:104930001F910F91FF90EF90DF90CF90BF90AF90BD
:104940009F908F900895CC9CC001CD9C900D900DB0
:1049500011248E0F9F1F880F991FE0E0F0E8E81BDD
:10496000F90B8C9CD0018D9CB00D9C9CB00D11243A
:10497000049FC001059F900D149F900D11248A0F74
:104980009B1F24CD8736964E0CF074CF87E696EEAB
:104990006DCF8F929F92AF92BF92CF92DF92EF92A4
:1049A000FF920F931F93CF93DF938C01EB018881CC
:1049B0008058990BF8011482858389818058990B5E
:1049C0001682878380911104882309F43EC02D81CB
:1049D000822F90E0CB80F4E0CF9E60011124AC01E7
:1049E00034E0559547953A95E1F743705527C42A29
:1049F000D52A3FEFC31A31E0D30AEC80E4E0EE9E03
:104A000070011124959587959595879583709927C1
:104A1000E82AF92AFFEFEF1AF1E0FF0A8A8134E071
:104A2000839FC00111242295269526952370822B01
:104A3000B7018F5F91402DDBF80191878087B70127
:104A4000C60127DBF801938782878D81982F909587
:104A50009170B92EB29490EFB922A12C869591E075
:104A600089278170982E9294990C990C20EC9222AF
:104A7000812CA828B928B092C402A092C302DF9169
:104A8000CF911F910F91FF90EF90DF90CF90BF904B
:104A9000AF909F908F9008951F920F920FB60F9234
:104AA00011240BB60F922F933F934F935F936F9305
:104AB0007F938F939F93AF93BF93EF93FF93CF9386
:104AC000DF9300D00F92CDB7DEB783B78E7F83BF61
:104AD000E4E6F0E0808180718083E5E6F0E08081AB
:104AE000807C80830E94F00CE4E0FBE72591359107
:104AF00045915491E0E0FBE785919591A591B491A2
:104B000089839A83AB83BC83BC01CD010E94B5131A
:104B1000E9E6F0E08081877F8083E9980F900F902D
:104B20000F900F90DF91CF91FF91EF91BF91AF91D7
:104B30009F918F917F916F915F914F913F912F91B5
:104B40000F900BBE0F900FBE0F901F9018951F92E5
:104B50001FB61F9211248F939F93AF93BF938091A1
:104B6000340390913503A0913603B0913703019639
:104B7000A11DB11D8093340390933503A093360398
:104B8000B0933703BF91AF919F918F911F901FBE3C
:104B90001F9018951F920F920FB60F9211240BB60B
:104BA0000F922F933F934F935F936F937F938F93C6
:104BB0009F93AF93BF93EF93FF938091B900887F4A
:104BC000883309F463C0C8F58032A1F178F58830E4
:104BD00009F454C0B0F4882309F474C0FF91EF9134
:104BE000BF91AF919F918F917F916F915F914F9105
:104BF0003F912F910F900BBE0F900FBE0F901F9003
:104C000018958031D9F1883149F790911C03809132
:104C10001B03981750F5E0911C0381E08E0F8093E1
:104C20001C03F0E0E550FD4F80812AC0883269F313
:104C30008033A1F68093FA0207C0803579F138F409
:104C40008034C1F1883451F60E943010C7CF8835C6
:104C500029F6E0911C0381E08E0F80931C03809164
:104C6000BB00F0E0E550FD4F808380912E04811160
:104C7000EBCF81E080932D0484EA0BC080911D036B
:104C80008093BB0085EC8093BC00A8CF8093FA0290
:104C900085EC8093BC0010922F04A0CFE0911C0300
:104CA00081E08E0F80931C038091BB00F0E0E55003
:104CB000FD4F808390911C0380911B03981710F384
:104CC00085E8E1CF1092FA02BFCF8F9381E0809305
:104CD0008C038F911895CDB7DEB7CC54D1090FB6A0
:104CE000F894DEBF0FBECDBF0E941B1AE4E0FBE7C5
:104CF0002591359145915491E0E0FBE7859195919F
:104D0000A591B491BC01CD010E94B5130E94D409B4
:104D100022966FAF229723967FAF239724968FAF6B
:104D2000249725969FAF25972D961CAE1DAE1EAEDF
:104D30001FAE2D970E94D40929966CAF7DAF8EAF20
:104D40009FAF2997DC01CB0125962CAD3DAD4EAD33
:104D50005FAD2597821B930BA40BB50B813C97424B
:104D6000A940B10508F43DC00E94D40922966FAF56
:104D7000229723967FAF239724968FAF249725966B
:104D80009FAF259710927A0060E088E00E94DB0BCD
:104D90001982BE016F5F7F4F80E00E94B10F698171
:104DA0006D7F698380E00E944C0F809164008F6E5C
:104DB00080936400809165008F638093650083B762
:104DC000817F846083BFF89482E08CBB809169000E
:104DD000886080936900E99A83B7816083BF789483
:104DE00088950E94D40929966CAF7DAF8EAF9FAF96
:104DF000299780910D0490910E04A0910F04B09119
:104E0000100429964CAD5DAD6EAD7FAD2997481B62
:104E1000590B6A0B7B0B8091F00590E0B0E0A0E0AD
:104E200084179507A607B70708F084CFE091880597
:104E3000F0918905309719F081E094E019958091FF
:104E4000AD03882309F4E3C00DE813E0F12C8F2DA6
:104E50000E94270CD8012D913D918D01821B930B4F
:104E600097FF03C09195819591090B970CF4CAC0E7
:104E700086E38F0D809305021092AD03B12C89E07B
:104E8000A82ECC24C394D12C2B2D30E08091440546
:104E900090914505281739070CF4FEC180918B05C8
:104EA000882309F440C06091050470910604809144
:104EB00084059091850544275527481B590B641795
:104EC00075074CF420910104309102042460309362
:104ED000020420930104861797074CF420910104E3
:104EE0003091020428603093020420930104609101
:104EF000070470910804641775074CF420910104AD
:104F0000309102042260309302042093010486173A
:104F100097074CF480910104909102048160909372
:104F200002048093010480918A05882381F0809196
:104F30000104909102049C01207333272033310532
:104F400031F48F7C946090930204809301048091EB
:104F5000ED05882349F0E0917F05F09180053097B9
:104F600019F081E094E019954CE050E065EF73E0B2
:104F700081E094E0E9D4892B09F4F4C10E94D409BA
:104F800060930D0470930E0480930F0490931004AB
:104F90004CE0BE016F5D7F4F81E094E00E94FD0F09
:104FA000892B09F002C28CE0E1E0F4E0A5EFB3E068
:104FB00001900D928A95E1F7C0900104D09002040F
:104FC000F12CE12C2D962CAD3DAD4EAD5FAD2D9766
:104FD000C216D306E406F50671F00E94D4092296A3
:104FE0006FAF229723967FAF239724968FAF249796
:104FF00025969FAF25972D96CCAEDDAEEEAEFFAEDB
:105000002D9798CEF394B0E1FB1221CF37CF80914A
:10501000F4038823E9F010E000E0802F0E94020DE5
:10502000811110C0802F0E94FB0BF801E255FC4F4C
:105030009081891739F00E941D0D0093050210928E
:10504000F4031CCF0F5F1F4F0634110531F716CF45
:105050006091B2047091B3046115710509F45AC0EE
:1050600080910102811130C080917A0086FD52C08A
:105070008091780090917900209130043091310432
:10508000A901F3E0440F551FFA95E1F7FA01EE5C30
:10509000FB4FA781A11109C0E281E11164C09250C8
:1050A000E6E0880F991FEA95E1F74E5C5B4FFA0145
:1050B000948383832F5F3F4F6217730709F45AC0AD
:1050C000309331042093300410920102E0913004B7
:1050D000F091310453E0EE0FFF1F5A95E1F7EE5CBB
:1050E000FB4F88E0DE01119601900D928A95E1F761
:1050F00090917B008A818870977F892B80937B00B9
:105100008A818770806480937C0080917A008064BB
:1051100080937A0010E046E0D42EE12F012E000C9F
:10512000FF0B8091B2049091B304E817F9070CF0DB
:10513000A5CE33E0EE0FFF1F3A95E1F7EE5CFB4F93
:1051400088E0DE01119601900D928A95E1F788853D
:105150008823A9F08C819D81E981F0E0E05DFC4F1E
:1051600080831F5FDACFE0E0F2E0DF01A81BB90B1C
:10517000CD0196CF1092310410923004A5CF153096
:1051800041F48091ED05882321F080916A058230F9
:1051900041F30981E02EF12C8C819D814701880C1F
:1051A000991CF401E05CFC4F91838083DE9CF0014C
:1051B000DF9CF00D1124EA5BFA4FA480B5802C81AE
:1051C0003D81032E000C440B550B82819381092EE7
:1051D000000CAA0BBB0B281B390B4A0B5B0BA081E5
:1051E000B1819CD329966CAF7DAF8EAF9FAF2997CD
:1051F00020E034E040E050E049D3DA01C9019058A2
:10520000A109B1098115F0E89F07FFEFAF07BF07BC
:1052100024F480E090E8AFEFBFEF811520E892071B
:10522000A105B10524F08FEF9FE7A0E0B0E0A50154
:105230000B2C000C660B770B023030F02091ED0543
:10524000222371F0043061F484179507A607B7078D
:1052500004F10230C0F4F701EF5FFB4F928381CF7E
:1052600084179507A607B70774F4B194A194B10801
:10527000A501BB0C660B770B481759076A077B071C
:1052800014F480E090E0F401EF5FFB4F91838083A2
:1052900068CF80E090E8DDCFA29EC001A39E900D74
:1052A00011248C549B4FFC01DE0111962A2D019094
:1052B0000D922A95E1F7DC0115969C9015971696AC
:1052C0000C91169717961C910E94D40929966CAFE1
:1052D0007DAF8EAF9FAF2997AB01BC01401B510939
:1052E00061097109812F90E0B0E0A0E08417950773
:1052F000A607B707A8F5E0918605F0918705098113
:105300001A812B813C814D815E816F8178858985F1
:1053100019958601092C02C0000F111F0A94E2F7AB
:10532000E82EF12C809101049091020480239123B6
:10533000E816F906A9F00E94D4090095109580910D
:105340000104909102040823192302C0EE0CFF1CF3
:105350009A94E2F7E02AF12AF0920204E092010422
:10536000B39492CD0E94D40929966CAF7DAF8EAFD5
:105370009FAF299780910D0490910E04A0910F0486
:10538000B091100429962CAD3DAD4EAD5FAD29977F
:10539000281B390B4A0B5B0BDA01C90185369105D5
:1053A000A105B10508F0EACDC5CC89A19AA1992340
:1053B00009F4AEC098E090934C038E3310F18E53F5
:1053C000990B22E3289FB001299F700D112402E15F
:1053D00011E0061B170B0233110514F002E310E075
:1053E000A80155276F5F7F4F8DE493E0CAD241E05B
:1053F000400FBE016F5F7F4F8CE493E00E94FD0F72
:10540000D2CD823319F0873309F047C06AEC71E0DE
:1054100082E593E092D280E094E2A4EFB0E0809342
:105420004D0390934E03A0934F03B093500387E630
:1054300095E4A3E2B1E0F0E0E0E011E21093570060
:105440002491822728E030E0AC01BD01417055274E
:1054500066277727B695A79597958795452B462B71
:10546000472B41F040E2842743E8942748EBA427E8
:105470004DEEB4272150310939F73196E032F1056C
:10548000E9F68093610390936203A0936303B09362
:1054900064031092510349E1ACCF8C3359F48CE092
:1054A000E0E4F3E0ADE4B3E001900D928A95E1F71A
:1054B0004DE09FCF853399F44091EF05413041F4A1
:1054C0008091030280934D0310924E0343E091CFED
:1054D0004330E1F78091020280934D038ACF8633F7
:1054E00041F48091050280934D030E941D0D42E01E
:1054F00080CF48E050E062EC71E08DE493E014D29C
:105500008091F2058F3110F41092500349E071CF71
:105510008D3369F46BA15CE1659FB00111246F5F6D
:105520007F4F4DE150E0CE0184963BD23CCD83339A
:10553000E9F168F4803349F0813309F034CD87E72D
:1055400097E790930108809300080E94910F84339D
:1055500031F08A3309F027CD0E947A1424CD80914E
:10556000AD03811120CD8FEF809305020E94410C85
:105570000DE813E086E3F82E62E08F2D0E94490CBF
:105580008FE891E00197F1F700C000008AEC8F0DE1
:105590000E94270CD8018D939D938D01F394B6E45E
:1055A000FB12EACF81E08093AD03FDCC8091F40340
:1055B0008111F9CC8FEF809305020E94410C10E01D
:1055C00000E0802F0E94020D811111C062E0802F47
:1055D0000E94490CEFE8F1E03197F1F700C00000BC
:1055E000802F0E94FB0BF801E255FC4F80830F5F78
:1055F0001F4F0634110529F781E08093F403D3CCC3
:1056000041D0A8F19E57A8F1985160F039F1983037
:1056100070F5092E9927660F771F881F991F0A9426
:10562000D1F71CC0BB27993F4CF4B111B1E0B62BA8
:10563000672F782F8827985FB1F708C086957795F0
:105640006795B79508F4B1609395C1F7BB0F30F437
:1056500011F460FF03C06F5F7F4F8F4F3EF4909552
:105660008095709561957F4F8F4F9F4F08956894F7
:1056700024C022C057FD9058440F551F59F05F3F7A
:1056800071F04795880F97FB991F61F09F3F79F064
:1056900087950895121613061406551FF2CF4695E6
:1056A000F1DF08C0161617061806991FF1CF869568
:1056B0007105610508940895E894BB27662777274C
:1056C000CB0197F908950BD078C069D028F06ED03F
:1056D00018F0952309F05AC05FC01124EECFCADF3D
:1056E000A0F3959FD1F3950F50E0551F629FF001F5
:1056F000729FBB27F00DB11D639FAA27F00DB11D4E
:10570000AA1F649F6627B00DA11D661F829F2227D6
:10571000B00DA11D621F739FB00DA11D621F839F5D
:10572000A00D611D221F749F3327A00D611D231F33
:10573000849F600D211D822F762F6A2F11249F5781
:1057400050408AF0E1F088234AF0EE0FFF1FBB1FA4
:10575000661F771F881F91505040A9F79E3F510543
:1057600070F014C0AACF5F3FECF3983EDCF386954F
:1057700077956795B795F795E7959F5FC1F7FE2BEE
:10578000880F911D9695879597F9089597F99F67CA
:1057900080E870E060E008959FEF80EC08950024B9
:1057A0000A941616170618060906089500240A9486
:1057B00012161306140605060895092E0394000C0C
:1057C00011F4882352F0BB0F40F4BF2B11F460FF9B
:1057D00004C06F5F7F4F8F4F9F4F0895DB018F9302
:1057E0009F9392D0BF91AF91A29F800D911DA39FD7
:1057F000900DB29F900D11240895AA1BBB1B51E17F
:1058000007C0AA1FBB1FA617B70710F0A61BB70B30
:10581000881F991F5A95A9F780959095BC01CD01D5
:10582000089597FB072E16F4009406D077FD08D054
:10583000E4DF07FC05D03EF4909581959F4F0895D5
:10584000709561957F4F0895A1E21A2EAA1BBB1B8C
:10585000FD010DC0AA1FBB1FEE1FFF1FA217B3073C
:10586000E407F50720F0A21BB30BE40BF50B661F52
:10587000771F881F991F1A9469F760957095809516
:1058800090959B01AC01BD01CF010895052E97FBBA
:1058900016F400940FD057FD05D0D6DF07FC02D0D8
:1058A00046F408C050954095309521953F4F4F4F95
:1058B0005F4F089590958095709561957F4F8F4FBC
:1058C0009F4F089569279627692778278727782784
:1058D000089505D0332312F48A1B9B0B10C0A29F9E
:1058E000B001B39FC001A39F700D811D1124911DB4
:1058F000B29F700D811D1124911D0895F0DFB7FF37
:105900000895821B930B0895EADFA59F900DB49F25
:10591000900DA49F800D911D11240895B7FFF4CF21
:10592000F3DF821B930B0895FB01DC0102C005909D
:105930000D9241505040D8F70895FB01DC010590CD
:105940000D920020E1F70895FB01DC0104C08D9168
:105950000190801921F441505040C8F7881B990BE1
:105960000895FB01DC0102C001900D9241505040AE
:10597000D8F70895DC0101C06D9341505040E0F725
:105980000895DC01CB01FC01F999FECF06C0F2BD00
:10599000E1BDF89A319600B40D9241505040B8F7ED
:1059A0000895DC01A40FB51F4150504040F0CB01D9
:1059B000840F951F2E9105D041505040D8F708957F
:1059C000262FF999FECF92BD81BDF89A019700B4B8
:1059D000021639F01FBA20BD0FB6F894FA9AF99A58
:0859E0000FBE0895F894FFCFFB
:1059E80006010A0B18FF4D024302000000000000E8
:1059F800000000000000000000000000000000009F
:105A08000000000000000000000F0C0D0EFFFF0852
:105A180009050406070A0B00030102FFFF08090F26
:105A28000D0C0E680004765401F7FD000175191A73
:105A38000C6A231B1C00001F207274433B41383939
:105A48003A006B6C376F06246D6E70080609070202
:105A580004FFFF0F0A03FF0C0E0D0B014500014F59
:105A680000FFFF03000000014400010001420001A3
:105A78004300000143000108000408060705080266
:105A88000103020103000E0DFEF2ABC4AAF1DFDF31
:105A9800BBAFDFDF00B8AAAAAAB088C3C5C7000099
:087B0000EFBEADDEEFBEADDE0D
:00000001FF
