:020000040000FA
:1000000014EF00F0FFFFFFFFFACFF3F578EF06F0F3
:10001000FFFFFFFFFFFFFFFFD8CFD8F5E0CF10F0C5
:10002000FACFD7F5F0EF06F000EE4FF011EEABF09F
:10003000EE6AE550E150FCE1E250FAE1116A106A23
:100040000F6A05EE8EF02E0EEE6AE806FDE100EE78
:100050004FF01E0EF66E0A0EF76E10EEA8F00900B5
:10006000F5CFEEFFE550E150FAE1E25002E02FEF6C
:1000700000F096EF0CF0FFFFFFFFFFFFFFFFFFFF19
:10008000FFFFFFFFFFFFFFFFFFFFFFFFFFFFFFFF80
:10009000FFFFFFFFFFFFFFFFFFFFFFFFFFFFFFFF70
:1000A000FFFFFFFFFFFFFFFFFFFFFFFFFFFFFFFF60
:1000B000FFFFFFFFFFFFFFFFFFFFFFFFFFFFFFFF50
:1006000001050708090A0B0C0D0D0E0F0F10101134
:100610001212131314141515151616171718181887
:100620001919191A1A1B1B1B1C1C1C1D1D1D1E1E13
:100630001E1F1F1F1F2020202121212122222223B3
:10064000232323242424242525252626262627275C
:1006500027272828282828292929292A2A2A2A2B0D
:100660002B2B2B2B2C2C2C2C2D2D2D2D2D2E2E2EC3
:100670002E2E2F2F2F2F2F3030303030313131317F
:10068000313232323232333333333334343434343C
:1006900034353535353536363636363637373737FD
:1006A000373738383838383939393939393A3A3AC0
:1006B0003A3A3A3B3B3B3B3B3B3B3C3C3C3C3C3C87
:1006C0003D3D3D3D3D3D3E3E3E3E3E3E3E3F3F3F4D
:1006D0003F3F3F4040404040404041414141414117
:1006E00042424242424242434343434343434444DF
:1006F00044444444444545454545454545464646AC
:100700004646464647474747474747484848484878
:10071000484848494949494949494A4A4A4A4A4A46
:100720004A4A4B4B4B4B4B4B4B4B4C4C4C4C4C4C15
:100730004C4C4D4D4D4D4D4D4D4D4E4E4E4E4E4EE5
:100740004E4E4F4F4F4F4F4F4F4F505050505050B5
:100750005050515151515151515151525252525286
:100760005252525353535353535353535454545458
:10077000545454545455555555555555555656562B
:1007800056565656565657575757575757575758FE
:1007900058585858585858585859595959595959D2
:1007A00059595A5A5A5A5A5A5A5A5A5B5B5B5B5BA6
:1007B0005B5B5B5B5B5C5C5C5C5C5C5C5C5C5D5D7C
:1007C0005D5D5D5D5D5D5D5D5E5E5E5E5E5E5E5E51
:1007D0005E5E5F5F5F5F5F5F5F5F5F5F6060606027
:1007E00060606060606061616161616161616161FF
:1007F00062626262626262626262636363636363D3
:1008000063636363646464646464646464646465AB
:100810006565656565656565656666666666666681
:10082000666666666767676767676767676767685B
:100830006868686868686868686869696969696932
:1008400069696969696A6A6A6A6A6A6A6A6A6A6A0D
:100850006B6B6B6B6B6B6B6B6B6B6B6C6C6C6C6CE3
:100860006C6C6C6C6C6C6D6D6D6D6D6D6D6D6D6DBE
:100870006D6D6E6E6E6E6E6E6E6E6E6E6E6F6F6F97
:100880006F6F6F6F6F6F6F6F6F7070707070707071
:10089000707070707071717171717171717171714D
:1008A0007172727272727272727272727273737326
:1008B0007373737373737373737474747474747401
:1008C00074747474747575757575757575757575DD
:1008D00075767676767676767676767676767777B7
:1008E0007777777777777777777778787878787892
:1008F000787878787878787979797979797979796F
:10090000797979797A7A7A7A7A7A7A7A7A7A7A7A4B
:100910007A7A7A7A7A7A7A7A7A7A7A7A7A7A7A7A37
:100920007A7A7A7A7A7A7A7A7A7A7A7A7A7A7A7A27
:100930007A7A7A7A7A7A7A7A7A7A7A7A7A7A7A7A17
:100940007A7A7A7A7A7A7A7A7A7A7A7A7A7A7A7A07
:100950007A7A7A7A7A7A7A7A7A7A7A7A7A7A7A7AF7
:100960007A7A7A7A7A7A7A7A7A7A7A7A7A7A7A7AE7
:100970007A7A7A7A7A7A7A7A7A7A7A7A7A7A7A7AD7
:100980007A7A7A7A7A7A7A7A7A7A7A7A7A7A7A7AC7
:100990007A7A7A7A7A7A7A7A7A7A7A7A7A7A7A7AB7
:1009A0007A7A7A7A7A7A7A7A7A7A7A7A7A7A7A7AA7
:1009B0007A7A7A7A7A7A7A7A7A7A7A7A7A7A7A7A97
:1009C0007A7A7A7A7A7A7A7A7A7A7A7A7A7A7A7A87
:1009D0007A7A7A7A7A7A7A7A7A7A7A7A7A7A7A7A77
:1009E0007A7A7A7A7A7A7A7A7A7A7A7A7A7A7A7A67
:1009F0007A7A7A7A7A7A7A7A7A7A7A7A7A7A7A7A57
:100A000026302D312E246401293109050D210F0FC7
:100A10000F19191464323232323232320578000042
:100A200000000000000000000000000000000000C6
:100A300000000000000000000000000000000000B6
:100A400000000000000000000000000000000000A6
:100A50000000000000000000000000000000000096
:100A60000000000000000000000000000000000086
:100A70000000000000000000000000000000000076
:100A80000000000000000000000000000000000066
:100A90000000000000000000000000000000000056
:100AA0000000000000000000000000000000000046
:100AB0000000000000000000000000000000000036
:100AC0000000000000009EB6A3EC0BF09EACD9D055
:100AD000A5C5E8FF180D4F0EF324E8CF14F1000E62
:100AE000F420E8CF15F114C1E9FF15C1EAFFC3CF27
:100AF000EEFFC4CFEDFF14C1E9FF15C1EAFF01010C
:100B000010EE02F01451E1261551E222E652EE52A7
:100B1000ED50E55C02E1EF50E75C4EE214C1E9FF05
:100B200015C1EAFF10EE04F01451E1261551E2223E
:100B3000E652EE52ED50E55C02E1EF50E75C3CE23C
:100B4000010100EE14F01451E9261551EA22EF508C
:100B500033E100EE13F01451E9261551EA22EF506B
:100B60002BE114C1E9FF15C1EAFF10EE02F01451A8
:100B7000E1261551E222EECFE6FFEDCFE5FF10EEC4
:100B800008F01451E1261551E22200EE07F014514D
:100B9000E9261551EA22E7CFEFFF00EE0FF01451DE
:100BA000E9261551EA221EC1EEFF1FC1EEFF20C14A
:100BB000EEFF21C1EEFF50D0010100EE07F014510D
:100BC000E9261551EA22EF5047E014C1E9FF15C1AB
:100BD000EAFFEECF00F0EDCF01F000EE17F0145178
:100BE000E9261551EA22EF50026E02C0F6FFF76ABD
:100BF0000150F75C02E10050F65C2EE2010110EEBC
:100C000002F01451E1261551E22200EE0DF01451CC
:100C1000E9261551EA22E6CFEEFFE5CFEDFF10EE13
:100C200007F01451E1261551E22200EE06F01451AE
:100C3000E9261551EA22E7CFEFFF00EE07F0145145
:100C4000E9261551EA22EF6A00EE13F01451E92665
:100C50001551EA22010EEF6E01011E2B000E1F231B
:100C6000202321230501A52B060EA56505D0A56B24
:100C7000010EE8CF90F503D0010EE8CFA1F59E9CC0
:100C80000400D9C5F3FFDAC5F4FFDBC5F5FFDCC509
:100C9000F6FFDDC5F7FFDEC500F0DFC501F0E0C5FA
:100CA00002F0E1C503F0E2C504F0E3C505F0E4C5D8
:100CB00006F0E5C507F0E6C508F0E7C509F0E8C5A8
:100CC0000AF0E9C50BF0EAC50CF0EBC50DF0ECC578
:100CD0000EF0EDC5DAFFEEC5D9FFEFC5E2FFF0C5B6
:100CE000E1FFF1C5EAFFF2C5E9FFF3C5FAFF110024
:100CF000E9CFF2F5EACFF1F5E1CFF0F5E2CFEFF58C
:100D0000D9CFEEF5DACFEDF50EC0ECF50DC0EBF571
:100D10000CC0EAF50BC0E9F50AC0E8F509C0E7F533
:100D200008C0E6F507C0E5F506C0E4F505C0E3F543
:100D300004C0E2F503C0E1F502C0E0F501C0DFF553
:100D400000C0DEF5F7CFDDF5F6CFDCF5F5CFDBF54E
:100D5000F4CFDAF5F3CFD9F5B6D69EAA04D0D3EC0A
:100D60000AF09E9AFAD7BCC5F3FFBDC5F4FFBEC515
:100D7000F5FFBFC5F6FFC0C5F7FFC1C500F0C2C58E
:100D800001F0C3C502F0C4C503F0C5C504F0C6C573
:100D900005F0C7C506F0C8C507F0C9C508F0CAC543
:100DA00009F0CBC50AF0CCC50BF0CDC50CF0CEC513
:100DB0000DF0CFC50EF0D0C5DAFFD1C5D9FFD2C531
:100DC000E2FFD3C5E1FFD4C5EAFFD5C5E9FFD6C52B
:100DD000E8FFD7C5FAFF10C0E0FFD8C5D8FF100064
:100DE000E8CFD6F5E9CFD5F5EACFD4F5E1CFD3F505
:100DF000E2CFD2F5D9CFD1F5DACFD0F50EC0CFF50D
:100E00000DC0CEF50CC0CDF50BC0CCF50AC0CBF5AE
:100E100009C0CAF508C0C9F507C0C8F506C0C7F5BE
:100E200005C0C6F504C0C5F503C0C4F502C0C3F5CE
:100E300001C0C2F500C0C1F5F7CFC0F5F6CFBFF5D0
:100E4000F5CFBEF5F4CFBDF5F3CFBCF586D78284E0
:100E5000828A818680889268929893689396F18EB0
:100E6000949C9494949A94869488948E010EC26E65
:100E7000C16A9E0EC06E9F8C130E7E6E1D0E7F6E1D
:100E800094820F0EBA6E9F0ECB6E500EBB6E9E926A
:100E9000CA80CA82CA849492AC6A900EAB6EB86A59
:100EA000B06A1F0EAF6E9F989F9A9D8AAC8AAB8ED8
:100EB000D08E1A0EC86EC688C690C682C684C696E4
:100EC000C78E9F86C68A9E969D861A0C050E0001C7
:100ED000F86FF96B77EC12F05A0A48E1060E000140
:100EE000F86FF96B77EC12F0A50A40E10A0E0001E9
:100EF000F86FF96B77EC12F0E8CF8EF50B0E00016E
:100F0000F86FF96B77EC12F0E8CF8FF50001F76B13
:100F10000001100EF725F86FF96B000EF92377EC3E
:100F200012F0006E0001F751180D660EF324E96E01
:100F3000000EF420EA6E00C0EFFF200EF725F86FD8
:100F4000F96B000EF92377EC12F0006E0001F751F7
:100F5000180D570EF324E96E000EF420EA6E00C05F
:100F6000EFFFF72B060EF765D3D7010C000C050E2B
:100F70000001FD6FFE6B5A0EFF6F4AEC12F0060E79
:100F80000001FD6FFE6BA50EFF6F4AEC12F00A0E1A
:100F90000001FD6FFE6B8EC5FFF04AEC12F00B0EE8
:100FA0000001FD6FFE6B8FC5FFF04AEC12F00001EF
:100FB000FC6B0001100EFC25FD6FFE6B000EFE2386
:100FC000FC51180D660EF324E96E000EF420EA6E53
:100FD000EF50FF6F4AEC12F00001200EFC25FD6F70
:100FE000FE6B000EFE23FC51180D570EF324E96E24
:100FF000000EF420EA6EEF50FF6F4AEC12F0000191
:10100000FC2B060EFC65D5D7060CF6C0E8FF0001E8
:10101000FA6FFB6BFFD0AAC5E8FF770AD8A41200CD
:10102000F29EA5DFF28E770E0001FC6FFD6F990E28
:10103000FCD9770E0001FC6FFD6F99D1AAC57EF037
:10104000AAC596F00CD0AAC5AEF00CD0AAC5DEF0A9
:101050001AD1AAC57EF017D1AAC596F014D1AAC597
:1010600066F011D1AAC5C6F00ED1AAC5AEF00BD15B
:10107000AAC500F0D8900036D8900034E8CF6FF0C1
:10108000AAC500F0D8900036D8900034E8CF87F099
:10109000AAC500F0D8900036D8900034E8CF57F0B9
:1010A000AAC5E8FF040DF80EF324E8CF70F0FF0E98
:1010B000F420E8CF71F0AAC5E8FF040DF80EF32480
:1010C000E8CF88F0FF0EF420E8CF89F060D0AAC501
:1010D00000F0D8900036D8900034E8CF9FF0AAC531
:1010E00000F0D8900036D8900034E8CFB7F0AAC509
:1010F000E8FF040DF80EF324E8CFA0F0FF0EF42073
:10110000E8CFA1F058D0AAC500F0D8900036D8900A
:101110000034E8CFCFF0AAC5E8FF040DF80EF324A1
:10112000E8CFD0F0FF0EF420E8CFD1F0ACD0AAC5C4
:1011300000F0D8900036D8900034E8CF6FF0AAC500
:10114000E8FF040DF80EF324E8CF70F0FF0EF42052
:10115000E8CF71F098D0AAC500F0D8900036D890AA
:101160000034E8CF87F0AAC5E8FF040DF80EF32499
:10117000E8CF88F0FF0EF420E8CF89F084D0AAC52C
:1011800000F0D8900036D8900034E8CF57F0AAC5C8
:10119000E8FF040DF80EF324E8CF58F0FF0EF4201A
:1011A000E8CF59F070D0AAC500F0D8900036D8909A
:1011B0000034E8CFB7F0AAC5E8FF040DF80EF32419
:1011C000E8CFB8F0FF0EF420E8CFB9F05CD0AAC5A4
:1011D00000F0D8900036D8900034E8CF9FF0AAC530
:1011E000E8FF040DF80EF324E8CFA0F0FF0EF42082
:1011F000E8CFA1F048D0AAC58EF545D0AAC500F029
:10120000D8900036D8900034E8CF8FF53CD0AAC5EE
:1012100099F539D0A9C5E8FF5A0AF9E0380A01E181
:101220000DD7010A01E10FD7070A01E10FD7010A23
:10123000E2E0030A01E10DD7010A01E10DD70F0A2F
:1012400001E10DD7010A01E10DD7030A01E10DD734
:10125000010A01E10DD7070A01E139D7010A01E1CD
:1012600052D7030ACBE0010A01E161D71F0A01E16D
:1012700072D7010A84E0030A96E0010AA8E0040A92
:1012800001E1C9D612000501A76B5FD0A7C5E8FF31
:10129000180D4F0EF324E8CF1AF1000EF420E8CF1A
:1012A0001BF1010100EE14F01A51E9261B51EA224C
:1012B000EF6A00EE13F01A51E9261B51EA22EF6A99
:1012C00000EE0FF01A51E9261B51EA22EE6AEE6A8F
:1012D000EE6AED6A00EE06F01A51E9261B51EA2289
:1012E000EF6A00EE17F01A51E9261B51EA22EF507F
:1012F000006E00C002F0036A00EE04F01A51E92605
:101300001B51EA2202C0EEFF03C0EDFF00EE17F012
:101310001A51E9261B51EA22EF50006E00C002F07C
:10132000036A00EE02F01A51E9261B51EA2202C0BC
:10133000EEFF03C0EDFF00EE16F01A51E9261B5137
:10134000EA22010EEF6E0501A72B050E0501A76528
:101350009DD7FAC0F6F00501916BA9C5FCF0AAC5AE
:10136000FDF0990E62D8A9C5FCF0AAC5FDF0990E52
:10137000E9D09CC5E8FF05019D5D04E39CC5E8FF3D
:101380009D5D12009CC500F09DC501F0300E012648
:101390000050015C12009DC5E8FF05019C63000C34
:1013A000010C9CC5E8FF030D6A0EF324006E010ECC
:1013B000F420016E120005019C2B2F0E9C652F0C52
:1013C0009C6B1200F700E16E9DC5D9FFD92A2F0E44
:1013D000D96401D0D96AD95005019C19D8B412003A
:1013E0009DC5E8FF030D6A0EF324E96E010EF4209B
:1013F000EA6EE1CFEFFF9DC5E8FF030D6B0EF3240E
:10140000E96E010EF420EA6EF7C0EFFF9DC5E8FF1C
:10141000030D6C0EF324E96E010EF420EA6EF8C0A1
:10142000EFFFD9CF9DF51200FC00E16E9DC5D9FFFD
:10143000D92A2F0ED96401D0D96AD95005019C1937
:10144000D8B412009DC5E8FF030D6A0EF324E96EBF
:10145000010EF420EA6EE1CFEFFF9DC5E8FF030D1A
:101460006B0EF324E96E010EF420EA6EFCC0EFFF70
:101470009DC5E8FF030D6C0EF324E96E010EF42008
:10148000EA6EFDC0EFFFD9CF9DF512009AC5E8FFC7
:1014900005019B5D04E39AC5E8FF9B5D12009AC5B8
:1014A00000F09BC501F0140E01260050015C1200F3
:1014B0009BC5E8FF05019A63000C010C9AC5E8FF83
:1014C000030D2E0EF324006E010EF420016E1200A7
:1014D00005019A2B130E9A65130C9A6B1200F700F4
:1014E000E16E9BC5D9FFD92A130ED96401D0D96A00
:1014F000D95005019A19D8B412009BC5E8FF030D15
:101500002E0EF324E96E010EF420EA6EE1CFEFFF18
:101510009BC5E8FF030D2F0EF324E96E010EF420A6
:10152000EA6EF7C0EFFF9BC5E8FF030D300EF32412
:10153000E96E010EF420EA6EF8C0EFFFD9CF9BF5FB
:101540001200FC00E16E9BC5D9FFD92A130ED964A5
:1015500001D0D96AD95005019A19D8B412009BC597
:10156000E8FF030D2E0EF324E96E010EF420EA6E5F
:10157000E1CFEFFF9BC5E8FF030D2F0EF324E96ECB
:10158000010EF420EA6EFCC0EFFF9BC5E8FF030DDF
:10159000300EF324E96E010EF420EA6EFDC0EFFF79
:1015A000D9CF9BF51200AECFADF5ADC5E8FFBF0AB0
:1015B00001E08FD0060EE8CF98F58BD07F0E0501A5
:1015C000AD657F0CF00EAD61F00C010EE8CF98F523
:1015D000ADC5A8F5010CEF0E0501AD6504D0010EF7
:1015E000E8CF98F5010C7F0E0501AD6506D0ADC5BD
:1015F000A8F5010EE8CF98F5010CBF0E0501A8650E
:1016000019D0E00EA86116D0ADC5ABF50501AC6BE5
:10161000ABC5FCF0ACC5FDF0A8C5E8FF06DFABC567
:10162000FCF0ACC5FDF0A8C5E8FF8CDF010EE8CFEB
:1016300098F5010CADC5ABF5020EE8CF98F5020C9C
:10164000800E0501AB611BD0A8C5E8FF990A03E134
:101650000501AD5314E0ADC5ACF5ABC5FCF0ACC5B0
:10166000FDF0A8C5E8FFE1DEABC5FCF0ACC5FDF0C0
:10167000A8C5E8FF67DF010EE8CF98F5010C010E61
:10168000E8CF98F5010C070EE8CF98F5070C5A0E35
:101690000501AD6109D0BF0EE8CFA8F5ADC5ABF52A
:1016A000020EE8CF98F5020CADC5A9F5080EE8CFFB
:1016B00098F5080C7F0E0501AD6503D00501986B08
:1016C0001200ADC5AAF50501986B9FD40501986B72
:1016D000120098C5E8FF000A01E170D7010A01E194
:1016E0007AD7030AADE0040ACEE0010AD0E00F0A7F
:1016F000E1E0ECD7CBDE0009D8B41200DFDE00C099
:1017000016F101C017F116C1E9FF17C1EAFFEF504A
:10171000AD6EACA2FED7010100EE01F01651E92634
:101720001751EA22EF50AD6EACA2FED7010100EED8
:1017300002F01651E9261751EA22EF50AD6EACA225
:10174000FED7C6DED7D7C7CF97F59E96C6B8C7A433
:1017500031D0C9CFA2F547D00501936BC9CF96F51B
:1017600041D00501935303E1C9CF94F507D093C548
:1017700000F0000403E1C9CF95F51180C69C050176
:10178000932B31D0C69E95C5C9FFC6BEFBD705D0E9
:10179000C69E95C5C9FFC6BEFBD7C69CC6880501B7
:1017A000932B0501942B1FD0C7B0C9CFA2F5C69CBF
:1017B000C68819D097C500F0250E001600C002F0AB
:1017C000036A0CD00250010AC7E0040ADBE0250AD4
:1017D000EBE0010AC6E0040ADBE002D00350F2E0CD
:1017E000C9CFA2F5C69C0501945302E12C0E46D048
:1017F00094C500F0000402E1490E40D094C5E8FF12
:10180000060AFAE094C5E8FF100A0BE1A0C500F053
:10181000050E016ED8900036012EFCD70050E00B6B
:101820002DD094C5E8FF110A0FE1A3DDE8CF95F5AF
:101830000F0E0501956502D0E8CF95F595C500F02E
:101840000038F00BF00B1AD0110E050194654AD048
:10185000240E946147D02BD08CDD000906E0A1DD79
:1018600000C012F101C013F104D01CC112F11DC15E
:1018700013F112C1E9FF13C1EAFFEF50E8CF95F56C
:1018800053D0010100EE01F01251E9261351EA2272
:10189000F4D7010100EE02F01251E9261351EA22B9
:1018A000EFCF95F566DD00093FE085DD3DD0030E05
:1018B000026E036A94C500F0016AEE0E0026FF0E68
:1018C000012261EC12F000C002F001C003F007D069
:1018D0000250C2E0010AD5E0030ADBE025D0035044
:1018E000F7E022D094C5E8FF800AD8B411A01AD03E
:1018F000050195A102D0829401D08284050195A3AF
:1019000002D0829A01D0828A050195A502D08196E3
:1019100001D08186050195A702D0809801D08088EA
:10192000119002D00501956BC69C1200700ED36E0B
:101930009B8C27EC07F01CC1E9FF1DC1EAFFEF6A91
:10194000010100EE01F01C51E9261D51EA22EF6A67
:1019500000EE02F01C51E9261D51EA22EF6A050152
:10196000A36B22D0A3C5E8FF030D6C0EF324E96E30
:10197000010EF420EA6EEF6AA3C5E8FF030D6B0EBB
:10198000F324E16E010EF420E26EEFCFE7FFA3C572
:10199000E8FF030D6A0EF324E96E010EF420EA6EEF
:1019A000E7CFEFFF0501A32B2F0E0501A365DAD7C3
:1019B00005019D6B05019C6B0501986B780EE8CFC6
:1019C0008FF5050EE8CF8EF566EC07F0000940E1D3
:1019D0000501A46B39D0A4C5E8FF180D4F0EF32400
:1019E000E8CF10F1000EF420E8CF11F1010100EE74
:1019F00008F01051E9261151EA22A4C500F0016A4D
:101A00000050150FF66E0150F76E0A0EF72208000F
:101A1000F550006ED8900036D8900034EF6EA4C513
:101A200000F0016A00500E0FF66E0150F76E0A0EBC
:101A3000F72200EE17F01051E9261151EA220800B2
:101A4000F5CFEFFF0501A42B060E0501A465C3D752
:101A50000501A46BACD0A4C5E8FF180D4F0EF3240C
:101A6000E8CF10F1000EF420E8CF11F1A4C500F08A
:101A7000016A0050000FF66E0150F76E0A0EF72251
:101A8000010100EE0BF01051E9261151EA22080085
:101A9000F5CFEFFFA4C500F0016A0050070FF66E06
:101AA0000150F76E0A0EF72200EE0CF01051E926F5
:101AB0001151EA220800F5CFEFFF00EE08F01051B7
:101AC000E9261151EA22EF50006EF80F026E036A08
:101AD000FF0E032200EE09F01051E9261151EA220F
:101AE00002C0EEFF03C0EDFF00EE14F01051E92636
:101AF0001151EA22EF6A00EE13F01051E92611515C
:101B0000EA22EF6A00EE0DF01051E9261151EA22A7
:101B1000EE6AED6A00EE0FF01051E9261151EA224B
:101B2000EE6AEE6AEE6AED6A00EE06F01051E92602
:101B30001151EA22EF6A00EE17F01051E926115117
:101B4000EA22EF50006E00C002F0036A0F0E022678
:101B5000000E032200EE04F01051E9261151EA2292
:101B600002C0EEFF03C0EDFF00EE17F01051E926B2
:101B70001151EA22EF50006E00C002F0036A0F0E0E
:101B80000226000E032200EE02F01051E926115148
:101B9000EA2202C0EEFF03C0EDFF00EE16F0105186
:101BA000E9261151EA22010EEF6E0501A42B060E63
:101BB0000501A46550D70001F56B0501A46BA4C510
:101BC000E8FF180D4F0EF324E8CF10F1000EF420BB
:101BD000E8CF11F1010EE8CFA5F5A5C5E8FF180D76
:101BE0004F0EF324E8CF14F1000EF420E8CF15F1E6
:101BF0000501A66BA6C5E8FF180D4F0EF324E8CF2C
:101C000018F1000EF420E8CF19F10501916BF28C68
:101C1000F28E0501A56B010EE8CFA1F59D8C0501A3
:101C2000A1531AE0A16BF29EA5C5E8FF180D4F0E57
:101C3000F324E8CF14F1000EF420E8CF15F10101F0
:101C400000EE0CF01451E9261551EA22EF50C26E55
:101C5000C282F28E0501A02B0501905301E1E2D36F
:101C6000906B0501A46B3BD3F29EA4C5E8FF180D51
:101C70004F0EF324E8CF10F1000EF420E8CF11F15D
:101C8000F28E010100EE16F01051E9261151EA2200
:101C9000EF5001E122D3F29E00EE04F01051E9264C
:101CA0001151EA22EECF00F0EDCF01F000C002F1B9
:101CB00001C003F110C1E9FF11C1EAFFEECF00F04E
:101CC000EDCF01F000C000F101C001F100EE02F023
:101CD0001051E9261151EA22EECF00F0EDCF01F0CC
:101CE00000C00EF101C00FF1F28E00EE06F01051AF
:101CF000E9261151EA22EF5001E1ABD200EE0FF0DC
:101D00001051E9261151EA22EE50EE10EE10EE10BD
:101D100001E169D200EE09F01051E9261151EA22E1
:101D2000EECF00F0EDCF01F000EE06F01051E92605
:101D30001151EA22EF50026E001801E1015201E058
:101D400052D2010100EE0BF01051E9261151EA22A6
:101D5000EFCF9EF59EC5E8FF640A01E1EAD100EEEF
:101D600014F01051E9261151EA22010EEF6E05011F
:101D7000995301E1D6D0010100EE0DF01051E92692
:101D80001151EA22EE52000EED5C640ED8B4EF5C05
:101D900017E200EE0BF01051E9261151EA22EF5044
:101DA0000001F76F010100EE0DF01051E92611510D
:101DB000EA22EF500001F86FB00E70EC0AF0B1D0DB
:101DC000010100EE0DF01051E9261151EA22EE5208
:101DD000000EED5CC80ED8B4EF5C20E200EE0BF014
:101DE0001051E9261151EA22EF500001F76F01016D
:101DF00000EE0DF01051E9261151EA22EECF00F06D
:101E0000EDCF01F0D8900130036E0030026E025029
:101E10000001F86FB10E70EC0AF083D0010100EE02
:101E20000DF01051E9261151EA22EE52010EED5C3F
:101E3000900ED8B4EF5C21E200EE0BF01051E926D1
:101E40001151EA22EF500001F76F010100EE0DF091
:101E50001051E9261151EA22EECF00F0EDCF01F04A
:101E6000D89001320032D890013200320050000187
:101E7000F86FB20E70EC0AF054D0010100EE0DF0D4
:101E80001051E9261151EA22EE52030EED5C200EAC
:101E9000D8B4EF5C24E200EE0BF01051E9261151AA
:101EA000EA22EF500001F76F010100EE0DF0105132
:101EB000E9261151EA22EECF00F0EDCF01F0D890E3
:101EC00001320032D89001320032D8900132003213
:101ED00000500001F86FB30E70EC0AF022D001013F
:101EE00000EE0BF01051E9261151EA22EF500001EB
:101EF000F76F010100EE0DF01051E9261151EA22B1
:101F0000EECF00F0EDCF01F0040E026ED89001325A
:101F10000032022EFBD700500001F86FB40E70ECB7
:101F20000AF00501A66B01D1A6C5E8FF0501A419B9
:101F300001E1F9D0F29EA6C5E8FF180D4F0EF3247B
:101F4000E8CF18F1000EF420E8CF19F1F28E01016C
:101F500000EE0BF01851E9261951EA22EFCF9EF559
:101F600000EE15F01851E9261951EA22EF5001E070
:101F7000DAD09EC5E8FF240A01E1D5D09EC5E8FF6E
:101F8000640A01E1D0D0010100EE0FF01051E92602
:101F90001151EA22EECF22F1EECF23F1EECF24F160
:101FA000EDCF25F1ED52ED5200EE0FF01851E9267C
:101FB0001951EA22EECF26F1EECF27F1EECF28F12C
:101FC000EDCF29F1ED52ED5201EE22F0EE52EE523C
:101FD000EE52ED50295D08E1ED50285D05E1ED5030
:101FE000275D02E1EF50265D11E201EE26F0EE5092
:101FF000225DE8CF2AF1EE502359E8CF2BF1EE50C5
:102000002459E8CF2CF1ED50255911D001EE22F0E2
:102010000101EE50265DE8CF2AF1EE502759E8CFB6
:102020002BF1EE502859E8CF2CF1ED502959E8CF8B
:102030002DF1ED52ED528FC500F0016A026A036A7C
:1020400001EE2DF00350ED5C08E10250ED5C05E17E
:102050000150ED5C02E10050EF5C65E28EC500F0DE
:10206000010100EE0DF01851E9261951EA22EECFD8
:1020700002F0EDCF03F0002A03D0D89003320232F1
:10208000002EFBD70EC100F00FC101F00350015C20
:1020900002E10250005C47E2050199533AE0010178
:1020A00000EE0BF01851E9261951EA22EF50000119
:1020B000F76F010100EE0DF01851E9261951EA22DF
:1020C000EECF00F0EDCF01F0D89001320032D89081
:1020D0000132003200500001F86FA70E70EC0AF0D8
:1020E000010100EE0BF01051E9261151EA22EF50E8
:1020F0000001F76F0EC100F00FC101F0D89001325E
:102100000032D890013200320050F86FA80E70EC07
:102110000AF0010100EE15F01051E9261151EA22F2
:10212000010EEF6E06D00501A62B060E0501A66571
:10213000FBD6010100EE14F01051E9261151EA22FC
:10214000EF5051E000EE15F01051E9261151EA224E
:10215000EF5049E100EE13F01051E9261151EA2247
:10216000EF50006E00043FE1F29E00EE0BF01051C4
:10217000E9261151EA22EF500001F76F0EC100F07D
:102180000FC101F00050000FF66E0150F76E060E01
:10219000F7220800F550F86F990EE3EC09F0010101
:1021A00000EE0BF01051E9261151EA22EF50000128
:1021B000F76F0EC100F00FC101F00050000FF66E76
:1021C0000150F76E060EF7220800F550F86F990ED1
:1021D00070EC0AF0F28E010100EE13F01051E926C6
:1021E0001151EA22EF6A010100EE06F01051E926D2
:1021F0001151EA22EF0600EE06F01051E9261151C6
:10220000EA22EF506AE1F29E00C100F001C101F044
:1022100000EE17F01051E9261151EA22EF50002488
:10222000026E000E0120036E10EE04F01051E12644
:102230001151E22202C0E6FF03C0E5FF00EE02F00A
:102240001051E9261151EA22E6CFEEFFE5CFEDFF6E
:1022500026D0F29E010100EE02F01051E926115144
:10226000EA2200C1EEFF01C1EDFF00C100F001C193
:1022700001F000EE17F01051E9261151EA22EF505B
:102280000024026E000E0120036E00EE04F01051D7
:10229000E9261151EA2202C0EEFF03C0EDFF00EE75
:1022A00014F01051E9261151EA22EF6A00EE13F002
:1022B0001051E9261151EA22EF6A00EE15F0105193
:1022C000E9261151EA22EF6A00EE0DF01051E926DD
:1022D0001151EA22EE6AED6AF28E0501A42B060E78
:1022E0000501A465C1D405019F2B9FC5E8FF640AC1
:1022F00001E095D09F6B0101F6C008F1096BDFC0CA
:1023000004F1E0C005F1E1C00CF1E2C00DF104C13F
:1023100002F005C103F00AC100F00BC101F0035047
:10232000015C02E10250005C09E304C102F005C156
:1023300003F00AC100F00BC101F008D00AC102F09D
:102340000BC103F004C100F005C101F00250005EB2
:102350000350015A00C006F101C007F106C102F0A6
:1023600007C103F008C100F009C101F00350015C8E
:1023700002E10250005C03E2050EE8CF91F5050191
:10238000915346E006C102F007C103F008C100F016
:1023900009C101F00350015C02E10250005C38E227
:1023A00004C10AF105C10BF1050192532CE0F29E24
:1023B000640E0001F76F04C100F005C101F0D89070
:1023C00001320032D89001320032D890013200320E
:1023D0000050F86F990EE3EC09F0640E0001F76FFE
:1023E00004C100F005C101F0D89001320032D8904C
:1023F00001320032D890013200320050F86F990E4D
:1024000070EC0AF0F28E010EE8CF92F5050191070B
:102410000501915304E104C10AF105C10BF1010E5C
:10242000E8CFA1F57AEC0BF00FEF0EF0066A046A24
:10243000056A0250031003E1006A016A000C1F0ED6
:102440000612D890062A02360336FCE30332023223
:102450000250005C0350015804E3016E0250005E1C
:10246000D88004360536062E06BAF0D706AE05D05B
:10247000041E042AD8B40506051E0450026E055039
:10248000036E06AC000C001E002AD8B40106011E23
:10249000000CFD00A6B2FED7FDC0A9FFFFC0A8FF3B
:1024A0003F0EA616D890F2BED880F29EA684550E96
:1024B000A76EAA0EA76EA682A198A694D8B0F28E97
:1024C000AA0C066A01AE06D0001E004A0106011ED3
:1024D000068C068E0350800B061A03AE17EF12F01F
:1024E000021E024A0306031E17EF12F0F800A6B2FE
:1024F000FED7F8C0A9FF3F0EA616A680A85012006E
:10250000FFFFFFFFFFFFFFFFFFFFFFFFFFFFFFFFDB
:10251000FFFFFFFFFFFFFFFFFFFFFFFFFFFFFFFFCB
:10252000FFFFFFFFFFFFFFFFFFFFFFFFFFFFFFFFBB
:10253000FFFFFFFFFFFFFFFFFFFFFFFFFFFFFFFFAB
:020000040030CA
:0E00000000C80E1E008B81000FC00FE00F40E5
:020000040020DA
:080000000F0F0F0F0F0F0F0F80
:0200000400F00A
:10000000FFFFFFFFFFFFFFFFFFFFFFFFFFFFFFFF00
:10001000FFFFFFFFFFFFFFFFFFFFFFFFFFFFFFFFF0
:10002000FFFFFFFFFFFFFFFFFFFFFFFFFFFFFFFFE0
:10003000FFFFFFFFFFFFFFFFFFFFFFFFFFFFFFFFD0
:10004000FFFFFFFFFFFFFFFFFFFFFFFFFFFFFFFFC0
:10005000FFFFFFFFFFFFFFFFFFFFFFFFFFFFFFFFB0
:10006000FFFFFFFFFFFFFFFFFFFFFFFFFFFFFFFFA0
:10007000FFFFFFFFFFFFFFFFFFFFFFFFFFFFFFFF90
:10008000FFFFFFFFFFFFFFFFFFFFFFFFFFFFFFFF80
:10009000FFFFFFFFFFFFFFFFFFFFFFFFFFFFFFFF70
:1000A000FFFFFFFFFFFFFFFFFFFFFFFFFFFFFFFF60
:1000B000FFFFFFFFFFFFFFFFFFFFFFFFFFFFFFFF50
:1000C000FFFFFFFFFFFFFFFFFFFFFFFFFFFFFFFF40
:1000D000FFFFFFFFFFFFFFFFFFFFFFFFFFFFFFFF30
:1000E000FFFFFFFFFFFFFFFFFFFFFFFFFFFFFFFF20
:1000F000FFFFFFFFFFFFFFFFFFFFFFFFFFFFFFFF10
:00000001FF
