:10000000BDC00000D6C00000D4C00000D2C00000B7
:10001000D0C00000CEC00000CCC00000CAC00000AC
:10002000C8C00000C6C00000C4C000005CCB000017
:10003000C0C00000BEC00000BCC00000BAC00000CC
:10004000B8C00000B6C00000B4C00000B2C00000DC
:10005000B0C00000AEC00000ACC00000FDC5000094
:10006000A8C00000A6C00000A4C00000A2C00000FC
:10007000A0C00000280000000001040001000000F2
:1000800000000000000458555342313000000000C9
:10009000000000000000000000000000120100024B
:1000A000FFFFFF40091282282231010203010501EE
:1000B0000906A101050719E029E7150025017501C9
:1000C0009508810295017508810105081901290526
:1000D000950575019102950175039101150026FFA3
:1000E000000507190029FF950675088100C0120157
:1000F00000020000000809128228223101020301D7
:1001000005010904A10105091901290F150025019F
:100110007501950F81020901A100093209300931E9
:100120000933093416018026FF7F75109505810279
:10013000C0C012034D00530046005400310030008F
:1001400030002000080331002E00320000001203AE
:100150004100720064007700690069006E006F0062
:1001600000001403730061006E006A0061007900F2
:1001700039003000300000000403090411241FBEC0
:10018000CFEFD2E0DEBFCDBF11E0A0E0B1E0E6E10D
:10019000FEE102C005900D92AC38B107D9F722E01C
:1001A000ACE8B1E001C01D92A033B207E1F799D5E8
:1001B00030CE26CF08950F931F93613069F0AC01C4
:1001C0004E5F5F4F81E390E0623059F060E050E0B5
:1001D00040E090E080E005C060E04CE950E082E162
:1001E00090E0F8016083F901518340831F910F91E2
:1001F0000895FC01A3EDB1E014964C911497159667
:100200003C9129E0228392E0938361E370E075835F
:10021000648381E086838783108650E251875AEF9A
:100220005287238754E054871586168697872FEFC9
:10023000208B2DE5218B828B138A21E1248B21E2F7
:10024000258B20E1268B878B408F85E2818F41E8CB
:10025000428F24E1238F83E0848F858F868F578F91
:1002600053E150A391A358E052A383A384A377E062
:1002700075A365E066A347A380A740E250E052A7BC
:1002800041A733A774A765A796A787A751AB40AB33
:1002900032ABECE8F1E0DF01822F1D928A95E9F79D
:1002A00021830E94640B7894089542E261EC81E01E
:1002B0000E94310A42E261EC83E00C94310ACF9251
:1002C000DF92EF92FF920F931F93CF93DF93CDB7FF
:1002D000DEB72C970FB6F894DEBF0FBECDBFC98234
:1002E000DA82EB82FC820D831E832F833887498755
:1002F0005A876B877C8714DCA89580912302843011
:10030000E1F481E08093E9008091E80080FF15C06E
:100310008CE0FE013196AEE8B1E001900D928A9535
:10032000E1F750E040E064E170E08CE891E0E9D66C
:100330008091E8008E778093E8002C960FB6F894B1
:10034000DEBF0FBECDBFDF91CF911F910F91FF9008
:10035000EF90DF90CF900895CF93DF93EBEEF0E036
:10036000208120612083C8EED0E02881277F288368
:1003700070E015D788818B778883DF91CF910895BE
:10038000CF93DF93CDB7DEB764970FB6F894DEBF97
:100390000FBECDBF80912502813061F0803209F41B
:1003A00061C064960FB6F894DEBF0FBECDBFDF917B
:1003B000CF91089580912402813A79F48091E800E8
:1003C000877F8093E80064E170E08CE891E0E7D6F5
:1003D0008091E8008B778093E80080912A029091C9
:1003E0002B02049781F48091270190912801A0911C
:1003F0002901B0912A0189839A83AB83BC8364E08D
:10040000CE010196A9DF80912A0290912B020897D4
:1004100079F480912402813C21F628E0CE010196F6
:10042000FC01322F11923A95E9F72A8368E094DFB4
:1004300080912A0290912B02449709F0B2CF8091CB
:100440002402813C09F0ADCF84E1EBE2F1E0DE0172
:10045000119601900D928A95E1F764E1CE01019623
:100460007BDF9FCF80912402982F907E903C09F0F3
:1004700098CF90912802943009F093CF8F7109F0B2
:1004800090CF8091E800877F8093E80068E270E079
:1004900084E790E01AD78091E8008B778093E8009A
:1004A00080CF80E091E0089580E490E00895EF929D
:1004B000FF920F931F93A1EAB1E0F8013296809169
:1004C000A00190E08F559E4FA817B90719F02D9104
:1004D0002193FACF88E090E0F7019183808380E058
:1004E0001F910F91FF90EF9008950F931F934EEA85
:1004F00050E0D9014D935C93F8011082DC01ED913D
:10050000FC910288F389E02D1F910F9109946F925D
:100510007F928F929F92AF92BF92CF92DF92EF9293
:10052000FF920F931F93CF93DF93CDB7DEB72C9736
:100530000FB6F894DEBF0FBECDBF4C01C982DA8280
:10054000EB82FC820D831E832F83388749875A876D
:100550006B877C87AD80BE80CF80D884E984FA84A5
:100560000B851C85DDDAA89529813A81AEEFB1E0D3
:10057000712C90E080E041E050E06D90662089F0C1
:10058000BA01082E02C0660F771F0A94E2F76223B1
:100590007323672B31F0E72DF0E0EF55FE4F6082BB
:1005A000739401968031910541F77092A0012091DA
:1005B0000F02222399F08091FC019091FD01919509
:1005C00081959109A816B9064CF481E0870D8093B6
:1005D000A001E72DF0E0EF55FE4F2083809110023F
:1005E000882389F02091FC013091FD012A153B05FB
:1005F00054F4E091A00191E09E0F9093A001F0E0EF
:10060000EF55FE4F8083209111022223A1F08091AB
:10061000FC019091FD01919581959109C816D9062B
:1006200054F4E091A00181E08E0F8093A001F0E0EE
:10063000EF55FE4F208380911202882389F020918C
:10064000FC013091FD012C153D0554F4E091A00111
:1006500091E09E0F9093A001F0E0EF55FE4F808354
:10066000209113022223A1F08091FC019091FD01C1
:10067000919581959109E816F90654F4E091A0014D
:1006800081E08E0F8093A001F0E0EF55FE4F2083B4
:1006900080911402882389F02091FC013091FD01A2
:1006A0002E153F0554F4E091A00191E09E0F909328
:1006B000A001F0E0EF55FE4F808320911502222328
:1006C000A1F08091FC019091FD0191958195910996
:1006D0000817190754F4E091A00181E08E0F809370
:1006E000A001F0E0EF55FE4F208380911602882391
:1006F00089F02091FC013091FD012017310754F45D
:10070000E091A00191E09E0F9093A001F0E0EF55E1
:10071000FE4F808380910D02882399F09B81209168
:10072000FA013091FB019217130659F054F0E09151
:10073000A00191E09E0F9093A001F0E0EF55FE4FD5
:10074000808380910E02882399F09C812091FA0188
:100750003091FB019217130659F054F0E091A0017B
:1007600091E09E0F9093A001F0E0EF55FE4F808343
:10077000F401828193812C960FB6F894DEBF0FBEF0
:10078000CDBFDF91CF911F910F91FF90EF90DF9040
:10079000CF90BF90AF909F908F907F906F90F9C354
:1007A0000895DC011296ED91FC918685978500975E
:1007B00019F001979787868708950F931F936230EA
:1007C000E1F060F44EEE50E082E190E0613021F023
:1007D00050E040E090E080E060E014C06132C1F0A1
:1007E0006232B1F7DC01ED91FC910688F789E02DCA
:1007F00062E209951F910F910895AC014C5F5F4F24
:1008000082E290E0F90151834083D8016C93F2CFEA
:10081000AC014A5E5F4F89E090E062E0F3CFCF9396
:10082000DF93EC01E881F9810088F189E02D0995D9
:100830009B838A83E881F9810288F389E02DCE01C8
:10084000099539E03C8322E02D8342E250E05F834A
:100850004E8321E0288729871A8640EC4B874AEF90
:100860004C873D8744E04E871F86188A298B43E0DA
:100870004A8B1B8A1C8A1D8A3E8B31E23F8B61E1C9
:1008800071E0798F688F1A8E2B8F32E23C8F9E8FAA
:100890008D8F87E08F8F85E088A381E889A34AA3A5
:1008A00088E090E09CA38BA32DA30ED77894DF91D2
:1008B000CF910895FC018281938158D3E2EEF0E05C
:1008C0008081846080830895FC01828193811DC2B0
:1008D0000895EF92FF920F931F93A091AF01B091F3
:1008E000B001ED91FC9111970488F589E02D780114
:1008F0008901242FAB01BC01CD0109951F910F91F6
:10090000FF90EF900895CF92DF92EF92FF920F93B6
:100910001F93CF93DF93EB0188819981807399278F
:10092000C09709F430D18091AF019091B001DC0102
:10093000ED91FC910280F381E02DC880D980EA809E
:10094000FB800C811D812E813F81488559856A85F8
:100950007B850995DF91CF911F910F91FF90EF90CB
:10096000DF90CF9008958091D4018130E9F483E342
:1009700090E00E94AA0D23E3DC011D922A95E9F77D
:1009800023E431E0FC01318320839093B001809314
:10099000AF018091AF019091B001DC01ED91FC912C
:1009A0000190F081E02D0994833061F486E290E0BB
:1009B0000E94AA0D26E2DC011D922A95E9F723E7A1
:1009C00031E0E0CF823029F786E290E00E94AA0D64
:1009D00026E2DC011D922A95E9F727E531E0D2CF26
:1009E0000F931F93A091AF01B091B001ED91FC91D5
:1009F00011970684F785E02D89019A01462F682F0B
:100A0000CD0109951F910F9108958091AF019091AB
:100A1000B001DC01ED91FC910480F581E02D099499
:100A20008091AF019091B001DC01ED91FC910680C5
:100A3000F781E02D09948091AF019091B001DC0124
:100A4000ED91FC910084F185E02D099480912502BF
:100A5000803309F498D08091AF019091B001DC010E
:100A6000ED91FC910284F385E02D09948091AF0112
:100A70009091B001DC01ED91FC910484F585E02DAD
:100A8000099482E390E0089580E191E00895EF9267
:100A9000FF920F931F938CE0E1EBF1E0D8010190FE
:100AA0000D928A95E1F786E090E0F70191838083CB
:100AB00080E01F910F91FF90EF9008950F931F9387
:100AC00040E051E0D9014D935C93F8011082DC01C4
:100AD000ED91FC910288F389E02D1F910F9109940B
:100AE000AF92BF92CF92DF92EF92FF920F931F933C
:100AF000CF93DF93CDB7DEB72C970FB6F894DEBF58
:100B00000FBECDBF5C01C982DA82EB82FC820D830D
:100B10001E832F83388749875A876B877C870E947B
:100B2000900DA8958CE0FE013196A1EBB1E001900B
:100B30000D928A95E1F7F501828193812C960FB68B
:100B4000F894DEBF0FBECDBFDF91CF911F910F9103
:100B5000FF90EF90DF90CF90BF90AF901AC24CE41F
:100B600050E060E070E083ED91E00C94F10EF894B9
:100B700088E198E00FB6F894A895809360000FBEC6
:100B800090936000FFCF87E797E79093FF028093F1
:100B9000FE02EDDFCF92DF92EF92FF920F931F9351
:100BA000CF93DF937C01EA018901CF2CDD246E2DE8
:100BB0008C2D16DF009779F523E0C216D10469F475
:100BC000FF24E2E0EE16F10409F436C048F4E11423
:100BD000F104B1F0EA94EF2839F130E020E017C0D9
:100BE000E3E0EE16F10481F1FEEEEF16F104A9F751
:100BF000E2E3F1E0E4918E2F90E022E331E007C0E0
:100C0000E8E7F1E0E4918E2F90E028E731E0F80189
:100C1000108239832883DF91CF911F910F91FF902C
:100C2000EF90DF90CF900895E2E6F1E0E4918E2F0F
:100C300090E022E631E0EBCFEEE4F1E0E4918E2F9C
:100C400090E02EE431E0E3CFE4E4F1E0E4918E2F94
:100C500090E024E431E0DBCF1F920F920FB60F92A9
:100C600011242F933F934F935F936F937F938F93B1
:100C70009F93AF93BF93EF93FF939091CE0080919A
:100C8000D2018823A1F0813031F1E82FF0E0ED535B
:100C9000FE4F90838F5F8093D2018E3058F065ECC9
:100CA00071E084EC91E02FDE1092D20103C081E06C
:100CB0009D36A1F0FF91EF91BF91AF919F918F91E0
:100CC0007F916F915F914F913F912F910F900FBE48
:100CD0000F901F901895913639F782E08093D201DA
:100CE000E9CF83EC91E03BDF86E090E09093CD008C
:100CF0008093CC0088E98093C90086E08093CA0085
:100D000084EC91E030DE7894FFCF6F927F928F92E7
:100D10009F92AF92BF92CF92DF92EF92FF920F938A
:100D20001F93CF93DF9300D00F92CDB7DEB77C0136
:100D3000CDB6DEB68091E80083FF15C0F7012081B3
:100D400080912802909129022817190661F4809158
:100D50002502833009F4ADC0E8F4813009F459C0AC
:100D6000823009F4EDC00FB6F894DEBE0FBECDBEE2
:100D70000F900F900F90DF91CF911F910F91FF90E7
:100D8000EF90DF90CF90BF90AF909F908F907F902B
:100D90006F9008958A3009F4B9C08B3009F4A2C06D
:100DA000893009F7809124028132E9F68DB69EB62A
:100DB00000912A0210912B02709026026090270267
:100DC0008DB79EB7801B910B0FB6F8949EBF0FBED8
:100DD0008DBFEDB7FEB731965F018091E800877F48
:100DE0008093E800B801CF0139D28091E8008E7776
:100DF0008093E80021E0711001C020E030E0021B88
:100E0000130B2A0D3B1D4FEF460D672DC70160DD0B
:100E10004AC080912402813A09F0A5CF8DB69EB6D2
:100E20001A82198280912602109127028B83808575
:100E3000482F50E08DB79EB7841B950B0FB6F894E2
:100E40009EBF0FBE8DBFEDB7FEB731965F0170E05C
:100E500060E0CF01BFD74FEF410F8E010F5F1F4FF3
:100E60009501BE016D5F7F4FC70133DDF7018681BC
:100E70009781009721F0408550E0B501A2D71092EC
:100E8000E9008091E800877F8093E8008B818111E1
:100E90008093F10069817A81C50181D18091E80058
:100EA0008B778093E8000FB6F8949EBE0FBE8DBE80
:100EB0005ACF80912402813A09F055CF8091E80001
:100EC000877F8093E8008091E80080FFFCCFF701E6
:100ED00081858093F1008091E8008E778093E8000F
:100EE00030D341CF80912402813209F03CCF8091F0
:100EF000E800877F8093E80024D39091260281E068
:100F0000911101C080E0F70181872DCF80912402EB
:100F1000813209F028CF8091E800877F8093E80034
:100F200010D3809126029091270236E096958795FE
:100F30003A95E1F78C7F9370F7019587848713CFFB
:100F400080912402813A09F00ECF8091E800877FDA
:100F50008093E8008091E80080FFFCCFF701848552
:100F600095859695879596958795B3CFFC0139968B
:100F700027E0DF011D922A95E9F721E0FC01218796
:100F800024EF31E03587248723E0248361E0019654
:100F90009CC25F926F927F928F929F92AF92BF920C
:100FA000CF92DF92EF92FF920F931F93CF93DF9335
:100FB00000D00F92CDB7DEB77C01ADB6BEB6809142
:100FC0002302843009F085C08091E4009091E5000F
:100FD000F701228533852817390709F47AC0818102
:100FE0008F708093E9008091E80085FF72C08DB614
:100FF0009EB6408550E08DB79EB7841B950B0FB60B
:10100000F8949EBF0FBE8DBFEDB7FEB731966F014E
:101010001B821A82198270E060E0CF01DBD68E015C
:101020000F5F1F4F960140E0BE016D5F7F4FC7010C
:1010300050DC582EF70184859585892B29F011E025
:1010400086859785892B09F010E0F7016680778007
:1010500000E06114710479F049815A81B301C6013D
:10106000A3D601E0892B09F400E0F701408550E0A8
:10107000B601C301A6D689819A81892BF1F051105E
:1010800004C0011102C010FF18C0F70184859585C6
:101090009787868781818F708093E9008B8181118A
:1010A0008093F10069817A8150E040E0C60129D047
:1010B0008091E8008E778093E8008091E400909121
:1010C000E500F701938782870FB6F8949EBE0FBEA6
:1010D0008DBE0FB6F894BEBE0FBEADBE0F900F9082
:1010E0000F90DF91CF911F910F91FF90EF90DF90C4
:1010F000CF90BF90AF909F908F907F906F905F90B8
:101100000895AF92BF92CF92DF92FF920F931F93F9
:10111000CF93DF936C01EB018A0132D2F82E81115B
:1011200024C00115110539F0F80180819181C81B97
:10113000D90BC80ED91EB12CA12C2097B1F08091EB
:10114000E80085FD22C08091E8008E778093E8005A
:10115000E7D401151105A1F0F80180819181A80E55
:10116000B91EB182A08285E0F82E8F2DDF91CF913C
:101170001F910F91FF90DF90CF90BF90AF90089597
:10118000FFD18823D1F2F82EF0CFF60181916F01C3
:101190008093F1002197FFEFAF1ABF0ACECFFC0179
:1011A00080912A0290912B0286179707A0F0611573
:1011B000710529F49091E8009E779093E80090E003
:1011C0006115710551F4911108C08091E80082FF0A
:1011D00035C080E00895BC01F2CF809123028823BE
:1011E000C9F18530C9F18091E80083FD31C080915B
:1011F000E80082FDEACF8091E80080FFE1CF2091F6
:10120000F20030E04091200150E06115710519F0C5
:101210002417350758F091E04217530709F090E082
:101220002091E8002E772093E800CACF8191809327
:10123000F100615071092F5F3F4FE4CF809123028D
:10124000882341F0853041F08091E80083FFBDCFD5
:1012500081E0089582E0089583E00895FC0161151E
:10126000710529F49091E8009B779093E80061154F
:10127000710531F48091E80080FF1BC080E0089583
:10128000809123028823F9F08530C9F08091E8002D
:1012900083FD17C08091E80082FFE9CF8091F200C2
:1012A000882301F38091F100819361507109B1F7B6
:1012B000D9CF80912302882331F08530D9F683E09D
:1012C000089581E0089582E00895FC0180912A024A
:1012D00090912B0286179707A0F06115710529F4EC
:1012E0008091E8008E778093E80090E061157105A9
:1012F00051F4911108C08091E80082FF36C080E06F
:101300000895BC01F2CF809123028823D1F185306A
:10131000D1F18091E80083FD32C08091E80082FD28
:10132000EACF8091E80080FFE1CF2091F20030E029
:101330004091200150E06115710519F0241735071F
:1013400058F091E04217530709F090E08091E800CF
:101350008E778093E800CACF84918093F100319614
:10136000615071092F5F3F4FE3CF809123028823A3
:1013700041F0853041F08091E80083FFBCCF81E0EF
:10138000089582E0089583E00895EF92FF920F930D
:101390001F93CF93DF937C01EB0180912A02909100
:1013A0002B0286179707C0F0209729F48091E80058
:1013B0008E778093E80020E0209781F421110EC001
:1013C0008091E80082FF3DC080E0DF91CF911F91C6
:1013D0000F91FF90EF900895EC01EDCF80912302E3
:1013E0008823D9F18530D9F18091E80083FD33C09D
:1013F0008091E80082FDE4CF8091E80080FFDCCF9F
:101400000091F20010E08091200190E0209719F007
:101410000817190758F021E08017910709F020E01C
:101420008091E8008E778093E800C6CFC701E9D4A9
:101430008093F1008FEFE81AF80A21970F5F1F4F92
:10144000E2CF80912302882341F0853041F08091E2
:10145000E80083FFB5CF81E0B8CF82E0B6CF83E06C
:10146000B4CF982F953028F08F708093E90081E0F9
:1014700008959093E900242F762F50E0981731F0CB
:101480007091EC002091ED005091F00021FD02C020
:101490009F5FE8CF3091EB003E7F3093EB003091BF
:1014A000ED003D7F3093ED003091EB0031603093E3
:1014B000EB007093EC002093ED005093F00020912E
:1014C000EE0027FDE5CF80E008950F931F93CF93A3
:1014D000DF93062FEC0110E0101302C081E00BC077
:1014E0002881211103C01F5F2596F6CF822F8F70B0
:1014F000853030F080E0DF91CF911F910F910895FA
:101500009C8142E0923008F046E0E981FA8168E08F
:1015100070E090E06E177F0780F09295907F492BE6
:101520006B816295660F660F607C221F2227221F47
:10153000622B97DF8111D7CFDDCF9F5F660F771FBB
:10154000E9CF8091240287FF13C08091E80082FFD9
:1015500006C08091E8008B778093E80004C08091FA
:1015600023028111F2CF0895809123028823D9F3B9
:101570008091E80080FFF8CF8091E8008E77ECCF73
:101580002091E4003091E50095E6A9012091EC005E
:10159000822F817020FF06C08091E80080FF06C086
:1015A00080E008952091E80022FD1AC08091230276
:1015B000882389F0853089F08091EB0085FD0FC08C
:1015C0002091E4003091E50042175307F9F2915061
:1015D000E1F684E0089582E0089583E0089581E0D3
:1015E0000895CF93DF9300D00F92CDB7DEB775D0BB
:1015F00077D08091D8008F778093D8008091D800E1
:1016000080688093D8008091D8008F7D8093D80027
:1016100084E089BD86E089BD09B400FEFDCF10924B
:10162000230210921F0210922102109220029E01AA
:101630002D5F3F4FAE014F5F5F4F70E060E080E095
:1016400091E0A8DA892B49F08B81E981FA81811137
:101650002DC03796E491E09320012091200130E0E5
:1016600088E090E040E08217930750F14295407F78
:10167000426060E080E0F5DE8091E1008E7F809343
:10168000E1008091E20081608093E2008091E200BD
:1016900088608093E2008091E0008E7F8093E0007C
:1016A0000F900F900F90DF91CF910895813031F41A
:1016B000CF010796A6D380932001CFCF8781FBCFA0
:1016C0004F5F880F991FCFCFE3E6F0E080818E7FD8
:1016D000808381E08093220284CF1092E2000895FB
:1016E0001092E10008951F920F920FB60F921124ED
:1016F0002F933F934F935F936F937F938F939F931A
:10170000AF93BF93EF93FF938091E10082FF0AC0F4
:101710008091E20082FF06C08091E1008B7F809380
:10172000E100A4D98091E10080FF17C08091E20020
:1017300080FF13C08091E2008E7F8093E200809151
:10174000E20080618093E2008091D8008062809303
:10175000D80019BC1092230263D98091E10084FF64
:101760002AC08091E20084FF26C084E089BD86E023
:1017700089BD89B5982F917080FFFBCF8091D800EB
:101780008F7D8093D8008091E1008F7E8093E1006F
:101790008091E2008F7E8093E2008091E200816080
:1017A0008093E20080911F02882309F446C084E000
:1017B000809323022AD98091E10083FF2DC080917C
:1017C000E20083FF29C08091E100877F8093E100E0
:1017D00082E08093230210921F028091E1008E7FAD
:1017E0008093E1008091E2008E7F8093E2008091FF
:1017F000E20080618093E2002091200130E088E0E7
:1018000090E040E082179307F8F04295407F4260F5
:1018100060E080E026DE83D1FF91EF91BF91AF9130
:101820009F918F917F916F915F914F913F912F91F8
:101830000F900FBE0F901F9018958091E30087FDC9
:1018400093E090932302B6CF4F5F880F991FDACFB2
:101850001F93CF93DF93CDB7DEB7AB970FB6F89456
:10186000DEBF0FBECDBF84E292E02091F100FC010B
:101870002193CF01F2E08C329F07B9F7E7D880912E
:10188000E80083FF11C090912402809125028530E9
:1018900009F4BEC008F5813009F487C0882309F433
:1018A0005CC0833009F481C08091E80083FF0AC0E6
:1018B0008091E800877F8093E8008091EB00806250
:1018C0008093EB00AB960FB6F894DEBF0FBECDBF92
:1018D000DF91CF911F910895883009F4E0C08930DD
:1018E00009F4EAC0863001F790589230E8F680910A
:1018F0002602909127028C3D23E0920709F0AAC0AE
:1019000083E08A838AE289834FB7F894DE011396D5
:1019100020E03EE051E2E32FF0E050935700E491E5
:1019200020FF03C0E295EF703F5FEF708E2F90E0D5
:10193000EA3008F48DC0C7968D939D932F5F2431B4
:1019400051F74FBF8091E800877F8093E8006AE2FB
:1019500070E0CE01019623DC97C0903899F0923860
:1019600009F0A2CF809128028F70853008F09CCFBB
:101970008093E9008091EB0085FB882780F9109225
:10198000E90006C0809120029091210291118260AD
:101990009091E800977F9093E8008093F100109277
:1019A000F1008091E8008E77B6C0992309F4A3C0B6
:1019B000923009F079CF909126029111A7C09091B1
:1019C00028029F702FEF290F243008F06DCF9093DD
:1019D000E9002091EB0020FF99C0833031F4809121
:1019E000EB0080628093EB0091C08091EB008061FE
:1019F0008093EB0021E030E001C0220F9A95EAF7D6
:101A00002093EA001092EA008091EB008860EACF10
:101A100091114ACF109126021F778091E3008078C0
:101A2000812B8093E3008091E800877F8093E8001A
:101A300088DD8091E80080FFFCCF8091E300806822
:101A40008093E30082E0111183E0809323022CCF86
:101A5000C09672CF60912802709129029E01255D87
:101A60003F4FAE014F5F5F4F95D8BC01892B09F402
:101A70001BCF8091E800877F8093E8002BA58981A8
:101A80009A81211107C021DC8091E8008B77809337
:101A9000E8000ACF213009F05ECF77DCF5CF90382F
:101AA00009F002CF8091E800877F8093E800809161
:101AB0001F028093F10075CF9111F6CE909126020E
:101AC000923008F0F1CE8091E800877F8093E800A3
:101AD00090931F0236DD80911F02882311F084E06D
:101AE00005C08091E30087FDFACF81E08093230257
:101AF0000E941B05D9CE90912602913009F0D4CED8
:101B000091E0833009F090E0909321021092E90077
:101B10008091E800877F8093E80013DDC5CE0895AB
:101B2000CF9380912302882399F0C091E900CF7070
:101B30009091EC00892F817090FD80E8C82B109265
:101B4000E9008091E80083FD83DECF70C093E90057
:101B5000CF9108950F931F93CF93DF938230910518
:101B600010F482E090E0E0912E02F0912F0230E03C
:101B700020E0B0E0A0E0309799F42115310509F498
:101B800047C0281B390B24303105C0F58A819B8161
:101B90006115710571F1FB0193838283FE0111C010
:101BA000408151810281138148175907F8F0481785
:101BB000590799F4109761F012960C9312971396A7
:101BC0001C933296CF01DF91CF911F910F91089511
:101BD00000932E0210932F02F4CF2115310519F036
:101BE0004217530718F49A01BD01EF01DF01F80114
:101BF000C2CF90932F0280932E02D0CFFE01E20F2E
:101C0000F31F819391932250310939832883DACFCE
:101C100020912C0230912D02232B41F4209123019D
:101C20003091240130932D0220932C022091210128
:101C3000309122012115310541F42DB73EB7409175
:101C4000250150912601241B350BE0912C02F091C7
:101C50002D02E217F307A0F42E1B3F0B28173907BC
:101C600078F0AC014E5F5F4F2417350748F04E0FF8
:101C70005F1F50932D0240932C0281939193A2CF2A
:101C8000F0E0E0E09FCFCF93DF930097E9F0FC0115
:101C9000329713821282C0912E02D0912F02DE0160
:101CA00030E020E02097A1F420813181820F931F42
:101CB00020912C0230912D022817390709F067C0B6
:101CC000F0932D02E0932C02DF91CF910895DA0179
:101CD000AE17BF0708F040C012964D915C91139764
:101CE0009D014115510599F7D9011396FC93EE9387
:101CF00012974D915D91A40FB51FEA17FB0779F478
:101D0000808191810296840F951FD90111969C9331
:101D10008E938281938113969C938E931297B0E059
:101D2000A0E08A819B810097B9F5FE018191919194
:101D3000E80FF91F80912C0290912D028E179F07BA
:101D400019F6109761F510922F0210922E02D0937F
:101D50002D02C0932C02B8CFB383A283408151815E
:101D6000840F951FA817B90771F44E5F5F4F8D91CF
:101D70009C911197480F591F5183408312968D9162
:101D80009C91938382832115310509F0ADCFF093A7
:101D90002F02E0932E0298CFDE01EC01C2CF139602
:101DA0001C921E921297D3CFFB01DC0104C08D91CF
:101DB0000190801921F441505040C8F7881B990BBD
:101DC0000895FB01DC0102C001900D92415050408A
:101DD000D8F70895DC0101C06D9341505040E0F701
:101DE0000895DC01CB01FC01F999FECF06C0F2BDDC
:101DF000E1BDF89A319600B40D9241505040B8F7C9
:101E00000895F999FECF92BD81BDF89A992780B5C2
:061E10000895F894FFCFD5
:101E1600008108000001A701080000000000000082
:101E2600008108000001BD0106000000000000005E
:101E3600080000300220000012286100143FF7FF5E
:101E4600FF00000000C0FFC0FF000000000000000F
:101E5600000000F9005F01DA00DA005501C001DA7E
:101E660000DB00000000000F048702D003D0035AF5
:101E7600046404D103DD03510254025702750200C3
:101E86000000000F047005D003D0035A046404D187
:0C1E960003DD034405410547055E05001F
:00000001FF
