:1000000084C700009FC700009DC700009BC7000079
:1000100099C7000097C7000095C7000093C700006C
:1000200091C700000C941E120C94C2258BC70000CF
:1000300089C7000087C7000085C7000083C700008C
:1000400081C700007FC700007DC700007BC700009C
:1000500079C7000077C7000075C7000073C70000AC
:1000600071C700006FC700006DC700006BC70000BC
:1000700069C7000067C7000065C7000063C70000CC
:1000800061C700005FC700005DC700005BC70000DC
:100090000C946D2057C7000055C7000053C70000DF
:1000A00051C700004FC700004DC70000036EDB368C
:1000B0003D9A9999993DABAAAA2A3E000000803F3B
:1000C000084AD73B3BCE016E84BCBFFDC12F3D6CBF
:1000D00074319ABD56833DDA3D00C77F11BED9E425
:1000E000BB4C3E916BAAAABE000000803F072C7A51
:1000F000A5BA6CC590DA3B9365FC8BBC53F810FD38
:100100003C5692834DBD879D3AB63DCBC9BF5BBE81
:1001100073DA0FC93F07634236B79BD8A71A39680D
:100120005618AEBAAB558C1D3CB7CC5763BD6DEDC0
:10013000FD753EF6177231BF000000803F080000D9
:1001400000BE922449123EABAAAA2ABECDCCCC4C0A
:100150003E00000080BEABAAAAAA3E00000000BF7D
:10016000000000803F0000000000084178D3BB433E
:1001700087D1133D190E3CC3BD4282AD2B3E68ECC6
:100180008276BED98FE1A93E4C80EFFFBE01C4FF4D
:100190007F3F00000000000012034D0053004600A6
:1001A00054003100300030002000080331002E00E0
:1001B0003200000012034100720064007700690001
:1001C00069006E006F0000001403730061006E0090
:1001D0006A0061007900390030003000000004033B
:1001E00009042800000000010400010000000000D4
:1001F0000000000458555342313000000000000058
:100200000000000000000000000012010002FFFFDB
:10021000FF4009128228223101020301050109066B
:10022000A101050719E029E71500250175019508C9
:1002300081029501750881010508190129059505B7
:1002400075019102950175039101150026FF0005C6
:1002500007190029FF950675088100C012010002E8
:100260000000000809128228223101020301050161
:100270000904A10105091901290F150025017501BE
:10028000950F81020901A1000932093009310933B2
:10029000093416018026FF7F751095058102C0C0C4
:1002A00000007000000000240000000200030000B5
:1002B00000650054FFEF0000FA80000B128200017D
:1002C000030C30C30E8C8CE914D5400213710F8ED1
:1002D0003883F8833000F883258EF8833000F88364
:1002E000FFFFFFFF0FFEA9D6240004001A8279A1A8
:1002F0000000003CFFFF00000010000038836FA2E8
:10030000003E03304000000002CAE3093E800000C6
:10031000200000000000000040000000600000001D
:10032000000C0000000C186E000006920A16C0DFD8
:10033000FFFF0256FD8CD377FFE1C496E0C5BEAA4D
:1003400000000000FFFF0B2B0000165700000359B0
:100350004000000000001DFA00026C1D00000000BB
:100360003FFFDFEB003EB3B6000D227800002F3CCC
:1003700000000000001942B5000039A20000B3657A
:10038000D90E9FC91DCF4C34300000005000000032
:100390003BB67AE80064000000C8000000000000DE
:1003A000100000001000FA921000225E000D229F43
:1003B0000001000000320000FF46000063D400008E
:1003C0001000000004D6000004CC000004CC0000A3
:1003D000000010720000004000000000000000005B
:1003E0000006000200050007000000000064000095
:1003F000000000000000000500050064002000006F
:1004000000000000000000000000400000000300A9
:1004100000000032F8980000FF650000830F000024
:10042000FF9BFC0000000000000000000000000036
:1004300000000000000000000000000000000000BC
:10044000000000000000000000000000000010009C
:1004500040000000000000060000B26A0002000038
:100460000001FB830068000000D9FC007CF1FF83E1
:100470000000000000650000006403E8006400283C
:10048000000000250000000016A000000000100081
:1004900000001000002F0000000001F40000100018
:1004A00000280000FFFF4581FFFFFA7200000000F6
:1004B00000000000004400050005BAC6004778A20D
:1004C0000000000100000000000006000000001411
:1004D0000000254D002F706D000005AE000C02D00D
:1004E000000000000000000000000000000000000C
:1004F000001B0000000000000000000000000000E1
:10050000006400000008000000000000000000007F
:1005100000000000000000000000000000000000DB
:1005200000000000000000000000000000000000CB
:1005300000000000000000000000000000000000BB
:1005400000000000000000000000000000000000AB
:10055000000000000000000000000000000000009B
:10056000001B00000000000000000000000E000E54
:1005700000000AC70004000000000032FFFFFF9CDB
:1005800000000B2B000000020000000100000064CE
:10059000FFE5000000000000000000000000000077
:1005A0000000000100000000000100000000000049
:1005B000000180000001800000018000002426D39B
:1005C0000000000000000000000600100096003C43
:1005D000000000000000000000000000000000001B
:1005E0000C0A4E68CDCF770950166759C619CE82CE
:1005F00000000000000000000000000000000000FB
:10060000000000000000000017D784000300000075
:100610000000000000000000C7938F9D1E1B1C19E6
:1006200000000000000000000000000000000000CA
:1006300000000000000000000203188500004000D8
:1006400000000003000000030000000000000000A4
:10065000400000000000000000000000000000005A
:10066000000000000000000000000000000000008A
:10067000000000000000000000000000000000007A
:1006800000000000677DDF7E72902E554CF6E688F4
:10069000000000000000000000000000000000005A
:1006A000D8DCB4B8B0D8B9ABF3F8FAB3B7BB8E9E08
:1006B000AEF132F51BF1B4B8B08097F1A9DFDFDFFE
:1006C000AADFDFDFF2AAC5CDC7A90CC92C97F1A913
:1006D00089264666B28999A92D557DB0B08AA8961B
:1006E000365676F1BAA3B4B280C0B8A89711B283D7
:1006F00098BAA3F0240844106418B2B9B49883F1EE
:10070000A329557DBAB5B1A38393F0002850F5B263
:10071000B6AA839328547CF1B9A3829361BAA2DA72
:10072000DEDFDB819AB9AEF5606870F1DABAA2DF7C
:10073000D9BAA2FAB9A38292DB31BAA2D9BAA2F885
:10074000DF85A4D0C1BBAD83C2C5C7B8A2DFDFDFE0
:10075000BAA0DFDFDFD8D8F1B8AAB38DB4980D35D1
:100760005DB2B6BAAF8C96198F9FA70E161EB49ABB
:10077000B8AA872C547CBAA4B08AB691325676B205
:100780008494A4C808CDD8B8B4B0F19982A82D55E6
:100790007D98A80E161EA22C547C92A4F02C5078A2
:1007A000F184A898C4CDFCD80DDBA8FC2DF3D9BAF0
:1007B000A6F8DABAA6DED8BAB2B68696A6D0F3C83C
:1007C00041DAA6C8F8D8B0B4B882A892F52C5488FB
:1007D00098F135D9F418D8F1A2D0F8F9A884D9C77E
:1007E000DFF8F883C5DADF69DF83C1D8F40114F1DB
:1007F000A8824EA884F311D182F5D992289788F166
:1008000009F41C1CD884A8F3C0F9D1D99782F12926
:10081000F40DD8F3F9F9D1D982F4C203D8DEDF1A86
:10082000D8F1A2FAF9A88498D9C7DFF8F8F883C7F5
:10083000DADF69DFF883C3D8F40114F198A8822EB7
:10084000A884F311D182F5D992509788F109F41C4C
:10085000D884A8F3C0F8F9D1D99782F149F40DD81A
:10086000F3F9F9D1D982F4C403D8DEDFD8F1AD8829
:1008700098CCA809F9D98292A8F57CF1883ACF944E
:100880004A6E98DB6931DAADF2DEF9D88795A8F2C5
:1008900021D1DAA5F9F417D9F1AE8ED0C0C3AE825A
:1008A000C684C3A88595C8A588F2C0F1F4010EF1ED
:1008B0008E9EA8C63E56F554F18872F40115F19843
:1008C00045856EF58E9E0488F142985A8E9E068864
:1008D00069F4011CF1981E1108D0F504F11E97026D
:1008E00002983625DBF9D985A5F3C1DA85A5F3DFB2
:1008F000D88595A8F309DAA5FAD88292A8F578F1F7
:10090000881A849F26889821DAF41DF3D8879F39A6
:10091000D1AFD9DFDFFBF9F40CF3D8FAD0F8DAF96C
:10092000F9D0DFD9F9D8F40BD8F3879F39D1AFD9F3
:10093000DFDFF41DF3D8FAFCA869F9F9AFD0DADEED
:10094000FAD9F88F9FA8F1CCF398DB45D9AFDFD067
:10095000F8D8F18F9FA8CAF38809DAAF8FCBF8D8FF
:10096000F2AD978D0CD9A5DFF9BAA6F3FAF412F21D
:10097000D8950DD1D9BAA6F3FADAA5F2C1BAA6F381
:10098000DFD8F1BAB2B68696A6D0CAF349DAA6CBBA
:10099000F8D8B0B4B8D8AD84F2C0DFF18FCBC3A81B
:1009A000B2B68696C8C1CBC3F3B0B48898A821DB91
:1009B000718D9D71859521D9ADF2FAD88597A828BA
:1009C000D9F408D8F28D29DAF405D9F285A4C2F257
:1009D000D8A88D9401D1D9F411F2D88721D8F40A7E
:1009E000D8F28498A8C801D1D9F411D8F3A4C8BB0F
:1009F000AFD0F2DEF8F8F8F8F8F8F8F8D8F1B8F671
:100A0000B5B9B08A95A3DE3CA3D9F8D85CA3D9F8D0
:100A1000D87CA3D9F8D8F8F9D1A5D9DFDAFAD8B1BA
:100A20008530F7D9DED8F830ADDADED8F2B48C995B
:100A3000A32D557DA083DFDFDFB591A0F629D9FB7B
:100A4000D8A0FC29D9FAD8A0D051D9F8D8FC51D9CE
:100A5000F9D879D9FBD8A0D0FC79D9FAD8A1F9F97D
:100A6000F9F9F9A0DADFDFDFD8A1F8F8F8F8F8AC87
:100A7000DEF8ADDE8393AC2C547CF1A8DFDFDFF62B
:100A80009D2CDAA0DFD9FADB2DF8D8A850DAA0D057
:100A9000DED9D0F8F8F8DB55F8D8A878DAA0D0DF9E
:100AA000D9D0FAF8F8F8F8DB7DF8D89CA88CF530A6
:100AB000DB38D9D0DEDFA0D0DEDFD8A848DB58D9BC
:100AC000DFD0DEA0DFD0DED8A868DB70D9DFDFA002
:100AD000DFDFD8F1A888902C547C98A8D05C38D15E
:100AE000DAF2AE8CDFF9D8B087A8C1C1B188A8C648
:100AF000F9F9DA36D8A8F9DA36D8A8F9DA36D8A862
:100B0000F9DA36D8A8F9DA36D8F78D9DADF818DAC3
:100B1000F2AEDFD8F7ADFA30D9A4DEF9D8F2AEDE06
:100B2000FAF983A7D9C3C5C7F1889BA77AADF7DEC9
:100B3000DFA4F8849408A797F300AEF29819A4886C
:100B4000C6A39488F632DFF28393DB09D9F2AADFD9
:100B5000D8D8AEF8F9D1DAF3A4DEA7F1889B7AD819
:100B6000F38494AE19F9DAAAF1DFD8A881C0C3C51D
:100B7000C7A39283F628ADDED9F8D8A350ADD9F833
:100B8000D8A378ADD9F8D8F8F9D1A1DADEC3C5C7B2
:100B9000D8A18194F818F2B089ACC3C5C7F1D8B810
:100BA000B4B09786A8319B069907AB9728889BF02D
:100BB0000C201440B0B4B8F0A88A9A285078B79B9B
:100BC000A8295179247059446938644831F1BBAB84
:100BD00088002C547CF0B38BB8A804285078F1B06E
:100BE00088B49726A85998BBABB38B02264666B04B
:100BF000B8F08A9CA82951798B2951798A24705997
:100C00008B2058718A4469388B3940688A6448312E
:100C10008B30496088F1AC002C547CF08CA80428FF
:100C20005078F1889726A85998AC8C02264666F031
:100C3000899CA8295179247059446938644831A99C
:100C40008809205970AB11384069A8193148608C67
:100C5000A83C415C207C00F187981986A86E767EBE
:100C6000A999882D557DD8B1B5B9A3DFDFDFAED006
:100C7000DFAAD0DEF2ABF8F9D9B087C4AAF1DFDF82
:100C8000BBAFDFDFB9D8B1F1A3978E60DFB084F2DC
:100C9000C8F8F9D9DED89385F14AB183A308B583A2
:100CA0009A0810B79F10D8F1B0BAAEB08AC2B2B6E7
:100CB0008E9EF1FBD9F41DD8F9D90CF1D8F8F8AD16
:100CC00061D9AEFBD8F40CF1D8F8F8AD19D9AEFB68
:100CD000DFD8F416F1D8F8AD8D61D9F4F4ACF59CF9
:100CE0009C8DDF2BBAB6AEFAF8F40BD8F1AED0F883
:100CF000AD51DAAEFAF8F1D8B9B1B6A3839C08B910
:100D0000B1839AB5AAC0FD3083B79F10B58B93F21B
:100D10000202D1ABDADED8F1B080BAABC0C3B28484
:100D2000C1C3D8B1B9F38BA391B609B4D9ABDEB0C6
:100D3000879CB9A3DDF1B38B8B8B8B8BB087A3A37F
:100D4000A3A3B28BB69BF2A3A3A3A3A3A3A3A3A322
:100D5000A3F1B087B59AA3F39BA3A3DCBAACDFB928
:100D6000A3A3A3A3A3A3A3A3A3A3A3A3A3A3A3A353
:100D7000D8D8D8BBB3B7F1AAF9DAFFD9809AAA2894
:100D8000B48098A720B79787A86688F07951F1902A
:100D90002C870CA781976293F0717160859401296B
:100DA000517990A5F1284C6C870C95188578A38310
:100DB00090284C6C886CD8F3A28200F210A892198B
:100DC00080A2F2D926D8F188A84DD948D896A8395A
:100DD00080D93CD89580A839A68698D92CDA87A7DF
:100DE0002CD8A8899519A980D938D8A88939A9807B
:100DF000DA3CD8A82EA83990D90CD8A8953198D922
:100E00000CD8A809D9FFD801DAFFD89539A9DA2674
:100E1000FFD890A80D8999A810809821DA2ED8893A
:100E200099A83180DA2ED8A886963180DA2ED8A8F3
:100E3000873180DA2ED8A88292F34180F1D92ED85A
:100E4000A882F31980F1D92ED882ACF3C0A28022F7
:100E5000F1A62EA72EA92298A829DAACDEFFD8A2E7
:100E6000F22AF1A92E8292A8F23180A696F1D90039
:100E7000AC8C9C0C30ACDED0DEFFD88C9CACD0109F
:100E8000ACDE8092A2F24C82A8F1CAF235F19688CB
:100E9000A6D900D8F1FF070605040100080A0B0CCB
:100EA0000D0904080201104080401020408040805D
:100EB00008020401804020100201108010204040F0
:100EC00020040404040403040502020202040302D1
:100ED00002020206060606060604040202020404D2
:100EE000000000002300260029002C002F00000035
:100EF0000000250028002B002E003100000000001B
:100F0000240027002A002D00300011241FBECFEF3F
:100F1000DAE0DEBFCDBF12E0A0E0B1E0E8E9FCE539
:100F200002C005900D92AE35B107D9F723E0AEE5CA
:100F3000B2E001C01D92A938B207E1F70E949020EB
:100F40000C944A2E5DC8CF93DF930F92CDB7DEB7D6
:100F500090911D019923F1F0882319F082E0898393
:100F600001C01982A0910001B0910101E09102013C
:100F7000F09103019E012F5F3F4F41E051966C912C
:100F800080810E94B91F811111C08FEF0F90DF91F6
:100F9000CF910895909106019923B9F3882309F31D
:100FA00080910C01811105C081E0D9CF89818093A6
:100FB0000C0180E0EBCFCF93DF930F92CDB7DEB77C
:100FC00080910601811105C08FEF0F90DF91CF91C5
:100FD00008951982A0910001B0910101E0910201F0
:100FE000F09103019E012F5F3F4F41E051966C91BC
:100FF00080810E94B91F882339F3A0910001B0912C
:101000000101E0910201F09103019E012F5F3F4F2A
:1010100041E015966C9180810E94B91F8823A1F24E
:10102000A0910001B0910101E0910201F091030152
:101030009E012F5F3F4F41E014966C9180810E948A
:10104000B91F882309F2E0910001F0910101648148
:10105000E0910201F091030180911D01882309F4C0
:1010600065C08CE089839E012F5F3F4F41E0808106
:101070000E94B91F882309F4A7CF2FEF80E792E0E1
:10108000215080409040E1F700C0000080EC89834F
:101090008091060180FF02C080EE8983A09100014B
:1010A000B0910101E0910201F09103019E012F5FD7
:1010B0003F4F41E014966C9180810E94B91F8823B4
:1010C00009F482CF80910C01882371F182E0898339
:1010D000A0910001B0910101E0910201F0910301A2
:1010E0009E012F5F3F4F41E051966C9180810E949D
:1010F000B91F882309F468CF1982A0910001B0912B
:101100000101E0910201F09103019E012F5F3F4F29
:1011100041E015966C9180810E94B91F91E0811188
:1011200090E0892F819551CF1982D2CF84E08983B5
:101130009E012F5F3F4F41E080810E94B91F8823AD
:1011400009F442CF80910D01811104C08091060104
:1011500080FD44C080E48983A0910001B091010129
:10116000E0910201F09103019E012F5F3F4F41E0AA
:1011700014966C9180810E94B91F882309F424CFB2
:101180002FEF80E792E0215080409040E1F700C0CF
:10119000000080910C01882319F181E08983A091DE
:1011A0000001B0910101E0910201F09103019E0163
:1011B0002F5F3F4F41E051966C9180810E94B91F93
:1011C000882309F401CFA0910001B0910101E091C1
:1011D0000201F09103012BE031E09ACF80E6BBCF12
:1011E0001982DDCFCF93DF930F92CDB7DEB7209179
:1011F0000601211105C08FEF0F90DF91CF91089567
:10120000843F21E0920789F138F58A3F910599F7EB
:101210001982898186958695869590910401981703
:10122000C9F0A0910001B0910101E0910201F0919B
:1012300003019E012F5F3F4F41E016966C91808124
:101240000E94B91F8823B9F2898186958695869573
:101250008093040180E0D0CF883E23E0920741F0E4
:10126000803D974041F688E101C088E08983D1CF75
:1012700080E1FCCFCF93DF930F92CDB7DEB7909193
:101280000601911105C08FEF0F90DF91CF91089566
:10129000843069F130F58230B1F719828981869501
:1012A00086958695909105019817C9F0A091000147
:1012B000B0910101E0910201F09103019E012F5FC5
:1012C0003F4F41E017966C9180810E94B91F88239F
:1012D000D1F289818695869586958093050180E077
:1012E000D3CF883039F0803171F688E101C088E0D1
:1012F0008983D4CF80E1FCCFCF93DF930F92CDB71A
:10130000DEB720910601211105C08FEF0F90DF910C
:10131000CF9108958C3B9105F8F081E089839091FD
:10132000070189819817B1F0A0910001B0910101E6
:10133000E0910201F09103019E012F5F3F4F41E0D8
:1013400012966C9180810E94B91F8823F1F28981E5
:101350008093070180E0DACF8236910510F082E0B9
:10136000DDCF8A32910510F083E0D8CF843191052A
:1013700010F084E0D3CF0A9710F085E0CFCF86E05D
:10138000CDCF1F93CF93DF9390911D01C0E09111BA
:1013900021C0909106019923C9F0D82FDE7F1091CA
:1013A0000B019D2390930B01C1E09D1301C0C0E090
:1013B000C19580910F018D2B59F081E0C4DDDD23B3
:1013C00049F0F9DD882331F010930B01CFEF02C013
:1013D00080E0B9DD8C2FDF91CF911F910895AF92FE
:1013E000BF92CF92DF92EF92FF920F931F93CF9312
:1013F000DF9300D0CDB7DEB77C015B016A0180913D
:101400001D01882309F46BC080910601882309F42B
:1014100068C0A0910001B0910101E0910201F0913A
:1014200003019E012F5F3F4F42E01C966C9180812B
:101430000E949B1F882309F456C009811A81102736
:10144000012710270E151F0580F4F60110828CEF7E
:101450000F900F90DF91CF911F910F91FF90EF9020
:10146000DF90CF90BF90AF900895E0910201F0918E
:101470000301818192819695879580179107A8F441
:10148000A0910001B09101019E012F5F3F4F41E00B
:1014900053966C9180810E949B1F882331F1898132
:1014A00084FF03C088DD8AEFD3CFA0910001B09103
:1014B0000101E0910201F091030195014E2D1D966D
:1014C0006C9180810E949B1F882389F0C801B7011D
:1014D0000E94A42C6150F601608380E0B9CF8FEFA9
:1014E000B7CF8EEFB5CF8DEFB3CF8BEFB1CF89EF05
:1014F000AFCF1F93CF93DF930F92CDB7DEB7182FE7
:1015000080910D01811709F45CC0E0910001F09118
:1015100001016481E0910201F091030180819E014B
:101520002F5F3F4F41E0112309F44DC00E949B1FE4
:10153000811106C08FEF0F90DF91CF911F91089519
:1015400089818F7D8983A0910001B0910101E09193
:101550000201F09103019E012F5F3F4F41E014967D
:101560006C9180810E94B91F882321F38FED9EE248
:101570000197F1F700C0000082E0898380911B0190
:10158000882311F082E8898380911C01882319F057
:10159000898180638983A0910001B0910101E0916C
:1015A0000201F09103019E012F5F3F4F41E05796EA
:1015B0006C9180810E94B91F882309F4BBCF1093DE
:1015C0000D0180E0B8CF0E949B1F882309F4B2CFA1
:1015D00089819091060190FF22C080628983A09149
:1015E0000001B0910101E0910201F09103019E011F
:1015F0002F5F3F4F41E014966C9180810E94B91F8C
:10160000882309F497CF8FED9EE20197F1F700C090
:10161000000080911B01882321F080E8B4CF8F7DEA
:10162000DDCF1982B1CF1F93CF93DF930F92CDB748
:10163000DEB7182F80911C01811739F1112359F160
:1016400080E3898380910D01882319F0898182606C
:10165000898380911B01882319F08981806889839F
:10166000A0910001B0910101E0910201F09103010C
:101670009E012F5F3F4F41E057966C9180810E9401
:10168000B91F882351F010931C0180E00F90DF9167
:10169000CF911F9108951982D5CF8FEFF7CF1F9368
:1016A000CF93DF9300D0CDB7DEB7182F811123C0C1
:1016B00080E0B9DF198287E08A83A0910001B091B0
:1016C0000101E0910201F09103019E012F5F3F4F64
:1016D00042E055966C9180810E94B91F811107C02C
:1016E0008FEF0F900F90DF91CF911F91089510927F
:1016F0000F0180E0F6CF81E096DF80E28983113030
:1017000049F51A8285E090E0F7DD8A8120E4829F26
:10171000C001112487608A83A0910001B09101016A
:10172000E0910201F09103019E012F5F3F4F42E0E3
:1017300055966C9180810E94B91F882389F288E0B8
:10174000809306011092080181E080930F0180E0F0
:1017500018DECFCF163018F481E08A83D3CF15314D
:1017600028F482E08A838AE090E0CECF83E08A8307
:1017700084E190E0C9CF0F931F93CF93DF930F9233
:10178000CDB7DEB78C0180910601811107C08FEFC4
:101790000F90DF91CF911F910F91089580911D01BE
:1017A0008111F5CF80910F01882351F0C801019775
:1017B000889720F4802F73DF80E0EACF80E06FDF2E
:1017C000B801093E134010F068EE73E06430710513
:1017D00010F464E070E008EE13E0C8010E94A42C4D
:1017E00061506983A0910001B0910101E091020173
:1017F000F09103019E012F5F3F4F41E011966C91E4
:1018000080810E94B91F882309F4C1CF698170E0EB
:101810006F5F7F4FC8010E94B82C70930A016093DC
:101820000901CB019695879567DDC6CF1F93CF93AE
:10183000DF930F92CDB7DEB7182F807719F081E0D4
:10184000898303C01123E1F01982A0910001B091B6
:101850000101E0910201F09103019E012F5F3F4FD2
:1018600041E055966C9180810E94B91F81110AC098
:10187000109206018FEF0F90DF91CF911F91089585
:1018800080E4DECF89818F7B8093080116FF37C00B
:10189000198215FD03C089818260898314FD03C00C
:1018A00089818160898313FD03C08981886389836D
:1018B000A0910001B0910101E0910201F0910301BA
:1018C0009E012F5F3F4F41E056966C9180810E94B0
:1018D000B91F882369F2812F877F11F080E0A3DE92
:1018E0001093060110920F012FEF80E792E0215034
:1018F00080409040E1F700C0000080E0BCCF84E071
:101900008983C7CF1F93CF93DF9300D000D000D03F
:10191000CDB7DEB780E88983A0910001B0910101C5
:10192000E0910201F09103019E012F5F3F4F41E0E2
:1019300055966C9180810E94B91F1FEF882309F48E
:101940006FC02FEF89E698E1215080409040E1F789
:1019500000C000001982A0910001B0910101E09146
:101960000201F09103019E012F5F3F4F41E0559628
:101970006C9180810E94B91F1EEF882309F450C02A
:1019800010920E018FEF80930601809304018093E3
:101990000501809307012FEF3FEF30930A01209359
:1019A000090180930B0180930D0181E08093080170
:1019B00080931B0110921C011092100110920F01D4
:1019C000E1E1F1E08AE0DF011D928A95E9F71092EA
:1019D0001D0110921E011092200110921F0180ED36
:1019E00097E000DC12EE81111BC082E043DC11EEB7
:1019F000811116C08AE290E07FDC10EE811110C0E8
:101A000082E390E0B8DE1FED81110AC0BADC1EED62
:101A1000811106C06EDD182F81110DC080E006DF38
:101A2000812F26960FB6F894DEBF0FBECDBFDF9193
:101A3000CF911F9108951CEFF3CFEF92FF920F9378
:101A40001F93CF93DF9300D0CDB7DEB78B017A0120
:101A5000452B51F48FEF0F900F90DF91CF911F9195
:101A60000F91FF90EF90089520910601222391F3AA
:101A7000382F292F3A832983E0910201F091030145
:101A8000860F972F911D208531852817390710F370
:101A9000A0910001B09101019E012F5F3F4F42E0F4
:101AA0005B966C9180810E94B91F882399F2A09166
:101AB0000001B0910101E0910201F0910301970151
:101AC000402F58966C9180810E94B91F91E081113E
:101AD00090E0892F8195BFCFEF92FF920F931F93D4
:101AE000CF93DF9300D0CDB7DEB78B017A01452BC2
:101AF00051F48FEF0F900F90DF91CF911F910F91C5
:101B0000FF90EF90089520910601222391F3382F42
:101B1000292F3A832983E0910201F0910301860F76
:101B2000972F911D208531852817390710F3A09133
:101B30000001B09101019E012F5F3F4F42E05B9693
:101B40006C9180810E94B91F882399F2A0910001B5
:101B5000B0910101E0910201F09103019701402F42
:101B600058966C9180810E949B1F91E0811190E0BA
:101B7000892F8195BFCF4F925F926F927F928F9204
:101B80009F92AF92BF92CF92DF92EF92FF920F930C
:101B90001F93CF93DF93CDB7DEB7A2970FB6F8941C
:101BA000DEBF0FBECDBF5C014B016A0139018091E0
:101BB0001E01811104C010E000E0672B99F58FEF42
:101BC00054C07501E01AF10A81E1E816F10418F039
:101BD00080E1E82EF12CF401E00FF11FDE011196F7
:101BE000C7018A0F9B1F2D01A817B90709F054C020
:101BF000A201B701C80121DF811152C0AE014F5EC1
:101C00005F4FB701C80168DF81114CC0A701BE0159
:101C10006F5E7F4FC2010E94152E892B09F044C0D0
:101C20000E0D1F1D0A151B0560F2DC24CD24DC24DB
:101C3000DAA2C9A2A0910001B0910101E0910201D4
:101C4000F09103019E012F5D3F4F42E05D966C9144
:101C500080810E94B91F882349F181E080931E0191
:101C60007092200160921F0180E0A2960FB6F89456
:101C7000DEBF0FBECDBFDF91CF911F910F91FF90BF
:101C8000EF90DF90CF90BF90AF909F908F907F901C
:101C90006F905F904F90089524912D933196A4CF2B
:101CA0008EEFE3CF8DEFE1CF8CEFDFCF8BEFDDCF8A
:101CB000CF93DF930F92CDB7DEB790911D019817A8
:101CC00009F1882321F180911E018823A1F180E090
:101CD0003AD980E00EDC80911F01909120014BDD0C
:101CE0001982E0910201F09103019E012F5F3F4FA5
:101CF00041E063E280810E94B91F81E080931D0171
:101D000022D959D980E00F90DF91CF91089580E0DA
:101D10001AD980910B018983E0910201F0910301AE
:101D20009E012F5F3F4F41E063E280810E94B91F17
:101D300010921D01E6CF8FEFE6CFCF92DF92EF92A8
:101D4000FF920F931F93CF93DF937C01EA018901E8
:101D5000CF2CDD246E2D8C2D0E944817009779F52D
:101D600023E0C216D10469F4FF24E2E0EE16F10488
:101D700009F436C048F4E114F104B1F0EA94EF2814
:101D800039F130E020E017C0E3E0EE16F10481F114
:101D9000FEEEEF16F104A9F7E8E9F1E0E4918E2FE9
:101DA00090E028E931E007C0EEEDF1E0E4918E2FFC
:101DB00090E02EED31E0F801108239832883DF9125
:101DC000CF911F910F91FF90EF90DF90CF900895EA
:101DD000E8ECF1E0E4918E2F90E028EC31E0EBCFDD
:101DE000E4EBF1E0E4918E2F90E024EB31E0E3CFDF
:101DF000EAEAF1E0E4918E2F90E02AEA31E0DBCFCD
:101E0000F89488E198E00FB6F894A8958093600064
:101E10000FBE90936000FFCF87E797E7909301088C
:101E200080930008EDDF4CE450E060E070E08CE26D
:101E300093E00C94322EBF92CF92DF92EF92FF92FA
:101E40000F931F93CF93DF93EB0162E3C62E63E002
:101E5000D62E10E000E0EE24E394F12CF6018191FF
:101E60006F018F3FC9F0B0904B030830110508F4A3
:101E7000B12C0E94E41DA701002E02C0440F551F83
:101E80000A94E2F728813981B816190609F0B1C021
:101E9000242B352B398328830F5F1F4F0031110509
:101EA000E9F6809144038F3FC9F00E94001E9250D2
:101EB00020914F0341E050E0222311F04FEF5FEFFC
:101EC000849F9001859F300D949F300D112456E022
:101ED000220F331F5A95E1F73D832C8380914503F0
:101EE0008F3FC9F00E94001E92502091500341E0A4
:101EF00050E0222311F04FEF5FEF849F9001859F08
:101F0000300D949F300D112446E0220F331F4A9567
:101F1000E1F73F832E83809146038F3FC9F00E94F3
:101F2000001E92502091510341E050E0222311F015
:101F30004FEF5FEF849F9001859F300D949F300D90
:101F4000112496E0220F331F9A95E1F739872887ED
:101F5000809147038F3FC9F00E94001E925020914C
:101F6000520341E050E0222311F04FEF5FEF849FD6
:101F70009001859F300D949F300D112486E0220F33
:101F8000331F8A95E1F73B872A87809142038F3F71
:101F900089F00E94001E9C01325080914D0391E017
:101FA00081119FEF929F902D11249295990F990F77
:101FB000907C9A83809143038F3F89F00E94001E9A
:101FC0009C01325080914E0391E081119FEF929FCE
:101FD000902D11249295990F990F907C9B83DF91FE
:101FE000CF911F910F91FF90EF90DF90CF90BF9016
:101FF000089540955095242335234CCFEF92FF92BE
:102000001F93CF93DF9380914B0312E0811111E076
:1020100082E3E82E83E0F82ED0E0C0E0F701819162
:102020007F018F3F39F0612FC830D10508F462E09D
:102030000E94241E2196C031D10581F7809144036E
:102040008F3F19F061E00E94241E809145038F3F6D
:1020500019F061E00E94241E809146038F3F19F021
:1020600061E00E94241E809147038F3F19F061E0D8
:102070000E94241E809142038F3F19F061E00E946C
:10208000241E809143038F3F41F061E0DF91CF91A7
:102090001F91FF90EF900C94241EDF91CF911F9120
:1020A000FF90EF9008950F931F93CF93DF93EC0170
:1020B0008D859E85009709F453C08E010F5F1F4FD9
:1020C000DC01ED91FC910280F381E02DB8010995CE
:1020D00080914C038823E9F189819A81837F9A83D7
:1020E00089834D815E81209155033091560331954E
:1020F00021953109421753071CF484609A83898320
:102100008091550390915603841795072CF489818B
:102110009A8188609A8389832F81388580915503BD
:1021200090915603919581959109281739072CF4C0
:1021300089819A8182609A838983809155039091E5
:102140005603821793072CF489819A8181609A83C0
:102150008983B801CE01DF91CF911F910F91C4C047
:10216000DF91CF911F910F910895CF93DF93EC01F1
:1021700080912E03813041F586E090E00E94EB2CA7
:10218000FC0113821282158214828DE092E0918309
:102190008083FE87ED878D859E85DC01ED91FC9126
:1021A0000190F081E02D099580912E03813021F07E
:1021B00080912F03813011F40E94701E0E94611ED5
:1021C000CE01DF91CF9111C0823061F482E090E0C6
:1021D0000E94EB2C25E032E0DC012D933C939E879E
:1021E0008D87D9CFDF91CF91089580912F038130D2
:1021F00009F073C02FEF63ED70E321506040704031
:10220000E1F700C000008FE090E00E94421B892BA4
:10221000D1F79091480338EF390F343050F082EF06
:10222000890F843030F086EE890FF0E0E0E08330F3
:1022300010F4EBE6F0E020813430F0F581E0692F16
:102240006450770B01C0880F6A95EAF7822B34300F
:1022500048F022EF290F243028F09A51F0E0E0E016
:10226000933010F4EBE6F0E080838091480328EF90
:10227000280F243050F092EF980F943030F096EE03
:10228000980FF0E0E0E0933010F4E8E6F0E09081A1
:10229000243048F022EF280F243028F08A51F0E053
:1022A000E0E0833010F4E8E6F0E09160908362E0D3
:1022B000809148030C94241E88E09E3039F282E01D
:1022C0009F3021F284E0903109F281E0913109F4EC
:1022D000BDCF692F6651770BB5CF823021F462E014
:1022E00080914703E7CF0895CF92DF92EF92FF925C
:1022F000CF93DF93EB0180912F03813009F088C0E9
:1023000080915E02882309F462C010925E020E94EE
:10231000D91BE0904903F0904A03F701F695E79541
:10232000EE0FFF1FEE0FFF1FEF54FD4F20EE38EFB3
:1023300042EA56E460817181828193810E94A92AD8
:102340000E946A29E0FE07C090958095709561957E
:102350007F4F8F4F9F4F611520E8720781059105D0
:102360006CF0CC24CA94DC2CE12CF12CA701960152
:10237000261B370B480B590BCA01B9010E949D2936
:102380002DEC3CEC4CE85FE30E940C2B0E946A2988
:1023900097FD18C06B017C01C11430E8D306E1043D
:1023A000F10434F0CC24CA943FE7D32EE12CF12C75
:1023B000C701B6010E949D299B01AC010E949D2B83
:1023C000882319F0C12CD12C7601DB86CA8648857A
:1023D0005985052E000C660B770BDB01CA01880FAF
:1023E000991FAA1FBB1F76FD26C0811550E89507CF
:1023F000A105B10524F08FEF9FE7A0E0B0E0998739
:102400008887DF91CF91FF90EF90DF90CF90089574
:102410008230E9F6809147030E94E41D2FEF3FE7E9
:10242000AC01429FC001439F900D529F900D11241B
:102430009B878A87CCCF90E080E0E1CF8F9381E0CB
:1024400080935E028F91189508950F93CF93DF9339
:1024500000D000D000D0CDB7DEB701E09E012F5FE5
:102460003F4F46E06AEF82E50E947C1F898182959A
:102470008F7090E0982F88279295907F2D8130E083
:10248000322F222722273F70822B932B2E81822BE3
:1024900026960FB6F894DEBF0FBECDBFDF91CF9169
:1024A0000F910895CF93DF93EC0145E560EF82E54E
:1024B0000E94AA1F45E34A95F1F7000040E06BEF48
:1024C00082E50E94AA1F85E38A95F1F70000CE01FC
:1024D000BCDF9D838C839C013F7E2130314019F00D
:1024E0009E7F039749F443E06EEF82E50E94AA1FA6
:1024F00085E38A95F1F70000DF91CF910895680F89
:10250000792F711D2FEF30E08617970731F0FC010E
:102510004191CF01342B2423F7CF332319F081E0ED
:102520002F3F09F480E00895CF92DF92EF92FF925F
:102530000F93CF93DF93CDB7DEB728970FB6F894FC
:10254000DEBF0FBECDBF6C017B0101E09E012F5F9E
:102550003F4F48E060E082E50E947C1F68E0CE01CA
:102560000196CDDF811110C0C6019CDF28960FB601
:10257000F894DEBF0FBECDBFDF91CF910F91FF90DA
:10258000EF90DF90CF90089589818058990BF701E3
:10259000148285838B818058990B168287838E8164
:1025A000F601248135813E7F23303105E9F58058DD
:1025B000990B092E000CAA0BBB0B4427582F692F2F
:1025C0007A2FA7FF03C040E050E0BA01F70151871E
:1025D0004087CF80D88422E030E061E070E0D9010C
:1025E000AD5DBE4F8C918F3FC9F0F701A081B181E5
:1025F000AB0102C0440F551F8A95E2F7CA01AB0137
:10260000022E02C0440F551F0A94E2F74C215D21AF
:10261000452BC9F48A2B9B2B918380832F5F3F4FDF
:1026200020313105E1F6A2CF2A812058330BF70182
:10263000108621872C812058330B128623879D8199
:1026400092838383C6CF809590958A239B23E4CF82
:1026500008950F931F93613069F0AC014E5F5F4F97
:1026600081E390E0623059F060E050E040E090E0BB
:1026700080E005C060E04AE052E082E190E0F801CD
:102680006083F901518340831F910F910895FC01EC
:10269000ACE2B3E014964C91149715963C9129E066
:1026A000228392E0938361E370E07583648381E029
:1026B00086838783108650E251875AEF528723879B
:1026C00054E054871586168697872FEF208B2DE5CB
:1026D000218B828B138A21E1248B21E2258B20E13F
:1026E000268B878B408F85E2818F41E8428F24E1E2
:1026F000238F83E0848F858F868F578F53E150A37C
:1027000091A358E052A383A384A377E075A365E067
:1027100066A347A380A740E250E052A741A733A792
:1027200074A765A796A787A751AB40AB32ABEFE57F
:10273000F2E0DF01822F1D928A95E9F721830E9442
:10274000A5257894089542E261EC81E00E94672417
:1027500042E261EC83E00C946724CF92DF92EF9227
:10276000FF920F931F93CF93DF93CDB7DEB72C97D4
:102770000FB6F894DEBF0FBECDBFC982DA82EB82FE
:10278000FC820D831E832F83388749875A876B8786
:102790007C870E940628A89580917C038430E9F408
:1027A00081E08093E9008091E80080FF16C08CE012
:1027B000FE013196A1E6B2E001900D928A95E1F713
:1027C00050E040E064E170E08FE592E00E94AB22CF
:1027D0008091E8008E778093E8002C960FB6F894ED
:1027E000DEBF0FBECDBFDF91CF911F910F91FF9044
:1027F000EF90DF90CF900895CF93DF93EBEEF0E072
:10280000208120612083C8EED0E02881277F2883A3
:1028100070E00E94F92288818B778883DF91CF91C5
:102820000895CF93DF93CDB7DEB764970FB6F894D2
:10283000DEBF0FBECDBF80917E03813061F080325C
:1028400009F462C064960FB6F894DEBF0FBECDBF28
:10285000DF91CF91089580917D03813A81F4809139
:10286000E800877F8093E80064E170E08FE592E004
:102870000E94F9228091E8008B778093E800809194
:10288000830390918403049781F48091A90190912E
:10289000AA01A091AB01B091AC0189839A83AB836B
:1028A000BC8364E0CE010196A7DF80918303909101
:1028B0008403089779F480917D03813C19F628E020
:1028C000CE010196FC01322F11923A95E9F72A8345
:1028D00068E092DF8091830390918403449709F02C
:1028E000B1CF80917D03813C09F0ACCF84E1EDEA6A
:1028F000F1E0DE01119601900D928A95E1F764E115
:10290000CE01019679DF9ECF80917D03982F907E36
:10291000903C09F097CF90918103943009F092CFC9
:102920008F7109F08FCF8091E800877F8093E80056
:1029300068E270E082EE91E00E9494238091E800CA
:102940008B778093E8007ECF83E391E0089580E465
:1029500090E00895EF92FF920F931F93A4E7B2E0E7
:10296000F80132968091730290E08C589D4FA81721
:10297000B90719F02D912193FACF88E090E0F70183
:102980009183808380E01F910F91FF90EF900895D5
:102990000F931F934CE152E0D9014D935C93F801E2
:1029A0001082DC01ED91FC910288F389E02D1F91EA
:1029B0000F9109946F927F928F929F92AF92BF92E4
:1029C000CF92DF92EF92FF920F931F93CF93DF93FB
:1029D000CDB7DEB72C970FB6F894DEBF0FBECDBFD4
:1029E0004C01C982DA82EB82FC820D831E832F8325
:1029F000388749875A876B877C87AD80BE80CF80B8
:102A0000D884E984FA840B851C850E940628A89541
:102A100029813A81A7E5B3E0712C90E080E041E0A4
:102A200050E06D90662089F0BA01082E02C0660F52
:102A3000771F0A94E2F762237323672B31F0E72DA7
:102A4000F0E0EC58FD4F608273940196803191055F
:102A500041F77092730220916803222399F08091CC
:102A6000550390915603919581959109A816B90641
:102A70004CF481E0870D80937302E72DF0E0EC5871
:102A8000FD4F208380916903882389F020915503AD
:102A9000309156032A153B0554F4E091730291E0FE
:102AA0009E0F90937302F0E0EC58FD4F80832091CD
:102AB0006A032223A1F080915503909156039195CA
:102AC00081959109C816D90654F4E091730281E00A
:102AD0008E0F80937302F0E0EC58FD4F20838091BD
:102AE0006B03882389F020915503309156032C15F0
:102AF0003D0554F4E091730291E09E0F90937302B0
:102B0000F0E0EC58FD4F808320916C032223A1F06C
:102B10008091550390915603919581959109E816FE
:102B2000F90654F4E091730281E08E0F80937302F2
:102B3000F0E0EC58FD4F208380916D03882389F0ED
:102B400020915503309156032E153F0554F4E09122
:102B5000730291E09E0F90937302F0E0EC58FD4FEA
:102B6000808320916E032223A1F0809155039091E0
:102B700056039195819591090817190754F4E0912E
:102B8000730281E08E0F80937302F0E0EC58FD4FEA
:102B9000208380916F03882389F020915503309121
:102BA00056032017310754F4E091730291E09E0F11
:102BB00090937302F0E0EC58FD4F808380916603A0
:102BC000882399F09B8120915303309154039217ED
:102BD000130659F054F0E091730291E09E0F909328
:102BE0007302F0E0EC58FD4F8083809167038823E7
:102BF00099F09C812091530330915403921713064E
:102C000059F054F0E091730291E09E0F909373029B
:102C1000F0E0EC58FD4F8083F401828193812C9683
:102C20000FB6F894DEBF0FBECDBFDF91CF911F91DD
:102C30000F91FF90EF90DF90CF90BF90AF909F905B
:102C40008F907F906F900C94EF210895DC01129685
:102C5000ED91FC9186859785009719F001979787EC
:102C6000868708950F931F936230E1F060F44CE57E
:102C700052E082E190E0613021F050E040E090E0ED
:102C800080E060E014C06132C1F06232B1F7DC0173
:102C9000ED91FC910688F789E02D62E209951F917C
:102CA0000F910895AC014C5F5F4F82E290E0F90113
:102CB00051834083D8016C93F2CFAC014A5E5F4FE1
:102CC00089E090E062E0F3CFCF93DF93EC01E881FD
:102CD000F9810088F189E02D09959B838A83E88139
:102CE000F9810288F389E02DCE01099539E03C8312
:102CF00022E02D8342E250E05F834E8321E028876B
:102D000029871A8640EC4B874AEF4C873D8744E081
:102D10004E871F86188A298B43E04A8B1B8A1C8AA0
:102D20001D8A3E8B31E23F8B61E171E0798F688FC4
:102D30001A8E2B8F32E23C8F9E8F8D8F87E08F8F84
:102D400085E088A381E889A34AA388E090E09CA35A
:102D50008BA32DA30E94A5257894DF91CF91089590
:102D6000FC01828193810E94DC21E2EEF0E080810F
:102D7000846080830895FC01828193810C94A72054
:102D80000895EF92FF920F931F93A0918202B0914A
:102D90008302ED91FC9111970488F589E02D78016B
:102DA0008901242FAB01BC01CD0109951F910F9121
:102DB000FF90EF900895CF92DF92EF92FF920F93E2
:102DC0001F93CF93DF93EB018881998180739927BB
:102DD000C09709F421D88091820290918302DC018E
:102DE000ED91FC910280F381E02DC880D980EA80CA
:102DF000FB800C811D812E813F81488559856A8524
:102E00007B850995DF91CF911F910F91FF90EF90F6
:102E1000DF90CF90089580912D038130E9F483E312
:102E200090E00E94EB2C23E3DC011D922A95E9F748
:102E300025E132E0FC01318320839093830280936B
:102E400082028091820290918302DC01ED91FC91DB
:102E50000190F081E02D0994833061F486E290E0E6
:102E60000E94EB2C26E2DC011D922A95E9F725E46D
:102E700032E0E0CF823029F786E290E00E94EB2C2E
:102E800026E2DC011D922A95E9F729E232E0D2CF51
:102E90000F931F93A0918202B0918302ED91FC9158
:102EA00011970684F785E02D89019A01462F682F36
:102EB000CD0109951F910F91089580918202909103
:102EC0008302DC01ED91FC910480F581E02D0994F1
:102ED0008091820290918302DC01ED91FC91068049
:102EE000F781E02D09948091820290918302DC01A8
:102EF000ED91FC910084F185E02D099480917E0391
:102F0000803311F40E940C0F809182029091830211
:102F1000DC01ED91FC910284F385E02D0994809110
:102F2000820290918302DC01ED91FC910484F5858D
:102F3000E02D099482E390E0089583E491E0089500
:102F4000EF92FF920F931F938CE0E4E8F2E0D80138
:102F500001900D928A95E1F786E090E0F701918368
:102F6000808380E01F910F91FF90EF9008950F9361
:102F70001F934EE652E0D9014D935C93F801108205
:102F8000DC01ED91FC910288F389E02D1F910F91F6
:102F90000994AF92BF92CF92DF92EF92FF920F937C
:102FA0001F93CF93DF93CDB7DEB72C970FB6F8946E
:102FB000DEBF0FBECDBF5C01C982DA82EB82FC822C
:102FC0000D831E832F83388749875A876B877C87B9
:102FD0000E940628A8958CE0FE013196A4E8B2E094
:102FE00001900D928A95E1F7F501828193812C96EB
:102FF0000FB6F894DEBF0FBECDBFDF91CF911F910A
:103000000F91FF90EF90DF90CF90BF90AF900C9416
:10301000EF2128EC30E040E054E060EA72E086EF17
:103020009BE00C94BB0D0F931F93CF93DF93CDB711
:10303000DEB764970FB6F894DEBF0FBECDBF8C012C
:103040008CE0EDECF1E0DE01119601900D928A9595
:10305000E1F7093C110560F08FEF64960FB6F89424
:10306000DEBF0FBECDBFDF91CF911F910F910895AD
:103070001D8688EC90E0B8010E94A42C6150710973
:103080006E87AE01435F5F4F62E070E086E192E0E1
:103090000E941D0D8111E0CFAE014F5F5F4F6CE0CC
:1030A00070E081EC9AE00E941D0D8111D5CF109344
:1030B0009F0200939E02D1CFCF93DF93CDB7DEB7AF
:1030C00029970FB6F894DEBF0FBECDBF8823D9F085
:1030D00089E0E9EDF1E0DE01119601900D928A950B
:1030E000E1F7AE014F5F5F4F69E070E088EB94E07D
:1030F0000E941D0D29960FB6F894DEBF0FBECDBFFE
:10310000DF91CF91089589E0E2EEF1E0E4CFCF9333
:10311000DF9300D000D0CDB7DEB78823D1F080ECAC
:10312000898382EC8A8384EC8B8386EC8C83AE016A
:103130004F5F5F4F64E070E088E99AE00E941D0DE8
:103140000E94DB070F900F900F900F90DF91CF91AF
:10315000089544E050E06BE870E0CE0101960E94D3
:103160002B2EE5CFCF93DF9300D000D0CDB7DEB7C5
:103170008823D1F080E2898388E28A8380E38B838D
:1031800088E38C83AE014F5F5F4F64E070E08EE9AF
:103190009AE00E941D0D0E94DB070F900F900F9088
:1031A0000F90DF91CF91089544E050E063EA70E022
:1031B000CE0101960E942B2EE5CFAF92BF92CF9207
:1031C000DF92EF92FF920F931F93CF93DF93CDB7D0
:1031D000DEB72A970FB6F894DEBF0FBECDBF8C01C5
:1031E00082E089838AEC8A8383EE8B8389E08C83F7
:1031F000AE014F5F5F4F64E070E088E690E00E94B0
:103200001D0D83EA8983580190E4A922BB2406FF9F
:103210008CC080EC8A8388EC8B8382EC8C83680181
:1032200080E8C82281E0D822C114D10409F480C00A
:1032300084EC8D838CEC8E8386EC8F8383EA888785
:1032400089878A87AE014F5F5F4F6AE070E087EA47
:103250009AE00E941D0D780193E0E922FF2480E2AC
:10326000E114F10409F488ED8983AE014F5F5F4FEB
:1032700061E070E086EB9AE00E941D0D81E005FFA1
:1032800080E01ADFC114D10499F010FF55C082EB21
:1032900089838BE88A8386EB8B838BE98C83AE01F1
:1032A0004F5F5F4F64E070E082EA9AE00E941D0D7C
:1032B00081E002FF80E02BDF81E004FF80E052DF4D
:1032C000C801886090939D0280939C020E94DB0756
:1032D000AB28D1F51092A002CD2829F08091A00250
:1032E0008A5F8093A00204711127012B29F080913D
:1032F000A002805F8093A002EF2829F08091A002B5
:103300008C5F8093A00280E02A960FB6F894DEBF0F
:103310000FBECDBFDF91CF911F910F91FF90EF9026
:10332000DF90CF90BF90AF9008958A838B8376CF44
:1033300083EA8D838E8381CF80EB898380E88A83C3
:1033400084EB8B8380E9AACF86E08093A002C4CF70
:10335000CF93DF93CDB7DEB766970FB6F894DEBF95
:103360000FBECDBF9BE0EBEEF1E0DE011C960190BD
:103370000D929A95E1F79BE0E6EFF1E0DE01119600
:1033800001900D929A95E1F7813039F0AE01445FDA
:103390005F4F823029F08FEF09C0AE014F5F5F4F62
:1033A0006BE070E082E89AE00E941D0D66960FB611
:1033B000F894DEBF0FBECDBFDF91CF9108952F925D
:1033C0003F924F925F926F927F928F929F92AF92B5
:1033D000BF92CF92DF92EF92FF920F931F93CF9302
:1033E000DF93CDB7DEB7A8970FB6F894DEBF0FBE58
:1033F000CDBF9EA38DA378A76FA35AA349A3A7010E
:10340000D8011D921C928091A002BE016F5F7F4F78
:1034100090E00E94EF09E82F8823F1F08AE0E89F0E
:10342000E02D11248E2FA8960FB6F894DEBF0FBEA4
:10343000CDBFDF91CF911F910F91FF90EF90DF9063
:10344000CF90BF90AF909F908F907F906F905F9044
:103450004F903F902F90089520909C0230909D02B5
:10346000C10184719927892B09F40AC169817A8184
:103470008B819C810E94CB2C4B015C01A9A1BAA13C
:103480008D929D92AD92BC9213976D817E818F81BA
:1034900098850E94CB2C2B013C0114964D925D9295
:1034A0006D927C92179769857A858B859C850E94A1
:1034B000CB2C9B01AC0118962D933D934D935C93BF
:1034C0001B976D857E858F8598890E94CB2C6B011B
:1034D0007C011C96CD92DD92ED92FC921F97B50176
:1034E000992777FD9095892F2301772457FC7094B5
:1034F000672C4A01BB2497FCB094AB2C6701FF24D6
:10350000D7FCF094EF2C9B01AC010E94952C69A391
:103510007AA38BA39CA3A3019201C301B2010E94D1
:10352000952C49A05AA06BA07CA0460E571E681E81
:10353000791EA5019401C501B4010E94952C460E87
:10354000571E681E791EA7019601C701B6010E9489
:10355000952C460E571E681E791EBFE07B1AF1E0BF
:103560004F1651046104F2E07F0638F00E94DB0739
:10357000D8011D921C92EEEF55CFD8018D919C91F0
:10358000119791608D939C9380E126FE3BC0282F7C
:1035900030E0A1E0B0E0AC0FBD1FA20FB31F9C91C3
:1035A000DE01A20FB31F12964C91592FAFA1B8A5FF
:1035B0004D935C93DE01A20FB31F13969C91DE0125
:1035C000A20FB31F14964C91592FAFA1B8A5139613
:1035D0005C934E931297DE01A20FB31F15969C9138
:1035E000159716962C91392FAFA1B8A515963C9337
:1035F0002E9314978A5FD8012D913C9111972860E2
:103600002D933C93910120783170232B09F40ACF3C
:1036100090E0A1E0B0E0AC0FBD1FA80FB91F3C9136
:10362000DE01A80FB91F12962C91ADA1BEA12D935A
:103630003C93DE01A80FB91F13963C91DE01A80F41
:10364000B91F14962C91ADA1BEA113963C932E9355
:103650001297DE01A80FB91F15962C911597169693
:103660008C91922FADA1BEA115969C938E93149729
:10367000D8018D919C91119780678D939C93D2CEA8
:1036800080E083CFCF93DF93EC0190E080E00E9455
:10369000820C082E000C990B9093CD028093CC02E3
:1036A00088E70E94160C2091CC023091CD02280FA1
:1036B000311D87FD3A953093CD022093CC0280EDE9
:1036C00097E00E94F2082091CC023091CD02280FA1
:1036D000311D87FD3A953093CD022093CC0282E0D4
:1036E0000E943A092091CC023091CD02280F311D61
:1036F00087FD3A953093CD022093CC0288E70E9453
:10370000C1092091CC023091CD02280F311D87FDD7
:103710003A953093CD022093CC027BDC2091CC02F1
:103720003091CD02280F311D87FD3A953093CD029F
:103730002093CC02CE0177DC2091CC023091CD02D7
:10374000280F311D87FD3A953093CD022093CC028E
:1037500081E00E94580E2091CC023091CD02280FBA
:10376000311D87FD3A953093CD022093CC0280E144
:1037700090E023DD2091CC023091CD02280F311D45
:1037800087FD3A953093CD022093CC0282E0E0DDB4
:103790002091CC023091CD02A901480F511D87FD27
:1037A0005A95CA015093CD024093CC02DF91CF913C
:1037B00008954F925F926F927F928F929F92AF92F5
:1037C000BF92CF92DF92EF92FF920F931F93CF930E
:1037D000DF93CDB7DEB766970FB6F894DEBF0FBEA6
:1037E000CDBF89ECE82E82E0F82E0AEC12E030E042
:1037F00020E041EA52E070E060E090E080E0DFDD50
:10380000282F880F330B3E8B2D8B3093CD022093C6
:10381000CC02232B09F0E1C06091A1027091A202B9
:103820008091A3029091A4020E949D2920E030E0A3
:1038300040E850E30E94A92A6B017C01C092A102DA
:10384000D092A202E092A302F092A4026091A5029B
:103850007091A6028091A7029091A8020E949D29D2
:1038600020E030E040E850E30E94A92A6D837E8387
:103870008F8398876093A5027093A6028093A70216
:103880009093A8026091A9027091AA028091AB0264
:103890009091AC020E949D2920E030E040E850E386
:1038A0000E94A92A4B015C018092A9029092AA026F
:1038B000A092AB02B092AC026091AD027091AE02E8
:1038C0008091AF029091B0020E949D2920E030E0EB
:1038D00040E850E30E94A92A2B013C014092AD022E
:1038E0005092AE026092AF027092B002AC019B01A6
:1038F0006D817E818F8198850E94A92A69837A8350
:103900008B839C83A5019401C701B6010E94A92A5B
:103910009B01AC0169817A818B819C810E94202866
:1039200069837A838B839C8325EE32EF4FEF5EE3CE
:103930000E949E2A18160CF069C0A7019601C501C5
:10394000B4010E94AB289B01AC010E942128609326
:10395000B9027093BA028093BB029093BC028BEDC4
:103960009FE0A9ECBFE38093B5029093B602A093C9
:10397000B702B093B8021092B1021092B202109244
:10398000B3021092B402C090B902D090BA02E09093
:10399000BB02F090BC022BED3FE049E450ECC701C4
:1039A000B6010E94FE282BED3FE049E450E487FF7A
:1039B000FBC0C701B6010E9421282BED3FE049E47E
:1039C00050E40E9421286B017C01C092B902D09280
:1039D000BA02E092BB02F092BC028D899E89669683
:1039E0000FB6F894DEBF0FBECDBFDF91CF911F9110
:1039F0000F91FF90EF90DF90CF90BF90AF909F908E
:103A00008F907F906F905F904F90089525EE32EFEA
:103A10004FEF5EEB69817A818B819C810E94FE2849
:103A200087FF19C0A7019601C501B4010E94AB2808
:103A300020E030E040E050EC0E94A92A6093B902F7
:103A40007093BA028093BB029093BC028BED9FE00F
:103A5000A9ECBFEB88CFA3019201C301B2010E9480
:103A6000A92A69877A878B879C87A7019601C70156
:103A7000B6010E94A92A29853A854B855C850E945A
:103A800021289B01AC010E9421289B01AC0160E030
:103A900070E080E89FE30E9420286D877E878F87F3
:103AA000988B2D813E814F815885C701B6010E94B8
:103AB000A92A698B7A8B8B8B9C8BA3019201C50100
:103AC000B4010E94A92A9B01AC0169897A898B897A
:103AD0009C890E9421289B01AC010E9421282D85F0
:103AE0003E854F8558890E94AB286093B902709338
:103AF000BA028093BB029093BC0229813A814B8128
:103B00005C81CA01B9010E9421280E948528609326
:103B1000B5027093B6028093B7029093B802A501E4
:103B20009401C501B4010E94A92A29853A854B85D3
:103B30005C850E9421289B01AC010E9421289B01E9
:103B4000AC0160E070E080E89FE30E942028698378
:103B50007A838B839C83A50194016D817E818F8103
:103B600098850E94A92A4B015C01A3019201C7011B
:103B7000B6010E94A92A9B01AC01C501B4010E94B3
:103B800020289B01AC010E94212829813A814B8188
:103B90005C810E94AB286093B1027093B202809363
:103BA000B3029093B402EFCEC701B6010E949E2AE1
:103BB00018160CF00ACF2BED3FE049E450E4C701A2
:103BC000B6010E942028FFCE90E0FC01EE55F14F97
:103BD0002491FC01EF53F14FE491EE2371F0F0E0FA
:103BE000EE0FFF1FE052F14FA591B491EC91E2234B
:103BF00081E090E021F480E0089580E090E0089575
:103C0000823108F08251E82FF0E0EA56F14FE4915A
:103C100090917B008E2F880F880F80729F7D892B5B
:103C200080937B00E770E064E0937C0080917A00F1
:103C3000806480937A0080917A0086FDFCCF809129
:103C40007800909179000895CF93DF9390E0FC0184
:103C5000EE55F14F24918F53914FFC0184918823AD
:103C6000D1F090E0880F991FFC01E450F14FA5912D
:103C7000B491FC01E251F14FC591D491613071F4DE
:103C80009FB7F8948C91209582238C938881282368
:103C900028839FBF7894DF91CF910895623051F4CB
:103CA0009FB7F8943C91822F809583238C93E88171
:103CB0002E2BEECF8FB7F894EC912E2B2C938FBF39
:103CC000E9CFEAE7F0E080818460808380818260D0
:103CD0008083808181608083808180688083089573
:103CE000E6E1F3E010828FEF818312821092B90037
:103CF00082E18093B80085E08093BC0078940895B9
:103D0000909116039D7F81E009F080E008950F9364
:103D10001F93CF93DF93182FD92FC62F042F81E045
:103D20006132E0F5EDDF811105C085E08A95F1F79C
:103D30000000F8CF00931803E12FFD2FAEECB2E0A6
:103D4000D0E09E0122533D4FA217B30719F0819195
:103D50008D93FACFD0931303C093120310920F03E5
:103D600010920E03809116038230E9F481E0809373
:103D7000160380910E0390910F039C012F5F3F4F1C
:103D800030930F0320930E0382539D4FFC018081DB
:103D90008093BB0085E88093BC0080E0DF91CF91E9
:103DA0001F910F91089581E08093160385EAF3CF68
:103DB000EF92FF920F931F93CF93DF93CDB7DEB7B0
:103DC000E82F0DB71EB7A22FB0E0CD010296EDB6D9
:103DD000FEB6E81AF90A0FB6F894FEBE0FBEEDBEA5
:103DE0008DB79EB70196F0E07F01EE0CFF1CEDB79A
:103DF000FEB7E182FC016183FA014DB75EB74D5F0A
:103E00005F4FBD016E0F7F1FE617F70729F0319155
:103E1000DA013D93AD01F8CF62E0620F40E077DF59
:103E20006FDF811105C0B5E0BA95F1F70000F8CF5A
:103E300081E00FB6F8941EBF0FBE0DBFDF91CF918A
:103E40001F910F91FF90EF900895CF93DF930F9202
:103E5000CDB7DEB76032A8F41092110310921003B0
:103E600070E07093150360931403880F8160898359
:103E700061E0CE0101964BDF81E00F90DF91CF91A1
:103E8000089580E0FACFFF920F931F93CF93DF93B3
:103E900000D0CDB7DEB7182F042FF22E90E0880F98
:103EA000991F89836A8340E062E0CE0101962FDF8B
:103EB000FF2031F08FE193E00197F1F700C000009F
:103EC0001FDF811104C095E09A95F1F7F8CF40E02B
:103ED000602F812FBADF14DF811105C085E08A953C
:103EE000F1F70000F8CF81E00F900F90DF91CF91B4
:103EF0001F910F91FF9008950F931F93CF93DF931E
:103F0000C42F122FD32F202FBEDFE12FFD2F90E0E3
:103F100080E04C2F50E0841795073CF4DC01A2515F
:103F2000BD4F2C9121930196F6CF8C2FDF91CF912D
:103F30001F910F9108950F9300E0DEDF0F91089518
:103F4000942FA901292F34DF91E0811101C090E065
:103F5000892F0895CF93DF930F92CDB7DEB74983B2
:103F60009E012F5F3F4F41E0EBDF0F90DF91CF913C
:103F70000895E6CF8091B900887F883261F1B8F466
:103F8000803109F4A1C030F4882309F4A1C088303D
:103F900011F108958831E1F0803281F480911803A5
:103FA000882309F48BC08091B900887F7CC080345D
:103FB000A1F128F4803391F3883381F3089580359B
:103FC00009F441C0883509F458C08834B9F7E6CF00
:103FD00083E08093160320910E0330910F038091AC
:103FE000120390911303281739070CF057C08091E2
:103FF0000E0390910F039C012F5F3F4F30930F03EF
:1040000020930E0382539D4FFC0180818093BB005F
:1040100088EF8093170385E813C084E0809316032C
:104020008091140390911503019720911003309112
:1040300011032817390764F788EF8093170385EC7D
:104040008093BC00BBCF80911003909111039C0121
:104050002F5F3F4F30931103209310034091BB001B
:1040600082519D4FFC014083809114039091150370
:1040700001972817390764F6DFCF809110039091DC
:1040800011039C012F5F3F4F3093110320931003C6
:104090002091BB0082519D4FFC0120838091180329
:1040A000882329F08FEF8093170385EAC9CF1092F8
:1040B00016038FEF8093170385E9C2CF1092160382
:1040C0008091B900887FF6CF82E08093160308952F
:1040D0001092170310921603EFCF1F920F920FB694
:1040E0000F9211242F933F934F935F936F937F937E
:1040F0008F939F93AF93BF93EF93FF933BDFFF911A
:10410000EF91BF91AF919F918F917F916F915F914F
:104110004F913F912F910F900FBE0F901F901895C8
:1041200089E193E00E94130F8AE193E00E940B174C
:104130008BE193E00E94B5108BE193E00E94531055
:104140006CE173E08AE193E00E94DB16F5CF6F9299
:104150007F928F929F92AF92BF92CF92DF92EF9217
:10416000FF920F931F93CF93DF9300D00F92CDB7A1
:10417000DEB77C01CDB6DEB68091E80083FF15C0C6
:10418000F7012081809181039091820328171906FD
:1041900061F480917E03833009F4B1C0E8F481308A
:1041A00009F45AC0823009F4F1C00FB6F894DEBEAB
:1041B0000FBECDBE0F900F900F90DF91CF911F914A
:1041C0000F91FF90EF90DF90CF90BF90AF909F90B6
:1041D0008F907F906F9008958A3009F4BDC08B3026
:1041E00009F4A6C0893009F780917D038132E9F690
:1041F0008DB69EB6009183031091840370907F0367
:10420000609080038DB79EB7801B910B0FB6F8941A
:104210009EBF0FBE8DBFEDB7FEB731965F01809197
:10422000E800877F8093E800B801CF0143D28091F6
:10423000E8008E778093E80021E0711001C020E053
:1042400030E0021B130B2A0D3B1D4FEF460D672D6F
:10425000C7010E94C0164DC080917D03813A09F0CC
:10426000A4CF8DB69EB61A82198280917F031091D9
:1042700080038B838085482F50E08DB79EB7841BC9
:10428000950B0FB6F8949EBF0FBE8DBFEDB7FEB76E
:1042900031965F0170E060E0CF010E942B2E4FEF5E
:1042A000410F8E010F5F1F4F9501BE016D5F7F4F64
:1042B000C7010E94C116F70186819781009729F0F6
:1042C000408550E0B5010E94222E1092E9008091B5
:1042D000E800877F8093E8008B8181118093F10053
:1042E00069817A81C50185D18091E8008B778093BF
:1042F000E8000FB6F8949EBE0FBE8DBE56CF8091DB
:104300007D03813A09F051CF8091E800877F809347
:10431000E8008091E80080FFFCCFF7018185809361
:10432000F1008091E8008E778093E80040D33DCF84
:1043300080917D03813209F038CF8091E800877F3A
:104340008093E80034D390917F0381E0911101C004
:1043500080E0F701818729CF80917D03813209F0C8
:1043600024CF8091E800877F8093E80020D380915C
:104370007F039091800336E0969587953A95E1F713
:104380008C7F9370F701958784870FCF80917D0391
:10439000813A09F00ACF8091E800877F8093E80096
:1043A0008091E80080FFFCCFF70184859585969584
:1043B000879596958795B3CFFC01399627E0DF0165
:1043C0001D922A95E9F721E0FC01218724EF31E0D5
:1043D0003587248723E0248361E00196ACC25F9295
:1043E0006F927F928F929F92AF92BF92CF92DF9205
:1043F000EF92FF920F931F93CF93DF9300D00F9212
:10440000CDB7DEB77C01ADB6BEB680917C038430FB
:1044100009F089C08091E4009091E500F7012285C0
:1044200033852817390709F47EC081818F70809306
:10443000E9008091E80085FF76C08DB69EB6408584
:1044400050E08DB79EB7841B950B0FB6F8949EBFB6
:104450000FBE8DBFEDB7FEB731966F011B821A827A
:10446000198270E060E0CF010E942B2E8E010F5F59
:104470001F4F960140E0BE016D5F7F4FC7010E9454
:10448000C116582EF70184859585892B29F011E0F6
:1044900086859785892B09F010E0F7016680778083
:1044A00000E06114710489F049815A81B301C601A9
:1044B0000E94152E01E0892B09F400E0F7014085E8
:1044C00050E0B601C3010E94222E89819A81892B76
:1044D000F1F0511004C0011102C010FF18C0F70123
:1044E000848595859787868781818F708093E90081
:1044F0008B8181118093F10069817A8150E040E0E5
:10450000C60129D08091E8008E778093E8008091E1
:10451000E4009091E500F701938782870FB6F89445
:104520009EBE0FBE8DBE0FB6F894BEBE0FBEADBE12
:104530000F900F900F90DF91CF911F910F91FF90EF
:10454000EF90DF90CF90BF90AF909F908F907F9033
:104550006F905F900895AF92BF92CF92DF92FF92DB
:104560000F931F93CF93DF936C01EB018A013ED22F
:10457000F82E811124C00115110539F0F801808150
:104580009181C81BD90BC80ED91EB12CA12C209724
:10459000B1F08091E80085FD22C08091E8008E771F
:1045A0008093E80033D501151105A1F0F801808151
:1045B0009181A80EB91EB182A08285E0F82E8F2DC0
:1045C000DF91CF911F910F91FF90DF90CF90BF901F
:1045D000AF9008950BD28823D1F2F82EF0CFF601D8
:1045E00081916F018093F1002197FFEFAF1ABF0A0D
:1045F000CECFFC01809183039091840386179707A7
:10460000A0F06115710529F49091E8009E779093D0
:10461000E80090E06115710551F4911108C0809196
:10462000E80082FF37C080E00895BC01F2CF80919E
:104630007C038823D9F18530D9F18091E80083FD8E
:1046400033C08091E80082FDEACF8091E80080FFCE
:10465000E1CF8091F3002091F200382F4091530177
:1046600050E06115710519F02417350758F091E0F5
:104670004217530709F090E02091E8002E7720932D
:10468000E800C8CF81918093F100615071092F5FDC
:104690003F4FE4CF80917C03882341F0853041F087
:1046A0008091E80083FFBBCF81E0089582E0089508
:1046B00083E00895FC016115710529F49091E800EB
:1046C0009B779093E8006115710531F48091E800C3
:1046D00080FF1EC080E0089580917C03882311F143
:1046E0008530E1F08091E80083FD1AC08091E800F8
:1046F00082FFE9CF8091F3002091F200382F232B25
:10470000E9F28091F10081936150710999F7D6CF58
:1047100080917C03882331F08530C1F683E00895D1
:1047200081E0089582E00895FC01809183039091D7
:10473000840386179707A0F06115710529F480910D
:10474000E8008E778093E80090E06115710551F4E0
:10475000911108C08091E80082FF3AC080E008957E
:10476000BC01F2CF80917C03882309F43DC08530E1
:1047700009F43CC08091E80083FD34C08091E800DA
:1047800082FDE8CF8091E80080FFDFCF8091F300C9
:104790002091F200382F4091530150E061157105CE
:1047A00019F02417350758F091E04217530709F024
:1047B00090E08091E8008E778093E800C6CF8491E6
:1047C0008093F1003196615071092F5F3F4FE3CF25
:1047D00080917C03882341F0853041F08091E8008E
:1047E00083FFB8CF81E0089582E0089583E00895C3
:1047F000EF92FF920F931F93CF93DF937C01EB0116
:10480000809183039091840386179707C0F02097C7
:1048100029F48091E8008E778093E80020E02097CB
:1048200081F421110EC08091E80082FF40C080E039
:10483000DF91CF911F910F91FF90EF900895EC01C0
:10484000EDCF80917C038823F1F18530F1F18091E7
:10485000E80083FD36C08091E80082FDE4CF8091BE
:10486000E80080FFDCCF8091F3000091F200182F68
:104870008091530190E0209719F00817190758F01C
:1048800021E08017910709F020E08091E8008E7701
:104890008093E800C4CFC7010E94422E8093F100AC
:1048A0008FEFE81AF80A21970F5F1F4FE1CF809131
:1048B0007C03882341F0853041F08091E80083FF3C
:1048C000B2CF81E0B5CF82E0B3CF83E0B1CF982FF4
:1048D000973028F08F708093E90081E008959093DD
:1048E000E900242F762F50E0981731F07091EC00FA
:1048F0002091ED005091F00021FD02C09F5FE8CFB4
:104900003091EB003E7F3093EB003091ED003D7F26
:104910003093ED003091EB0031603093EB007093F9
:10492000EC002093ED005093F0002091EE0027FD65
:10493000E5CF80E008950F931F93CF93DF93062F69
:10494000EC0110E0101302C081E00BC098819111BE
:1049500003C01F5F2596F6CF892F8F70873030F008
:1049600080E0DF91CF911F910F9108952C8142E05B
:10497000223008F046E0E981FA8168E070E020E04A
:104980006E177F0780F02295207F422B6B8120E4F9
:10499000629FB0011124991F9927991F692B97DFF6
:1049A0008111D7CFDDCF2F5F660F771FE9CF8091C1
:1049B0007D0387FF13C08091E80082FF06C08091CD
:1049C000E8008B778093E80004C080917C0381111C
:1049D000F2CF089580917C038823D9F38091E80079
:1049E00080FFF8CF8091E8008E77ECCF2091E40033
:1049F0003091E50095E6A9012091EC00822F8170AD
:104A000020FF06C08091E80080FF06C080E0089586
:104A10002091E80022FD1AC080917C03882389F050
:104A2000853089F08091EB0085FD0FC02091E40076
:104A30003091E50042175307F9F29150E1F684E016
:104A4000089582E0089583E0089581E00895CF936A
:104A5000DF9300D00F92CDB7DEB787D08ED0809194
:104A6000D8008F778093D8008091D8008068809399
:104A7000D8008091D8008F7D8093D80019BC109207
:104A80007C031092780310927A03109279039E01AE
:104A90002D5F3F4FAE014F5F5F4F70E060E080E001
:104AA00091E00E949D0E892B49F08B81E981FA816A
:104AB00081113CC03796E491E09353018091E0006E
:104AC0008B7F8093E0008091D80081608093D80034
:104AD0002091530130E088E090E040E08217930796
:104AE00080F14295407F426060E080E0F0DE80919E
:104AF000E1008E7F8093E1008091E20081608093ED
:104B0000E2008091E20088608093E2008091E00002
:104B10008E7F8093E0008091D80080618093D800E0
:104B20000F900F900F90DF91CF910895813039F45D
:104B3000CF0107960E94422E80935301BFCF8781F9
:104B4000FBCF4F5F880F991FC9CFE8EDF0E0808160
:104B50008F7E8083E7EDF0E080818160808384E058
:104B600082BF81E080937B0372CFE8EDF0E080812B
:104B70008E7F80831092E20008951092DA001092E6
:104B8000E10008951F920F920FB60F9211242F93F8
:104B90003F934F935F936F937F938F939F93AF93C5
:104BA000BF93EF93FF938091E10082FF0BC0809150
:104BB000E20082FF07C08091E1008B7F8093E100DB
:104BC0000E948F178091DA0080FF19C08091D80071
:104BD00080FF15C08091DA008E7F8093DA0080918B
:104BE000D90080FF98C080E189BD82E189BD09B408
:104BF00000FEFDCF81E080937C030E945D178091D1
:104C0000E10080FF18C08091E20080FF14C0809115
:104C1000E2008E7F8093E2008091E20080618093C9
:104C2000E2008091D80080628093D80019BC85E0B2
:104C300080937C03EAD18091E10084FF2AC08091B7
:104C4000E20084FF26C080E189BD82E189BD89B58B
:104C5000982F917080FFFBCF8091D8008F7D80933B
:104C6000D8008091E1008F7E8093E1008091E20086
:104C70008F7E8093E2008091E20081608093E20069
:104C800080917803882309F44CC084E080937C03EE
:104C9000BCD18091E10083FF2DC08091E20083FFB1
:104CA00029C08091E100877F8093E10082E08093BA
:104CB0007C03109278038091E1008E7F8093E10065
:104CC0008091E2008E7F8093E2008091E20080611B
:104CD0008093E2002091530130E088E090E040E0D2
:104CE0008217930728F14295407F426060E080E0A0
:104CF000EEDD8BD1FF91EF91BF91AF919F918F919D
:104D00007F916F915F914F913F912F910F900FBEC7
:104D10000F901F90189519BC10927C030E94681781
:104D20006ECF8091E30087FD93E090937C03B0CF3A
:104D30004F5F880F991FD4CF1F93CF93DF93CDB7C9
:104D4000DEB7AB970FB6F894DEBF0FBECDBF8DE7D1
:104D500093E02091F100FC012193CF01F3E085382D
:104D60009F07B9F70E947E178091E80083FF11C06A
:104D700090917D0380917E03853009F4BEC008F5D3
:104D8000813009F487C0882309F45CC0833009F4BA
:104D900081C08091E80083FF0AC08091E800877F8E
:104DA0008093E8008091EB0080628093EB00AB96EB
:104DB0000FB6F894DEBF0FBECDBFDF91CF911F912C
:104DC0000895883009F4E1C0893009F4EBC08630D9
:104DD00001F790589230E8F680917F03909180031C
:104DE0008C3D23E0920709F0AAC083E08A838AE21F
:104DF00089834FB7F894DE01139620E03EE051E23C
:104E0000E32FF0E050935700E49120FF03C0E295B8
:104E1000EF703F5FEF708E2F90E0EA3008F48DC0A6
:104E2000C7968D939D932F5F243151F74FBF80918B
:104E3000E800877F8093E8006AE270E0CE01019687
:104E4000D8DB98C0903899F0923809F0A2CF8091C1
:104E500081038F70873008F09CCF8093E9008091A8
:104E6000EB0085FB882780F91092E90006C080914D
:104E7000790390917A03911182609091E800977F75
:104E80009093E8008093F1001092F1008091E80087
:104E90008E77B7C0992309F4A4C0923009F079CF76
:104EA00090917F039111A8C0909181039F702FEF83
:104EB000290F263008F06DCF9093E9002091EB0088
:104EC00020FF9AC0833031F48091EB0080628093A0
:104ED000EB0092C08091EB0080618093EB0021E0B9
:104EE00030E001C0220F9A95EAF72093EA00109271
:104EF000EA008091EB008860EACF91114ACF1091CF
:104F00007F031F778091E3008078812B8093E300FB
:104F10008091E800877F8093E80049DD8091E80078
:104F200080FFFCCF8091E30080688093E30082E003
:104F3000111183E080937C032CCFC09672CF6091D7
:104F40008103709182039E01255D3F4FAE014F5F4B
:104F50005F4F0E949D0EBC01892B09F41ACF8091EE
:104F6000E800877F8093E8002BA589819A81211131
:104F700007C0DADB8091E8008B778093E80009CFE7
:104F8000213009F05DCF34DCF5CF903809F001CF46
:104F90008091E800877F8093E80080917803809378
:104FA000F10074CF9111F5CE90917F03923008F00B
:104FB000F0CE8091E800877F8093E800909378039B
:104FC000F6DC80917803882311F084E005C080919D
:104FD000E30087FDFACF81E080937C030E94731782
:104FE000D8CE90917F03913009F0D3CE91E08330F9
:104FF00009F090E090937A031092E9008091E80024
:10500000877F8093E800D3DCC4CE0895CF9380914E
:105010007C03882399F0C091E900CF709091EC0057
:10502000892F817090FD80E8C82B1092E900809153
:10503000E80083FD81DECF70C093E900CF91089531
:105040005058BB27AA270ED03FC230D230F035D2FD
:1050500020F031F49F3F11F41EF4EFC10EF4E095FF
:10506000E7FBE5C1E92F41D280F3BA176207730766
:105070008407950718F071F49EF559C20EF4E09577
:105080000B2EBA2FA02D0B01B90190010C01CA0102
:10509000A0011124FF27591B99F0593F50F4503EAD
:1050A00068F11A16F040A22F232F342F4427585F9F
:1050B000F3CF469537952795A795F0405395C9F7B7
:1050C0007EF41F16BA0B620B730B840BBAF091506F
:1050D000A1F0FF0FBB1F661F771F881FC2F70EC00E
:1050E000BA0F621F731F841F48F4879577956795E1
:1050F000B795F7959E3F08F0B3CF9395880F08F0CA
:105100009927EE0F9795879508959F939F77EEE3E4
:1051100089379E0720F4ECEAF0E0B7D109C048D106
:105120009058A2EA2AED3FE049EC5FE39BDFCCD147
:105130000F9007FC90580895B9D158F080E891E09D
:1051400009F49EEFBAD128F040E851E059F45EEF3F
:1051500009C073C1ECC1E92FE078C7D168F3092E0B
:10516000052AC1F3261737074807590738F00E2ECE
:1051700007F8E02569F0E025E0640AC0EF6307F86E
:10518000009407FADB01B9019D01DC01CA01AD0100
:10519000EF9347D099D10AD05F91552331F02BED91
:1051A0003FE049E450FD49EC4CCF0895DF93DD2703
:1051B000B92FBF7740E85FE31616170648075B076D
:1051C00010F4D92FBFD19F938F937F936F93B2D257
:1051D000E0ECF0E035D178D12F913F914F915F9184
:1051E000C4D1DD2349F09058A2EA2AED3FE049EC12
:1051F0005FE3D0785D2736DFDF9166C1F4D008F435
:1052000081E008950CD060C158D140F04FD130F00A
:1052100021F45F3F19F00BC151118AC10EC165D154
:1052200098F39923C9F35523B1F3951B550BBB276D
:10523000AA2762177307840738F09F5F5F4F220F1A
:10524000331F441FAA1FA9F333D00E2E3AF0E0E813
:1052500030D091505040E695001CCAF729D0FE2F5F
:1052600027D0660F771F881FBB1F261737074807F1
:10527000AB07B0E809F0BB0B802DBF01FF279358A7
:105280005F4F2AF09E3F510568F0D1C051C15F3F8A
:10529000ECF3983EDCF3869577956795B795F7958F
:1052A0009F5FC9F7880F911D9695879597F9089587
:1052B000E1E0660F771F881FBB1F62177307840723
:1052C000BA0720F0621B730B840BBA0BEE1F88F732
:1052D000E095089504D06894B1112AC108950DD1C4
:1052E00088F09F5790F0B92F9927B751A0F0D1F0CF
:1052F000660F771F881F991F1AF0BA95C9F712C059
:10530000B13081F014D1B1E0089511C1672F782F29
:105310008827B85F39F0B93FCCF3869577956795C4
:10532000B395D9F73EF490958095709561957F4F30
:105330008F4F9F4F0895E89409C097FB3EF49095D6
:105340008095709561957F4F8F4F9F4F9923A9F05E
:10535000F92F96E9BB279395F695879577956795ED
:10536000B795F111F8CFFAF4BB0F11F460FF1BC031
:105370006F5F7F4F8F4F9F4F16C0882311F096E9C4
:1053800011C0772321F09EE8872F762F05C0662372
:1053900071F096E8862F70E060E02AF09A95660F2B
:1053A000771F881FDAF7880F9695879597F90895E4
:1053B000DF93CF931F930F938B01EC01EDEEF0E0A1
:1053C0003FD082D09801AE018B01EC0160E070E02B
:1053D00080E89FE335DE70D19801AE010F911F91F7
:1053E000CF91DF91C2C0990F0008550FAA0BE0E8DA
:1053F000FEEF16161706E807F907C0F01216130697
:10540000E407F50798F0621B730B840B950B39F4D6
:105410000A2661F0232B242B252B21F408950A263C
:1054200009F4A140A6958FEF811D811D089597F97C
:105430009F6780E870E060E008959FEF80EC08953A
:10544000DF93CF931F930F93FF92EF92DF927B0135
:105450008C01689405C0DA2EEF0187D0FE01E89434
:10546000A5912591359145915591AEF3EF01FADD66
:10547000FE019701A801DA9479F7DF90EF90FF9091
:105480000F911F91CF91DF9108959F938F937F93F9
:105490006F93FF93EF939B01AC015BD0EF91FF9172
:1054A000CFDF2F913F914F915F9153C000240A9419
:1054B0001616170618060906089500240A941216EF
:1054C0001306140605060895092E0394000C11F422
:1054D000882352F0BB0F40F4BF2B11F460FF04C0CF
:1054E0006F5F7F4F8F4F9F4F089557FD9058440F28
:1054F000551F59F05F3F71F04795880F97FB991F33
:1055000061F09F3F79F087950895121613061406EF
:10551000551FF2CF4695F1DF08C01616170618067C
:10552000991FF1CF86957105610508940895E89457
:10553000BB2766277727CB0197F9089554DF08F436
:105540008FEF08959B01AC0160E070E080E89FE37D
:1055500059CE0BD0B9CFAADF28F0AFDF18F09523D2
:1055600009F065CF6ACF1124E3CFBFDFA0F3959F89
:10557000D1F3950F50E0551F629FF001729FBB273A
:10558000F00DB11D639FAA27F00DB11DAA1F649FE6
:105590006627B00DA11D661F829F2227B00DA11D99
:1055A000621F739FB00DA11D621F839FA00D611D1F
:1055B000221F749F3327A00D611D231F849F600D40
:1055C000211D822F762F6A2F11249F5750408AF079
:1055D000E1F088234AF0EE0FFF1FBB1F661F771F05
:1055E000881F91505040A9F79E3F510570F01FCF82
:1055F0009FCF5F3FECF3983EDCF3869577956795F8
:10560000B795F795E7959F5FC1F7FE2B880F911D22
:105610009695879597F90895FA01EE0FFF1F30963A
:105620002105310599F16115710561F48038BFE3F9
:105630009B0749F168949038810561F08038BFEF8D
:105640009B0741F0992342F5FF3FE1053105210514
:1056500011F1E8940894E795D901AA2329F4AB2F16
:10566000BE2FF85FD0F310C0FF5F70F4A695E0F78F
:10567000F73950F019F0FF3A38F49F779F930CD028
:105680000F9007FC905808953EF0D7CE60E070E090
:1056900080E89FE308954FE79F775F934F933F9391
:1056A0002F93D0D02F913F914F915F9152DF4EC0F9
:1056B00011F40EF4C2CE76C020DFD0F39923D9F3D3
:1056C000CEF39F57550B87FF7BD00024A0E640EA1E
:1056D000900180585695979528F4805C660F771F47
:1056E000881F20F026173707480730F4621B730B1A
:1056F000840B202931294A2BA6951794079420253D
:1057000031254A2758F7660F771F881F20F0261784
:105710003707480730F4620B730B840B200D311DE3
:10572000411DA09581F7B901842F9158880F969556
:10573000879508959B01AC010CCF55DE880B990B22
:10574000089519F40EF073CEF2CE77CED6DEC8F3FC
:105750009638C0F707F80F92E8942BE33AEA48EB43
:105760005FE705DF0F920F920F924DB75EB70F9272
:10577000A9D0E5E1F1E064DE4F915F91EF91FF91F7
:10578000E595EE1FFF1F49F0FE57E0684427EE0F36
:10579000441FFA95E1F74195550B1BD00F9007FE7A
:1057A000D1CE08959F3F31F0915020F487957795A1
:1057B0006795B795880F911D9695879597F90895E8
:1057C00091505040660F771F881FD2F708952FCE53
:1057D000E9CF93DEE8F39923D9F3940F511DBBF37E
:1057E0009150504094F059F0882332F0660F771FA3
:1057F000881F91505040C1F79E3F510544F7880FD4
:10580000911D9695879597F908955F3FACF0983E66
:105810009CF0BB27869577956795B79508F4B1609E
:105820009395C1F7BB0F58F711F460FFE8CF6F5F96
:105830007F4F8F4F9F4FE3CF7BCE0EF0B3CFFDCD89
:105840006894F5CD5ADEC8F39923D1F3C6F3DF93FC
:10585000CF931F930F93FF92C92FDD2788232AF040
:105860002197660F771F881FDAF720E030E040E8C5
:105870005FEB9FE3883920F0803E30F021968F77F0
:10588000E0DBEDE3F1E003C0DCDBEAE6F1E0D8DDEC
:105890008B01BE01EC01FB2E6F5771097595771FC7
:1058A000880B990B4ADD28E132E741E35FE35DDED7
:1058B000AF2D9801AE01FF900F911F91CF91DF9115
:1058C000D1DB02CEFA01DC01AA0FBB1F9B01AC01A8
:1058D000BF5728F422273327442750781FC0B751D9
:1058E00088F4AB2F0024469537952795011CA39586
:1058F000D2F3002069F0220F331F441FB395DAF36F
:105900000DD09ECB61307105A0E88A07B94630F40E
:105910009B01AC016627772788279078309621F085
:1059200020833183428353830895DB018F939F93B8
:1059300039D0BF91AF91A29F800D911DA39F900D73
:10594000B29F900D11240895AA1BBB1B51E107C003
:10595000AA1FBB1FA617B70710F0A61BB70B881FFF
:10596000991F5A95A9F780959095BC01CD0108958E
:1059700097FB072E16F4009406D077FD08D0E4DFDD
:1059800007FC05D03EF4909581959F4F0895709542
:1059900061957F4F0895692796276927782787277C
:1059A0007827089509D0A59F900DB49F900DA49FCE
:1059B000800D911D11240895A29FB001B39FC001D5
:1059C000A39F700D811D1124911DB29F700D811D2B
:1059D0001124911D08950F931F93CF93DF9382306D
:1059E000910510F482E090E0E0918703F091880344
:1059F00030E020E0B0E0A0E0309799F421153105C7
:105A000009F447C0281B390B24303105C0F58A81C1
:105A10009B816115710571F1FB0193838283FE0106
:105A200011C0408151810281138148175907F8F054
:105A30004817590799F4109761F012960C93129732
:105A400013961C933296CF01DF91CF911F910F9146
:105A500008950093870310938803F4CF211531052F
:105A600019F04217530718F49A01BD01EF01DF0145
:105A7000F801C2CF9093880380938703D0CFFE01B3
:105A8000E20FF31F819391932250310939832883C8
:105A9000DACF2091850330918603232B41F42091A6
:105AA000560130915701309386032093850320914E
:105AB0005401309155012115310541F42DB73EB700
:105AC0004091580150915901241B350BE0918503F9
:105AD000F0918603E217F307A0F42E1B3F0B281763
