:020000040000FA
:100000007228FF3FFF3FFF3FF900F90E030883010D
:10001000B6000A08B5007A08B7008A010408B400DF
:100020009019642801309F000508C739850006082B
:10003000C7398600831610308500C73086008301DB
:10004000A20A053022060319A201220882073928D4
:1000500040284728322885308400113080169F00C0
:100060005C304D28853084000D3080159F005A305B
:100070004D2886308400253080159F0058304D284B
:10008000863084002D3000169F0056304D28863073
:100090008400353080169F005E309F1484001E0857
:1000A0008007840A0318800AAD0A2D1E6428AD015A
:1000B0000008B90084030008B8002208A100840ADF
:1000C00090158001840380018C108C1951258301C7
:1000D0003408840035088A003708FA00360883009F
:1000E000790E0900203084006B307E20A03084001F
:1000F000BF307E20B42C04068001840A0406031D50
:100100007B286400003483120313EB00EC1B91285E
:100110006C1B99286C088A006B08EB0A0319EC0A1F
:10012000820083136C1883176B08EB0A84000008A5
:1001300008008207003400347F347F344934493466
:10014000663466341A341A347E347E342F342F34B5
:1001500065346534CD34CC347D347D344834483412
:1001600064346434E634E5347C347C342E342E3408
:1001700063346334953494347B347B34473447346C
:1001800062346234193419347A347A342D342D348B
:1001900061346134B034AF34793479344634463420
:1001A00060346034E534E434783478342C342C34DE
:1001B0005F345F3482070F341F3417341A3412341B
:1001C0001F3414341A340A341F3417341A340D34DB
:1001D0001F3414341A3404341F3417341A341234CC
:1001E0001F3414341A3406341F3417341A340D34BF
:1001F0001F3414341A34FF3FFF3FFF3FFF3FFF3FE0
:1002000082078034FF34C934E6349A34FE34AF3484
:10021000E5344D34FD34C834E4346634FC34AE3453
:10022000E3341534FB34C734E2349934FA34AD3452
:10023000E1343034F934C634E0346534F834AC3465
:10024000DF348207313433343634363436342934AB
:100250002A342D342D342D342134223424342434C2
:1002600024341A341B341C341C341C341534163416
:100270001834183418348207533455345A345A34E5
:100280005A34453447344B344B344B343734393497
:100290003C343C343C342C342D3430343034303421
:1002A00024342634283428342834FE01FF01031076
:1002B000FD0CFC0C031C63297A08FE077B0803185D
:1002C0007B0AFF070310FA0DFB0D7C087D04031960
:1002D0000034572983010800FF3FFF3FFF3FFF3FE6
:1002E000FF3FFF3FFF3FFF3FFF3FFF3FFF3FFF3F1E
:1002F000FF3FFF3FFF3FFF3FFF3FFF3FFF3FFF3F0E
:10030000FF3FFF3FFF3FFF3FFF3FFF3FFF3FFF3FFD
:10031000FF3FFF3FFF3FFF3FFF3FFF3FFF3FFF3FED
:1007F000FF3FFF3F8301EA002108423E840083134C
:10080000800AFB300002031C08002108423E8400DD
:1008100080010430FA006A0884000008FC00840AA1
:100820000008FD00FA0A172C0310FD0CFC0CFA0B53
:10083000142C6A08840083130008FA00840A000854
:10084000FB007C08FA02031CFB037D08FB0238084E
:10085000FA070318FB0A3908FB076A0884008313A8
:100860007A088000840A7B08800008000130830138
:100870008500870183168501FF30860018308700C8
:10088000C73095003030900003178500383086005F
:10089000413003139D00043083129200A730831669
:1008A0009200283081003D3083129F005030831623
:1008B0009F001A30930080309400363083129400E9
:1008C0007230C0000130C100A101922C2108473EC6
:1008D00084008313800121084C3E8400831380012F
:1008E0002108513E84008313023080002108A13E7C
:1008F0008400831380012108FA00FB010A30FA0703
:100900000318FB0A7B08013EEC007A08223E03181C
:10091000EC0A8320FA002108A63E840083137A089B
:100920008000A10A05302102031C662CA601A1014A
:10093000AF01A010FF30A3000230A4000619061872
:10094000AA2C861C861BAA2C061BAA2C8312031316
:100950002014AD2C8312031320108B0183168C14EA
:100960000B178B17831208003624901DB52C6400DA
:100970003A262108043A031DB52CB301061BC32CEB
:1009800033160430A400861BC82CB3160330A40011
:100990000619CD2CB3170230A4008618D22C3317B9
:1009A000A401A40A0618D62C3314A4013308A50008
:1009B000B3080319EA2C1F30BC000830BD00053015
:1009C0002302031C201CEA2C2308513E84008313BD
:1009D000240880003D083C040319F32CBC080319CB
:1009E000BD03BC03F42C2010B30105304B02031CE3
:1009F000FC2CB3140430A30005304A02031C032D61
:100A000033150330A30005304902031C0A2DB3152A
:100A10000230A30005304802031C112D3316A30138
:100A2000A30A05304702031C192D3314A30107152F
:100A30001A2D07113308AF0033080E3A031920109E
:100A40002F08FA00FB017B08003EEC007A08DB3E31
:100A50000318EC0A8320B1002F08FA00FB017B0881
:100A6000013EEC007A08013E0318EC0A8320B00036
:100A70008B130030EC002F082F070318EC0A9A3E66
:100A8000EB000318EC0A8320FA008620FB007A08AA
:100A9000BE007B08BF008B172030AE07E030AE05EC
:100AA000B52C83018C118316140825398312AB00F1
:100AB000812DA7011308AA001413A601002EA70870
:100AC000031D652D1308A8006A2D270B6A2D130836
:100AD000A90020151413A70A002E941329089300C7
:100AE000941B6D2D782D941329089300941B732D5E
:100AF00014131416A70AA80A002E1308AA00141328
:100B0000002E2B08013A0319592D053A03196D2DB2
:100B1000253A03195F2D053A0319732D7D2D2430D5
:100B2000372EF130372E0C30372EFD30372E2E0871
:100B3000372EA901A90A382E2508372E3208372E5C
:100B40003E08A9003F08B200AB2D2F08AA2D31089E
:100B5000AA2D3008A900A014382E1230372E2808EC
:100B6000BF3EB53E840083130008A9002808C03E9C
:100B7000B53E8400831300088316A000382E4B3046
:100B800028025030031CCC2D28020318CB2D280836
:100B9000B53EAB3EFA2D503028025530031CD82DFF
:100BA00028020318D72D2808B03EA13EFA2D553053
:100BB00028025A30031CE42D28020318E32D2808CC
:100BC000AB3E473EFA2D5A3028025F30031CF02D11
:100BD00028020318EF2D2808A63EB03EFA2D5F30FC
:100BE0002802031CFE2D643028020318FE2D28085D
:100BF000A13EA63E840083130008372EA901382E9B
:100C0000280803198F2D033A0319912D073A031968
:100C1000932D023A0319952D163A0319972D013A8F
:100C20000319992D033A03199C2D013A0319A02D9C
:100C3000073A03199E2D013A0319A52D033A03190A
:100C4000A72D013A0319A92D573A0319AD2D4130AB
:100C500028024B30031CC02D28020318BF2D280882
:100C6000BF3EFA007A1CAF2D831620088312A9001C
:100C7000831208004B3083012602A60A031C472E6C
:100C80009401803083169400363083129400390822
:100C9000FB003808FA00FA0EFB0EF030FB057A086C
:100CA0000F39FB04F030FA057A08BA007B08BB0064
:100CB00021082107B53E84000008FA00840A0008D4
:100CC000FB000430FC000310FB0CFA0CFC0B632E41
:100CD0002108A63E840083130008FA070318FB0AC4
:100CE00039087B02031D762E38087A022108031882
:100CF0007E2E423E8400FA30800021082107B53E56
:100D000084000008FA00840A0008FB003B087B020C
:100D1000031D8C2E3A087A020318902EAC01BD2ECA
:100D200021082107B53E84000008FA00840A000863
:100D3000FB003A08FA02031CFB033B08FB021030DD
:100D40007B02003003197A02031CA82EFF30BC2E50
:100D500021082107B53E84000008FA00840A000833
:100D6000FB000430FC000310FB0CFA0CFC0BB32E50
:100D70007A08FA0038087A02AC002108AB3E8400F9
:100D800083132C0880002108A13E840083132C08C3
:100D9000000221080318D12EA13E84002C088000F7
:100DA0002108513E840005300002031CDC2E21087E
:100DB000513E8400023080000530FC00FD01210816
:100DC000513E84000008FA00FB0155212108FA0079
:100DD000FB017E08FA070318FB0A7F08FB077B0864
:100DE000013EEC007A083C3E0318EC0A8320FA002E
:100DF0002108B03E840083137A0880000530FC008F
:100E0000FD012108513E84000008FA00FB01552134
:100E10002108FA00FB017E08FA070318FB0A7F0885
:100E2000FB077B08013EEC007A08223E0318EC0A1F
:100E30008320FA002108A63E840083137A088000EC
:100E4000DC2FA01CFC2F2108473E84008313800167
:100E5000800AFC2F21082107B53E840083133A083D
:100E60008000840A3B0880002108473E84008313E9
:100E70000230B92FC0080319C103C003003041027A
:100E8000053003194002210803184C2F473E840007
:100E90008313033080002108423E84008313FA301C
:100EA00080006C2F21082107603E840083130430EA
:100EB0008000840A743080002108B03E84008313CF
:100EC0002C080002210803186D2F473E84000430CF
:100ED000800021084C3ED92F21082107B53EFA2376
:100EE000FC2F2108B03E840083132C080002210847
:100EF0000318D32F4C3E8400800A21084C3E840006
:100F000002300002031CFC2F2108473E84000530FC
:100F1000B92F21082107603E84008313013080022D
:100F2000840A031C8003840321082107603E840097
:100F300083130008FA00840A0008FB007A04031DEA
:100F4000A92F2108473E84008001800A4A30C00052
:100F5000C1012108A63E840000082C020318FC2FC2
:100F60002108473E84000630800021084C3E840062
:100F700004308000FC2F2108A63E84008313000863
:100F80002C0221080318C82F4C3E84008003CC2F6C
:100F9000473E84000530800021084C3E84008008D4
:100FA000031DFC2F2108473E8400033080002108E8
:100FB000423E84008001FC2F2108473E8400000847
:100FC0000319212F013A03192A2F033A03193A2F43
:100FD000013A0319522F073A0319712F013A0319E5
:100FE000892F033A0319BB2F2108473E8400800153
:100FF000800A4A30C000C1018B170B1790110800FE
:04400E00EC3CFF3F48
:084000000100020002000400AF
:00000001FF
