:100000009AC700000C949F25B7C70000B5C7000031
:10001000B3C70000B1C70000AFC70000ADC7000004
:10002000ABC70000A9C70000A7C70000A5C7000014
:10003000A3C70000A1C700009FC700009DC7000024
:100040009BC7000099C7000097C7000095C7000034
:1000500093C7000091C700008FC700000C94E124F3
:100060008BC700000C947C240C94A82485C7000046
:1000700083C7000081C700007FC700007DC7000064
:100080007BC7000079C7000077C7000075C7000074
:1000900073C7000071C700006FC700000C940425EF
:1000A0006BC7000069C7000067C7000065C7000094
:1000B00063C7000061C700005FC700005DC70000A4
:1000C0005BC7000059C7000057C7000055C70000B4
:1000D00053C7000051C700004FC700004DC70000C4
:1000E0004BC7000000002100240027002A002D003B
:1000F0003000330001010000040107010A01FF087C
:100100000F0C21260107000000006D656761323584
:100110003630004552524F5200020F0000000101DC
:100120000115D4A2000F000000FFFFFFFFFFFFFF3B
:10013000FFFFFFFFFFFFFFFFFFFF00FF00FF00FFCC
:1001400000FF00FF0040404000B80B04160D0E0FEA
:1001500033280B504F525151FFFFFFFFFFFF00FFAD
:1001600000FF00FF000D0080000EFF000010FFFFE9
:10017000000F0000FF09FF45000000000000000024
:10018000000000000000000000000000000000006F
:10019000000000000000000000000000000000005F
:1001A000000000000000000000000000000000004F
:1001B000000000000000000000000000000000003F
:1001C000000000000000000000000000000000002F
:1001D000000000000000000000000000000000001F
:1001E000000000000000000000000000000000000F
:1001F00000000000000000000000000000000000FF
:1002000000000000FF0000008000000000008000EF
:100210000000000080FF7F00000080FF7F000000E2
:1002200080FF7F00000080FF7F05140000000000B9
:1002300000000000000200000101020200000000B6
:10024000000202020101000201020100020100009D
:100250000202020101000020002300260029002CD8
:10026000002F003200000100000301060109010017
:10027000002200250028002B002E0031003400024F
:10028000010000050108010B0101021020200808EF
:1002900010204010204080020102010804020101E8
:1002A00002040810204080804020100804020180D1
:1002B0000402018040201008040201080402010128
:1002C000020408102040800102040810204080052C
:1002D000050505070508080808020202020A0A08BF
:1002E00008040404040101010101010101030303E5
:1002F0000303030303040707070C0C0C0C0C0C0C82
:100300000C0202020206060606060606060B0B0B88
:100310000B0B0B0B0B000070000000002400000012
:10032000020003000000650054FFEF0000FA8000A7
:100330000B12820001030C30C30E8C8CE914D540E3
:100340000213710F8E3883F8833000F883258EF8FE
:10035000833000F883FFFFFFFF0FFEA9D6240004BF
:10036000001A8279A10000003CFFFF00000010008D
:100370000038836FA2003E03304000000002CAE351
:10038000093E800000200000000000000040000046
:100390000060000000000C0000000C186E00000659
:1003A000920A16C0DFFFFF0256FD8CD377FFE1C42F
:1003B00096E0C5BEAA00000000FFFF0B2B00001650
:1003C00057000003594000000000001DFA00026CB5
:1003D0001D000000003FFFDFEB003EB3B6000D2222
:1003E0007800002F3C00000000001942B5000039E1
:1003F000A20000B365D90E9FC91DCF4C3430000058
:1004000000500000003BB67AE80064000000C8001D
:100410000000000000100000001000FA92100022FE
:100420005E000D229F0001000000320000FF460028
:100430000063D400001000000004D6000004CC00CB
:100440000004CC000000001072000000400000001A
:100450000000000000000600020005000700000088
:10046000000064000000000000000000050005001E
:1004700064002000000000000000000000000040B8
:10048000000000030000000032F8980000FF650043
:1004900000830F0000FF9BFC000000000000000034
:1004A000000000000000000000000000000000004C
:1004B000000000000000000000000000000000003C
:1004C000000000100040000000000000060000B224
:1004D0006A000200000001FB830068000000D9FCF4
:1004E000007CF1FF83000000000065000000640351
:1004F000E800640028000000250000000016A000AD
:10050000000000100000001000002F00000000019B
:10051000F40000100000280000FFFF4581FFFFFAF3
:10052000720000000000000000004400050005BA51
:10053000C6004778A200000001000000000000068D
:1005400000000000140000254D002F706D00000514
:10055000AE000C02D000000000000000000000000F
:100560000000000000001B00000000000000000070
:10057000000000000000640000000800000000000F
:10058000000000000000000000000000000000006B
:10059000000000000000000000000000000000005B
:1005A000000000000000000000000000000000004B
:1005B000000000000000000000000000000000003B
:1005C000000000000000000000000000000000002B
:1005D0000000000000001B00000000000000000000
:1005E00000000E000E00000AC7000400000000001A
:1005F00032FFFFFF9C00000B2B00000002000000F8
:100600000100000064FFE5000000000000000000A1
:1006100000000000000000000100000000000100D8
:100620000000000000000180000001800000018047
:1006300000002426D3000000000000000000060097
:10064000100096003C0000000000000000000000C8
:1006500000000000000C0A4E68CDCF7709501667E5
:1006600059C619CE82000000000000000000000002
:100670000000000000000000000000000017D78408
:1006800000030000000000000000000000C7938F7E
:100690009D1E1B1C1900000000000000000000004F
:1006A000000000000000000000000000000203182D
:1006B000850000400000000003000000030000006F
:1006C00000000000004000000000000000000000EA
:1006D000000000000000000000000000000000001A
:1006E000000000000000000000000000000000000A
:1006F000000000000000000000677DDF7E72902E89
:10070000554CF6E6880000000000000000000000E4
:100710000000000000D8DCB4B8B0D8B9ABF3F8FAE8
:10072000B3B7BB8E9EAEF132F51BF1B4B8B0809773
:10073000F1A9DFDFDFAADFDFDFF2AAC5CDC7A90C91
:10074000C92C97F1A989264666B28999A92D557DAC
:10075000B0B08AA896365676F1BAA3B4B280C0B8C3
:10076000A89711B28398BAA3F0240844106418B271
:10077000B9B49883F1A329557DBAB5B1A38393F099
:10078000002850F5B2B6AA839328547CF1B9A3820D
:100790009361BAA2DADEDFDB819AB9AEF5606870E8
:1007A000F1DABAA2DFD9BAA2FAB9A38292DB31BADE
:1007B000A2D9BAA2F8DF85A4D0C1BBAD83C2C5C798
:1007C000B8A2DFDFDFBAA0DFDFDFD8D8F1B8AAB385
:1007D0008DB4980D355DB2B6BAAF8C96198F9FA7C0
:1007E0000E161EB49AB8AA872C547CBAA4B08AB646
:1007F00091325676B28494A4C808CDD8B8B4B0F17A
:100800009982A82D557D98A80E161EA22C547C9274
:10081000A4F02C5078F184A898C4CDFCD80DDBA8A6
:10082000FC2DF3D9BAA6F8DABAA6DED8BAB2B686E3
:1008300096A6D0F3C841DAA6C8F8D8B0B4B882A852
:1008400092F52C548898F135D9F418D8F1A2D0F843
:10085000F9A884D9C7DFF8F883C5DADF69DF83C177
:10086000D8F40114F1A8824EA884F311D182F5D9ED
:1008700092289788F109F41C1CD884A8F3C0F9D1F8
:10088000D99782F129F40DD8F3F9F9D1D982F4C2BC
:1008900003D8DEDF1AD8F1A2FAF9A88498D9C7DF05
:1008A000F8F8F883C7DADF69DFF883C3D8F40114F6
:1008B000F198A8822EA884F311D182F5D99250978D
:1008C00088F109F41CD884A8F3C0F8F9D1D997822B
:1008D000F149F40DD8F3F9F9D1D982F4C403D8DE83
:1008E000DFD8F1AD8898CCA809F9D98292A8F57C17
:1008F000F1883ACF944A6E98DB6931DAADF2DEF9CD
:10090000D88795A8F221D1DAA5F9F417D9F1AE8EDE
:10091000D0C0C3AE82C684C3A88595C8A588F2C0DE
:10092000F1F4010EF18E9EA8C63E56F554F1887280
:10093000F40115F19845856EF58E9E0488F1429874
:100940005A8E9E068869F4011CF1981E1108D0F594
:1009500004F11E970202983625DBF9D985A5F3C16B
:10096000DA85A5F3DFD88595A8F309DAA5FAD88248
:1009700092A8F578F1881A849F26889821DAF41DC8
:10098000F3D8879F39D1AFD9DFDFFBF9F40CF3D867
:10099000FAD0F8DAF9F9D0DFD9F9D8F40BD8F3871F
:1009A0009F39D1AFD9DFDFF41DF3D8FAFCA869F97C
:1009B000F9AFD0DADEFAD9F88F9FA8F1CCF398DB43
:1009C00045D9AFDFD0F8D8F18F9FA8CAF38809DAEC
:1009D000AF8FCBF8D8F2AD978D0CD9A5DFF9BAA6B9
:1009E000F3FAF412F2D8950DD1D9BAA6F3FADAA532
:1009F000F2C1BAA6F3DFD8F1BAB2B68696A6D0CACB
:100A0000F349DAA6CBF8D8B0B4B8D8AD84F2C0DFD9
:100A1000F18FCBC3A8B2B68696C8C1CBC3F3B0B42E
:100A20008898A821DB718D9D71859521D9ADF2FA49
:100A3000D88597A828D9F408D8F28D29DAF405D9F1
:100A4000F285A4C2F2D8A88D9401D1D9F411F2D8BC
:100A50008721D8F40AD8F28498A8C801D1D9F41112
:100A6000D8F3A4C8BBAFD0F2DEF8F8F8F8F8F8F87D
:100A7000F8D8F1B8F6B5B9B08A95A3DE3CA3D9F899
:100A8000D85CA3D9F8D87CA3D9F8D8F8F9D1A5D9DE
:100A9000DFDAFAD8B18530F7D9DED8F830ADDADE52
:100AA000D8F2B48C99A32D557DA083DFDFDFB591FB
:100AB000A0F629D9FBD8A0FC29D9FAD8A0D051D9C1
:100AC000F8D8FC51D9F9D879D9FBD8A0D0FC79D97C
:100AD000FAD8A1F9F9F9F9F9A0DADFDFDFD8A1F83E
:100AE000F8F8F8F8ACDEF8ADDE8393AC2C547CF16A
:100AF000A8DFDFDFF69D2CDAA0DFD9FADB2DF8D8EE
:100B0000A850DAA0D0DED9D0F8F8F8DB55F8D8A88C
:100B100078DAA0D0DFD9D0FAF8F8F8F8DB7DF8D889
:100B20009CA88CF530DB38D9D0DEDFA0D0DEDFD852
:100B3000A848DB58D9DFD0DEA0DFD0DED8A868DB3C
:100B400070D9DFDFA0DFDFD8F1A888902C547C9823
:100B5000A8D05C38D1DAF2AE8CDFF9D8B087A8C162
:100B6000C1B188A8C6F9F9DA36D8A8F9DA36D8A812
:100B7000F9DA36D8A8F9DA36D8A8F9DA36D8F78DFE
:100B80009DADF818DAF2AEDFD8F7ADFA30D9A4DEB1
:100B9000F9D8F2AEDEFAF983A7D9C3C5C7F1889BAD
:100BA000A77AADF7DEDFA4F8849408A797F300AE28
:100BB000F29819A488C6A39488F632DFF28393DBF7
:100BC00009D9F2AADFD8D8AEF8F9D1DAF3A4DEA7B2
:100BD000F1889B7AD8F38494AE19F9DAAAF1DFD8B8
:100BE000A881C0C3C5C7A39283F628ADDED9F8D8C3
:100BF000A350ADD9F8D8A378ADD9F8D8F8F9D1A1D8
:100C0000DADEC3C5C7D8A18194F818F2B089ACC3A5
:100C1000C5C7F1D8B8B4B09786A8319B069907AB81
:100C20009728889BF00C201440B0B4B8F0A88A9A9A
:100C3000285078B79BA829517924705944693864A1
:100C40004831F1BBAB88002C547CF0B38BB8A804BE
:100C5000285078F1B088B49726A85998BBABB38BCD
:100C600002264666B0B8F08A9CA82951798B295192
:100C7000798A2470598B2058718A4469388B39409D
:100C8000688A6448318B30496088F1AC002C547C10
:100C9000F08CA804285078F1889726A85998AC8C35
:100CA00002264666F0899CA8295179247059446926
:100CB00038644831A98809205970AB11384069A8B7
:100CC000193148608CA83C415C207C00F187981960
:100CD00086A86E767EA999882D557DD8B1B5B9A321
:100CE000DFDFDFAED0DFAAD0DEF2ABF8F9D9B08714
:100CF000C4AAF1DFDFBBAFDFDFB9D8B1F1A3978EB4
:100D000060DFB084F2C8F8F9D9DED89385F14AB132
:100D100083A308B5839A0810B79F10D8F1B0BAAE74
:100D2000B08AC2B2B68E9EF1FBD9F41DD8F9D90CA7
:100D3000F1D8F8F8AD61D9AEFBD8F40CF1D8F8F8D9
:100D4000AD19D9AEFBDFD8F416F1D8F8AD8D61D965
:100D5000F4F4ACF59C9C8DDF2BBAB6AEFAF8F40B2C
:100D6000D8F1AED0F8AD51DAAEFAF8F1D8B9B1B6E3
:100D7000A3839C08B9B1839AB5AAC0FD3083B79FFD
:100D800010B58B93F20202D1ABDADED8F1B080BAA3
:100D9000ABC0C3B284C1C3D8B1B9F38BA391B609B8
:100DA000B4D9ABDEB0879CB9A3DDF1B38B8B8B8B51
:100DB0008BB087A3A3A3A3B28BB69BF2A3A3A3A3D9
:100DC000A3A3A3A3A3A3F1B087B59AA3F39BA3A363
:100DD000DCBAACDFB9A3A3A3A3A3A3A3A3A3A3A338
:100DE000A3A3A3A3A3D8D8D8BBB3B7F1AAF9DAFFBA
:100DF000D9809AAA28B48098A720B79787A8668830
:100E0000F07951F1902C870CA781976293F0717162
:100E10006085940129517990A5F1284C6C870C9537
:100E2000188578A38390284C6C886CD8F3A2820034
:100E3000F210A8921980A2F2D926D8F188A84DD92B
:100E400048D896A83980D93CD89580A839A68698E4
:100E5000D92CDA87A72CD8A8899519A980D938D890
:100E6000A88939A980DA3CD8A82EA83990D90CD8FD
:100E7000A8953198D90CD8A809D9FFD801DAFFD89C
:100E80009539A9DA26FFD890A80D8999A8108098DD
:100E900021DA2ED88999A83180DA2ED8A886963101
:100EA00080DA2ED8A8873180DA2ED8A88292F34132
:100EB00080F1D92ED8A882F31980F1D92ED882AC2E
:100EC000F3C0A28022F1A62EA72EA92298A829DA83
:100ED000ACDEFFD8A2F22AF1A92E8292A8F23180CC
:100EE000A696F1D900AC8C9C0C30ACDED0DEFFD8DD
:100EF0008C9CACD010ACDE8092A2F24C82A8F1CADD
:100F0000F235F19688A6D900D8F1FF0E0C0D0F0826
:100F1000FFFF09050406070A0B0F0C0D0E08FFFF63
:100F200009050406070A0B0F0C0D0E0908FFFF0543
:100F30000406070A0B0011241FBECFEFD1E2DEBF6B
:100F4000CDBF00E00CBF12E0A0E0B2E0E6E8FBE5B8
:100F500000E00BBF02C007900D92AE3EB107D9F77B
:100F600027E0AEEEB2E001C01D92A53BB207E1F76B
:100F70000E94A5250C94C12D43C89B01FC018FB78D
:100F8000F894718360837383628375836483240F11
:100F9000351F3783268351874087138612868FBF7C
:100FA0000895FC01A081B1816C93808191810196AB
:100FB00091838083268137818217930721F484816E
:100FC0009581918380832FB7F894828593850196CC
:100FD000938782872FBF0895FC01A281B3818D91F1
:100FE000B383A28326813781A217B30721F424811A
:100FF0003581338322839FB7F8942285338521502E
:101000003109338722879FBF08950F931F93CF9392
:10101000DF93EC018C01060F111DC017D10741F4BD
:1010200088EB8093C100DF91CF911F910F910895BC
:10103000699189EA97E0B5DFF0CFCF93DF93FC01A8
:10104000DA0186E0EB01888385E0808315962C9198
:101050001597822F922F990F990B97FD079653E0C2
:10106000959587955A95E1F7828317962C91179756
:10107000822F922F990F990B91958195910997FD48
:10108000079643E0959587954A95E1F783831B96EC
:101090002C911B97822F922F990F990B97FD0796F2
:1010A00033E0959587953A95E1F7848319962C91CD
:1010B0001997822F922F990F990B97FD079623E08E
:1010C000959587952A95E1F7858311969C911197BF
:1010D0009295917081818E7F982B918311968C913E
:1010E0001197829582709D7F892B818311969C91A7
:1010F0009695969596959870877F892B8183DF9139
:10110000CF9108959F92AF92BF92CF92DF92EF92CC
:10111000FF920F931F93CF93DF9300D00F92CDB721
:10112000DEB7FC014B835C838CE1DB018C9384E0B4
:10113000808390904707B090A8077AE2C72E72E0AC
:10114000D72EFA83E98390E080E061E070E0A82E7A
:10115000D6012D916D01AB81BC814D915C912F3FEA
:1011600009F44AC0DB0102C0AA0FBB1F2A95E2F7AF
:101170009D012423352341E02115310509F440E088
:101180008B010A2C02C0000F111F0A94E2F7009590
:101190001095E180F280E022F12250E08A0102C045
:1011A000000F111FAA94E2F70E291F291283018351
:1011B000891510F5BBE1BB1215C0843098F49C0171
:1011C00022503F4FD9012C918B0102C0000F111FFB
:1011D0002A95E2F7AB81BC812D913C9120233123EC
:1011E000242B352B41E0232B09F440E0242F2195BB
:1011F000A981BA8118962C93019629813A812F5F93
:101200003F4F3A8329838E30910509F0A0CFAB81FF
:10121000BC812C912F7088E02B3028F430E02B53C8
:101220003D4FD9018C918383AB81BC811A962D915E
:101230003C91BBE1BB1216C0AB81BC8119968C916D
:1012400085958054868387E29FE12F3F3F4711F4C5
:1012500080E690EF958B848B8DE7878380E884838D
:10126000858376C06DE1B61619F080E2B81220C011
:10127000AB81BC8119968C91805886838181928143
:101280008F7D41E050E02F3F3F4711F050E040E0BC
:1012900065E0440F551F6A95E1F7842B952B9283E7
:1012A0008183AB81BC8112969C9180E8891B8783E6
:1012B000BFE1BB1619F02AE1B212D0CF81E090E075
:1012C000AB81BC8112962C91233310F490E080E026
:1012D00054E0880F991F5A95E1F7218132812F7EC2
:1012E000822B932B9283818321E030E0AB81BC8100
:1012F00013964C91433310F430E020E045E0220F88
:10130000331F4A95E1F78F7D282B392B32832183B8
:10131000AB81BC8112968C911297848713968C9125
:101320001397858715968C91159780588483179607
:101330009C9117979058958319968C91199780587E
:1013400086831B968C9180588783BAE1BB1681F007
:101350000F900F900F900F90DF91CF911F910F91F1
:10136000FF90EF90DF90CF90BF90AF909F90089547
:101370009095958380958783EBCFEF92FF920F93A3
:101380001F93CF93DF93CDB7DEB72C970FB6F894AA
:10139000DEBF0FBECDBFE32FF0E0E459FD4F8081EB
:1013A0008F3F81F021E030E002C0220F331F8A9589
:1013B000E2F78091F1029091F2022823392381E033
:1013C000232B09F480E02C960FB6F894DEBF0FBEF5
:1013D000CDBFDF91CF911F910F91FF90EF900895B6
:1013E000EF92FF920F931F93CF93DF93CDB7DEB7AA
:1013F00064970FB6F894DEBF0FBECDBFE986FA86BC
:101400000B871C872D873E874F87588B698B7A8B7C
:101410008B8B9C8B9F3F69F4EA85FB8580818E21B5
:1014200091E009F490E081E02C859217B9F080E01A
:1014300015C088E0989FF0011124E654FA4F88E027
:10144000DE01119601900D928A95E1F74C815D8144
:1014500081E02E813F812417350748F764960FB647
:10146000F894DEBF0FBECDBFDF91CF911F910F91DA
:10147000FF90EF900895EF92FF920F931F93CF93F9
:10148000DF93CDB7DEB72C970FB6F894DEBF0FBE53
:10149000CDBFE982FA820B831C832D833E834F8369
:1014A000588769877A878B879C878091010284306F
:1014B00049F1893051F58CE792E02E81820F911D20
:1014C000FC0180818F3F81F021E030E002C0220FDB
:1014D000331F8A95E2F78091F3029091F40228235A
:1014E000392381E0232B09F480E02C960FB6F89481
:1014F000DEBF0FBECDBFDF91CF911F910F91FF9047
:10150000EF9008958CE992E0D8CF8CE892E0D5CFA7
:10151000CF93DF9300D00F92CDB7DEB72FB7F894FB
:1015200080914E0390914F03A0915003B0915103CD
:101530002FBF9C01AD0187E0220F331F441F551FB1
:101540008A95D1F7CA01B9012DE730E040E050E0BB
:101550000E94F32CCA01B9010F900F900F900F90C9
:10156000DF91CF9108958EBD00000DB407FEFDCF31
:101570008EB5089590E0FC01E757FD4F2491FC01E2
:10158000E153FD4FE491EE2389F0F0E0EE0FFF1FF1
:10159000E159FD4FA591B4919FB7F8948C916111D9
:1015A00006C0E22FE095E823EC939FBF0895822BBD
:1015B0008C93FBCF61E084E3DDDF61E083E3DACF8E
:1015C00090E0FC01E757FD4F2491FC01E153FD4FF2
:1015D000E491EE2359F0F0E0EE0FFF1FEB5AFD4FC0
:1015E000A591B491EC91E22381E009F480E00895A3
:1015F000CF93DF93EC0180913807E2DF91E08927F8
:101600004FEF5FE7849F9001859F300D11243B874A
:101610002A87DF91CF91089520917B00982F987FA2
:10162000277F922B90937B008770806480937C004F
:1016300080917A00806480937A0080917A0086FDA0
:10164000FCCF8091780090917900089580917A0084
:1016500086FDFCCF81E0809304020895CF93DF9351
:1016600090E0FC01E757FD4F249181539D4FFC0111
:1016700084918823D1F090E0880F991FFC01EC51F0
:10168000FF4FA591B491FC01E159FD4FC591D49153
:101690009FB7613069F4F8948C91209582238C93E4
:1016A0008881282328839FBF7894DF91CF91089564
:1016B000623051F4F8943C91822F809583238C936F
:1016C0008881822B8883EFCFF8948C91822B8C9326
:1016D000EACFCF92DF92EF92FF920F931F93CF93B7
:1016E000DF936B017C01142FD22F60E083E3B6DF20
:1016F00062E082E3B3DF60E084E3B0DF61E085E3D2
:1017000039DF60E085E3AADF1111C8E0D111C460C0
:101710000111C062C11482E1D8068AE7E806F1042B
:10172000D0F5C11489E0D8068DE3E806F104A8F5E8
:1017300080E8C81684E8D8068EE1E806F10478F55A
:1017400080E4C81682E4D8068FE0E806F10448F584
:1017500080E2C81681EAD80687E0E806F10418F5A9
:1017600080E9C81680EDD80683E0E806F104E8F4C5
:1017700087E091E08927982F96959C2B90659CBDDA
:1017800081708DBDDF91CF911F910F91FF90EF90F0
:10179000DF90CF90089580E0ECCF81E0EACF82E047
:1017A000E8CF83E0E6CF84E0E4CF85E0E2CFCF92DC
:1017B000DF92EF92FF92F0E0E0E067E675E483E20B
:1017C00091E041E2409357002491622728E030E005
:1017D0006B017C0151E0C522DD24EE24FF249695A7
:1017E000879577956795CD28CE28CF2841F050E290
:1017F000652753E8752758EB85275DEE952721501F
:10180000310931F73196E032F105E1F6FF90EF90C2
:10181000DF90CF900895682F85E3ACCE982F8D3060
:10182000A1F0823090F080912507882321F02CEEE2
:10183000290F223058F080912407882339F09253E1
:1018400081E0943018F080E0089581E008950F93CE
:101850001F93CF938091E403882391F00EE913E066
:10186000C0E08C2FDBDF811103C061E08C2FF6DE3E
:101870008C2FA6DEF80181938F01CF5FC63489F7E4
:10188000109205041092E403CF911F910F910895D7
:10189000CF93DF93EC01FB0180818052990B880F7D
:1018A000880F1C828D8381818052990B880F880F4D
:1018B0001E828F838581248135812095309590917A
:1018C000A807933260F0938191FF09C09095907EB4
:1018D000628166956E736A3120F5623139F1982F15
:1018E00096959695969561E096279170B92FB29549
:1018F000BB0FB07EA0E0367D2A2B3B2B82958695D0
:10190000877086278170582F550F550F550F40E06F
:10191000242B352B3093F2022093F102DF91CF91EB
:1019200008956E31E1F690930604D9CF90930A049E
:10193000D6CFFC01DB018C91880F880F8058148270
:10194000858311968C911197880F880F8058168285
:10195000878313968C9113978F718E50990B97FDF7
:1019600020C09187808720853185C901880F991F04
:10197000820F931F80329105BCF491878087808508
:1019800091854097880F880F880F1086818714965D
:101990008D919C91809590959093F2028093F102A5
:1019A000089511861086DFCF8FE190E0E6CFFC012D
:1019B000DB018C918058990B1482858312968C914F
:1019C00012978058990B1682878311968C911197E4
:1019D0008058990B1086818713968C9113978058A5
:1019E000990B1286838714968C911497828315968F
:1019F0008C911597838316968D919C9180959095E7
:101A00009093F2028093F1020895FC01DB018C9126
:101A10008F738052990B9583848311968C911197C3
:101A20008F738052990B978386838C9190E023E08B
:101A3000959587952A95E1F78871992711962C91AC
:101A4000119730E045E0359527954A95E1F72670E6
:101A50003327822B932B12962C911297221F222729
:101A6000221F822B40979187808712968C91129724
:101A70008F718051990B9387828712968C91129760
:101A800086958695887113969C9113979295969555
:101A90009770892B828313968C9113978F71838310
:101AA00014968D919C91809590959093F2028093DD
:101AB000F1020895DC01FB01908181818295869578
:101AC0008670292F2695269526952871822B2281AE
:101AD000221F2227221F822B990F990F90581496AC
:101AE0001C92149715969C9315979181990F990FB5
:101AF000905816961C92169717969C9317972481C8
:101B0000938120FF3BC0292F30E0209530952F7125
:101B10003327205E3F4F19963C932E931897082E3B
:101B2000000C990B228120FF2FC02FE330E0281BEF
:101B3000390B1B963C932E931A9782818695869536
:101B400088719381929596959770892B12968C93B4
:101B50001297828190E0959587958F7013968C935C
:101B600084819581982789279827809590958D7CE9
:101B700093769093F2028093F10208959F7120E290
:101B800030E0291B3109C7CF20E230E0D0CFCF931E
:101B9000DF93FC01EB018A8190E0982F882788274A
:101BA0009F706881862B958384838A8120E1829F40
:101BB000C001112488279F706981862B97838683B3
:101BC0008B8183838D8181FB992790F9392F329501
:101BD000330F330F307C20E0982F9695969561E077
:101BE00096279170B92FB295BB0FB07EA0E02A2B3B
:101BF0003B2B8170582F5295507F40E0242B352B82
:101C00003093F2022093F102DF91CF910895FC010D
:101C1000DB018D919C9111979583848312968D9110
:101C20009C9113979783868314968C918383089550
:101C3000FB01848195819827892798278095909525
:101C40009093F2028093F102089580E0E4DD81EE4A
:101C50008ADC81E0E0CD80E0DEDD82EE84DC81E0C4
:101C6000DACD80E0D8DD80E57EDC83E77CDC81E0D6
:101C7000D2CD0F931F93CF93DF93182F062FEC0134
:101C8000899171DC8C2F811B8017D0F3DF91CF916C
:101C90001F910F910895CF93DF93D82FC62F80E027
:101CA000BADD8D2F80625FDC8C2F5DDC81E0DF91FF
:101CB000CF91B1CDEF92FF920F931F93CF93DF930C
:101CC000F82EE92EC62F8091A705811109C0C0E02A
:101CD0008C2FDF91CF911F910F91FF90EF9008957E
:101CE0001092A70580E097DD8FEF3DDCD82F81E0D3
:101CF00092DD2D2F30E0359527952770332727303B
:101D0000310529F360E487E0C6DFC11109C080E036
:101D100082DD80E628DC80E026DCC82F81E07BDDE8
:101D200080E079DD81E61FDC0F2D1E2D802F8F19BD
:101D30008C1718F081E06FDDCBCFF80181918F0116
:101D400012DCF80131978083F1CFCF93DF9300D07D
:101D50000F92CDB7DEB7DB019C010E94382D69835D
:101D60007A838B839C83AB01BC015F7766277727DF
:101D700081E090E0A0E0B0E04115504461057105BC
:101D800019F480E090E0DC012EE0880F991FAA1F73
:101D9000BB1F2A95D1F729813A814B815C81820F43
:101DA000931FA41FB51F3FE0B595A79597958795FD
:101DB0003A95D1F70F900F900F900F90DF91CF9140
:101DC0000895F89488E198E00FB6F894A895809368
:101DD00060000FBE90936000FFCF1F93CF93DF93FF
:101DE000182FEB0180E017DD812FBDDB8881BBDB85
:101DF000888381E0DF91CF911F910DCDCF93DF9349
:101E00000F92CDB7DEB7BE016F5F7F4FE6DF8981EE
:101E10000F90DF91CF9108951F93CF93DF93182FE9
:101E2000D62FC72F80E0F7DC812F80629CDB64E037
:101E30008D2F9C2F1EDF81E0DF91CF911F91EBCC86
:101E400085ED8093BC008FEF9FE72091BC0024FDBF
:101E500003C01092B70502C00197B9F70895CF9358
:101E6000DF93DC01FA0184E1EB0188831C92119677
:101E70008C93119712968CE001900D928A95E1F760
:101E8000DF91CF910895CF93282FCB01C42F4FEF2F
:101E90005FE7C13228F080E045C041505109D9F3D5
:101EA0003091B7053111F9CF31E03093B705309358
:101EB000B6054FEF40932A0310924C034C0F40930A
:101EC0004B0330934D0330914D03220F232B20936E
:101ED0004D032091B505222381F11092B505209183
:101EE0004D032093BB002FEF3FE74091BC0043FD23
:101EF0001BC025EC2093BC002FEF3FE74091B705B6
:101F00004130E9F020914C032C1710F4C0914C03A0
:101F10004C2F50E06BE273E00E94802D81E0CC23D7
:101F200009F4B9CFCF9108952150310909F4B3CF05
:101F300040914D034093BB00D8CF25EEDBCF21501D
:101F40003109E1F6A8CFCF93C82F8FEF9FE7413239
:101F500020F080E03FC00197E1F32091B705211107
:101F6000FACF82E08093B70581E08093B6058FEFCA
:101F700080932A0310924C0340934B0350E08BE272
:101F800093E00E94802D10924D0380914D03CC0F61
:101F9000C82BC0934D038091B505882329F1109279
:101FA000B50580914D038093BB008FEF9FE7209193
:101FB000BC0023FD11C085EC8093BC008FEF9FE730
:101FC0002091B705223091F090912A0381E09F3F44
:101FD00009F0BFCFCF910895019709F4BACF2091AE
:101FE0004D032093BB00E3CF85EEE6CF019741F789
:101FF000B0CFEF92FF920F931F93CF93DF930F9287
:10200000CDB7DEB7182F6983E42EF22E032F41E0FF
:10201000BE016F5F7F4F97DF882371F04E2D6F2DCC
:10202000702F812F30DF81700F90DF91CF911F9142
:102030000F91FF90EF90089580E0F5CFCF92DF925F
:10204000EF92FF920F931F93CF93DF938C01EB01DD
:102050006C017B01E40EF11CCE15DF0549F4DF9124
:10206000CF911F910F91FF90EF90DF90CF90089547
:102070008AE50115110511F0F601808174DA899362
:10208000F0E5FA95F1F78FEFC81AD80AE5CF0F936C
:102090001F93CF93DF938C01D62FE091AA05F09187
:1020A000AB0590818091A90580958923808360E0AC
:1020B00084E360DA60E083E35DDA80E58A95F1F736
:1020C00043E065EF72E0C801B9DF8091F6028F3F0F
:1020D000A9F4D0E0C0E06EDAE091AA05F091AB057A
:1020E00080819091A905892B808380E58A95F1F7FD
:1020F000CE01DF91CF911F910F9108959091F7023A
:102100009A3511F09111E5CF8F70C82FCC0FD330D5
:1021100039F04DEF4D0F68EF72E0C80103968EDF86
:10212000CD5F4C2F4D1BCD1761F06D2F70E0CB01B3
:10213000840F911D81976CF66B507D4F90E080E08D
:102140007DDFC5EFD2E0C7CFFF920F931F93CF93F0
:10215000DF930F92CDB7DEB78983F62E8A0141E077
:10216000BE016F5F7F4F82E5EEDE882351F08FEC7A
:1021700092E00197F1F700C000004F2DB80182E511
:1021800082DE0F90DF91CF911F910F91FF90089504
:10219000CF93DF9300D000D0CDB7DEB7AE014F5F55
:1021A0005F4F66E08AEFD0DFFE013196AE01495FF6
:1021B0005F4F8FEF90E02191922B82234E175F07A4
:1021C000D1F7992369F08F3F59F099818E81269636
:1021D0000FB6F894DEBF0FBECDBFDF91CF9108954B
:1021E0008FEF9FEFF4CFCF92DF92EF92FF920F939A
:1021F0001F93CF93DF9300D000D0CDB7DEB78D8390
:102200009E83062F85D96B017C0110E0602F8D81A4
:102210009E813DDFFC01892B51F01F5F8D819E81E6
:102220008A5B9240D9F48181807F803F01F18FE306
:102230009CE90197F1F700C000006AD969837A83AD
:102240008B839C83DC01CB018C199D09AE09BF09EE
:102250008B3F9105A105B105C8F209C08D819E8112
:102260008E5B924099F48181807F803F01F32696B6
:102270000FB6F894DEBF0FBECDBFDF91CF911F9197
:102280000F91FF90EF90DF90CF900895133078F783
:10229000CECFCF93DF93EC0163E082EC92E0F7DEE8
:1022A000FC0180E0309751F08181982F907F903F22
:1022B00041F464E08EEB92E096DF81E0DF91CF9114
:1022C000089523813481209530953093F402209332
:1022D000F302903509F053C088E0809301028181B8
:1022E000823179F489E08093010285818058990BCD
:1022F0001C828D8346818FE790E0841B91091E82AA
:102300008F838181807D8035C1F685818058990BCE
:102310001886898746818FE790E0BC01641B7109AC
:102320001A866B8747814058550B1C824D83408528
:10233000841B91091E828F838091A407882399F0C2
:1023400084E0809301021D821C821F821E82808590
:102350008058990B898790E080E030FF02C08FEFB2
:102360009FE79B878A878181893709F05CC08389D1
:102370008A8384898B8382E0809301029ECF83329B
:10238000A9F585E08093010285818058990B1C8214
:102390008D8341E08681813808F440E080E0942F0D
:1023A0009295990F990F907C488159815F7B482BBA
:1023B000592B5983488361E08781813808F460E0B4
:1023C00080E0962F9795992797955F77842B952B8B
:1023D0009983888361E04085413F08F460E040E0F4
:1023E000562F9E7F482B592B598348838181807FAC
:1023F000803E09F074CF86E080930102858190E0F1
:102400009D838C839681858197FD09C0803808F073
:102410008FE790E080589F4F9D838C8360CF8138F9
:10242000C0F781E8F6CF807F803509F446CF81E0A0
:102430008093010243CF1F93CF93DF93D82FC92FEF
:10244000809101028A3009F515E08D2F9C2F21DF44
:102450008FE99FE00197F1F700C000001150A9F744
:102460008D2F9C2F16DF8823C1F064E08AEB92E069
:10247000BADE65E085EB92E0B6DE69E08CEA92E0D8
:10248000B2DE64E08EEB92E0AEDE8D2F9C2F01DF9A
:10249000811103C08AE080930102DF91CF911F91E7
:1024A0000895CF93DF93CDB7DEB7C351D1400FB6B8
:1024B000F894DEBF0FBECDBF43E151E069E171E0AA
:1024C000CE0101960E94632D43E151E061E070E08E
:1024D000CE0101960E94A02DCD5EDE4F0FB6F8947E
:1024E000DEBF0FBECDBFDF91CF910895EF92FF9277
:1024F0000F931F93CF93DF930F920F92CDB7DEB759
:10250000082F142F732F8DB79EB79A83898350E0BD
:10251000CA010196EDB7FEB7E81BF90B0FB6F894A8
:10252000FEBF0FBEEDBF8DB79EB701967C016183E4
:10253000622F01960E94802D41E0410FB701802F4C
:1025400002DDE981FA810FB6F894FEBF0FBEEDBF40
:102550000F900F90DF91CF911F910F91FF90EF900F
:102560000895EF92FF920F931F93CF93DF930F92F3
:10257000CDB7DEB780910D02811109C08FEF0F90AA
:10258000DF91CF911F910F91FF90EF9008951982E5
:10259000A0910702B0910802E0910902F0910A02AD
:1025A0008E010F5F1F4F980141E051966C91808121
:1025B0009DDF7801882311F3A0910702B0910802F2
:1025C000E0910902F0910A02980141E015966C91A0
:1025D00080818CDF882391F2A0910702B0910802DC
:1025E000E0910902F0910A02980141E014966C9181
:1025F00080817CDF882309F4C1CFE0910702F0914C
:1026000008026481E0910902F0910A02809124029B
:10261000882309F455C08CE08983980141E08081CA
:1026200065DF882309F4AACF2FEF80E792E02150DD
:1026300080409040E1F700C0000080EC89838091E9
:102640000D0280FF02C080EE8983A0910702B09145
:102650000802E0910902F0910A02970141E0149604
:102660006C91808143DF882309F488CF81E09091C9
:102670001302911101C080E0880F8983A0910702A5
:10268000B0910802E0910902F0910A02970141E03D
:1026900051966C9180812ADF882309F46FCF1982CB
:1026A000A0910702B0910802E0910902F0910A029C
:1026B000970141E015966C91808118DF81505FCFC2
:1026C00084E08983980141E0808110DF882309F448
:1026D00055CF80911402811143C080910D0280FF7B
:1026E0003FC080E68983A0910702B0910802E09183
:1026F0000902F0910A02970141E014966C918081E1
:10270000F5DE882309F43ACF2FEF80E792E02150DD
:1027100080409040E1F700C0000081E090911302FA
:10272000911101C080E08983A0910702B091080255
:10273000E0910902F0910A02970141E051966C91F3
:102740008081D4DE882309F419CFA0910702B091CB
:102750000802E0910902F0910A0222E132E0A9CFD9
:1027600080E4C0CFCF93DF930F92CDB7DEB79C014B
:1027700080910D02811105C08FEF0F90DF91CF91F5
:10278000089581E02C3B310588F482E02236310542
:1027900068F483E02A32310548F484E024313105BD
:1027A00028F485E02A30310508F486E08983909189
:1027B0000E029817A9F0A0910702B0910802E091CB
:1027C0000902F0910A029E012F5F3F4F41E01296ED
:1027D0006C9180818BDE882379F2898180930E024F
:1027E00080E0CBCFEF92FF920F931F93CF93DF93B5
:1027F0000F920F92CDB7DEB7FC018B017A01809169
:102800000D0281110AC08FEF0F900F90DF91CF91D1
:102810001F910F91FF90EF9008959E2F8F2F9A8315
:102820008983A0910902B0910A029B012E0F311DEC
:1028300018968D919C9119978217930720F3E09138
:102840000702F09108029E012F5F3F4F42E0638D27
:102850008C914CDE8823B9F2A0910702B091080256
:10286000E0910902F0910A029701402F58966C916D
:1028700080813CDE8150C8CFCF93DF930F92CDB7DC
:10288000DEB780910D02811105C08FEF0F90DF91AF
:10289000CF91089588E1898380910B028330C1F044
:1028A000A0910702B0910802E0910902F0910A029A
:1028B0009E012F5F3F4F41E016966C91808116DE9E
:1028C000882319F3898186958695869580930B02D6
:1028D00080E0DCCFCF93DF930F92CDB7DEB780914E
:1028E0000D02811105C08FEF0F90DF91CF910895F8
:1028F000198280910C028823C1F0A0910702B09147
:102900000802E0910902F0910A029E012F5F3F4FF9
:1029100041E017966C918081E9DD882321F389815C
:1029200086958695869580930C0280E0DDCF0F9387
:102930001F93CF93DF930F92CDB7DEB78091140230
:10294000882309F45AC0A0910702B0910802E091CF
:102950000902F0910A028E010F5F1F4F980141E0BA
:1029600014966C91808145DB811107C08FEF0F9029
:10297000DF91CF911F910F910895898190910D0260
:1029800090FF3DC080628983A0910702B091080248
:10299000E0910902F0910A02980141E014966C91CD
:1029A0008081A4DD882311F38FED9EE20197F1F77A
:1029B00000C0000081E090912202911101C080E0EE
:1029C000879588278795898390912302992311F011
:1029D00080638983A0910702B0910802E091090207
:1029E000F0910A02980141E057966C9180817EDD5A
:1029F000882309F4BBCF1092140280E0B8CF8F7DFA
:102A0000C2CFCF93DF930F92CDB7DEB769839E011C
:102A10002F5F3F4F41E0682F82E568DD0F90DF9127
:102A2000CF910895EF92FF920F931F93CF93DF936F
:102A3000CDB7DEB768970FB6F894DEBF0FBECDBF37
:102A40007C0180910202909103028F3F980709F068
:102A500091C09EDB9C0190930302809302022F3F62
:102A60003F4FB9F465E580EFCCDF85E38A95F1F758
:102A7000000060E08BEFC5DF95E39A95F1F7000069
:102A800087DB909303028093020225E32A95F1F7F6
:102A90000000809102029091030283319F4F71F4F4
:102AA00061E08BEFAEDF85E38A95F1F7000065E525
:102AB00080EFA7DF95E39A95F1F70000809102027D
:102AC000909103029E7F019799F563E08EEF99DF65
:102AD00025E32A95F1F70000AE01475F5F4F68E0FC
:102AE00080E032DB8FE193E00197F1F700C0000056
:102AF000AE014F5F5F4F68E080E026DB48E050E0CA
:102B0000BE016F5F7F4FCE0109960E94732D892B06
:102B100009F05DC08F859889892B09F05EC025E09A
:102B20003DE086E03093F0022093EF0280930002B4
:102B30008091020290910302813021E0920709F412
:102B400073C008F054C08330910509F467C008F0E1
:102B500048C0009709F475C0019709F465C08BE07F
:102B600098E190930302809302021092F002109277
:102B7000EF025AC08B30984109F46BCF8E010F5E83
:102B80001F4FA8016091000280E0DEDAB8018823BF
:102B900089F0F80180910002A801480F511D8FEFC4
:102BA00090E04E175F0779F4992309F452CF8F3FD5
:102BB00009F44FCFE091EF02F091F0023097A1F1CC
:102BC000C701199531C02191922B8223EACF8FE161
:102BD00093E00197F1F700C07ECF27ED3CE088E05D
:102BE000A1CF419709F0BBCF88E19EE019C08231A7
:102BF0002FEF920761F158F4833021E0920721F121
:102C00008330934009F0ABCF8AE59DE009C0833162
:102C10009F4F09F0A4CF87E09EE002C089E99CE0C5
:102C20009093F0028093EF0268960FB6F894DEBF9F
:102C30000FBECDBFDF91CF911F910F91FF90EF900D
:102C4000089589EF93E2ECCF88E49CE0E9CF87EC2C
:102C50009DE0E6CF1F93CF93DF930F92CDB7DEB702
:102C6000182F80912302811721F180E0111180E358
:102C7000898390911402992311F082608983809155
:102C80002202882319F0898180688983A091070234
:102C9000B0910802E0910902F0910A029E012F5FB3
:102CA0003F4F41E057966C91808120DC8111109359
:102CB00023020F90DF91CF911F910895EF92FF9221
:102CC0001F93CF93DF930F92CDB7DEB7182F807786
:102CD00029F581E0111180E08295880F880F807CB2
:102CE0008983A0910702B0910802E0910902F09156
:102CF0000A02CE0101967C019C0141E055966C913F
:102D00008081F4DB970181110BC010920D020F90AE
:102D1000DF91CF911F91FF90EF90089581E0E0CF78
:102D200089818F7B80930F0216FF32C0198215FDB7
:102D300003C089818260898314FD03C08981816019
:102D4000898313FD03C0898188638983A091070269
:102D5000B0910802E0910902F0910A0241E0569612
:102D60006C918081C3DB882381F2812F877F11F0F2
:102D700080E070DF10930D02109216029FEF20E7A3
:102D800082E0915020408040E1F700C00000BFCFBA
:102D900084E08983CCCFCF93DF930F92CDB7DEB79A
:102DA000909124029923F9F091E0811101C090E003
:102DB000990F9983A0910702B0910802E09109024E
:102DC000F0910A029E012F5F3F4F41E051966C91B6
:102DD00080818CDB882319F08981809313020F9006
:102DE000DF91CF91089590910D029923C1F388232B
:102DF00021F0909113029111F2CF8983DBCF1F93C1
:102E0000CF93DF93D82F80912402C0E081111FC09F
:102E100080910D028823B9F0109112028D238093C6
:102E20001202C1E08D1301C0C0E0C195809116026D
:102E30008D2B59F081E0AFDFDD2349F092DB882351
:102E400031F010931202CFEF02C080E0A4DF8C2F8C
:102E5000DF91CF911F9108951F93CF93DF930F922E
:102E60000F92CDB7DEB7182F81111EC080E0F2DEC1
:102E7000198287E08A83A0910702B0910802E0914D
:102E80000902F0910A029E012F5F3F4F42E05596E2
:102E90006C9180812BDB8111109216020F900F90A4
:102EA000DF91CF911F91089581E0D4DE80E2898384
:102EB000113041F51A8285E090E054DC8A8120E4EB
:102EC000829FC001112487608A83A0910702B0917C
:102ED0000802E0910902F0910A029E012F5F3F4F24
:102EE00042E055966C91808101DB8823B9F288E03D
:102EF00080930D0210920F0281E08093160280E011
:102F00007EDFCCCF163018F481E08A83D4CF153120
:102F100028F482E08A838AE090E0CFCF83E08A833E
:102F200084E190E0CACF0F931F93CF93DF930F926A
:102F3000CDB7DEB78C0180910D02811107C08FEFF4
:102F40000F90DF91CF911F910F91089580912402EE
:102F50008111F5CF80911602882351F0C8010197A5
:102F6000889720F4802F78DF80E0EACF80E074DF5C
:102F7000B801093E134010F068EE73E0643071054B
:102F800010F464E070E008EE13E0C8010E94CC2C5D
:102F900061506983A0910702B0910802E091090293
:102FA000F0910A029E012F5F3F4F41E011966C9114
:102FB00080819CDA882309F4C2CF698170E06F5F59
:102FC0007F4FC8010E94E02C7093110260931002A1
:102FD000CB0196958795C6DBC7CF7F928F929F9244
:102FE000AF92BF92CF92DF92EF92FF920F931F9317
:102FF000CF93DF93CDB7DEB7CE53D2400FB6F89460
:10300000DEBF0FBECDBF43E151E061E070E0CE0115
:1030100001960E94902D8D859E85AF85B889089771
:10302000A105B10540F443E151E060E070E0CE015C
:1030300001960E94902D89859A85AB85BC85853146
:10304000944DA24AB105B1F043E151E069E171E06C
:10305000CE0101960E94632D1D861E861F86188A4A
:1030600042E450E06DEB71E0CE018B559F4F0E9422
:10307000632D08C08D859E85AF85B8890297A1050F
:10308000B10570F38A81873009F040C08FE08A83F0
:103090008D859E85AF85B8890497A105B10548F453
:1030A00048E550E065E671E0CE01835B9F4F0E94EA
:1030B000632D8D859E85AF85B88986309105A105E4
:1030C000B10548F51C82C951DF4F1882C75ED04058
:1030D000EA81F0E0E45DFD4FE491E23021F48AA55D
:1030E00091E089278AA743E050E069E272E0CE01CF
:1030F0008F5E9E4F0E94632D44E250E065E072E0D7
:10310000CE0183519F4F0E94632D13C0883009F078
:10311000BFCF8DE0BCCF86309105A105B10599F2F6
:1031200089309105A105B10598F20D97A105B1056A
:10313000D0F28D859E85AF85B8898E309105A10529
:10314000B10520F588A9843028F48230E8F081E0C8
:1031500088AB04C08450823008F418AACD5EDE4FDC
:103160001882C351D1408FE090E0A0E0B0E08D879D
:103170009E87AF87B88B43E151E061E070E0CE01FC
:1031800001960E94A02D06C082E0E2CF0E97A10515
:10319000B10521F383E191E0FE013196DE01AC5EE1
:1031A000BE4F01900D920197E1F7CB5EDE4FE881B3
:1031B000C551D140E093A807C95EDE4F8881C75151
:1031C000D1408093A707CC5EDE4F8881C451D140A7
:1031D0008093A607F0E0E45DFD4F949181E091308B
:1031E00009F080E08093A507E49181E0E23009F0E6
:1031F00080E08093A40785B5826085BD85B5816038
:1032000085BD80916E00816080936E00C650DE4F58
:103210008881CA5FD140882309F453C10E94D70B2B
:10322000C65CDD4F688379838A839B83CA53D2400F
:103230007E0189EDE81A8DEFF80AC550DE4F8881CE
:103240009981AA81BB81CB5FD140F70180839183B3
:10325000A283B383C65CDD4F88819981AA81BB813B
:10326000CA53D24089839A83AB83BC831092A7054B
:1032700060E088E00E942E0B60E085E30E942E0B48
:1032800000E020E040E060E074E284EF90E00E9423
:10329000690B60E088E00E94BA0A81E00E940B0C92
:1032A000AFE1BEE41197F1F700C0000061EF84E0E8
:1032B0000E944B0E62E083E00E944B0EBE01695CEF
:1032C0007D4F86E00E94ED0EC95CDD4F6881C753DB
:1032D000D240697FC95CDD4F6883C753D24086E026
:1032E0000E944B0E8DE10E94FE0E182F0E94310E9F
:1032F0008DE10E94FE0E0E2D882341F0181302C0AE
:103300000E94310E60E08DE10E944B0EBE01675CB1
:103310007D4F86E00E94ED0EC75CDD4F6881C9538A
:10332000D240677D6360C75CDD4F6883C953D2407C
:1033300086E00E944B0EBE01695C7D4F86E00E94D4
:10334000ED0EBE01695C7D4F80E00E94ED0EC95C10
:10335000DD4F6881C753D2406C60C95CDD4F688324
:10336000C753D24080E00E944B0E6CE485E00E947F
:103370004B0E8DE10E94FE0E682F64608DE10E946D
:103380004B0E8CE10E94FE0E682F6F638CE10E9451
:103390004B0E8DE10E94FE0E682F66608DE10E944B
:1033A0004B0E8CE10E94FE0E682F63608CE10E9440
:1033B0004B0E6FE381E00E944B0E60E787E00E94B6
:1033C0004B0E0E942B0E0E94250E60E787E00E94A4
:1033D0004B0EC95CDD4F1882C753D240BE01695CF9
:1033E0007D4F80E00E94ED0EC95CDD4F1881C75310
:1033F000D2401C7860E088E00E94BA0A612F6360C6
:1034000080E00E944B0E61E088E00E94BA0A602FC3
:103410007F2D8AE00E940C0F602F7F2D80E10E949B
:103420000C0F60E088E00E94BA0ABE016F5F7F4F18
:103430008BE00E940C0F63E082E00E944B0E61E083
:1034400088E00E94BA0A80916900826080936900D6
:10345000EC9A81E08093A3078091A807823209F05B
:103460000EC58DE198E0909349078093480781E06D
:10347000C85EDE4F9881C851D140923009F480E097
:103480008093A20788E5FE01E05AFE4FAAE4B7E068
:1034900001900D928A95E1F7C25CDD4F0FB6F8946A
:1034A000DEBF0FBECDBFDF91CF911F910F91FF9077
:1034B000EF90DF90CF90BF90AF909F908F907F90D4
:1034C0000895C75EDE4F8881C951D1408093460779
:1034D000C65EDE4F8881CA51D140809345078091F6
:1034E000A407882309F4F9C3CA5DDD4F8881C65259
:1034F000D24081708093440780917A0084608093E9
:103500007A0080917A00826080937A0080917A00BC
:10351000816080937A0080917A00806880937A003D
:10352000CC5EDE4F8881C451D140823009F4D7C3CC
:10353000833009F4D7C3813099F4C55EDE4F8881AA
:10354000CB51D1408093A80582E195E19093430748
:10355000809342078DEB99E0909341078093400759
:10356000CC5EDE4F8881C451D140833009F00AC45B
:10357000CA5EDE4F8881C651D1408130C9F41092B5
:10358000B70581E08093B6051092B505589A599A0F
:103590008091B9008E7F8093B9008091B9008D7FB2
:1035A0008093B9008AE08093B80085E48093BC00E2
:1035B000CA5EDE4F9881C651D14081E0913041F022
:1035C000CC5EDE4F2881C451D140213009F080E02B
:1035D000817080932507C85EDE4F8881C851D14035
:1035E000823009F4E8C381E0CC5EDE4F2881C4510B
:1035F000D140233009F080E0817080932407C150CE
:10360000DE4F8881CF5FD1408093230790932207BC
:1036100084E2FE01FE5FAEEFB6E001900D928A9566
:10362000E1F71092FD061092FC060E94260B109204
:103630003B0610923A061092B9051092B805CE01D9
:103640008C5E9E4F7C016C01B12C75E0972E8E0133
:103650000C5F1F4FF801292D11922A95E9F7B982C5
:10366000D60190968C90A090A407BFEF8B1679F1AD
:10367000E5E0BE1209C0AA2039F0CA5EDE4F88819B
:10368000C651D140833019F5D60191967C9061E006
:10369000882D0E942E0B7B828AEC880D8A83A09154
:1036A0003A06B0913B06CD01019690933B0680937C
:1036B0003A0663E0AA0FBB1F6A95E1F7A654BA4F1A
:1036C00088E0FE01319601900D928A95E1F7B3945E
:1036D000B2E0CB0ED11CE6E0BE12BCCFC150DE4F33
:1036E0008881CF5FD1408F3F19F060E00E942E0BA0
:1036F00010E000E05CE0852ECC5EDE4F8881C45196
:10370000D140823009F06AC3D7015096BC90BFEF18
:10371000BB1609F49FC081E00C30110538F4980104
:10372000285031092230310508F080E0382F3170FF
:1037300080FF08C021E0C85EDE4F8881C851D140BB
:10374000813009F020E0C25CDD4F0883CE53D240C7
:103750008B2D90E0FC01E153FD4F4491FC01E757B4
:10376000FD4F7490E42FF0E0EE0FFF1FEB5AFD4F7A
:10377000C590D490E22FE170C65CDD4FE883CA5358
:10378000D240CC5DDD4F9880C452D2408091A507D5
:10379000882309F412C3332309F40FC3F5E3FB159F
:1037A00008F00BC3CE5BDE4F8881C254D14028E0C5
:1037B000829FC00111241B821C821D82B98221E0DC
:1037C00028879F838E8361E08B2D0E942E0BA09112
:1037D0003A06B0913B062A2F8AEC8B0D8A83CD01E5
:1037E000019690933B0680933A0633E0AA0FBB1FE5
:1037F0003A95E1F7A654BA4F88E0FE013196019060
:103800000D928A95E1F74091FC065091FD06CA01A0
:1038100001969093FD068093FC06849EF001859EA0
:10382000F00D1124E45CF94F7082D282C182C65C33
:10383000DD4F8881CA53D2408383B482C25CDD4F9E
:103840009881CE53D24095831682178210861186B6
:10385000928623870F5F1F4F8FEFE81AF80A003117
:10386000110509F049CFAA2009F423C2CA5EDE4F30
:103870001881C651D140113009F0F1C2CD5BDE4F45
:103880008881C354D14080933B07789480E8898332
:10389000A0910702B0910802E0910902F0910A029A
:1038A0009E012F5F3F4F41E055966C9180810E94B1
:1038B0007612882309F467C09FEFA9E6B8E191501A
:1038C000A040B040E1F700C000001982A0910702BB
:1038D000B0910802E0910902F0910A029E012F5F67
:1038E0003F4F41E055966C9180810E94761288236B
:1038F00009F449C0109215028FEF80930D02809356
:103900000B0280930C0280930E022FEF3FEF309357
:1039100011022093100280931202809314021093DC
:103920000F0210932202109223021092170210929B
:103930001602E8E1F2E08AE0DF011D928A95E9F7DC
:103940001092240210922502109227021092260251
:103950000E943C14811117C00E946A14811113C087
:103960008AE290E00E94B21381110DC082E390E0E0
:10397000DADA811108C043DA811105C00E94971478
:10398000811101C09BD988E799D90E943C140E94FB
:103990006A1488E734DA80912502811199C0F12CEC
:1039A000E12C86EFC82E8BE0D82E86010E191F0958
:1039B0000131110510F000E110E0F701EB5EFC4F62
:1039C000DE011196CD01800F911F8A179B0709F028
:1039D00042C2AE014F5F5F4FB801C7010E94F213B0
:1039E000811176C080910D02882309F471C09E2D4B
:1039F0008F2DC95CDD4F99838883C753D240E091F6
:103A00000902F0910A0220853185C8018E0D911DB1
:103A10002817390708F45CC0A0910702B09108028A
:103A20009E01295C3D4F42E05B966C9180810E9433
:103A30007612882309F44CC0A0910702B0910802C5
:103A4000E0910902F0910A029E01295D3D4F402F4D
:103A500058966C9180810E94F90F8823C9F1A801C2
:103A6000BE01695D7D4FCE0101960E94732D892BA9
:103A700079F5E00EF11EB6EFEB16BBE0FB0608F49D
:103A800094CF84E0C95CDD4F8883C753D240C85CC3
:103A9000DD4F1882C853D240A0910702B0910802AE
:103AA000E0910902F0910A029E01295C3D4F42E03B
:103AB0005D966C9180810E947612882349F081E0A6
:103AC0008093250288EC90E0909327028093260251
:103AD0008CE0E6EDF2E0DE01119601900D928A9500
:103AE000E1F7C95DDD4F1882C752D24085E0C85D5D
:103AF000DD4F8883C852D240AE01495D5D4F62E020
:103B000070E086E192E00E94F213811111C0AE01D3
:103B10004F5F5F4F6CE070E081EC9AE00E94F2131F
:103B2000811106C08EE190E090932F0780932E07BD
:103B300080912402813011F1809125028823F1F0D7
:103B400080E029D90E949714809126029091270243
:103B5000EAD91982E0910902F0910A029E012F5FD1
:103B60003F4F41E063E280810E947612882331F06A
:103B700081E0809324020FD90E94B11282E08983F0
:103B80008AEC8A8383EE8B8319E01C83AE014F5F3E
:103B90005F4F64E070E088E690E00E94F21383EAF1
:103BA00089838A838B838C838D838E838F8388879D
:103BB00089878A87AE014F5F5F4F6AE070E087EACE
:103BC0009AE00E94F21388ED8983AE014F5F5F4F48
:103BD00061E070E086EB9AE00E94F213E3EEF2E01F
:103BE000DE01A95DBD4F01900D921A95E1F7AE017E
:103BF000495D5D4F69E070E088EB94E00E94F2134C
:103C000044E050E06BE870E0CE01895D9D4F0E947A
:103C1000892DAE01495D5D4F64E070E088E99AE06E
:103C20000E94F2130E94B11280E2C95DDD4F8883C9
:103C3000C752D24088E2C85DDD4F8883C852D24067
:103C400080E3C75DDD4F8883C952D24088E3C65DFB
:103C5000DD4F8883CA52D240AE01495D5D4F64E0BA
:103C600070E08EE99AE00E94F2130E94B11288E19E
:103C700090E090932D0780932C070E94B11280E171
:103C8000809330078CE790E290933A07809339074E
:103C900086E0FE01E25EFD4FA2E3B7E001900D92E7
:103CA0008A95E1F7C15CDE4F8881CF53D140809384
:103CB0003107CF5BDE4F8881C154D14010923E075F
:103CC00080933F07C05CDE4F8881C054D14090E0B4
:103CD00090933D0780933C07BFCB80E00ACC80EFF8
:103CE00099E03ACC01E021E041E060EA76E881E049
:103CF00090E00E94690BE9EDF2E08491E3E9F2E0E3
:103D00001491E82FF0E0EE0FFF1FE159FD4FE59011
:103D1000F490CC5DDD4F8881C452D2401093A90548
:103D2000F092AB05E092AA051092AC059AE0909350
:103D3000AD051092AE051092AF051092B00510922D
:103D4000B1051092B2058093B3058FEF8093B4054F
:103D500060E08AE00E942E0B0E94DA0AF70180815F
:103D6000182B1083F0E5FA95F1F78BE39AE0909326
:103D70004107809340078BE192E190934307809342
:103D80004207EECBC85EDE4F8881C851D1408230F9
:103D900049F400E021E041E060E072E18AE790E070
:103DA0000E94690BCC5EDE4F8881C451D1408130C6
:103DB00009F0DECBE4CB81E01FCC62E0621B8B2DEF
:103DC0000E942E0BAA2041F00230110528F4CB5D91
:103DD000DD4F9880C552D2402FEF15CD702FEFECFC
:103DE000F2E08491E9E8F2E06491E82FF0E0EE0F70
:103DF000FF1FEB5AFD4F85919491CC5DDD4FA8815B
:103E0000C452D240AA2041F00230110528F4CB5D03
:103E1000DD4FA881C552D2404091FC065091FD066D
:103E20009A012F5F3F4F3093FD062093FC06849E3E
:103E3000F001859EF00D1124E45CF94F60839283BC
:103E400081831382148275831682178210861186ED
:103E5000A2872FEFFECC24912D933196B6CD123050
:103E600009F016CFC25CDE4F8881CE53D1408093DB
:103E7000380762E00E942E0B88EF9AE005CF83326C
:103E800008F0F5CA843118F48FE29FE0ECCA9CEE8A
:103E9000980F963008F4EBCA803258F046E050E0B4
:103EA00060ED72E088E392E00E94632D86E08093EB
:103EB00047078091A8078A3149F48DE080932B024F
:103EC0008CE080932C0282E898E0CDCA982F9D7FE9
:103ED0004EE050E067E27FE09C3171F04EE050E050
:103EE00069E17FE08B3141F08D3111F0803259F77B
:103EF0004EE050E06BE07FE08AE292E00E94632DAA
:103F0000E2CFCF93DF9300D00F92CDB7DEB720E0A2
:103F100030E040E057E469837A838B839C83698136
:103F20007A818B819C810E94322C69837A838B8376
:103F30009C8369817A818B819C810E94CF2BCB01EC
:103F40000F900F900F900F90DF91CF9108958F9267
:103F50009F92AF92BF92CF92DF92EF92FF920F9318
:103F60001F93CF93DF9300D000D00F920F92CDB765
:103F7000DEB78C016F8378872F8138852817390742
:103F800071F480E090E2121613060CF471C090E018
:103F900080E0232B09F46CC080E090EA69C0990F9F
:103FA000880B982F80959095980128273927A9018B
:103FB000481B590B5E834D838F819885990F880B21
:103FC000982F809590952F81388528273927B9011A
:103FD000681B790B7A83698364EE77EF81EB9DE34D
:103FE00090DFD82EC92E69EF7DE78CEA9EE389DF4A
:103FF0007C018F8198859C01990F440B550B4801DA
:10400000012E000CAA08BB08A981BA816D817E81AE
:10401000A617B7070CF03FC0D501C4016FE0880FA9
:10402000991FAA1FBB1F6A95D1F789839A83AB8317
:10403000BC83BC01CD010E94152D4901C901990F16
:10404000880B982F80959095BC0162277925681B75
:10405000790B8D2D9C2D0E94A50EB4018E0D9F1DF8
:104060000E94A50EAF81B8851A161B060CF0905859
:1040700028960FB6F894DEBF0FBECDBFDF91CF916B
:104080001F910F91FF90EF90DF90CF90BF90AF9076
:104090009F908F900895CA01B9012FE0660F771F96
:1040A000881F991F2A95D1F769837A838B839C8314
:1040B000A50194010E94152D4901C901990F880B92
:1040C000982F80959095BC0168257925681B790B00
:1040D0008D2D9C2D0E94A50EB4018E0D9F1D0E945A
:1040E000A50E9C0180E090E41016110614F080E00B
:1040F00090EC821B930BBCCF8F929F92AF92BF929A
:10410000CF92DF92EF92FF920F931F93CF93DF93A3
:10411000CDB7DEB7EA970FB6F894DEBF0FBECDBFBE
:1041200089AF9AAF1092190310921803D0903007FC
:10413000ED2CF12C80912402882311F180910D0245
:104140008823F1F0A0910702B0910802E0910902E2
:10415000F0910A029E012F5D3F4F42E01C966C9148
:1041600080810E94F90F882359F009A11AA1102714
:10417000012710270E151F0508F08FC01092170396
:1041800080911803909119038115914009F0B6C2EE
:10419000C0901A03D0901B03E0901C03F0901D0305
:1041A00077E1F594E794D794C7947A95D1F7D092B4
:1041B0001B03C0921A0380901E0390901F03A090CF
:1041C0002003B0902103E7E1B594A79497948794D6
:1041D000EA95D1F790921D0380921C03409122032F
:1041E000509123036091240370912503F7E17595A5
:1041F000679557954795FA95D1F750931F034093CC
:104200001E0300912603109127032091280330916B
:104210002903A7E13595279517950795AA95D1F715
:10422000109321030093200380913B07009FF0012E
:10423000019FF00DF00D1124813009F4A8C18230E6
:1042400009F4B1C2811136C2449FC001459F900D4F
:10425000900D11248E0F9F1F880F991FE0E0F0E84A
:10426000E81BF90B489DD001499DB00D589DB00D3C
:1042700011240C9DC0010D9D900D1C9D900D1124CD
:104280009D01281B390BC901BF01880F991F5FDEF3
:1042900090931603809315030DC2A0910902B0916B
:1042A0000A02E0910702F09108028C9111962D917B
:1042B0003C91369527952017310780F49E012F5D9C
:1042C0003F4F41E063890E94F90F882309F458CFDA
:1042D00089A184FF03C00E94B11252CFA0910702AE
:1042E000B0910802E0910902F0910A029E012F5F4D
:1042F0003F4F4D2D1D966C9180810E94F90F8823B0
:1043000009F43ECFC801B7010E94CC2C61506093E4
:104310001703E0912C07F0912D07CF0184719927A5
:10432000892B09F432C129813A814B815C81CA0110
:10433000B9010E94312D4B015C0180921A039092C9
:104340001B03A0921C03B0921D038D819E81AF813F
:10435000B885BC01CD010E94312D6B017C01C0925A
:104360001E03D0921F03E0922003F09221032985BF
:104370003A854B855C85CA01B9010E94312D8B01BC
:104380009C01009322031093230320932403309372
:1043900025038D859E85AF85B889BC01CD010E941E
:1043A000312DAB01BC01409326035093270360934A
:1043B000280370932903C501BB2797FDB095AB2F48
:1043C0008BA39CA3ADA3BEA3C701BB2797FDB0954C
:1043D000AB2F8FA398A7A9A7BAA7C901BB2797FDA1
:1043E000B095AB2F8BA79CA7ADA7BEA7CB01BB27D2
:1043F00097FDB095AB2F8FA798ABA9ABBAAB2BA10C
:104400003CA14DA15EA1CA01B9010E94BD2C6BA3C4
:104410007CA38DA39EA32FA138A549A55AA5CA01A7
:10442000B9010E94BD2C6FA378A789A79AA7CBA03A
:10443000DCA0EDA0FEA0C60ED71EE81EF91E2BA51F
:104440003CA54DA55EA5CA01B9010E94BD2CC60EB2
:10445000D71EE81EF91E2FA538A949A95AA9CA01D5
:10446000B9010E94BD2C6BA37CA38DA39EA3C60E95
:10447000D71EE81EF91E9FE0F91AA1E0CA16D10462
:10448000E104A2E0FA0638F00E94B112109219037A
:104490001092180375CE80911803909119039160C2
:1044A000909319038093180380E1E6FF39C0282F09
:1044B00030E0A1E0B0E0AC0FBD1FA20FB31F9C9194
:1044C000DE01A20FB31F12964C91592F5093010099
:1044D00040930000DE01A20FB31F13969C91DE01F2
:1044E000A20FB31F14964C91592F50930300409381
:1044F0000200DE01A20FB31F15969C911597169628
:104500002C91392F30930500209304008A5F20916D
:10451000180330911903286030931903209318036E
:10452000E078F170EF2B09F42BCE90E0E1E0F0E0C1
:10453000EC0FFD1FE80FF91F3081FE01E80FF91F96
:1045400022813093010020930000FE01E80FF91F43
:104550003381FE01E80FF91F24813093030020937B
:104560000200FE01E80FF91F25818681922F9093AA
:1045700005008093040080911803909119038067CF
:104580009093190380931803FBCD80E08ECF089D94
:10459000C001099D900D189D900D11244C9D900116
:1045A0004D9D300D5C9D300D11247C01E21AF30A03
:1045B000B701C7010E94A50E8C01BC010E94A50E87
:1045C0005C01BC010E94A50E6C0160E670EB89E302
:1045D0009DE397DCB8010E94A50E8BA39CA36AE221
:1045E0007EEE87E39CE38DDC8FA398A76EEF7AEBDA
:1045F00087ED9CE386DCB8010E94A50E8BA79CA7E3
:1046000066EA79EB88EA9CE37CDC8FA798AB62E3EF
:1046100077E88AEF9CE375DCB8010E94A50E8BABAE
:104620009CAB63E87EEC86E39DE36BDC8DAB9EABDD
:104630006AEC79E989E99DE364DCB8010E94A50E82
:104640008FAB98AF6AEA7AEA8AE29EE35ADC4C01C1
:10465000B5018BA19CA14FA158A5841B950B0E946D
:10466000A50E2BA53CA5AFA5B8A92A0F3B1FB601E7
:10467000820F931F0E94A50E6C01B5018BA99CA906
:10468000EDA9FEA98E0F9F1F0E94A50E8C0D9D1DEA
:104690002FA938AD820E931EB801880D991D0E9476
:1046A000A50EB7010E94A50EE80EF91EF0921603A2
:1046B000E092150380911503909116038A3939E130
:1046C00093070CF48FC089E999E1909316038093C6
:1046D0001503209115033091160345E0429FC00158
:1046E000439F900D112420913107222319F09195B9
:1046F00081959109909316038093150320911503DA
:104700003091160330939D0320939C03032E000CDD
:10471000440B550B8091340790913507092E000CFE
:10472000AA0BBB0B281B390B4A0B5B0BA091320762
:10473000B09133070E945D2D20E034E040E050E06E
:104740000E94152DDA01C9019058A109B1098115FE
:1047500050E895075FEFA507B50724F480E090E8DF
:10476000AFEFBFEF8115E0E89E07A105B10524F08A
:104770008FEF9FE7A0E0B0E0E9ADFAAD93878287C5
:10478000EA960FB6F894DEBF0FBECDBFDF91CF9192
:104790001F910F91FF90EF90DF90CF90BF90AF905F
:1047A0009F908F900895CC9CC001CD9C900D900D52
:1047B00011248E0F9F1F880F991FE0E0F0E8E81B7F
:1047C000F90B8C9CD0018D9CB00D9C9CB00D1124DC
:1047D000049FC001059F900D149F900D11248A0F16
:1047E0009B1F52CD8736964E0CF073CF87E696EE20
:1047F0006CCF8F929F92AF92BF92CF92DF92EF9247
:10480000FF920F931F93CF93DF938C01EB0188816D
:104810008058990BF8011482858389818058990BFF
:10482000168287838091A805882309F43EC02D81D4
:10483000822F90E0CB80F4E0CF9E60011124AC0188
:1048400034E0559547953A95E1F743705527C42ACA
:10485000D52A3FEFC31A31E0D30AEC80E4E0EE9EA4
:104860007001112495958795959587958370992763
:10487000E82AF92AFFEFEF1AF1E0FF0A8A8134E013
:10488000839FC00111242295269526952370822BA3
:10489000B7018F5F91405BDBF80191878087B7019B
:1048A000C60155DBF801938782878D81982F9095FB
:1048B0009170B92EB29490EFB922A12C869591E017
:1048C00089278170982E9294990C990C20EC922251
:1048D000812CA828B928B092F202A092F102DF91AF
:1048E000CF911F910F91FF90EF90DF90CF90BF90ED
:1048F000AF909F908F9008951F920F920FB60F92D6
:1049000011240BB60F922F933F934F935F936F93A6
:104910007F938F939F93AF93BF93EF93FF93609198
:10492000C6008BE995E00E94D107FF91EF91BF91FE
:10493000AF919F918F917F916F915F914F913F9137
:104940002F910F900BBE0F900FBE0F901F901895D8
:104950001F920F920FB60F9211240BB60F922F9346
:104960003F934F935F936F937F938F939F93AF93F7
:10497000BF93EF93FF932FB7F8948091B307909173
:10498000B4072FBF892BC9F089EA97E00E94EC0792
:104990008093C600FF91EF91BF91AF919F918F914E
:1049A0007F916F915F914F913F912F910F900BBE2F
:1049B0000F900FBE0F901F90189588E98093C1004B
:1049C000E9CF1F921FB61F9211248F939F93AF932D
:1049D000BF9380914E0390914F03A0915003B091EB
:1049E00051030196A11DB11D80934E0390934F0377
:1049F000A0935003B0935103BF91AF919F918F91BA
:104A00001F901FBE1F9018951F920F920FB60F9206
:104A100011240BB60F922F933F934F935F936F9395
:104A20007F938F939F93AF93BF93EF93FF93809167
:104A3000B900887F883309F463C0C8F58032A1F1DA
:104A400078F5883009F454C0B0F4882309F474C0B0
:104A5000FF91EF91BF91AF919F918F917F916F9156
:104A60005F914F913F912F910F900BBE0F900FBE12
:104A70000F901F9018958031D9F1883149F79091A6
:104A80004C0380914B03981750F5E0914C0381E063
:104A90008E0F80934C03F0E0E55DFC4F80812AC0CF
:104AA000883269F38033A1F680932A0307C08035EA
:104AB00079F138F48034C1F1883451F60E94200F26
:104AC000C7CF883529F6E0914C0381E08E0F8093A3
:104AD0004C038091BB00F0E0E55DFC4F808380914A
:104AE000B6058111EBCF81E08093B50584EA0BC058
:104AF00080914D038093BB0085EC8093BC00A8CFD0
:104B000080932A0385EC8093BC001092B705A0CF58
:104B1000E0914C0381E08E0F80934C038091BB00A9
:104B2000F0E0E55DFC4F808390914C0380914B0356
:104B3000981710F385E8E1CF10922A03BFCF8F9327
:104B400081E08093A7058F911895CDB7DEB7AD971B
:104B50000FB6F894DEBF0FBECDBF0E94ED1781E007
:104B600090E09093C5008093C40086E08093C200DB
:104B700082E08093C00088E98093C100539A5A9ADA
:104B800040E450E06BE575E08BE995E00E94BD07DD
:104B900040E850E06BED74E089EA97E00E94BD07C1
:104BA000789418A6D12C712C8FB7F894C090A505D5
:104BB0008FBFCC2009F469C2FF24F394FCE1EF2EEF
:104BC0008BE995E00E94EC07682FD11011C08E3759
:104BD00009F482C18D3709F482C1873711F4F0924C
:104BE0000602CA94C110ECCF27E0D212DDCF45C136
:104BF00021E0D21609F476C132E0D31204C18091CB
:104C0000A307882309F46BC06E3308F068C06233D1
:104C100009F465C0698381E08A830E94250E0E94A1
:104C20002B0E0E94880A6B017C0180E00E940B0C15
:104C30008FEF0E94B30A182F81E00E940B0C10FD29
:104C40000EC080E00E940B0C89EA0E94B30A62E069
:104C5000CE0101960E94390E81E00E940B0C81E08A
:104C60008093A70560E082E593E00E945A0E8823B6
:104C700011F08C3001F560E387E00E944B0E0E943A
:104C8000880A6F8F78A389A39AA3DC01CB018C19C2
:104C90009D09AE09BF09853F9140A105B10528F2E4
:104CA00088E08093520346E050E063E171E083E5E1
:104CB00093E009D787E08E8F88E78D8F61E0CE0182
:104CC0004D960E94050861E0CE014E960E940508AF
:104CD0006E8D82E593E00E940508D12C65CF88E0B7
:104CE000809352036E3360F1262F2E53330BC9018C
:104CF00022E3289FB001299F700D112403E111E0E8
:104D0000061B170B0233110514F002E310E0A80193
:104D100055276F5F7F4F83E593E002D7DD24D3945F
:104D2000D00EDD8E88E7898361E0CE0101960E9476
:104D3000050861E0CE014D960E9405086D8DC9CF32
:104D4000623311F0673301F56AE071E088E593E0C2
:104D5000C3D680E094E2A4EFB0E080935303909335
:104D60005403A0935503B09356030E94D70B60934E
:104D70006703709368038093690390936A031092AA
:104D80005703E9E1DE2ECDCF6C3361F48CE0E2E92C
:104D9000F3E0A3E5B3E001900D928A95E1F77DE0A1
:104DA000D72EBFCF6533B1F4D090A60731E0D31230
:104DB00009C080910202809353031092540363E070
:104DC000D62EAFCF83E0D812FACF80910102809324
:104DD0005303A7CF663339F48091050280935303C0
:104DE0000E94270C9ECF48E050E062E071E083E52E
:104DF00093E069D68091A8078F3110F41092560382
:104E000059E0D52E8ECF93E0D91211C08D3361F0C9
:104E1000893309F06BC0A3E8B4E0BDA3ACA37A94D6
:104E20006BA344E0D42EDDCEB1E0B8A7F8CFE4E028
:104E3000DE120FC08E9D900111243FA32EA38CA1E2
:104E40009DA1820F931F9DA38CA369A795E0D92EE6
:104E5000C8CE95E0D912C5CE7A94A8A5AA2329F187
:104E60000EA11FA10F5F1F4F8EA19FA18F5F9F4FAC
:104E700076D61FA30EA37110B4CE8091A3078E0126
:104E80000F5F1F4FDD24D39481113FC08BA180336E
:104E900009F08BC09FEFA1EEB4E09150A040B0406C
:104EA000E1F700C000000E94E10EECA1FDA13097E7
:104EB00021F08193FDA3ECA3DECFFBA1FB33D9F658
:104EC000809123078F3FB9F291E0611101C090E01A
:104ED000692F0E94BA0ACFCFDD24D39482CE32E06C
:104EE000D32E7FCE782E23E0D22E7BCE8BA31DA295
:104EF0001CA2ACCFD092A70560E08CA19DA10E941E
:104F00005A0E60E387E00E944B0EB80187E10E94D1
:104F1000ED0E8981780184FFEDCF60E387E00E9488
:104F20004B0E80E00E940B0C89EA0E94B30A8BA111
:104F30000E94B30A80E00E94B30A8BA18B7F893361
:104F400091F489A50E94B30A38A53323E1F04CE11E
:104F500050E06EA17FA16F5F7F4FC801E1D56CE18A
:104F6000C8010E94390E81E00E940B0C81E0809301
:104F7000A70511E0B70187E10E94ED0E898184FF4A
:104F800008C018A683CF6CE18EA19FA18D579B4FBF
:104F9000E8CF1093A70560E08CA19DA10E945A0E56
:104FA00060E387E00E944B0EE5CFEBA1E433A1F074
:104FB00060F4E333E1F1E13309F08FCE87E797E75F
:104FC00090930108809300086ECFFBA1FA3309F09B
:104FD00084CE0E94511281CE8091A30781117DCE93
:104FE00080910504811179CE8FEF809305020E9494
:104FF000260B05EE13E086E3F82E62E08F2D0E946B
:105000002E0B8FE891E00197F1F700C000008AECC9
:105010008F0D0E940C0BD8018D939D938D01F394FD
:10502000B6E4FB12EACF81E08093050456CE80916E
:10503000A307811152CE8091E40381114ECE8FEFF0
:10504000809305020E94260B10E000E0802F0E9452
:105050000E0C811111C062E0802F0E942E0BEFE830
:10506000F1E03197F1F700C00000802F0E94E00AC4
:10507000F801E256FC4F80830F5F1F4F0634110585
:1050800029F781E08093E40328CE0E94880A6F8F7D
:1050900078A389A39AA32091A30780917F0490917C
:1050A0008004A0918104B09182044F8D58A169A120
:1050B0007AA1481B590B6A0B7B0B8091A70790E0E4
:1050C000B0E0A0E084179507A607B70708F44AC028
:1050D000222309F469CD6CE083E794E00E945A0E24
:1050E0004CE050E063E774E087E694E0FCD4892B61
:1050F00009F45ACD80910602882309F455CDE09138
:105100004807F091490743E754E0BE01635E7F4FD3
:105110008EE094E019950E94880A60937F04709352
:10512000800480938104909382041092060288E7A1
:10513000898361E0CE0101960E94050861E0CE01FD
:105140004D960E9405086D8D8EE094E00E94050842
:105150008CE0E3E7F4E0A7E6B4E001900D928A95D5
:10516000E1F722CD2111B7CFE0914207F09143073B
:10517000309719F083E794E019958091050488230E
:1051800009F4DAC005EE13E0F12C8F2D0E940C0B10
:10519000D8012D913D918D01821B930B97FF03C088
:1051A0009195819591090B970CF4C1C086E38F0D01
:1051B00080930502109205042C2D30E038A32F8F28
:1051C0008091FC069091FD06281739070CF4FBC16D
:1051D00080914607882309F440C06091770470915C
:1051E000780480913E0790913F0744275527481B3C
:1051F000590B641775074CF42091730430917404B3
:1052000024603093740420937304861797074CF43A
:1052100020917304309174042860309374042093B7
:1052200073042091790430917A04241735074CF4E3
:1052300040917304509174044260509374044093FD
:105240007304821793074CF4809173049091740453
:105250008160909374048093730480914507882340
:1052600081F080917304909174049C012073332722
:105270002033310531F48F7C9460909374048093D3
:1052800073048091A407882349F0E0913907F091D5
:105290003A07309719F083E794E019958091A207B7
:1052A00081111ECF0E94B30A80E00E94B30A80E001
:1052B0000E94B30A80E00E94B30A7AE4E72E77E006
:1052C000F72E03E814E0912C812CD7016C911196F4
:1052D0004C91119712965C9112971396CC90F8010D
:1052E000A180B28083819081962B9F8F992309F4AE
:1052F00051C2811133C2A11018C0B11016C066236B
:10530000A1F06150862F90E0603108F00BC220912F
:10531000A507222309F4F5C1693008F4F2C18250CF
:105320009C4FDC018C918111FBC1C12C18C2F394FC
:10533000B0E1FB122ACF40CF8091E4038823E9F04B
:1053400010E000E0802F0E940E0C811110C0802F11
:105350000E94E00AF801E256FC4F9081891739F06B
:105360000E94270C009305021092E40325CF0F5FE3
:105370001F4F0634110531F71FCF60913A06709127
:105380003B066115710509F45AC080910402811130
:1053900030C080917A0086FD52C080917800909153
:1053A00079002091B8053091B905A90103E0440FB7
:1053B000551F0A95E1F7FA01E654FA4FA781A111AA
:1053C00004C0E281E11162C0925016E0880F991F7B
:1053D0001A95E1F746545A4FFA01948383832F5F5D
:1053E0003F4F6217730709F458C03093B9052093F3
:1053F000B80510920402E091B805F091B905B3E048
:10540000EE0FFF1FBA95E1F7E654FA4F88E0DE0190
:10541000119601900D928A95E1F790917B008A8117
:105420008870977F892B80937B008A818770806446
:1054300080937C0080917A00806480937A00F12CC4
:10544000EF2D0F2C000CFF0B80913A0690913B063C
:10545000E817F9070CF0B0CEA3E0EE0FFF1FAA95F6
:10546000E1F7E654FA4F88E0DE01119601900D92C3
:105470008A95E1F788858823A9F08C819D81E9814F
:10548000F0E0E250FC4F8083F394DACFE0E0F2E00A
:10549000DF01A81BB90BCD0198CF1092B90510926E
:1054A000B805A7CFF5E0FF1208C08091A4078823B4
:1054B00021F080912207823039F3E9800E2D10E02F
:1054C0008C819D815801AA0CBB1CF501EE56FC4F46
:1054D0009183808326E0209FF001219FF00D11240D
:1054E000E250F94F848095802C813D81032E000C81
:1054F000440B550B82819381092E000CAA0BBB0B28
:10550000281B390B4A0B5B0BA081B181D6D26F8F60
:1055100078A389A39AA320E034E040E050E085D24C
:10552000BA01A901505861097109411530E85307C2
:105530003FEF6307730724F440E050E86FEF7FEF1D
:10554000411580E858076105710524F04FEF5FE7CA
:1055500060E070E0C401092C000CAA0BBB0BE1E079
:10556000EE1538F42091A407222381F0F4E0EF1225
:105570000DC0481759076A077B0714F121E02E1563
:10558000C8F0F801ED58FB4F52837ECF48175907FA
:105590006A077B077CF48827992788199909092EBF
:1055A000000CAA0BBB0B84179507A607B70714F4CA
:1055B00040E050E0F501ED58FB4F5183408364CF4C
:1055C00040E050E8DBCF3CE0C39EC0011124DC0189
:1055D000A45CB94F5D0180914407882329F0E8E479
:1055E0008E2EE6E09E2EC11045010E94880A6AA711
:1055F0007BA78CA79DA7F40186819781A085B185A3
:105600004AA55BA56CA57DA5481B590B6A0B7B0BB6
:10561000828590E0B0E0A0E084179507A607B70761
:1056200008F06DC0E0914007F0914107D501EC9082
:105630001196FC90119712960C91129713961C914B
:10564000139714962C91149715963C9115971696CE
:105650004C91169717965C91179718966C9118971E
:1056600019967C9119971A968C911A971B969C9172
:105670001995A82EB12C2CE0EF8DF8A12E9F80015A
:105680002F9F100D1124045C194FD80115968C9191
:10569000E1E0F0E002C0EE0FFF1F8A95E2F7CF01D4
:1056A000209173043091740482239323A816B906C1
:1056B00031F10E94880AD40116966D937D938D93E3
:1056C0009C931997F801458121E030E0042E02C037
:1056D000220F331F0A94E2F72095309580917304CE
:1056E000909174048223932302C0AA0CBB1C4A9598
:1056F000E2F78A299B299093740480937304C394DE
:105700005BCD81E090E002C0880F991F6A95E2F7B7
:10571000209173043091740482239323892B91F098
:105720005A011DC020913C0730913D07633168F05C
:10573000880F991FFC01ED5AFB4F8081918128173A
:10574000390770F3C12CA12C0AC08B599B4FFC0167
:1057500080818217130609F01CF7F4CFC82E8FEF53
:105760000E94B30A8C2D0E94B30A8B2D0E94B30AAB
:105770008A2D0E94B30AFFEF8F1A9F0A24E0E20EDF
:10578000F11C0C5F1F4FA1CD8FEF0E94B30A3F8D1C
:10579000305F3F8F8F8D88151904B4F3A1CC41D0B1
:1057A000A8F19E57A8F1985160F039F1983070F542
:1057B000092E9927660F771F881F991F0A94D1F722
:1057C0001CC0BB27993F4CF4B111B1E0B62B672F39
:1057D000782F8827985FB1F708C0869577956795E9
:1057E000B79508F4B1609395C1F7BB0F30F411F48D
:1057F00060FF03C06F5F7F4F8F4F3EF490958095A1
:10580000709561957F4F8F4F9F4F0895689424C086
:1058100022C057FD9058440F551F59F05F3F71F05B
:105820004795880F97FB991F61F09F3F79F0879507
:105830000895121613061406551FF2CF4695F1DF90
:1058400008C0161617061806991FF1CF8695710520
:10585000610508940895E894BB2766277727CB0154
:1058600097F908950BD078C069D028F06ED018F061
:10587000952309F05AC05FC01124EECFCADFA0F310
:10588000959FD1F3950F50E0551F629FF001729FD5
:10589000BB27F00DB11D639FAA27F00DB11DAA1FF4
:1058A000649F6627B00DA11D661F829F2227B00D41
:1058B000A11D621F739FB00DA11D621F839FA00DCC
:1058C000611D221F749F3327A00D611D231F849F1C
:1058D000600D211D822F762F6A2F11249F57504073
:1058E0008AF0E1F088234AF0EE0FFF1FBB1F661F0E
:1058F000771F881F91505040A9F79E3F510570F0C7
:1059000014C0AACF5F3FECF3983EDCF38695779501
:105910006795B795F795E7959F5FC1F7FE2B880FC1
:10592000911D9695879597F9089597F99F6780E857
:1059300070E060E008959FEF80EC089500240A94E1
:105940001616170618060906089500240A9412165A
:105950001306140605060895092E0394000C11F48D
:10596000882352F0BB0F40F4BF2B11F460FF04C03A
:105970006F5F7F4F8F4F9F4F0895DB018F939F93F2
:1059800092D0BF91AF91A29F800D911DA39F900DCA
:10599000B29F900D11240895AA1BBB1B51E107C0B3
:1059A000AA1FBB1FA617B70710F0A61BB70B881FAF
:1059B000991F5A95A9F780959095BC01CD0108953E
:1059C00097FB072E16F4009406D077FD08D0E4DF8D
:1059D00007FC05D03EF4909581959F4F08957095F2
:1059E00061957F4F0895A1E21A2EAA1BBB1BFD01F2
:1059F0000DC0AA1FBB1FEE1FFF1FA217B307E407AE
:105A0000F50720F0A21BB30BE40BF50B661F771F05
:105A1000881F991F1A9469F76095709580959095E5
:105A20009B01AC01BD01CF010895052E97FB16F433
:105A300000940FD057FD05D0D6DF07FC02D046F406
:105A400008C050954095309521953F4F4F4F5F4F7F
:105A5000089590958095709561957F4F8F4F9F4FDA
:105A60000895692796276927782787277827089533
:105A700005D0332312F48A1B9B0B10C0A29FB001E8
:105A8000B39FC001A39F700D811D1124911DB29F72
:105A9000700D811D1124911D0895F0DFB7FF089549
:105AA000821B930B0895EADFA59F900DB49F900D84
:105AB000A49F800D911D11240895B7FFF4CFF3DF4B
:105AC000821B930B0895FB01DC0102C005900D922F
:105AD00041505040D8F70895FB01DC0105900D922C
