:020000041000EA
:1000000000B5324B212058609868022188439860DF
:10001000D860186158612E4B002199600221596106
:100020000121F02299502B49196001219960352056
:1000300000F044F80222904214D00621196600F024
:1000400034F8196E01211966002018661A6600F04E
:100050002CF8196E196E196E052000F02FF8012189
:100060000842F9D1002199601B49196000215960AB
:100070001A491B48016001219960EB211966A021F2
:10008000196600F012F800219960164914480160C1
:100090000121996001BC002800D000471248134993
:1000A000086003C880F30888084703B5996A0420EC
:1000B0000142FBD001200142F8D103BD02B5186610
:1000C0001866FFF7F2FF186E186E02BD00000240BE
:1000D000000000180000070000035F00212200005C
:1000E000F4000018222000A00001001008ED00E03C
:1000F00000000000000000000000000074B24E7A12
:1001000000200420F7010010C3010010C5010010F9
:10011000C1010010C1010010C1010010C101001097
:10012000C1010010C1010010C1010010C701001081
:10013000C1010010C1010010C9010010CB01001065
:10014000CD010010CD010010CD010010CD01001037
:10015000CD010010CD010010CD010010CD01001027
:10016000CD010010CD010010CD010010CD01001017
:10017000CD010010CD010010CD010010CD01001007
:10018000CD010010CD010010CD010010CD010010F7
:10019000CD010010CD010010CD010010CD010010E7
:1001A000CD010010CD010010CD010010CD010010D7
:1001B000CD010010CD010010CD010010CD010010C7
:1001C00000BE00BE00BE00BE00BE00BE00F04BF888
:1001D000103800BEF2EB8871B4AE0010E0AE001033
:1001E0003402001090A31AE700202149086006C8D5
:1001F00081F3088810471F48006800282FD10DA4FC
:100200000ECC002902D000F012F8F9E71A491B4A77
:10021000002000E001C19142FCD1194988471949E9
:1002200088471949884700BEFDE701C901C29A42C3
:10023000FBD37047E0AE0010C0000020680B002028
:1002400088B90010000004200000042088B90010C4
:1002500000100420001004200000000070470B482C
:1002600007F056FE0047EFF30580C0B2704700006C
:1002700008ED00E0000000D0680B0020D015002041
:10028000595E001055030010595F001057560000CA
:1002900006005250ABB36053F0AD00100600525050
:1002A000861C0302F8AD0010060052505422A29D95
:1002B00010AE001005005250DE65F46888B90010D9
:1002C000F8B5C046044B10B5002B03D003490448D1
:1002D00000E000BF10BDC04600000000BC130020BD
:1002E000A09C00107047C04610B5C6B009F0B2FB24
:1002F00001A801F089FF6946E62300220431CA54AF
:100300006A460E4C0E4B20781870D2790D4B1A703D
:100310006A460D4B12791A7000F0B2F80B4B187048
:10032000207800F0B7F80A4B187001A801F088FD9A
:1003300001A800F065FA46B010BDC046F9050020DE
:10034000F8050020C1150020B4150020C8150020B4
:10035000C9150020F0B5DE46454657464E46E0B585
:100360003D4B87B01A685968012000F021FBFFF768
:10037000BBFF04F031F900230193384B0500984688
:10038000374B384C9B46384B384E9A4604F024F98C
:10039000401B504539D804F01FF943461B68C01A6A
:1003A0005B461B789842F1D9200001F03DFE200009
:1003B00000F03AFA226833689A4232D004F00CF91D
:1003C00043460C22186003A9200000F019FB002806
:1003D00008D002AB18795B79002B32D13D2835D09B
:1003E00000F072F83300220083CA83C32388994641
:1003F000019B994502D004F0EFF805004B460193AC
:1004000004F0EAF8401B5045C5D904F0E5F80500B2
:10041000012009F051FA01220121082009F0BCFA5B
:10042000B9E7626873689A42C8D1A268B3689A4211
:10043000C4D104F0D1F843461B68C01A6428BDD863
:10044000A4E70022002100F0F3F8CBE702AB1E2165
:100450009A1D00F065F8C5E70000081000110020A3
:10046000C1150020E40F0020C0270900241500203A
:1004700000B589B00A00694600F0C2FA09B000BDB3
:10048000034B185C013843425841C0B27047C04624
:10049000A09C0010034B185C023843425841C0B284
:1004A0007047C046A09C00100021012010B506F046
:1004B0007FF9FEE710B5034807F02AFD002103008D
:1004C00000209847554200003038C0B210B50D28C2
:1004D00009D8114B80001B589F46104B18780028F4
:1004E00002D100F0E3FE012010BD02F0AFFA0020BF
:1004F000FAE7FFF7D9FF0020F6E7FFF7DBFF002060
:10050000F2E7064B18780028EED100F00DFF01202D
:10051000EAE70020E8E7C046CC9C0010B6150020B2
:10052000F8B513003B2855D03D2809D0392810D004
:100530003038C0B20A280BD83A4B80001B589F466F
:1005400001391878CAB2591C1C23584302F050FADA
:10055000F8BD1C241278344E54438D1E581CA41927
:10056000EDB20129F4D0D700BF1ABF000233BF1982
:10057000FA1A022393429B410622AA4292415B420D
:1005800052421A4244D03B0003439B0740D14E1EC7
:10059000F3B29C46002200230539C9B28908013113
:1005A000C6580132FE50D6B204338E42F8D38900C9
:1005B000C9B26D1A40186418EDB28C45C8D00378E2
:1005C0002370002DC4D043786370012DC0D0837890
:1005D000A370BDE75078431E9841C0B200F008FFF9
:1005E000B6E702F033FAB3E7104B1B78002BAFD11C
:1005F00000F09AFEACE70D4B1B78002BA8D100F061
:1006000055FEA5E7FFF756FFA2E7FFF74DFF9FE76F
:1006100000230139C9B2C25CE2540133DAB28A4222
:10062000F9D195E7049D001060110020B615002057
:10063000F0B54646D6464F46C0B5644B0D001B7814
:10064000160082B0002B22D03D282DD90823604C03
:10065000237032233E385843142380B2FF331B1AD1
:1006600099B21BB2312B3FDCFF224F1CFFB20A4074
:10067000611C02F0DFF933002A0039002000FFF787
:10068000F7FE02B0E0BCBA46B146A846F0BD08236A
:100690004F4C23703D28DCD83238C0B20A2826D807
:1006A0004C4B80001B589F4632282DD10823484CC4
:1006B000237005224849A01D08F09CFB402262706F
:1006C0002B32A2707E3AE2701A32227100F02EF9BB
:1006D0000023020AA27502026075120E000E19278D
:1006E000E27520766371C6E732223327C0E708221D
:1006F0003A49601C08F07EFB394B09271B781E2BFA
:10070000B9D800232371B6E76B466A4618710123F6
:10071000537102F031FA02F03BFA03F05DFF314B06
:100720000700994601239846F433FF339A46284C34
:1007300013E04B464246002120001A7000F080F979
:10074000002801D00C282FD13021072002F0BCFC5A
:1007500003F042FFC01B50451ED802F03BFC0028AE
:10076000E7D1022101A802F0C3FCE2E71E4B0227F9
:100770001B78637000F000FE7DE71C4B1F78012F93
:100780001DD0032F17D0032775E70C221849601CD2
:1007900008F030FB0D276EE70720164B1A68226021
:1007A0009A88A2809B79A371010033002A0020005F
:1007B000FFF75EFE65E7104B1B7863705BE70F4B3E
:1007C00002371B8863700023A37054E7B61500201E
:1007D000F00F0020409D0010309D00106C9D001017
:1007E000F9050020C2150020FB050020B4150020EB
:1007F0009C0E0020389D0010FC05002010060020F3
:1008000010B50379064A023B591E8B410100137053
:10081000044B582218004C3108F0ECFA10BDC046C9
:10082000B815002008110020F0B5DE4657464E46A8
:100830004546E0B5374B85B01B780390002B55D16A
:10084000002003F065FF002003F062FF002003F0AA
:100850005FFF002003F05CFF2F4D304C6A782B784F
:100860000192AA780292EA78E778934662789046F5
:10087000A278924622781A4338D000229146043555
:100880000434002F0AD14246002A07D15246002ADA
:1008900004D1002B31D1002300279846FF2003F01C
:1008A00037FF380003F034FF504603F031FF404675
:1008B00003F02EFF01239C466A782B780192AA78D8
:1008C00026780292EA78E77893466278E144904687
:1008D000A2781E43924604350434002ED1D110363E
:1008E000FF20F6B203F014FF4E45F8DB05B0F0BC74
:1008F000BB46B246A946A046F0BD013B0398D9B21B
:1009000001F052FC0028C6D0029B5F469A46019B2C
:100910009846C3E7B8150020081100206011002098
:100920000122014B1A707047C215002070B582B0C9
:10093000684609F087F86A460123154E154902AD4D
:10094000107870404408034200D04C4060082342B5
:1009500000D048404408034200D04C406008234285
:1009600000D048404408034200D04C406008234275
:1009700000D048404408034200D04C40660823425F
:1009800000D04E4001329542DAD1300002B070BD45
:10099000674523012083B8ED10B50100082003F05E
:1009A00057FF10BD10B50100052003F051FF10BD29
:1009B00010B50400104B82B018700191082000217E
:1009C000009204F095F80021052004F091F802F05F
:1009D000BFF821004C2002F055F901A802F0D6FA28
:1009E000684602F0ADFA012204210720034B04F00F
:1009F000ADFA02B010BDC046C2150020210900109A
:100A0000F8B5150000220D4B04001A700E0002F01C
:100A10004DFB030700275B0F05D02900200002F0E3
:100A200021FB3800F8BD0021300002F0E1FA40213E
:100A3000072002F049FB0137EFE7C046C21500204E
:100A40000B4B70B51A7805000C00002A01D100206C
:100A500070BD00221A7002F029FB0007400F072822
:100A6000F5D02100280002F0C3FAC0B2F0E7C0467A
:100A7000C215002084B003930F4B00901B780191A6
:100A80000292042B16D0092B0CD00C4A6B46DB7952
:100A9000D25CFF2A0CD00A4B01201B88134118405E
:100AA00004B070476B46074ADB79D25CFF2AF2D16B
:100AB0000020F5E7044AE9E7FC050020D49D00107A
:100AC000A8150020F49D0010E49D0010F0B50B78EF
:100AD000203B9B0283804B78203B9B02C3804B7959
:100AE0000A7918021043234A8243234892B20078BD
:100AF000222815D9C878840712D507244009201A5E
:100B00004001C4B23E208D786D1028400F38C0B22D
:100B10000F2805D8194D80002858874618494C7071
:100B200001252800174901268F7BCC7BB8408243E2
:100B3000D80870402840B840024328005B09734041
:100B40002B40A040A3401049824313430B80F0BDCB
:100B50000B490C70E4E70A4B5C714B79E0E70849FC
:100B60000C71DDE7064B9C714B79D9E7044BDC71C6
:100B70004B79D5E7FFFEFFFFF9050020749D0010BB
:100B80008410002000060020AA1500203F230A78C8
:100B90001A40203A920282804A7813401F22203B5A
:100BA0009B02C380CB781A400E3A93B2002A10DB26
:100BB0005A009B189BB203811F2B0CD9F023DB0139
:100BC00003814B7908791B020343DB43044A1380FA
:100BD0007047044BF4E7103B1BB2DB021BB2EFE79C
:100BE000AA1500200080FFFF0B780D4A803B1B02F6
:100BF00083808B78803B1B02C3804B78803B1B0239
:100C00000381CB78803B1B0243810B7983704B7946
:100C1000C370CB7988791B020343DB431380704791
:100C2000AA1500203F230A7830B51A40203A828066
:100C30004A7818241340203BC38006230A784D7855
:100C4000D2106D112B4022401A438B78DB091343DD
:100C50001F22103B03818B781340103B43818B781C
:100C60009B101C40CB785B091C438470CB781A40E6
:100C7000C2704B7908791B020343DB43014A13809E
:100C800030BDC046AA150020062330B54C780A783E
:100C9000641123401824D5102C4023438C78E40998
:100CA0001C433F231A40203A920282804A78134024
:100CB000203B9B02C3800B79DB0721D51F23CA7819
:100CC000A4B29343203303818A78D20722D53F23ED
:100CD0001B1B438118238A7892101340CA7852094B
:100CE000134383708B780D4ADB061B0FC3704B795F
:100CF00008791B0203430A495BBA9943118030BD4E
:100D00001F22CB78A4B21A4020239B1A03818A7831
:100D1000D207DCD420231B1BDBE7C046AA1500202A
:100D2000CD63000070B5F0248B780A7824011B0293
:100D30002340134383808B784A781B01234013435D
:100D40000122C380CB780E4CC37013004879667BB8
:100D5000A57B247B0340A3401400B440A343440874
:100D60001440B44023431400AC40A3430124800842
:100D700060400240AA40034913430B8070BDC04647
:100D800000060020AA1500204B780A781B021343A6
:100D90008380CB788A781B021343C3800B79C3709E
:100DA0007047C0464B7908791B0203435BBADB43AB
:100DB000014A13807047C046AA15002084B00393EF
:100DC000084B0191090E02925A5C0090FF2A06D04E
:100DD000054B01201B881341184004B070470020C8
:100DE000FBE7C04600060020AA15002070B52C4B7A
:100DF0002C4E2D4D82B02A000021019304000023C7
:100E00000020009602F0B2FA80230021725E5B009F
:100E10009A421ED0254B00229B5E254A25495381CC
:100E200002200A5E9A1A0023CB5E5A43D3179B0511
:100E30009B0D9B18204A9B1294466344934200DA10
:100E4000130080221202934200DB1C4B638102B02C
:100E500070BD2A686B68D215DB1512041B04120CD6
:100E60001A43AB68E968DB15C9151B0409041B0CA0
:100E70000B430E4E6B60124B2A6031001A7828002B
:100E800003F0ACF90F4B1B78002B04D033885B4286
:100E90001BB23380C1E70022B35E3380BDE7C0469A
:100EA000B3150020AE150020680C0020AC15002002
:100EB0009C0E0020441500200080FFFFFF7F0000F3
:100EC000BF150020C415002010B5064B040018788B
:100ED00003F0C8FC01234340DBB2DA03D31A638179
:100EE00010BDC046C5150020F8B50B780500803B45
:100EF0001B0283804B780C00803B1B02C3801D4B80
:100F00001B78002B13D1012213001B4D60796C7BE1
:100F10002D7B8343AB401500A540AB430125400822
:100F200068400240A240154913430B80F8BD0322DC
:100F3000134B48799C46CE78011111402779B600B1
:100F40000E4381100A40BF001743A2788009920027
:100F50006744104360443FB2390000B2664403F076
:100F6000A5F9B6B22881390030B203F09FF9688143
:100F7000C9E7C046BC15002000060020AA150020C5
:100F800001FEFFFFF0B54E464546DE465746E0B54A
:100F900085B0060003F020FB0023814698469A4660
:100FA0004E4B4F4C02934F4B4F4D0393534601937F
:100FB00023690027009320686168A268E36803F052
:100FC000ABFC03F0EBFB0F2003F000FB002E6AD01C
:100FD000F05D03F09DFBE8550F20013703F0F6FAB2
:100FE000032FF5D16F78FF2F43D0AB785A2B01D068
:100FF000002B3ED1F07803F08BFBE8700F2003F05C
:10100000E5FA0F231F407F00013FFBB29B460027FC
:101010001C2B2ED85A2003F07BFBEB1918710137DB
:101020000F2003F0D3FAFBB29B45F3D803F0ACFBDF
:101030000123019323690093E36820686168A26833
:1010400003F06AFC0F2003F0C1FA43460133DBB220
:101050009846029B9E4234D0039B9E4237D0434623
:10106000022B15D905B0F0BCBB46B246A946A04636
:10107000F0BD03F089FB01230193236900932068ED
:101080006168A268E36803F047FC0F2003F09EFA52
:101090000A2003F097FA03F09FFA4B46C01AFA2889
:1010A00000D883E7DEE7EB1C2F009B465A2003F0B5
:1010B0002FFB38700F20013703F088FABB45F5D1BC
:1010C00090E70F226B789343F02BCBD0E0E70F2211
:1010D0006B789343F02BC5D1DAE7C046B49D00107E
:1010E000A80E0020B89D001090100020F0B55746C3
:1010F000DE464E464546E0B58278070089B0012AB3
:1011000000D1BAE00378013B59424B41DBB25E4962
:101110000B703B79022B00D1ADE03B78033B594289
:101120004B41DBB2EB24594959480B70395D594B9F
:1011300019703900584BEC311A70242207F05AFE0E
:10114000564B3800984600234246136003F002FDD8
:10115000385DFF2802D0002103F0CAFC504B3E004E
:101160009A46504B002599464F4B10369B463B788C
:10117000022B37D13278FF2A29D0EBB20B2D50D871
:101180002900083901294CD9002103AC01910091B3
:101190002000390003F06EFB30780221A379C91AD0
:1011A000C9B203F0A5FC3E4B1B78002B01D0012DEA
:1011B00065D94346424619684B1C13608A00521891
:1011C000384B92009B1807CC07C306CC06C30135E9
:1011D0000136102DCBD109B0F0BCBB46B246A946B2
:1011E000A046F0BD002203ACEBB2019200923900A0
:1011F000200003F03FFB52461278237C002A01D0E6
:10120000012D34D9424640461268237493009B183E
:10121000511C9B0001604B4407CC07C306CC06C39E
:10122000D5E7397903AC012915D0002120000191BF
:101230000091390003F01EFB5B461B78002BABD0FE
:1012400030781928A9D92E23FA5C0100D200200099
:1012500003F090FBADE700200091019039002000E1
:1012600003F008FB104B1B78002BE9D194E7122305
:10127000FF33FB5CC6E7012354E7012347E7122352
:10128000FF33FB5C237494E7CA150020CB150020C4
:101290004C150020C3150020C6150020A415002001
:1012A000C9150020D4130020C8150020F0B5C6468B
:1012B000194B00B598461B78002B02D080BCB8466D
:1012C000F0BDFF22154B00241A70FFF70BF8144EE7
:1012D000144F02E001341D2C1AD03378E5B2002BF4
:1012E00003D02B001A3B012BF4D9012CF2DDEB1EAD
:1012F000032BEFD90221280003F0FAFB642003F04E
:1013000065F9280003F0AEFA385501341D2CE4D1FC
:10131000012342461370D1E7BA150020FB050020D7
:10132000CA150020E0100020F8B5104F3B78002BC4
:1013300000D0F8BDFF2200240D4B1A70FEF7D2FF3B
:101340000C4EE5B228001A300221C0B203F0D0FBE7
:10135000642003F03BF9280003F0B0FB013401C620
:10136000032CEED101233B70E3E7C046B915002002
:10137000FB050020D4100020F0B5C646184B00B580
:1013800098461B78002B22D00024164F164E06E0FC
:10139000280003F067FA305501341D2C17D03B7834
:1013A000E5B2002B03D02B001A3B012BF0D9012C06
:1013B000EEDDEB1E032BEBD90121280003F098FB97
:1013C000280003F04FFA305501341D2CE7D10022DC
:1013D000064B1A7043461A7080BCB846F0BDC04632
:1013E000BA150020CA150020E0100020B915002011
:1013F00010B5044B01001878FF2801D003F028FA3B
:1014000010BDC046C3150020F0B55746DE464E4617
:101410004546E0B5774B87B09A461B780090002B85
:1014200018D00024744DE6B2300003F047FB2B685F
:10143000C01AC317C01858400A2800DDD1E0013493
:101440000435032CEFD107B0F0BCBB46B246A94629
:10145000A046F0BD694B98461B78002B3DD0684BE9
:1014600000249946674E02E001341D2CEBD03378FE
:10147000E5B2002B03D02B001A3B012BF4D9012C31
:10148000F2DDEB1E032BEFD9280003F0EBF94B46FE
:101490001B5D8342E8D043461B78002B00D198E0C7
:1014A000002408E0380003F0DDF94B4618550134FC
:1014B0001D2C00D18DE03378E7B2002B03D03B0028
:1014C0001A3B012BEED9012CECDDFB1E032BE9D9D5
:1014D0000121380003F00CFBE4E703F091FA4A4BDA
:1014E0001B689846002BAEDD484A00249146484AC6
:1014F00000239246474A484F934603AD0AE0474BC4
:101500002978AA885B18083B1A70013464B223005A
:10151000444598DA9900C91849000A22280049442C
:1015200007F068FC2B7A002BE9D1052C48D05046F7
:101530002978AB884A008352A888531800B25B0010
:101540000190FE180220365E0198801BFB5E584316
:10155000C3179B059B0D1B1831489B12844663449F
:10156000834200DA030080200002834200DB2D4B1F
:1015700052185200BA180420125E012916D9584692
:101580000078002801D0042909D0934209DA524298
:101590000020934205DD009B4900C852B5E7934205
:1015A00026DB18B2009B4900C852AEE78020934268
:1015B00001DB98B2000A009B9C4661448870A4E756
:1015C000144B1B78002BB2D0174B1B78022BAED1DB
:1015D0009BE7002352461370144A1570424613705D
:1015E00031E7124B1A361E705246002313702AE759
:1015F0000B48D0E7B9150020D4100020BA15002000
:10160000E0100020CA150020A0150020B010002016
:101610009C0E0020C91500204C15002084100020CD
:101620000080FFFFFF7F0000C6150020FB050020A3
:10163000F0B5C646002300B5834E82B001933369EE
:1016400007000093F36830687168B26803F064F9CA
:1016500003F0A4F80F2002F0B9FF7C4B0024984659
:101660007B4D4346185D03F053F828550F20013495
:1016700002F0ACFF032CF4D16A78FF2A04D0AB78D7
:101680005A2B12D0002B10D003F07EF801230193C7
:10169000336900930FCE03F03FF90F2002F096FF5D
:1016A000002002B080BCB846F0BD0F2313405A00A2
:1016B0009046002B00D08DE003F066F801230193E3
:1016C000336900930FCE03F027F90F2002F07EFF5D
:1016D0006A780F2110008843F02800D1A0E02B7910
:1016E000EC781B022343DB435A4C9BB223805028E7
:1016F00000D191E0232A29D10520574A574E107076
:101700006A797B30803A1202BA80AA793C8890428A
:101710009241524234409203224312B23A80EC7911
:101720005204A04280414042C003520C0243F020C8
:1017300012B23A802C7AA0428041494C40420002C9
:10174000224002433A806A7810008843E02853D14F
:10175000062441490C706979B980A9796C797F298F
:101760006CD8211C7F2C00D97F21C9B28031B9806F
:101770002F2114008C43502C2AD16979AC798039FF
:10178000090239817F210C1B24027C81EC79803C89
:101790002402BC802C7A091B0902F980314909789E
:1017A00000290ED004242C49DB050C700021B980DF
:1017B000F980297ADB1780395B0409025B0C3981D7
:1017C0007B81792A31D0502802D00122224B1A7015
:1017D000012066E743461E2B00D155E700245A201E
:1017E00002F096FF2B19D87001340F2002F0EEFEA4
:1017F000E3B29845F3D85FE7122AB9D1164B093AFC
:101800001A706B790120803B1B02BB807F23AA7971
:101810009B1A1B02FB8044E708240F490C70A7E7C2
:101820001148FFF7AFFB01203BE7EB7C773ABB7039
:101830002B7D0120FB70084B1A7032E7211C802C95
:1018400093D8812191E7C046A80E0020BC9D0010CE
:1018500090100020A8150020FC050020FFBFFFFF0E
:10186000FFFEFFFFC9150020B89D0010F0B55746D8
:10187000DE464E464546E0B59B4B85B003931B784C
:1018800082460A2B0ED05046FFF7D2FE002802D126
:101890000A23039A137005B0F0BCBB46B246A946B2
:1018A000A046F0BD053B1C0005002800013CFFF7E9
:1018B000BFFEE4B2012002F085FE002CF5D1280025
:1018C000A046AA46FFF7B4FE0028E4D08748FFF7F9
:1018D00059FB02F081FE00239B46854C854F864DC7
:1018E0000290002301932369002600932068616819
:1018F000A268E36803F010F802F050FF0F2002F036
:1019000065FEB85D02F004FFA8550F20013602F015
:101910005DFE032EF5D16E78FF2E00D1B0E0AB78DE
:101920005A2B02D0002B00D0AAE0012002F0F0FEDA
:10193000E8700F2002F04AFE002002F0E9FE287154
:101940000F2002F043FE0F231E407600023EF6B247
:10195000002E15D01B2E00D992E0002399462300BB
:1019600034004E4699465A2002F0D2FEAB19587107
:1019700001360F2002F02AFEF3B2A342F3D34C4605
:1019800002F002FF0123019323690093E3682068BA
:101990006168A26802F0C0FF0F2002F017FE5B46EC
:1019A0000133DBB29B46022B79D902F015FE0123ED
:1019B0009946524F02900023019323690026009319
:1019C00020686168A268E36802F0A6FF02F0E6FE04
:1019D0000F2002F0FBFDB85D02F09AFEA8550F2023
:1019E000013602F0F3FD032EF5D16A78FF2A61D0AB
:1019F000AB785A2B01D0002B5CD10F2313405B0036
:101A00009B460026BB19D87802F082FEAB19D8702D
:101A100001360F2002F0DAFD062EF3D15B46063BBD
:101A2000DBB29B46002B12D0172B43D82300002695
:101A30005C469B465A2002F06BFEAB195872013689
:101A40000F2002F0C3FDF3B29C42F3D85C4602F0D3
:101A50009BFE4B46019323690093E368206861680D
:101A6000A26802F059FF0F2002F0B0FD4346013397
:101A7000DBB29846022B2CD92148FFF783FA02E704
:101A800002F082FE012301932369009320686168BC
:101A9000A268E36802F040FF0F2002F097FD0A20E1
:101AA00002F090FD02F098FD029BC01AFA2800D8BF
:101AB00017E77AE702F068FE4B460193236900932B
:101AC00020686168A268E36802F026FF0F2002F038
:101AD0007DFD0A2002F076FD02F07EFD029BC01A19
:101AE000FA2800D867E7C7E7FC050020B49D00107E
:101AF000A80E0020C09D001090100020C89D00106E
:101B0000B89D001030B585B002AC23000622FA2142
:101B1000522000F0BBFF237860781A00A1780243BE
:101B200018400A430840E17808400A4321790A43F3
:101B3000014060790140024349D0FF2947D06C4DF4
:101B40001B026C4A03432B80934244D06A4A93425F
:101B500000D175E0694A1A40012A00D186E00222CC
:101B6000FF3293420DD00132934218D3644A93421C
:101B700000D1B5E007D9604A934222D1614B624A55
:101B80001A6005B030BD0422FF32934200D1A3E0B9
:101B90005E4A934215D15B4B5D4A1A60F1E7032B15
:101BA00000D1A1E005D9112B0BD1564B594A1A602F
:101BB000E7E7002B03D1534B574A1A60E1E7012BAB
:101BC000DFD00022554B2B804E4B1A60D9E7012302
:101BD000474D5B422B805522F021522000F08CFFB4
:101BE0000A2002F0F3FC0022FB21522000F084FFC7
:101BF0000A2002F0EBFC23000622FA21522000F01A
:101C000045FF607821780300A2780B430840134316
:101C10001040E27810401343227913430240607968
:101C20000240034356D0FF2A54D0090201430A2040
:101C3000298002F0CBFC2B882F4A934200D089E701
:101C40000122FB21522000F057FF0A2002F0BEFCC7
:101C50005522F021522000F04FFF0A2002F0B6FC7E
:101C60002B88264A1A40012A00D078E7FE2102324A
:101C7000522000F041FF0A2002F0A8FC02E0C82038
:101C800002F0A4FC6B4608220021522000F0FEFE68
:101C9000C82002F09BFC230008220021522000F003
:101CA000F5FE009A23689A42E9D1019A63689A4244
:101CB000E5D16B466A469B79D279134307D0082158
:101CC000174A184B19700F4B1A602B8847E70621EB
:101CD000154AF6E70749AAE70A4B144A1A6050E783
:101CE000084B134A1A604CE7064B124A1A6048E741
:101CF00010060020FFFF000013FF0000FFFEFFFFA3
:101D000012FF000030150020890D001003030000B1
:101D1000890C0010A50D0010E90E00100B18000032
:101D2000E90B0010FA050020250C0010CD0A001068
:101D3000250D00108D0B001070B53C4B3C4A1B88E4
:101D4000050082B0934268D03A4A934265D03A4C3B
:101D50006B4600215220227800F098FE002854D0D3
:101D60002678002E59D0731E062B5AD901236946B6
:101D70000022B008800068445B4210C9224323401F
:101D80008142FAD11904090E1940180C0840190EA5
:101D9000130401401B0E10021343000E0343120EE6
:101DA000134303203200DBB28243304229D068461D
:101DB000805C03430140501CB04222DA6C46205C38
:101DC00003430140901CDBB286421ADD205C0343D2
:101DD0000140D01C864214DD205C03430140101DED
:101DE00086420EDD205C03430140501D864208DD23
:101DF000205C063203430140964202DDA25C13439D
:101E00001140002B09D0FF2907D00C4B1B68002B79
:101E100005D069462800984701E0FFF773FE02B03D
:101E200070BDFF2100230022C1E7C046100600203C
:101E3000FFFF00000B180000FA05002030150020FD
:101E4000F0B5C64600B5604B4279604F1A70827992
:101E50005F4B04001A703B7888B0002B02D08923B6
:101E60005B00C35C5B4A137002F070FE2378022BA8
:101E70002ED0032B37D0012B66D02379022B00D133
:101E800075E0A378012B2BD02000FFF72FF93B78CA
:101E9000002B10D0A378012B00D170E0022B5BD077
:101EA00021000B3106224C48FF3106F0A3FF2B2204
:101EB0004A4BA25C1A702D23E35C494A1B02136053
:101EC0002C22484BA25C1A6008B080BCB846F0BD1A
:101ED0004549464A11602279022A48D0012BD0D1C7
:101EE00002F066FCD0E7012301220121404802F004
:101EF00083FB01239846019300233E4E02AD0A2244
:101F000021002800009302F0B5FC330007CD07C381
:101F10000A2006CD06C3002102F0EAFD02F034FCDF
:101F200043460193336900930FCE02F0F5FC0F2076
:101F300002F04CFB2D4B304A1A60304B304A1A608D
:101F40002378032B9DD0C6E7E1792E4A11702E49E4
:101F50002A4A11602D49BCE72833E05C2C4B022152
:101F6000187002F0C5FD2B4B2B4A1A6098E700232E
:101F700001220121294802F03FFB2378AEE72F22FE
:101F8000274BA25C1A7002F015FB002001F066FFDF
:101F9000782001F0EFFDFA20C00001F071FC022072
:101FA00001F0B0FC782001F091FD01F0B9F81E209D
:101FB00001F0C4F8012002F0C9F8102001F0F0F897
:101FC000144B184A1A606BE7BB150020C915002096
:101FD000BD150020BE15002044150020C4150020AA
:101FE000D010002090150020B148001034150020BA
:101FF000A0860100A80E0020750A00108C15002094
:102000006D180010BC150020391D0010BD0D00100A
:10201000C515002088150020C90E0010A0B5F603D4
:10202000BF150020ED0D0010F0B54E46DE465746B8
:102030004546E0B5514B81461B6885B0002B00D06A
:1020400098474846FFF7E0F94D4B9B461B68002B2D
:1020500043DD00240027A0464A4B9A464A4B029390
:102060004A4B039343469E00F518029BAD001B7834
:1020700055442C00002B03D0454C002F00D02C00E1
:1020800002F0AAFAE368C01A237C98421ED92B6991
:10209000464400930FCD039DB6002D68A84701224A
:1020A0005644F37905009A404B461B8813409842EA
:1020B0000CD002F091FA0121E060F2794B46914098
:1020C00095404A461B888B432B4313805B46013760
:1020D0001B68FFB2B8469F42C4DB2E4B1B78002B17
:1020E00022D04B4604229A5E2B4B1B6859428A42EF
:1020F00005DA48460424008820434C4620809A4252
:1021000005DD4A46082012880243484602804A46B6
:102110000620125E914205DD4946022009880143EE
:102120004846018093421ADB1C4B1B78002B05D0DC
:102130004B461A8830231340302B17D0184B1B788E
:10214000002B05D0174B1B68002B01D04846984741
:1021500005B0F0BCBB46B246A946A046F0BD4B4612
:1021600001221B8813434A461380DDE79A438023EC
:10217000DB0013434A461380E0E7C0468C1500207D
:10218000A4150020D4130020BE1500203415002013
:10219000E8130020BB150020D0100020BD15002042
:1021A000C9150020881500200F290BD8134B1B7868
:1021B000002B01D008291BD8038840200B419B012C
:1021C000184070470E4B1B68122908D91239490074
:1021D0004018828801209A4207DDC0B2F1E740181A
:1021E0000E38027801209A42F7DC0020C0B2E8E7FE
:1021F000044B5B18083B1878E3E7C046C81500207D
:102200009015002084100020F0B5DE464E4645466D
:1022100057461422E0B5FC4BFC4C1F68A54447AC64
:102220003900FF328146200006F0E4FD7B783A78E1
:102230001B02134302937B793A7B0793BB79089384
:10224000FB7909937B7B1B021343BA7B12041A436D
:10225000FB7B1B0613433A7C0A927A7C0692BA7C7B
:102260000B92FA7C0C923A7D0D927A7D0E92BA7D99
:102270000F92FA7D10923A7E11927A7E1292BA7E75
:102280001392FA7E14923A7F15927A7F1692BA7F51
:102290001792FA7F18922022BA5C19922222BA5C15
:1022A0001A922422BA5C1B922622BA5C1C92282223
:1022B000B95C0132BA5C8B4612020A4301922A22AF
:1022C000BA5C1D922C22BA5C1E922D22BA5C1F921F
:1022D0002E22BA5C20922F22BA5C90463022B95C42
:1022E0000132BA5C12020A43120412142192322201
:1022F000BA5C22923322BA5C23923422BA5C2492D2
:102300003522BA5C25923622BA5C26923722BA5C14
:1023100027923822BA5C28923922BA5C29923A2252
:10232000BA5C2A923B22BA5C2B923C22BA5C2C9279
:102330003D22BA5C2D923E22BA5C2E923F22BA5CBC
:102340002F924022BA5C30924122BA5C31924222F2
:10235000B95C3A004232527812020A430392442294
:10236000BA5C32924622BA5C33924822BA5C34920A
:102370004A22BA5C35924C22BA5C36924E22BA5C42
:1023800037925022B95C3A005032527812020A4316
:1023900004925422B95C3A005432527812020A4331
:1023A00005925622BA5C38925822BA5C39925B2266
:1023B000BA5C3A925C22BA5C3B925D22BA5C3C9277
:1023C0005E22BA5C3D92EB22BA5C3E92EE22B95C90
:1023D0003A00EE32527812020A4312041214429268
:1023E000F422B95C3A00F432527812020A43120421
:1023F00012144392FA22B95C3A00FA32527812026D
:102400000A43120412144492FC22B95C3A00FC32D2
:10241000527812020A431204121445928022791C47
:10242000FF3148785200BA5C000210438A78C978BC
:10243000120402430906114383224091F91DFF3122
:102440004D785200BA5C2D0215438422CE7852009A
:10245000BA5C360216438622C8795200BA5C000282
:10246000104306318A78C9781204024309061143E1
:10247000882252004191B95C3A001132FF32527801
:102480002D0412020A433F9289225200B95C7A7AE3
:10249000387A12020243B87A360400041043FA7AFA
:1024A0002D14120602435A483614824200D181E2AA
:1024B00014220021FF32200006F096FCF0236A4629
:1024C0005B429382023B1382F1339381FF2393801B
:1024D000504B1381FF233E93BA3B3D93BA333C9359
:1024E000F63B3B93F6333A93F03B3993F033389312
:1024F0007F3B3793733B3693F23335933493339367
:102500003293319330932F93AE3B2E932D9301331F
:102510002C93033B2B9301332A93453B29931D3383
:1025200028930B332793243B2693013B2593013BB0
:10253000249309332393123B2293374B2193002397
:102540009846403320931F931E93BF339B461D93A1
:102550001C931B931A93199318931793169315931F
:10256000149313931293119310930F930E930D934F
:102570000C930B930A93FE3B099308930793FE3346
:102580000693019B1D04029B2D0E1804000EFDF7FF
:1025900081FF002800D01FE2204B82AAEC3323CB1E
:1025A00023C223CB23C21E4E23CB23C21D4D1E4B61
:1025B0004596419340934495439542956A46FC2144
:1025C0001A4B521813804346032B00D9E9E14146C8
:1025D000002301228A425B41013398466B461B89E6
:1025E0002380079B6371089BA371099BE371084BD0
:1025F00049930F234A930A9B2374069B63740B9B96
:10260000A3740C9B14E0C04614060020CCFDFFFF11
:1026100015D4A200020F0000B80B0000049E0010A9
:10262000FF7F00000080FFFF0080FF7F0514000097
:10263000E3740D9B23750E9B63750F9BA375109B15
:10264000E375119B2376129B6376139BA376149BF1
:10265000199AE376159B1E992377169B6377179B30
:10266000A377189BE3772023E2541A9A0233E254AB
:102670001B9A0233E2541C9A0233E2546B469B8845
:102680001D9A23852A23E2541F9B209A1B020B4389
:1026900041461204090613430B435293219B229A8D
:1026A00023863223E254239A0133E254249A0133DD
:1026B000E254259A0133E254269A0133E254279AD0
:1026C0000133E254289A0133E254299A0133E25447
:1026D0002A9A0133E2542B9A0133E2542C9A0133A3
:1026E000E2542D9A0133E2542E9A0133E2542F9A88
:1026F0000133E254309A0133E254319A0133E25407
:102700006A4692890133E252329A0233E254339A92
:102710000233E254349A0233E254359A0233E254DB
:10272000369A0233E254379A0233E2546A46128AE6
:102730000233E2526A46928A0433E252389A0233F2
:10274000E254399A0233E2543A9A0333E2543B9A00
:102750000133E2543C9A0133E2543D9A0133E2548E
:102760003E9A8D33E254429A0333E252439A06333F
:10277000E252449A0633E252459A0233E252409BB7
:102780006A46879383235B00E5520233E652FC21BD
:10279000419B52188A93882312885B00E2520022E0
:1027A0000233E2541422904B21001800FF329A4663
:1027B00006F020FBEFF3108B72B6802180204901D8
:1027C000000307F055FA8022802051469200000352
:1027D00007F02EFA8BF3108800210F236A464A93E4
:1027E0000A9B12892374069B228063740B9B079AB1
:1027F000A3740C9B6271E3740D9B089A23750E9B66
:10280000A27163750F9B099AA375109BE271E37522
:10281000119B764A2376129B49926376139BFC2088
:10282000A376149B199AE376159B2377169B6377FF
:10283000179BA377189BE3772023E2541A9A02335D
:10284000E2541B9A0233E2541C9A0233E2546B4660
:102850009B881D9A23852A23E2541E9A0233E25450
:102860001F9A0133E254209A0133E2544246013365
:10287000E254219B229A23863223E254239A013385
:10288000E254249A0133E254259A0133E254269A01
:102890000133E254279A0133E254289A0133E25477
:1028A000299A0133E2542A9A0133E2542B9A0133D4
:1028B000E2542C9A0133E2542D9A0133E2542E9AB9
:1028C0000133E2542F9A0133E254309A0133E25437
:1028D000319A0133E2546A4692890133E252329AC4
:1028E0000233E254339A0233E254349A0233E2540C
:1028F000359A0233E254369A0233E254379A02335D
:10290000E2546A46128A0233E2526A46928A0433D9
:10291000E252389A0233E254399A0233E2543A9A34
:102920000333E2543B9A0133E2543C9A0133E254BC
:102930003D9A0133E2543E9A8D33E254429A033376
:10294000E252439A0633E252449A0633E252459ADF
:102950000233E252409B6A46879383235B00E55231
:102960000233E652419B12188A93882312885B0037
:10297000E25214220233E15450462100FF3206F0A5
:1029800039FA142221004846FF3206F033FA48464D
:102990008D239B009D44F0BCBB46B246A946A04691
:1029A000F0BD1A1F0123D2B293429B4142461A4006
:1029B000904613E6082B00D8E3E50B2B00D8EBE597
:1029C0000C2B00D1FAE50D2B00D1FCE50E2B00D12C
:1029D00004E6054A924601E701235D405B462D026D
:1029E0002B430193D8E5C046BC11002015D4A200AA
:1029F00070B50F4E04001500801906F0FBF989230D
:102A000064195B009C4200DC70BDEFF3108472B669
:102A1000802180204901000307F02AF980228020CC
:102A200031009200000307F003F984F31088EBE70C
:102A3000BC1100200B0010B50349096809181800E3
:102A400006F0D8F910BDC04614060020142270B557
:102A50000C4C0D492000FF3206F0CCF9EFF3108644
:102A600072B6802580212D032800490107F000F966
:102A7000802221002800920007F0DAF886F31088FF
:102A800070BDC046BC110020049E001070B504004B
:102A900008000F211D00012384B06944087016004E
:102AA00020000122009301F0B9FE002808D0B420D4
:102AB00001F08CFD012332002900200001F09AFE74
:102AC00004B070BD70B5040008000F211D00012383
:102AD00084B069440870160020000122009301F0C0
:102AE0009DFE002801D104B070BD012332002900F1
:102AF000200001F07FFEF6E700B585B06B46197344
:102B00005A7301230222009303A901F087FE05B046
:102B100000BDC046F0B5140083B005006846083417
:102B2000E408E400001B02AF8546092002AC2170D6
:102B300068441900561C06F05DF90123210000933A
:102B40002800F2B201F06AFEBD4601B0F0BDC046F9
:102B500010B5002300220021064801F04DFD0020A1
:102B6000FDF71AFF0120FDF71DFF052001F02AFDEA
:102B700010BDC046406BED0710B50020FDF712FFF9
:102B8000E12001F0C5FD0120FDF70CFF10BDC0469E
:102B900010B50020FDF706FFE22001F0B9FD01208D
:102BA000FDF700FF10BDC04610B50020FDF7FAFE8E
:102BB0001D2001F0ADFD002001F0AAFD0400012060
:102BC000FDF7F0FE0020FDF7EDFE3D2001F0A0FD39
:102BD00004231C43E0B201F09BFD0120FDF7E2FE5F
:102BE0000020FDF7DFFE1C2001F092FD002001F027
:102BF0008FFD04000120FDF7D5FE0020FDF7D2FE79
:102C00003C2001F085FD3F231C43E0B201F080FD34
:102C10000120FDF7C7FE0020FDF7C4FE1D2001F0D6
:102C200077FD002001F074FD04000120FDF7BAFEDD
:102C30000020FDF7B7FE3D2001F06AFD06231C438E
:102C4000E0B201F065FD0120FDF7ACFE0020FDF7CC
:102C5000A9FE1C2001F05CFD002001F059FD0400DC
:102C60000120FDF79FFE0020FDF79CFE3C2001F0B7
:102C70004FFD03231C43E0B201F04AFD0120FDF7A4
:102C800091FE10BDF0B5C646AA4B00B50600002067
:102C900019700D00FDF786FE242001F039FDF120AA
:102CA00001F036FD0120FDF77DFE0020FDF77AFEE4
:102CB000232001F02DFD022001F02AFD0120FDF767
:102CC00071FE0020FDF76EFE062001F021FD0020C0
:102CD00001F01EFD04000120FDF764FE0020FDF759
:102CE00061FE262001F014FDF920204001F010FDC6
:102CF0000120FDF757FE0020FDF754FE1D2001F0D6
:102D000007FD002001F004FD07000120FDF74AFE49
:102D10000020FDF747FE502001F0FAFC732001F07F
:102D2000F7FC0120FDF73EFE0020FDF73BFE1D20D5
:102D300001F0EEFC002001F0EBFC04000120FDF7A7
:102D400031FEE21B51424A417B4B1A70002C0ED0DF
:102D5000BC4200D1E1E00020FDF724FE3D2001F05F
:102D6000D7FC002001F0D4FC0120FDF71BFE002061
:102D7000FDF718FE062001F0CBFC002001F0C8FC96
:102D800004000120FDF70EFE28239C4303231C436F
:102D90006A4B0020984601234246E4B21370FDF7C7
:102DA00001FE262001F0B4FC200001F0B1FC01205E
:102DB000FDF7F8FD0020FDF7F5FD062001F0A8FC69
:102DC000002001F0A5FC07000120FDF7EBFDBC424F
:102DD00002D00023424613700020FDF7E3FD0020DF
:102DE00001F096FC002001F093FC04000120FDF7A7
:102DF000D9FD0020FDF7D6FD202001F089FC0C2331
:102E00009C431C43E0B201F083FC0120FDF7CAFDA6
:102E10000020FDF7C7FD252001F07AFC300001F00D
:102E200077FC0120FDF7BEFDFFF7BEFE0020FDF799
:102E3000B9FD212001F06CFC3F2001F069FC01206C
:102E4000FDF7B0FD0020FDF7ADFD272001F060FC8F
:102E5000702001F05DFC0120FDF7A4FD0020FDF7CE
:102E6000A1FDE22001F054FC0120FDF79BFD0020B4
:102E7000FDF798FDE12001F04BFC0120FDF792FDEC
:102E80000020002D24D0FDF78DFD002001F040FC36
:102E9000002001F03DFC04000120FDF783FD00202F
:102EA000FDF77AFD0020FDF77DFD202001F030FCCC
:102EB00073239C4302231C43E0B201F029FC012050
:102EC000FDF770FD0120FDF767FD80BCB846F0BD41
:102ED000FDF768FD272001F01BFC702001F018FCB5
:102EE0000120FDF75FFD0020FDF75CFD002001F0F3
:102EF0000FFC002001F00CFC04000120FDF752FD46
:102F00000020FDF749FD0020FDF74CFD202001F0D9
:102F1000FFFB73239C430323CDE70020FDF742FD15
:102F2000502001F0F5FB732001F0F2FB0120FDF7CA
:102F300039FD10E7B7150020C0150020CC15002082
:102F400070B504000020FDF727FD0020FDF72AFDE5
:102F50002B2001F0DDFB251D2078013401F0D8FB8A
:102F6000AC42F9D10120FDF71DFD0020FDF71AFD4F
:102F7000222001F0CDFB032001F0CAFB0120FDF768
:102F800011FD0120FDF708FD70BDC04670B50400BD
:102F90000020FDF707FD2A2001F0BAFB2500261DC1
:102FA0002878013501F0B4FBB542F9D10120FDF7D5
:102FB000F9FC0020FDF7F6FC302001F0A9FB207899
:102FC000013401F0A5FBB442F9D10120FDF7EAFC80
:102FD00070BDC04610B50020FDF7E4FCFF2001F0F5
:102FE00097FB04000120FDF7DDFC0120204010BD0F
:102FF00070B5050000200E00FDF7D4FC272001F07D
:1030000087FB402001F084FB0120FDF7CBFC002072
:10301000002E12D0FDF7C6FC612001F079FB0024E0
:10302000285D01F075FB28550134E3B2B342F7D3B4
:103030000120FDF7B7FC300070BDFDF7B3FC602048
:1030400001F066FB002001F063FB06000120FDF7A4
:10305000A9FC0020FDF7A6FC612001F059FB002E21
:10306000DDD1E5E770B5050000200E00FDF79AFC04
:10307000272001F04DFB302001F04AFB0120FDF735
:1030800091FC0020FDF78EFCA02001F041FB002EFA
:1030900008D0002401342878E4B201F039FB01356E
:1030A000A642F7D10120FDF77DFC70BD10B50020D0
:1030B000FDF778FCFF2001F02BFB04000120FDF759
:1030C00071FC200010BDC04670B5050000200C004A
:1030D000FDF768FC1F2020232840184301F018FB4F
:1030E000200001F015FB0120FDF75CFC70BDC0461F
:1030F00070B5050000200E00FDF754FCA92001F07A
:1031000007FB002E08D0002401342878E4B201F037
:10311000FFFA0135A642F7D10120FDF743FC70BD4F
:10312000802210B5C82303490348D20000F06EFF87
:1031300010BDC046409F0010F60B000070B586B071
:1031400003AC2200124B050043CB43C2C82D1BD851
:1031500000236A4629001371C82004F00BFF6B4658
:103160000138587102210B4801AA00F023FF002802
:103170000AD122000C21084800F01CFF002803D1CE
:10318000064B9D8106B070BD01204042FAE7C04663
:10319000189F001016020000C10A000070100020E5
:1031A000F0B5DE464E4645465746E0B587B05E4B25
:1031B00003AD04002A0004216820039300F0FAFE06
:1031C00040231A0022409146234200D0A8E0A321C8
:1031D000A3226333EB70C023AA702200A3205B00FC
:1031E0001A409046287069701C4200D094E04F4B02
:1031F0001A1CA323AB71A3230327EB714B4B0A21AA
:103200002B81AA804A482A00274000F0D3FE7A4248
:103210007A41B8235242134020332A000121454805
:103220002B7000F0C7FE6E46A30600D472E0424B3E
:10323000320003CB03C297201B7809211370C00012
:10324000320000F0B7FE4346002B0CD03B4AE305AA
:10325000DB1713403A4A042194463A4863442A0053
:10326000039300F0A7FE630752D5374B32000421C9
:103270003648009300F09EFE00F042FAE30645D582
:10328000334B320004213348009300F093FE00F0EA
:1032900037FA0823304D23436B8100F031FA4B4657
:1032A000002B26D0102084460C30834610388146EF
:1032B00006380A231A221621202682464046002874
:1032C00011D15046A8731420204201D01300A973D5
:1032D000002F00D0AB73002007B0F0BCBB46B24655
:1032E000A946A046F0BD4B463200AB735946634633
:1032F000E9E70A2084460C308346103881460020D6
:103300000423142210211A268246D7E7134BB8E76C
:10331000134BABE7134B8BE7134B1A1CC62369E720
:10332000C021C822C22355E702CAE309A3A3FFFFB5
:10333000A70A0000B60A0000289F0010020B020B2B
:10334000B080B490A20A0000C0C2C4C6980A0000AF
:10335000202830389E0A000070100020A3A3A3A3E9
:103360008B8B8B8B349F0010C4CCFFFFF0B54E4687
:10337000DE46574645460023E0B58FB01700189A41
:1033800005001380644B0E00987B199A06A9994694
:1033900000F08CFC041E00D0B1E04B4614225B8987
:1033A0001A426AD10227BC46013FB84600270B22C9
:1033B00004210320B9469246013A0592013A04924B
:1033C000013A0392013A0292013A9346013A01927C
:1033D0005F062AD54A4606AFBA5C120291463A0009
:1033E0004746D25D4F4617433780674606AAD25DEF
:1033F000D9461202944606AA105C624610437080B9
:1034000006AA0198515C125C09020A430821B280A5
:10341000189A049812880A4318990A805246019211
:10342000039A05999446029A9046C0267600334244
:103430001BD04A4606AB9E5C42469B5C6246360207
:1034400033432B8006AB9E5C1B5C3602019A3343F0
:103450006B8006AB595C9B5C702209020B43AB800E
:10346000189B1B881343189A138020000FB0F0BCE0
:10347000BB46B246A946A046F0BD079A069912BAC5
:1034800094467A60099A09BA12BA91463960FA608C
:103490000A1461460898524300BAB8600F147F437B
:1034A0004946BC460014404309144943624412187B
:1034B0005218F12109068C468021624489048A420F
:1034C00022D8189A13201188802252000A43189992
:1034D0000A801B229246013A0592013A0492013A6F
:1034E0000392013A0292013A9346013A0192033A59
:1034F0009446013A9046013A1421914668E78300C8
:10350000C3185B005CB2B0E700F0FAF8189B1C80AF
:1035100002246442A9E7C04670100020242310B59D
:10352000104C82B0E35C002B12D040006B46D87187
:1035300023680122597C636818786B460733FFF7CC
:10354000E9FA002802D06B46DB79637402B010BD43
:10355000A37A002BFAD00028E8D0637C002BE5D0BA
:10356000F4E7C04618060020232370B5634C82B0F0
:103570000600E35C01AD00282ED1002B19D0287085
:10358000A37C8022002B02D0022302322B70222344
:10359000E35C002B00D07EE023680122D97D6368C4
:1035A00018782B00FFF7B6FA002802D02323002258
:1035B000E254E023DB002B8023680222597D6368FC
:1035C00018782B00FFF7A6FA002800D18DE0002321
:1035D0000020237502B070BD012B19D030232B7051
:1035E000A37CB022002B02D0322302322B70222384
:1035F000E35C002B4DD123680122D97D63681878E4
:103600002B00FFF787FA002802D023230122E2547F
:1036100020232B70A37A62682168012E57D0052ED3
:1036200049D9142E39D903206870002B5BD00423AC
:103630006846C370E37A042B55D06B4610788978BE
:1036400001220333FFF766FA002851D06B460722A8
:10365000DB78E3726B789B011343DBB26B702368FA
:103660000222597D636818782B00FFF753FA00286F
:103670003BD00823A3720023237301332375233324
:10368000E35C002B15D101202374FFF747FF0020D6
:10369000A0E72A70AFE72A707EE702206870002B4F
:1036A00005D005236846C370E37A052BC5D187236F
:1036B000D4E700208EE701206870002B05D0062398
:1036C0006846C370E37A062BB7D14723C6E70020CC
:1036D0006870002B05D006236846C370E37A062B7A
:1036E000ABD10723BAE7C723B8E70120404271E70F
:1036F00007236A7892011343DBB2AFE71806002074
:1037000010B55E4C82B0A37A002B00D1B2E000234A
:103710006A46D37123680122597C636818786B4626
:103720000733FFF7F7F9002800D1A3E0236801224F
:103730005979636818786B460733FFF7EBF900286F
:1037400000D197E0236801221979636818786B46E5
:103750000733FFF7DFF9002800D18BE022686368A8
:1037600011792422A25C002A43D104226846C27146
:1037700018786B46033A0733FFF7CCF9002800D1DD
:1037800078E0A27C4023002A06D1A27A3F3B134076
:103790001F22013B934360336A46D37123680122A1
:1037A0001979636818786B460733FFF7B3F9002877
:1037B00060D0322000F006FF637C5A1E93416A46B7
:1037C000D37123680122597C636818786B460733EC
:1037D000FFF7A0F900284DD023002268103351795B
:1037E000626810780122FFF795F9013840B202B003
:1037F00010BD0C226846C27118786B460B3A07332D
:10380000FFF788F9002835D0322000F0DBFEC02316
:103810006A46D371A37ADB0701D5E023D37123680D
:1038200001221979636818786B460733FFF772F93C
:1038300000281FD0637C5A1E93416A465B00D371F7
:1038400023680122597C636818786B460733FFF7B9
:1038500061F900280ED000236A46D3712368012243
:103860005979636818786B460733FFF753F90138C5
:1038700040B2BCE701204042B9E7C046180600202C
:1038800010B51F4C82B0A37A002B33D0FA239B00D3
:10389000984232D01ED8FA2829D0FA2108220123D2
:1038A0004900884226D16946CA71227A9A421CD0C0
:1038B000236801229979636818786B460733FFF70C
:1038C00029F9002816D06B460020DB79DB0823722B
:1038D00002B010BDFA23DB0098420BD118226946D2
:1038E0000323CA71227A9A42E2D10020F0E7002233
:1038F0000023D8E701204042EAE710220223D2E762
:103900001806002010B51C4C82B0A37A002B2DD0D5
:1039100008282ED01CD8022825D0082201230428EC
:1039200024D16946CA71627A9A421AD02368012268
:10393000D979636818786B460733FFF7EBF80028EE
:1039400014D06B460020DB79DB08637202B010BD37
:1039500010280BD1182269460323CA71627A9A4251
:10396000E4D10020F2E700220023DAE70120404200
:10397000ECE710220223D4E71806002010B5194CFA
:1039800082B0A37A002B29D00123BB2815D96A461F
:10399000D371E27A9A421FD0236801229978636832
:1039A00018786B460733FFF7B5F8002816D06B463A
:1039B0000020DB79E37202B010BD01336128E6D844
:1039C00001332928E3D801331328E0D80023092242
:1039D00082425B410533DAE70020ECE701204042F8
:1039E000E9E7C0461806002070B5374C0500A37AF9
:1039F00082B0002B65D02423E35C002B61D1227DB3
:103A000001AE002A2FD0421E272A53D92322A25CBE
:103A100001AE002A18D03370A27C8023002A02D085
:103A20007E3B337080332222A25C002A47D1236878
:103A30000122D97D636818783300FFF76BF80028FE
:103A400002D023230022E254E023DB0033802368EA
:103A50000222597D636818783300FFF75BF800286D
:103A600001D000232375FA2189008D421DD9FA2047
:103A7000800004F07FFA2368013830705978636859
:103A8000012218783300FFF745F8002819D0FA20F2
:103A900031788000013104F06DFA80B2E081400895
:103AA000FFF76CFF002002B070BDA9B20429DED27E
:103AB0000421DCE7C0B2FFF757FD0020F3E73370C5
:103AC000B5E701204042EEE718060020242370B538
:103AD000274D82B0EB5C002B3ED1AC7A002C40D05D
:103AE0000133984304402E7C2C74241A621E9441A6
:103AF0006442002816D12A7D002A2FD06A7C002A31
:103B000027D16A46D3712B680122597C6B681878DB
:103B10006B460733FEF7FEFF00281AD06B46DB79B1
:103B20006B7416E06A7C002A0FD16A46D3712B6849
:103B30000122597C6B6818786B460733FEF7EAFF61
:103B4000002802D06B46DB796B74FFF7D9FD0028A3
:103B50000AD1200002B070BD0024FAE7FFF7DEFCB6
:103B6000F7E701246442F4E701242E746442F0E78D
:103B7000180600207023F0B5CE46474604001A0010
:103B800080B5494D024029686868497D83B0234269
:103B90001DD1002C1CD16B4640279E1D3770330071
:103BA00001220078FEF7B6FF002800D177E03378D5
:103BB000BB432B733E2004238446373881460138AB
:103BC00033703D2205213F27804638331CE0012217
:103BD0006B469E1D3270330001220078FEF79AFF7B
:103BE00000285CD04022337893432B73002333703A
:103BF0002242DFD03A2084463738814601383823C4
:103C0000392201213B278046A00604D443463A00CE
:103C1000337049466346E00601D413003170220731
:103C200000D433702B680122997D6B6818783300BB
:103C3000FEF770FF002832D0082322009A4322D0DA
:103C40002323EB5C002B1ED000236A46D371AB7C90
:103C50008022002B03D06A460223D37182222223C2
:103C6000EB5C002B01D06B46DA712B680122D97D09
:103C70006B6818786B460733FEF74CFF002802D0BC
:103C800023230022EA5400233220AC722B7500F06B
:103C900099FC002003B0C0BCB946B046F0BD00237B
:103CA0000120AB724042F5E718060020F0B5474608
:103CB000CE46242380B52F4C0700E35C894690460E
:103CC00083B0002B3ED0A37A002B38D02368022289
:103CD000197B6368187801ABFEF7F4FE002834D036
:103CE0006B469D886DBAADB2AF4231D86668226826
:103CF000738830785B08AB420BD2D17C01AB0122D8
:103D0000FEF7E0FE00282CD06B461B79DB062BD497
:103D1000666823683078597BFAB24B46FEF7D2FECC
:103D200000281BD03900280004F04CF94346013824
:103D30001870002003B0C0BCB946B046F0BD0220E8
:103D40004042F7E701204042F4E703204042F1E718
:103D500000234246042013704042EBE70720404214
:103D6000E8E705204042E5E7FFF7CAFC06204042AD
:103D7000E0E7C0461806002070B5374C0600A37C6B
:103D800082B0834260D06368012218782368197971
:103D90006B46DD1D2B00002E30D0FEF793FE002871
:103DA00057D020222B7893432B7023681F3A197920
:103DB000636818782B00FEF7ADFE002849D0032079
:103DC00000F000FC02232B702033E25C1033002A49
:103DD00002D050332B7030332322A25C002A31D121
:103DE00023680122D97D636818782B00FEF792FEC4
:103DF00000282ED00020A67402B070BDFEF762FE2F
:103E0000002826D0A27A2B78D2071FD420229343F1
:103E10002B70236801221979636818782B00FEF74C
:103E200079FE002815D0032000F0CCFB2223E35CB0
:103E30005A1E93412322DB012B70A25C002ACFD0B3
:103E4000302213432B70CBE70020D5E72022134309
:103E5000DEE701204042CFE71806002070B584B0AD
:103E600080236A46524C137223680122597D63688D
:103E7000187802ABFEF74EFE002800D180E0FA2051
:103E8000400000F09FFB00256B461D722368012255
:103E9000597D6368187802ABFEF73CFE002800D11C
:103EA00071E00123200001265B42A360E3812374BB
:103EB0000133FF33A5820C22002163821630267362
:103EC00004F092FF6B466562DD1D18232B7023689A
:103ED000668499796368012218782B00FEF71AFE30
:103EE00000285FD02B78DB082372A37A002B53D0F5
:103EF00000232B70637A002B0FD023680122D9791D
:103F0000636818782B00FEF705FE002844D02B7854
:103F1000DB086372A37A002B41D003232B70E37A72
:103F2000032B0BD0236801229978636818782B0043
:103F3000FEF7F0FD002832D02B78E3723220FFF735
:103F400053FD002822D12423E35C002B09D1A27A5F
:103F5000002A2AD02374237D002B0DD00130FFF7D7
:103F6000DDFA0020FFF708FF041E12D10020FFF742
:103F700001FE200004B070BD0020FFF7CFFAF0E78B
:103F800001246442F5E702246442F2E721246442FA
:103F9000EFE704246442ECE71F246442E9E72024AD
:103FA0006442E6E71E246442E3E722246442E0E739
:103FB0001806002070B50C00160082B0002A20D030
:103FC000114DAB7A002B1CD042BA01AB1A806A6843
:103FD000C0B240185189884213DC29681078C97E24
:103FE0000222FEF797FD00280BD02B68E2B2197E63
:103FF0006B6818783300FEF78DFD013840B202B0CF
:1040000070BD01204042FAE718060020F0B54E4688
:10401000DE4657464546E0B591B0059325234A4E06
:10402000019003910492F35C002B00D087E00029FB
:1040300000D184E0002407AF002805D169E0544492
:10404000019BA4B2A34265D9019B1D1B102D00DD6D
:104050001025ABB29A462B041A0C9146002B04D0C3
:10406000039B0CA8191904F0C5FEB37A002B44D0A9
:1040700063BA3B809B46E3B24B4498467368029711
:104080005A89904539DC32681878D17E3B0002228B
:10409000FEF740FD002830D03368EDB2197E73681A
:1040A0002A0018780CABFEF735FD002825D0B37A2E
:1040B000002B2BD05B463B8073685A89904525DCEA
:1040C00032681878D17E3B000222FEF723FD0028DB
:1040D0001CD033682A00197E7368187808ABFEF785
:1040E000F1FC002812D04A4608A90CA805F098FD5A
:1040F0000028A4D00420404201E00220404211B038
:10410000F0BCBB46B246A946A046F0BD03204042E3
:10411000F5E70297049B029A5BBA13803368597FD4
:104120007368187813000222FEF7F4FC002809D007
:1041300025230122F254059B0020F384DFE70120B0
:104140004042DCE70538DAE71806002070B524267F
:10415000214D0400AB5D82B0834238D0002822D0CC
:104160002523EB5C002B34D00020FFF7D7F900208B
:10417000FFF702FEE88CFFF737FC6B460022DA718E
:104180006A680733107823210122FEF7C3FC002858
:104190001FD001230120AB55FFF7C0F9FFF7B0FA9C
:1041A000002002B070BD0020FFF7B8F96B462A7CF2
:1041B00007331A706A68232110780122FEF7AAFCDF
:1041C000002806D0AC55FFF79BFA0020E9E7002055
:1041D000E7E701204042E4E718060020F8B547462B
:1041E000CE4680B50C000021455E01880223C65EE4
:1041F0000623C75EA946C38888460425415F8C46CE
:1042000081881800584300B2012A13D0022A2DD009
:10421000002A18D00023E05E204B984208DC204B97
:10422000984237DA1F4B2380C0BCB946B046F8BD70
:104230001D4BF8E7424673435143581A00B200F051
:10424000C9F800B2E8E78023494309B20918DB0145
:10425000591A4D4663467D437343581B490040003D
:1042600009B200B200F022F800B2D5E7434680213F
:104270005B431BB21B18C901C91A48466346704309
:104280005F43C0194900400009B200B200F00EF8C7
:1042900000B2C1E7052343431BB2C4E799190000EC
:1042A00067E6FFFF0380FFFFFD7F000070B505009C
:1042B0000C00814200D16BE0E313DB432200C11309
:1042C0005A40C943D21A03004B405B1A12B21BB2C8
:1042D0009A422DDA2100C00303F04CFE374905B2A3
:1042E000374805F0CDFCEA13D24313006B409B1A0C
:1042F0001BB206B2334934485E4305F0C1FC334A71
:10430000730494465B0C63445A1E93419B039B19B0
:10431000DB131B181BB25D436804400C6044431E52
:10432000984180034019C013002C3ADD80B270BD63
:104330002900E00303F01EFE204904B2204805F0E6
:104340009FFCE213D243130063409B1A1BB206B2D8
:104350001C491D485E4305F093FC1C4A73049446B7
:104360005B0C63445A1E93419B039B19DB131B1880
:104370001BB25C4363045B0C63445A1E93419B0372
:104380001C19E413002D11DD8020C001001BCDE7B6
:1043900000290FDC631E9C41A02360421B021840D1
:1043A000C5E70B4B9C46604480B2C0E70748001B42
:1043B00080B2BCE780208001B9E7C046FC3EA64041
:1043C000A8F87690BF8FC5402ABE1D2400C0FFFF0D
:1043D0000080FFFF0300664A43439446F0B55C0447
:1043E000640C6444621E9441A403E418E41324B2F0
:1043F0002300DE4657464E4645466343E0B55D041E
:104400006D0C65446A1E9541AD03ED18ED132DB298
:104410002B006B4385B00600564957489B4605F074
:104420002FFC00B2604355498246554805F028FCF0
:1044300054490190544805F023FC00B20300634343
:1044400052495348994605F01BFC52490290524884
:1044500005F016FC00B203006343504950489846EB
:1044600005F00EFC4F4903904F4805F009FC4F49F9
:1044700007B24F4805F004FC3D4A534694465B049E
:104480005B0C63445A1E93419B03019A5344DB1314
:104490009B1A4A465204520C6244511E8A410299A8
:1044A00092038C464A44D21362449146304A1BB26E
:1044B00094466B435904490C61444A1E91415A4643
:1044C0005204520C89036244CB18511E8A41920354
:1044D0005A44DB134B44D2131BB212B25A43434625
:1044E0005904490C61444B1E9941039B89039C4626
:1044F0004144C913614409B269431D4D6743AC4649
:104500007B045B0C63445D1EAB419B03DB19DB1337
:104510001B184804400C6044451EA8418003411804
:10452000C9135B185104490C6144481E8141890339
:104530008A18D2139A1812B262435404640C644469
:10454000611E8C41A403A418E41324B274436004D4
:10455000400C6044431E984180030019C013801929
:1045600080B205B0F0BCBB46B246A946A046F0BD3D
:1045700000C0FFFF0C36974079774705C5FD7640B0
:104580003218D34E5FF78A40B78DBBB634178540DB
:104590001531F4B8E6508F40DB0E7A34D0D996400E
:1045A0001E1A015F3933A340A0F6B64E5555B540EB
:1045B0005FAE784D024B1B6883F310887047C0468E
:1045C0004015002010B501F0E5F810BD10B5002130
:1045D00001F0C8F810BDC04610B501F05FF9002920
:1045E00005D0FA220023920003F02EFD10BDFA211F
:1045F000890003F0E7FCF9E7F0B5CE464746040032
:1046000080B5052085B01500894601F0D7FE210050
:1046100003F0D8FC04F06AFB364C80462068002D7D
:1046200060D0354904F0EEFFA0CC0600831CF201F7
:104630001B031343314A404613400193304B03930D
:10464000304B029304F07AFB84B20020002C0ED091
:10465000200004F04BFB011C404604F026FB8721A0
:10466000C90504F03CFB04F069FBC0B2000224045D
:1046700039000443482328000022009405F028F85C
:10468000482239002800582305F064F81E4B032007
:10469000EC18631E9C410634210000F009FC210047
:1046A000042000F005FC2100062000F001FC494632
:1046B000062000F027FC2A00802338329B01134398
:1046C000102239001A6028006B46320005F086F887
:1046D0000123BB402A6813432B6005B0C0BCB94618
:1046E000B046F0BD094904F08DFFA0CC0600431C84
:1046F0009DE7C0464406002084AB0010FFFFFF9FEB
:1047000003181220000083100000E0AF78AB001007
:10471000F0B585B06B46552733260F240500D91D0B
:1047200042004308BA433B401343DBB29A089B0064
:10473000B3433240DBB213431A011B096C441343E9
:104740000B70220001230E4805F082FA227829001E
:1047500053085200BA433B401343DBB29A089B0014
:10476000B3433240DBB213431A011B091A43D2B2DE
:104770000448227004F054FD207805B0F0BDC04616
:104780004406002064AB001010B548230822002125
:10479000014804F09DFF10BD0000205010B54823D3
:1047A00040220021014804F093FF10BD000020507A
:1047B00070B50E4D0E4C2900200004F021FE29009A
:1047C000200004F0BBFD03211A2000F071FB03213F
:1047D0001B2000F06DFB002201211A2000F080FB5D
:1047E000002201211B2000F07BFB70BD20A10700EF
:1047F0000C07002030B55D426B41074C83B000933D
:1048000013000A000100200004F08AFEC317181AE2
:10481000C00F03B030BDC0460C07002030B583B0D8
:10482000130006AA1278094C55426A4100920A0008
:104830000100200004F00EFE04003C20FFF7C6FE3D
:10484000E0B2431E9841C0B203B030BD0C07002057
:104850000123D02283401206002901D05361704702
:104860009361FCE7D0231B065B68C340012018401E
:104870007047C046F0B5C64600B51E0006AB1B78B3
:104880000F001500002114220400984604F0ACFA31
:1048900088235B00FB5C4246237401236374FE3370
:1048A0002000E6712572A271A37480BCB846F0BDE9
:1048B00084B000B585B0099306900791089206ABC5
:1048C000997CFF2917D08A00124B52185200991870
:1048D00001A80A2204F08EFA6B466A461B895289A7
:1048E0001BB20120934204DDC0B205B008BC04B085
:1048F00018470020F8E7D02306AA1B065B68117A48
:104900000120CB4018409379C01A43425841C0B2AD
:10491000EBE7C046B010002084B010B5059307AB9C
:10492000039102901978049202AB5B7CD4B2002B05
:104930000CD00123D022A3401206002904D1936198
:1049400010BC08BC04B018475361F9E7002908D02F
:104950002000032100F0E8FA0321200000F0D2FA41
:10496000EEE72000002100F0DFFA0021200000F037
:10497000C9FAE5E7F0B5C646904600B584B001AD8A
:104980000C0007000A220021280004F02DFA4346FB
:104990000126EB80230223432E722B80192C1DD875
:1049A000200000F051FBD023A6401B06002200216E
:1049B00020009E6200F094FA0F4B19684A1C1A609E
:1049C0008A000E4B52185200B974981829000A2216
:1049D00004F010FA04B080BCB846F0BD20001F21DE
:1049E00000F066FA20000022002100F079FA002190
:1049F000200000F015FBDFE7A0150020B01000201C
:104A0000F0B54546DE4657464E46264BE0B51D6896
:104A1000002D3CDDE023DB019946234B234E9846D5
:104A2000234B80219C4680239B00340000209A4623
:104A3000204A490013689B465F4663781A3BDBB205
:104A40001B037B404F463B4047463B606346042781
:104A50001F6013680B42FCD05368277A9BB29B08F7
:104A6000002F05D1A778002F17D05746FB1A9BB20D
:104A70008700BB4683445F467F00BB46B3445F4626
:104A80009B011BB20130BB800A348542D2D1F0BCFD
:104A9000BB46B246A946A046F0BD074FBB465B44A5
:104AA0009BB2E5E7A015002000D00440B010002024
:104AB00000E0044000C0044000FEFFFF094A00037C
:104AC000136804215840E023DB011840064B1860AE
:104AD000064B1960FC3113680B42FCD0506880B261
:104AE0008008704700C0044000D0044000E004404B
:104AF00070B505000C00012911D1192819D800F052
:104B0000A3FA2300AB40D02212069362023C634218
:104B10005C4100222800E1B200F0E2F970BD00F033
:104B200093FA0123AB40002CEDD1D0221206536240
:104B3000ECE71F2100F0BCF928000022002100F062
:104B4000CFF90021280000F06BFAE7E710B504F078
:104B50003DFD10BDF0B585B001AC05000A22002175
:104B6000200004F041F92023EE5CFF2E20D0013319
:104B7000EB5C6670A370192E00D9FDE0300000F0E8
:104B800063FA0123D022B34012069362002100226F
:104B9000300000F0A5F9A24B19684A1C1A608A007F
:104BA0005218A04B5200981821000A2204F022F952
:104BB0000A220021200004F017F922230127EE5CCD
:104BC0002770FF2E1FD00133EB5C6670A370192E87
:104BD00000D9EDE0300000F037FAD023B7401B06D3
:104BE0000022002130009F6200F07AF98C4B196896
:104BF0004A1C1A608A0052188A4B520098182100E9
:104C00000A2204F0F7F80A220021200004F0ECF850
:104C1000022323702233EE5CFF2E20D00133EB5CA5
:104C20006670A370192E00D9B4E0300000F00CFAC1
:104C30000123D022B34012069362002100223000EB
:104C400000F04EF9764B19684A1C1A608A00521817
:104C5000744B5200981821000A2204F0CBF80A2263
:104C60000021200004F0C0F8032323702333EE5CFE
:104C7000FF2E20D00133EB5C6670A370192E00D993
:104C8000C0E0300000F0E0F90123D022B34012066A
:104C9000936200210022300000F022F9604B196875
:104CA0004A1C1A608A0052185E4B52009818210064
:104CB0000A2204F09FF80A220021200004F094F850
:104CC000042323702433EE5CFF2E20D00133EB5CF1
:104CD0006670A370192E00D986E0300000F0B4F998
:104CE0000123D022B340120693620021002230003B
:104CF00000F0F6F84A4B19684A1C1A608A005218EC
:104D0000484B5200981821000A2204F073F80A2236
:104D10000021200004F068F8052323702533EE5CA1
:104D2000FF2E06D0404B1B78002B04D0AB78032B12
:104D300001D005B0F0BD2B23EB5C6670A370192E7B
:104D400044D8300000F080F90123D022B34012068D
:104D5000936200210022300000F0C2F8304B196845
:104D60004A1C1A608A002F4B5218520098182100D2
:104D70000A2204F03FF8DCE730001F2100F098F829
:104D800030000022002100F0ABF80021300000F0DC
:104D900047F900E730001F2100F08AF830000022B8
:104DA000002100F09DF80021300000F039F949E7BA
:104DB00030001F2100F07CF830000022002100F0BC
:104DC0008FF80021300000F02BF90FE730001F2191
:104DD00000F06EF830000022002100F081F8002180
:104DE000300000F01DF9B9E730001F2100F060F835
:104DF00030000022002100F073F80021300000F0A4
:104E00000FF977E730001F2100F052F83000002240
:104E1000002100F065F80021300000F001F93DE7C5
:104E2000A0150020B0100020C915002010B504F016
:104E300045FA10BDD0231B061B68F0B55A1E9341DE
:104E40003026C6465B421E40164B00249C46164B3D
:104E500007270F25984600B56644E00803003A008E
:104E600008339B009B5922409200D34029001940EF
:104E70001D4210D00B0093401A003C300B4B8000B9
:104E8000C250D02342461B061B689B009B58002B38
:104E900001D02000984701341E2CDED180BCB846DA
:104EA000F0BDC046004101407C0E002000400140A2
:104EB000094A10B594464024830063441A68C00030
:104EC0006240803414408022520113431C60034B23
:104ED0009C466044416010BD04C001400040014058
:104EE000074B80009C4660440368C90092000A4357
:104EF0005A400C231A4080235B0103431A60704719
:104F000004C00140074BC0009C466044036809028E
:104F10005940C0239B00194080235B010343196063
:104F20007047C04604400140074BC0009C466044A7
:104F3000036809035940C0239B01194080235B018A
:104F4000034319607047C0460440014070B5060035
:104F5000D020000605683024681E854115486D4242
:104F60008446072030402C408000F508814028000E
:104F7000114E3C3064448000AD0081516419002A18
:104F800012D08022920122431160D02109060968C3
:104F90000A4A89008B500D20094901F02FFA01219E
:104FA0000D2001F011FA70BDC02292012243116060
:104FB000EBE7C04600410140004001407C0E00206C
:104FC000354E0010C30810B50400072020408000B3
:104FD00081401800094C3C308000015108489B007A
:104FE00084466344002A04D080229201134319604E
:104FF00010BDC022920113431960F9E7004001403F
:10500000604101400200C308072010408000814039
:10501000024A3C339B0099507047C0460040014013
:10502000084B80009C466044002905D08023402224
:105030009B0103431A607047C02340229B01034336
:105040001A60F8E704C001400123D0228340120611
:1050500093629361094A40219446830063441A682D
:10506000C0004A4080311140802252011343196030
:10507000034B9C46052360444360704704C00140D5
:1050800000400140EFF3108072B6034A1368002B12
:10509000FCD0BFF35F8F70472C0100D0BFF35F8F50
:1050A0000022024B1A6080F3108870472C0100D058
:1050B00070B5EFF3108C72B60D4D2B68002BFCD041
:1050C000BFF35F8F0724CB08C618C05C01230C40D8
:1050D000A3401C000440034207D118433070BFF3C3
:1050E0005F8F2C608CF3108870BD100000F036FFCD
:1050F0002C0100D0024B18688007C00F7047C046D3
:1051000000C006400021044B044ABFF35F8F02C376
:105110009342FAD17047C046000100D0800100D010
:10512000044A1078431CDBB2172B00D910231370EC
:105130007047C04650060020F8B5040006200D0058
:1051400001F03CF9002844D02A4B2B49E218534285
:105150005A418023DB039C469205284B62441A6027
:10516000274B1A6010008B689843FBD1214B254ACE
:10517000E31859424B4180215B00490099520620B7
:1051800001F01CF92900C00002F01CFFC30921D165
:1051900040270121260080256162A36200232C366E
:1051A000AD0135432B60062001F008F9390080007D
:1051B00002F008FF6022E36A53400E321A40802357
:1051C0005B0133431A60104B236310232B600D3BAC
:1051D000A364F8BD0D4A934203D900230C4F0D4937
:1051E000D8E77F220240013252089F011900BF1800
:1051F0001300CFE70080FCBF00C0004000E000408B
:1052000000F000409415002001030000FEFF0000A4
:10521000C0FF3F00FFFF000083680B4810B58446C5
:10522000614462441201090159189B185C684A687C
:105230000120944201D802D00020C0B210BD1A68EB
:105240000B689A42F9D8F7E7FFFFFF0F0A4B19687E
:10525000EFF3108072B60A68002AFCD0BFF35F8FAC
:105260001B68BFF35F8F00221A6080F3108840BF75
:10527000002000217047C04674150020F8B557463D
:1052800045464E46DE46E0B599460CAB1C780DAB64
:105290001B78070090469A460568002C44D1AC7BE9
:1052A000002C3BD0660029683619033E89194B78DB
:1052B000AB73002B00D1EB7300238B704B700B7022
:1052C0002C4BE218BB6812019B1842461A604A46F2
:1052D0005A600A9A9A600B9ADA6000238B704B70BE
:1052E0000B706B7B9B46002B2ED06B6822005946BF
:1052F000A86898475B465B005B44033B002819D0D5
:10530000584629688E19B070CA18CB5C002B00D0A3
:1053100073705B4614706B735C4516D0F0BCBB4673
:10532000B246A946A046F8BD660029683619033E74
:105330008919C5E72A68D3189C709119925D002AD3
:1053400000D05A705B460B706C7342464B46387DFA
:1053500000F004FB051E02D05346002B04D00E9B28
:10536000002BDBD01D70D9E72100386800F036FD36
:10537000F5E7C046FFFFFF0FF0B5DE464E46574645
:1053800045460023E0B58DB00A936B4B8200D3589D
:105390000B90994600239B464B46079300F07EFAFC
:1053A000079C06000F006268EFF3108572B6136861
:1053B000002BFCD022000794BFF35F8F2468637B2F
:1053C0009946002B66D092685C4B90464B441B017B
:1053D000984443461A685B6810001900801BB94165
:1053E00000295EDD0B9800F0B9FA002300269846EC
:1053F00000279A46079C6368BFF35F8F5A461A607E
:1054000085F310885346002B08D10028C6D10DB073
:10541000F0BCBB46B246A946A046F0BD0A9B414639
:1054200018024B461843D047089009916268EFF381
:10543000108572B61368002BFCD00794BFF35F8F02
:105440000899099A002A47DB114303D0079B1B697F
:10545000002B5CD1079B1B68D97B002906D01A68FA
:105460004800411852184946033A51704A46DA73C7
:105470004B46079A013BD168CA5C0132CA545B466D
:10548000079A13615368BFF35F8F5A461A6085F31A
:10549000108883E700230026984600279A460020BC
:1054A000A8E7002901D100289CD10021200000F0AC
:1054B00017FC43461E685F689B68079A9A464346F6
:1054C000DB689846D3684B44013B1B780A931B0268
:1054D0000343136100208DE72369002BBAD033000A
:1054E0003C005B1A94411A002300A74219D89F423E
:1054F0001BD059460491012103914946029141462E
:105500000191514607980091FFF7B8FEB7E700F008
:10551000C5F9089A099B06000F0092197B41994230
:10552000E5D901225242D317E3E79642E1D901229D
:105530005242D317DDE7C04614150020FFFFFF0FCE
:10554000F8B557464E464546DE46E0B53E4D8146E7
:105550008A466A68EFF3108872B61368002BFCD095
:10556000BFF35F8F2E68B47B002C38D067003368A0
:105570003F19033FDB195A78B273002A00D1F27346
:10558000324AA118AA6809015218494611605146C9
:1055900051602F4991600021D16099705970197044
:1055A000737B9B46002B32D0736822005946B0684B
:1055B00098475B465B005B44033B00281DD0584680
:1055C0003168CF19B870CA18CB5C002B00D07B7043
:1055D0005B46147073735C451AD0002623E06B6839
:1055E000BFF35F8F1C6088F3108801204042F0BC3D
:1055F000BB46B246A946A046F8BD3268D3189C7097
:10560000D119D25D002A00D05A705B460B707473BA
:105610004A465346287D00F0A1F9061EDDD0210040
:10562000286800F0DBFBEB681B19013B19786B68FD
:10563000BFF35F8F00221A6088F310880020002ECD
:10564000D5D108022043D2E754060020FFFFFF0F08
:105650004D52001010B5124C6368002B04D00A2183
:10566000104800F009FA10BD23000F4A10212068ED
:1056700000F054FA032000F005F9032000F0DEF9F1
:1056800003200A4900F024F9FFF74AFD084B9C4625
:10569000032360442375074B80006060DC60DEE715
:1056A0005406002074150020195200107953001080
:1056B0004000003414150020F0B504000D0006264B
:1056C0007642F717C64636196F4100B58F4213D898
:1056D00010D000F0E3F832003B00121A8B41002B8F
:1056E00014DC002B37D02900200000F0E1F880BC4A
:1056F000B846F0BD8642ECD90026002700F0CEF86F
:1057000032003B00121A8B41002BEADD30003900D9
:10571000FFF716FF0028E6DB00239846BC460F4A39
:105720000F4F7B6A9C4504D8B96A8E42DBD99C45F1
:10573000D9D11168EFF3108072B60B68002BFCD042
:10574000BFF35F8F1368BFF35F8F4146196080F32B
:10575000108820BFE5E7002AC5D0D7E774150020E0
:105760000040054070B504000D0000F097F80200FD
:105770000B0020002900801859418B4205D802D027
:10578000FFF79AFF70BD8242FAD901204042C1174B
:10579000F6E7C04670B5060000F080F8FA22040073
:1057A0000D00002330000021920003F061FA00197F
:1057B00069418D4205D802D0FFF77EFF70BD84425B
:1057C000FAD901204042C117F6E7C046F0B5D646E7
:1057D0004F464646C0B5EFF305823F2313401800FD
:1057E0001038EFF3108C72B620490A68002AFCD0FA
:1057F000BFF35F8F0122170087401D4C1600A246A1
:1058000067631C4C2578A0462C00C44026402242E9
:1058100009D1BFF35F8F0E608CF31088E0BCBA46ED
:10582000B146A846F0BD5246566A134A8400A258B3
:1058300096420ED34246114BBD43E3581570BFF359
:105840005F8F00220A608CF31088002BE6D0984707
:10585000E4E70B4A9B00904643441A681A60BFF382
:105860005F8F00230B608CF31088D7E7280100D0EE
:1058700000400540C7150020781500208C0E002040
:10588000D03F054010B5034B01001800024AFFF756
:105890000FFC10BDB215002094AB0010034B596AE9
:1058A0000A00986A596A8A42FAD170470040054056
:1058B000064A536A9942FCD807D1044B02E05A6A5F
:1058C000914202D19A6A8242F9D370470040054062
:1058D00070B504000D00EFF3108672B61A4A136813
:1058E000002BFCD0BFF35F8F002D1BD0200000F0F9
:1058F0007DFD164981420AD0200000F07FFD012184
:10590000200000F061FD0123A340114A1360114BF8
:10591000A400E550BFF35F8F00220B4B1A6086F3A3
:10592000108870BD0121A1400A4BA200D5500A4B3E
:1059300020001A788A4305491A7000F089FD002179
:10594000200000F041FDE5E7280100D0CD57001010
:10595000386005408C0E0020C7150020F0B54F467A
:10596000D6464646C0B507002F4C616A0D00A66AB0
:10597000616AA942FAD18B4208D805D00120E0BC67
:10598000BA46B146A846F0BDB242F7D9EFF3108A45
:1059900072B6264801680029FCD0BFF35F8F01254D
:1059A000BD402349204C8846097889462943C9B21D
:1059B0008C46414660460870391D890065630A516E
:1059C0001C49B8004350216A0020294219D0616A5D
:1059D0000800A66A616A8142FAD18B4219D801D1C6
:1059E000B24216D8CC451DD00F4B1F221D625D63FD
:1059F00001233A409340104A0120136043464A462F
:105A00001A70BFF35F8F0022084B1A608AF3108868
:105A1000B5E70020BFF35F8F0022044B1A608AF3C2
:105A20001088ACE70120ECE700400540280100D0D9
:105A3000C71500207815002080E200E0EFF3108CFD
:105A400072B60A490B68002BFCD0BFF35F8F0123AD
:105A50008340074A0748136202789A430270BFF3F3
:105A60005F8F00230B608CF310887047280100D0F3
:105A700000400540C7150020024B9C466144890048
:105A8000016070474000003410B50400FFF748FB88
:105A900001002000FFF7F0FFFF23A380BFF35F8F1B
:105AA00010BDC04610B50400FFF73AFB010020000E
:105AB000FFF7E2FF01235B42A380BFF35F8F10BDBE
:105AC00070B5050014001600002915D00C00002A3E
:105AD00012D06B68806898477200630092191B1996
