:100000008AC00000A3C00000A1C000009FC0000083
:100010009DC000009BC0000099C0000097C0000078
:1000200095C0000093C0000091C0000028C40000EB
:10003000CDC400008BC0000089C0000087C0000054
:1000400085C0000083C0000081C000007FC00000A8
:100050007DC000007BC0000079C00000D9C1000055
:1000600075C0000073C0000071C000006FC00000C8
:100070006DC0000018034100720064007500690043
:100080006E006F00200055006E006F00000032030C
:10009000410072006400750069006E006F0020006E
:1000A00028007700770077002E006100720064005E
:1000B000750069006E006F002E0063006300290068
:1000C00000000403090409023E00020100C03209D5
:1000D00004000001020201000524000110042402B2
:1000E000060524060001070582030800FF09040134
:1000F00000020A0000000705040240000107058312
:10010000024000011201100102000008250901004F
:1001100001000102DC0111241FBECFEFD2E0DEBFDF
:10012000CDBF11E0A0E0B1E0E6EAFFE002C005903B
:100130000D92A631B107D9F722E0A6E1B1E001C0E6
:100140001D92AF32B207E1F762D021C759CF9C01AF
:10015000DC01AE57BF4FED91FC9111978191A90140
:1001600040585F4FE417F50761F0ED93FC934FB7EC
:10017000F894F901EC57FF4F9081915090834FBF55
:1001800008952D933C93F3CF9C01FC01E058FF4F61
:10019000A081B1816C93A081B181CD0101968E17B0
:1001A0009F0761F0918380839FB7F894F901EC5722
:1001B000FF4F80818F5F80839FBF089512963C938D
:1001C0002E931197F1CF84B7877F84BF0FB6F89431
:1001D000A895809160008861809360001092600013
:1001E0000FBE87E690E09093CD008093CC0086E030
:1001F0008093CA001092C80088E18093C900539A86
:100200005A9A32D384E085BD5F9A579A08958091B7
:100210002F0290913002A0913102B09132028130D0
:100220009048AD4ABE4D51F410922F021092300208
:1002300010923102109232020C940008C4DF2FB7E2
:10024000F8948EE991E090931F0280931E029093A0
:100250002102809320022FBF2FB7F89489E191E00B
:1002600090939A018093990190939C0180939B01B4
:100270002FBF78949FB7F894809122029FBF803857
:1002800049F080E091E031D6BC0197FD03C08EE9D2
:1002900091E07ADF8FB7F894C0919D018FBFA89944
:1002A0000EC0C13660F49FB7F894809122029FBFC0
:1002B000811111C080E091E009D601D5DBCFA89A69
:1002C000CC2389F389E191E042DF682F80E091E05F
:1002D000AFD5C150F5CF8EE991E039DF9091C800DC
:1002E00095FFFCCF8093CE00E5CF80E091E05FC525
:1002F00080E091E0F6C48F929F92AF92BF92FF92FE
:100300000F931F93CF93DF9300D000D00F92CDB700
:10031000DEB78C01DC0154968C9190E3F92E81308C
:1003200051F0B1E0B983823009F01982F980F2947A
:10033000FF0C20EEF222F8018389823011F46894D8
:10034000F3F8D80155968C91873009F457C088305E
:1003500009F457C0863011F46894F1F81092C9007E
:100360001092C8001092CA00F8012785308941898F
:1003700052892115F1EE3F074105510509F445C0A9
:1003800049015A01B694A79497948794D501C40162
:1003900080589B47A14EBF4F89839A83AB83BC8310
:1003A000BC01CD01CCD5215031093093CD00209333
:1003B000CC00F092CA0081E0D8011F964D915D916A
:1003C0006D917C9152974115514E6105710509F46B
:1003D00080E0880F8093C80088E98093C9000F905F
:1003E0000F900F900F900F90DF91CF911F910F9171
:1003F000FF90BF90AF909F908F9008956894F2F80F
:10040000ADCFBF2DB660FB2EA9CF20E130E0CDCF20
:100410001F920F920FB60F9211242F933F934F9379
:100420005F936F937F938F939F93AF93BF93EF935C
:10043000FF936091CE008EB3843019F489E191E08E
:10044000A3DEFF91EF91BF91AF919F918F917F912B
:100450006F915F914F913F912F910F900FBE0F9031
:100460001F901895FC01858580FF02C05F98089554
:100470005F9A87859089A189B289803B9440A105C4
:10048000B105C1F481E090E8ADEABEED80932F02A2
:1004900090933002A0933102B0933202F89488E135
:1004A00098E00FB6F894A895809360000FBE9093E3
:1004B0006000FFCF08959C01DA01832F99278230D5
:1004C000910529F18330910549F0019791F482E17A
:1004D00090E024E031E02D933C930895C9019927E1
:1004E000213061F08230910579F0E2ECF0E0892B67
:1004F00039F090E080E030E020E0EDCFEEE8F0E091
:10050000849190E09F01E7CFE4E7F0E0F9CF8EE33C
:1005100090E026EC30E0DFCFAC0128E030E080E076
:100520002417350718F08295807F08958F5F220F7A
:10053000331FF6CF8093E900EBEEF0E0808181601D
:100540008083EDEEF0E010826093EC0040838091B8
:10055000EE00881F8827881F08951092F40080E01D
:100560008093E9001092F0001092E8001092ED00E4
:100570009091EB009E7F9093EB008F5F853081F729
:1005800008958091260287FF11C08091E80082FFC4
:1005900006C08091E8008B778093E80003C08EB39B
:1005A0008111F3CF08958EB38823E1F38091E800A1
:1005B00080FFF9CF8091E8008E77EECF95E620910D
:1005C000EC00822F817020FF06C08091E80080FF40
:1005D00006C080E008952091E80022FD1CC08EB383
:1005E0008823A1F08EB3853099F08091EB0085FDD2
:1005F00011C08091E10082FFE2CF8091E1008B7F0A
:100600008093E1009150D9F684E0089582E0089546
:1006100083E0089581E008959B0140912C02509160
:100620002D024617570798F0672B29F44091E800F0
:100630004E774093E80050E02115310551F45111F7
:1006400008C08091E80082FF30C080E008959A01E0
:10065000F2CF4091E80043FD30C04091E80042FDF8
:10066000F0CF4EB3442359F14EB3453021F14091C0
:10067000E80040FFE1CF4091F2002115310511F073
:10068000483050F051E0483009F050E04091E80027
:100690004E774093E800D0CFFC0181918093F10028
:1006A000215031094F5FCF01E8CF8EB3882339F055
:1006B0008EB3853031F683E0089581E0089582E0BD
:1006C00008959B0140912C0250912D024617570727
:1006D00098F0672B29F44091E8004E774093E800AA
:1006E00050E02115310551F4511108C08091E80006
:1006F00082FF31C080E008959A01F2CF4091E80076
:1007000043FD31C04091E80042FDF0CF4EB3442399
:1007100061F14EB3453029F14091E80040FFE1CF4F
:100720004091F200FC01CF012115310511F0483054
:1007300050F051E0483009F050E04091E8004E7729
:100740004093E800CECF84918093F100215031098D
:100750004F5F3196E8CF8EB3882339F08EB3853062
:1007600029F683E0089581E0089582E008959B01D1
:10077000672B29F44091E8004B774093E80021155E
:10078000310531F48091E80080FF24C080E00895B5
:100790004091E80043FD26C04EB3442329F14EB3F7
:1007A0004530F1F04091E80042FFE9CF4091F2007E
:1007B000FC01411107C08091E8008B778093E8002D
:1007C000CF01DDCF8091F10081932150310999F360
:1007D000CF01ECCF8EB3882339F08EB3853091F6FC
:1007E00083E0089581E0089582E0089542D044D0E6
:1007F0001EBA10922502109223021092240284E065
:1008000089BD89B5826089BD09B400FEFDCF8091A4
:10081000D800982F9F779093D80080688093D80055
:10082000809163008E7F809363008091D8008F7DDC
:100830008093D8008091E0008E7F8093E0008091CB
:10084000E1008E7F8093E1008091E20081608093DF
:10085000E2008091E100877F8093E1008091E200D7
:1008600088608093E2000895C1DF81E080932E02CA
:1008700008951092E20008951092E10008951F92E9
:100880000F920FB60F9211242F933F934F935F93C4
:100890006F937F938F939F93AF93BF93EF93FF9348
:1008A0008091E10080FF1BC08091E20080FF17C0B3
:1008B0008091E1008E7F8093E1008091E2008E7F45
:1008C0008093E2008091E20080618093E200809159
:1008D000D80080628093D80019BC1EBAEFD18091F5
:1008E000E10084FF27C08091E20084FF23C084E000
:1008F00089BD89B5826089BD09B400FEFDCF8091B4
:10090000D8008F7D8093D8008091E1008F7E809306
:10091000E1008091E2008F7E8093E2008091E2000E
:1009200081608093E2008091250281114DC081E0B9
:100930008EBBC4D18091E10083FF27C08091E2008B
:1009400083FF23C08091E100877F8093E10082E0F4
:100950008EBB109225028091E1008E7F8093E10092
:100960008091E2008E7F8093E2008091E2008061BE
:100970008093E200F2DD42E060E080E0DBDD809128
:10098000F00088608093F00099D18091E10082FFAF
:100990000AC08091E20082FF06C08091E1008B7F57
:1009A0008093E1008BD1FF91EF91BF91AF919F9127
:1009B0008F917F916F915F914F913F912F910F9008
:1009C0000FBE0F901F90189584E0B2CF1F920F9228
:1009D0000FB60F921124FF920F931F932F933F9303
:1009E0004F935F936F937F938F939F93AF93BF9337
:1009F000CF93DF93EF93FF93C9EED0E088818770A8
:100A0000F82E188200EF10E0F8018081877F808344
:100A100078941DD0F8941882F801808188608083D2
:100A2000F882FF91EF91DF91CF91BF91AF919F91AC
:100A30008F917F916F915F914F913F912F911F9176
:100A40000F91FF900F900FBE0F901F9018951F935E
:100A5000CF93DF93CDB7DEB7AA970FB6F894DEBF7A
:100A60000FBECDBF86E292E0FC0101962091F1001D
:100A7000208322E08E329207B9F78091260290916E
:100A800027029A3008F004C1E92FF0E0E753F84F4D
:100A900078C2803881F0823809F0FAC080912A0249
:100AA00087708093E9008091EB0085FB882780F9AF
:100AB0001092E90006C080912402909123029111C6
:100AC00082609091E800977F9093E8008093F10016
:100AD0001092F1008091E8008E77ECC0882309F431
:100AE000D9C0823009F0D4C0809128028111DDC0C4
:100AF00080912A02877009F43CC08093E90020911C
:100B0000EB0020FF36C0933031F48091EB0080621F
:100B10008093EB00CAC09091EB0090619093EB0042
:100B200021E030E001C0220F8A95EAF72093EA0025
:100B30001092EA008091EB008860EACF8111A8C092
:100B4000109128028091E800877F8093E80019DDEA
:100B50008091E80080FF0AC0812F8F7792E009F032
:100B600093E09EBB80688093E30003C08EB3811145
:100B7000EFCF8091E80083FF0AC08091EB00806294
:100B80008093EB008091E800877F8093E800AA962D
:100B90000FB6F894DEBF0FBECDBFDF91CF911F918E
:100BA00008958058823008F073C080912802909197
:100BB00029028C3D23E0920799F583E08A838AE23B
:100BC00089834FB7F894DE01139620E03EE051E2AE
:100BD000E32FF0E050935700E49120FF03C0E2952B
:100BE000EF703F5FEF7080E38E0F8A3310F087E382
:100BF0008E0F90E08D939D932F5F243149F74FBF67
:100C00008091E800877F8093E8006AE270E0CE017F
:100C1000019602DD8091E8008B778093E800A9CFF0
:100C2000AE014F5F5F4F60912A0245DCBC01892B0A
:100C300009F49FCF8091E800877F8093E800898145
:100C40009A813FDDE7CF803819F58091E800877FF2
:100C50008093E800809125028093F1003BCF8111C1
:100C600017C090912802923008F083CF8091E8005D
:100C7000877F8093E8009093250283DC8091250292
:100C8000811104C083E08EBB30DB73CF84E0FBCFE7
:100C90002FDB6FCF80912802813009F06ACF81E08D
:100CA000933009F080E0809323021092E900809154
:100CB000E800877F8093E80064DC5BCF0895CF93E2
:100CC0008EB3882359F0C091E900C7701092E900F3
:100CD0008091E80083FDBBDEC093E900CF910895C9
:100CE0000895CF93DF93EC018091E80083FF12C059
:100CF000288180912A0290912B022817190651F41D
:100D000080912702823209F440C038F4803249F1E0
:100D1000813299F0DF91CF9108958332D9F7809194
:100D200026028132B9F78091E800877F8093E8003E
:100D300060912802CE01D4DF37C080912602813A2B
:100D400049F78091E800877F8093E80067E070E0D2
:100D5000CE010F9661DC8091E8008B778093E800EC
:100D6000D9CF809126028132A9F68091E800877F51
:100D70008093E80067E070E0CE010F96F8DCCE01CA
:100D8000BADA8091E8008E77E9CF8091260281322D
:100D900009F0C0CF8091E800877F8093E8008091C0
:100DA00028028D87CE015EDBDF91CF91EACB0F93D6
:100DB0001F93CF93DF93EC01FC013D9689E0DF01A7
:100DC0001D928A95E9F71C81110F110F09818A8103
:100DD0009B81A2DB482F412B426061E8802FAADB78
:100DE000882301F11885110F110F0D818E819F81CC
:100DF00093DB412F482B426060E8802F9BDB8823E8
:100E000089F01C85110F110F09858A859B8584DB6C
:100E1000412F482B426061EC802FDF91CF911F91D1
:100E20000F9188CB80E0DF91CF911F910F910895B2
:100E3000CF93FC01C62F8EB38430E9F48785908967
:100E4000A189B289892B8A2B8B2BA9F08181809370
:100E5000E9008091E80085FF05C0C093F10080E0C3
:100E6000CF9108958091E8008E778093E800A6DB0B
:100E7000882399F3F5CF82E0F3CFFC018EB3843061
:100E800019F587859089A189B289892B8A2B8B2BAB
:100E9000D9F081818093E9008091F200811102C034
:100EA00080E008959091E8008091E8008E7780932B
:100EB000E80095FDF5CF82DB811107C09091E80035
:100EC0009E779093E800089582E00895FC018EB328
:100ED000843051F487859089A189B289892B8A2B26
:100EE0008B2B11F0CF01C9CF0895FC018EB3843054
:100EF00019F08FEF9FEF089587859089A189B289B6
:100F0000892B8A2B8B2BA9F385818093E900809113
:100F1000E80082FFEECF8091F200882369F0809193
:100F2000F10090E02091F200211105C02091E8002D
:100F30002B772093E80008958FEF9FEFF3CFA1E286
:100F40001A2EAA1BBB1BFD010DC0AA1FBB1FEE1F43
:100F5000FF1FA217B307E407F50720F0A21BB30B8E
:100F6000E40BF50B661F771F881F991F1A9469F70A
:100F700060957095809590959B01AC01BD01CF0166
:100F80000895EE0FFF1F0590F491E02D0994F89459
:100F9000FFCF49056E0548066E0548069E05D1053A
:060FA000480623062F069F
:100FA60000034000000440000002080000000000AA
:060FB60000000000000035
:00000001FF
