:100000009EC70000B9C70000B7C70000B5C7000011
:100010000C941F26B1C70000AFC700000C946D24DC
:10002000ABC70000A9C700000C94B724A5C7000007
:10003000A3C70000A1C700009FC700009DC7000024
:100040009BC7000099C7000097C7000095C7000034
:1000500093C7000091C700008FC700000C9465256E
:100060008BC7000089C7000087C7000085C7000054
:1000700083C7000081C700007FC700007DC7000064
:100080007BC7000079C7000077C7000075C7000074
:100090000C94882571C700006FC700006DC7000071
:1000A0006BC7000069C7000067C7000000000000C0
:1000B000240027002A002D003000FF080F0C212605
:1000C0000107000000006C656F6E6172646F00458F
:1000D00052524F520009023E00020100C032090490
:1000E00000000102020100052400100104240206A0
:1000F0000524060001070582030800FF090401002A
:10010000020A00000007050402100005070583022B
:1001100010000512011001020000404F1B04920163
:10012000000102DC012A0353007000610072006BC1
:1001300000460075006E00200045006C00650063FD
:1001400000740072006F006E0069006300730000AD
:10015000002403410072006400750069006E006FA6
:10016000002000500072006F0020004D0069006305
:100170000072006F00000004030904020F00000079
:1001800001010115D4A2000F000000FFFFFFFFFFD7
:10019000FFFFFFFFFFFFFFFFFFFFFFFF00FF00FF6D
:1001A00000FF00FF00FF0040404000B80B04160DA8
:1001B0000E0F33280B504F525151FFFFFFFFFFFF2F
:1001C00000FF00FF00FF000D0080000EFF00001088
:1001D000FFFF000F0000FF09FF45000000000000C6
:1001E000000000000000000000000000000000000F
:1001F00000000000000000000000000000000000FF
:1002000000000000000000000000000000000000EE
:1002100000000000000000000000000000000000DE
:1002200000000000000000000000000000000000CE
:1002300000000000000000000000000000000000BE
:1002400000000000000000000000000000000000AE
:10025000000000000000000000000000000000009E
:10026000000000000000FF0000008000000000000F
:1002700080000000000080FF7F00000080FF7F0002
:10028000000080FF7F00000080FF7F051400000059
:100290000000000000000002000001010202000056
:1002A000000000020202010100020102010002013D
:1002B00000000202020101070605040100080A0B02
:1002C0000C0D09000000002300260029002C002F3F
:1002D0000000000000250028002B002E0031000443
:1002E0000802011040804010204080408008020435
:1002F00001804020100201108010204040200404A2
:1003000004040403040502020202040302020202BE
:100310000606060606060404020202040400007033
:10032000000000002400000002000300000065003F
:1003300054FFEF0000FA80000B12820001030C3022
:10034000C30E8C8CE914D5400213710F8E3883F8DC
:10035000833000F883258EF8833000F883FFFFFF99
:10036000FF0FFEA9D6240004001A8279A100000024
:100370003CFFFF00000010000038836FA2003E0326
:10038000304000000002CAE3093E80000020000067
:1003900000000000004000000060000000000C00B1
:1003A00000000C186E000006920A16C0DFFFFF0264
:1003B00056FD8CD377FFE1C496E0C5BEAA000000CD
:1003C00000FFFF0B2B0000165700000359400000F0
:1003D0000000001DFA00026C1D000000003FFFDF5E
:1003E000EB003EB3B6000D227800002F3C00000069
:1003F00000001942B5000039A20000B365D90E9F74
:10040000C91DCF4C3430000000500000003BB67ACC
:10041000E80064000000C8000000000000100000B8
:10042000001000FA921000225E000D229F000100D1
:100430000000320000FF46000063D40000100000FE
:100440000004D6000004CC000004CC000000001022
:1004500072000000400000000000000000000600E4
:10046000020005000700000000006400000000001A
:1004700000000000050005006400200000000000EE
:100480000000000000000040000000030000000029
:1004900032F8980000FF650000830F0000FF9BFC0E
:1004A000000000000000000000000000000000004C
:1004B000000000000000000000000000000000003C
:1004C00000000000000000000000001000400000DC
:1004D00000000000060000B26A000200000001FBFC
:1004E000830068000000D9FC007CF1FF830000005D
:1004F0000000650000006403E800640028000000BC
:10050000250000000016A0000000001000000010F0
:1005100000002F0000000001F4000010000028007F
:1005200000FFFF4581FFFFFA72000000000000009D
:1005300000004400050005BAC6004778A20000008C
:10054000010000000000000600000000140000256B
:100550004D002F706D000005AE000C02D0000000B1
:1005600000000000000000000000000000001B0070
:100570000000000000000000000000000000640017
:100580000000080000000000000000000000000063
:10059000000000000000000000000000000000005B
:1005A000000000000000000000000000000000004B
:1005B000000000000000000000000000000000003B
:1005C000000000000000000000000000000000002B
:1005D00000000000000000000000000000001B0000
:1005E000000000000000000000000E000E00000AE5
:1005F000C70004000000000032FFFFFF9C00000B5A
:100600002B000000020000000100000064FFE50074
:1006100000000000000000000000000000000000DA
:100620000100000000000100000000000000018047
:10063000000001800000018000002426D30000009B
:100640000000000000000600100096003C000000C2
:10065000000000000000000000000000000C0A4E36
:1006600068CDCF770950166759C619CE82000000B1
:10067000000000000000000000000000000000007A
:10068000000000000017D7840003000000000000F5
:100690000000000000C7938F9D1E1B1C1900000066
:1006A000000000000000000000000000000000004A
:1006B0000000000000020318850000400000000058
:1006C00003000000030000000000000000400000E4
:1006D000000000000000000000000000000000001A
:1006E000000000000000000000000000000000000A
:1006F00000000000000000000000000000000000FA
:1007000000677DDF7E72902E554CF6E68800000073
:1007100000000000000000000000000000D8DCB471
:10072000B8B0D8B9ABF3F8FAB3B7BB8E9EAEF1321E
:10073000F51BF1B4B8B08097F1A9DFDFDFAADFDFE6
:10074000DFF2AAC5CDC7A90CC92C97F1A989264605
:1007500066B28999A92D557DB0B08AA8963656768D
:10076000F1BAA3B4B280C0B8A89711B28398BAA363
:10077000F0240844106418B2B9B49883F1A3295541
:100780007DBAB5B1A38393F0002850F5B2B6AA8321
:100790009328547CF1B9A3829361BAA2DADEDFDB3D
:1007A000819AB9AEF5606870F1DABAA2DFD9BAA25F
:1007B000FAB9A38292DB31BAA2D9BAA2F8DF85A432
:1007C000D0C1BBAD83C2C5C7B8A2DFDFDFBAA0DF2F
:1007D000DFDFD8D8F1B8AAB38DB4980D355DB2B6C5
:1007E000BAAF8C96198F9FA70E161EB49AB8AA8717
:1007F0002C547CBAA4B08AB691325676B28494A4B2
:10080000C808CDD8B8B4B0F19982A82D557D98A864
:100810000E161EA22C547C92A4F02C5078F184A8C1
:1008200098C4CDFCD80DDBA8FC2DF3D9BAA6F8DA14
:10083000BAA6DED8BAB2B68696A6D0F3C841DAA672
:10084000C8F8D8B0B4B882A892F52C548898F1357D
:10085000D9F418D8F1A2D0F8F9A884D9C7DFF8F8EC
:1008600083C5DADF69DF83C1D8F40114F1A8824EB1
:10087000A884F311D182F5D992289788F109F41C44
:100880001CD884A8F3C0F9D1D99782F129F40DD8E6
:10089000F3F9F9D1D982F4C203D8DEDF1AD8F1A274
:1008A000FAF9A88498D9C7DFF8F8F883C7DADF69BE
:1008B000DFF883C3D8F40114F198A8822EA884F33A
:1008C00011D182F5D992509788F109F41CD884A8E7
:1008D000F3C0F8F9D1D99782F149F40DD8F3F9F9B9
:1008E000D1D982F4C403D8DEDFD8F1AD8898CCA882
:1008F00009F9D98292A8F57CF1883ACF944A6E988A
:10090000DB6931DAADF2DEF9D88795A8F221D1DAC8
:10091000A5F9F417D9F1AE8ED0C0C3AE82C684C398
:10092000A88595C8A588F2C0F1F4010EF18E9EA8A5
:10093000C63E56F554F18872F40115F19845856E5E
:10094000F58E9E0488F142985A8E9E068869F401BD
:100950001CF1981E1108D0F504F11E97020298367A
:1009600025DBF9D985A5F3C1DA85A5F3DFD885950F
:10097000A8F309DAA5FAD88292A8F578F1881A8442
:100980009F26889821DAF41DF3D8879F39D1AFD9F3
:10099000DFDFFBF9F40CF3D8FAD0F8DAF9F9D0DF9D
:1009A000D9F9D8F40BD8F3879F39D1AFD9DFDFF469
:1009B0001DF3D8FAFCA869F9F9AFD0DADEFAD9F854
:1009C0008F9FA8F1CCF398DB45D9AFDFD0F8D8F1F1
:1009D0008F9FA8CAF38809DAAF8FCBF8D8F2AD970A
:1009E0008D0CD9A5DFF9BAA6F3FAF412F2D8950D59
:1009F000D1D9BAA6F3FADAA5F2C1BAA6F3DFD8F1D3
:100A0000BAB2B68696A6D0CAF349DAA6CBF8D8B061
:100A1000B4B8D8AD84F2C0DFF18FCBC3A8B2B6862C
:100A200096C8C1CBC3F3B0B48898A821DB718D9D63
:100A300071859521D9ADF2FAD88597A828D9F408FF
:100A4000D8F28D29DAF405D9F285A4C2F2D8A88D9E
:100A50009401D1D9F411F2D88721D8F40AD8F284BC
:100A600098A8C801D1D9F411D8F3A4C8BBAFD0F26B
:100A7000DEF8F8F8F8F8F8F8F8D8F1B8F6B5B9B043
:100A80008A95A3DE3CA3D9F8D85CA3D9F8D87CA377
:100A9000D9F8D8F8F9D1A5D9DFDAFAD8B18530F785
:100AA000D9DED8F830ADDADED8F2B48C99A32D5562
:100AB0007DA083DFDFDFB591A0F629D9FBD8A0FCAC
:100AC00029D9FAD8A0D051D9F8D8FC51D9F9D87978
:100AD000D9FBD8A0D0FC79D9FAD8A1F9F9F9F9F95C
:100AE000A0DADFDFDFD8A1F8F8F8F8F8ACDEF8AD6F
:100AF000DE8393AC2C547CF1A8DFDFDFF69D2CDA8B
:100B0000A0DFD9FADB2DF8D8A850DAA0D0DED9D0F2
:100B1000F8F8F8DB55F8D8A878DAA0D0DFD9D0FA01
:100B2000F8F8F8F8DB7DF8D89CA88CF530DB38D9DC
:100B3000D0DEDFA0D0DEDFD8A848DB58D9DFD0DE9A
:100B4000A0DFD0DED8A868DB70D9DFDFA0DFDFD878
:100B5000F1A888902C547C98A8D05C38D1DAF2AEF9
:100B60008CDFF9D8B087A8C1C1B188A8C6F9F9DA75
:100B700036D8A8F9DA36D8A8F9DA36D8A8F9DA36A4
:100B8000D8A8F9DA36D8F78D9DADF818DAF2AEDFCD
:100B9000D8F7ADFA30D9A4DEF9D8F2AEDEFAF9838F
:100BA000A7D9C3C5C7F1889BA77AADF7DEDFA4F844
:100BB000849408A797F300AEF29819A488C6A3946A
:100BC00088F632DFF28393DB09D9F2AADFD8D8AEF8
:100BD000F8F9D1DAF3A4DEA7F1889B7AD8F38494EC
:100BE000AE19F9DAAAF1DFD8A881C0C3C5C7A392AC
:100BF00083F628ADDED9F8D8A350ADD9F8D8A378BC
:100C0000ADD9F8D8F8F9D1A1DADEC3C5C7D8A1812A
:100C100094F818F2B089ACC3C5C7F1D8B8B4B0978E
:100C200086A8319B069907AB9728889BF00C201467
:100C300040B0B4B8F0A88A9A285078B79BA8295138
:100C400079247059446938644831F1BBAB88002C71
:100C5000547CF0B38BB8A804285078F1B088B497CE
:100C600026A85998BBABB38B02264666B0B8F08A6B
:100C70009CA82951798B2951798A2470598B205845
:100C8000718A4469388B3940688A6448318B3049AD
:100C90006088F1AC002C547CF08CA804285078F1CA
:100CA000889726A85998AC8C02264666F0899CA89D
:100CB000295179247059446938644831A988092038
:100CC0005970AB11384069A8193148608CA83C4173
:100CD0005C207C00F187981986A86E767EA9998899
:100CE0002D557DD8B1B5B9A3DFDFDFAED0DFAAD0F7
:100CF000DEF2ABF8F9D9B087C4AAF1DFDFBBAFDF12
:100D0000DFB9D8B1F1A3978E60DFB084F2C8F8F9EB
:100D1000D9DED89385F14AB183A308B5839A081028
:100D2000B79F10D8F1B0BAAEB08AC2B2B68E9EF1FB
:100D3000FBD9F41DD8F9D90CF1D8F8F8AD61D9AECA
:100D4000FBD8F40CF1D8F8F8AD19D9AEFBDFD8F424
:100D500016F1D8F8AD8D61D9F4F4ACF59C9C8DDF1B
:100D60002BBAB6AEFAF8F40BD8F1AED0F8AD51DA32
:100D7000AEFAF8F1D8B9B1B6A3839C08B9B1839A99
:100D8000B5AAC0FD3083B79F10B58B93F20202D194
:100D9000ABDADED8F1B080BAABC0C3B284C1C3D87D
:100DA000B1B9F38BA391B609B4D9ABDEB0879CB9C6
:100DB000A3DDF1B38B8B8B8B8BB087A3A3A3A3B2E3
:100DC0008BB69BF2A3A3A3A3A3A3A3A3A3A3F1B056
:100DD00087B59AA3F39BA3A3DCBAACDFB9A3A3A303
:100DE000A3A3A3A3A3A3A3A3A3A3A3A3A3D8D8D834
:100DF000BBB3B7F1AAF9DAFFD9809AAA28B48098D0
:100E0000A720B79787A86688F07951F1902C870CB6
:100E1000A781976293F0717160859401295179904F
:100E2000A5F1284C6C870C95188578A38390284CE5
:100E30006C886CD8F3A28200F210A8921980A2F2FA
:100E4000D926D8F188A84DD948D896A83980D93C58
:100E5000D89580A839A68698D92CDA87A72CD8A847
:100E6000899519A980D938D8A88939A980DA3CD8B8
:100E7000A82EA83990D90CD8A8953198D90CD8A803
:100E800009D9FFD801DAFFD89539A9DA26FFD89019
:100E9000A80D8999A810809821DA2ED88999A831AF
:100EA00080DA2ED8A886963180DA2ED8A8873180AD
:100EB000DA2ED8A88292F34180F1D92ED8A882F3F5
:100EC0001980F1D92ED882ACF3C0A28022F1A62ECF
:100ED000A72EA92298A829DAACDEFFD8A2F22AF11F
:100EE000A92E8292A8F23180A696F1D900AC8C9CF2
:100EF0000C30ACDED0DEFFD88C9CACD010ACDE80E9
:100F000092A2F24C82A8F1CAF235F19688A6D900D5
:100F1000D8F1FF0E0C0D0F08FFFF09050406070AA4
:100F20000B0F0C0D0E08FFFF09050406070A0B0F37
:100F30000C0D0E0908FFFF050406070A0B0011241B
:100F40001FBECFEFDAE0DEBFCDBF12E0A0E0B1E020
:100F5000ECEBF0E602C005900D92A830B107D9F78E
:100F600025E0A8E0B2E001C01D92AF34B207E1F77E
:100F70000E9425260C945C3043C8CF93DF93FC017C
:100F8000DA0186E0EB01888385E0808315962C9159
:100F90001597822F922F990F990B97FD079653E083
:100FA000959587955A95E1F7828317962C91179717
:100FB000822F922F990F990B91958195910997FD09
:100FC000079643E0959587954A95E1F783831B96AD
:100FD0002C911B97822F922F990F990B97FD0796B3
:100FE00033E0959587953A95E1F7848319962C918E
:100FF0001997822F922F990F990B97FD079623E04F
:10100000959587952A95E1F7858311969C9111977F
:101010009295917081818E7F982B918311968C91FE
:101020001197829582709D7F892B818311969C9167
:101030009695969596959870877F892B8183DF91F9
:10104000CF9108959F92AF92BF92CF92DF92EF928D
:10105000FF920F931F93CF93DF9300D000D0CDB7B3
:10106000DEB7FC014B835C838CE1DB018C9384E075
:1010700080839090EC04B0904E0574E4C72E71E02C
:10108000D72EFA83E98390E080E061E070E0A82E3B
:10109000D6012D916D01AB81BC814D915C912F3FAB
:1010A00009F44AC0DB0102C0AA0FBB1F2A95E2F770
:1010B0009D012423352341E02115310509F440E049
:1010C0008B010A2C02C0000F111F0A94E2F7009551
:1010D0001095E180F280E022F12250E08A0102C006
:1010E000000F111FAA94E2F70E291F291283018312
:1010F000891510F5BBE1BB1215C0843098F49C0132
:1011000026543F4FD9012C918B0102C0000F111FB3
:101110002A95E2F7AB81BC812D913C9120233123AC
:10112000242B352B41E0232B09F440E0242F21957B
:10113000A981BA8118962C93019629813A812F5F53
:101140003F4F3A8329838E30910509F0A0CFAB81C0
:10115000BC812C912F7088E02B3028F430E0215294
:101160003E4FD9018C918383AB81BC811A962D911E
:101170003C91BBE1BB1216C0AB81BC8119968C912E
:1011800085958054868387E29FE12F3F3F4711F486
:1011900080E690EF958B848B8DE7878380E884834E
:1011A000858376C06DE1B61619F080E2B81220C0D2
:1011B000AB81BC8119968C91805886838181928104
:1011C0008F7D41E050E02F3F3F4711F050E040E07D
:1011D00065E0440F551F6A95E1F7842B952B9283A8
:1011E0008183AB81BC8112969C9180E8891B8783A7
:1011F000BFE1BB1619F02AE1B212D0CF81E090E036
:10120000AB81BC8112962C91233310F490E080E0E6
:1012100054E0880F991F5A95E1F7218132812F7E82
:10122000822B932B9283818321E030E0AB81BC81C0
:1012300013964C91433310F430E020E045E0220F48
:10124000331F4A95E1F78F7D282B392B3283218379
:10125000AB81BC8112968C911297848713968C91E6
:101260001397858715968C911597805884831796C8
:101270009C9117979058958319968C91199780583F
:1012800086831B968C9180588783BAE1BB1681F0C8
:101290000F900F900F900F90DF91CF911F910F91B2
:1012A000FF90EF90DF90CF90BF90AF909F90089508
:1012B0009095958380958783EBCFEF92FF920F9364
:1012C0001F93CF93DF93CDB7DEB72C970FB6F8946B
:1012D000DEBF0FBECDBFE32FF0E0EA57FE4F8081A7
:1012E0008F3F81F021E030E002C0220F331F8A954A
:1012F000E2F780910B0290910C022823392381E0C0
:10130000232B09F480E02C960FB6F894DEBF0FBEB5
:10131000CDBFDF91CF911F910F91FF90EF90089576
:10132000EF92FF920F931F93CF93DF93CDB7DEB76A
:1013300064970FB6F894DEBF0FBECDBFE986FA867C
:101340000B871C872D873E874F87588B698B7A8B3D
:101350008B8B9C8B9F3F69F4EA85FB8580818E2176
:1013600091E009F490E081E02C859217B9F080E0DB
:1013700015C088E0989FF0011124EF57FC4F88E0DA
:10138000DE01119601900D928A95E1F74C815D8105
:1013900081E02E813F812417350748F764960FB608
:1013A000F894DEBF0FBECDBFDF91CF911F910F919B
:1013B000FF90EF900895EF92FF920F931F93CF93BA
:1013C000DF93CDB7DEB72C970FB6F894DEBF0FBE14
:1013D000CDBFE982FA820B831C832D833E834F832A
:1013E000588769877A878B879C8780910201843030
:1013F00049F1893051F586E991E02E81820F911DE6
:10140000FC0180818F3F81F021E030E002C0220F9B
:10141000331F8A95E2F780910D0290910E022823E6
:10142000392381E0232B09F480E02C960FB6F89441
:10143000DEBF0FBECDBFDF91CF911F910F91FF9007
:10144000EF90089586EB91E0D8CF86EA91E0D5CF72
:1014500080914B0387FF11C08091E80082FF06C096
:101460008091E8008B778093E80003C08BB58111F1
:10147000F3CF08958BB58823E1F38091E80080FFD6
:10148000F9CF8091E8008E77EECFCF93DF9300D035
:1014900000D0CDB7DEB72FB7F89480916802909155
:1014A0006902A0916A02B0916B022FBF2227382FE8
:1014B000492F5A2FCA01B9012DE730E040E050E032
:1014C0000E948E2FCA01B9010F900F900F900F90BC
:1014D000DF91CF9108958EBD00000DB407FEFDCFC2
:1014E0008EB5089590E0FC01E152FD4F2491FC017E
:1014F000E250FD4FE491EE2389F0F0E0EE0FFF1F84
:10150000EF52FD4FA591B4919FB7F8948C91611162
:1015100006C0E22FE095E823EC939FBF0895822B4D
:101520008C93FBCF61E08FE0DDDF61E080E1DACF1B
:1015300090E0FC01E152FD4F2491FC01E250FD4F8F
:10154000E491EE2359F0F0E0EE0FFF1FED53FD4F55
:10155000A591B491EC91E22381E009F480E0089533
:10156000CF93DF93EC018091DD04E2DF91E08927E6
:101570004FEF5FE7849F9001859F300D11243B87DB
:101580002A87DF91CF910895E82FF0E0E954FD4FCD
:10159000E49190917B008E2F880F880F80729F7D41
:1015A000892B80937B00E770E064E0937C0080915E
:1015B0007A00806480937A0080917A0086FDFCCF67
:1015C0008091780090917900089580917A0086FD4D
:1015D000FCCF81E0809301010895CF93DF9390E0E9
:1015E000FC01E152FD4F249182509D4FFC018491FA
:1015F0008823D1F090E0880F991FFC01E455FF4F3C
:10160000A591B491FC01EF52FD4FC591D4919FB7C4
:10161000613069F4F8948C91209582238C938881B1
:10162000282328839FBF7894DF91CF91089562305B
:1016300051F4F8943C91822F809583238C93888178
:10164000822B8883EFCFF8948C91822B8C93EACFF6
:10165000CF92DF92EF92FF920F931F93CF93DF937E
:101660006B017C01142FD22F60E080E1B6DF62E0D5
:101670008EE0B3DF60E08FE0B0DF61E081E132DF78
:1016800060E081E1AADF1111C8E0D111C46001114D
:10169000C062C11489E0D8068DE3E806F104D8F5EC
:1016A00080E8C81684E8D8068EE1E806F104A8F5BB
:1016B00080E4C81682E4D8068FE0E806F10478F5E5
:1016C00080E2C81681EAD80687E0E806F10448F50A
:1016D00080E9C81680EDD80683E0E806F10418F525
:1016E00088E4C81688EED80681E0E806F104E8F43C
:1016F00087E091E08927982F96959C2B90659CBD5B
:1017000081708DBDDF91CF911F910F91FF90EF9070
:10171000DF90CF90089580E0ECCF81E0EACF82E0C7
:10172000E8CF83E0E6CF84E0E4CF85E0E2CFEAE7EC
:10173000F0E080818460808380818260808380810A
:101740008E7F80838081806880830895CF92DF922E
:10175000EF92FF92F0E0E0E067E675E483E291E06B
:1017600041E2409357002491622728E030E06B016A
:101770007C0151E0C522DD24EE24FF249695879557
:1017800077956795CD28CE28CF2841F050E2652780
:1017900053E8752758EB85275DEE952721503109D1
:1017A00031F73196E032F105E1F6FF90EF90DF90EE
:1017B000CF900895682F80E095CE682F8AE092CE72
:1017C000982F8D3081F0823070F08091CA04882388
:1017D00021F02EEF290F223038F09E5081E0943016
:1017E00018F080E0089581E008950F931F93CF9340
:1017F00080914A03882391F002E313E0C0E08C2F2C
:10180000DFDF811103C061E08C2FE7DE8C2F90DEDB
:10181000F80181938F01CF5FC83189F710923103AE
:1018200010924A03CF911F910F910895CF93DF93A8
:10183000EC01FB0180818052990B880F880F1C827C
:101840008D8381818052990B880F880F1E828F8330
:101850008581248135812095309590914E05933274
:1018600060F0938191FF09C09095907E62816695AA
:101870006E736A3120F5623139F1982F96959695FD
:10188000969561E096279170B92FB295BB0FB07E07
:10189000A0E0367D2A2B3B2B829586958770862784
:1018A0008170582F550F550F550F40E0242B352BC5
:1018B00030930C0220930B02DF91CF9108956E318B
:1018C000E1F690936C02D9CF90937002D6CFFC01D1
:1018D000DB018C91880F880F8058148285831196C4
:1018E0008C911197880F880F8058168287831396E2
:1018F0008C9113978F718E50990B97FD20C0918713
:10190000808720853185C901880F991F820F931F19
:1019100080329105BCF491878087808591854097BE
:10192000880F880F880F1086818714968D919C915F
:101930008095909590930C0280930B0208951186E8
:101940001086DFCF8FE190E0E6CFFC01DB018C91C8
:101950008058990B1482858312968C911297805827
:10196000990B1682878311968C9111978058990B49
:101970001086818713968C9113978058990B128645
:10198000838714968C911497828315968C91159762
:10199000838316968D919C918095909590930C02DF
:1019A00080930B020895FC01DB018C918F738052B0
:1019B000990B9583848311968C9111978F73805224
:1019C000990B978386838C9190E023E0959587957A
:1019D0002A95E1F78871992711962C91119730E09B
:1019E00045E0359527954A95E1F726703327822BF8
:1019F000932B12962C911297221F2227221F822BA3
:101A000040979187808712968C9112978F718051A1
:101A1000990B9387828712968C911297869586955B
:101A2000887113969C911397929596959770892B30
:101A3000828313968C9113978F71838314968D9163
:101A40009C918095909590930C0280930B02089541
:101A5000DC01FB0190818181829586958670292F1A
:101A60002695269526952871822B2281221F2227D2
:101A7000221F822B990F990F905814961C9214973D
:101A800015969C9315979181990F990F90581696DA
:101A90001C92169717969C9317972481938120FF89
:101AA0003BC0292F30E0209530952F713327205EE1
:101AB0003F4F19963C932E931897082E000C990BC4
:101AC000228120FF2FC02FE330E0281B390B1B960B
:101AD0003C932E931A97828186958695887193817F
:101AE000929596959770892B12968C931297828176
:101AF00090E0959587958F7013968C93848195814E
:101B0000982789279827809590958D7C9376909338
:101B10000C0280930B0208959F7120E230E0291B94
:101B20003109C7CF20E230E0D0CFCF93DF93FC0163
:101B3000EB018A8190E0982F882788279F70688121
:101B4000862B958384838A8120E1829FC0011124A2
:101B500088279F706981862B978386838B818383F7
:101B60008D8181FB992790F9392F3295330F330FEF
:101B7000307C20E0982F9695969561E0962791709D
:101B8000B92FB295BB0FB07EA0E02A2B3B2B817002
:101B9000582F5295507F40E0242B352B30930C0268
:101BA00020930B02DF91CF910895FC01DB018D9111
:101BB0009C9111979583848312968D919C91139794
:101BC0009783868314968C9183830895FB01848187
:101BD00095819827892798278095909590930C0256
:101BE00080930B02089580E0E8DD81EE74DC81E0F3
:101BF000E4CD80E0E2DD82EE6EDC81E0DECD80E0EF
:101C0000DCDD80E568DC83E766DC81E0D6CDCF9360
:101C100080E0D3DD8FEF5FDCC82F81E0CEDD8C2F3D
:101C2000CF9108950F931F93CF93DF93EC018C0115
:101C3000060F111DC017D10729F4DF91CF911F9115
:101C40000F910895899147DCF5CFCF93DF93D82F7B
:101C5000C62F80E0B2DD8D2F80623DDC8C2F3BDC17
:101C600081E0DF91CF91A9CDCF93DF9300D000D059
:101C7000CDB7DEB7DB019C010E94D32F69837A8345
:101C80008B839C83AB01BC015F776627772781E05C
:101C900090E0A0E0B0E0411550446105710519F4F1
:101CA00080E090E0DC012EE0880F991FAA1FBB1F87
:101CB0002A95D1F729813A814B815C81820F931F4C
:101CC000A41FB51F3FE0B595A795979587953A95C1
:101CD000D1F70F900F900F900F90DF91CF91089553
:101CE000F89488E198E00FB6F894A8958093600086
:101CF0000FBE90936000FFCFFF920F931F93CF937F
:101D0000DF93082FF92E60E487E09FDF80E055DD48
:101D100080E6E1DB80E0DFDB182F81E04EDD80E054
:101D20004CDD81E6D8DBC02FDF2D8C2F801B811787
:101D300050F081E042DD812F90E0DF91CF911F9143
:101D40000F91FF9008958991C6DBFE013197808342
:101D5000ECCFFF920F931F93CF93DF93D82FC92F10
:101D6000F62E072F142F1092C00251DF282F30E0DB
:101D70003595279527703327232BE1F48F2D902F4E
:101D8000BBDF60E487E061DF01E060E387E05DDF07
:101D900080E013DD80EA9FDB612F8D2F9C2F42DFD7
:101DA00081E00BDD802F90E0DF91CF911F910F91AB
:101DB000FF90089500E0E9CF1F93CF93DF93182F92
:101DC000EB0180E0FADC812F86DB888184DB88836D
:101DD00081E0DF91CF911F91F0CCCF93DF930F92F1
:101DE000CDB7DEB7BE016F5F7F4FE6DF89810F9011
:101DF000DF91CF9108951F93CF93DF93182FD62FA4
:101E0000C72F80E0DADC812F806265DB64E08D2FF4
:101E10009C2F08DF81E0DF91CF911F91CECC85ED23
:101E20008093BC008FEF9FE72091BC0024FD03C08E
:101E300010927E0302C00197B9F70895CF93DF9304
:101E4000DC01FA0184E1EB0188831C9211968C93EA
:101E5000119712968CE001900D928A95E1F7DF912F
:101E6000CF910895CF93282FCB01C42F4FEF5FE779
:101E7000C13228F080E045C041505109D9F330917A
:101E80007E033111F9CF31E030937E0330937D032F
:101E90004FEF40934402109266024C0F409365024C
:101EA0003093670230916702220F232B2093670241
:101EB00020917C03222381F110927C032091670200
:101EC0002093BB002FEF3FE74091BC0043FD1BC0B8
:101ED00025EC2093BC002FEF3FE740917E0341307B
:101EE000E9F0209166022C1710F4C09166024C2F85
:101EF00050E065E472E00E941B3081E0CC2309F4DD
:101F0000B9CFCF9108952150310909F4B3CF409151
:101F100067024093BB00D8CF25EEDBCF21503109BB
:101F2000E1F6A8CFCF93C82F8FEF9FE7413220F083
:101F300080E03FC00197E1F320917E032111FACFA9
:101F400082E080937E0381E080937D038FEF809316
:101F50004402109266024093650250E085E492E0EC
:101F60000E941B301092670280916702CC0FC82B31
:101F7000C093670280917C03882329F110927C032F
:101F8000809167028093BB008FEF9FE72091BC0098
:101F900023FD11C085EC8093BC008FEF9FE720915B
:101FA0007E03223091F09091440281E09F3F09F03E
:101FB000BFCFCF910895019709F4BACF209167025E
:101FC0002093BB00E3CF85EEE6CF019741F7B0CF7A
:101FD000EF92FF920F931F93CF93DF930F92CDB7A2
:101FE000DEB7182F6983E42EF22E032F41E0BE01E5
:101FF0006F5F7F4F97DF882371F04E2D6F2D702F0D
:10200000812F30DF81700F90DF91CF911F910F9161
:10201000FF90EF90089580E0F5CFEF92FF920F933D
:102020001F93CF93DF93CDB7DEB72A970FB6F894FF
:10203000DEBF0FBECDBFF82E4B835C836D837E83E6
:102040000F83188729873A878093C00260E080E079
:10205000C4DA60E08AE0C1DA00E020E040E060E05D
:1020600072E18AE790E0F4DA80E0A4DB81E0A5DBAE
:102070008FE097E20197F1F700C0000061EF84E084
:10208000E4DD62E083E0E1DD8E010F5F1F4FB80108
:1020900086E092DE6981697F86E0D7DD8DE19DDE95
:1020A000E82EADDD8DE199DE882331F0E81201C024
:1020B000A6DD60E08DE1C9DDBE016E5F7F4F86E089
:1020C0007BDE6A81677D636086E0BFDDB80186E004
:1020D00073DEB80180E070DE69816C6080E0B5DDA0
:1020E0006CE485E0B2DD8DE178DE682F64608DE11F
:1020F000ACDD8CE172DE682F6F638CE1A6DD8DE1D3
:102100006CDE682F66608DE1A0DD8CE166DE682FF5
:1021100063608CE19ADD6FE381E097DD60E787E043
:1021200094DD67DD60DDFF2009F437C01982B80156
:1021300080E042DE19811C7880E03CDB612F626028
:1021400080E083DD81E036DBBE016D5F7F4F8AE09A
:1021500052DEBE016D5F7F4F80E14DDE80E02ADB05
:10216000BE01695F7F4F8BE046DE63E082E06DDD9C
:1021700081E020DB80916900806880936900EB9AA0
:102180002A960FB6F894DEBF0FBECDBFDF91CF9178
:102190001F910F91FF90EF90089560E787E055DD64
:1021A0001982B80180E008DE19811C7880E002DB2A
:1021B000612F6360C5CFCF92DF92EF92FF920F93B2
:1021C0001F93CF93DF938C01EB016C017B01E40E35
:1021D000F11CCE15DF0549F4DF91CF911F910F91CE
:1021E000FF90EF90DF90CF9008958AE501151105DB
:1021F00011F0F60180816FD98993F8E2FA95F1F731
:102200008FEFC81AD80AE5CF0F931F93CF93DF93B0
:102210008C01D62FE0917103F0917203908180912F
:10222000700380958923808360E08FE05BD960E054
:1022300080E158D988E28A95F1F743E06FE072E0D7
:10224000C801B9DF809110028F3FA9F4D0E0C0E04F
:1022500069D9E0917103F0917203808190917003CC
:10226000892B808388E28A95F1F7CE01DF91CF91A7
:102270001F910F910895909111029A3511F09111CB
:10228000E5CF8F70C82FCC0FD33039F04DEF4D0F05
:1022900062E172E0C80103968EDFCD5F4C2F4D1BCB
:1022A000CD1761F06D2F70E0CB01840F911D8197E8
:1022B0006CF6615F7D4F90E080E07DDFCFE0D2E0A3
:1022C000C7CFFF920F931F93CF93DF930F92CDB79A
:1022D000DEB78983F62E8A0141E0BE016F5F7F4F32
:1022E00082E520DE882351F087E691E00197F1F73F
:1022F00000C000004F2DB80182E5B4DD0F90DF91E2
:10230000CF911F910F91FF900895CF93DF9300D04D
:1023100000D000D0CDB7DEB7AE014F5F5F4F66E0B3
:102320008AEFCFDFFE013196AE01495F5F4F8FEF3D
:1023300090E02191922B82234E175F07D1F79923CA
:1023400069F08F3F59F099818E8126960FB6F894E7
:10235000DEBF0FBECDBFDF91CF9108958FEF9FEF0E
:10236000F4CFCF92DF92EF92FF920F931F93CF9310
:10237000DF9300D000D000D0CDB7DEB78D839E8331
:10238000062F83D86B017C0110E0602F8D819E8128
:102390003BDFFC01892B51F01F5F8D819E81845DA5
:1023A0009140D9F48181807F803F01F18FE19EE4EB
:1023B0000197F1F700C0000068D869837A838B83A6
:1023C0009C83DC01CB018C199D09AE09BF098B3FB1
:1023D0009105A105B105C8F209C08D819E81885D76
:1023E000914099F48181807F803F01F326960FB65A
:1023F000F894DEBF0FBECDBFDF91CF911F910F913B
:10240000FF90EF90DF90CF900895133078F7CECF04
:10241000CF93DF93EC0163E08CED91E0F5DEFC01FE
:1024200080E0309751F08181982F907F903F41F468
:1024300064E088ED91E095DF81E0DF91CF91089530
:10244000238134812095309530930E0220930D0224
:10245000903509F053C088E0809302018181823178
:1024600079F489E08093020185818058990B1C8260
:102470008D8346818FE790E0841B91091E828F83B4
:102480008181807D8035C1F685818058990B1886C1
:10249000898746818FE790E0BC01641B71091A8629
:1024A0006B8747814058550B1C824D834085841BA8
:1024B00091091E828F8380914905882399F084E0D9
:1024C000809302011D821C821F821E82808580589B
:1024D000990B898790E080E030FF02C08FEF9FE783
:1024E0009B878A878181893709F05CC083898A83C9
:1024F00084898B8382E0809302019ECF8332A9F589
:1025000085E08093020185818058990B1C828D8320
:1025100041E08681813808F440E080E0942F929574
:10252000990F990F907C488159815F7B482B592BDB
:102530005983488361E08781813808F460E080E056
:10254000962F9795992797955F77842B952B99834D
:10255000888361E04085413F08F460E040E0562F09
:102560009E7F482B592B598348838181807F803EF1
:1025700009F074CF86E080930201858190E09D830D
:102580008C839681858197FD09C0803808F08FE79C
:1025900090E080589F4F9D838C8360CF8138C0F737
:1025A00081E8F6CF807F803509F446CF81E08093C3
:1025B000020143CF1F93CF93DF93D82FC92F809170
:1025C00002018A3009F515E08D2F9C2F21DF8FEC59
:1025D00097E00197F1F700C000001150A9F78D2F87
:1025E0009C2F16DF8823C1F064E084ED91E0B9DE12
:1025F00065E08FEC91E0B5DE69E086EC91E0B1DE5C
:1026000064E088ED91E0ADDE8D2F9C2F01DF81111C
:1026100003C08AE080930201DF91CF911F9108955A
:10262000CF93DF93CDB7DEB7C351D1400FB6F89447
:10263000DEBF0FBECDBF43E151E06BE771E0CE01DD
:1026400001960E94FE2F43E151E061E070E0CE016F
:1026500001960E943B30CD5EDE4F0FB6F894DEBF90
:102660000FBECDBFDF91CF910895EF92FF920F93F0
:102670001F93CF93DF9300D0CDB7DEB7082F142F71
:10268000732F8DB79EB79A83898350E0CA01019654
:10269000EDB7FEB7E81BF90B0FB6F894FEBF0FBEFF
:1026A000EDBF8DB79EB701967C016183622F0196C5
:1026B0000E941B3041E0410FB701802F33DCE981DC
:1026C000FA810FB6F894FEBF0FBEEDBF0F900F90CA
:1026D000DF91CF911F910F91FF90EF900895EF92AE
:1026E000FF920F931F93CF93DF930F92CDB7DEB777
:1026F00080912701811109C08FEF0F90DF91CF9159
:102700001F910F91FF90EF9008951982A0912101E0
:10271000B0912201E0912301F09124018E010F5F1D
:102720001F4F980141E051966C9180819EDF7801A6
:10273000882311F3A0912101B0912201E09123019E
:10274000F0912401980141E015966C9180818DDF14
:10275000882391F2A0912101B0912201E0912301FF
:10276000F0912401980141E014966C9180817DDF05
:10277000882309F4C1CFE0912101F0912201648105
:10278000E0912301F091240180913E01882309F416
:1027900055C08CE08983980141E0808166DF882301
:1027A00009F4AACF2FE788E391E0215080409040C0
:1027B000E1F700C0000080EC89838091270180FF51
:1027C00002C080EE8983A0912101B0912201E091A5
:1027D0002301F0912401970141E014966C918081CE
:1027E00044DF882309F488CF81E090912D01911175
:1027F00001C080E0880F8983A0912101B09122015E
:10280000E0912301F0912401970141E051966C91F0
:1028100080812BDF882309F46FCF1982A0912101D9
:10282000B0912201E0912301F0912401970141E050
:1028300015966C91808119DF81505FCF84E0898388
:10284000980141E0808111DF882309F455CF809100
:102850002E01811143C08091270180FF3FC080E697
:102860008983A0912101B0912201E0912301F0918F
:102870002401970141E014966C918081F6DE882353
:1028800009F43ACF2FE788E391E02150804090404F
:10289000E1F700C0000081E090912D01911101C08D
:1028A00080E08983A0912101B0912201E091230170
:1028B000F0912401970141E051966C918081D5DE21
:1028C000882309F419CFA0912101B0912201E09150
:1028D0002301F09124012CE231E0A9CF80E4C0CFA4
:1028E000CF93DF930F92CDB7DEB79C018091270184
:1028F000811105C08FEF0F90DF91CF91089581E096
:102900002C3B310588F482E02236310568F483E0FF
:102910002A32310548F484E02431310528F485E079
:102920002A30310508F486E08983909128019817B0
:10293000A9F0A0912101B0912201E0912301F09131
:1029400024019E012F5F3F4F41E012966C918081E0
:102950008CDE882379F289818093280180E0CBCFB7
:10296000EF92FF920F931F93CF93DF9300D0CDB7D9
:10297000DEB7FC018B017A018091270181110AC029
:102980008FEF0F900F90DF91CF911F910F91FF90DC
:10299000EF9008959E2F8F2F9A838983A091230112
:1029A000B09124019B012E0F311D18968D919C91A1
:1029B00019978217930720F3E0912101F0912201EA
:1029C0009E012F5F3F4F42E0638D8C914EDE882346
:1029D000B9F2A0912101B0912201E0912301F0917F
:1029E00024019701402F58966C9180813EDE8150E2
:1029F000C8CFCF93DF930F92CDB7DEB78091270179
:102A0000811105C08FEF0F90DF91CF91089588E17C
:102A10008983809125018330C1F0A0912101B0917B
:102A20002201E0912301F09124019E012F5F3F4F8D
:102A300041E016966C91808118DE882319F3898114
:102A40008695869586958093250180E0DCCFCF938F
:102A5000DF930F92CDB7DEB780912701811105C0BA
:102A60008FEF0F90DF91CF91089519828091260109
:102A70008823C1F0A0912101B0912201E0912301AE
:102A8000F09124019E012F5F3F4F41E017966C911A
:102A90008081EBDD882321F3898186958695869553
:102AA0008093260180E0DDCF0F931F93CF93DF93B8
:102AB0000F92CDB7DEB780912E01882309F45AC05A
:102AC000A0912101B0912201E0912301F091240114
:102AD0008E010F5F1F4F980141E014966C91808129
:102AE00077DA811107C08FEF0F90DF91CF911F919F
:102AF0000F91089589819091270190FF3DC08062D8
:102B00008983A0912101B0912201E0912301F091EC
:102B10002401980141E014966C918081A6DD882300
:102B200011F38FE697E10197F1F700C0000081E013
:102B300090913C01911101C080E08795882787958D
:102B4000898390913D01992311F080638983A0913D
:102B50002101B0912201E0912301F091240198011B
:102B600041E057966C91808180DD882309F4BBCFCA
:102B700010922E0180E0B8CF8F7DC2CFCF93DF932C
:102B80000F92CDB7DEB769839E012F5F3F4F41E0C3
:102B9000682F82E56ADD0F90DF91CF910895EF9263
:102BA000FF920F931F93CF93DF93CDB7DEB7689754
:102BB0000FB6F894DEBF0FBECDBF7C01809103013C
:102BC000909104018F3F980709F091C09EDB9C0112
:102BD00090930401809303012F3F3F4FB9F465E5C3
:102BE00080EFCCDF8AE18A95F1F700C060E08BEFDF
:102BF000C5DF9AE19A95F1F700C087DB9093040155
:102C0000809303012AE12A95F1F700C08091030126
:102C10009091040183319F4F71F461E08BEFAEDF3F
:102C20008AE18A95F1F700C065E580EFA7DF9AE1B8
:102C30009A95F1F700C080910301909104019E7F65
:102C4000019799F563E08EEF99DF2AE12A95F1F774
:102C500000C0AE01475F5F4F68E080E032DB8FE885
:102C600091E00197F1F700C00000AE014F5F5F4FA8
:102C700068E080E026DB48E050E0BE016F5F7F4FF8
:102C8000CE0109960E940E30892B09F05DC08F8518
:102C90009889892B09F05FC023ED3CE086E03093F2
:102CA0000A02209309028093000180910301909110
:102CB0000401813021E0920709F474C008F055C086
:102CC0008330910509F468C008F049C0009709F401
:102CD00076C0019709F466C08BE098E190930401F7
:102CE0008093030110920A02109209025BC08B309C
:102CF000984109F46BCF8E010F5E1F4FA8016091C0
:102D0000000180E0DEDAB801882389F0F8018091C3
:102D10000001A801480F511D8FEF90E04E175F078B
:102D200079F4992309F452CF8F3F09F44FCFE09102
:102D30000902F0910A023097A9F1C701099532C042
:102D40002191922B8223EACF8FE891E00197F1F74E
:102D500000C000007ECF25EA3CE088E0A0CF41978C
:102D600009F0BACF86EE9DE019C082312FEF9207AD
:102D700061F158F4833021E0920721F183309340D0
:102D800009F0AACF88E29DE009C083319F4F09F086
:102D9000A3CF85ED9DE002C087E69CE090930A02F8
:102DA0008093090268960FB6F894DEBF0FBECDBFC0
:102DB000DF91CF911F910F91FF90EF9008958AEED0
:102DC00093E2ECCF86E19CE0E9CF85E99DE0E6CF98
:102DD0001F93CF93DF930F92CDB7DEB7182F80915B
:102DE0003D01811721F180E0111180E389839091E9
:102DF0002E01992311F08260898380913C01882300
:102E000019F0898180688983A0912101B091220104
:102E1000E0912301F09124019E012F5F3F4F41E09B
:102E200057966C91808121DC811110933D010F90A8
:102E3000DF91CF911F910895EF92FF921F93CF934F
:102E4000DF930F92CDB7DEB7182F807729F581E099
:102E5000111180E08295880F880F807C8983A09172
:102E60002101B0912201E0912301F0912401CE01D2
:102E700001967C019C0141E055966C918081F5DBC7
:102E8000970181110BC0109227010F90DF91CF9114
:102E90001F91FF90EF90089581E0E0CF89818F7BB3
:102EA0008093290116FF32C0198215FD03C0898164
:102EB0008260898314FD03C089818160898313FD49
:102EC00003C0898188638983A0912101B091220187
:102ED000E0912301F091240141E056966C918081AC
:102EE000C4DB882381F2812F877F11F080E070DFBF
:102EF00010932701109230019FE728E381E0915061
:102F000020408040E1F700C00000BFCF84E089830B
:102F1000CCCFCF93DF930F92CDB7DEB790913E0128
:102F20009923F9F091E0811101C090E0990F998304
:102F3000A0912101B0912201E0912301F09124019F
:102F40009E012F5F3F4F41E051966C9180818DDB58
:102F5000882319F0898180932D010F90DF91CF9103
:102F60000895909127019923C1F3882321F090912E
:102F70002D019111F2CF8983DBCF1F93CF93DF9384
:102F8000D82F80913E01C0E081111FC080912701A0
:102F90008823B9F010912C018D2380932C01C1E07E
:102FA0008D1301C0C0E0C195809130018D2B59F087
:102FB00081E0AFDFDD2349F092DB882331F010930D
:102FC0002C01CFEF02C080E0A4DF8C2FDF91CF91E6
:102FD0001F9108951F93CF93DF9300D0CDB7DEB735
:102FE000182F81111EC080E0F3DE198287E08A83EA
:102FF000A0912101B0912201E0912301F0912401DF
:103000009E012F5F3F4F42E055966C9180812DDBF2
:103010008111109230010F900F90DF91CF911F918D
:10302000089581E0D5DE80E28983113041F51A826E
:1030300085E090E055DC8A8120E4829FC001112464
:1030400087608A83A0912101B0912201E091230140
:10305000F09124019E012F5F3F4F42E055966C9105
:10306000808103DB8823B9F288E0809327011092E6
:10307000290181E08093300180E07FDFCCCF1630E2
:1030800018F481E08A83D4CF153128F482E08A8352
:103090008AE090E0CFCF83E08A8384E190E0CACFDA
:1030A0000F931F93CF93DF930F92CDB7DEB78C01B1
:1030B00080912701811107C08FEF0F90DF91CF9191
:1030C0001F910F91089580913E018111F5CF80915C
:1030D0003001882351F0C8010197889720F4802F90
:1030E00079DF80E0EACF80E075DFB801093E134068
:1030F00010F068EE73E06430710510F464E070E085
:1031000008EE13E0C8010E94672F61506983A09107
:103110002101B0912201E0912301F09124019E014F
:103120002F5F3F4F41E011966C9180819EDA88239A
:1031300009F4C2CF698170E06F5F7F4FC8010E94C0
:103140007B2F70932B0160932A01CB019695879575
:10315000C7DBC7CF7F928F929F92AF92BF92CF92E1
:10316000DF92EF92FF920F931F93CF93DF93CDB730
:10317000DEB7CA53D2400FB6F894DEBF0FBECDBF44
:1031800043E151E061E070E0CE0101960E942B30F6
:103190008D859E85AF85B8890897A105B10540F456
:1031A00043E151E060E070E0CE0101960E942B30D7
:1031B00089859A85AB85BC858531944DA24AB10538
:1031C000B1F043E151E06BE771E0CE0101960E945E
:1031D000FE2F1D861E861F86188A42E450E06FE18E
:1031E00072E0CE018B559F4F0E94FE2F08C08D8547
:1031F0009E85AF85B8890297A105B10570F38A81D4
:10320000873009F040C08FE08A838D859E85AF8529
:10321000B8890497A105B10548F448E550E067EC8A
:1032200071E0CE01835B9F4F0E94FE2F8D859E85AE
:10323000AF85B88986309105A105B10548F51C8296
:10324000C951DF4F1882C75ED040EA81F0E0E257F3
:10325000FD4FE491E23021F48AA591E089278AA705
:1032600043E050E06BE872E0CE018F5E9E4F0E941B
:10327000FE2F44E250E067E672E0CE0183519F4F9B
:103280000E94FE2F13C0883009F0BFCF8DE0BCCF65
:1032900086309105A105B10599F289309105A10506
:1032A000B10598F20D97A105B105D0F28D859E85E7
:1032B000AF85B8898E309105A105B10520F588A9A3
:1032C000843028F48230E8F081E088AB04C0845078
:1032D000823008F418AACD5EDE4F1882C351D14067
:1032E0008FE090E0A0E0B0E08D879E87AF87B88B3D
:1032F00043E151E061E070E0CE0101960E943B3075
:1033000006C082E0E2CF0E97A105B10521F383E16B
:1033100091E0FE013196DE01AC5EBE4F01900D9250
:103320000197E1F7C650DE4F1882CA5FD140CB5EED
:10333000DE4F8881C551D14080934E0580934D0565
:10334000C95EDE4F9881C751D14090934C05CC5E49
:10335000DE4F9881C451D14090934B05E82FF0E0A7
:10336000E257FD4F949121E0913009F020E0209345
:103370004A05E49121E0E23009F020E0209349057C
:10338000E23009F0D8C0843140F487E080934D05E5
:10339000913019F488E080934D0585B5826085BD34
:1033A00085B5816085BD80916E00816080936E00DF
:1033B000C650DE4F8881CA5FD140882309F4C2C05D
:1033C0000E94A60B8B019C01C550DE4F488159819C
:1033D0006A817B81CB5FD14080E00E940D1081E04B
:1033E0008093480580914E0596EE980F9830C0F472
:1033F000803258F046E050E06AEE71E082E591E0FC
:103400000E94FE2F86E08093EC0480914E058A3165
:1034100009F04AC58DE0809345018CE08093460118
:1034200081E0C85EDE4F9881C851D140923009F4E6
:1034300080E08093450588E5FE01E05AFE4FADEE41
:10344000B4E001900D928A95E1F78091D8008F7ECB
:103450008093D8008091D70081608093D70084E06A
:1034600082BF81E0809347058091D8008E7F809352
:10347000D8001092E2001092DA001092E1008091E0
:10348000D8008F778093D8008091D800806880938F
:10349000D8008091D8008F7D8093D80019BC1BBCC8
:1034A000109246058091E0008B7F8093E000809130
:1034B000D80081608093D8001092E9008091EB00E1
:1034C00081608093EB001092ED001092EC0082E39B
:1034D0008093ED008091EE008091E1008E7F8093DB
:1034E000E1008091E20081608093E2008091E2003F
:1034F00088608093E2008091E0008E7F8093E000FE
:103500008091D80080618093D8007894C65CDD4FAC
:103510000FB6F894DEBF0FBECDBFDF91CF911F91E4
:103520000F91FF90EF90DF90CF90BF90AF909F9062
:103530008F907F900895913009F02FCF843108F05B
:103540002CCF28CFC75EDE4F8881C951D1408093F0
:10355000EB04C65EDE4F8881CA51D1408093EA04F5
:1035600080914905882309F4CFC3CA5DDD4F888166
:10357000C652D24081708093E9040E94970BCC5EC2
:10358000DE4F8881C451D140823009F4BFC38330FB
:1035900009F4BFC3813099F4C55EDE4F8881CB51F9
:1035A000D14080936F038FEC95E19093E804809372
:1035B000E7048DE599E09093E6048093E504CC5E02
:1035C000DE4F8881C451D140833009F0F2C3CA5E16
:1035D000DE4F8881C651D1408130C9F410927E03FC
:1035E00081E080937D0310927C03589A599A8091D0
:1035F000B9008E7F8093B9008091B9008D7F809350
:10360000B9008AE08093B80085E48093BC00CA5E6C
:10361000DE4F9881C651D14081E0913041F0CC5EBF
:10362000DE4F2881C451D140213009F080E0817003
:103630008093CA049093C90484E2FE01FE5FA5EA68
:10364000B4E001900D928A95E1F71092A4041092D3
:10365000A3040E94E50A1092E2031092E103109283
:10366000800310927F03FE01EC5EFE4F7F016F012D
:10367000B12C75E0972E8E010C5F1F4FD801E92DFC
:103680001D92EA95E9F7B982D60190968C90A090A8
:103690004905BFEF8B1699F1E5E0BE1209C0AA20DB
:1036A00039F0CA5EDE4F8881C651D140833039F58A
:1036B000D60191967C9061E0882D0E94ED0A7B8274
:1036C000EEEEE80DF0E0E954FD4FE491EA83A091BD
:1036D000E103B091E203CD0101969093E203809360
:1036E000E10363E0AA0FBB1F6A95E1F7AF57BC4F38
:1036F00088E0FE01319601900D928A95E1F7B3942E
:10370000B2E0CB0ED11CE6E0BE12B8CFC150DE4F06
:103710008881CF5FD1408F3F19F060E00E94ED0AB1
:1037200010E000E05CE0852ECC5EDE4F8881C45165
:10373000D140823009F067C3D7015096BC90BFEFEB
:10374000BB1609F4A3C081E00C30110538F49801D0
:10375000285031092230310508F080E0382F3170CF
:1037600080FF08C021E0C85EDE4F8881C851D1408B
:10377000813009F020E0C65CDD4F0883CA53D24097
:103780008B2D90E0FC01E250FD4F4491FC01E15291
:10379000FD4F7490E42FF0E0EE0FFF1FED53FD4F4F
:1037A000C590D490E22FE170C75CDD4FE883C95328
:1037B000D240CC5DDD4F9880C452D24080914A0502
:1037C000882309F40FC3332309F40CC3F1E1FB157B
:1037D00008F008C3CE5BDE4F8881C254D14028E098
:1037E000829FC00111241B821C821D82B98221E0AC
:1037F00028879F838E8361E08B2D0E94ED0AEEEE79
:10380000EB0DF0E0E954FD4FE491A091E103B0919C
:10381000E2032A2FEA83CD0101969093E20380937D
:10382000E10333E0AA0FBB1F3A95E1F7AF57BC4F56
:1038300088E0FE01319601900D928A95E1F7409162
:10384000A3045091A404CA0101969093A404809308
:10385000A304849EF001859EF00D1124ED51FC4FD0
:103860007082D282C182C75CDD4F8881C953D24049
:103870008383B482C65CDD4F9881CA53D24095835E
:103880001682178210861186928623870F5F1F4F3C
:103890008FEFE81AF80A0031110509F045CFAA2088
:1038A00009F41EC2CA5EDE4F1881C651D1401130E4
:1038B00009F0EAC2CD5BDE4F8881C354D1408093CA
:1038C000E004789480E88983A0912101B0912201DD
:1038D000E0912301F09124019E012F5F3F4F41E0D1
:1038E00055966C9180810E943513882309F464C039
:1038F0009FEFA4E3BCE09150A040B040E1F700C0CE
:1039000000001982A0912101B0912201E0912301D0
:10391000F09124019E012F5F3F4F41E055966C913D
:1039200080810E943513882309F446C010922F012C
:103930008FEF809327018093250180932601809348
:1039400028012FEF3FEF30932B0120932A01809322
:103950002C0180932E011093290110933C011092A9
:103960003D011092310110923001E2E3F1E08AE072
:10397000DF011D928A95E9F710923E0110923F01F6
:10398000109241011092400134D8811115C05FD8C6
:10399000811112C08AE290E00E94701481110CC063
:1039A00082E390E07DDB811107C0E7DA811104C07A
:1039B0007BD8811101C040DA88E73EDA1AD847D8AF
:1039C00088E7DBDA80913F01811199C0F12CE12C6D
:1039D00086EFC82E8BE0D82E86010E191F09013103
:1039E000110510F000E110E0F701E35EFC4FDE018D
:1039F0001196CD01800F911FA817B90709F040C299
:103A0000AE014F5F5F4FB801C7010E94B014811132
:103A100076C080912701882309F471C09E2D8F2DD7
:103A2000C95CDD4F99838883C753D240E09123015D
:103A3000F091240120853185C8018E0D911D281734
:103A4000390708F45CC0A0912101B09122019E01C8
:103A5000295C3D4F42E05B966C9180810E9435135A
:103A6000882309F44CC0A0912101B0912201E0917A
:103A70002301F09124019E01295D3D4F402F58966E
:103A80006C9180810E94E80F8823C9F1A801BE01D2
:103A9000695D7D4FCE0101960E940E30892B79F52C
:103AA000E00EF11EB6EFEB16BBE0FB0608F494CF78
:103AB00084E0C95CDD4F8883C753D240C85CDD4FCA
:103AC0001882C853D240A0912101B0912201E09107
:103AD0002301F09124019E01295C3D4F42E05D9657
:103AE0006C9180810E943513882349F081E0809396
:103AF0003F0188EC90E090934101809340018CE07D
:103B0000E0EFF1E0DE01119601900D928A95E1F768
:103B1000C95DDD4F1882C752D24085E0C85DDD4FD8
:103B20008883C852D240AE01495D5D4F62E070E0CB
:103B300086E192E00E94B014811111C0AE014F5F86
:103B40005F4F6CE070E081EC9AE00E94B01481114C
:103B500006C08EE190E09093D4048093D3048091CA
:103B60003E01813011F180913F018823F1F080E026
:103B7000D0D90E945415809140019091410190DA72
:103B80001982E0912301F09124019E012F5F3F4FA4
:103B900041E063E280810E943513882331F081E0A7
:103BA00080933E01B6D90E946F1382E089838AEC2C
:103BB0008A8383EE8B8319E01C83AE014F5F5F4FD6
:103BC00064E070E088E690E00E94B01483EA8983A4
:103BD0008A838B838C838D838E838F838887898769
:103BE0008A87AE014F5F5F4F6AE070E087EA9AE034
:103BF0000E94B01488ED8983AE014F5F5F4F61E092
:103C000070E086EB9AE00E94B014EDEFF1E0DE0187
:103C1000A95DBD4F01900D921A95E1F7AE01495D86
:103C20005D4F69E070E088EB94E00E94B01444E0DE
:103C300050E06BE870E0CE01895D9D4F0E9424301A
:103C4000AE01495D5D4F64E070E088E99AE00E9452
:103C5000B0140E946F1380E2C95DDD4F8883C752A4
:103C6000D24088E2C85DDD4F8883C852D24080E3ED
:103C7000C75DDD4F8883C952D24088E3C65DDD4F02
:103C80008883CA52D240AE01495D5D4F64E070E066
:103C90008EE99AE00E94B0140E946F1388E190E0D0
:103CA0009093D2048093D1040E946F1380E180939B
:103CB000D5048DE690E29093DF048093DE0486E0E5
:103CC000FE01E25EFD4FA7EDB4E001900D928A95F2
:103CD000E1F7C15CDE4F8881CF53D1408093D60499
:103CE000CF5BDE4F8881C154D1401092E3048093B2
:103CF000E404C05CDE4F8881C054D14090E09093D2
:103D0000E2048093E1046ECB80E034CC80E999E05A
:103D100052CC01E021E041E060EA76E881E090E009
:103D20000E94280BE8E0F3E08491E9EEF2E01491C0
:103D3000E82FF0E0EE0FFF1FEF52FD4FE590F490FB
:103D4000CC5DDD4F8881C452D24010937003F09255
:103D50007203E0927103109273039AE090937403DC
:103D600010927503109276031092770310927803E5
:103D70001092790380937A038FEF80937B0360E046
:103D80008AE00E94ED0A0E94920AD7018C91182BBA
:103D90001C93B8E2BA95F1F78BED99E09093E604A5
:103DA0008093E5048AED92E19093E8048093E70420
:103DB00006CCC85EDE4F8881C851D140823049F4BC
:103DC00000E021E041E060E079E08DE390E00E94D6
:103DD000280BCC5EDE4F8881C451D140813009F080
:103DE000F6CBFCCB62E0621B8B2D0E94ED0AAA2071
:103DF00041F00230110528F4CB5DDD4F9880C552AB
:103E0000D2402FEF1CCD702FEEEFF2E08491EFED5A
:103E1000F2E06491E82FF0E0EE0FFF1FED53FD4F4D
:103E200085919491CC5DDD4FA881C452D240AA20E7
:103E300041F00230110528F4CB5DDD4FA881C55259
:103E4000D2404091A3045091A4049A012F5F3F4FA8
:103E50003093A4042093A304849EF001859EF00D6A
:103E60001124ED51FC4F608392838183138214826D
:103E700075831682178210861186A2872FEF05CDD3
:103E800024912D933196B8CD123009F018CFC25C31
:103E9000DE4F8881CE53D1408093DD0462E00E94E2
:103EA000ED0A80EB9AE007CF982F9D7F4EE050E01F
:103EB0006FE27FE09C3179F04EE050E061E27FE01C
:103EC0008B3149F08D3119F0803209F0A9CA4EE0EA
:103ED00050E063E17FE084E491E00E94FE2FA0CAFD
:103EE000CF93DF9300D000D0CDB7DEB720E030E035
:103EF00040E057E469837A838B839C8369817A816C
:103F00008B819C810E94CD2E69837A838B839C83D5
:103F100069817A818B819C810E946A2ECB010F90EE
:103F20000F900F900F90DF91CF9108958F929F92F5
:103F3000AF92BF92CF92DF92EF92FF920F931F93B7
:103F4000CF93DF93CDB7DEB728970FB6F894DEBFD7
:103F50000FBECDBF8C016F8378872F8138852817DE
:103F6000390771F480E090E2121613060CF471C068
:103F700090E080E0232B09F46CC080E090EA69C0F7
:103F8000990F880B982F80959095980128273927AD
:103F9000A901481B590B5E834D838F819885990F2A
:103FA000880B982F809590952F8138852827392761
:103FB000B901681B790B7A83698364EE77EF81EB33
:103FC0009DE38EDFD82EC92E69EF7DE78CEA9EE354
:103FD00087DF7C018F8198859C01990F440B550BDD
:103FE0004801012E000CAA08BB08A981BA816D8185
:103FF0007E81A617B7070CF03FC0D501C4016FE062
:10400000880F991FAA1FBB1F6A95D1F789839A83CE
:10401000AB83BC83BC01CD010E94B02F4901C90113
:10402000990F880B982F80959095BC016227792570
:10403000681B790B8D2D9C2D0E94340EB4018E0DC2
:104040009F1D0E94340EAF81B8851A161B060CF016
:10405000905828960FB6F894DEBF0FBECDBFDF9103
:10406000CF911F910F91FF90EF90DF90CF90BF9075
:10407000AF909F908F900895CA01B9012FE0660F0D
:10408000771F881F991F2A95D1F769837A838B83BD
:104090009C83A50194010E94B02F4901C901990F89
:1040A000880B982F80959095BC0168257925681B11
:1040B000790B8D2D9C2D0E94340EB4018E0D9F1D09
:1040C0000E94340E9C0180E090E41016110614F05A
:1040D00080E090EC821B930BBCCF8F929F92AF92AB
:1040E000BF92CF92DF92EF92FF920F931F93CF93E5
:1040F000DF93CDB7DEB7EA970FB6F894DEBF0FBEF9
:10410000CDBF89AF9AAF1092330210923202D09095
:10411000D504ED2CF12C80913E01882311F1809182
:1041200027018823F1F0A0912101B0912201E091B3
:104130002301F09124019E012F5D3F4F42E01C9628
:104140006C9180810E94E80F882359F009A11AA17F
:104150001027012710270E151F0508F08FC0109299
:10416000310280913202909133028115914009F021
:10417000B6C2C0903402D0903502E0903602F09082
:10418000370277E1F594E794D794C7947A95D1F7FD
:10419000D0923502C0923402809038029090390259
:1041A000A0903A02B0903B02E7E1B594A7949794AF
:1041B0008794EA95D1F79092370280923602409127
:1041C0003C0250913D0260913E0270913F02F7E146
:1041D0007595679557954795FA95D1F7509339029C
:1041E0004093380200914002109141022091420216
:1041F00030914302A7E13595279517950795AA9524
:10420000D1F710933B0200933A028091E004009FA3
:10421000F001019FF00DF00D1124813009F4A8C1C7
:10422000823009F4B1C2811136C2449FC001459F5A
:10423000900D900D11248E0F9F1F880F991FE0E0A5
:10424000F0E8E81BF90B489DD001499DB00D589D41
:10425000B00D11240C9DC0010D9D900D1C9D900D65
:1042600011249D01281B390BC901BF01880F991F1B
:104270005DDE9093300280932F020DC2A091230146
:10428000B0912401E0912101F09122018C911196CD
:104290002D913C91369527952017310780F49E018A
:1042A0002F5D3F4F41E063890E94E80F882309F4A6
:1042B00058CF89A184FF03C00E946F1352CFA091F1
:1042C0002101B0912201E0912301F09124019E018E
:1042D0002F5F3F4F4D2D1D966C9180810E94E80FFE
:1042E000882309F43ECFC801B7010E94672F6150AF
:1042F00060933102E091D104F091D204CF01847136
:104300009927892B09F432C129813A814B815C813B
:10431000CA01B9010E94CC2F4B015C01809234028A
:1043200090923502A0923602B09237028D819E8122
:10433000AF81B885BC01CD010E94CC2F6B017C01FF
:10434000C0923802D0923902E0923A02F0923B02D7
:1043500029853A854B855C85CA01B9010E94CC2F1D
:104360008B019C0100933C0210933D0220933E027E
:1043700030933F028D859E85AF85B889BC01CD0104
:104380000E94CC2FAB01BC014093400250934102EC
:104390006093420270934302C501BB2797FDB0951D
:1043A000AB2F8BA39CA3ADA3BEA3C701BB2797FDD7
:1043B000B095AB2F8FA398A7A9A7BAA7C901BB2710
:1043C00097FDB095AB2F8BA79CA7ADA7BEA7CB0140
:1043D000BB2797FDB095AB2F8FA798ABA9ABBAAB16
:1043E0002BA13CA14DA15EA1CA01B9010E94582F89
:1043F0006BA37CA38DA39EA32FA138A549A55AA585
:10440000CA01B9010E94582F6FA378A789A79AA75C
:10441000CBA0DCA0EDA0FEA0C60ED71EE81EF91EA4
:104420002BA53CA54DA55EA5CA01B9010E94582F38
:10443000C60ED71EE81EF91E2FA538A949A95AA9EC
:10444000CA01B9010E94582F6BA37CA38DA39EA320
:10445000C60ED71EE81EF91E9FE0F91AA1E0CA1683
:10446000D104E104A2E0FA0638F00E946F13109222
:1044700033021092320275CE809132029091330253
:104480009160909333028093320280E1E6FF39C05D
:10449000282F30E0A1E0B0E0AC0FBD1FA20FB31F8A
:1044A0009C91DE01A20FB31F12964C91592F50938D
:1044B000010040930000DE01A20FB31F13969C91F0
:1044C000DE01A20FB31F14964C91592F5093030095
:1044D00040930200DE01A20FB31F15969C91159721
:1044E00016962C91392F30930500209304008A5F93
:1044F00020913202309133022860309333022093AE
:104500003202E078F170EF2B09F42BCE90E0E1E07D
:10451000F0E0EC0FFD1FE80FF91F3081FE01E80FFE
:10452000F91F22813093010020930000FE01E80F63
:10453000F91F3381FE01E80FF91F24813093030036
:1045400020930200FE01E80FF91F25818681922F3A
:104550009093050080930400809132029091330281
:1045600080679093330280933202FBCD80E08ECF40
:10457000089DC001099D900D189D900D11244C9D22
:1045800090014D9D300D5C9D300D11247C01E21A8F
:10459000F30AB701C7010E94340E8C01BC010E94CE
:1045A000340E5C01BC010E94340E6C0160E670EBBD
:1045B00089E39DE395DCB8010E94340E8BA39CA394
:1045C0006AE27EEE87E39CE38BDC8FA398A76EEF15
:1045D0007AEB87ED9CE384DCB8010E94340E8BA754
:1045E0009CA766EA79EB88EA9CE37ADC8FA798AB14
:1045F00062E377E88AEF9CE373DCB8010E94340E33
:104600008BAB9CAB63E87EEC86E39DE369DC8DAB12
:104610009EAB6AEC79E989E99DE362DCB8010E940E
:10462000340E8FAB98AF6AEA7AEA8AE29EE358DCEE
:104630004C01B5018BA19CA14FA158A5841B950BE2
:104640000E94340E2BA53CA5AFA5B8A92A0F3B1F8D
:10465000B601820F931F0E94340E6C01B5018BA925
:104660009CA9EDA9FEA98E0F9F1F0E94340E8C0DF0
:104670009D1D2FA938AD820E931EB801880D991D7E
:104680000E94340EB7010E94340EE80EF91EF0921B
:104690003002E0922F0280912F02909130028A39ED
:1046A00039E193070CF48FC089E999E190933002C6
:1046B00080932F0220912F023091300245E0429FDB
:1046C000C001439F900D11242091D604222319F09C
:1046D0009195819591099093300280932F022091BA
:1046E0002F023091300230937F0220937E02032EFE
:1046F000000C440B550B8091D9049091DA04092EDB
:10470000000CAA0BBB0B281B390B4A0B5B0BA091AF
:10471000D704B091D8040E94F82F20E034E040E0A4
:1047200050E00E94B02FDA01C9019058A109B109E7
:10473000811550E895075FEFA507B50724F480E0E1
:1047400090E8AFEFBFEF8115E0E89E07A105B10546
:1047500024F08FEF9FE7A0E0B0E0E9ADFAAD9387DA
:104760008287EA960FB6F894DEBF0FBECDBFDF9109
:10477000CF911F910F91FF90EF90DF90CF90BF905E
:10478000AF909F908F900895CC9CC001CD9C900DD0
:10479000900D11248E0F9F1F880F991FE0E0F0E805
:1047A000E81BF90B8C9CD0018D9CB00D9C9CB00D2E
:1047B0001124049FC001059F900D149F900D11249A
:1047C0008A0F9B1F52CD8736964E0CF073CF87E62B
:1047D00096EE6CCF8F929F92AF92BF92CF92DF9264
:1047E000EF92FF920F931F93CF93DF938C01EB0116
:1047F00088818058990BF8011482858389818058BB
:10480000990B1682878380916F03882309F43EC039
:104810002D81822F90E0CB80F4E0CF9E60011124A7
:10482000AC0134E0559547953A95E1F7437055272B
:10483000C42AD52A3FEFC31A31E0D30AEC80E4E062
:10484000EE9E7001112495958795959587958370B7
:104850009927E82AF92AFFEFEF1AF1E0FF0A8A8187
:1048600034E0839FC001112422952695269523705C
:10487000822BB7018F5F914059DBF80191878087C8
:10488000B701C60153DBF801938782878D81982F8A
:1048900090959170B92EB29490EFB922A12C869583
:1048A00091E089278170982E9294990C990C20ECB4
:1048B0009222812CA828B928B0920C02A0920B0257
:1048C000DF91CF911F910F91FF90EF90DF90CF90EC
:1048D000BF90AF909F908F9008951F920F920FB648
:1048E0000F9211240F931F932F933F934F935F9336
:1048F0006F937F938F939F93AF93BF93EF93FF93A8
:1049000083B78E7F83BFE4E6F0E08081807180838F
:10491000E5E6F0E08081867780830E94970BE4E0F3
:10492000FBE70591159125913491E0E0FBE7459176
:1049300055916591749181E00E940D10E9E6F0E0D7
:1049400080818F7D8083EE98FF91EF91BF91AF9131
:104950009F918F917F916F915F914F913F912F9197
:104960001F910F910F900FBE0F901F9018950F92EF
:104970000FB60F921F9211248F938091E10082FF56
:1049800009C08091E20082FF05C08091E1008B7F29
:104990008093E1008091DA0080FF15C08091D800FB
:1049A00080FF11C08091DA008E7F8093DA008091C1
:1049B000D90019BC80FF7FC082E089BD09B400FE28
:1049C000FDCF81E08BBD8091E10080FF16C080911A
:1049D000E20080FF12C08091E2008E7F8093E200AF
:1049E0008091E20080618093E2008091D800806233
:1049F0008093D80019BC85E08BBD8091E10084FFD5
:104A000024C08091E20084FF20C019BC82E089BDEF
:104A100009B400FEFDCF8091D8008F7D8093D8002F
:104A20008091E1008F7E8093E1008091E2008F7E93
:104A30008093E2008091E20081608093E2008091A7
:104A400046058823D1F184E08BBD8091E10083FF8E
:104A50002CC08091E20083FF28C08091E100877F15
:104A60008093E10082E08BBD109246058091E100C9
:104A70008E7F8093E1008091E2008E7F8093E20040
:104A80008091E20080618093E2001092E9008091C1
:104A9000EB0081608093EB001092ED001092EC002F
:104AA00082E38093ED008091EE008F911F900F9034
:104AB0000FBE0F9018951BBC86CF8091E30087FD39
:104AC00002C081E0C1CF83E0BFCF1F921FB61F920B
:104AD00011248F939F93AF93BF938091680290911D
:104AE0006902A0916A02B0916B020196A11DB11DED
:104AF0008093680290936902A0936A02B0936B025C
:104B0000BF91AF919F918F911F901FBE1F901895DD
:104B10001F920F920FB60F9211242F933F934F9332
:104B20005F936F937F938F939F93AF93BF93EF9315
:104B3000FF938091B900887F883309F461C0B8F58C
:104B4000803291F168F5883009F452C0A0F48823CE
:104B500009F472C0FF91EF91BF91AF919F918F9136
:104B60007F916F915F914F913F912F910F900FBE69
:104B70000F901F9018958031D9F1883159F7909195
:104B8000660280916502981750F5E091660281E017
:104B90008E0F80936602F0E0EB5BFD4F80812AC0B0
:104BA000883269F38033B1F68093440207C08035C0
:104BB00079F138F48034C1F1883461F60E940F0F26
:104BC000C9CF883539F6E091660281E08E0F809377
:104BD00066028091BB00F0E0EB5BFD4F808380912B
:104BE0007D038111EBCF81E080937C0384EA0BC0CD
:104BF000809167028093BB0085EC8093BC00AACFB4
:104C00008093440285EC8093BC0010927E03A2CF77
:104C1000E091660281E08E0F809366028091BB0076
:104C2000F0E0EB5BFD4F808390916602809165021E
:104C3000981710F385E8E1CF10924402BFCF8F930D
:104C400081E08093C0028F911895CDB7DEB7C8542C
:104C5000D1090FB6F894DEBF0FBECDBF0E94AA18CF
:104C6000E4E0FBE70591159125913491E0E0FBE745
:104C7000459155916591749181E00E940D100E94BB
:104C8000450A6DAF7EAF8FAF21969FAF21972596D6
:104C90001CAE1DAE1EAE1FAE25970E94450A69AF21
:104CA0007AAF8BAF9CAFDC01CB0121962CAD3DAD33
:104CB0004EAD5FAD2197821B930BA40BB50B813CCE
:104CC0009742A940B105A8F10E94450A6DAF7EAF99
:104CD0008FAF21969FAF219710927A0080E00E94BB
:104CE000DA0B1982BE016F5F7F4F80E00E94DC0EFD
:104CF00069816D7F80E00E94250E809164008F6E37
:104D0000809364008091650089688093650083B713
:104D1000817F846083BFF894809169008062809372
:104D20006900EE9A80E48CBB83B7816083BF78947E
:104D300088950E94450A69AF7AAF8BAF9CAF80918E
:104D40006B0390916C03A0916D03B0916E0349AD1C
:104D50005AAD6BAD7CAD481B590B6A0B7B0B809138
:104D60004C0590E0B0E0A0E084179507A607B707D0
:104D700008F0CBC0E091E704F091E804309719F017
:104D80008FE593E0099580913103882309F421C1CF
:104D900009E113E0F12C8F2D0E94C40AD8012D9156
:104DA0003D918D01821B930B97FF03C091958195D7
:104DB00091090B970CF408C182E18F0D80930501D6
:104DC00010923103912CBCE08B2E292D30E03AAFAC
:104DD00029AF8091A3049091A404281739070CF4FB
:104DE00040C28091EB04882309F440C060916303C2
:104DF000709164038091E3049091E4044427552763
:104E0000481B590B641775074CF420915F033091D0
:104E1000600324603093600320935F038617970735
:104E20004CF420915F03309160032860309360035D
:104E300020935F03609165037091660364177507A3
:104E40004CF420915F033091600322603093600343
:104E500020935F03861797074CF480915F0390912E
:104E6000600381609093600380935F038091EA0404
:104E7000882381F080915F03909160039C012073EF
:104E800033272033310531F48F7C94609093600395
:104E900080935F0380914905882349F0E091DE0407
:104EA000F091DF04309719F08FE593E00995809138
:104EB0004505882309F475C24CE050E063E573E0D2
:104EC0008FE593E00E940E30892B09F0F8C20E9412
:104ED000450A69AF7AAF8BAF9CAF80916B0390911D
:104EE0006C03A0916D03B0916E0329AD3AAD4BAD4B
:104EF0005CAD281B390B4A0B5B0BDA01C901853607
:104F00009105A105B10508F0DAC28BB5882309F433
:104F1000C4CE8091E9001091EC00179511271795E8
:104F20008F70182B1092E9008091E80083FF48C031
:104F30008BE493E0FC0101962091F100208333E0A3
:104F400083359307B9F78091E80083FF16C020915D
:104F5000060180914F03909150032817190669F4B8
:104F600080914C03823209F4E4C408F055C48032C5
:104F700009F49BC4813209F45BC48091E80083FF8B
:104F800011C090914B0380914C03853009F489C581
:104F900008F0E4C4282F2D7F213009F449C5882367
:104FA00009F425C58091E80083FF0AC08091E800DC
:104FB000877F8093E8008091EB0080628093EB0014
:104FC0001F701093E90069CEF394BCE0FB12E3CEAE
:104FD000F9CE80914A038823E9F010E000E0802FA9
:104FE0000E94E00B811110C0802F0E94980AF801E6
:104FF000EE5CFC4F9081891739F00E94F50B00930D
:10500000050110924A03DECE0F5F1F4F08311105D4
:1050100031F7D8CE4091E1035091E203411551059B
:1050200009F45BC08091010181112FC080917A0049
:1050300086FD53C0809178009091790020917F0384
:1050400030918003B901F3E0660F771FFA95E1F71D
:10505000FB01EF57FC4FA781A11104C0E281E111D0
:1050600040C09250E6E0880F991FEA95E1F76F572C
:105070007C4FFB01948383832F5F3F4F421753077D
:10508000B9F13093800320937F0310920101E091E6
:105090007F03F091800393E0EE0FFF1F9A95E1F7F5
:1050A000EF57FC4F88E0DE01119601900D928A9532
:1050B000E1F790917B008A81880F880F80729F7D35
:1050C000892B80937B008A818770806480937C0029
:1050D00080917A00806480937A00B12C16E0912E42
:1050E00025C0E0E0F2E0DF01A81BB90BCD01BACF8B
:1050F0001092800310927F03C8CF83E0EE0FFF1F52
:105100008A95E1F7EF57FC4F88E0DE011196019098
:105110000D928A95E1F788858823A1F08C819D8185
:10512000E981F0E0EC59FD4F8083B394EB2D0B2C1B
:10513000000CFF0B8091E1039091E203E817F9075F
:10514000E4F240CEF5E0BF1208C080914905882303
:1051500021F08091C904823041F3A980CA2CD12C5E
:105160008C819D817601EE0CFF1CF701EC58FD4F00
:10517000918380839C9CF0019D9CF00D1124EB5544
:10518000FB4F048115812C813D81032E000C440BC3
:10519000550B82819381092E000CAA0BBB0B281B97
:1051A000390B4A0B5B0BA081B18122D769AF7AAF73
:1051B0008BAF9CAF20E034E040E050E0D1D6DA0184
:1051C000C9019058A109B109811520E892072FEF74
:1051D000A207B20724F480E090E8AFEFBFEF81159B
:1051E00030E89307A105B10524F08FEF9FE7A0E019
:1051F000B0E0A801012E000C660B770BE1E0EA1588
:1052000038F420914905222381F0F4E0AF120DC05B
:1052100084179507A607B7070CF121E02A15C0F0FF
:10522000F601E15AFC4F928380CF84179507A607B9
:10523000B70774F4119501951109012E000C220B8A
:10524000330B081719072A073B0714F480E090E096
:10525000F701E15AFC4F9183808367CF80E090E8AB
:10526000DCCF989CC0011124AC014D515C4F6A0108
:105270008091E904882329F0AFEEAA2EA3E0BA2E8C
:10528000911056010E94450A29966CAF7DAF8EAFF2
:105290009FAF2997F50186819781A085B1852996D1
:1052A0004CAD5DAD6EAD7FAD2997481B590B6A0BB8
:1052B0007B0B828590E0B0E0A0E084179507A607FD
:1052C000B70708F06CC0E091E504F091E604D60160
:1052D000EC901196FC90119712960C9112971396E0
:1052E0001C91139714962C91149715963C91159731
:1052F00016964C91169717965C91179718966C9185
:10530000189719967C9119971A968C911A971B9653
:105310009C910995C82ED12CE9ADFAAD8E9E8001E5
:105320008F9E100D11240D511C4FD80115968C9194
:10533000E1E0F0E002C0EE0FFF1F8A95E2F7CF0137
:1053400020915F033091600382239323C816D9060E
:1053500031F10E94450AD50116966D937D938D9388
:105360009C931997F801258181E090E0022E02C0FC
:10537000880F991F0A94E2F78095909540915F03FA
:10538000509160038423952302C0CC0CDD1C2A9528
:10539000E2F7C82AD92AD0926003C0925F0393949F
:1053A00014CD80E00E946B0A80E00E946B0A80E0CE
:1053B0000E946B0A80E00E946B0AFDEEEF2EF4E083
:1053C000FF2E01EC12E0912C812CD7016C911196EB
:1053D0004C91119712965C9112971396DC90F801FC
:1053E000B180C2808381A080A62A09F464C08111A3
:1053F00047C0B11015C0C11013C0662389F06150B9
:10540000862F90E0603100F520914A05222351F06B
:10541000693040F08C599D4FDC018C91811111C095
:10542000D12C2FC081E090E002C0880F991F6A95AF
:10543000E2F720915F033091600382239323892B4D
:1054400099F0C52EB42E1DC02091E1043091E204E4
:10545000633168F0880F991FFC01E15CFC4F80818B
:1054600091812817390768F3D12CB12C0AC08F5AC3
:105470009C4FFC0180818217130609F014F7F4CFCA
:10548000D82E8FEF0E946B0A8D2D0E946B0A8C2DF7
:105490000E946B0A8B2D0E946B0AFFEF8F1A9F0AE6
:1054A00024E0E20EF11C0C5F1F4F8FCF8FEF0E94A4
:1054B0006B0A30E1A30EA8141904C4F3FDCC0E94BA
:1054C000450A60936B0370936C0380936D03909314
:1054D0006E034CE0BE01655D7F4F8FE593E00E9457
:1054E000A90E892B49F58CE0EFE5F3E0A3E5B3E0E5
:1054F00001900D928A95E1F7C0905F03D090600310
:10550000F12CE12C25962CAD3DAD4EAD5FAD259730
:10551000C216D306E406F50641F00E94450A6DAFB7
:105520007EAF8FAF21969FAF21972596CCAEDDAE93
:10553000EEAEFFAE2597E9CC8BA59CA5992309F487
:10554000EAC090914805992309F467C08E3308F0AA
:1055500064C0823309F461C08FAB81E088AF0E94E0
:10556000F30D0E94F90D0E94450A6B017C010E9417
:10557000070E80FD0EC080E00E94DD0B89EA0E94CC
:105580006B0A62E0CE01C7960E94120E81E00E9473
:10559000DD0B81E08093C0028091C002811121C0A7
:1055A00060E387E00E94250E0E94450A69AF7AAF4A
:1055B0008BAF9CAFDC01CB018C199D09AE09BF09F3
:1055C000853F9140A105B10590F288E0809380026B
:1055D00046E050E06FEC70E081E892E00FD547E0E4
:1055E00014C01092C0020E94070E90E09595879516
:1055F000877099270797A1F280E892E00E947C0EBD
:10560000482F882369F28C3059F2BE016F5F7F4FBB
:1056100080E892E00E94A90E66CF98E09093800205
:105620008E33D8F08E53990B22E3289FB001299F27
:10563000700D112403E111E0061B170B0233110555
:1056400014F002E310E0A80155276F5F7F4F81E857
:1056500092E001D541E0400FD8CF823311F087337B
:10566000F9F466EC70E086E892E0D1D480E092E153
:10567000AAE7B0E08093810290938202A093830214
:10568000B09384020E94A60B6093950270939602D9
:1056900080939702909398021092850249E1B5CFCA
:1056A0008C3359F48CE0E4E7F2E0A1E8B2E0019039
:1056B0000D928A95E1F74DE0A8CF853399F440919A
:1056C0004B05413041F48091030180938102109297
:1056D000820243E09ACF4330E1F780910201809348
:1056E000810293CF863341F480910501809381023A
:1056F0000E94F50B42E089CF48E050E06EEB70E08D
:1057000081E892E07BD480914E058F3110F41092A5
:10571000840249E07ACF8D3369F46DA54CE1649F32
:10572000B00111246F5F7F4F4DE150E0CE018E96A6
:10573000A2D4D9CE833309F441C068F4803349F050
:10574000813309F0D0CE87E797E7909301088093E3
:1057500000080E94700E843331F08A3309F0C3CE02
:105760000E941013C0CE809148058111BCCE80915B
:1057700031038111B8CE8FEF809305010E94E50AB5
:1057800009E113E062E1F62E62E08F2D0E94ED0A3E
:1057900087EC90E00197F1F700C000008EEE8F0DCE
:1057A0000E94C40AD8018D939D938D01F394BEE1AC
:1057B000FB12EACF81E08093310395CE80914805BA
:1057C000811191CE80914A0381118DCE8FEF80930C
:1057D00005010E94E50A10E000E0802F0E94E00B26
:1057E000811111C062E0802F0E94ED0AE7ECF0E029
:1057F0003197F1F700C00000802F0E94980AF8014D
:10580000EE5CFC4F80830F5F1F4F0831110529F7B5
:1058100081E080934A0367CE833209F0AECB80915A
:105820004B03813209F0A9CB8091E800877F38C013
:1058300080914B03813A09F0A0CB8091E800877FEB
:105840008093E8008091E80080FFFCCF80911A01EE
:1058500090911B01A0911C01B0911D018093F1005A
:10586000492F5A2F6B2F77274093F100AD01662700
:1058700077274093F1008B2F9927AA27BB27809386
:10588000F10080911E018093F10080911F018093AF
:10589000F100809120018093F1008091E8008E77E3
:1058A0008093E8000E94280A68CB80914B038132E4
:1058B00009F063CB8091E800877F8093E8008091B6
:1058C000E80082FF32C03091F1002091F100909108
:1058D000F1008091F10030931A0120931B01909305
:1058E0001C0180931D018091F10080931E01809125
:1058F000F10080931F018091F1008093200180913D
:10590000E8008B778093E8000E94280A80911A01B2
:1059100090911B01A0911C01B0911D01803B94400E
:10592000A105B10509F029CB0ECF8BB58111C7CFE9
:1059300024CB80914B03813209F01FCB8091E8008A
:10594000877F8093E8000E94280A80914D03909100
:105950004E0390931701809316010FCB883009F402
:1059600092C1893009F49CC1863009F01BCB905854
:10597000923008F017CB80914D0390914E038C3DEF
:1059800053E0950709F0F1C083E08A838AE28983B6
:105990004FB7F894DE01139620E03EE051E2E32F8A
:1059A000F0E050935700849120FF03C082958F70E0
:1059B0003F5F8F708A3008F494C0895C90E08D93CB
:1059C0009D932F5F243159F74FBF8091E800877F67
:1059D0008093E80080915103909152038A3291059F
:1059E00010F08AE290E040E0FE013196A0C09038CD
:1059F00091F0923809F0D6CA80914F038F708730AA
:105A000008F0D0CA8093E9008091EB0085FB8827DD
:105A100080F91092E9009091E800977F9093E80058
:105A20008093F1001092F1008091E8008E7721C000
:105A3000923009F0B7CA90914D03911115C0909121
:105A40004F039F702FEF290F263008F0ABCA9093B9
:105A5000E9002091EB0020FF07C0833079F48091AA
:105A6000EB0080628093EB001092E9008091E800E7
:105A7000877F8093E8000E94280A94CA8091EB00F7
:105A800080618093EB0021E030E001C0220F9A9505
:105A9000EAF72093EA001092EA008091EB00886018
:105AA000E1CF91117FCA00914D030F778091E30000
:105AB0008078802B8093E3008091E800877F80933B
:105AC000E8000E94280A8091E80080FFFCCF8091C6
:105AD000E30080688093E30082E0011183E08BBDE6
