:100000000C94DF080C94FC080C94FC080C94FC087D
:100010000C94232D0C94FC080C94FC080C94FC0804
:100020000C94FC080C94FC080C94B02B0C94FC0869
:100030000C94FC080C94FC080C94FC080C94FC0830
:100040000C94FC080C94FC080C94FC080C94FC0820
:100050000C94FC080C94FC080C94FC080C94692C7F
:100060000C94FC080C94FC080C94FC080C94FC0800
:100070000C94FC080C94FC080C94FC080C94FC08F0
:100080000C94FC080C94FC080C94FC080C94FC08E0
:100090000C948C2C0C94FC080C94FC080C94FC081C
:1000A0000C94FC080C94FC080C94FC08120341000E
:1000B000720064007700690069006E006F0014032D
:1000C000730061006E006A00610079003900300041
:1000D00030000403090400000000240027002A0067
:1000E0002D003000FF080F0C212601070000000042
:1000F0006D6963726F004552524F52000008000054
:10010000000000000082F82300143FF7FFFF00000A
:100110000000C0FFC0FF0000000000004000000021
:100120000001040002000000000000000104585516
:1001300053423130000000000000000000000000C9
:1001400000000000020457494E55534200000000D1
:100150000000000000000000000000008E00000011
:1001600000010500010084000000010000002800DB
:1001700044006500760069006300650049006E0078
:10018000740065007200660061006300650047004E
:1001900055004900440000004E0000007B00440070
:1001A00046003500390030003300370044002D0090
:1001B00037004300390032002D0034003100350093
:1001C00035002D0041004300310032002D00370082
:1001D000440037003000300041003300310033006C
:1001E0004400370038007D00000005010906A10128
:1001F0008506050719E029E7150025017501950811
:1002000081029501750881010508190129059505E7
:1002100075019102950175039101150026FF0005F6
:1002200007190029FF950675088100C0050109021C
:10023000A10185050901A10005091901290415007D
:10024000250195047501810275049501810305015D
:100250000930093109381581257F95037508810614
:10026000050C0A38021681FF267F0095017508816A
:1002700006C0C005010905A101150025013500458D
:10028000017501950D05091901290D81029503815B
:100290000105012507463B017504950165140939DF
:1002A000814265009501810126FF0046FF0009306B
:1002B0000931093209357508950481020600FF09E4
:1002C00020092109220923092409250926092709CA
:1002D000280929092A092B950C81020A2126952033
:1002E000B1020A2126910226FF0346FF03092C09C9
:1002F0002D092E092F751095048102C012034D009F
:100300005300460054003100300030002000D2007D
:10031000BE00AC000902B6000501008032090400ED
:1003200000020300000009210101000122890007E9
:1003300005810320000107050603200001090401CF
:100340000002FF5D01001121000100258220000054
:1003500000001307200000070582032000010705A5
:1003600007032000010904020000FFFFFF00090449
:10037000030000010100000924010001090001043B
:1003800009040400020103000007240100014100E8
:1003900006240201010006240202020009240301CE
:1003A00003010201000924030204010101000905FF
:1003B0000802200001000005250101010905830252
:1003C0002000010000052501010392000001200129
:1003D00000021002822804004B070D0FBA12BA1255
:1003E000BA12BA120912AD1BAD1B120100020000B5
:1003F00000400912822841080102DC01020F0000BE
:100400000001010115D4A2000F000000FFFFFFFF53
:10041000FFFFFFFFFFFFFFFFFFFFFFFFFF00FF00EA
:10042000FF00FF00FF00FF0040404000B80B041633
:100430000D0E0F33280B504F525151FFFFFFFFFF9E
:10044000FF00FF00FF00FF000D0080000EFF000016
:1004500010FFFF000F0000FF09FF45000000000033
:10046000000000000000000000000000000000008C
:10047000000000000000000000000000000000007C
:10048000000000000000000000000000000000006C
:10049000000000000000000000000000000000005C
:1004A000000000000000000000000000000000004C
:1004B000000000000000000000000000000000003C
:1004C000000000000000000000000000000000002C
:1004D000000000000000000000000000000000001C
:1004E00000000000000000FF00000080000000008D
:1004F0000080000000000080FF7F00000080FF7F80
:1005000000000080FF7F00000080FF7F05140000D6
:1005100000000000000000000200000101020200D3
:1005200000000000020202010100020102010002BB
:100530000100000202020101070605040100080A89
:100540000B0C0D09000000002300260029002C00E0
:100550002F0000000000250028002B002E00310095
:1005600004080201104080401020408040800802B2
:10057000040180402010020110801020404020041F
:10058000040404040304050202020204030202023A
:10059000020606060606060404020202040400001F
:1005A000700000000024000000020003000000654D
:1005B0000054FFEF0000FA80000B12820001030CD0
:1005C00030C30E8C8CE914D5400213710F8E388322
:1005D000F8833000F883258EF8833000F883FFFF1E
:1005E000FFFF0FFEA9D6240004001A8279A10000A3
:1005F000003CFFFF00000010000038836FA2003EA7
:1006000003304000000002CAE3093E8000002000E1
:100610000000000000004000000060000000000C2E
:100620000000000C186E000006920A16C0DFFFFFE3
:100630000256FD8CD377FFE1C496E0C5BEAA000048
:100640000000FFFF0B2B000016570000035940006D
:10065000000000001DFA00026C1D000000003FFFBA
:10066000DFEB003EB3B6000D227800002F3C000007
:100670000000001942B5000039A20000B365D90E90
:100680009FC91DCF4C3430000000500000003BB625
:100690007AE80064000000C80000000000001000BC
:1006A00000001000FA921000225E000D229F00014F
:1006B000000000320000FF46000063D4000010007C
:1006C000000004D6000004CC000004CC00000000B0
:1006D0001072000000400000000000000000000652
:1006E0000002000500070000000000640000000098
:1006F000000000000005000500640020000000006C
:1007000000000000000000004000000003000000A6
:100710000032F8980000FF650000830F0000FF9B87
:10072000FC000000000000000000000000000000CD
:1007300000000000000000000000000000000000B9
:100740000000000000000000000000001000400059
:100750000000000000060000B26A00020000000174
:10076000FB830068000000D9FC007CF1FF830000DF
:10077000000000650000006403E800640028000039
:1007800000250000000016A000000000100000007E
:100790001000002F0000000001F4000010000028ED
:1007A0000000FFFF4581FFFFFA720000000000001B
:1007B0000000004400050005BAC6004778A200000A
:1007C000000100000000000006000000001400000E
:1007D000254D002F706D000005AE000C02D000000A
:1007E0000000000000000000000000000000001BEE
:1007F0000000000000000000000000000000006495
:1008000000000008000000000000000000000000E0
:1008100000000000000000000000000000000000D8
:1008200000000000000000000000000000000000C8
:1008300000000000000000000000000000000000B8
:1008400000000000000000000000000000000000A8
:100850000000000000000000000000000000001B7D
:1008600000000000000000000000000E000E00006C
:100870000AC70004000000000032FFFFFF9C0000D8
:100880000B2B000000020000000100000064FFE5E7
:100890000000000000000000000000000000000058
:1008A0000001000000000001000000000000000145
:1008B00080000001800000018000002426D3000099
:1008C000000000000000000600100096003C000040
:1008D00000000000000000000000000000000C0A02
:1008E0004E68CDCF770950166759C619CE820000E1
:1008F00000000000000000000000000000000000F8
:1009000000000000000017D7840003000000000072
:10091000000000000000C7938F9D1E1B1C190000E3
:1009200000000000000000000000000000000000C7
:1009300000000000000002031885000040000000D5
:100940000003000000030000000000000000400061
:100950000000000000000000000000000000000097
:100960000000000000000000000000000000000087
:100970000000000000000000000000000000000077
:100980000000677DDF7E72902E554CF6E6880000F1
:100990000000000000000000000000000000D8DCA3
:1009A000B4B8B0D8B9ABF3F8FAB3B7BB8E9EAEF11A
:1009B00032F51BF1B4B8B08097F1A9DFDFDFAADF11
:1009C000DFDFF2AAC5CDC7A90CC92C97F1A98926EA
:1009D0004666B28999A92D557DB0B08AA89636563B
:1009E00076F1BAA3B4B280C0B8A89711B28398BA0E
:1009F000A3F0240844106418B2B9B49883F1A32971
:100A0000557DBAB5B1A38393F0002850F5B2B6AACC
:100A1000839328547CF1B9A3829361BAA2DADEDF12
:100A2000DB819AB9AEF5606870F1DABAA2DFD9BAA3
:100A3000A2FAB9A38292DB31BAA2D9BAA2F8DF85B1
:100A4000A4D0C1BBAD83C2C5C7B8A2DFDFDFBAA0E7
:100A5000DFDFDFD8D8F1B8AAB38DB4980D355DB219
:100A6000B6BAAF8C96198F9FA70E161EB49AB8AA65
:100A7000872C547CBAA4B08AB691325676B284944C
:100A8000A4C808CDD8B8B4B0F19982A82D557D98E6
:100A9000A80E161EA22C547C92A4F02C5078F1843F
:100AA000A898C4CDFCD80DDBA8FC2DF3D9BAA6F8C4
:100AB000DABAA6DED8BAB2B68696A6D0F3C841DABC
:100AC000A6C8F8D8B0B4B882A892F52C548898F18A
:100AD00035D9F418D8F1A2D0F8F9A884D9C7DFF82D
:100AE000F883C5DADF69DF83C1D8F40114F1A88285
:100AF0004EA884F311D182F5D992289788F109F490
:100B00001C1CD884A8F3C0F9D1D99782F129F40D1F
:100B1000D8F3F9F9D1D982F4C203D8DEDF1AD8F1BB
:100B2000A2FAF9A88498D9C7DFF8F8F883C7DADF02
:100B300069DFF883C3D8F40114F198A8822EA88441
:100B4000F311D182F5D992509788F109F41CD88419
:100B5000A8F3C0F8F9D1D99782F149F40DD8F3F987
:100B6000F9D1D982F4C403D8DEDFD8F1AD8898CCAE
:100B7000A809F9D98292A8F57CF1883ACF944A6EF7
:100B800098DB6931DAADF2DEF9D88795A8F221D188
:100B9000DAA5F9F417D9F1AE8ED0C0C3AE82C684FF
:100BA000C3A88595C8A588F2C0F1F4010EF18E9E08
:100BB000A8C63E56F554F18872F40115F1984585A2
:100BC0006EF58E9E0488F142985A8E9E068869F4CE
:100BD000011CF1981E1108D0F504F11E970202982D
:100BE0003625DBF9D985A5F3C1DA85A5F3DFD885EC
:100BF00095A8F309DAA5FAD88292A8F578F1881AAF
:100C0000849F26889821DAF41DF3D8879F39D1AFC5
:100C1000D9DFDFFBF9F40CF3D8FAD0F8DAF9F9D020
:100C2000DFD9F9D8F40BD8F3879F39D1AFD9DFDFFB
:100C3000F41DF3D8FAFCA869F9F9AFD0DADEFAD9D5
:100C4000F88F9FA8F1CCF398DB45D9AFDFD0F8D867
:100C5000F18F9FA8CAF38809DAAF8FCBF8D8F2AD2D
:100C6000978D0CD9A5DFF9BAA6F3FAF412F2D8954C
:100C70000DD1D9BAA6F3FADAA5F2C1BAA6F3DFD834
:100C8000F1BAB2B68696A6D0CAF349DAA6CBF8D89E
:100C9000B0B4B8D8AD84F2C0DFF18FCBC3A8B2B680
:100CA0008696C8C1CBC3F3B0B48898A821DB718DF8
:100CB0009D71859521D9ADF2FAD88597A828D9F4E8
:100CC00008D8F28D29DAF405D9F285A4C2F2D8A8A1
:100CD0008D9401D1D9F411F2D88721D8F40AD8F231
:100CE0008498A8C801D1D9F411D8F3A4C8BBAFD057
:100CF000F2DEF8F8F8F8F8F8F8F8D8F1B8F6B5B97F
:100D0000B08A95A3DE3CA3D9F8D85CA3D9F8D87CE7
:100D1000A3D9F8D8F8F9D1A5D9DFDAFAD8B1853056
:100D2000F7D9DED8F830ADDADED8F2B48C99A32D3D
:100D3000557DA083DFDFDFB591A0F629D9FBD8A0D0
:100D4000FC29D9FAD8A0D051D9F8D8FC51D9F9D872
:100D500079D9FBD8A0D0FC79D9FAD8A1F9F9F9F959
:100D6000F9A0DADFDFDFD8A1F8F8F8F8F8ACDEF8A0
:100D7000ADDE8393AC2C547CF1A8DFDFDFF69D2C35
:100D8000DAA0DFD9FADB2DF8D8A850DAA0D0DED966
:100D9000D0F8F8F8DB55F8D8A878DAA0D0DFD9D0A9
:100DA000FAF8F8F8F8DB7DF8D89CA88CF530DB3839
:100DB000D9D0DEDFA0D0DEDFD8A848DB58D9DFD01D
:100DC000DEA0DFD0DED8A868DB70D9DFDFA0DFDFF0
:100DD000D8F1A888902C547C98A8D05C38D1DAF24D
:100DE000AE8CDFF9D8B087A8C1C1B188A8C6F9F91F
:100DF000DA36D8A8F9DA36D8A8F9DA36D8A8F9DA7E
:100E000036D8A8F9DA36D8F78D9DADF818DAF2AEF3
:100E1000DFD8F7ADFA30D9A4DEF9D8F2AEDEFAF9B0
:100E200083A7D9C3C5C7F1889BA77AADF7DEDFA436
:100E3000F8849408A797F300AEF29819A488C6A383
:100E40009488F632DFF28393DB09D9F2AADFD8D88F
:100E5000AEF8F9D1DAF3A4DEA7F1889B7AD8F3844F
:100E600094AE19F9DAAAF1DFD8A881C0C3C5C7A327
:100E70009283F628ADDED9F8D8A350ADD9F8D8A31F
:100E800078ADD9F8D8F8F9D1A1DADEC3C5C7D8A1B1
:100E90008194F818F2B089ACC3C5C7F1D8B8B4B022
:100EA0009786A8319B069907AB9728889BF00C2062
:100EB0001440B0B4B8F0A88A9A285078B79BA829F3
:100EC0005179247059446938644831F1BBAB8800CA
:100ED0002C547CF0B38BB8A804285078F1B088B4B7
:100EE0009726A85998BBABB38B02264666B0B8F0DC
:100EF0008A9CA82951798B2951798A2470598B2091
:100F000058718A4469388B3940688A6448318B301B
:100F1000496088F1AC002C547CF08CA804285078EF
:100F2000F1889726A85998AC8C02264666F0899CD1
:100F3000A8295179247059446938644831A988092D
:100F4000205970AB11384069A8193148608CA83C11
:100F5000415C207C00F187981986A86E767EA9995D
:100F6000882D557DD8B1B5B9A3DFDFDFAED0DFAABC
:100F7000D0DEF2ABF8F9D9B087C4AAF1DFDFBBAF9E
:100F8000DFDFB9D8B1F1A3978E60DFB084F2C8F883
:100F9000F9D9DED89385F14AB183A308B5839A08BD
:100FA00010B79F10D8F1B0BAAEB08AC2B2B68E9E5A
:100FB000F1FBD9F41DD8F9D90CF1D8F8F8AD61D905
:100FC000AEFBD8F40CF1D8F8F8AD19D9AEFBDFD8E8
:100FD000F416F1D8F8AD8D61D9F4F4ACF59C9C8D84
:100FE000DF2BBAB6AEFAF8F40BD8F1AED0F8AD51AB
:100FF000DAAEFAF8F1D8B9B1B6A3839C08B9B183D7
:101000009AB5AAC0FD3083B79F10B58B93F2020248
:10101000D1ABDADED8F1B080BAABC0C3B284C1C301
:10102000D8B1B9F38BA391B609B4D9ABDEB0879C24
:10103000B9A3DDF1B38B8B8B8B8BB087A3A3A3A359
:10104000B28BB69BF2A3A3A3A3A3A3A3A3A3A3F1D1
:10105000B087B59AA3F39BA3A3DCBAACDFB9A3A373
:10106000A3A3A3A3A3A3A3A3A3A3A3A3A3A3D8D8E6
:10107000D8BBB3B7F1AAF9DAFFD9809AAA28B4800D
:1010800098A720B79787A86688F07951F1902C87A8
:101090000CA781976293F071716085940129517951
:1010A00090A5F1284C6C870C95188578A38390281F
:1010B0004C6C886CD8F3A28200F210A8921980A21E
:1010C000F2D926D8F188A84DD948D896A83980D920
:1010D0003CD89580A839A68698D92CDA87A72CD831
:1010E000A8899519A980D938D8A88939A980DA3C66
:1010F000D8A82EA83990D90CD8A8953198D90CD851
:10110000A809D9FFD801DAFFD89539A9DA26FFD87E
:1011100090A80D8999A810809821DA2ED88999A8CD
:101120003180DA2ED8A886963180DA2ED8A8873179
:1011300080DA2ED8A88292F34180F1D92ED8A882E5
:10114000F31980F1D92ED882ACF3C0A28022F1A687
:101150002EA72EA92298A829DAACDEFFD8A2F22A5F
:10116000F1A92E8292A8F23180A696F1D900AC8C1A
:101170009C0C30ACDED0DEFFD88C9CACD010ACDE4A
:101180008092A2F24C82A8F1CAF235F19688A6D9D3
:1011900000D8F1FF0E0C0D0F08FFFF09050406072C
:1011A0000A0B0F0C0D0E08FFFF09050406070A0BBA
:1011B0000F0C0D0E0908FFFF050406070A0B11248A
:1011C0001FBECFEFDAE0DEBFCDBF11E0A0E0B1E09F
:1011D000ECEDF5E602C005900D92AE3EB107D9F7F1
:1011E00025E0AEEEB1E001C01D92A139B207E1F7F2
:1011F0000E94292D0C94EC320C940000CF93DF93C5
:10120000EC01CB013091E800377F3093E80060912A
:101210008F05709190056817790760F1009729F4A0
:101220003091E8003E773093E80030E0E0E06BB5C5
:10123000662309F450C0653009F44DC06091E800A0
:1012400063FD49C06091E80062FD40C0009711F461
:10125000EE2369F36091E80060FFE9CF7091F3003D
:101260006091F200009739F16034710520F5FA01C0
:10127000A1E00DC0CB01D9CFB081B31307C0A181CC
:10128000A093F100A281A093F100A2E03396BE2FBB
:10129000B41BB21788F3A13031F4FE01E30FF11D46
:1012A000E491E093F100EA2FF0E08E1B9F0B6E0FAC
:1012B0007F1F3A0FD7CFE1E06034710509F0E0E01D
:1012C0006091E8006E776093E800B1CF8091E8000C
:1012D0008B778093E800DF91CF910895CF93DF93D0
:1012E000FC01DA0186E0EB01888385E080831596B6
:1012F0002C911597822F922F990F990B97FD079696
:1013000053E0959587955A95E1F7828317962C912E
:101310001797822F922F990F990B9195819591098B
:1013200097FD079643E0959587954A95E1F7838366
:101330001B962C911B97822F922F990F990B97FD3B
:10134000079633E0959587953A95E1F7848319964A
:101350002C911997822F922F990F990B97FD079631
:1013600023E0959587952A95E1F7858311969C91C1
:1013700011979295917081818E7F982B9183119610
:101380008C911197829582709D7F892B8183119614
:101390009C919695969596959870877F892B8183D9
:1013A000DF91CF9108959F92AF92BF92CF92DF923B
:1013B000EF92FF920F931F93CF93DF9300D000D053
:1013C000CDB7DEB7FC014B835C838CE1DB018C93F2
:1013D00084E0808390902605B090440179E2C72E86
:1013E00071E0D72EFA83E98390E080E061E070E05D
:1013F000A82ED6012D916D01AB81BC814D915C91E0
:101400002F3F09F44AC0DB0102C0AA0FBB1F2A9577
:10141000E2F79D012423352341E02115310509F42C
:1014200040E08B010A2C02C0000F111F0A94E2F762
:1014300000951095E180F280E022F12250E08A01CF
:1014400002C0000F111FAA94E2F70E291F29128370
:101450000183891510F5BBE1BB1215C0843098F4E7
:101460009C012C513F4FD9012C918B0102C0000FE0
:10147000111F2A95E2F7AB81BC812D913C9120236D
:101480003123242B352B41E0232B09F440E0242F7A
:101490002195A981BA8118962C93019629813A81C8
:1014A0002F5F3F4F3A8329838E30910509F0A0CFFB
:1014B000AB81BC812C912F7088E02B3028F430E078
:1014C0002A533E4FD9018C918383AB81BC811A96FC
:1014D0002D913C91BBE1BB1216C0AB81BC8119962A
:1014E0008C9185958054868387E29FE12F3F3F470B
:1014F00011F480E690EF958B848B8DE7878380E8ED
:101500008483858376C06DE1B61619F080E2B81247
:1015100020C0AB81BC8119968C91805886838181D3
:1015200092818F7D41E050E02F3F3F4711F050E026
:1015300040E065E0440F551F6A95E1F7842B952B39
:1015400092838183AB81BC8112969C9180E8891B38
:101550008783BFE1BB1619F02AE1B212D0CF81E038
:1015600090E0AB81BC8112962C91233310F490E073
:1015700080E054E0880F991F5A95E1F7218132816C
:101580002F7E822B932B9283818321E030E0AB81ED
:10159000BC8113964C91433310F430E020E045E0D9
:1015A000220F331F4A95E1F78F7D282B392B328389
:1015B0002183AB81BC8112968C91129784871396FC
:1015C0008C911397858715968C91159780588483F5
:1015D00017969C9117979058958319968C91199707
:1015E000805886831B968C9180588783BAE1BB16FE
:1015F00081F00F900F900F900F90DF91CF911F917E
:101600000F91FF90EF90DF90CF90BF90AF909F90A1
:1016100008959095958380958783EBCFEF92FF9205
:101620000F931F93CF93DF93CDB7DEB72C970FB6F1
:10163000F894DEBF0FBECDBFE32FF0E0E359FE4FBD
:1016400080818F3F81F021E030E002C0220F331F04
:101650008A95E2F78091F1019091F20128233923D4
:1016600081E0232B09F480E02C960FB6F894DEBFBE
:101670000FBECDBFDF91CF911F910F91FF90EF90E3
:101680000895EF92FF920F931F93CF93DF93CDB7FF
:10169000DEB764970FB6F894DEBF0FBECDBFE98604
:1016A000FA860B871C872D873E874F87588B698B5F
:1016B0007A8B8B8B9C8B9F3F69F4EA85FB858081BD
:1016C0008E2191E009F490E081E02C859217B9F029
:1016D00080E015C088E0989FF0011124E754FC4F8A
:1016E00088E0DE01119601900D928A95E1F74C8118
:1016F0005D8181E02E813F812417350748F764968C
:101700000FB6F894DEBF0FBECDBFDF91CF911F9112
:101710000F91FF90EF900895EF92FF920F931F9318
:10172000CF93DF93CDB7DEB72C970FB6F894DEBF1B
:101730000FBECDBFE982FA820B831C832D833E83CB
:101740004F83588769877A878B879C8780910101AF
:10175000843049F1893051F58DE791E02E81820F77
:10176000911DFC0180818F3F81F021E030E002C0BB
:10177000220F331F8A95E2F78091F3019091F401D3
:101780002823392381E0232B09F480E02C960FB61F
:10179000F894DEBF0FBECDBFDF91CF911F910F91A7
:1017A000FF90EF9008958DE991E0D8CF8DE891E01A
:1017B000D5CFFC01CB0120918F05309190052617E4
:1017C000370790F0009729F42091E8002E772093B6
:1017D000E80040E0009751F4411108C08091E80012
:1017E00082FF30C080E00895C901F3CF2BB52223DA
:1017F000A1F12530A1F12091E80023FD2CC020911A
:10180000E80022FDEBCF2091E80020FFE3CF3091EC
:10181000F3002091F200009719F02034310558F0C0
:1018200041E02034310509F040E02091E8002E77B6
:101830002093E800CFCF41914093F10001972F5FB3
:101840003F4FE9CF8BB5882341F0853041F080913F
:10185000E80083FFC3CF81E0089582E0089583E02C
:101860000895FC01CB0120918F053091900526173A
:10187000370790F0009729F42091E8002E77209305
:10188000E80040E0009751F4411108C08091E80061
:1018900082FF31C080E00895C901F3CF2BB5222328
:1018A000A9F12530A9F12091E80023FD2DC0209158
:1018B000E80022FDEBCF2091E80020FFE3CF30913C
:1018C000F3002091F200009719F02034310558F010
:1018D00041E02034310509F040E02091E8002E7706
:1018E0002093E800CFCF44914093F10031960197C7
:1018F0002F5F3F4FE8CF8BB5882341F0853041F013
:101900008091E80083FFC2CF81E0089582E00895CE
:1019100083E008958091890587FF11C08091E800D8
:1019200082FF06C08091E8008B778093E80003C0B7
:101930008BB58111F3CF08958BB58823E1F38091A6
:10194000E80080FFF9CF8091E8008E77EECF2091FC
:10195000E4003091E50095E6A9012091EC00822F8A
:10196000817020FF06C08091E80080FF06C080E003
:1019700008952091E80022FD19C08BB5882389F0D5
:10198000853089F08091EB0085FD0FC02091E40047
:101990003091E5004217530701F39150E9F684E0D6
:1019A000089582E0089583E0089581E00895CF933B
:1019B000DF9300D000D0CDB7DEB72FB7F894809179
:1019C0004E0290914F02A0915002B09151022FBF50
:1019D0002227382F492F5A2FCA01B9012DE730E0AD
:1019E00040E050E00E941E32CA01B9010F900F90F2
:1019F0000F900F90DF91CF9108958EBD00000DB430
:101A000007FEFDCF8EB5089590E0FC01E05AFA4F35
:101A10002491FC01E158FA4FE491EE2389F0F0E0C3
:101A2000EE0FFF1FEE5AFA4FA591B4919FB7F894AD
:101A30008C91611106C0E22FE095E823EC939FBFE3
:101A40000895822B8C93FBCF61E08FE0DDDF61E0B6
:101A500080E1DACF90E0FC01E05AFA4F2491FC01DA
:101A6000E158FA4FE491EE2359F0F0E0EE0FFF1F3A
:101A7000EC5BFA4FA591B491EC91E22381E009F47B
:101A800080E00895CF93DF93EC0180911705E2DFAA
:101A900091E089274FEF5FE7849F9001859F300D8C
:101AA00011243B872A87DF91CF910895E82FF0E03A
:101AB000E85CFA4FE49190917B008E2F880F880F9D
:101AC00080729F7D892B80937B00E770E064E093B8
:101AD0007C0080917A00806480937A0080917A0003
:101AE00086FDFCCF809178009091790008958091D7
:101AF0007A0086FDFCCF81E0809304010895CF93A6
:101B0000DF9390E0FC01E05AFA4F249181589A4FFC
:101B1000FC0184918823D1F090E0880F991FFC018B
:101B2000EA52FF4FA591B491FC01EE5AFA4FC591CC
:101B3000D4919FB7613069F4F8948C9120958223F9
:101B40008C938881282328839FBF7894DF91CF913D
:101B50000895623051F4F8943C91822F809583234C
:101B60008C938881822B8883EFCFF8948C91822B81
:101B70008C93EACFCF92DF92EF92FF920F931F9355
:101B8000CF93DF936B017C01142FD22F60E080E1B3
:101B9000B6DF62E08EE0B3DF60E08FE0B0DF61E0EF
:101BA00081E132DF60E081E1AADF1111C8E0D111EB
:101BB000C4600111C062C11489E0D8068DE3E80653
:101BC000F104D8F580E8C81684E8D8068EE1E80666
:101BD000F104A8F580E4C81682E4D8068FE0E80690
:101BE000F10478F580E2C81681EAD80687E0E806B5
:101BF000F10448F580E9C81680EDD80683E0E806D0
:101C0000F10418F588E4C81688EED80681E0E806E5
:101C1000F104E8F487E091E08927982F96959C2BB2
:101C200090659CBD81708DBDDF91CF911F910F910B
:101C3000FF90EF90DF90CF90089580E0ECCF81E0AF
:101C4000EACF82E0E8CF83E0E6CF84E0E4CF85E02E
:101C5000E2CFCF92DF92EF92FF92F0E0E0E067E612
:101C600075E483E291E041E24093570024916227BA
:101C700028E030E06B017C0151E0C522DD24EE2438
:101C8000FF249695879577956795CD28CE28CF2800
:101C900041F050E2652753E8752758EB85275DEE44
:101CA00095272150310931F73196E032F105E1F6FF
:101CB000FF90EF90DF90CF900895682F8AE0A4CE38
:101CC000982F8D30A1F0823090F080910405882308
:101CD00021F02EEF290F223058F080910305882340
:101CE00039F09E5081E0943018F080E0089581E052
:101CF00008950F931F93CF938091B602882391F09C
:101D00000EE912E0C0E08C2FDBDF811103C061E03F
:101D10008C2FF5DE8C2F9EDEF80181938F01CF5F33
:101D2000C83189F71092CF021092B602CF911F915D
:101D30000F910895CF93DF93EC01FB0180818052D6
:101D4000990B880F880F1C828D8381818052990B9B
:101D5000880F880F1E828F8385812481358120958D
:101D6000309590914401933260F0938191FF09C0C6
:101D70009095907E628166956E736A3120F562312E
:101D800039F1982F96959695969561E096279170E2
:101D9000B92FB295BB0FB07EA0E0367D2A2B3B2B2E
:101DA00082958695877086278170582F550F550F1D
:101DB000550F40E0242B352B3093F2012093F10195
:101DC000DF91CF9108956E31E1F69093D002D9CF93
:101DD0009093D402D6CFFC01DB018C91880F880F41
:101DE00080581482858311968C911197880F880FE3
:101DF00080581682878313968C9113978F718E501B
:101E0000990B97FD20C09187808720853185C90176
:101E1000880F991F820F931F80329105BCF4918720
:101E20008087808591854097880F880F880F10865E
:101E3000818714968D919C91809590959093F20155
:101E40008093F101089511861086DFCF8FE190E035
:101E5000E6CFFC01DB018C918058990B14828583BD
:101E600012968C9112978058990B1682878311963F
:101E70008C9111978058990B1086818713968C91BD
:101E800013978058990B1286838714968C91149718
:101E9000828315968C911597838316968D919C91CC
:101EA000809590959093F2018093F1010895FC0143
:101EB000DB018C918F738052990B958384831196EB
:101EC0008C9111978F738052990B978386838C9195
:101ED00090E023E0959587952A95E1F788719927F9
:101EE00011962C91119730E045E0359527954A954C
:101EF000E1F726703327822B932B12962C911297A1
:101F0000221F2227221F822B4097918780871296BB
:101F10008C9112978F718051990B938782871296BB
:101F20008C91129786958695887113969C9113973C
:101F3000929596959770892B828313968C9113971F
:101F40008F71838314968D919C9180959095909339
:101F5000F2018093F1010895DC01FB019081818100
:101F6000829586958670292F269526952695287127
:101F7000822B2281221F2227221F822B990F990F49
:101F8000905814961C92149715969C9315979181CE
:101F9000990F990F905816961C92169717969C9326
:101FA00017972481938120FF3BC0292F30E0209593
:101FB00030952F713327205E3F4F19963C932E9317
:101FC0001897082E000C990B228120FF2FC02FE3B9
:101FD00030E0281B390B1B963C932E931A97828175
:101FE0008695869588719381929596959770892BA1
:101FF00012968C931297828190E0959587958F70B9
:1020000013968C93848195819827892798278095AA
:1020100090958D7C93769093F2018093F1010895D1
:102020009F7120E230E0291B3109C7CF20E230E068
:10203000D0CFCF93DF93FC01EB018A8190E0982F02
:10204000882788279F706881862B958384838A815F
:1020500020E1829FC001112488279F706981862B0F
:10206000978386838B8183838D8181FB992790F968
:10207000392F3295330F330F307C20E0982F96950F
:10208000969561E096279170B92FB295BB0FB07EFF
:10209000A0E02A2B3B2B8170582F5295507F40E0B7
:1020A000242B352B3093F2012093F101DF91CF9156
:1020B0000895FC01DB018D919C9111979583848398
:1020C00012968D919C9113979783868314968C9189
:1020D00083830895FB018481958198278927982718
:1020E000809590959093F2018093F101089580E09E
:1020F000E4DD81EE82DC81E0E0CD80E0DEDD82EEB9
:102100007CDC81E0DACD80E0D8DD80E576DC83E739
:1021100074DC81E0D2CDCF9380E0CFDD8FEF6DDC3A
:10212000C82F81E0CADD8C2FCF9108950F931F93A4
:10213000CF93DF93182F062FEC0189915EDC8C2F53
:10214000811B8017D0F3DF91CF911F910F910895DC
:10215000CF93DF93D82FC62F80E0AFDD8D2F806225
:102160004CDC8C2F4ADC81E0DF91CF91A6CDFF9231
:102170000F931F93CF93DF93D82FF92EC62F809103
:10218000A603811108C0C0E08C2FDF91CF911F9171
:102190000F91FF9008951092A603BDDF282F30E025
:1021A00035952795277033272730310561F360E493
:1021B00087E0CEDFC11109C080E07FDD80E61DDC55
:1021C00080E01BDCC82F81E078DD80E076DD81E6F1
:1021D00014DC0D2F1F2D802F8D1B8C1718F081E024
:1021E0006CDDD2CFF80181918F0107DCF8013197C6
:1021F0008083F1CFCF93DF9300D000D0CDB7DEB78F
:10220000DB019C010E94633269837A838B839C8308
:10221000AB01BC015F776627772781E090E0A0E003
:10222000B0E0411550446105710519F480E090E07B
:10223000DC012EE0880F991FAA1FBB1F2A95D1F73A
:1022400029813A814B815C81820F931FA41FB51FA6
:102250003FE0B595A795979587953A95D1F70F905B
:102260000F900F900F90DF91CF910895F89488E12F
:1022700098E00FB6F894A895809360000FBE9093F5
:102280006000FFCF1F93CF93DF93182FEB0180E007
:1022900014DD812FB2DB8881B0DB888381E0DF91A0
:1022A000CF911F910ACDCF93DF930F92CDB7DEB7B9
:1022B000BE016F5F7F4FE6DF89810F90DF91CF9185
:1022C00008951F93CF93DF93182FD62FC72F80E049
:1022D000F4DC812F806291DB64E08D2F9C2F26DF60
:1022E00081E0DF91CF911F91E8CC85ED8093BC0018
:1022F0008FEF9FE72091BC0024FD03C01092B6032E
:1023000002C00197B9F708958093E900EBEEF0E081
:10231000808181608083EDEEF0E010826093EC00BC
:1023200040838091EE000895CF93DF93DC01FA01A2
:1023300084E1EB0188831C9211968C93119712967D
:102340008CE001900D928A95E1F7DF91CF9108958D
:10235000CF93282FCB01C42F4FEF5FE7C13228F076
:1023600080E045C041505109D9F33091B603311195
:10237000F9CF31E03093B6033093B5034FEF40937C
:102380002A0210924C024C0F40934B0230934D02A4
:1023900030914D02220F232B20934D022091B40344
:1023A000222381F11092B40320914D022093BB00AF
:1023B0002FEF3FE74091BC0043FD1BC025EC20936D
:1023C000BC002FEF3FE74091B6034130E9F0209188
:1023D0004C022C1710F4C0914C024C2F50E06BE2D1
:1023E00072E00E94AB3281E0CC2309F4B9CFCF91E7
:1023F00008952150310909F4B3CF40914D02409323
:10240000BB00D8CF25EEDBCF21503109E1F6A8CFB4
:10241000CF93C82F8FEF9FE7413220F080E03FC07D
:102420000197E1F32091B6032111FACF82E0809366
:10243000B60381E08093B5038FEF80932A02109258
:102440004C0240934B0250E08BE292E00E94AB3290
:1024500010924D0280914D02CC0FC82BC0934D02BB
:102460008091B403882329F11092B40380914D0226
:102470008093BB008FEF9FE72091BC0023FD11C02C
:1024800085EC8093BC008FEF9FE72091B60322304C
:1024900091F090912A0281E09F3F09F0BFCFCF9148
:1024A0000895019709F4BACF20914D022093BB0003
:1024B000E3CF85EEE6CF019741F7B0CFEF92FF92E1
:1024C0000F931F93CF93DF930F92CDB7DEB7182FE3
:1024D0006983E42EF22E032F41E0BE016F5F7F4F30
:1024E00097DF882371F04E2D6F2D702F812F30DFF5
:1024F00081700F90DF91CF911F910F91FF90EF901E
:10250000089580E0F5CFCF92DF92EF92FF920F9384
:102510001F93CF93DF938C01EB016C017B01E40EE1
:10252000F11CCE15DF0549F4DF91CF911F910F917A
:10253000FF90EF90DF90CF9008958AE50115110587
:1025400011F0F601808159DA8993F8E2FA95F1F7F2
:102550008FEFC81AD80AE5CF0F931F93CF93DF935D
:102560008C01D62FE091A903F091AA03908180916C
:10257000A80380958923808360E08FE045DA60E0DE
:1025800080E142DA88E28A95F1F743E065EF71E095
:10259000C801B9DF8091F6018F3FA9F4D0E0C0E017
:1025A00053DAE091A903F091AA0380819091A803E6
:1025B000892B808388E28A95F1F7CE01DF91CF9154
:1025C0001F910F9108959091F7019A3511F0911193
:1025D000E5CF8F70C82FCC0FD33039F04DEF4D0FB2
:1025E00068EF71E0C80103968EDFCD5F4C2F4D1B65
:1025F000CD1761F06D2F70E0CB01840F911D819795
:102600006CF66B507E4F90E080E07DDFC5EFD1E04F
:10261000C7CFFF920F931F93CF93DF930F92CDB746
:10262000DEB78983F62E8A0141E0BE016F5F7F4FDE
:1026300082E5EEDE882351F087E691E00197F1F71D
:1026400000C000004F2DB80182E582DE0F90DF91BF
:10265000CF911F910F91FF900895CF93DF9300D0FA
:1026600000D000D0CDB7DEB7AE014F5F5F4F66E060
:102670008AEFCFDFFE013196AE01495F5F4F8FEFEA
:1026800090E02191922B82234E175F07D1F7992377
:1026900069F08F3F59F099818E8126960FB6F89494
:1026A000DEBF0FBECDBFDF91CF9108958FEF9FEFBB
:1026B000F4CFCF92DF92EF92FF920F931F93CF93BD
:1026C000DF9300D000D000D0CDB7DEB78D839E83DE
:1026D000062F6DD96B017C0110E0602F8D819E81EA
:1026E0003BDFFC01892B51F01F5F8D819E818B5B4D
:1026F0009140D9F48181807F803F01F18FE19EE498
:102700000197F1F700C0000052D969837A838B8367
:102710009C83DC01CB018C199D09AE09BF098B3F5D
:102720009105A105B105C8F209C08D819E818F5B1D
:10273000914099F48181807F803F01F326960FB606
:10274000F894DEBF0FBECDBFDF91CF911F910F91E7
:10275000FF90EF90DF90CF900895133078F7CECFB1
:10276000CF93DF93EC0163E083EC91E0F5DEFC01B5
:1027700080E0309751F08181982F907F903F41F415
:1027800064E08FEB91E095DF81E0DF91CF910895D8
:1027900023813481209530953093F4012093F30107
:1027A000903509F053C088E0809301018181823126
:1027B00079F489E08093010185818058990B1C820E
:1027C0008D8346818FE790E0841B91091E828F8361
:1027D0008181807D8035C1F685818058990B18866E
:1027E000898746818FE790E0BC01641B71091A86D6
:1027F0006B8747814058550B1C824D834085841B55
:1028000091091E828F8380918505882399F084E049
:10281000809301011D821C821F821E828085805848
:10282000990B898790E080E030FF02C08FEF9FE72F
:102830009B878A878181893709F05CC083898A8375
:1028400084898B8382E0809301019ECF8332A9F536
:1028500085E08093010185818058990B1C828D83CE
:1028600041E08681813808F440E080E0942F929521
:10287000990F990F907C488159815F7B482B592B88
:102880005983488361E08781813808F460E080E003
:10289000962F9795992797955F77842B952B9983FA
:1028A000888361E04085413F08F460E040E0562FB6
:1028B0009E7F482B592B598348838181807F803E9E
:1028C00009F074CF86E080930101858190E09D83BB
:1028D0008C839681858197FD09C0803808F08FE749
:1028E00090E080589F4F9D838C8360CF8138C0F7E4
:1028F00081E8F6CF807F803509F446CF81E0809370
:10290000010143CF1F93CF93DF93D82FC92F80911D
:1029100001018A3009F515E08D2F9C2F21DF8FEC06
:1029200097E00197F1F700C000001150A9F78D2F33
:102930009C2F16DF8823C1F064E08BEB91E0B9DEB9
:1029400065E086EB91E0B5DE69E08DEA91E0B1DE0D
:1029500064E08FEB91E0ADDE8D2F9C2F01DF8111C4
:1029600003C08AE080930101DF91CF911F91089508
:10297000CF93DF93CDB7DEB7C351D1400FB6F894F4
:10298000DEBF0FBECDBF43E151E06CEF73E0CE017F
:1029900001960E948E3243E151E061E070E0CE0189
:1029A00001960E94CB32CD5EDE4F0FB6F894DEBFAB
:1029B0000FBECDBFDF91CF9108958F929F92AF92BE
:1029C000BF92FF920F931F93CF93DF93CDB7DEB7E4
:1029D000C656D1090FB6F894DEBF0FBECDBF8BB57A
:1029E000882309F4A4C18091E900F090EC00F794E9
:1029F000FF24F7948F70F82A1092E9008091E80084
:102A000083FF91C189E895E0FC0101962091F100D6
:102A1000208325E081399207B9F78091E80083FF90
:102A20005FC190918A0580918905913009F0E3C0DA
:102A3000813A09F02BC220918B05822F30918405B9
:102A4000332309F458C02E3308F055C0223309F45B
:102A500052C029839A834BDB50DB0E94D70C4B0179
:102A60005C0159DB80FD0BC080E027D989EA0E9418
:102A7000FD0C62E0CE01019659DB81E01ED981E0B8
:102A80008093A60360E082E592E071DB682F8823E3
:102A900011F08C3011F560E387E05ADB0E94D70C0F
:102AA000A7966CAF7DAF8EAF9FAFA797DC01CB0130
:102AB00088199909AA09BB09853F9140A105B1056B
:102AC00080F288E08093520246E050E066EF70E0CA
:102AD00083E592E00E948E3267E08091E800877F74
:102AE0008093E8006150770B83E592E00E94D90B58
:102AF0000E948A0CF5C098E0909352028E33E8F061
:102B0000A22FAE53BB0B22E32A9FB0012B9F700D67
:102B1000112403E111E0061B170B0233110514F019
:102B200002E310E0A80155276F5F7F4F83E592E035
:102B30000E94BB3261E0600FD0CF823311F0873347
:102B4000F9F460EF70E088E592E00E94973280E04F
:102B500092E1AAE7B0E08093530290935402A093CD
:102B60005502B093560275D860936702709368025D
:102B70008093690290936A021092570269E1ADCF87
:102B80008C3359F48CE0E2E9F2E0A3E5B2E0019085
:102B90000D928A95E1F76DE0A0CF853399F46091AD
:102BA0008705613041F480910201809353021092B5
:102BB000540263E092CF6330E1F78091010180938A
:102BC00053028BCF863339F48091050180935302F1
:102BD00090D862E082CF48E050E068EE70E083E594
:102BE00092E00E948E32809144018F3110F4109255
:102BF000560269E072CF993009F019C3813209F0A9
:102C000080C140918F055091900580918B058983FB
:102C10001A829091E800977F9093E8009A013327F9
:102C2000411105C09091E8009B779093E800FE0168
:102C300033961FC09BB5992341F1953031F19091A6
:102C4000E80093FD22C09091E80092FF12C090919D
:102C5000F3006091F200792F672B31F09091F10031
:102C600091932150310999F79091E8009B779093C7
:102C7000E80021153105F1F69091E80090FD05C0BE
:102C80009BB5992311F09530B9F78B3309F460C0E7
:102C90008D3391F0893309F068C08B81ECE18E9F10
:102CA000C0011124415050E0BE016C5F7F4F88523B
:102CB0009D4F0E94AB320DC0415050E06B81BCE192
:102CC0006B9FB00111246F5F7F4FCE0104960E946D
:102CD000CB320E948A0C8091840511E08111BFC023
:102CE0008091E80083FF11C08091890520918A05B9
:102CF000253009F4B7C108F011C1922F9D7F9130A2
:102D000009F477C1222309F453C18091E80083FFBD
:102D10000AC08091E800877F8093E8008091EB00F3
:102D200080628093EB008F2D8F708093E900CA59E9
:102D3000DF4F0FB6F894DEBF0FBECDBFDF91CF914E
:102D40001F910F91FF90BF90AF909F908F9008952B
:102D50009C81809102058F3F09F4BBCF61E0911106
:102D600001C060E00E94040DB4CF833309F43FC07A
:102D700060F4803349F0813309F0ABCF87E797E700
:102D8000909301088093000871DA843329F08A3324
:102D900009F09FCFEDDD9DCF80918405811199CF02
:102DA0008091CF02811195CF8FEF809305010E9412
:102DB000770D27EBA22E22E0B22E12E162E0812FE6
:102DC0000E947F0D87EC90E00197F1F700C00000B2
:102DD0008EEE810F0E94560DD5018D939D935D015E
:102DE0001F5F1E3159F781E08093CF0272CF80912F
:102DF000840581116ECF8091B60281116ACF8FEF69
:102E0000809305010E94770D10E000E0802F0E9462
:102E1000600E811111C062E0802F0E947F0DE7ECEF
:102E2000F0E03197F1F700C00000802F0E942A0DDA
:102E3000F801E256FD4F80830F5F1F4F08311105E7
:102E400029F781E08093B60244CF1093A60360E097
:102E5000CE018D5B9F4F8BD960E387E079D95BD939
:102E600080FDF3CF60E387E073D980E00E945D0EC0
:102E700089EA0E94FD0C60E2CE01019657D981E0FB
:102E80000E945D0E81E08093A6032ACF813C51F51C
:102E900080918D0590918E058130910539F42091B6
:102EA0008B0530918C05232B09F4B1C1019709F0F2
:102EB00017CF80918B0590918C058115914009F079
:102EC0000FCF64E188E091E0A5C1803CD1F480910E
:102ED0008D0590918E05049709F002CF60E48CE196
:102EE00091E098C1803C69F420918D0530918E0568
:102EF00040918B0550918C05242B352B232B09F405
:102F000092C18F77813209F0EBCE9A3009F4E8CE86
:102F10008091E800877F8093E800EACD283009F4AB
:102F200042C1293009F44CC1263009F0EECE805858
:102F3000823008F0EACEE0918B05F0918C05BE015D
:102F40006D5F7F4FEC3D43E0F40709F0ADC083E0D7
:102F50008A838AE289834FB7F894DB0120E03EE060
:102F600051E2E32FF0E050935700849120FF03C01B
:102F700082958F703F5F8F708A3008F493C0895CB0
:102F800090E08D939D932F5F243159F74FBF80912F
:102F9000E800877F8093E8006AE270E0CE01019646
:102FA0000E94D90B8091E8008B778093E800ADCE2A
:102FB000803891F0823809F0A8CE80918D058F700D
:102FC000873008F0A2CE8093E9002091EB0025FB2A
:102FD000222720F91092E9008091E800877F8093F2
:102FE000E8002093F1001092F1008091E8008E77C4
:102FF00021C0823009F089CE80918B05811115C0E6
:1030000080918D058F709FEF980F963008F07DCEE0
:103010008093E9009091EB0090FF07C0233079F492
:103020008091EB0080628093EB001092E900809128
:10303000E800877F8093E8000E948A0C66CE90911A
:10304000EB0090619093EB0021E030E001C0220F93
:103050008A95EAF72093EA001092EA008091EB004B
:103060008860E1CF811151CE10918B051F7780913F
:10307000E3008078812B8093E3008091E800877FD4
:103080008093E8000E948A0C8091E80080FFFCCFCA
:103090008091E30080688093E30082E0111183E077
:1030A0008BBD33CE805D6CCF8F2F99271A8219820A
:1030B00034E0DB011D923A95E9F78330910509F47C
:1030C0005CC0B0F48130910539F1029709F01DCE52
:1030D00086E38983809143018A8385E28B8323E0A1
:1030E000AE014F5F5F4F66EB70E084E193E03DC05F
:1030F000829709F00ACE809143018A3108F03AC0E4
:103100008AEE91E069E870E02091E800277F209343
:10311000E8000E94310C46CF809143018A518830EB
:1031200038F598E09983880F90E0FC01E652FC4F57
:10313000E491EA83AC014F5F5F4FFC01E552FC4F25
:10314000E491EB833AE03C8386539C4FFC018491ED
:103150008D83FA01E653FC4FE491EE83AE014F5F9D
:103160005F4F62E170E08AEE93E00E94FE08CDCDF1
:1031700020E0F4CF83E792E0C5CFE43070F4FF277E
:10318000EE0FFF1FE25FFC4F85919491FC012491AB
:10319000622F70E02111B8CFB8CDEE3E09F0B5CD69
:1031A0008CEF92E0F3CF803809F0AFCD8091E8004A
:1031B000877F8093E800809182058093F10015CF8E
:1031C0008111A3CD10918B05123008F09ECD809116
:1031D000E800877F8093E800109382050E948A0CA4
:1031E000112311F084E005C08091E30087FDFACF40
:1031F00081E08BBD42E261EC82E086D842E261EC84
:1032000081E082D842E261E883E07ED87ECD68E04A
:103210008CEF90E02091E800277F2093E80070E099
:103220000E94310C65CC64E084E091E0F3CF9032F1
:1032300009F067CE813C09F048CE20918D05309190
:103240008E052530310509F05CCE20918B0530913B
:103250008C052230310509F054CE6EE88CE591E002
:10326000D9CFEF92FF920F931F93CF93DF9300D0AC
:10327000CDB7DEB7082F142F732F8DB79EB79A8363
:10328000898350E0CA010196EDB7FEB7E81BF90B40
:103290000FB6F894FEBF0FBEEDBF8DB79EB7019677
:1032A0007C016183622F01960E94AB3241E0410FA5
:1032B000B701802FADD8E981FA810FB6F894FEBF2F
:1032C0000FBEEDBF0F900F90DF91CF911F910F9127
:1032D000FF90EF900895EF92FF920F931F93CF937B
:1032E000DF930F92CDB7DEB780910C01811109C039
:1032F0008FEF0F90DF91CF911F910F91FF90EF9083
:1033000008951982A0910601B0910701E09108018A
:10331000F09109018E010F5F1F4F980141E0519616
:103320006C9180819EDF7801882311F3A0910601C2
:10333000B0910701E0910801F0910901980141E085
:1033400015966C9180818DDF882391F2A091060102
:10335000B0910701E0910801F0910901980141E065
:1033600014966C9180817DDF882309F4C1CFE091B0
:103370000601F09107016481E0910801F0910901D3
:1033800080912301882309F455C08CE0898398013A
:1033900041E0808166DF882309F4AACF2FE788E324
:1033A00091E0215080409040E1F700C0000080ECA7
:1033B000898380910C0180FF02C080EE8983A091F7
:1033C0000601B0910701E0910801F0910901970110
:1033D00041E014966C91808144DF882309F488CF02
:1033E00081E090911201911101C080E0880F8983E2
:1033F000A0910601B0910701E0910801F091090147
:10340000970141E051966C9180812BDF882309F46C
:103410006FCF1982A0910601B0910701E0910801D8
:10342000F0910901970141E015966C91808119DFB7
:1034300081505FCF84E08983980141E0808111DF72
:10344000882309F455CF80911301811143C08091E5
:103450000C0180FF3FC080E68983A0910601B091F6
:103460000701E0910801F0910901970141E01496EC
:103470006C918081F6DE882309F43ACF2FE788E348
:1034800091E0215080409040E1F700C0000081E0D1
:1034900090911201911101C080E08983A0910601F1
:1034A000B0910701E0910801F0910901970141E015
:1034B00051966C918081D5DE882309F419CFA091B3
:1034C0000601B0910701E0910801F091090121E1A5
:1034D00031E0A9CF80E4C0CFCF93DF930F92CDB777
:1034E000DEB79C0180910C01811105C08FEF0F9018
:1034F000DF91CF91089581E02C3B310588F482E083
:103500002236310568F483E02A32310548F484E03C
:103510002431310528F485E02A30310508F486E0AD
:10352000898390910D019817A9F0A0910601B0919F
:103530000701E0910801F09109019E012F5F3F4FC3
:1035400041E012966C9180818CDE882379F289812A
:1035500080930D0180E0CBCFEF92FF920F931F93EA
:10356000CF93DF9300D0CDB7DEB7FC018B017A019A
:1035700080910C0181110AC08FEF0F900F90DF91A5
:10358000CF911F910F91FF90EF9008959E2F8F2F55
:103590009A838983A0910801B09109019B012E0FA4
:1035A000311D18968D919C9119978217930720F3DE
:1035B000E0910601F09107019E012F5F3F4F42E02D
:1035C000638D8C914EDE8823B9F2A0910601B091F3
:1035D0000701E0910801F09109019701402F5896E9
:1035E0006C9180813EDE8150C8CFCF93DF930F92E4
:1035F000CDB7DEB780910C01811105C08FEF0F9020
:10360000DF91CF91089588E1898380910A01833009
:10361000C1F0A0910601B0910701E0910801F0917D
:1036200009019E012F5F3F4F41E016966C9180810A
:1036300018DE882319F3898186958695869580936F
:103640000A0180E0DCCFCF93DF930F92CDB7DEB7D6
:1036500080910C01811105C08FEF0F90DF91CF9108
:103660000895198280910B018823C1F0A091060171
:10367000B0910701E0910801F09109019E012F5FCF
:103680003F4F41E017966C918081EBDD882321F359
:10369000898186958695869580930B0180E0DDCFA4
:1036A0000F931F93CF93DF930F92CDB7DEB7809127
:1036B0001301882309F45BC0A0910601B0910701B2
:1036C000E0910801F09109018E010F5F1F4F9801F1
:1036D00041E014966C9180810E945E12811107C0B6
:1036E0008FEF0F90DF91CF911F910F9108958981F6
:1036F00090910C0190FF3DC080628983A0910601EA
:10370000B0910701E0910801F0910901980141E0B1
:1037100014966C918081A5DD882311F38FE697E1E3
:103720000197F1F700C0000081E090912101911113
:1037300001C080E087958827879589839091220131
:10374000992311F080638983A0910601B09107014C
:10375000E0910801F0910901980141E057966C91C0
:1037600080817FDD882309F4BBCF1092130180E0B4
:10377000B8CF8F7DC2CFCF93DF930F92CDB7DEB797
:1037800069839E012F5F3F4F41E0682F82E569DD2D
:103790000F90DF91CF910895EF92FF920F931F93B7
:1037A000CF93DF93CDB7DEB768970FB6F894DEBF3F
:1037B0000FBECDBF7C0180910201909103018F3F2C
:1037C000980709F095C00E942D139C019093030166
:1037D000809302012F3F3F4FC1F465E580EFCBDFBF
:1037E0008AE18A95F1F700C060E08BEFC4DF9AE1CF
:1037F0009A95F1F700C00E942D13909303018093D6
:1038000002012AE12A95F1F700C08091020190910E
:10381000030183319F4F71F461E08BEFACDF8AE1EC
:103820008A95F1F700C065E580EFA5DF9AE19A95EA
:10383000F1F700C080910201909103019E7F0197F2
:10384000A9F563E08EEF97DF2AE12A95F1F700C032
:10385000AE01475F5F4F68E080E00E9409138FE888
:1038600091E00197F1F700C00000AE014F5F5F4F9C
:1038700068E080E00E94091348E050E0BE016F5FFD
:103880007F4FCE0109960E949E32892B09F05EC0BF
:103890008F859889892B09F060C027E53FE086E095
:1038A0003093F0012093EF01809300018091020199
:1038B00090910301813021E0920709F475C008F06E
:1038C00056C08330910509F469C008F04AC00097DA
:1038D00009F477C0019709F467C08BE098E19093F1
:1038E0000301809302011092F0011092EF015CC07D
:1038F0008B30984109F467CF8E010F5E1F4FA801EE
:103900006091000180E00E940913B801882389F0CA
:10391000F80180910001A801480F511D8FEF90E040
:103920004E175F0779F4992309F44DCF8F3F09F4BF
:103930004ACFE091EF01F091F0013097A9F1C70172
:10394000099532C02191922B8223EACF8FE891E032
:103950000197F1F700C000007BCF29E23FE088E04B
:103960009FCF419709F0B9CF8AE690E119C0823123
:103970002FEF920761F158F4833021E0920721F193
:103980008330934009F0A9CF8CEA9FE009C08331CE
:103990009F4F09F0A2CF89E590E102C08BEE9EE037
:1039A0009093F0018093EF0168960FB6F894DEBF14
:1039B0000FBECDBFDF91CF911F910F91FF90EF9080
:1039C00008958DE29BE2ECCF8AE99EE0E9CF89E1A0
:1039D00090E1E6CF1F93CF93DF930F92CDB7DEB781
:1039E000182F80912201811721F180E0111180E3CD
:1039F000898390911301992311F0826089838091CA
:103A00002101882319F0898180688983A0910601AA
:103A1000B0910701E0910801F09109019E012F5F2B
:103A20003F4F41E057966C9180811BDC81111093D0
:103A300022010F90DF91CF911F910895EF92FF9295
:103A40001F93CF93DF930F92CDB7DEB7182F8077F8
:103A500029F581E0111180E08295880F880F807C24
:103A60008983A0910601B0910701E0910801F091CE
:103A70000901CE0101967C019C0141E055966C91B3
:103A80008081EFDB970181110BC010920C010F9028
:103A9000DF91CF911F91FF90EF90089581E0E0CFEB
:103AA00089818F7B80930E0116FF32C0198215FD2C
:103AB00003C089818260898314FD03C0898181608C
:103AC000898313FD03C0898188638983A0910601DE
:103AD000B0910701E0910801F091090141E056968B
:103AE0006C918081BEDB882381F2812F877F11F06A
:103AF00080E070DF10930C01109215019FE728E31E
:103B000081E0915020408040E1F700C00000BFCF2D
:103B100084E08983CCCFCF93DF930F92CDB7DEB70C
:103B2000909123019923F9F091E0811101C090E077
:103B3000990F9983A0910601B0910701E0910801C6
:103B4000F09109019E012F5F3F4F41E051966C912A
:103B5000808187DB882319F08981809312010F907F
:103B6000DF91CF91089590910C019923C1F388239F
:103B700021F0909112019111F2CF8983DBCF1F9335
:103B8000CF93DF93D82F80912301C0E081111FC014
:103B900080910C018823B9F0109111018D2380933D
:103BA0001101C1E08D1301C0C0E0C19580911501E4
:103BB0008D2B59F081E0AFDFDD2349F08CDB8823CA
:103BC00031F010931101CFEF02C080E0A4DF8C2F01
:103BD000DF91CF911F9108951F93CF93DF9300D072
:103BE000CDB7DEB7182F81111EC080E0F3DE198239
:103BF00087E08A83A0910601B0910701E091080156
:103C0000F09109019E012F5F3F4F42E055966C9164
:103C1000808127DB8111109215010F900F90DF91A9
:103C2000CF911F91089581E0D5DE80E28983113024
:103C300041F51A8285E090E04FDC8A8120E4829F82
:103C4000C001112487608A83A0910601B091070109
:103C5000E0910801F09109019E012F5F3F4F42E082
:103C600055966C918081FDDA8823B9F288E08093C3
:103C70000C0110920E0181E08093150180E07FDF3E
:103C8000CCCF163018F481E08A83D4CF153128F4D4
:103C900082E08A838AE090E0CFCF83E08A8384E168
:103CA00090E0CACF0F931F93CF93DF930F92CDB7BE
:103CB000DEB78C0180910C01811107C08FEF0F904E
:103CC000DF91CF911F910F91089580912301811170
:103CD000F5CF80911501882351F0C801019788978D
:103CE00020F4802F79DF80E0EACF80E075DFB80133
:103CF000093E134010F068EE73E06430710510F473
:103D000064E070E008EE13E0C8010E94F7316150F2
:103D10006983A0910601B0910701E0910801F0913B
:103D200009019E012F5F3F4F41E011966C91808108
:103D300098DA882309F4C2CF698170E06F5F7F4F02
:103D4000C8010E940B327093100160930F01CB01E8
:103D500096958795C1DBC7CF7F928F929F92AF9246
:103D6000BF92CF92DF92EF92FF920F931F93CF9368
:103D7000DF93CDB7DEB7CE53D2400FB6F894DEBF97
:103D80000FBECDBF43E151E061E070E0CE0101968E
:103D90000E94BB328D859E85AF85B8890897A105A5
:103DA000B10540F443E151E060E070E0CE010196DE
:103DB0000E94BB3289859A85AB85BC858531944D3F
:103DC000A24AB105B1F043E151E06CEF73E0CE01DE
:103DD00001960E948E321D861E861F86188A42E436
:103DE00050E060EA74E0CE018B559F4F0E948E3206
:103DF00008C08D859E85AF85B8890297A105B1055C
:103E000070F38A81873009F040C08FE08A838D8506
:103E10009E85AF85B8890497A105B10548F448E5AA
:103E200050E068E474E0CE01835B9F4F0E948E32C5
:103E30008D859E85AF85B88986309105A105B10530
:103E400048F51C82C951DF4F1882C75ED040EA8115
:103E5000F0E0E15FFA4FE491E23021F48AA591E0CD
:103E600089278AA743E050E06CE075E0CE018F5EC1
:103E70009E4F0E948E3244E250E068EE74E0CE0124
:103E800083519F4F0E948E3213C0883009F0BFCFFC
:103E90008DE0BCCF86309105A105B10599F289303E
:103EA0009105A105B10598F20D97A105B105D0F2D4
:103EB0008D859E85AF85B8898E309105A105B105A8
:103EC00020F588A9843028F48230E8F081E088ABBE
:103ED00004C08450823008F418AACD5EDE4F1882E8
:103EE000C351D1408FE090E0A0E0B0E08D879E8785
:103EF000AF87B88B43E151E061E070E0CE010196FD
:103F00000E94CB3206C082E0E2CF0E97A105B10538
:103F100021F383E191E0FE013196DE01AC5EBE4FFC
:103F200001900D920197E1F7CB5EDE4F8881C5517C
:103F3000D1408093440180934301C95EDE4F988154
:103F4000C751D14090938805CC5EDE4F9881C45113
:103F5000D14090938705E82FF0E0E15FFA4F94910C
:103F600021E0913009F020E020938605E49121E0E2
:103F7000E23009F020E020938505E23009F0C6C167
:103F8000843140F487E080934301913019F488E054
:103F90008093430185B5826085BD85B5816085BD0F
:103FA00080916E00816080936E00C650DE4F8881E4
:103FB000CA5FD140882309F4B0C10E94290EC65CB3
:103FC000DD4F688379838A839B83CA53D2407E0105
:103FD00089EDE81A8DEFF80AC550DE4F8881998186
:103FE000AA81BB81CB5FD140F70180839183A283FB
:103FF000B383C65CDD4F88819981AA81BB81CA5396
:10400000D24089839A83AB83BC831092A60360E07D
:1040100080E00E947F0D60E08AE00E947F0D00E05A
:1040200020E040E060E072E18AE790E00E94BA0D93
:1040300060E080E00E94040D81E00E945D0EAFE030
:10404000B7E21197F1F700C0000061EF84E00E9431
:10405000A81062E083E00E94A810BE01695C7D4F59
:1040600086E00E944211C95CDD4F6881C753D2408F
:10407000697FC95CDD4F6883C753D24086E00E94E8
:10408000A8108DE10E945311182F0E9483108DE11A
:104090000E9453110E2D882341F0181302C00E9474
:1040A000831060E08DE10E94A810BE01675C7D4F27
:1040B00086E00E944211C75CDD4F6881C953D2403F
:1040C000677D6360C75CDD4F6883C953D24086E07B
:1040D0000E94A810BE01695C7D4F86E00E944211DB
:1040E000BE01695C7D4F80E00E944211C95CDD4FDA
:1040F0006881C753D2406C60C95CDD4F6883C75389
:10410000D24080E00E94A8106CE485E00E94A810D4
:104110008DE10E945311682F64608DE10E94A81008
:104120008CE10E945311682F6F638CE10E94A810EC
:104130008DE10E945311682F66608DE10E94A810E6
:104140008CE10E945311682F63608CE10E94A810DB
:104150006FE381E00E94A81060E787E00E94A8104A
:104160000E947D100E94771060E787E00E94A810EF
:10417000C95CDD4F1882C753D240BE01695C7D4FD8
:1041800080E00E944211C95CDD4F1881C753D240C4
:104190001C7860E080E00E94040D612F636080E085
:1041A0000E94A81061E080E00E94040D602F7F2D26
:1041B0008AE00E946111602F7F2D80E10E946111D1
:1041C00060E080E00E94040DBE016F5F7F4F8BE0D6
:1041D0000E94611163E082E00E94A81061E080E02B
:1041E0000E94040D80916900806880936900EB9AB9
:1041F00081E08093840580914401823209F073C587
:104200008EE699E0909328058093270581E0C85EAB
:10421000DE4F9881C851D140923009F480E08093FC
:10422000810588E5FE01E05AFE4FA9E2B5E0019064
:104230000D928A95E1F78091D8008F7E8093D80007
:104240008091D70081608093D70084E082BF81E0B5
:10425000809383058091D8008E7F8093D800109240
:10426000E2001092DA001092E1008091D8008F777E
:104270008093D8008091D80080688093D800809186
:10428000D8008F7D8093D80019BC1BBC109282058A
:104290008091E0008B7F8093E0008091D800816066
:1042A0008093D80042E360E080E00E948411809116
:1042B000E1008E7F8093E1008091E2008160809335
:1042C000E2008091E20088608093E2008091E0004B
:1042D0008E7F8093E0008091D80080618093D80029
:1042E0007894C25CDD4F0FB6F894DEBF0FBECDBF31
:1042F000DF91CF911F910F91FF90EF90DF90CF90C2
:10430000BF90AF909F908F907F900895913009F06B
:1043100041CE843108F03ECE3ACEC75EDE4F888172
:10432000C951D14080932505C65EDE4F8881CA51B0
:10433000D1408093240580918505882309F401C428
:10434000CA5DDD4F8881C652D240817080932305BB
:1043500080917A00846080937A0080917A008260F4
:1043600080937A0080917A008E7F80937A0080918A
:104370007A00806880937A00CC5EDE4F8881C451D9
:10438000D140823009F4DFC3833009F4DFC38130C8
:1043900099F4C55EDE4F8881CB51D1408093A7034D
:1043A0008CEC9BE190932205809321058EE09BE0AD
:1043B0009093200580931F05CC5EDE4F8881C45109
:1043C000D140833009F012C4CA5EDE4F8881C651E5
:1043D000D1408130C9F41092B60381E08093B503D7
:1043E0001092B403589A599A8091B9008E7F8093A5
:1043F000B9008091B9008D7F8093B9008AE08093E5
:10440000B80085E48093BC00CA5EDE4F9881C65137
:10441000D14081E0913041F0CC5EDE4F2881C45123
:10442000D140213009F080E0817080930405C85E9E
:10443000DE4F8881C851D140823009F4F0C381E059
:10444000CC5EDE4F2881C451D140233009F080E09A
:10445000817080930305C150DE4F8881CF5FD140CA
:10446000809302059093010584E2FE01FE5FADEDAD
:10447000B4E001900D928A95E1F71092DC0410925D
:10448000DB040E94770D10921A0410921904109206
:10449000B8031092B703CE018C5E9E4F7C016C0175
:1044A000B12C75E0972E8E010C5F1F4FF801292D5E
:1044B00011922A95E9F7B982D60190968C90A09036
:1044C0008505BFEF8B1699F1E5E0BE1209C0AA2061
:1044D00039F0CA5EDE4F8881C651D140833039F54C
:1044E000D60191967C9061E0882D0E947F0D7B82A1
:1044F000EEEEE80DF0E0E85CFA4FE491EA83A0917B
:104500001904B0911A04CD01019690931A04809376
:10451000190463E0AA0FBB1F6A95E1F7A754BC4FCB
:1045200088E0FE01319601900D928A95E1F7B394EF
:10453000B2E0CB0ED11CE6E0BE12B8CFC150DE4FC8
:104540008881CF5FD1408F3F19F060E00E947F0DDE
:1045500010E000E05CE0852ECC5EDE4F8881C45127
:10456000D140823009F06EC3D7015096BC90BFEFA6
:10457000BB1609F4A3C081E00C30110538F4980192
:10458000285031092230310508F080E0382F317091
:1045900080FF08C021E0C85EDE4F8881C851D1404D
:1045A000813009F020E0C25CDD4F0883CE53D24059
:1045B0008B2D90E0FC01E158FA4F4491FC01E05A48
:1045C000FA4F7490E42FF0E0EE0FFF1FEC5BFA4F10
:1045D000C590D490E22FE170C65CDD4FE883CA53EA
:1045E000D240CC5DDD4F9880C452D2408091860588
:1045F000882309F416C3332309F413C3F1E1FB152F
:1046000008F00FC3CE5BDE4F8881C254D14028E052
:10461000829FC00111241B821C821D82B98221E06D
:1046200028879F838E8361E08B2D0E947F0DEEEEA5
:10463000EB0DF0E0E85CFA4FE491A0911904B09121
:104640001A042A2FEA83CD01019690931A048093CD
:10465000190433E0AA0FBB1F3A95E1F7A754BC4FEA
:1046600088E0FE01319601900D928A95E1F7409124
:10467000DB045091DC04CA0101969093DC04809322
:10468000DB04849EF001859EF00D1124E55EFB4F56
:104690007082D282C182C65CDD4F8881CA53D2400B
:1046A0008383B482C25CDD4F9881CE53D240958320
:1046B0001682178210861186928623870F5F1F4FFE
:1046C0008FEFE81AF80A0031110509F045CFAA204A
:1046D00009F423C2CA5EDE4F1881C651D1401130A1
:1046E00009F0F1C2CD5BDE4F8881C354D140809385
:1046F0001A05789480E88983A0910601B09107019A
:10470000E0910801F09109019E012F5F3F4F41E0C8
:1047100055966C9180810E943119882309F467C0F5
:104720009FEFA4E3BCE09150A040B040E1F700C08F
:1047300000001982A0910601B0910701E0910801E3
:10474000F09109019E012F5F3F4F41E055966C911A
:1047500080810E943119882309F449C01092140104
:104760008FEF80930C0180930A0180930B0180935B
:104770000D012FEF3FEF3093100120930F01809335
:1047800011018093130110930E01109321011092D7
:1047900022011092160110921501E7E1F1E08AE082
:1047A000DF011D928A95E9F71092230110922401EE
:1047B00010922601109225010E94F51A811117C04E
:1047C0000E94231B811113C08AE290E00E946C1AA0
:1047D00081110DC082E390E065DA811108C0CFD964
:1047E000811105C00E94501B811101C027D988E7A3
:1047F00025D90E94F51A0E94231B88E7C0D9809111
:104800002401811199C0F12CE12C86EFC82E8BE098
:10481000D82E86010E191F090131110510F000E193
:1048200010E0F701E256FA4FDE011196CD01800F3C
:10483000911FA817B90709F042C2AE014F5F5F4F41
:10484000B801C7010E94AC1A811176C080910C0199
:10485000882309F471C09E2D8F2DC95CDD4F99838B
:104860008883C753D240E0910801F0910901208567
:104870003185C8018E0D911D2817390708F45CC0D9
:10488000A0910601B09107019E01295C3D4F42E0D5
:104890005B966C9180810E943119882309F44CC089
:1048A000A0910601B0910701E0910801F091090182
:1048B0009E01295D3D4F402F58966C9180810E944A
:1048C0005E128823C9F1A801BE01695D7D4FCE014A
:1048D00001960E949E32892B79F5E00EF11EB6EF0B
:1048E000EB16BBE0FB0608F494CF84E0C95CDD4F17
:1048F0008883C753D240C85CDD4F1882C853D2406A
:10490000A0910601B0910701E0910801F091090121
:104910009E01295C3D4F42E05D966C9180810E9432
:104920003119882349F081E08093240188EC90E0DC
:1049300090932601809325018CE0E7EDF1E0DE0104
:10494000119601900D928A95E1F7C95DDD4F1882AD
:10495000C752D24085E0C85DDD4F8883C852D2403F
:10496000AE01495D5D4F62E070E086E192E00E9439
:10497000AC1A811111C0AE014F5F5F4F6CE070E067
:1049800081EC9AE00E94AC1A811106C08EE190E0A1
:1049900090930E0580930D0580912301813011F1D4
:1049A000809124018823F1F080E0B5D80E94501B4B
:1049B000809125019091260175D91982E091080115
:1049C000F09109019E012F5F3F4F41E063E280813A
:1049D0000E943119882331F081E0809323019BD814
:1049E0000E946B1982E089838AEC8A8383EE8B8331
:1049F00019E01C83AE014F5F5F4F64E070E088E612
:104A000090E00E94AC1A83EA89838A838B838C832B
:104A10008D838E838F83888789878A87AE014F5FD6
:104A20005F4F6AE070E087EA9AE00E94AC1A88ED76
:104A30008983AE014F5F5F4F61E070E086EB9AE0E3
:104A40000E94AC1AE4EEF1E0DE01A95DBD4F0190D9
:104A50000D921A95E1F7AE01495D5D4F69E070E096
:104A600088EB94E00E94AC1A44E050E06BE870E000
:104A7000CE01895D9D4F0E94B432AE01495D5D4F0C
:104A800064E070E088E99AE00E94AC1A0E946B1919
:104A900080E2C95DDD4F8883C752D24088E2C85D9D
:104AA000DD4F8883C852D24080E3C75DDD4F8883E5
:104AB000C952D24088E3C65DDD4F8883CA52D240D6
:104AC000AE01495D5D4F64E070E08EE99AE00E94BE
:104AD000AC1A0E946B1988E190E090930C058093CA
:104AE0000B050E946B1980E180930F0582EB97E222
:104AF000909319058093180586E0FE01E25EFD4F54
:104B0000A1E1B5E001900D928A95E1F7C15CDE4F1D
:104B10008881CF53D14080931005CF5BDE4F8881D1
:104B2000C154D14010921D0580931E05C05CDE4F1C
:104B30008881C054D14090E090931C0580931B0560
:104B40005ACB80E002CC81E49BE032CC01E021E052
:104B500041E060EA76E881E090E00E94BA0DE9E881
:104B6000F5E08491EAE6F5E01491E82FF0E0EE0F2D
:104B7000FF1FEE5AFA4FE590F490CC5DDD4F88812F
:104B8000C452D2401093A803F092AA03E092A90362
:104B90001092AB039AE09093AC031092AD03109285
:104BA000AE031092AF031092B0031092B103809342
:104BB000B2038FEF8093B30360E08AE00E947F0D21
:104BC0000E94240DF7018081182B1083F8E2FA95DA
:104BD000F1F78CE89BE09093200580931F0582E815
:104BE00094E19093220580932105E6CBC85EDE4FC9
:104BF0008881C851D140823049F400E021E041E091
:104C000060E079E08DE390E00E94BA0DCC5EDE4F6B
:104C10008881C451D140813009F0D6CBDCCB81E012
:104C200017CC62E0621B8B2D0E947F0DAA2041F001
:104C30000230110528F4CB5DDD4F9880C552D2407B
:104C40002FEF15CD702FEFE7F5E08491E0E6F5E06A
:104C50006491E82FF0E0EE0FFF1FEC5BFA4F8591B7
:104C60009491CC5DDD4FA881C452D240AA2041F07E
:104C70000230110528F4CB5DDD4FA881C552D2402A
:104C80004091DB045091DC049A012F5F3F4F309339
:104C9000DC042093DB04849EF001859EF00D11243A
:104CA000E55EFB4F60839283818313821482758358
:104CB0001682178210861186A2872FEFFECC2491D0
:104CC0002D933196B6CD123009F016CFC25CDE4F6F
:104CD0008881CE53D1408093170562E00E947F0DFA
:104CE00082E49DE005CF833208F090CA843118F445
:104CF00084E991E187CA9CEE980F963008F486CA41
:104D0000803258F046E050E061ED71E087E391E0D9
:104D10000E948E3286E080932605809144018A317C
:104D200049F48DE080932A018CE080932B0183ED80
:104D300099E068CA982F9D7F4EE050E060EB71E1EA
:104D40009C3171F04EE050E062EA71E18B3141F04C
:104D50008D3111F0803259F74EE050E064E971E195
:104D600089E291E00E948E32E2CFCF93DF9300D0B0
:104D700000D0CDB7DEB720E030E040E057E46983F3
:104D80007A838B839C8369817A818B819C810E9449
:104D90005D3169837A838B839C8369817A818B817E
:104DA0009C810E94FA30CB010F900F900F900F90D2
:104DB000DF91CF9108958F929F92AF92BF92CF9241
:104DC000DF92EF92FF920F931F93CF93DF93CDB7B4
:104DD000DEB728970FB6F894DEBF0FBECDBF8C01AB
:104DE0006F8378872F8138852817390771F480E021
:104DF00090E2121613060CF471C090E080E0232BB1
:104E000009F46CC080E090EA69C0990F880B982F74
:104E100080959095980128273927A901481B590B9F
:104E20005E834D838F819885990F880B982F80958D
:104E300090952F81388528273927B901681B790B70
:104E40007A83698364EE77EF81EB9DE38EDFD82E62
:104E5000C92E69EF7DE78CEA9EE387DF7C018F81B5
:104E600098859C01990F440B550B4801012E000CAD
:104E7000AA08BB08A981BA816D817E81A617B707F0
:104E80000CF03FC0D501C4016FE0880F991FAA1F25
:104E9000BB1F6A95D1F789839A83AB83BC83BC011E
:104EA000CD010E9440324901C901990F880B982F0A
:104EB00080959095BC0162277925681B790B8D2D13
:104EC0009C2D0E94FA10B4018E0D9F1D0E94FA10B5
:104ED000AF81B8851A161B060CF0905828960FB6AD
:104EE000F894DEBF0FBECDBFDF91CF911F910F9120
:104EF000FF90EF90DF90CF90BF90AF909F908F90FA
:104F00000895CA01B9012FE0660F771F881F991F06
:104F10002A95D1F769837A838B839C83A5019401B9
:104F20000E9440324901C901990F880B982F809542
:104F30009095BC0168257925681B790B8D2D9C2DDA
:104F40000E94FA10B4018E0D9F1D0E94FA109C0160
:104F500080E090E41016110614F080E090EC821BC3
:104F6000930BBCCF8F929F92AF92BF92CF92DF9262
:104F7000EF92FF920F931F93CF93DF93CDB7DEB7DE
:104F8000EA970FB6F894DEBF0FBECDBF89AF9AAFD8
:104F90001092190210921802D0900F05ED2CF12CEE
:104FA00080912301882311F180910C018823F1F075
:104FB000A0910601B0910701E0910801F09109016B
:104FC0009E012F5D3F4F42E01C966C9180810E94B4
:104FD0005E12882359F009A11AA110270127102772
:104FE0000E151F0508F08FC010921702809118024D
:104FF000909119028115914009F0B6C2C0901A0231
:10500000D0901B02E0901C02F0901D0277E1F59415
:10501000E794D794C7947A95D1F7D0921B02C092A7
:105020001A0280901E0290901F02A0902002B09061
:105030002102E7E1B594A79497948794EA95D1F774
:1050400090921D0280921C024091220250912302F4
:105050006091240270912502F7E175956795579547
:105060004795FA95D1F750931F0240931E02009185
:105070002602109127022091280230912902A7E1EF
:105080003595279517950795AA95D1F71093210285
:105090000093200280911A05009FF001019FF00DFE
:1050A000F00D1124813009F4A8C1823009F4AFC297
:1050B000811136C2449FC001459F900D900D11246F
:1050C0008E0F9F1F880F991FE0E0F0E8E81BF90B97
:1050D000489DD001499DB00D589DB00D11240C9DE7
:1050E000C0010D9D900D1C9D900D11249D01281B4C
:1050F000390BC901BF01880F991F5DDE909316021D
:10510000809315020DC2A0910801B0910901E091B0
:105110000601F09107018C9111962D913C913695E5
:1051200027952017310780F49E012F5D3F4F41E006
:1051300063890E945E12882309F458CF89A184FFF5
:1051400003C00E946B1952CFA0910601B0910701D4
:10515000E0910801F09109019E012F5F3F4F4D2D15
:105160001D966C9180810E945E12882309F43ECFC7
:10517000C801B7010E94F731615060931702E091B6
:105180000B05F0910C05CF0184719927892B09F447
:1051900032C129813A814B815C81CA01B9010E94E7
:1051A0005C324B015C0180921A0290921B02A09229
:1051B0001C02B0921D028D819E81AF81B885BC0119
:1051C000CD010E945C326B017C01C0921E02D09224
:1051D0001F02E0922002F092210229853A854B8538
:1051E0005C85CA01B9010E945C328B019C0100936D
:1051F00022021093230220932402309325028D85EE
:105200009E85AF85B889BC01CD010E945C32AB019F
:10521000BC014093260250932702609328027093AA
:105220002902C501BB2797FDB095AB2F8BA39CA38B
:10523000ADA3BEA3C701BB2797FDB095AB2F8FA32E
:1052400098A7A9A7BAA7C901BB2797FDB095AB2F0F
:105250008BA79CA7ADA7BEA7CB01BB2797FDB09599
:10526000AB2F8FA798ABA9ABBAAB2BA13CA14DA19B
:105270005EA1CA01B9010E94E8316BA37CA38DA392
:105280009EA32FA138A549A55AA5CA01B9010E941C
:10529000E8316FA378A789A79AA7CBA0DCA0EDA0DF
:1052A000FEA0C60ED71EE81EF91E2BA53CA54DA5D7
:1052B0005EA5CA01B9010E94E831C60ED71EE81EDC
:1052C000F91E2FA538A949A95AA9CA01B9010E94F6
:1052D000E8316BA37CA38DA39EA3C60ED71EE81E48
:1052E000F91E9FE0F91AA1E0CA16D104E104A2E078
:1052F000FA0638F00E946B191092190210921802E7
:1053000075CE8091180290911902916090931902C4
:105310008093180280E1E6FF39C0282F30E0A1E039
:10532000B0E0AC0FBD1FA20FB31F9C91DE01A20F16
:10533000B31F12964C91592F5093010040930000D7
:10534000DE01A20FB31F13969C91DE01A20FB31FC3
:1053500014964C91592F5093030040930200DE01A4
:10536000A20FB31F15969C91159716962C91392F65
:1053700030930500209304008A5F20911802309139
:10538000190228603093190220931802E078F17016
:10539000EF2B09F42BCE90E0E1E0F0E0EC0FFD1FE5
:1053A000E80FF91F3081FE01E80FF91F22813093C9
:1053B000010020930000FE01E80FF91F3381FE0178
:1053C000E80FF91F24813093030020930200FE01AF
:1053D000E80FF91F25818681922F90930500809315
:1053E000040080911802909119028067909319022D
:1053F00080931802FBCD80E08ECF089DC001099DEF
:10540000900D189D900D11244C9D90014D9D300DD7
:105410005C9D300D11247C01E21AF30AB701C7012B
:105420000E94FA108C01BC010E94FA105C01BC01C0
:105430000E94FA106C0160E670EB89E39DE395DC55
:10544000B8010E94FA108BA39CA36AE27EEE87E368
:105450009CE38BDC8FA398A76EEF7AEB87ED9CE340
:1054600084DCB8010E94FA108BA79CA766EA79EB4E
:1054700088EA9CE37ADC8FA798AB62E377E88AEF4F
:105480009CE373DCB8010E94FA108BAB9CAB63E821
:105490007EEC86E39DE369DC8DAB9EAB6AEC79E93B
:1054A00089E99DE362DCB8010E94FA108FAB98AFE6
:1054B0006AEA7AEA8AE29EE358DC4C01B5018BA1E4
:1054C0009CA14FA158A5841B950B0E94FA102BA5F7
:1054D0003CA5AFA5B8A92A0F3B1FB601820F931FA9
:1054E0000E94FA106C01B5018BA99CA9EDA9FEA937
:1054F0008E0F9F1F0E94FA108C0D9D1D2FA938AD95
:10550000820E931EB801880D991D0E94FA10B701F2
:105510000E94FA10E80EF91EF0921602E0921502AF
:1055200080911502909116028A3939E193070CF4A3
:105530008DC089E999E1909316028093150220911C
:1055400015023091160245E0429FC001439F900D25
:10555000112420911005222319F09195819591092C
:105560009093160280931502209115023091160235
:1055700030939D0220939C02032E000C440B550B8C
:105580008091130590911405092E000CAA0BBB0BFA
:10559000281B390B4A0B5B0BA0911105B09112052A
:1055A000B7D720E034E040E050E06AD7DA01C90123
:1055B0009058A109B109811550E895075FEFA5073B
:1055C000B50724F480E090E8AFEFBFEF8115E0E885
:1055D0009E07A105B10524F08FEF9FE7A0E0B0E0A2
:1055E000E9ADFAAD93878287EA960FB6F894DEBFED
:1055F0000FBECDBFDF91CF911F910F91FF90EF9024
:10560000DF90CF90BF90AF909F908F900895CC9CEB
:10561000C001CD9C900D900D11248E0F9F1F880FFF
:10562000991FE0E0F0E8E81BF90B8C9CD0018D9C01
:10563000B00D9C9CB00D1124049FC001059F900DDE
:10564000149F900D11248A0F9B1F54CD8736964EC0
:105650000CF075CF87E696EE6ECF8F929F92AF9249
:10566000BF92CF92DF92EF92FF920F931F93CF934F
:10567000DF938C01EB0188818058990BF80114822B
:10568000858389818058990B168287838091A7032F
:10569000882309F43EC02D81822F90E0CB80F4E076
:1056A000CF9E60011124AC0134E0559547953A95A1
:1056B000E1F743705527C42AD52A3FEFC31A31E0DA
:1056C000D30AEC80E4E0EE9E700111249595879555
:1056D0009595879583709927E82AF92AFFEFEF1AA5
:1056E000F1E0FF0A8A8134E0839FC00111242295F2
:1056F000269526952370822BB7018F5F91405BDB47
:10570000F80191878087B701C60155DBF8019387BF
:1057100082878D81982F90959170B92EB29490EFD9
:10572000B922A12C869591E089278170982E9294B8
:10573000990C990C20EC9222812CA828B928B092BF
:10574000F201A092F101DF91CF911F910F91FF9093
:10575000EF90DF90CF90BF90AF909F908F90089583
:105760001F920F920FB60F9211242F933F934F93D6
:105770005F936F937F938F939F93AF93BF93EF93B9
:10578000FF938091E10082FF09C08091E20082FFD7
:1057900005C08091E1008B7F8093E1008091DA0069
:1057A00080FF15C08091D80080FF11C08091DA0081
:1057B0008E7F8093DA008091D90019BC80FF7FC072
:1057C00082E089BD09B400FEFDCF81E08BBD8091F0
:1057D000E10080FF16C08091E20080FF12C080913E
:1057E000E2008E7F8093E2008091E20080618093EE
:1057F000E2008091D80080628093D80019BC85E0D7
:105800008BBD8091E10084FF24C08091E20084FF81
:1058100020C019BC82E089BD09B400FEFDCF809193
:10582000D8008F7D8093D8008091E1008F7E809397
:10583000E1008091E2008F7E8093E2008091E2009F
:1058400081608093E200809182058823D1F184E019
:105850008BBD8091E10083FF21C08091E20083FF36
:105860001DC08091E100877F8093E10082E08BBDC5
:10587000109282058091E1008E7F8093E1008091FB
:10588000E2008E7F8093E2008091E200806180934D
:10589000E20042E360E080E00E948411FF91EF911A
:1058A000BF91AF919F918F917F916F915F914F9138
:1058B0003F912F910F900FBE0F901F9018951BBC1A
:1058C00086CF8091E30087FD02C081E0C1CF83E0F5
:1058D000BFCF1F921FB61F9211248F939F93AF9338
:1058E000BF9380914E0290914F02A0915002B091CF
:1058F00051020196A11DB11D80934E0290934F025B
:10590000A0935002B0935102BF91AF919F918F919C
:105910001F901FBE1F9018951F920F920FB60F92E7
:1059200011242F933F934F935F936F937F938F93A4
:105930009F93AF93BF93EF93FF938091B900887FBC
:10594000883309F461C0B8F5803291F168F5883088
:1059500009F452C0A0F4882309F472C0FF91EF91BA
:10596000BF91AF919F918F917F916F915F914F9177
:105970003F912F910F900FBE0F901F90189580317F
:10598000D9F1883159F790914C0280914B029817C8
:1059900050F5E0914C0281E08E0F80934C02F0E0D4
:1059A000E55DFD4F80812AC0883269F38033B1F60E
:1059B00080932A0207C0803579F138F48034C1F130
:1059C000883461F60E947511C9CF883539F6E091A7
:1059D0004C0281E08E0F80934C028091BB00F0E07E
:1059E000E55DFD4F80838091B5038111EBCF81E0B0
:1059F0008093B40384EA0BC080914D028093BB0076
:105A000085EC8093BC00AACF80932A0285EC80931A
:105A1000BC001092B603A2CFE0914C0281E08E0F41
:105A200080934C028091BB00F0E0E55DFD4F8083E8
:105A300090914C0280914B02981710F385E8E1CFCA
:105A400010922A02BFCF8F9381E08093A6038F919B
:105A50001895CDB7DEB760970FB6F894DEBF0FBECE
:105A6000CDBF0E94AC1E0E94DD1480918405882366
:105A7000E1F16CE08AE993E00E94B7104CE050E05D
:105A80006AE873E08AE993E059D5892B61F3809144
:105A9000E80080FFE8CFE0912705F09128054AE96A
:105AA00053E060E373E081E393E009958091300374
:105AB0008823C9F20E94D70C6093960370939703D2
:105AC000809398039093990380913103873008F075
:105AD0004AC3853008F070C3882309F467C3843053
