:1000000097C700000C9467240C944E23B2C70000DD
:10001000B0C70000AEC70000ACC70000AAC7000010
:10002000A8C70000A6C70000A4C70000A2C7000020
:10003000A0C700009EC700009CC700009AC7000030
:1000400098C7000096C7000094C7000092C7000040
:1000500090C700008EC700008CC700000C94A92335
:1000600088C7000086C7000084C7000082C7000060
:1000700080C700007EC700007CC700007AC7000070
:1000800078C7000076C7000074C7000072C7000080
:1000900070C700006EC700006CC700000C94CC2332
:1000A00068C7000066C7000064C7000062C70000A0
:1000B00060C700005EC700005CC700005AC70000B0
:1000C00058C7000056C7000054C7000052C70000C0
:1000D00050C700004EC700004CC700004AC70000D0
:1000E00048C7000000002100240027002A002D003E
:1000F0003000330001010000040107010A01FF087C
:100100000F0C21260107000000006D656761323584
:10011000363000020F00000001010115D4A2000FCB
:10012000000000FFFFFFFFFFFFFFFFFFFFFFFFFFDC
:10013000FFFFFFFF00FF00FF00FF00FF00FF004088
:10014000404000B80B04160D0E0F33280B504F52D1
:100150005151FFFFFFFFFFFF00FF00FF00FF000DF9
:100160000080000EFF000010FFFF000F0000FF09DD
:10017000FF4500000000000000000000000000003B
:10018000000000000000000000000000000000006F
:10019000000000000000000000000000000000005F
:1001A000000000000000000000000000000000004F
:1001B000000000000000000000000000000000003F
:1001C000000000000000000000000000000000002F
:1001D000000000000000000000000000000000001F
:1001E000000000000000000000000000000000000F
:1001F0000000000000000000000000000000FF0000
:10020000000080000000000080000000000080FF6F
:100210007F00000080FF7F00000080FF7F00000063
:1002200080FF7F05140000000000000000000002B5
:1002300000000101020200000000000202020101B0
:10024000000201020100020100000202020101009D
:100250000020002300260029002C002F003200007F
:100260000100000301060109010000220025002809
:10027000002B002E003100340002010000050108AF
:10028000010B01010210202008081020401020401E
:10029000800201020108040201010204081020404A
:1002A0008080402010080402018004020180402068
:1002B0001008040201080402010102040810204091
:1002C0008001020408102040800505050507050887
:1002D000080808020202020A0A08080404040401C9
:1002E00001010101010101030303030303030304EB
:1002F0000707070C0C0C0C0C0C0C0C02020202067B
:10030000060606060606060B0B0B0B0B0B0B0B006B
:100310000070000000002400000002000300000044
:10032000650054FFEF0000FA80000B128200010309
:100330000C30C30E8C8CE914D5400213710F8E382B
:1003400083F8833000F883258EF8833000F883FF2C
:10035000FFFFFF0FFEA9D6240004001A8279A10036
:1003600000003CFFFF00000010000038836FA20077
:100370003E03304000000002CAE3093E8000002036
:1003800000000000000000400000006000000000CD
:100390000C0000000C186E000006920A16C0DFFF69
:1003A000FF0256FD8CD377FFE1C496E0C5BEAA00DC
:1003B000000000FFFF0B2B00001657000003594000
:1003C00000000000001DFA00026C1D000000003F4C
:1003D000FFDFEB003EB3B6000D227800002F3C009B
:1003E000000000001942B5000039A20000B365D931
:1003F0000E9FC91DCF4C3430000000500000003B60
:10040000B67AE80064000000C80000000000001098
:100410000000001000FA921000225E000D229F00E2
:1004200001000000320000FF46000063D40000100D
:1004300000000004D6000004CC000004CC00000042
:1004400000107200000040000000000000000000EA
:100450000600020005000700000000006400000024
:1004600000000000000005000500640020000000FE
:100470000000000000000000004000000003000039
:10048000000032F8980000FF650000830F0000FFB5
:100490009BFC0000000000000000000000000000C5
:1004A000000000000000000000000000000000004C
:1004B00000000000000000000000000000100040EC
:1004C000000000000000060000B26A000200000008
:1004D00001FB830068000000D9FC007CF1FF830071
:1004E00000000000650000006403E80064002800CC
:1004F0000000250000000016A00000000010000011
:10050000001000002F0000000001F40000100000A7
:10051000280000FFFF4581FFFFFA72000000000085
:10052000000000004400050005BAC6004778A2009C
:1005300000000100000000000006000000001400A0
:1005400000254D002F706D000005AE000C02D0009C
:10055000000000000000000000000000000000009B
:100560001B00000000000000000000000000000070
:10057000640000000800000000000000000000000F
:10058000000000000000000000000000000000006B
:10059000000000000000000000000000000000005B
:1005A000000000000000000000000000000000004B
:1005B000000000000000000000000000000000003B
:1005C000000000000000000000000000000000002B
:1005D0001B00000000000000000000000E000E00E4
:1005E000000AC70004000000000032FFFFFF9C006B
:1005F000000B2B000000020000000100000064FF5F
:10060000E500000000000000000000000000000005
:1006100000000100000000000100000000000000D8
:100620000180000001800000018000002426D3002A
:1006300000000000000000000600100096003C00D2
:100640000000000000000000000000000000000C9E
:100650000A4E68CDCF770950166759C619CE820069
:10066000000000000000000000000000000000008A
:100670000000000000000017D78400030000000005
:1006800000000000000000C7938F9D1E1B1C190076
:10069000000000000000000000000000000000005A
:1006A0000000000000000002031885000040000068
:1006B00000000300000003000000000000000040F4
:1006C000000000000000000000000000000000002A
:1006D000000000000000000000000000000000001A
:1006E000000000000000000000000000000000000A
:1006F000000000677DDF7E72902E554CF6E6880084
:10070000000000000000000000000000000000D811
:10071000DCB4B8B0D8B9ABF3F8FAB3B7BB8E9EAEC1
:10072000F132F51BF1B4B8B08097F1A9DFDFDFAA91
:10073000DFDFDFF2AAC5CDC7A90CC92C97F1A989C3
:10074000264666B28999A92D557DB0B08AA89636FD
:100750005676F1BAA3B4B280C0B8A89711B2839804
:10076000BAA3F0240844106418B2B9B49883F1A372
:1007700029557DBAB5B1A38393F0002850F5B2B6E0
:10078000AA839328547CF1B9A3829361BAA2DADEDA
:10079000DFDB819AB9AEF5606870F1DABAA2DFD911
:1007A000BAA2FAB9A38292DB31BAA2D9BAA2F8DF0F
:1007B00085A4D0C1BBAD83C2C5C7B8A2DFDFDFBA95
:1007C000A0DFDFDFD8D8F1B8AAB38DB4980D355DBE
:1007D000B2B6BAAF8C96198F9FA70E161EB49AB8F0
:1007E000AA872C547CBAA4B08AB691325676B284C9
:1007F00094A4C808CDD8B8B4B0F19982A82D557D7D
:1008000098A80E161EA22C547C92A4F02C5078F1BD
:1008100084A898C4CDFCD80DDBA8FC2DF3D9BAA6CA
:10082000F8DABAA6DED8BAB2B68696A6D0F3C84130
:10083000DAA6C8F8D8B0B4B882A892F52C54889833
:10084000F135D9F418D8F1A2D0F8F9A884D9C7DFC6
:10085000F8F883C5DADF69DF83C1D8F40114F1A8A1
:10086000824EA884F311D182F5D992289788F10994
:10087000F41C1CD884A8F3C0F9D1D99782F129F4CB
:100880000DD8F3F9F9D1D982F4C203D8DEDF1AD832
:10089000F1A2FAF9A88498D9C7DFF8F8F883C7DA83
:1008A000DF69DFF883C3D8F40114F198A8822EA879
:1008B00084F311D182F5D992509788F109F41CD8AC
:1008C00084A8F3C0F8F9D1D99782F149F40DD8F38F
:1008D000F9F9D1D982F4C403D8DEDFD8F1AD889814
:1008E000CCA809F9D98292A8F57CF1883ACF944A2C
:1008F0006E98DB6931DAADF2DEF9D88795A8F2217E
:10090000D1DAA5F9F417D9F1AE8ED0C0C3AE82C644
:1009100084C3A88595C8A588F2C0F1F4010EF18EB4
:100920009EA8C63E56F554F18872F40115F198451B
:10093000856EF58E9E0488F142985A8E9E068869CF
:10094000F4011CF1981E1108D0F504F11E97020263
:10095000983625DBF9D985A5F3C1DA85A5F3DFD86B
:100960008595A8F309DAA5FAD88292A8F578F188D6
:100970001A849F26889821DAF41DF3D8879F39D1ED
:10098000AFD9DFDFFBF9F40CF3D8FAD0F8DAF9F9D4
:10099000D0DFD9F9D8F40BD8F3879F39D1AFD9DF9D
:1009A000DFF41DF3D8FAFCA869F9F9AFD0DADEFA62
:1009B000D9F88F9FA8F1CCF398DB45D9AFDFD0F8F9
:1009C000D8F18F9FA8CAF38809DAAF8FCBF8D8F295
:1009D000AD978D0CD9A5DFF9BAA6F3FAF412F2D8C7
:1009E000950DD1D9BAA6F3FADAA5F2C1BAA6F3DF0A
:1009F000D8F1BAB2B68696A6D0CAF349DAA6CBF831
:100A0000D8B0B4B8D8AD84F2C0DFF18FCBC3A8B2F0
:100A1000B68696C8C1CBC3F3B0B48898A821DB7161
:100A20008D9D71859521D9ADF2FAD88597A828D9E1
:100A3000F408D8F28D29DAF405D9F285A4C2F2D8E7
:100A4000A88D9401D1D9F411F2D88721D8F40AD80D
:100A5000F28498A8C801D1D9F411D8F3A4C8BBAFC7
:100A6000D0F2DEF8F8F8F8F8F8F8F8D8F1B8F6B5FA
:100A7000B9B08A95A3DE3CA3D9F8D85CA3D9F8D83D
:100A80007CA3D9F8D8F8F9D1A5D9DFDAFAD8B1859D
:100A900030F7D9DED8F830ADDADED8F2B48C99A3CD
:100AA0002D557DA083DFDFDFB591A0F629D9FBD8D6
:100AB000A0FC29D9FAD8A0D051D9F8D8FC51D9F93D
:100AC000D879D9FBD8A0D0FC79D9FAD8A1F9F9F90D
:100AD000F9F9A0DADFDFDFD8A1F8F8F8F8F8ACDE32
:100AE000F8ADDE8393AC2C547CF1A8DFDFDFF69DFC
:100AF0002CDAA0DFD9FADB2DF8D8A850DAA0D0DEA6
:100B0000D9D0F8F8F8DB55F8D8A878DAA0D0DFD932
:100B1000D0FAF8F8F8F8DB7DF8D89CA88CF530DB33
:100B200038D9D0DEDFA0D0DEDFD8A848DB58D9DF47
:100B3000D0DEA0DFD0DED8A868DB70D9DFDFA0DF91
:100B4000DFD8F1A888902C547C98A8D05C38D1DAF2
:100B5000F2AE8CDFF9D8B087A8C1C1B188A8C6F9B8
:100B6000F9DA36D8A8F9DA36D8A8F9DA36D8A8F9F1
:100B7000DA36D8A8F9DA36D8F78D9DADF818DAF25A
:100B8000AEDFD8F7ADFA30D9A4DEF9D8F2AEDEFA8E
:100B9000F983A7D9C3C5C7F1889BA77AADF7DEDF74
:100BA000A4F8849408A797F300AEF29819A488C615
:100BB000A39488F632DFF28393DB09D9F2AADFD857
:100BC000D8AEF8F9D1DAF3A4DEA7F1889B7AD8F38E
:100BD0008494AE19F9DAAAF1DFD8A881C0C3C5C7D9
:100BE000A39283F628ADDED9F8D8A350ADD9F8D8B2
:100BF000A378ADD9F8D8F8F9D1A1DADEC3C5C7D842
:100C0000A18194F818F2B089ACC3C5C7F1D8B8B4C3
:100C1000B09786A8319B069907AB9728889BF00C64
:100C2000201440B0B4B8F0A88A9A285078B79BA88E
:100C3000295179247059446938644831F1BBAB8833
:100C4000002C547CF0B38BB8A804285078F1B088FD
:100C5000B49726A85998BBABB38B02264666B0B8AA
:100C6000F08A9CA82951798B2951798A2470598B53
:100C70002058718A4469388B3940688A6448318BBE
:100C800030496088F1AC002C547CF08CA8042850CA
:100C900078F1889726A85998AC8C02264666F08988
:100CA0009CA8295179247059446938644831A9882D
:100CB00009205970AB11384069A8193148608CA8D7
:100CC0003C415C207C00F187981986A86E767EA94D
:100CD00099882D557DD8B1B5B9A3DFDFDFAED0DF60
:100CE000AAD0DEF2ABF8F9D9B087C4AAF1DFDFBB36
:100CF000AFDFDFB9D8B1F1A3978E60DFB084F2C85F
:100D0000F8F9D9DED89385F14AB183A308B5839A5F
:100D10000810B79F10D8F1B0BAAEB08AC2B2B68E82
:100D20009EF1FBD9F41DD8F9D90CF1D8F8F8AD61D2
:100D3000D9AEFBD8F40CF1D8F8F8AD19D9AEFBDF79
:100D4000D8F416F1D8F8AD8D61D9F4F4ACF59C9CCB
:100D50008DDF2BBAB6AEFAF8F40BD8F1AED0F8AD01
:100D600051DAAEFAF8F1D8B9B1B6A3839C08B9B19B
:100D7000839AB5AAC0FD3083B79F10B58B93F2025A
:100D800002D1ABDADED8F1B080BAABC0C3B284C155
:100D9000C3D8B1B9F38BA391B609B4D9ABDEB08790
:100DA0009CB9A3DDF1B38B8B8B8B8BB087A3A3A3F3
:100DB000A3B28BB69BF2A3A3A3A3A3A3A3A3A3A3B2
:100DC000F1B087B59AA3F39BA3A3DCBAACDFB9A3B8
:100DD000A3A3A3A3A3A3A3A3A3A3A3A3A3A3A3D8AE
:100DE000D8D8BBB3B7F1AAF9DAFFD9809AAA28B448
:100DF0008098A720B79787A86688F07951F1902C42
:100E0000870CA781976293F07171608594012951D5
:100E10007990A5F1284C6C870C95188578A3839060
:100E2000284C6C886CD8F3A28200F210A89219802A
:100E3000A2F2D926D8F188A84DD948D896A83980E9
:100E4000D93CD89580A839A68698D92CDA87A72CC2
:100E5000D8A8899519A980D938D8A88939A980DA5C
:100E60003CD8A82EA83990D90CD8A8953198D90C7F
:100E7000D8A809D9FFD801DAFFD89539A9DA26FF11
:100E8000D890A80D8999A810809821DA2ED8899930
:100E9000A83180DA2ED8A886963180DA2ED8A88795
:100EA0003180DA2ED8A88292F34180F1D92ED8A8C9
:100EB00082F31980F1D92ED882ACF3C0A28022F13E
:100EC000A62EA72EA92298A829DAACDEFFD8A2F276
:100ED0002AF1A92E8292A8F23180A696F1D900AC0F
:100EE0008C9C0C30ACDED0DEFFD88C9CACD010AC2F
:100EF000DE8092A2F24C82A8F1CAF235F19688A661
:100F0000D900D8F1FF0E0C0D0F08FFFF09050406EC
:100F1000070A0B0F0C0D0E08FFFF09050406070A50
:100F20000B0F0C0D0E0908FFFF050406070A0B0046
:100F300011241FBECFEFD1E2DEBFCDBF00E00CBF5A
:100F400012E0A0E0B2E0E4E6F6E500E00BBF02C08C
:100F500007900D92AC3EB107D9F725E0ACEEB2E0B8
:100F600001C01D92A33CB207E1F70E946D240C94CE
:100F7000302B46C8CF93DF93FC01DA0186E0EB010A
:100F8000888385E0808315962C911597822F922F68
:100F9000990F990B97FD079653E0959587955A956C
:100FA000E1F7828317962C911797822F922F990F32
:100FB000990B91958195910997FD079643E0959539
:100FC00087954A95E1F783831B962C911B97822F77
:100FD000922F990F990B97FD079633E0959587957A
:100FE0003A95E1F7848319962C911997822F922FC5
:100FF000990F990B97FD079623E0959587952A956C
:10100000E1F7858311969C9111979295917081815A
:101010008E7F982B918311968C9111978295827077
:101020009D7F892B818311969C9196959695969597
:101030009870877F892B8183DF91CF9108959F924C
:10104000AF92BF92CF92DF92EF92FF920F931F93D6
:10105000CF93DF9300D00F92CDB7DEB7FC014B8367
:101060005C838CE1DB018C9384E080839090BC05F1
:10107000B090C20579E2C72E72E0D72EFA83E983D9
:1010800090E080E061E070E0A82ED6012D916D0126
:10109000AB81BC814D915C912F3F09F44AC0DB01CB
:1010A00002C0AA0FBB1F2A95E2F79D012423352316
:1010B00041E02115310509F440E08B010A2C02C002
:1010C000000F111F0A94E2F700951095E180F2805D
:1010D000E022F12250E08A0102C0000F111FAA9401
:1010E000E2F70E291F2912830183891510F5BBE150
:1010F000BB1215C0843098F49C0122503F4FD90197
:101100002C918B0102C0000F111F2A95E2F7AB81D1
:10111000BC812D913C9120233123242B352B41E0A0
:10112000232B09F440E0242F2195A981BA81189638
:101130002C93019629813A812F5F3F4F3A8329836F
:101140008E30910509F0A0CFAB81BC812C912F701E
:1011500088E02B3028F430E02C533D4FD9018C919E
:101160008383AB81BC811A962D913C91BBE1BB126C
:1011700016C0AB81BC8119968C918595805486836D
:1011800087E29FE12F3F3F4711F480E690EF958B78
:10119000848B8DE7878380E88483858376C06DE1C7
:1011A000B61619F080E2B81220C0AB81BC81199646
:1011B0008C9180588683818192818F7D41E050E0BF
:1011C0002F3F3F4711F050E040E065E0440F551FCE
:1011D0006A95E1F7842B952B92838183AB81BC8147
:1011E00012969C9180E8891B8783BFE1BB1619F09A
:1011F0002AE1B212D0CF81E090E0AB81BC8112969F
:101200002C91233310F490E080E054E0880F991F74
:101210005A95E1F7218132812F7E822B932B928385
:10122000818321E030E0AB81BC8113964C91433344
:1012300010F430E020E045E0220F331F4A95E1F73B
:101240008F7D282B392B32832183AB81BC81129671
:101250008C911297848713968C9113978587159696
:101260008C9115978058848317969C911797905866
:10127000958319968C911997805886831B968C912B
:1012800080588783BAE1BB1681F00F900F900F90C2
:101290000F90DF91CF911F910F91FF90EF90DF9012
:1012A000CF90BF90AF909F90089590959583809533
:1012B0008783EBCFEF92FF920F931F93CF93DF9330
:1012C000CDB7DEB72C970FB6F894DEBF0FBECDBFFB
:1012D000E32FF0E0E559FD4F80818F3F81F021E061
:1012E00030E002C0220F331F8A95E2F78091EF02AF
:1012F0009091F0022823392381E0232B09F480E028
:101300002C960FB6F894DEBF0FBECDBFDF91CF9104
:101310001F910F91FF90EF900895EF92FF920F931E
:101320001F93CF93DF93CDB7DEB764970FB6F894D2
:10133000DEBF0FBECDBFE986FA860B871C872D87DF
:101340003E874F87588B698B7A8B8B8B9C8B9F3F0B
:1013500069F4EA85FB8580818E2191E009F490E0B3
:1013600081E02C859217B9F080E015C088E0989F45
:10137000F0011124ED5CFB4F88E0DE011196019035
:101380000D928A95E1F74C815D8181E02E813F814C
:101390002417350748F764960FB6F894DEBF0FBEE2
:1013A000CDBFDF91CF911F910F91FF90EF900895E6
:1013B000EF92FF920F931F93CF93DF93CDB7DEB7DA
:1013C0002C970FB6F894DEBF0FBECDBFE982FA822C
:1013D0000B831C832D833E834F83588769877A87CD
:1013E0008B879C8780910202843049F1893051F5C6
:1013F0008BE792E02E81820F911DFC0180818F3F4F
:1014000081F021E030E002C0220F331F8A95E2F71D
:101410008091F1029091F2022823392381E0232B5D
:1014200009F480E02C960FB6F894DEBF0FBECDBF56
:10143000DF91CF911F910F91FF90EF9008958BE96D
:1014400092E0D8CF8BE892E0D5CFCF93DF9300D056
:101450000F92CDB7DEB72FB7F89480914C039091DF
:101460004D03A0914E03B0914F032FBF9C01AD01DE
:1014700087E0220F331F441F551F8A95D1F7CA01F9
:10148000B9012DE730E040E050E00E94622ACA0135
:10149000B9010F900F900F900F90DF91CF910895A9
:1014A0008EBD00000DB407FEFDCF8EB5089590E00F
:1014B000FC01ED57FD4F2491FC01E753FD4FE491F2
:1014C000EE2389F0F0E0EE0FFF1FE759FD4FA591E5
:1014D000B4919FB7F8948C91611106C0E22FE0950A
:1014E000E823EC939FBF0895822B8C93FBCF61E0A0
:1014F00084E3DDDF61E083E3DACF90E0FC01ED57C8
:10150000FD4F2491FC01E753FD4FE491EE2359F088
:10151000F0E0EE0FFF1FE15BFD4FA591B491EC9160
:10152000E22381E009F480E00895CF93DF93EC019A
:101530008091AF05E2DF91E089274FEF5FE7849F5D
:101540009001859F300D11243B872A87DF91CF9131
:10155000089520917B00982F987F277F922B90935E
:101560007B008770806480937C0080917A00806427
:1015700080937A0080917A0086FDFCCF809178007C
:1015800090917900089580917A0086FDFCCF81E0EA
:10159000809301020895CF93DF9390E0FC01ED5713
:1015A000FD4F249187539D4FFC0184918823D1F0F6
:1015B00090E0880F991FFC01EC51FF4FA591B49169
:1015C000FC01E759FD4FC591D4919FB7613069F493
:1015D000F8948C91209582238C93888128232883EA
:1015E0009FBF7894DF91CF910895623051F4F894C1
:1015F0003C91822F809583238C938881822B8883D2
:10160000EFCFF8948C91822B8C93EACFCF92DF921C
:10161000EF92FF920F931F93CF93DF936B017C01A7
:10162000142FD22F60E083E3B6DF62E082E3B3DF02
:1016300060E084E3B0DF61E085E339DF60E085E30B
:10164000AADF1111C8E0D111C4600111C062C11438
:1016500082E1D8068AE7E806F104D0F5C11489E0F2
:10166000D8068DE3E806F104A8F580E8C81684E8FA
:10167000D8068EE1E806F10478F580E4C81682E425
:10168000D8068FE0E806F10448F580E2C81681EA42
:10169000D80687E0E806F10418F580E9C81680ED61
:1016A000D80683E0E806F104E8F487E091E08927B2
:1016B000982F96959C2B90659CBD81708DBDDF9178
:1016C000CF911F910F91FF90EF90DF90CF900895F1
:1016D00080E0ECCF81E0EACF82E0E8CF83E0E6CFA4
:1016E00084E0E4CF85E0E2CFEAE7F0E08081846047
:1016F000808380818260808380818160808380811B
:10170000806880830895682F85E3D1CE982F8D302F
:10171000A9F0823098F080919C05882321F02CEE6E
:10172000290F223068F08EEC890F843038F081E088
:10173000983031F0923021F080E0089581E00895F2
:1017400008950F931F93CF9380910404882391F001
:101750000EEB13E0C0E08C2FD9DF811103C061E0F4
:101760008C2F19DF8C2FC9DEF80181938F01CF5F99
:10177000C63489F71092BD0310920404CF911F91D3
:101780000F910895CF93DF93EC01FB01808180528C
:10179000990B880F880F1C828D8381818052990B51
:1017A000880F880F1E828F83258184819581809583
:1017B0009095322F36953695369561E03627317003
:1017C000B32FB295BB0FB07EA0E0967D8A2B9B2BEA
:1017D00022952695277026272170522F550F550FD9
:1017E000550F40E0842B952B9093F0028093EF02ED
:1017F000DF91CF910895FC01DB018C91880F880F58
:1018000080581482858311968C911197880F880FC8
:1018100080581682878313968C9113978F718E5000
:10182000990B97FD20C09187808720853185C9015C
:10183000880F991F820F931F80329105BCF4918706
:101840008087808591854097880F880F880F108644
:10185000818714968D919C91809590959093F0023C
:101860008093EF02089511861086DFCF8FE190E01C
:10187000E6CFFC01DB018C918058990B14828583A3
:1018800012968C9112978058990B16828783119625
:101890008C9111978058990B1086818713968C91A3
:1018A00013978058990B1286838714968C911497FE
:1018B000828315968C911597838316968D919C91B2
:1018C000809590959093F0028093EF020895FC012B
:1018D000DB018C918F738052990B958384831196D1
:1018E0008C9111978F738052990B978386838C917B
:1018F00090E023E0959587952A95E1F788719927DF
:1019000011962C91119730E045E0359527954A9531
:10191000E1F726703327822B932B12962C91129786
:10192000221F2227221F822B4097918780871296A1
:101930008C9112978F718051990B938782871296A1
:101940008C91129786958695887113969C91139722
:10195000929596959770892B828313968C91139705
:101960008F71838314968D919C918095909590931F
:10197000F0028093EF020895DC01FB0190818181E8
:10198000829586958670292F26952695269528710D
:10199000822B2281221F2227221F822B990F990F2F
:1019A000905814961C92149715969C9315979181B4
:1019B000990F990F905816961C92169717969C930C
:1019C00017972481938120FF3BC0292F30E0209579
:1019D00030952F713327205E3F4F19963C932E93FD
:1019E0001897082E000C990B228120FF2FC02FE39F
:1019F00030E0281B390B1B963C932E931A9782815B
:101A00008695869588719381929596959770892B86
:101A100012968C931297828190E0959587958F709E
:101A200013968C9384819581982789279827809590
:101A300090958D7C93769093F0028093EF020895B9
:101A40009F7120E230E0291B3109C7CF20E230E04E
:101A5000D0CFCF93DF93FC01EB018A8190E0982FE8
:101A6000882788279F706881862B958384838A8145
:101A700020E1829FC001112488279F706981862BF5
:101A8000978386838B8183838D8181FB992790F94E
:101A9000392F3295330F330F307C20E0982F9695F5
:101AA000969561E096279170B92FB295BB0FB07EE5
:101AB000A0E02A2B3B2B8170582F5295507F40E09D
:101AC000242B352B3093F0022093EF02DF91CF913E
:101AD0000895FC01DB018D919C911197958384837E
:101AE00012968D919C9113979783868314968C916F
:101AF00083830895FB0184819581982789279827FE
:101B0000809590959093F0028093EF02089580E085
:101B1000FADD81EEC5DC81E0F6CD80E0F4DD82EE19
:101B2000BFDC81E0F0CD80E0EEDD80E5B9DC83E76D
:101B3000B7DC81E0E8CDCF9380E0E5DD8FEFB0DC6E
:101B4000C82F81E0E0DD8C2FCF9108950F931F9374
:101B5000CF93DF93EC018C01060F111DC017D10745
:101B600029F4DF91CF911F910F910895899198DC0D
:101B7000F5CFCF93DF93D82FC62F80E0C4DD8D2F14
:101B800080628EDC8C2F8CDC81E0DF91CF91BBCD2D
:101B9000CF93DF9300D00F92CDB7DEB7DB019C016E
:101BA0000E94A72A69837A838B839C83AB01BC0143
:101BB0005F776627772781E090E0A0E0B0E04115ED
:101BC00050446105710519F480E090E0DC012EE0DD
:101BD000880F991FAA1FBB1F2A95D1F729813A8127
:101BE0004B815C81820F931FA41FB51F3FE0B59509
:101BF000A795979587953A95D1F70F900F900F90ED
:101C00000F90DF91CF910895F89488E198E00FB696
:101C1000F894A895809360000FBE90936000FFCF6A
:101C20001F93CF93DF93182FD62FC72F80E06BDD44
:101C3000812F806235DC64E08D2F9C2F87DF81E06F
:101C4000DF91CF911F915FCD1F93CF93DF93182F1B
:101C5000EB0180E058DD812F23DC888121DC888343
:101C600081E0DF91CF911F914ECDCF93DF930F9203
:101C7000CDB7DEB7BE016F5F7F4FE6DF89810F9082
:101C8000DF91CF910895FF920F931F93CF93DF932E
:101C9000082FF92E60E487E06CDF80E034DD80E619
:101CA000FFDB80E0FDDB182F81E02DDD80E02BDD08
:101CB00081E6F6DBC02FDF2D8C2F801B811750F0C3
:101CC00081E021DD812F90E0DF91CF911F910F9175
:101CD000FF9008958991E4DBFE0131978083ECCF7A
:101CE000FF920F931F93CF93DF93D82FC92FF62E18
:101CF000072F142F10929C031EDF282F30E03595FC
:101D0000279527703327232BE1F48F2D902FBBDFEE
:101D100060E487E02EDF01E060E387E02ADF80E017
:101D2000F2DC80EABDDB612F8D2F9C2F0FDF81E07D
:101D3000EADC802F90E0DF91CF911F910F91FF900F
:101D4000089500E0E9CF85ED8093BC008FEF9FE719
:101D50002091BC0024FD03C01092300402C0019702
:101D6000B9F70895CF93DF93DC01FA0184E1EB0129
:101D700088831C9211968C93119712968CE0019097
:101D80000D928A95E1F7DF91CF910895CF93282F97
:101D9000CB01C42F4FEF5FE7C13228F080E045C090
:101DA00041505109D9F3309130043111F9CF31E06C
:101DB0003093300430932F044FEF40932803109258
:101DC0004A034C0F4093490330934B0330914B032C
:101DD000220F232B20934B0320912E04222381F1E9
:101DE00010922E0420914B032093BB002FEF3FE76E
:101DF0004091BC0043FD1BC025EC2093BC002FEF9D
:101E00003FE7409130044130E9F020914A032C171C
:101E100010F4C0914A034C2F50E069E273E00E9435
:101E2000EF2A81E0CC2309F4B9CFCF910895215056
:101E3000310909F4B3CF40914B034093BB00D8CF95
:101E400025EEDBCF21503109E1F6A8CFCF93C82F83
:101E50008FEF9FE7413220F080E03FC00197E1F330
:101E6000209130042111FACF82E08093300481E088
:101E700080932F048FEF8093280310924A0340939E
:101E8000490350E089E293E00E94EF2A10924B034D
:101E900080914B03CC0FC82BC0934B0380912E0431
:101EA000882329F110922E0480914B038093BB006C
:101EB0008FEF9FE72091BC0023FD11C085EC80933C
:101EC000BC008FEF9FE720913004223091F0909179
:101ED000280381E09F3F09F0BFCFCF91089501977C
:101EE00009F4BACF20914B032093BB00E3CF85EEDA
:101EF000E6CF019741F7B0CFEF92FF920F931F9378
:101F0000CF93DF930F92CDB7DEB7182F6983E42EFE
:101F1000F22E032F41E0BE016F5F7F4F97DF8823D2
:101F200071F04E2D6F2D702F812F30DF81700F904B
:101F3000DF91CF911F910F91FF90EF90089580E076
:101F4000F5CFCF92DF92EF92FF920F931F93CF9333
:101F5000DF938C01EB016C017B01E40EF11CCE15CB
:101F6000DF0549F4DF91CF911F910F91FF90EF9022
:101F7000DF90CF9008958AE50115110511F0F60163
:101F800080818EDA8993F0E5FA95F1F78FEFC81A20
:101F9000D80AE5CF0F931F93CF93DF938C01D62FF1
:101FA000E0912304F0912404908180912204809593
:101FB0008923808360E084E37ADA60E083E377DA80
:101FC00080E58A95F1F743E063EF72E0C801B9DF7D
:101FD0008091F4028F3FA9F4D0E0C0E088DAE0916C
:101FE0002304F0912404808190912204892B808322
:101FF00080E58A95F1F7CE01DF91CF911F910F9186
:1020000008959091F5029A3511F09111E5CF8F70F6
:10201000C82FCC0FD33039F04DEF4D0F66EF72E083
:10202000C80103968EDFCD5F4C2F4D1BCD1761F09D
:102030006D2F70E0CB01840F911D81976CF66D5070
:102040007D4F90E080E07DDFC3EFD2E0C7CFFF920D
:102050000F931F93CF93DF930F92CDB7DEB7898392
:10206000F62E8A0141E0BE016F5F7F4F82E5EEDE12
:10207000882351F08FEC92E00197F1F700C0000047
:102080004F2DB80182E582DE0F90DF91CF911F9135
:102090000F91FF900895CF93DF9300D000D0CDB77C
:1020A000DEB7AE014F5F5F4F66E08AEFD0DFFE0123
:1020B0003196AE01495F5F4F8FEF90E02191922BF7
:1020C00082234E175F07D1F7992369F08F3F59F0AC
:1020D00099818E8126960FB6F894DEBF0FBECDBFD4
:1020E000DF91CF9108958FEF9FEFF4CFCF92DF92E2
:1020F000EF92FF920F931F93CF93DF9300D000D006
:10210000CDB7DEB78D839E83062F9FD96B017C01EF
:1021100010E0602F8D819E813DDFFC01892B51F005
:102120001F5F8D819E81895B9240D9F48181807F80
:10213000803F01F18FE39CE90197F1F700C00000B7
:1021400084D969837A838B839C83DC01CB018C19CE
:102150009D09AE09BF098B3F9105A105B105C8F2E4
:1021600009C08D819E818D5B924099F48181807F31
:10217000803F01F326960FB6F894DEBF0FBECDBFA9
:10218000DF91CF911F910F91FF90EF90DF90CF9053
:102190000895133078F7CECFCF93DF93EC0163E04F
:1021A00081EC92E0F7DEFC0180E0309751F0818114
:1021B000982F907F903F41F464E08DEB92E096DFA2
:1021C00081E0DF91CF91089523813481209530956E
:1021D0003093F2022093F102903509F053C088E069
:1021E000809302028181823179F489E08093020236
:1021F00085818058990B1C828D8346818FE790E002
:10220000841B91091E828F838181807D8035C1F678
:1022100085818058990B1886898746818FE790E0E1
:10222000BC01641B71091A866B8747814058550BA6
:102230001C824D834085841B91091E828F8380916F
:10224000BD05882399F084E0809302021D821C82E0
:102250001F821E8280858058990B898790E080E0DC
:1022600030FF02C08FEF9FE79B878A878181893784
:1022700009F05CC083898A8384898B8382E08093A0
:1022800002029ECF8332A9F585E080930202858108
:102290008058990B1C828D8341E08681813808F437
:1022A00040E080E0942F9295990F990F907C48819F
:1022B00059815F7B482B592B5983488361E0878183
:1022C000813808F460E080E0962F979599279795DC
:1022D0005F77842B952B9983888361E04085413F0C
:1022E00008F460E040E0562F9E7F482B592B59831D
:1022F00048838181807F803E09F074CF86E080939F
:102300000202858190E09D838C839681858197FD73
:1023100009C0803808F08FE790E080589F4F9D8378
:102320008C8360CF8138C0F781E8F6CF807F80351D
:1023300009F446CF81E08093020243CF1F93CF93ED
:10234000DF93D82FC92F809102028A3009F515E05A
:102350008D2F9C2F21DF8FE99FE00197F1F700C0BF
:1023600000001150A9F78D2F9C2F16DF8823C1F094
:1023700064E089EB92E0BADE65E084EB92E0B6DEE1
:1023800069E08BEA92E0B2DE64E08DEB92E0AEDED3
:102390008D2F9C2F01DF811103C08AE08093020200
:1023A000DF91CF911F910895FF920F931F93CF93C9
:1023B000DF9300D000D000D00F92CDB7DEB76B8393
:1023C0007C838D839E832F83388749875A8781E05A
:1023D00080939C0360E088E0DED860E085E3DBD892
:1023E00000E020E040E060E074E284EF90E00ED98D
:1023F00060E088E05CD881E086D98FE19EE40197B7
:10240000F1F700C0000061EF84E0B3DB62E083E03D
:10241000B0DB8E010F5F1F4FB80186E015DC6981CC
:10242000697F86E0A6DB8DE120DCF82E7CDB8DE188
:102430001CDC882331F0F81201C075DB60E08DE10F
:1024400098DBBE016E5F7F4F86E0FEDB6A81677DB1
:10245000636086E08EDBB80186E0F6DBB80180E0E1
:10246000F3DB69816C6080E084DB6CE485E081DB18
:102470008DE1FBDB682F64608DE17BDB8CE1F5DBBC
:10248000682F6F638CE175DB8DE1EFDB682F666091
:102490008DE16FDB8CE1E9DB682F63608CE169DB48
:1024A0006FE381E066DB60E787E063DB36DB2FDB31
:1024B0001982B80180E0C8DB19811C7860E088E0EF
:1024C0000E94570A612F626080E053DB61E088E080
:1024D0000E94570ABE016D5F7F4F8AE0A1DBBE01FB
:1024E0006D5F7F4F80E19CDB60E088E00E94570ACF
:1024F000BE01695F7F4F8BE093DB63E082E039DBF5
:1025000061E088E00E94570A8091690082608093B0
:102510006900EC9A2A960FB6F894DEBF0FBECDBFC5
:10252000DF91CF911F910F91FF900895CF93DF938B
:10253000CDB7DEB7C351D1400FB6F894DEBF0FBEA2
:10254000CDBF43E151E063E171E0CE0101960E940D
:10255000D22A43E151E061E070E0CE0101960E9491
:102560000F2BCD5EDE4F0FB6F894DEBF0FBECDBF92
:10257000DF91CF910895EF92FF920F931F93CF9326
:10258000DF930F920F92CDB7DEB7082F142F732F62
:102590008DB79EB79A83898350E0CA010196EDB743
:1025A000FEB7E81BF90B0FB6F894FEBF0FBEEDBFE8
:1025B0008DB79EB701967C016183622F01960E94C0
:1025C000EF2A41E0410FB701802F40DCE981FA8119
:1025D0000FB6F894FEBF0FBEEDBF0F900F90DF91C6
:1025E000CF911F910F91FF90EF900895EF92FF927E
:1025F0000F931F93CF93DF930F92CDB7DEB78091E8
:102600000C02811109C08FEF0F90DF91CF911F91C4
:102610000F91FF90EF9008951982A0910602B0915A
:102620000702E0910802F09109028E010F5F1F4F2F
:10263000980141E051966C9180819DDF780188235B
:1026400011F3A0910602B0910702E0910802F09107
:102650000902980141E015966C9180818CDF8823F6
:1026600091F2A0910602B0910702E0910802F09168
:102670000902980141E014966C9180817CDF8823E7
:1026800009F4C1CFE0910602F09107026481E09164
:102690000802F091090280912302882309F455C0B1
:1026A0008CE08983980141E0808165DF882309F40B
:1026B000AACF2FEF80E792E0215080409040E1F7D1
:1026C00000C0000080EC898380910C0280FF02C072
:1026D00080EE8983A0910602B0910702E091080282
:1026E000F0910902970141E014966C91808143DFDB
:1026F000882309F488CF81E090911202911101C0E2
:1027000080E0880F8983A0910602B0910702E091D2
:102710000802F0910902970141E051966C91808185
:102720002ADF882309F46FCF1982A0910602B091A5
:102730000702E0910802F0910902970141E0159625
:102740006C91808118DF81505FCF84E0898398018C
:1027500041E0808110DF882309F455CF8091130276
:10276000811143C080910C0280FF3FC080E68983C5
:10277000A0910602B0910702E0910802F0910902CF
:10278000970141E014966C918081F5DE882309F46D
:102790003ACF2FEF80E792E0215080409040E1F760
:1027A00000C0000081E090911202911101C080E010
:1027B0008983A0910602B0910702E0910802F0918E
:1027C0000902970141E051966C918081D4DE882303
:1027D00009F419CFA0910602B0910702E091080216
:1027E000F091090221E132E0A9CF80E4C0CFCF937C
:1027F000DF930F92CDB7DEB79C0180910C0281115F
:1028000005C08FEF0F90DF91CF91089581E02C3BB1
:10281000310588F482E02236310568F483E02A32FB
:10282000310548F484E02431310528F485E02A306C
:10283000310508F486E0898390910D029817A9F07C
:10284000A0910602B0910702E0910802F0910902FE
:102850009E012F5F3F4F41E012966C9180818BDE8D
:10286000882379F2898180930D0280E0CBCFEF92AB
:10287000FF920F931F93CF93DF930F920F92CDB7D9
:10288000DEB7FC018B017A0180910C0281110AC034
:102890008FEF0F900F90DF91CF911F910F91FF90CD
:1028A000EF9008959E2F8F2F9A838983A09108021D
:1028B000B09109029B012E0F311D18968D919C91AC
:1028C00019978217930720F3E0910602F09107020F
:1028D0009E012F5F3F4F42E0638D8C914CDE882339
:1028E000B9F2A0910602B0910702E0910802F091BE
:1028F00009029701402F58966C9180813CDE8150EF
:10290000C8CFCF93DF930F92CDB7DEB780910C0283
:10291000811105C08FEF0F90DF91CF91089588E16D
:10292000898380910A028330C1F0A0910602B091A0
:102930000702E0910802F09109029E012F5F3F4FCC
:1029400041E016966C91808116DE882319F3898107
:1029500086958695869580930A0280E0DCCFCF939A
:10296000DF930F92CDB7DEB780910C02811105C0C5
:102970008FEF0F90DF91CF910895198280910B0214
:102980008823C1F0A0910602B0910702E0910802ED
:10299000F09109029E012F5F3F4F41E017966C9125
:1029A0008081E9DD882321F3898186958695869546
:1029B00080930B0280E0DDCF0F931F93CF93DF93C3
:1029C0000F92CDB7DEB780911302882309F45AC065
:1029D000A0910602B0910702E0910802F09109026D
:1029E0008E010F5F1F4F980141E014966C9180811A
:1029F00083DA811107C08FEF0F90DF91CF911F9184
:102A00000F910895898190910C0290FF3DC08062E2
:102A10008983A0910602B0910702E0910802F0912B
:102A20000902980141E014966C918081A4DD88230D
:102A300011F38FED9EE20197F1F700C0000081E0F5
:102A400090912102911101C080E087958827879598
:102A5000898390912202992311F080638983A09148
:102A60000602B0910702E0910802F0910902980174
:102A700041E057966C9180817EDD882309F4BBCFBD
:102A80001092130280E0B8CF8F7DC2CFCF93DF9337
:102A90000F92CDB7DEB769839E012F5F3F4F41E0B4
:102AA000682F82E568DD0F90DF91CF910895EF9256
:102AB000FF920F931F93CF93DF93CDB7DEB7689745
:102AC0000FB6F894DEBF0FBECDBF7C01809103022C
:102AD000909104028F3F980709F091C0DCDA9C01C5
:102AE00090930402809303022F3F3F4FB9F465E5B2
:102AF00080EFCCDF85E38A95F1F7000060E08BEF93
:102B0000C5DF95E39A95F1F70000C5DA90930402CA
:102B10008093030225E32A95F1F7000080910302D8
:102B20009091040283319F4F71F461E08BEFAEDF2F
:102B300085E38A95F1F7000065E580EFA7DF95E36F
:102B40009A95F1F7000080910302909104029E7F14
:102B5000019799F563E08EEF99DF25E32A95F1F768
:102B60000000AE01475F5F4F68E080E070DA8FE100
:102B700093E00197F1F700C00000AE014F5F5F4F97
:102B800068E080E064DA48E050E0BE016F5F7F4FAC
:102B9000CE0109960E94E22A892B09F05DC08F853B
:102BA0009889892B09F05EC027E63CE086E03093E7
:102BB000EE022093ED028093000280910302909137
:102BC0000402813021E0920709F473C008F054C078
:102BD0008330910509F467C008F048C0009709F4F4
:102BE00075C0019709F465C08BE098E190930402E9
:102BF000809303021092EE021092ED025AC08B30C5
:102C0000984109F46BCF8E010F5E1F4FA8016091B0
:102C1000000280E01CDAB801882389F0F801809175
:102C20000002A801480F511D8FEF90E04E175F077B
:102C300079F4992309F452CF8F3F09F44FCFE091F3
:102C4000ED02F091EE023097A1F1C701199531C064
:102C50002191922B8223EACF8FE193E00197F1F744
:102C600000C07ECF29E33CE088E0A1CF419709F086
:102C7000BBCF8AE79DE019C082312FEF920761F147
:102C800058F4833021E0920721F18330934009F01A
:102C9000ABCF8CEB9CE009C083319F4F09F0A4CFF0
:102CA00089E69DE002C08BEF9BE09093EE0280935B
:102CB000ED0268960FB6F894DEBF0FBECDBFDF9170
:102CC000CF911F910F91FF90EF9008958BEC92E2BE
:102CD000ECCF82EC9BE0E9CF89E29DE0E6CF1F9349
:102CE000CF93DF930F92CDB7DEB7182F80912202DA
:102CF000811721F180E0111180E389839091130203
:102D0000992311F08260898380912102882319F030
:102D1000898180688983A0910602B0910702E091C1
:102D20000802F09109029E012F5F3F4F41E0579644
:102D30006C91808120DC8111109322020F90DF9131
:102D4000CF911F910895EF92FF921F93CF93DF933E
:102D50000F92CDB7DEB7182F807729F581E01111DA
:102D600080E08295880F880F807C8983A09106027D
:102D7000B0910702E0910802F0910902CE0101969C
:102D80007C019C0141E055966C918081F4DB9701B8
:102D900081110BC010920C020F90DF91CF911F9107
:102DA000FF90EF90089581E0E0CF89818F7B809341
:102DB0000E0216FF32C0198215FD03C089818260A0
:102DC000898314FD03C089818160898313FD03C059
:102DD000898188638983A0910602B0910702E091FE
:102DE0000802F091090241E056966C918081C3DBA4
:102DF000882381F2812F877F11F080E070DF1093AC
:102E00000C02109215029FEF20E782E091502040C3
:102E10008040E1F700C00000BFCF84E08983CCCFC1
:102E2000CF93DF930F92CDB7DEB790912302992312
:102E3000F9F091E0811101C090E0990F9983A09180
:102E40000602B0910702E0910802F09109029E018A
:102E50002F5F3F4F41E051966C9180818CDB88233E
:102E600019F08981809312020F90DF91CF9108951C
:102E700090910C029923C1F3882321F090911202C2
:102E80009111F2CF8983DBCF1F93CF93DF93D82F9C
:102E900080912302C0E081111FC080910C02882321
:102EA000B9F0109111028D2380931102C1E08D13AE
:102EB00001C0C0E0C195809115028D2B59F081E0D1
:102EC000AFDFDD2349F092DB882331F0109311024C
:102ED000CFEF02C080E0A4DF8C2FDF91CF911F9154
:102EE00008951F93CF93DF930F920F92CDB7DEB764
:102EF000182F81111EC080E0F2DE198287E08A83DC
:102F0000A0910602B0910702E0910802F091090237
:102F10009E012F5F3F4F42E055966C9180812BDBE5
:102F20008111109215020F900F90DF91CF911F9198
:102F3000089581E0D4DE80E28983113041F51A8260
:102F400085E090E054DC8A8120E4829FC001112456
:102F500087608A83A0910602B0910702E09108027F
:102F6000F09109029E012F5F3F4F42E055966C9110
:102F7000808101DB8823B9F288E080930C021092F3
:102F80000E0281E08093150280E07EDFCCCF163008
:102F900018F481E08A83D4CF153128F482E08A8343
:102FA0008AE090E0CFCF83E08A8384E190E0CACFCB
:102FB0000F931F93CF93DF930F92CDB7DEB78C01A2
:102FC00080910C02811107C08FEF0F90DF91CF919C
:102FD0001F910F910895809123028111F5CF809167
:102FE0001502882351F0C8010197889720F4802F9B
:102FF00078DF80E0EACF80E074DFB801093E13405B
:1030000010F068EE73E06430710510F464E070E075
:1030100008EE13E0C8010E943B2A61506983A09129
:103020000602B0910702E0910802F09109029E01A8
:103030002F5F3F4F41E011966C9180819CDA88238D
:1030400009F4C2CF698170E06F5F7F4FC8010E94B1
:103050004F2A7093100260930F02CB0196958795CB
:10306000C6DBC7CF7F928F929F92AF92BF92CF92D3
:10307000DF92EF92FF920F931F93CF93DF93CDB721
:10308000DEB7CA53D2400FB6F894DEBF0FBECDBF35
:1030900043E151E061E070E0CE0101960E94FF2A19
:1030A0008D859E85AF85B8890897A105B10540F447
:1030B00043E151E060E070E0CE0101960E94FF2AFA
:1030C00089859A85AB85BC858531944DA24AB10529
:1030D000B1F043E151E063E171E0CE0101960E945D
:1030E000D22A1D861E861F86188A42E450E067EBAE
:1030F00071E0CE018B559F4F0E94D22A08C08D856A
:103100009E85AF85B8890297A105B10570F38A81C4
:10311000873009F040C08FE08A838D859E85AF851A
:10312000B8890497A105B10548F448E550E06FE57A
:1031300071E0CE01835B9F4F0E94D22A8D859E85D0
:10314000AF85B88986309105A105B10548F51C8287
:10315000C951DF4F1882C75ED040EA81F0E0EA5DD6
:10316000FD4FE491E23021F48AA591E089278AA7F6
:1031700043E050E063E272E0CE018F5E9E4F0E941A
:10318000D22A44E250E06FEF71E0CE0183519F4FAD
:103190000E94D22A13C0883009F0BFCF8DE0BCCF87
:1031A00086309105A105B10599F289309105A105F7
:1031B000B10598F20D97A105B105D0F28D859E85D8
:1031C000AF85B8898E309105A105B10520F588A994
:1031D000843028F48230E8F081E088AB04C0845069
:1031E000823008F418AACD5EDE4F1882C351D14058
:1031F0008FE090E0A0E0B0E08D879E87AF87B88B2E
:1032000043E151E061E070E0CE0101960E940F2B96
:1032100006C082E0E2CF0E97A105B10521F383E15C
:1032200091E0FE013196DE01AC5EBE4F01900D9241
:103230000197E1F7C650DE4F1882CA5FD140CB5EDE
:10324000DE4F8881C551D1408093C2058093C1056E
:10325000C95EDE4F9881C751D1409093C005CC5EC6
:10326000DE4F9881C451D1409093BF05E82FF0E024
:10327000EA5DFD4F949121E0913009F020E0209328
:10328000BE05E49121E0E23009F020E02093BD0585
:10329000E23009F015C4843140F487E08093C10521
:1032A000913019F488E08093C10585B5826085BDB1
:1032B00085B5816085BD80916E00816080936E00D0
:1032C000C75EDE4F8881C951D1408093BB05C65E81
:1032D000DE4F8881CA51D1408093BA058091BD05E7
:1032E000882309F4F4C3CA5DDD4F8881C652D240F9
:1032F00081708093B9050E94740BCC5EDE4F88818B
:10330000C451D140823009F4E4C3833009F4E4C3EA
:10331000813099F4C55EDE4F8881CB51D1408093D6
:10332000210487E595E19093B8058093B7058AE578
:1033300099E09093B6058093B505CC5EDE4F888109
:10334000C451D140833009F017C4CA5EDE4F888172
:10335000C651D1408130C9F41092300481E080938D
:103360002F0410922E04589A599A8091B9008E7F9A
:103370008093B9008091B9008D7F8093B9008AE075
:103380008093B80085E48093BC00CA5EDE4F9881CC
:10339000C651D14081E0913041F0CC5EDE4F2881B2
:1033A000C451D140213009F080E0817080939C05A8
:1033B00090939B0584E2FE01FE5FA7E7B5E00190D4
:1033C0000D928A95E1F710927605109275050E948C
:1033D000C30A1092B4041092B304109232041092F3
:1033E0003104FE01EC5EFE4F7F016F01B12C75E0F0
:1033F000972E8E010C5F1F4FD801E92D1D92EA9583
:10340000E9F7B982D60190968C90A090BD05BFEFE8
:103410008B1679F1E5E0BE1209C0AA2039F0CA5E28
:10342000DE4F8881C651D140833019F5D60191967F
:103430007C9061E0882D0E94CB0A7B828AEC880D0B
:103440008A83A091B304B091B404CD010196909306
:10345000B4048093B30463E0AA0FBB1F6A95E1F73D
:10346000AD5CBB4F88E0FE01319601900D928A95CC
:10347000E1F7B394B2E0CB0ED11CE6E0BE12BCCFB4
:10348000C150DE4F8881CF5FD1408F3F19F060E09F
:103490000E94CB0A10E000E05CE0852ECC5EDE4F9F
:1034A0008881C451D140823009F090C3D701509631
:1034B000BC90BFEFBB1609F49FC081E00C30110532
:1034C00038F49801285031092230310508F080E0A5
:1034D000382F317080FF08C021E0C85EDE4F888140
:1034E000C851D140813009F020E0C75CDD4F08832E
:1034F000C953D2408B2D90E0FC01E753FD4F44911E
:10350000FC01ED57FD4F7490E42FF0E0EE0FFF1F2C
:10351000E15BFD4FC590D490E22FE170C65CDD4FBA
:10352000E883CA53D240CC5DDD4F9880C452D2406C
:103530008091BE05882309F438C3332309F435C3C9
:10354000F5E3FB1508F031C3CE5BDE4F8881C25432
:10355000D14028E0829FC00111241B821C821D8261
:10356000B98221E028879F838E8361E08B2D0E94A2
:10357000CB0AA091B304B091B4042A2F8AEC8B0D2E
:103580008A83CD0101969093B4048093B30433E011
:10359000AA0FBB1F3A95E1F7AD5CBB4F88E0FE0177
:1035A000319601900D928A95E1F740917505509101
:1035B0007605CA0101969093760580937505849EE1
:1035C000F001859EF00D1124EB54FB4F7082D282E6
:1035D000C182C65CDD4F8881CA53D2408383B482E6
:1035E000C75CDD4F9881C953D240958316821782FC
:1035F00010861186928623870F5F1F4F8FEFE81A80
:10360000F80A0031110509F049CFAA2009F41BC2BC
:10361000CA5EDE4F1881C651D140113009F017C380
:10362000CD5BDE4F8881C354D1408093B20578943E
:1036300080E88983A0910602B0910702E091080218
:10364000F09109029E012F5F3F4F41E055966C912A
:1036500080810E94BB12882309F463C09FEFA9E612
:10366000B8E19150A040B040E1F700C000001982DD
:10367000A0910602B0910702E0910802F0910902C0
:103680009E012F5F3F4F41E055966C9180810E94D3
:10369000BB12882309F445C0109214028FEF809367
:1036A0000C0280930A0280930B0280930D022FEF8D
:1036B0003FEF3093100220930F028093110280930A
:1036C000130210930E021093210210922202109204
:1036D000160210921502E7E1F2E08AE0DF011D9286
:1036E0008A95E9F710922302109224021092260282
:1036F0001092250206D9811114C031D9811111C04F
:103700008AE290E074D881110CC082E390E050DC32
:10371000811107C0B9DB811104C04ED9811101C0EC
:1037200012DB88E710DBEDD81AD988E7ADDB809192
:103730002402811198C0F12CE12C86EFC82E8BE079
:10374000D82E86010E191F090131110510F000E174
:1037500010E0F701E15FFC4FDE011196CD01800F13
:10376000911F8A179B0709F06EC2AE014F5F5F4F32
:10377000B801C7017CD8811176C080910C028823E2
:1037800009F471C09E2D8F2DC95CDD4F998388830C
:10379000C753D240E0910802F0910902208531859B
:1037A000C8018E0D911D2817390708F45CC0A0913F
:1037B0000602B09107029E01295C3D4F42E05B96F4
:1037C0006C9180810E94BB12882309F44CC0A091A7
:1037D0000602B0910702E0910802F09109029E01F1
:1037E000295D3D4F402F58966C9180810E947C0F3F
:1037F0008823C9F1A801BE01695D7D4FCE01019604
:103800000E94E22A892B79F5E00EF11EB6EFEB1645
:10381000BBE0FB0608F495CF84E0C95CDD4F8883EC
:10382000C753D240C85CDD4F1882C853D240A09124
:103830000602B0910702E0910802F09109029E0190
:10384000295C3D4F42E05D966C9180810E94BB12E5
:10385000882349F081E08093240288EC90E09093E3
:103860002602809325028CE0E5EDF2E0DE01119660
:1038700001900D928A95E1F7C95DDD4F1882C7521C
:10388000D24085E0C85DDD4F8883C852D240AE018A
:10389000495D5D4F62E070E086E192E00E9437147E
:1038A000811111C0AE014F5F5F4F6CE070E081ECA1
:1038B0009AE00E943714811106C08EE190E0909347
:1038C000A6058093A50580912302813009F180919E
:1038D00024028823E9F080E0A3DA6ED880912502E3
:1038E0009091260265DB1982E0910802F0910902AD
:1038F0009E012F5F3F4F41E063E280810E94BB1237
:10390000882331F081E0809323028ADA0E94F61244
:1039100082E089838AEC8A8383EE8B8319E01C839F
:10392000AE014F5F5F4F64E070E088E690E00E9478
:10393000371483EA89838A838B838C838D838E8378
:103940008F83888789878A87AE014F5F5F4F6AE0E0
:1039500070E087EA9AE00E94371488ED8983AE010F
:103960004F5F5F4F61E070E086EB9AE00E94371492
:10397000E2EEF2E0DE01A95DBD4F01900D921A95D5
:10398000E1F7AE01495D5D4F69E070E088EB94E0DE
:103990000E94371444E050E06BE870E0CE01895D8E
:1039A0009D4F0E94F82AAE01495D5D4F64E070E0D2
:1039B00088E99AE00E9437140E94F61280E2C95DFD
:1039C000DD4F8883C752D24088E2C85DDD4F8883CF
:1039D000C852D24080E3C75DDD4F8883C952D240D0
:1039E00088E3C65DDD4F8883CA52D240AE01495D8F
:1039F0005D4F64E070E08EE99AE00E9437140E9407
:103A0000F61288E190E09093A4058093A3050E94AC
:103A1000F61280E18093A7058EE49FE19093B105B3
:103A20008093B00586E0FE01E25EFD4FA9EAB5E0B5
:103A300001900D928A95E1F7C15CDE4F8881CF53EA
:103A4000D1408093A805CF5BDE4F8881C154D1401F
:103A50001092B3058093B4058091C20596EE980F3D
:103A60009830C0F4803258F046E050E06FEC72E0DD
:103A700087E392E00E94D22A86E08093BC05809181
:103A8000C2058A3109F0F3C08DE080932A028CE0F0
:103A900080932B027894C65CDD4F0FB6F894DEBF9E
:103AA0000FBECDBFDF91CF911F910F91FF90EF908F
:103AB000DF90CF90BF90AF909F908F907F900895B0
:103AC000913009F0F2CB843108F4ECCBEECB80E0FE
:103AD0000FCC8DE899E02DCC01E021E041E060EAD7
:103AE00076E881E090E00E94060BE3EDF2E084913D
:103AF000EDE8F2E01491E82FF0E0EE0FFF1FE75938
:103B0000FD4FE590F490CC5DDD4F8881C452D240EA
:103B100010932204F0922404E092230410922504CE
:103B20009AE0909326041092270410922804109291
:103B3000290410922A0410922B0480932C048FEFF6
:103B400080932D0460E08AE00E94CB0A0E94770AED
:103B5000D7018C91182B1C93B0E5BA95F1F788ED3D
:103B600099E09093B6058093B5058EE991E1909325
:103B7000B8058093B705E1CBC85EDE4F8881C85198
:103B8000D140823049F400E021E041E060E072E1A0
:103B90008AE790E00E94060BCC5EDE4F8881C4511C
:103BA000D140813009F0D1CBD7CB62E0621B8B2DA5
:103BB0000E94CB0AAA2041F00230110528F4CB5D07
:103BC000DD4F9880C552D2402FEFEFCC702FE9EC3B
:103BD000F2E08491E3E8F2E06491E82FF0E0EE0F88
:103BE000FF1FE15BFD4F85919491CC5DDD4FA88176
:103BF000C452D240AA2041F00230110528F4CB5D16
:103C0000DD4FA881C552D24040917505509176058F
:103C10009A012F5F3F4F3093760520937505849E60
:103C2000F001859EF00D1124EB54FB4F60839283CD
:103C300081831382148275831682178210861186FF
:103C4000A2872FEFD8CC24912D9331968ACD1230B4
:103C500009F0E8CEC25CDE4F8881CE53D14080931C
:103C6000AF0562E00E94CB0A85E99AE0D7CE982F93
:103C70009D7F4EE050E061E27FE09C3179F04EE0C4
:103C800050E063E17FE08B3149F08D3119F08032F3
:103C900009F000CF4EE050E065E07FE089E292E07D
:103CA0000E94D22AF7CECF93DF9300D00F92CDB7E8
:103CB000DEB720E030E040E057E469837A838B830D
:103CC0009C8369817A818B819C810E94A12969836F
:103CD0007A838B839C8369817A818B819C810E940A
:103CE0003E29CB010F900F900F900F90DF91CF9155
:103CF00008958F929F92AF92BF92CF92DF92EF92F0
:103D0000FF920F931F93CF93DF9300D000D00F92B9
:103D10000F92CDB7DEB78C016F8378872F813885FE
:103D20002817390771F480E090E2121613060CF49C
:103D300071C090E080E0232B09F46CC080E090EA31
:103D400069C0990F880B982F809590959801282726
:103D50003927A901481B590B5E834D838F819885B4
:103D6000990F880B982F809590952F81388528275B
:103D70003927B901681B790B7A83698364EE77EF81
:103D800081EB9DE390DFD82EC92E69EF7DE78CEAA9
:103D90009EE389DF7C018F8198859C01990F440BFC
:103DA000550B4801012E000CAA08BB08A981BA8155
:103DB0006D817E81A617B7070CF03FC0D501C40105
:103DC0006FE0880F991FAA1FBB1F6A95D1F78983DF
:103DD0009A83AB83BC83BC01CD010E94842A490134
:103DE000C901990F880B982F80959095BC01622787
:103DF0007925681B790B8D2D9C2D0E94C80DB4016F
:103E00008E0D9F1D0E94C80DAF81B8851A161B0626
:103E10000CF0905828960FB6F894DEBF0FBECDBFB9
:103E2000DF91CF911F910F91FF90EF90DF90CF9096
:103E3000BF90AF909F908F900895CA01B9012FE075
:103E4000660F771F881F991F2A95D1F769837A8398
:103E50008B839C83A50194010E94842A4901C90196
:103E6000990F880B982F80959095BC01682579252E
:103E7000681B790B8D2D9C2D0E94C80DB4018E0DF1
:103E80009F1D0E94C80D9C0180E090E41016110651
:103E900014F080E090EC821B930BBCCF8F929F922A
:103EA000AF92BF92CF92DF92EF92FF920F931F9348
:103EB000CF93DF93CDB7DEB7EA970FB6F894DEBFA6
:103EC0000FBECDBF89AF9AAF1092170310921603A1
:103ED000D090A705ED2CF12C80912302882311F1BD
:103EE00080910C028823F1F0A0910602B0910702A4
:103EF000E0910802F09109029E012F5D3F4F42E0E0
:103F00001C966C9180810E947C0F882359F009A136
:103F10001AA11027012710270E151F0508F08FC0C2
:103F2000109215038091160390911703811591400B
:103F300009F0B6C2C0901803D0901903E0901A039C
:103F4000F0901B0377E1F594E794D794C7947A95A2
:103F5000D1F7D0921903C092180380901C0390905F
:103F60001D03A0901E03B0901F03E7E1B594A79432
:103F700097948794EA95D1F790921B0380921A0345
:103F800040912003509121036091220370912303FB
:103F9000F7E17595679557954795FA95D1F7509341
:103FA0001D0340931C0300912403109125032091CD
:103FB000260330912703A7E1359527951795079597
:103FC000AA95D1F710931F0300931E038091B205A9
:103FD000009FF001019FF00DF00D1124813009F4D4
:103FE000A8C1823009F4B1C2811136C2449FC00118
:103FF000459F900D900D11248E0F9F1F880F991FC4
:10400000E0E0F0E8E81BF90B489DD001499DB00DB8
:10401000589DB00D11240C9DC0010D9D900D1C9D4F
:10402000900D11249D01281B390BC901BF01880F78
:10403000991F5FDE90931403809313030DC2A09128
:104040000802B0910902E0910602F09107028C91FA
:1040500011962D913C91369527952017310780F4C4
:104060009E012F5D3F4F41E063890E947C0F8823B2
:1040700009F458CF89A184FF03C00E94F61252CFE1
:10408000A0910602B0910702E0910802F0910902A6
:104090009E012F5F3F4F4D2D1D966C9180810E9498
:1040A0007C0F882309F43ECFC801B7010E943B2A48
:1040B000615060931503E091A305F091A405CF0131
:1040C00084719927892B09F432C129813A814B8166
:1040D0005C81CA01B9010E94A02A4B015C01809257
:1040E000180390921903A0921A03B0921B038D81BA
:1040F0009E81AF81B885BC01CD010E94A02A6B01D1
:104100007C01C0921C03D0921D03E0921E03F0922A
:104110001F0329853A854B855C85CA01B9010E9438
:10412000A02A8B019C01009320031093210320936C
:104130002203309323038D859E85AF85B889BC010A
:10414000CD010E94A02AAB01BC01409324035093EF
:1041500025036093260370932703C501BB2797FDB2
:10416000B095AB2F8BA39CA3ADA3BEA3C701BB2768
:1041700097FDB095AB2F8FA398A7A9A7BAA7C901A0
:10418000BB2797FDB095AB2F8BA79CA7ADA7BEA76C
:10419000CB01BB2797FDB095AB2F8FA798ABA9ABF1
:1041A000BAAB2BA13CA14DA15EA1CA01B9010E94ED
:1041B0002C2A6BA37CA38DA39EA32FA138A549A570
:1041C0005AA5CA01B9010E942C2A6FA378A789A712
:1041D0009AA7CBA0DCA0EDA0FEA0C60ED71EE81EBD
:1041E000F91E2BA53CA54DA55EA5CA01B9010E94EB
:1041F0002C2AC60ED71EE81EF91E2FA538A949A9DC
:104200005AA9CA01B9010E942C2A6BA37CA38DA3D1
:104210009EA3C60ED71EE81EF91E9FE0F91AA1E064
:10422000CA16D104E104A2E0FA0638F00E94F612A0
:10423000109217031092160375CE80911603909179
:1042400017039160909317038093160380E1E6FFB4
:1042500039C0282F30E0A1E0B0E0AC0FBD1FA20FA5
:10426000B31F9C91DE01A20FB31F12964C91592FE0
:104270005093010040930000DE01A20FB31F13967C
:104280009C91DE01A20FB31F14964C91592F5093AD
:10429000030040930200DE01A20FB31F15969C910C
:1042A000159716962C91392F309305002093040012
:1042B0008A5F20911603309117032860309317030B
:1042C00020931603E078F170EF2B09F42BCE90E0E9
:1042D000E1E0F0E0EC0FFD1FE80FF91F3081FE0177
:1042E000E80FF91F22813093010020930000FE01A6
:1042F000E80FF91F3381FE01E80FF91F2481309385
:10430000030020930200FE01E80FF91F258186813A
:10431000922F909305008093040080911603909152
:10432000170380679093170380931603FBCD80E0FB
:104330008ECF089DC001099D900D189D900D1124F0
:104340004C9D90014D9D300D5C9D300D11247C01E4
:10435000E21AF30AB701C7010E94C80D8C01BC0123
:104360000E94C80D5C01BC010E94C80D6C0160E692
:1043700070EB89E39DE397DCB8010E94C80D8BA325
:104380009CA36AE27EEE87E39CE38DDC8FA398A773
:104390006EEF7AEB87ED9CE386DCB8010E94C80DD6
:1043A0008BA79CA766EA79EB88EA9CE37CDC8FA765
:1043B00098AB62E377E88AEF9CE375DCB8010E9472
:1043C000C80D8BAB9CAB63E87EEC86E39DE36BDCB6
:1043D0008DAB9EAB6AEC79E989E99DE364DCB801B9
:1043E0000E94C80D8FAB98AF6AEA7AEA8AE29EE330
:1043F0005ADC4C01B5018BA19CA14FA158A5841B8F
:10440000950B0E94C80D2BA53CA5AFA5B8A92A0FF6
:104410003B1FB601820F931F0E94C80D6C01B501AE
:104420008BA99CA9EDA9FEA98E0F9F1F0E94C80D04
:104430008C0D9D1D2FA938AD820E931EB801880DDD
:10444000991D0E94C80DB7010E94C80DE80EF91E03
:10445000F0921403E09213038091130390911403DC
:104460008A3939E193070CF48FC089E999E1909377
:10447000140380931303209113033091140345E038
:10448000429FC001439F900D11242091A805222333
:1044900019F09195819591099093140380931303DA
:1044A000209113033091140330935B0320935A033C
:1044B000032E000C440B550B8091AB059091AC057D
:1044C000092E000CAA0BBB0B281B390B4A0B5B0BEC
:1044D000A091A905B091AA050E94CC2A20E034E061
:1044E00040E050E00E94842ADA01C9019058A109F5
:1044F000B109811550E895075FEFA507B50724F4CA
:1045000080E090E8AFEFBFEF8115E0E89E07A105DE
:10451000B10524F08FEF9FE7A0E0B0E0E9ADFAAD80
:1045200093878287EA960FB6F894DEBF0FBECDBFA1
:10453000DF91CF911F910F91FF90EF90DF90CF907F
:10454000BF90AF909F908F900895CC9CC001CD9C60
:10455000900D900D11248E0F9F1F880F991FE0E082
:10456000F0E8E81BF90B8C9CD0018D9CB00D9C9C55
:10457000B00D1124049FC001059F900D149F900D54
:1045800011248A0F9B1F52CD8736964E0CF073CFA5
:1045900087E696EE6CCF8F929F92AF92BF92CF92AA
:1045A000DF92EF92FF920F931F93CF93DF938C01D3
:1045B000EB0188818058990BF801148285838981E9
:1045C0008058990B1682878380912104882309F4EF
:1045D0003EC02D81822F90E0CB80F4E0CF9E600121
:1045E0001124AC0134E0559547953A95E1F74370B5
:1045F0005527C42AD52A3FEFC31A31E0D30AEC80ED
:10460000E4E0EE9E70011124959587959595879528
:1046100083709927E82AF92AFFEFEF1AF1E0FF0AE1
:104620008A8134E0839FC001112422952695269526
:104630002370822BB7018F5F91405BDBF80191877C
:104640008087B701C60155DBF801938782878D818A
:10465000982F90959170B92EB29490EFB922A12C19
:10466000869591E089278170982E9294990C990CE7
:1046700020EC9222812CA828B928B092F002A092B6
:10468000EF02DF91CF911F910F91FF90EF90DF909C
:10469000CF90BF90AF909F908F9008951F920F92F0
:1046A0000FB60F9211240BB60F922F933F934F9397
:1046B0005F936F937F938F939F93AF93BF93EF938A
:1046C000FF93CF93DF9300D00F92CDB7DEB783B7C0
:1046D0008E7F83BFE4E6F0E0808180718083E5E631
:1046E000F0E08081807C80830E94740BE4E0FBE733
:1046F0002591359145915491E0E0FBE785919591A5
:10470000A591B49189839A83AB83BC83BC01CD010D
:104710000E94D411E9E6F0E08081877F8083E998E8
:104720000F900F900F900F90DF91CF91FF91EF912D
:10473000BF91AF919F918F917F916F915F914F91B9
:104740003F912F910F900BBE0F900FBE0F901F90B7
:1047500018951F921FB61F9211248F939F93AF93AA
:10476000BF9380914C0390914D03A0914E03B09163
:104770004F030196A11DB11D80934C0390934D03EF
:10478000A0934E03B0934F03BF91AF919F918F9130
:104790001F901FBE1F9018951F920F920FB60F9279
:1047A00011240BB60F922F933F934F935F936F9308
:1047B0007F938F939F93AF93BF93EF93FF938091DA
:1047C000B900887F883309F463C0C8F58032A1F14D
:1047D00078F5883009F454C0B0F4882309F474C023
:1047E000FF91EF91BF91AF919F918F917F916F91C9
:1047F0005F914F913F912F910F900BBE0F900FBE85
:104800000F901F9018958031D9F1883149F7909118
:104810004A0380914903981750F5E0914A0381E0DB
:104820008E0F80934A03F0E0E75DFC4F80812AC041
:10483000883269F38033A1F68093280307C080355E
:1048400079F138F48034C1F1883451F60E94A30E16
:10485000C7CF883529F6E0914A0381E08E0F809317
:104860004A038091BB00F0E0E75DFC4F80838091BC
:104870002F048111EBCF81E080932E0484EA0BC0DA
:1048800080914B038093BB0085EC8093BC00A8CF44
:104890008093280385EC8093BC0010923004A0CF55
:1048A000E0914A0381E08E0F80934A038091BB0020
:1048B000F0E0E75DFC4F808390914A0380914903CB
:1048C000981710F385E8E1CF10922803BFCF8F939C
:1048D00081E080939C038F911895CDB7DEB7C055CA
:1048E000D1090FB6F894DEBF0FBECDBF0E943218BB
:1048F000E4E0FBE72591359145915491E0E0FBE739
:1049000085919591A591B491BC01CD010E94D411DE
:104910000E94250A22966FAF229723967FAF239796
:1049200024968FAF249725969FAF25972D961CAE82
:104930001DAE1EAE1FAE2D970E94250A29966CAFA4
:104940007DAF8EAF9FAF2997DC01CB0125962CADB3
:104950003DAD4EAD5FAD2597821B930BA40BB50B00
:10496000813C9742A940B10508F43CC00E94250A49
:1049700022966FAF229723967FAF239724968FAF0F
:10498000249725969FAF259710927A0060E088E0E3
:104990000E94570A1982BE016F5F7F4F80E00E941C
:1049A000240E69816D7F80E00E94B90D80916400C2
:1049B0008F6E80936400809165008F6380936500A3
:1049C00083B7817F846083BFF89482E08CBB809141
:1049D0006900886080936900E99A83B7816083BF2A
:1049E000789488950E94250A29966CAF7DAF8EAF8A
:1049F0009FAF299780911D0490911E04A0911F04E0
:104A0000B091200429964CAD5DAD6EAD7FAD299778
:104A1000481B590B6A0B7B0B8091C00590E0B0E0FE
:104A2000A0E084179507A607B70708F085CFE091A7
:104A3000B705F091B805309719F081E194E0199528
:104A40008091BD03882309F4E4C00DE913E0F12C43
:104A50008F2D0E94A90AD8012D913D918D01821BB5
:104A6000930B97FF03C09195819591090B970CF4D7
:104A7000CBC086E38F0D809305021092BD03912C6D
:104A80007CE0872E292D30E027963FAF2EAF279769
:104A90008091750590917605281739070CF4FDC1B2
:104AA0008091BB05882309F440C060911504709182
:104AB00016048091B3059091B40544275527481BEF
:104AC000590B641775074CF42091110430911204AE
:104AD00024603093120420931104861797074CF436
:104AE0002091110430911204286030931204209315
:104AF00011046091170470911804641775074CF441
:104B000020911104309112042260309312042093FA
:104B10001104861797074CF48091110490911204A8
:104B2000816090931204809311048091BA058823C8
:104B300081F080911104909112049C01207333271D
:104B40002033310531F48F7C94609093120480936C
:104B500011048091BD05882349F0E091B005F091E2
:104B6000B105309719F081E194E019954CE050E0DF
:104B700065E074E081E194E025D5892B09F42FC22A
:104B80000E94250A60931D0470931E0480931F04E5
:104B9000909320044CE0BE016F5D7F4F81E194E073
:104BA0000E94700E892B09F03DC28CE0E1E1F4E037
:104BB000A5E0B4E001900D928A95E1F7C090110450
:104BC000D0901204F12CE12C2D962CAD3DAD4EADC4
:104BD0005FAD2D97C216D306E406F50671F00E946C
:104BE000250A22966FAF229723967FAF23972496AC
:104BF0008FAF249725969FAF25972D96CCAEDDAE2F
:104C0000EEAEFFAE2D9798CEF394B0E1FB1220CF1D
:104C100036CF809104048823E9F010E000E0802F73
:104C20000E94860B811110C0802F0E947D0AF8011E
:104C3000E254FC4F9081891739F00E94A10B009338
:104C40000502109204041BCF0F5F1F4F063411059D
:104C500031F715CF4091B3045091B404411551057B
:104C600009F45AC080910102811130C080917A000C
:104C700086FD52C080917800909179002091310496
:104C800030913204B901E3E0660F771FEA95E1F74E
:104C9000FB01ED5CFB4FA781A11104C0E281E11192
:104CA0005FC0925006E0880F991F0A95E1F76D5C8E
:104CB0007B4FFB01948383832F5F3F4F4217530742
:104CC00009F455C03093320420933104109201024C
:104CD000E0913104F091320413E0EE0FFF1F1A95BA
:104CE000E1F7ED5CFB4F88E0DE01119601900D923B
:104CF0008A95E1F790917B008A818870977F892B54
:104D000080937B008A818770806480937C0080918F
:104D10007A00806480937A00D12CB6E0BB2EED2D12
:104D20000D2C000CFF0B8091B3049091B404E81794
:104D3000F9070CF0A4CEA3E0EE0FFF1FAA95E1F750
:104D4000ED5CFB4F88E0DE01119601900D928A9593
:104D5000E1F78885882381F08C819D81D394DFCF12
:104D6000E0E0F2E0DF01A81BB90BCD019BCF109270
:104D7000320410923104AACFF5E0DF1208C080910E
:104D8000BD05882321F080919B05823039F3C980CD
:104D90000C2D10E08C819D817801EE0CFF1CF70139
:104DA000E05BFC4F91838083B09EF001B19EF00DDB
:104DB0001124E958FA4F848095802C813D81032E7F
:104DC000000C440B550B82819381092E000CAA0B19
:104DD000BB0B281B390B4A0B5B0BA081B181DCD3C9
:104DE00029966CAF7DAF8EAF9FAF299720E034E05E
:104DF00040E050E089D3DA01C9019058A109B10916
:104E0000811520E892072FEFA207B20724F480E073
:104E100090E8AFEFBFEF811530E89307A105B1052A
:104E200024F08FEF9FE7A0E0B0E0A401092C000C74
:104E3000660B770BE1E0EC1538F42091BD052223D9
:104E400081F0F4E0CF120DC084179507A607B707CD
:104E50000CF121E02C15C0F0F801EF5EFB4F9283BE
:104E60007DCF84179507A607B70774F491948194B2
:104E70009108A401990C660B770B481759076A072C
:104E80007B0714F480E090E0F701EF5EFB4F918325
:104E9000808364CF80E090E8DCCF989CC00111242F
:104EA000AC014B545B4F6A018091B905882329F00E
:104EB00061ECA62E64E0B62E911056010E94250AE0
:104EC00061966CAF7DAF8EAF9FAF6197F501868124
:104ED0009781A085B18561964CAD5DAD6EAD7FAD1E
:104EE0006197481B590B6A0B7B0B828590E0B0E001
:104EF000A0E084179507A607B70708F06EC0E091F9
:104F0000B505F091B605D601EC901196FC9011977D
:104F100012960C91129713961C91139714962C913C
:104F2000149715963C91159716964C9116971796CF
:104F30005C91179718966C91189719967C91199710
:104F40001A968C911A971B969C911995C82ED12C64
:104F50002796EEADFFAD27978E9E80018F9E100D98
:104F600011240B541B4FD80115968C91E1E0F0E011
:104F700002C0EE0FFF1F8A95E2F7CF0120911104C6
:104F80003091120482239323C816D90631F10E946E
:104F9000250AD50116966D937D938D939C93199751
:104FA000F801258181E090E0022E02C0880F991F50
:104FB0000A94E2F780959095409111045091120463
:104FC0008423952302C0CC0CDD1C2A95E2F7C82A65
:104FD000D92AD0921204C0921104939453CD0E9406
:104FE000250A29966CAF7DAF8EAF9FAF2997809130
:104FF0001D0490911E04A0911F04B09120042996D5
:105000002CAD3DAD4EAD5FAD2997281B390B4A0B3A
:105010005B0BDA01C90185369105A105B10508F0E0
:10502000AFCD8ACC89A19AA1992309F4AFC098E0A9
:1050300090935C038E3310F18E53990B22E3289FDB
:10504000B001299F700D112403E111E0061B170B1D
:105050000233110514F002E310E0A80155276F5F39
:105060007F4F8DE593E0CBD241E0400FBE016F5FF3
:105070007F4F8CE593E00E94700E97CD823319F03C
:10508000873309F048C06AE071E082E693E093D28A
:1050900080E094E2A4EFB0E080935D0390935E0320
:1050A000A0935F03B093600387E695E4A3E2B1E0C9
:1050B000F0E0E0E041E2409357002491822728E0AD
:1050C00030E06C017D0151E0C522DD24EE24FF2497
:1050D000B695A79597958795CD28CE28CF2841F0EE
:1050E00050E2852753E8952758EBA5275DEEB527B5
:1050F0002150310931F73196E032F105E1F6809324
:10510000710390937203A0937303B093740310928E
:10511000610349E1ABCF8C3359F48CE0E0E5F3E077
:10512000ADE5B3E001900D928A95E1F74DE09ECF99
:10513000853399F44091BF05413041F480910302D9
:1051400080935D0310925E0343E090CF4330E1F71C
:105150008091020280935D0389CF863341F4809170
:10516000050280935D030E94A10B42E07FCF48E0DF
:1051700050E062E071E08DE593E014D28091C205C9
:105180008F3110F41092600349E070CF8D3369F4D1
:105190006BA18CE1689FB00111246F5F7F4F4DE1DF
:1051A00050E0CE0184963BD200CD8333E9F168F420
:1051B000803349F0813309F0F8CC87E797E7909383
:1051C0000108809300080E94040E843331F08A3372
:1051D00009F0EBCC0E949612E8CC8091BD038111BE
:1051E000E4CC8FEF809305020E94C30A0DE913E01F
:1051F00086E3F82E62E08F2D0E94CB0AAFE8B1E083
:105200001197F1F700C000008AEC8F0D0E94A90AE7
:10521000F801819391938F01F394F6E4FF12EACFA2
:1052200081E08093BD03C1CC809104048111BDCC89
:105230008FEF809305020E94C30A10E000E0802FE8
:105240000E94860B811111C062E0802F0E94CB0A60
:105250008FE891E00197F1F700C00000802F0E94D5
:105260007D0AF801E254FC4F80830F5F1F4F063424
:10527000110529F781E08093040497CC41D0A8F16F
:105280009E57A8F1985160F039F1983070F5092EC9
:105290009927660F771F881F991F0A94D1F71CC0A2
:1052A000BB27993F4CF4B111B1E0B62B672F782F93
:1052B0008827985FB1F708C0869577956795B79569
:1052C00008F4B1609395C1F7BB0F30F411F460FF9F
:1052D00003C06F5F7F4F8F4F3EF490958095709520
:1052E00061957F4F8F4F9F4F0895689424C022C0CF
:1052F00057FD9058440F551F59F05F3F71F0479587
:10530000880F97FB991F61F09F3F79F0879508956B
:10531000121613061406551FF2CF4695F1DF08C08A
:10532000161617061806991FF1CF869571056105A7
:1053300008940895E894BB2766277727CB0197F94F
:1053400008950BD078C069D028F06ED018F095235E
:1053500009F05AC05FC01124EECFCADFA0F3959FB9
:10536000D1F3950F50E0551F629FF001729FBB274C
:10537000F00DB11D639FAA27F00DB11DAA1F649FF8
:105380006627B00DA11D661F829F2227B00DA11DAB
:10539000621F739FB00DA11D621F839FA00D611D31
:1053A000221F749F3327A00D611D231F849F600D52
:1053B000211D822F762F6A2F11249F5750408AF08B
:1053C000E1F088234AF0EE0FFF1FBB1F661F771F17
:1053D000881F91505040A9F79E3F510570F014C0AE
:1053E000AACF5F3FECF3983EDCF3869577956795FF
:1053F000B795F795E7959F5FC1F7FE2B880F911D35
:105400009695879597F9089597F99F6780E870E0DA
:1054100060E008959FEF80EC089500240A9416162A
:10542000170618060906089500240A941216130692
:10543000140605060895092E0394000C11F4882320
:1054400052F0BB0F40F4BF2B11F460FF04C06F5F3C
:105450007F4F8F4F9F4F0895DB018F939F9392D083
:10546000BF91AF91A29F800D911DA39F900DB29F00
:10547000900D11240895AA1BBB1B51E107C0AA1F60
:10548000BB1FA617B70710F0A61BB70B881F991FE5
:105490005A95A9F780959095BC01CD01089597FB89
:1054A000072E16F4009406D077FD08D0E4DF07FC41
:1054B00005D03EF4909581959F4F08957095619524
:1054C0007F4F0895A1E21A2EAA1BBB1BFD010DC040
:1054D000AA1FBB1FEE1FFF1FA217B307E407F507A4
:1054E00020F0A21BB30BE40BF50B661F771F881F80
:1054F000991F1A9469F760957095809590959B0116
:10550000AC01BD01CF010895052E97FB16F4009460
:105510000FD057FD05D0D6DF07FC02D046F408C0F7
:1055200050954095309521953F4F4F4F5F4F0895CF
:1055300090958095709561957F4F8F4F9F4F0895FF
:10554000692796276927782787277827089505D020
:10555000332312F48A1B9B0B10C0A29FB001B39F90
:10556000C001A39F700D811D1124911DB29F700D6C
:10557000811D1124911D0895F0DFB7FF0895821B4E
:10558000930B0895EADFA59F900DB49F900DA49F03
:10559000800D911D11240895B7FFF4CFF3DF821B16
:1055A000930B0895FB01DC0102C005900D92415060
:1055B0005040D8F70895FB01DC0105900D920020C2
:1055C000E1F70895FB01DC0104C08D910190801981
:1055D00021F441505040C8F7881B990B0895FB01F6
:1055E000DC0102C001900D9241505040D8F708955F
:1055F000DC0101C06D9341505040E0F70895DC019B
:10560000CB01FC01F999FECF06C0F2BDE1BDF89ACD
:10561000319600B40D9241505040B8F70895DC0126
:10562000A40FB51F4150504040F0CB01840F951F8F
:105630002E9105D041505040D8F70895262FF99962
:10564000FECF92BD81BDF89A019700B4021639F0E1
:105650001FBA20BD0FB6F894FA9AF99A0FBE0895B2
:04566000F894FFCFEC
:1056640006010A0B18FF4D0243020000000000006F
:105674000000000000000000000000000000000026
:105684000000000000000000000F0C0D0EFFFF08DA
:1056940009050406070A0B00030102FFFF08090FAE
:1056A4000D0C0E680004765401F7FD000175191AFB
:1056B4000C6A231B1C00001F207274433B413839C1
:1056C4003A006B6C376F06246D6E7008060907028A
:1056D40004FFFF0F0A03FF0C0E0D0BFFFFFFFFFF7C
:1056E400FFFFFFFFFFFFFF090AFFFF040607050393
:1056F4000001020A0BFFFF0E0D0F0C040607050341
:1057040000FFFF0FFFFFFF090D0E0C014F00FFFF0D
:1057140003000000014400010001430001014300B3
:1057240000014200080004080607050802010302FC
:105734000103000E0DFEF2ABC4AAF1DFDFBBAFDF45
:0C574400DF00B8AAAAAAB088C3C5C7003D
:087B0000EFBEADDEEFBEADDE0D
:00000001FF
