:100000000DC700000C94C2230C94B62224C7000034
:1000100022C7000020C700001EC700001CC7000048
:100020001AC7000018C7000016C7000014C7000058
:1000300012C7000010C700000EC700000CC7000068
:100040000C94082308C7000006C7000004C700007E
:1000500002C7000000C70000FEC60000FCC600008A
:100060000C942B23F8C60000000000002400270099
:100070002A00FF080F0C21260107000000006D690F
:100080006E6900020F00000001010115D4A2000FEB
:10009000000000FFFFFFFFFFFFFFFFFFFFFFFFFF6D
:1000A000FFFFFFFF00FF00FF00FF00FF00FF004019
:1000B000404000B80B04160D0E0F33280B504F5262
:1000C0005151FFFFFFFFFFFF00FF00FF00FF000D8A
:1000D0000080000EFF000010FFFF000F0000FF096E
:1000E000FF450000000000000000000000000000CC
:1000F0000000000000000000000000000000000000
:1001000000000000000000000000000000000000EF
:1001100000000000000000000000000000000000DF
:1001200000000000000000000000000000000000CF
:1001300000000000000000000000000000000000BF
:1001400000000000000000000000000000000000AF
:10015000000000000000000000000000000000009F
:100160000000000000000000000000000000FF0090
:10017000000080000000000080000000000080FF00
:100180007F00000080FF7F00000080FF7F000000F4
:1001900080FF7F0514000000000000000000000246
:1001A0000000010102020000000000020202010141
:1001B000000201020100020100000202020101002E
:1001C0000000002300260029000000000025002870
:1001D000002B0001020408102040800102040810D6
:1001E000200102040810200404040404040404028E
:1001F0000202020202030303030303000070000073
:10020000000024000000020003000000650054FF0D
:10021000EF0000FA80000B12820001030C30C30EC5
:100220008C8CE914D5400213710F8E3883F883301B
:1002300000F883258EF8833000F883FFFFFFFF0F5F
:10024000FEA9D6240004001A8279A10000003CFF18
:10025000FF00000010000038836FA2003E03304012
:1002600000000002CAE3093E8000002000000000F8
:100270000000004000000060000000000C000000D2
:100280000C186E000006920A16C0DFFFFF0256FD32
:100290008CD377FFE1C496E0C5BEAA00000000FF42
:1002A000FF0B2B0000165700000359400000000010
:1002B000001DFA00026C1D000000003FFFDFEB0094
:1002C0003EB3B6000D227800002F3C000000000075
:1002D0001942B5000039A20000B365D90E9FC91DAF
:1002E000CF4C3430000000500000003BB67AE800EC
:1002F00064000000C80000000000001000000010B2
:1003000000FA921000225E000D229F000100000002
:10031000320000FF46000063D4000010000000041B
:10032000D6000004CC000004CC00000000107200D5
:100330000000400000000000000000000600020075
:10034000050007000000000064000000000000003D
:10035000000005000500640020000000000000000F
:10036000000000000040000000030000000032F820
:10037000980000FF650000830F0000FF9BFC000059
:10038000000000000000000000000000000000006D
:10039000000000000000000000000000000000005D
:1003A00000000000000000000010004000000000FD
:1003B0000000060000B26A000200000001FB83009A
:1003C00068000000D9FC007CF1FF83000000000001
:1003D000650000006403E8006400280000002500B8
:1003E00000000016A0000000001000000010000037
:1003F0002F0000000001F40000100000280000FFA2
:10040000FF4581FFFFFA72000000000000000000BD
:100410004400050005BAC6004778A20000000100AC
:1004200000000000000600000000140000254D0040
:100430002F706D000005AE000C02D000000000001F
:100440000000000000000000000000001B00000091
:100450000000000000000000000000006400000038
:100460000800000000000000000000000000000084
:10047000000000000000000000000000000000007C
:10048000000000000000000000000000000000006C
:10049000000000000000000000000000000000005C
:1004A000000000000000000000000000000000004C
:1004B0000000000000000000000000001B00000021
:1004C00000000000000000000E000E00000AC7003F
:1004D00004000000000032FFFFFF9C00000B2B0017
:1004E0000000020000000100000064FFE5000000C1
:1004F00000000000000000000000000000000100FB
:100500000000000001000000000000000180000069
:1005100001800000018000002426D30000000000BC
:10052000000000000600100096003C0000000000E3
:1005300000000000000000000000000C0A4E68CD22
:10054000CF770950166759C619CE82000000000007
:10055000000000000000000000000000000000009B
:1005600000000017D7840003000000000000000016
:10057000000000C7938F9D1E1B1C19000000000087
:10058000000000000000000000000000000000006B
:100590000000000203188500004000000000030076
:1005A0000000030000000000000000400000000008
:1005B000000000000000000000000000000000003B
:1005C000000000000000000000000000000000002B
:1005D00000000000000000000000000000000067B4
:1005E0007DDF7E72902E554CF6E6880000000000FC
:1005F0000000000000000000000000D8DCB4B8B02B
:10060000D8B9ABF3F8FAB3B7BB8E9EAEF132F51B97
:10061000F1B4B8B08097F1A9DFDFDFAADFDFDFF246
:10062000AAC5CDC7A90CC92C97F1A989264666B2DF
:100630008999A92D557DB0B08AA896365676F1BA1B
:10064000A3B4B280C0B8A89711B28398BAA3F0241B
:100650000844106418B2B9B49883F1A329557DBA3F
:10066000B5B1A38393F0002850F5B2B6AA839328BE
:10067000547CF1B9A3829361BAA2DADEDFDB819AFE
:10068000B9AEF5606870F1DABAA2DFD9BAA2FAB9E8
:10069000A38292DB31BAA2D9BAA2F8DF85A4D0C175
:1006A000BBAD83C2C5C7B8A2DFDFDFBAA0DFDFDF23
:1006B000D8D8F1B8AAB38DB4980D355DB2B6BAAF3B
:1006C0008C96198F9FA70E161EB49AB8AA872C5421
:1006D0007CBAA4B08AB691325676B28494A4C80883
:1006E000CDD8B8B4B0F19982A82D557D98A80E1632
:1006F0001EA22C547C92A4F02C5078F184A898C4AB
:10070000CDFCD80DDBA8FC2DF3D9BAA6F8DABAA631
:10071000DED8BAB2B68696A6D0F3C841DAA6C8F833
:10072000D8B0B4B882A892F52C548898F135D9F491
:1007300018D8F1A2D0F8F9A884D9C7DFF8F883C592
:10074000DADF69DF83C1D8F40114F1A8824EA884EE
:10075000F311D182F5D992289788F109F41C1CD89D
:1007600084A8F3C0F9D1D99782F129F40DD8F3F90F
:10077000F9D1D982F4C203D8DEDF1AD8F1A2FAF98E
:10078000A88498D9C7DFF8F8F883C7DADF69DFF8FB
:1007900083C3D8F40114F198A8822EA884F311D150
:1007A00082F5D992509788F109F41CD884A8F3C037
:1007B000F8F9D1D99782F149F40DD8F3F9F9D1D9E3
:1007C00082F4C403D8DEDFD8F1AD8898CCA809F94B
:1007D000D98292A8F57CF1883ACF944A6E98DB6969
:1007E00031DAADF2DEF9D88795A8F221D1DAA5F990
:1007F000F417D9F1AE8ED0C0C3AE82C684C3A8852B
:1008000095C8A588F2C0F1F4010EF18E9EA8C63EEF
:1008100056F554F18872F40115F19845856EF58E00
:100820009E0488F142985A8E9E068869F4011CF154
:10083000981E1108D0F504F11E970202983625DBA8
:10084000F9D985A5F3C1DA85A5F3DFD88595A8F395
:1008500009DAA5FAD88292A8F578F1881A849F2639
:10086000889821DAF41DF3D8879F39D1AFD9DFDF1B
:10087000FBF9F40CF3D8FAD0F8DAF9F9D0DFD9F9AA
:10088000D8F40BD8F3879F39D1AFD9DFDFF41DF34C
:10089000D8FAFCA869F9F9AFD0DADEFAD9F88F9F57
:1008A000A8F1CCF398DB45D9AFDFD0F8D8F18F9F12
:1008B000A8CAF38809DAAF8FCBF8D8F2AD978D0CC0
:1008C000D9A5DFF9BAA6F3FAF412F2D8950DD1D969
:1008D000BAA6F3FADAA5F2C1BAA6F3DFD8F1BAB232
:1008E000B68696A6D0CAF349DAA6CBF8D8B0B4B883
:1008F000D8AD84F2C0DFF18FCBC3A8B2B68696C85C
:10090000C1CBC3F3B0B48898A821DB718D9D7185EC
:100910009521D9ADF2FAD88597A828D9F408D8F24C
:100920008D29DAF405D9F285A4C2F2D8A88D9401F4
:10093000D1D9F411F2D88721D8F40AD8F28498A832
:10094000C801D1D9F411D8F3A4C8BBAFD0F2DEF8F6
:10095000F8F8F8F8F8F8F8D8F1B8F6B5B9B08A951B
:10096000A3DE3CA3D9F8D85CA3D9F8D87CA3D9F8E6
:10097000D8F8F9D1A5D9DFDAFAD8B18530F7D9DEC0
:10098000D8F830ADDADED8F2B48C99A32D557DA01D
:1009900083DFDFDFB591A0F629D9FBD8A0FC29D9E8
:1009A000FAD8A0D051D9F8D8FC51D9F9D879D9FBC7
:1009B000D8A0D0FC79D9FAD8A1F9F9F9F9F9A0DAD7
:1009C000DFDFDFD8A1F8F8F8F8F8ACDEF8ADDE83A9
:1009D00093AC2C547CF1A8DFDFDFF69D2CDAA0DF8E
:1009E000D9FADB2DF8D8A850DAA0D0DED9D0F8F8A3
:1009F000F8DB55F8D8A878DAA0D0DFD9D0FAF8F823
:100A0000F8F8DB7DF8D89CA88CF530DB38D9D0DE3F
:100A1000DFA0D0DEDFD8A848DB58D9DFD0DEA0DFEA
:100A2000D0DED8A868DB70D9DFDFA0DFDFD8F1A87F
:100A300088902C547C98A8D05C38D1DAF2AE8CDF48
:100A4000F9D8B087A8C1C1B188A8C6F9F9DA36D8F3
:100A5000A8F9DA36D8A8F9DA36D8A8F9DA36D8A853
:100A6000F9DA36D8F78D9DADF818DAF2AEDFD8F79F
:100A7000ADFA30D9A4DEF9D8F2AEDEFAF983A7D9FF
:100A8000C3C5C7F1889BA77AADF7DEDFA4F88494CD
:100A900008A797F300AEF29819A488C6A39488F625
:100AA00032DFF28393DB09D9F2AADFD8D8AEF8F9A6
:100AB000D1DAF3A4DEA7F1889B7AD8F38494AE1937
:100AC000F9DAAAF1DFD8A881C0C3C5C7A39283F61B
:100AD00028ADDED9F8D8A350ADD9F8D8A378ADD9D0
:100AE000F8D8F8F9D1A1DADEC3C5C7D8A18194F846
:100AF00018F2B089ACC3C5C7F1D8B8B4B09786A80E
:100B0000319B069907AB9728889BF00C201440B0C6
:100B1000B4B8F0A88A9A285078B79BA829517924AC
:100B20007059446938644831F1BBAB88002C547C5F
:100B3000F0B38BB8A804285078F1B088B49726A8F1
:100B40005998BBABB38B02264666B0B8F08A9CA816
:100B50002951798B2951798A2470598B2058718AAF
:100B60004469388B3940688A6448318B30496088E1
:100B7000F1AC002C547CF08CA804285078F18897B4
:100B800026A85998AC8C02264666F0899CA8295163
:100B900079247059446938644831A988092059700A
:100BA000AB11384069A8193148608CA83C415C20E1
:100BB0007C00F187981986A86E767EA999882D55B4
:100BC0007DD8B1B5B9A3DFDFDFAED0DFAAD0DEF2CA
:100BD000ABF8F9D9B087C4AAF1DFDFBBAFDFDFB96B
:100BE000D8B1F1A3978E60DFB084F2C8F8F9D9DEEE
:100BF000D89385F14AB183A308B5839A0810B79FAB
:100C000010D8F1B0BAAEB08AC2B2B68E9EF1FBD99E
:100C1000F41DD8F9D90CF1D8F8F8AD61D9AEFBD8EC
:100C2000F40CF1D8F8F8AD19D9AEFBDFD8F416F111
:100C3000D8F8AD8D61D9F4F4ACF59C9C8DDF2BBA5E
:100C4000B6AEFAF8F40BD8F1AED0F8AD51DAAEFA90
:100C5000F8F1D8B9B1B6A3839C08B9B1839AB5AA03
:100C6000C0FD3083B79F10B58B93F20202D1ABDA8F
:100C7000DED8F1B080BAABC0C3B284C1C3D8B1B9B9
:100C8000F38BA391B609B4D9ABDEB0879CB9A3DDD1
:100C9000F1B38B8B8B8B8BB087A3A3A3A3B28BB643
:100CA0009BF2A3A3A3A3A3A3A3A3A3A3F1B087B57C
:100CB0009AA3F39BA3A3DCBAACDFB9A3A3A3A3A31A
:100CC000A3A3A3A3A3A3A3A3A3A3A3D8D8D8BBB32D
:100CD000B7F1AAF9DAFFD9809AAA28B48098A72098
:100CE000B79787A86688F07951F1902C870CA78177
:100CF000976293F071716085940129517990A5F103
:100D0000284C6C870C95188578A38390284C6C88A8
:100D10006CD8F3A28200F210A8921980A2F2D92610
:100D2000D8F188A84DD948D896A83980D93CD8950B
:100D300080A839A68698D92CDA87A72CD8A88995B7
:100D400019A980D938D8A88939A980DA3CD8A82E21
:100D5000A83990D90CD8A8953198D90CD8A809D918
:100D6000FFD801DAFFD89539A9DA26FFD890A80D67
:100D70008999A810809821DA2ED88999A83180DA2B
:100D80002ED8A886963180DA2ED8A8873180DA2E20
:100D9000D8A88292F34180F1D92ED8A882F3198085
:100DA000F1D92ED882ACF3C0A28022F1A62EA72EB4
:100DB000A92298A829DAACDEFFD8A2F22AF1A92E3E
:100DC0008292A8F23180A696F1D900AC8C9C0C30AE
:100DD000ACDED0DEFFD88C9CACD010ACDE8092A212
:100DE000F24C82A8F1CAF235F19688A6D900D8F162
:100DF000FF0E0C0D0F08FFFF09050406070A0B0F75
:100E00000C0D0E08FFFF09050406070A0B0F0C0D59
:100E10000E0908FFFF050406070A0B0011241FBE78
:100E2000CFEFD8E0DEBFCDBF11E0A0E0B1E0EEEF44
:100E3000F4E502C005900D92AC3EB107D9F724E06D
:100E4000ACEEB1E001C01D92AD32B207E1F70E94F5
:100E5000C8230C947D2AD4C8CF93DF93FC01DA0118
:100E600086E0EB01888385E0808315962C911597A9
:100E7000822F922F990F990B97FD079653E0959526
:100E800087955A95E1F7828317962C911797822FB1
:100E9000922F990F990B91958195910997FD07963E
:100EA00043E0959587954A95E1F783831B962C91AE
:100EB0001B97822F922F990F990B97FD079633E07E
:100EC000959587953A95E1F7848319962C91199712
:100ED000822F922F990F990B97FD079623E09595F6
:100EE00087952A95E1F7858311969C9111979295A4
:100EF000917081818E7F982B918311968C9111979F
:100F0000829582709D7F892B818311969C91969505
:100F1000969596959870877F892B8183DF91CF91E5
:100F200008959F92AF92BF92CF92DF92EF92FF927D
:100F30000F931F93CF93DF9300D000D0CDB7DEB7D0
:100F4000FC014B835C838CE1DB018C9384E0808328
:100F500090902604B0902C0479E2C72E71E0D72E31
:100F6000FA83E98390E080E061E070E0A82ED6018A
:100F70002D916D01AB81BC814D915C912F3F09F4A6
:100F80004AC0DB0102C0AA0FBB1F2A95E2F79D01F0
:100F90002423352341E02115310509F440E08B017C
:100FA0000A2C02C0000F111F0A94E2F70095109559
:100FB000E180F280E022F12250E08A0102C0000FBD
:100FC000111FAA94E2F70E291F29128301838915A4
:100FD00010F5BBE1BB1215C0843098F49C012E586B
:100FE0003F4FD9012C918B0102C0000F111F2A9590
:100FF000E2F7AB81BC812D913C9120233123242B3E
:10100000352B41E0232B09F440E0242F2195A981C1
:10101000BA8118962C93019629813A812F5F3F4F10
:101020003A8329838E30910509F0A0CFAB81BC8132
:101030002C912F7088E02B3028F430E02C533E4F59
:10104000D9018C918383AB81BC811A962D913C91FF
:10105000BBE1BB1216C0AB81BC8119968C91859502
:101060008054868387E29FE12F3F3F4711F480E65B
:1010700090EF958B848B8DE7878380E884838583CD
:1010800076C06DE1B61619F080E2B81220C0AB81CF
:10109000BC8119968C9180588683818192818F7D45
:1010A00041E050E02F3F3F4711F050E040E065E065
:1010B000440F551F6A95E1F7842B952B928381830A
:1010C000AB81BC8112969C9180E8891B8783BFE12C
:1010D000BB1619F02AE1B212D0CF81E090E0AB81CB
:1010E000BC8112962C91233310F490E080E054E000
:1010F000880F991F5A95E1F7218132812F7E822B2B
:10110000932B9283818321E030E0AB81BC811396E5
:101110004C91433310F430E020E045E0220F331FC0
:101120004A95E1F78F7D282B392B32832183AB81C0
:10113000BC8112968C911297848713968C91139789
:10114000858715968C9115978058848317969C9166
:1011500017979058958319968C9119978058868384
:101160001B968C9180588783BAE1BB1681F00F9053
:101170000F900F900F90DF91CF911F910F91FF90E3
:10118000EF90DF90CF90BF90AF909F900895909593
:10119000958380958783EBCFEF92FF920F931F93F8
:1011A000CF93DF93CDB7DEB72C970FB6F894DEBFA1
:1011B0000FBECDBFE32FF0E0E559FE4F80818F3F9A
:1011C00081F021E030E002C0220F331F8A95E2F760
:1011D0008091EF019091F0012823392381E0232BA6
:1011E00009F480E02C960FB6F894DEBF0FBECDBF99
:1011F000DF91CF911F910F91FF90EF900895EF92A3
:10120000FF920F931F93CF93DF93CDB7DEB7649711
:101210000FB6F894DEBF0FBECDBFE986FA860B8706
:101220001C872D873E874F87588B698B7A8B8B8BDA
:101230009C8B9F3F69F4EA85FB8580818E2191E03C
:1012400009F490E081E02C859217B9F080E015C098
:1012500088E0989FF0011124E351FD4F88E0DE0102
:10126000119601900D928A95E1F74C815D8181E0A4
:101270002E813F812417350748F764960FB6F894FE
:10128000DEBF0FBECDBFDF91CF911F910F91FF90B9
:10129000EF900895EF92FF920F931F93CF93DF93F8
:1012A000CDB7DEB72C970FB6F894DEBF0FBECDBF1B
:1012B000E982FA820B831C832D833E834F835887F8
:1012C00069877A878B879C8780910201843049F1F6
:1012D000893051F58BE791E02E81820F911DFC0141
:1012E00080818F3F81F021E030E002C0220F331F68
:1012F0008A95E2F78091F1019091F2012823392338
:1013000081E0232B09F480E02C960FB6F894DEBF21
:101310000FBECDBFDF91CF911F910F91FF90EF9046
:1013200008958BE991E0D8CF8BE891E0D5CFCF93AA
:10133000DF9300D000D0CDB7DEB72FB7F8948091FF
:101340004C0290914D02A0914E02B0914F022FBFDE
:101350002227382F492F5A2FCA01B9012DE730E033
:1013600040E050E00E94AF29CA01B9010F900F90F0
:101370000F900F90DF91CF9108958EBD00000DB4B6
:1013800007FEFDCF8EB5089590E0FC01ED52FE4FB3
:101390002491FC01E951FE4FE491EE2389F0F0E045
:1013A000EE0FFF1FE753FE4FA591B4919FB7F8943E
:1013B0008C91611106C0E22FE095E823EC939FBF6A
:1013C0000895822B8C93FBCF61E08DE0DDDF61E03F
:1013D0008BE0DACF90E0FC01ED52FE4F2491FC014E
:1013E000E951FE4FE491EE2359F0F0E0EE0FFF1FBC
:1013F000E154FE4FA591B491EC91E22381E009F410
:1014000080E00895CF93DF93EC0180911904E2DF2F
:1014100091E089274FEF5FE7849F9001859F300D12
:1014200011243B872A87DF91CF91089580648093B0
:101430007C0080917A00806480937A0080917A00A9
:1014400086FDFCCF8091780090917900089580917D
:101450007A0086FDFCCF81E0809301010895CF934F
:10146000DF9390E0FC01ED52FE4F249189519E4F95
:10147000FC0184918823D1F090E0880F991FFC0132
:10148000E859FF4FA591B491FC01E753FE4FC59178
:10149000D4919FB7613069F4F8948C9120958223A0
:1014A0008C938881282328839FBF7894DF91CF91E4
:1014B0000895623051F4F8943C91822F80958323F3
:1014C0008C938881822B8883EFCFF8948C91822B28
:1014D0008C93EACFCF92DF92EF92FF920F931F93FC
:1014E000CF93DF936B017C01142FD22F60E08BE050
:1014F000B6DF62E08CE0B3DF60E08DE0B0DF61E09A
:101500008AE042DF60E08AE0AADF1111C8E0D11171
:10151000C4600111C062C11489E0D8068DE3E806F9
:10152000F104D8F580E8C81684E8D8068EE1E8060C
:10153000F104A8F580E4C81682E4D8068FE0E80636
:10154000F10478F580E2C81681EAD80687E0E8065B
:10155000F10448F580E9C81680EDD80683E0E80676
:10156000F10418F588E4C81688EED80681E0E8068C
:10157000F104E8F487E091E08927982F96959C2B59
:1015800090659CBD81708DBDDF91CF911F910F91B2
:10159000FF90EF90DF90CF90089580E0ECCF81E056
:1015A000EACF82E0E8CF83E0E6CF84E0E4CF85E0D5
:1015B000E2CFEAE7F0E0808184608083808182600E
:1015C000808380818E7F808380818068808308957E
:1015D000682F8AE0D9CE982F8D30A9F0823098F00C
:1015E00080910604882321F02EEE290F223068F026
:1015F00086EF890F843038F081E0983031F09230F6
:1016000021F080E0089581E0089508950F931F93DD
:10161000CF938091BE02882391F00AEA12E0C0E0E5
:101620008C2FD9DF811103C061E08C2F18DF8C2F44
:10163000D1DEF80181938F01CF5FC43189F7109219
:10164000A9021092BE02CF911F910F910895CF93DE
:10165000DF93EC01FB0180818052990B880F880F8A
:101660001C828D8381818052990B880F880F1E8286
:101670008F8325818481958180959095322F369531
:101680003695369561E036273170B32FB295BB0F92
:10169000B07EA0E0967D8A2B9B2B22952695277005
:1016A00026272170522F550F550F550F40E0842BE0
:1016B000952B9093F0018093EF01DF91CF910895E6
:1016C000FC01DB018C91880F880F80581482858380
:1016D00011968C911197880F880F805816828783F6
:1016E00013968C9113978F718E50990B97FD20C094
:1016F0009187808720853185C901880F991F820FC6
:10170000931F80329105BCF49187808780859185F5
:101710004097880F880F880F1086818714968D91C7
:101720009C91809590959093F0018093EF0108959E
:1017300011861086DFCF8FE190E0E6CFFC01DB0160
:101740008C918058990B1482858312968C911297F4
:101750008058990B1682878311968C911197805827
:10176000990B1086818713968C9113978058990B4B
:101770001286838714968C911497828315968C9188
:101780001597838316968D919C9180959095909353
:10179000F0018093EF010895FC01DB018C918F73C0
:1017A0008052990B9583848311968C9111978F7336
:1017B0008052990B978386838C9190E023E09595D6
:1017C00087952A95E1F78871992711962C911197A1
:1017D00030E045E0359527954A95E1F726703327A7
:1017E000822B932B12962C911297221F2227221FB5
:1017F000822B40979187808712968C9112978F71D8
:101800008051990B9387828712968C9112978695B7
:101810008695887113969C911397929596959770DB
:10182000892B828313968C9113978F7183831496DF
:101830008D919C91809590959093F0018093EF010C
:101840000895DC01FB0190818181829586958670E7
:10185000292F2695269526952871822B2281221FD5
:101860002227221F822B990F990F905814961C92B1
:10187000149715969C9315979181990F990F9058ED
:1018800016961C92169717969C931797248193810E
:1018900020FF3BC0292F30E0209530952F71332752
:1018A000205E3F4F19963C932E931897082E000CFC
:1018B000990B228120FF2FC02FE330E0281B390B2A
:1018C0001B963C932E931A978281869586958871F4
:1018D0009381929596959770892B12968C93129777
:1018E000828190E0959587958F7013968C93848173
:1018F0009581982789279827809590958D7C937658
:101900009093F0018093EF0108959F7120E230E001
:10191000291B3109C7CF20E230E0D0CFCF93DF932E
:10192000FC01EB018A8190E0982F882788279F701F
:101930006881862B958384838A8120E1829FC00100
:10194000112488279F706981862B978386838B81DA
:1019500083838D8181FB992790F9392F3295330F3D
:10196000330F307C20E0982F9695969561E096276E
:101970009170B92FB295BB0FB07EA0E02A2B3B2B04
:101980008170582F5295507F40E0242B352B309397
:10199000F0012093EF01DF91CF910895FC01DB016D
:1019A0008D919C9111979583848312968D919C9132
:1019B00013979783868314968C9183830895FB01F4
:1019C0008481958198278927982780959095909371
:1019D000F0018093EF01089580E0FADD81EECDDC27
:1019E00081E0F6CD80E0F4DD82EEC7DC81E0F0CD71
:1019F00080E0EEDD80E5C1DC83E7BFDC81E0E8CD9F
:101A0000CF9380E0E5DD8FEFB8DCC82F81E0E0DD2B
:101A10008C2FCF9108950F931F93CF93DF93EC01F9
:101A20008C01060F111DC017D10729F4DF91CF914A
:101A30001F910F9108958991A0DCF5CFCF93DF938B
:101A4000D82FC62F80E0C4DD8D2F806296DC8C2FCE
:101A500094DC81E0DF91CF91BBCDCF93DF9300D0B9
:101A600000D0CDB7DEB7DB019C010E94F429698369
:101A70007A838B839C83AB01BC015F7766277727D2
:101A800081E090E0A0E0B0E04115504461057105AF
:101A900019F480E090E0DC012EE0880F991FAA1F66
:101AA000BB1F2A95D1F729813A814B815C81820F36
:101AB000931FA41FB51F3FE0B595A79597958795F0
:101AC0003A95D1F70F900F900F900F90DF91CF9133
:101AD0000895F89488E198E00FB6F894A89580935B
:101AE00060000FBE90936000FFCF1F93CF93DF93F2
:101AF000182FD62FC72F80E06BDD812F80623DDC51
:101B000064E08D2F9C2F87DF81E0DF91CF911F91C3
:101B10005FCD1F93CF93DF93182FEB0180E058DD4B
:101B2000812F2BDC888129DC888381E0DF91CF91B4
:101B30001F914ECDCF93DF930F92CDB7DEB7BE018D
:101B40006F5F7F4FE6DF89810F90DF91CF9108951E
:101B5000FF920F931F93CF93DF93082FF92E60E42A
:101B600087E06CDF80E034DD80E607DC80E005DCC8
:101B7000182F81E02DDD80E02BDD81E6FEDBC02F1C
:101B8000DF2D8C2F801B811750F081E021DD812F0C
:101B900090E0DF91CF911F910F91FF90089589916F
:101BA000ECDBFE0131978083ECCFFF920F931F9304
:101BB000CF93DF93D82FC92FF62E072F142F109213
:101BC0009C021EDF282F30E035952795277033279C
:101BD000232BE1F48F2D902FBBDF60E487E02EDF15
:101BE00001E060E387E02ADF80E0F2DC80EAC5DB29
:101BF000612F8D2F9C2F0FDF81E0EADC802F90E09A
:101C0000DF91CF911F910F91FF90089500E0E9CFF0
:101C100085ED8093BC008FEF9FE72091BC0024FDF1
:101C200003C01092EA0202C00197B9F70895CF935A
:101C3000DF93DC01FA0184E1EB0188831C921196A9
:101C40008C93119712968CE001900D928A95E1F792
:101C5000DF91CF910895CF93282FCB01C42F4FEF61
:101C60005FE7C13228F080E045C041505109D9F307
:101C70003091EA023111F9CF31E03093EA0230932A
:101C8000E9024FEF4093280210924A024C0F409312
:101C9000490230934B0230914B02220F232B2093A9
:101CA0004B022091E802222381F11092E802209158
:101CB0004B022093BB002FEF3FE74091BC0043FD58
:101CC0001BC025EC2093BC002FEF3FE74091EA02B8
:101CD0004130E9F020914A022C1710F4C0914A02D9
:101CE0004C2F50E069E272E00E943C2A81E0CC2354
:101CF00009F4B9CFCF9108952150310909F4B3CF38
:101D000040914B024093BB00D8CF25EEDBCF215052
:101D10003109E1F6A8CFCF93C82F8FEF9FE741326B
:101D200020F080E03FC00197E1F32091EA02211109
:101D3000FACF82E08093EA0281E08093E9028FEF9C
:101D40008093280210924A024093490250E089E2AF
:101D500092E00E943C2A10924B0280914B02CC0FE1
:101D6000C82BC0934B028091E802882329F110927E
:101D7000E80280914B028093BB008FEF9FE7209198
:101D8000BC0023FD11C085EC8093BC008FEF9FE762
:101D90002091EA02223091F09091280281E09F3F49
:101DA00009F0BFCFCF910895019709F4BACF2091E0
:101DB0004B022093BB00E3CF85EEE6CF019741F7BE
:101DC000B0CFEF92FF920F931F93CF93DF930F92B9
:101DD000CDB7DEB7182F6983E42EF22E032F41E032
:101DE000BE016F5F7F4F97DF882371F04E2D6F2DFF
:101DF000702F812F30DF81700F90DF91CF911F9175
:101E00000F91FF90EF90089580E0F5CFCF92DF9291
:101E1000EF92FF920F931F93CF93DF938C01EB010F
:101E20006C017B01E40EF11CCE15DF0549F4DF9156
:101E3000CF911F910F91FF90EF90DF90CF90089579
:101E40008AE50115110511F0F601808196DA899372
:101E5000F8E2FA95F1F78FEFC81AD80AE5CF0F9399
:101E60001F93CF93DF938C01D62FE091DD02F09189
:101E7000DE0290818091DC0280958923808360E07E
:101E80008DE082DA60E08BE07FDA88E28A95F1F714
:101E900043E063EF71E0C801B9DF8091F4018F3F47
:101EA000A9F4D0E0C0E090DAE091DD02F091DE022A
:101EB00080819091DC02892B808388E28A95F1F7FA
:101EC000CE01DF91CF911F910F9108959091F5016F
:101ED0009A3511F09111E5CF8F70C82FCC0FD33008
:101EE00039F04DEF4D0F66EF71E0C80103968EDFBC
:101EF000CD5F4C2F4D1BCD1761F06D2F70E0CB01E6
:101F0000840F911D81976CF66D507E4F90E080E0BC
:101F10007DDFC3EFD1E0C7CFFF920F931F93CF9325
:101F2000DF930F92CDB7DEB78983F62E8A0141E0A9
:101F3000BE016F5F7F4F82E5EEDE882351F087E6BA
:101F400091E00197F1F700C000004F2DB80182E544
:101F500082DE0F90DF91CF911F910F91FF90089536
:101F6000CF93DF9300D000D000D0CDB7DEB7AE0165
:101F70004F5F5F4F66E08AEFCFDFFE013196AE0123
:101F8000495F5F4F8FEF90E02191922B82234E1794
:101F90005F07D1F7992369F08F3F59F099818E81BE
:101FA00026960FB6F894DEBF0FBECDBFDF91CF915E
:101FB00008958FEF9FEFF4CFCF92DF92EF92FF92D1
:101FC0000F931F93CF93DF9300D000D000D0CDB7F5
:101FD000DEB78D839E83062FAAD96B017C0110E0AA
:101FE000602F8D819E813BDFFC01892B51F01F5FAB
:101FF0008D819E81895B9140D9F48181807F803F72
:1020000001F18FE19EE40197F1F700C000008FD944
:1020100069837A838B839C83DC01CB018C199D09B6
:10202000AE09BF098B3F9105A105B105C8F209C0F2
:102030008D819E818D5B914099F48181807F803F6D
:1020400001F326960FB6F894DEBF0FBECDBFDF9129
:10205000CF911F910F91FF90EF90DF90CF90089557
:10206000133078F7CECFCF93DF93EC0163E081ECB0
:1020700091E0F5DEFC0180E0309751F08181982FEE
:10208000907F903F41F464E08DEB91E095DF81E03B
:10209000DF91CF910895238134812095309530933D
:1020A000F2012093F101903509F053C088E080934C
:1020B00002018181823179F489E080930201858176
:1020C0008058990B1C828D8346818FE790E0841B9A
:1020D00091091E828F838181807D8035C1F6858143
:1020E0008058990B1886898746818FE790E0BC015C
:1020F000641B71091A866B8747814058550B1C82F7
:102100004D834085841B91091E828F838091270413
:10211000882399F084E0809302011D821C821F8233
:102120001E8280858058990B898790E080E030FF7F
:1021300002C08FEF9FE79B878A878181893709F0EB
:102140005CC083898A8384898B8382E080930201C7
:102150009ECF8332A9F585E0809302018581805866
:10216000990B1C828D8341E08681813808F440E020
:1021700080E0942F9295990F990F907C4881598116
:102180005F7B482B592B5983488361E087818138D5
:1021900008F460E080E0962F9795992797955F77F0
:1021A000842B952B9983888361E04085413F08F417
:1021B00060E040E0562F9E7F482B592B598348837F
:1021C0008181807F803E09F074CF86E08093020198
:1021D000858190E09D838C839681858197FD09C0E0
:1021E000803808F08FE790E080589F4F9D838C8364
:1021F00060CF8138C0F781E8F6CF807F803509F461
:1022000046CF81E08093020143CF1F93CF93DF93AA
:10221000D82FC92F809102018A3009F515E08D2F42
:102220009C2F21DF8FEC97E00197F1F700C00000B1
:102230001150A9F78D2F9C2F16DF8823C1F064E081
:1022400089EB91E0B9DE65E084EB91E0B5DE69E011
:102250008BEA91E0B1DE64E08DEB91E0ADDE8D2F95
:102260009C2F01DF811103C08AE080930201DF917E
:10227000CF911F910895FF920F931F93CF93DF93F8
:10228000CDB7DEB72A970FB6F894DEBF0FBECDBF2D
:102290006B837C838D839E832F83388749875A87FE
:1022A00081E080939C0260E088E0D9D860E08AE019
:1022B000D6D800E020E040E060E072E18AE790E0FC
:1022C00009D960E088E060D881E082D98FE097E2A8
:1022D0000197F1F700C0000061EF84E0AFDB62E03E
:1022E00083E0ACDB8E010F5F1F4FB80186E011DC8D
:1022F0006981697F86E0A2DB8DE11CDCF82E78DB4A
:102300008DE118DC882331F0F81201C071DB60E048
:102310008DE194DBBE016E5F7F4F86E0FADB6A8160
:10232000677D636086E08ADBB80186E0F2DBB80196
:1023300080E0EFDB69816C6080E080DB6CE485E04D
:102340007DDB8DE1F7DB682F64608DE177DB8CE16D
:10235000F1DB682F6F638CE171DB8DE1EBDB682FC4
:1023600066608DE16BDB8CE1E5DB682F63608CE1FF
:1023700065DB6FE381E062DB60E787E05FDB32DB38
:102380002BDB1982B80180E0C4DB19811C7860E086
:1023900088E00E94C409612F626080E04FDB61E049
:1023A00088E00E94C409BE016D5F7F4F8AE09DDB1B
:1023B000BE016D5F7F4F80E198DB60E088E00E94A6
:1023C000C409BE01695F7F4F8BE08FDB63E082E071
:1023D00035DB61E088E00E94C40980916900826079
:1023E00080936900E89A2A960FB6F894DEBF0FBE74
:1023F000CDBFDF91CF911F910F91FF900895CF93A3
:10240000DF93CDB7DEB7C351D1400FB6F894DEBF2E
:102410000FBECDBF43E151E063E870E0CE0101960D
:102420000E941F2A43E151E061E070E0CE01019675
:102430000E945C2ACD5EDE4F0FB6F894DEBF0FBE61
:10244000CDBFDF91CF910895EF92FF920F931F932D
:10245000CF93DF9300D0CDB7DEB7082F142F732FA3
:102460008DB79EB79A83898350E0CA010196EDB774
:10247000FEB7E81BF90B0FB6F894FEBF0FBEEDBF19
:102480008DB79EB701967C016183622F01960E94F1
:102490003C2A41E0410FB701802F3DDCE981FA8100
:1024A0000FB6F894FEBF0FBEEDBF0F900F90DF91F7
:1024B000CF911F910F91FF90EF900895EF92FF92AF
:1024C0000F931F93CF93DF930F92CDB7DEB7809119
:1024D0000C01811109C08FEF0F90DF91CF911F91F7
:1024E0000F91FF90EF9008951982A0910601B0918D
:1024F0000701E0910801F09109018E010F5F1F4F64
:10250000980141E051966C9180819EDF780188238B
:1025100011F3A0910601B0910701E0910801F0913B
:102520000901980141E015966C9180818DDF882327
:1025300091F2A0910601B0910701E0910801F0919C
:102540000901980141E014966C9180817DDF882318
:1025500009F4C1CFE0910601F09107016481E09197
:102560000801F091090180912301882309F455C0E5
:102570008CE08983980141E0808166DF882309F43B
:10258000AACF2FE788E391E0215080409040E1F707
:1025900000C0000080EC898380910C0180FF02C0A4
:1025A00080EE8983A0910601B0910701E0910801B6
:1025B000F0910901970141E014966C91808144DF0C
:1025C000882309F488CF81E090911201911101C014
:1025D00080E0880F8983A0910601B0910701E09106
:1025E0000801F0910901970141E051966C918081B9
:1025F0002BDF882309F46FCF1982A0910601B091D7
:102600000701E0910801F0910901970141E0159659
:102610006C91808119DF81505FCF84E089839801BC
:1026200041E0808111DF882309F455CF80911301A7
:10263000811143C080910C0180FF3FC080E68983F7
:10264000A0910601B0910701E0910801F091090104
:10265000970141E014966C918081F6DE882309F49D
:102660003ACF2FE788E391E0215080409040E1F796
:1026700000C0000081E090911201911101C080E042
:102680008983A0910601B0910701E0910801F091C2
:102690000901970141E051966C918081D5DE882334
:1026A00009F419CFA0910601B0910701E09108014A
:1026B000F091090121E131E0A9CF80E4C0CFCF93AF
:1026C000DF930F92CDB7DEB79C0180910C01811191
:1026D00005C08FEF0F90DF91CF91089581E02C3BE3
:1026E000310588F482E02236310568F483E02A322D
:1026F000310548F484E02431310528F485E02A309E
:10270000310508F486E0898390910D019817A9F0AE
:10271000A0910601B0910701E0910801F091090133
:102720009E012F5F3F4F41E012966C9180818CDEBD
:10273000882379F2898180930D0180E0CBCFEF92DD
:10274000FF920F931F93CF93DF9300D0CDB7DEB7E7
:10275000FC018B017A0180910C0181110AC08FEF7D
:102760000F900F90DF91CF911F910F91FF90EF90FD
:1027700008959E2F8F2F9A838983A0910801B0918D
:1027800009019B012E0F311D18968D919C9119976F
:102790008217930720F3E0910601F09107019E0153
:1027A0002F5F3F4F42E0638D8C914EDE8823B9F25C
:1027B000A0910601B0910701E0910801F091090193
:1027C0009701402F58966C9180813EDE8150C8CF92
:1027D000CF93DF930F92CDB7DEB780910C018111BB
:1027E00005C08FEF0F90DF91CF91089588E1898325
:1027F00080910A018330C1F0A0910601B0910701D8
:10280000E0910801F09109019E012F5F3F4F41E0E7
:1028100016966C91808118DE882319F3898186953C
:102820008695869580930A0180E0DCCFCF93DF9375
:102830000F92CDB7DEB780910C01811105C08FEFEB
:102840000F90DF91CF910895198280910B01882319
:10285000C1F0A0910601B0910701E0910801F0914B
:1028600009019E012F5F3F4F41E017966C918081D7
:10287000EBDD882321F38981869586958695809363
:102880000B0180E0DDCF0F931F93CF93DF930F9267
:10289000CDB7DEB780911301882309F45AC0A09107
:1028A0000601B0910701E0910801F09109018E0144
:1028B0000F5F1F4F980141E014966C91808181DA7F
:1028C000811107C08FEF0F90DF91CF911F910F9172
:1028D0000895898190910C0190FF3DC080628983A9
:1028E000A0910601B0910701E0910801F091090162
:1028F000980141E014966C918081A6DD882311F344
:102900008FE697E10197F1F700C0000081E0909118
:102910002101911101C080E08795882787958983DF
:1029200090912201992311F080638983A09106017F
:10293000B0910701E0910801F0910901980141E08F
:1029400057966C91808180DD882309F4BBCF10926B
:10295000130180E0B8CF8F7DC2CFCF93DF930F926A
:10296000CDB7DEB769839E012F5F3F4F41E0682FEF
:1029700082E56ADD0F90DF91CF910895EF92FF928B
:102980000F931F93CF93DF93CDB7DEB768970FB642
:10299000F894DEBF0FBECDBF7C0180910301909102
:1029A00004018F3F980709F091C0DADA9C019093F7
:1029B0000401809303012F3F3F4FB9F465E580EF99
:1029C000CCDF8AE18A95F1F700C060E08BEFC5DFCC
:1029D0009AE19A95F1F700C0C3DA909304018093CD
:1029E00003012AE12A95F1F700C08091030190913B
:1029F000040183319F4F71F461E08BEFAEDF8AE118
:102A00008A95F1F700C065E580EFA7DF9AE19A9516
:102A1000F1F700C080910301909104019E7F01971E
:102A200099F563E08EEF99DF2AE12A95F1F700C06E
:102A3000AE01475F5F4F68E080E06EDA8FE891E0BB
:102A40000197F1F700C00000AE014F5F5F4F68E0F3
:102A500080E062DA48E050E0BE016F5F7F4FCE0158
:102A600009960E942F2A892B09F05DC08F859889CD
:102A7000892B09F05FC02CEC3BE086E03093EE013F
:102A80002093ED0180930001809103019091040156
:102A9000813021E0920709F474C008F055C08330FA
:102AA000910509F468C008F049C0009709F476C0A0
:102AB000019709F466C08BE098E19093040180933C
:102AC00003011092EE011092ED015BC08B30984132
:102AD00009F46BCF8E010F5E1F4FA80160910001BA
:102AE00080E01ADAB801882389F0F80180910001AA
:102AF000A801480F511D8FEF90E04E175F0779F442
:102B0000992309F452CF8F3F09F44FCFE091ED01A3
:102B1000F091EE013097A9F1C701099532C02191DA
:102B2000922B8223EACF8FE891E00197F1F700C062
:102B300000007ECF2EE93BE088E0A0CF419709F06E
:102B4000BACF8FED9CE019C082312FEF920761F16F
:102B500058F4833021E0920721F18330934009F04B
:102B6000AACF81E29CE009C083319F4F09F0A3CF37
:102B70008EEC9CE002C080E69BE09093EE01809397
:102B8000ED0168960FB6F894DEBF0FBECDBFDF91A2
:102B9000CF911F910F91FF90EF90089583E392E200
:102BA000ECCF87E29BE0E9CF8EE89CE0E6CF1F9375
:102BB000CF93DF930F92CDB7DEB7182F809122010C
:102BC000811721F180E0111180E389839091130135
:102BD000992311F08260898380912101882319F063
:102BE000898180688983A0910601B0910701E091F5
:102BF0000801F09109019E012F5F3F4F41E0579678
:102C00006C91808121DC8111109322010F90DF9162
:102C1000CF911F910895EF92FF921F93CF93DF936F
:102C20000F92CDB7DEB7182F807729F581E011110B
:102C300080E08295880F880F807C8983A0910601AF
:102C4000B0910701E0910801F0910901CE010196D0
:102C50007C019C0141E055966C918081F5DB9701E8
:102C600081110BC010920C010F90DF91CF911F9139
:102C7000FF90EF90089581E0E0CF89818F7B809372
:102C80000E0116FF32C0198215FD03C089818260D2
:102C9000898314FD03C089818160898313FD03C08A
:102CA000898188638983A0910601B0910701E09131
:102CB0000801F091090141E056966C918081C4DBD6
:102CC000882381F2812F877F11F080E070DF1093DD
:102CD0000C01109215019FE728E381E091502040FC
:102CE0008040E1F700C00000BFCF84E08983CCCFF3
:102CF000CF93DF930F92CDB7DEB790912301992345
:102D0000F9F091E0811101C090E0990F9983A091B1
:102D10000601B0910701E0910801F09109019E01BF
:102D20002F5F3F4F41E051966C9180818DDB88236E
:102D300019F08981809312010F90DF91CF9108954E
:102D400090910C019923C1F3882321F090911201F5
:102D50009111F2CF8983DBCF1F93CF93DF93D82FCD
:102D600080912301C0E081111FC080910C01882354
:102D7000B9F0109111018D2380931101C1E08D13E1
:102D800001C0C0E0C195809115018D2B59F081E003
:102D9000AFDFDD2349F092DB882331F0109311017E
:102DA000CFEF02C080E0A4DF8C2FDF91CF911F9185
:102DB00008951F93CF93DF9300D0CDB7DEB7182FC0
:102DC00081111EC080E0F3DE198287E08A83A09122
:102DD0000601B0910701E0910801F09109019E01FF
:102DE0002F5F3F4F42E055966C9180812DDB811122
:102DF000109215010F900F90DF91CF911F910895C0
:102E000081E0D5DE80E28983113041F51A8285E0C8
:102E100090E055DC8A8120E4829FC0011124876004
:102E20008A83A0910601B0910701E0910801F09119
:102E300009019E012F5F3F4F42E055966C918081C2
:102E400003DB8823B9F288E080930C0110920E0115
:102E500081E08093150180E07FDFCCCF163018F43D
:102E600081E08A83D4CF153128F482E08A838AE016
:102E700090E0CFCF83E08A8384E190E0CACF0F93C4
:102E80001F93CF93DF930F92CDB7DEB78C01809164
:102E90000C01811107C08FEF0F90DF91CF911F912F
:102EA0000F910895809123018111F5CF8091150133
:102EB000882351F0C8010197889720F4802F79DF8B
:102EC00080E0EACF80E075DFB801093E134010F0E2
:102ED00068EE73E06430710510F464E070E008EEB1
:102EE00013E0C8010E94882961506983A0910601FE
:102EF000B0910701E0910801F09109019E012F5F57
:102F00003F4F41E011966C9180819EDA882309F44D
:102F1000C2CF698170E06F5F7F4FC8010E949C291A
:102F20007093100160930F01CB0196958795C7DBD5
:102F3000C7CF7F928F929F92AF92BF92CF92DF9234
:102F4000EF92FF920F931F93CF93DF93CDB7DEB72E
:102F5000CA53D2400FB6F894DEBF0FBECDBF43E1D7
:102F600051E061E070E0CE0101960E944C2A8D850F
:102F70009E85AF85B8890897A105B10540F443E166
:102F800051E060E070E0CE0101960E944C2A8985F4
:102F90009A85AB85BC858531944DA24AB105B1F0C7
:102FA00043E151E063E870E0CE0101960E941F2AE0
:102FB0001D861E861F86188A42E450E067E271E093
:102FC000CE018B559F4F0E941F2A08C08D859E857C
:102FD000AF85B8890297A105B10570F38A81873062
:102FE00009F040C08FE08A838D859E85AF85B889C2
:102FF0000497A105B10548F448E550E06FEC70E096
:10300000CE01835B9F4F0E941F2A8D859E85AF85D1
:10301000B88986309105A105B10548F51C82C951D2
:10302000DF4F1882C75ED040EA81F0E0EA56FE4FDB
:10303000E491E23021F48AA591E089278AA743E050
:1030400050E063E971E0CE018F5E9E4F0E941F2A1F
:1030500044E250E06FE671E0CE0183519F4F0E9441
:103060001F2A13C0883009F0BFCF8DE0BCCF863057
:103070009105A105B10599F289309105A105B10528
:1030800098F20D97A105B105D0F28D859E85AF858B
:10309000B8898E309105A105B10520F588A9843045
:1030A00028F48230E8F081E088AB04C0845082309C
:1030B00008F418AACD5EDE4F1882C351D1408FE0CC
:1030C00090E0A0E0B0E08D879E87AF87B88B43E1AA
:1030D00051E061E070E0CE0101960E945C2A06C0DA
:1030E00082E0E2CF0E97A105B10521F383E191E0E3
:1030F000FE013196DE01AC5EBE4F01900D9201974C
:10310000E1F7C650DE4F1882CA5FD140CB5EDE4F7A
:103110008881C551D14080932C0480932B04C95ED3
:10312000DE4F9881C751D14090932A04CC5EDE4F88
:103130009881C451D14090932904E82FF0E0EA56D9
:10314000FE4F949121E0913009F020E02093280473
:10315000E49121E0E23009F020E020932704E230FE
:1031600009F015C4843140F487E080932B0491303A
:1031700019F488E080932B0485B5826085BD85B500
:10318000816085BD80916E00816080936E00C75E16
:10319000DE4F8881C951D14080932504C65EDE4F41
:1031A0008881CA51D14080932404809127048823C8
:1031B00009F4F4C3CA5DDD4F8881C652D2408170E4
:1031C000809323040E94D90ACC5EDE4F8881C451CB
:1031D000D140823009F4E4C3833009F4E4C3813080
:1031E00099F4C55EDE4F8881CB51D1408093DB02DC
:1031F0008EEB94E190932204809321048CEC98E070
:103200009093200480931F04CC5EDE4F8881C451CC
:10321000D140833009F017C4CA5EDE4F8881C651A1
:10322000D1408130C9F41092EA0281E08093E90232
:103230001092E802449A459A8091B9008E7F80935B
:10324000B9008091B9008D7F8093B9008AE08093A6
:10325000B80085E48093BC00CA5EDE4F9881C651F9
:10326000D14081E0913041F0CC5EDE4F2881C451E5
:10327000D140213009F080E0817080930604909362
:10328000050484E2FE01FE5FA1EEB3E001900D9221
:103290008A95E1F71092E0031092DF030E94270A5B
:1032A00010921E0310921D031092EC021092EB027A
:1032B000FE01EC5EFE4F7F016F01B12C75E0972E91
:1032C0008E010C5F1F4FD801E92D1D92EA95E9F799
:1032D000B982D60190968C90A0902704BFEF8B16F0
:1032E00079F1E5E0BE1209C0AA2039F0CA5EDE4FCE
:1032F0008881C651D140833019F5D60191967C90D2
:1033000061E0882D0E942F0A7B8282EF880D8A83DC
:10331000A0911D03B0911E03CD01019690931E0351
:1033200080931D0363E0AA0FBB1F6A95E1F7A351C9
:10333000BD4F88E0FE01319601900D928A95E1F72C
:10334000B394B2E0CB0ED11CE6E0BE12BCCFC150AC
:10335000DE4F8881CF5FD1408F3F19F060E00E943F
:103360002F0A10E000E05CE0852ECC5EDE4F888105
:10337000C451D140823009F090C3D7015096BC901F
:10338000BFEFBB1609F49FC081E00C30110538F483
:103390009801285031092230310508F080E0382F9B
:1033A000317080FF08C021E0C85EDE4F8881C851BF
:1033B000D140813009F020E0C75CDD4F0883C9535C
:1033C000D2408B2D90E0FC01E951FE4F4491FC016D
:1033D000ED52FE4F7490E42FF0E0EE0FFF1FE1542A
:1033E000FE4FC590D490E22FE170C65CDD4FE883BC
:1033F000CA53D240CC5DDD4F9880C452D2408091F8
:103400002804882309F438C3332309F435C3FDE0C5
:10341000FB1508F031C3CE5BDE4F8881C254D1402A
:1034200028E0829FC00111241B821C821D82B98268
:1034300021E028879F838E8361E08B2D0E942F0AD5
:10344000A0911D03B0911E032A2F82EF8B0D8A835A
:10345000CD01019690931E0380931D0333E0AA0FC4
:10346000BB1F3A95E1F7A351BD4F88E0FE013196AD
:1034700001900D928A95E1F74091DF035091E003AE
:10348000CA0101969093E0038093DF03849EF001CC
:10349000859EF00D1124E15EFC4F7082D282C182C4
:1034A000C65CDD4F8881CA53D2408383B482C75C37
:1034B000DD4F9881C953D2409583168217821086BA
:1034C0001186928623870F5F1F4F8FEFE81AF80A45
:1034D0000031110509F049CFAA2009F41BC2CA5EC8
:1034E000DE4F1881C651D140113009F017C3CD5BB2
:1034F000DE4F8881C354D14080931C04789480E8C7
:103500008983A0910601B0910701E0910801F09133
:1035100009019E012F5F3F4F41E055966C918081DC
:103520000E942412882309F463C09FEFA4E3BCE047
:103530009150A040B040E1F700C000001982A09176
:103540000601B0910701E0910801F09109019E0187
:103550002F5F3F4F41E055966C9180810E9424126D
:10356000882309F445C0109214018FEF80930C0159
:1035700080930A0180930B0180930D012FEF3FEFA1
:103580003093100120930F01809311018093130158
:1035900010930E0110932101109222011092160136
:1035A00010921501E7E1F1E08AE0DF011D928A95B2
:1035B000E9F7109223011092240110922601109233
:1035C000250106D9811114C031D9811111C08AE2B7
:1035D00090E075D881110CC082E390E050DC81113D
:1035E00007C0BADB811104C04ED9811101C013DBC1
:1035F00088E711DBEDD81AD988E7AEDB809124018A
:10360000811198C0F12CE12C86EFC82E8BE0D82ECA
:1036100086010E191F090131110510F000E110E0BB
:10362000F701E550FE4FDE011196CD01800F911F8D
:103630008A179B0709F06EC2AE014F5F5F4FB8015A
:10364000C7017DD8811176C080910C01882309F4CF
:1036500071C09E2D8F2DC95CDD4F99838883C75320
:10366000D240E0910801F091090120853185C8011F
:103670008E0D911D2817390708F45CC0A091060132
:10368000B09107019E01295C3D4F42E05B966C9131
:1036900080810E942412882309F44CC0A091060165
:1036A000B0910701E0910801F09109019E01295DA7
:1036B0003D4F402F58966C9180810E94E10E8823E7
:1036C000C9F1A801BE01695D7D4FCE0101960E943E
:1036D0002F2A892B79F5E00EF11EB6EFEB16BBE031
:1036E000FB0608F495CF84E0C95CDD4F8883C7539F
:1036F000D240C85CDD4F1882C853D240A091060169
:10370000B0910701E0910801F09109019E01295C47
:103710003D4F42E05D966C9180810E942412882387
:1037200049F081E08093240188EC90E09093260199
:10373000809325018CE0E5EDF1E0DE01119601902A
:103740000D928A95E1F7C95DDD4F1882C752D240CC
:1037500085E0C85DDD4F8883C852D240AE01495D27
:103760005D4F62E070E086E192E00E949F1381115C
:1037700011C0AE014F5F5F4F6CE070E081EC9AE0EA
:103780000E949F13811106C08EE190E09093100477
:1037900080930F0480912301813009F180912401ED
:1037A0008823E9F080E0A4DA6ED880912501909119
:1037B000260165DB1982E0910801F09109019E0163
:1037C0002F5F3F4F41E063E280810E9424128823F3
:1037D00031F081E0809323018BDA0E945E1282E057
:1037E00089838AEC8A8383EE8B8319E01C83AE0184
:1037F0004F5F5F4F64E070E088E690E00E949F13A7
:1038000083EA89838A838B838C838D838E838F83E2
:10381000888789878A87AE014F5F5F4F6AE070E0D3
:1038200087EA9AE00E949F1388ED8983AE014F5F7B
:103830005F4F61E070E086EB9AE00E949F13E2EE3A
:10384000F1E0DE01A95DBD4F01900D921A95E1F7FF
:10385000AE01495D5D4F69E070E088EB94E00E9445
:103860009F1344E050E06BE870E0CE01895D9D4F0E
:103870000E94452AAE01495D5D4F64E070E088E931
:103880009AE00E949F130E945E1280E2C95DDD4FA4
:103890008883C752D24088E2C85DDD4F8883C85212
:1038A000D24080E3C75DDD4F8883C952D24088E3B0
:1038B000C65DDD4F8883CA52D240AE01495D5D4F7F
:1038C00064E070E08EE99AE00E949F130E945E120D
:1038D00088E190E090930E0480930D040E945E12A4
:1038E00080E18093110487EB9EE190931B04809309
:1038F0001A0486E0FE01E25EFD4FA3E1B4E0019010
:103900000D928A95E1F7C15CDE4F8881CF53D1409B
:1039100080931204CF5BDE4F8881C154D140109256
:103920001D0480931E0480912C0496EE980F98300D
:10393000C0F4803258F046E050E06FEC71E087E36D
:1039400091E00E941F2A86E08093260480912C0437
:103950008A3109F0F3C08DE080932A018CE08093D6
:103960002B017894C65CDD4F0FB6F894DEBF0FBE16
:10397000CDBFDF91CF911F910F91FF90EF90DF901E
:10398000CF90BF90AF909F908F907F90089591308F
:1039900009F0F2CB843108F4ECCBEECB80E00FCC15
:1039A0008FEF98E02DCC01E021E041E060EA76E87D
:1039B00081E090E00E946A0AE1EFF1E08491EDED90
:1039C000F1E01491E82FF0E0EE0FFF1FE753FE4FF8
:1039D000E590F490CC5DDD4F8881C452D2401093C5
:1039E000DC02F092DE02E092DD021092DF029AE049
:1039F0009093E0021092E1021092E2021092E30230
:103A00001092E4021092E5028093E6028FEF809319
:103A1000E70260E08AE00E942F0A0E94E409D701D1
:103A20008C91182B1C93B8E2BA95F1F78AE499E0CF
:103A30009093200480931F0485E091E190932204E9
:103A400080932104E1CBC85EDE4F8881C851D1400C
:103A5000823049F400E021E041E060E079E08DE36C
:103A600090E00E946A0ACC5EDE4F8881C451D1404A
:103A7000813009F0D1CBD7CB62E0621B8B2D0E9445
:103A80002F0AAA2041F00230110528F4CB5DDD4F4A
:103A90009880C552D2402FEFEFCC702FE7EEF1E0C7
:103AA0008491E3EDF1E06491E82FF0E0EE0FFF1F69
:103AB000E154FE4F85919491CC5DDD4FA881C452B5
:103AC000D240AA2041F00230110528F4CB5DDD4F31
:103AD000A881C552D2404091DF035091E0039A0182
:103AE0002F5F3F4F3093E0032093DF03849EF0016C
:103AF000859EF00D1124E15EFC4F608392838183EB
:103B00001382148275831682178210861186A2870B
:103B10002FEFD8CC24912D9331968ACD123009F015
:103B2000E8CEC25CDE4F8881CE53D1408093190429
:103B300062E00E942F0A82E09AE0D7CE982F9D7F04
:103B40004EE050E06DE07EE09C3179F04EE050E0D8
:103B50006FEF7DE08B3149F08D3119F0803209F043
:103B600000CF4EE050E061EF7DE089E291E00E94FD
:103B70001F2AF7CECF93DF9300D000D0CDB7DEB7AA
:103B800020E030E040E057E469837A838B839C83B4
:103B900069817A818B819C810E94EE2869837A8376
:103BA0008B839C8369817A818B819C810E948B2885
:103BB000CB010F900F900F900F90DF91CF91089550
:103BC0008F929F92AF92BF92CF92DF92EF92FF922D
:103BD0000F931F93CF93DF93CDB7DEB728970FB620
:103BE000F894DEBF0FBECDBF8C016F8378872F8125
:103BF00038852817390771F480E090E21216130611
:103C00000CF471C090E080E0232B09F46CC080E0DC
:103C100090EA69C0990F880B982F8095909598012C
:103C200028273927A901481B590B5E834D838F81B3
:103C30009885990F880B982F809590952F813885BE
:103C400028273927B901681B790B7A83698364EEC9
:103C500077EF81EB9DE38EDFD82EC92E69EF7DE7EC
:103C60008CEA9EE387DF7C018F8198859C01990F08
:103C7000440B550B4801012E000CAA08BB08A98172
:103C8000BA816D817E81A617B7070CF03FC0D501C0
:103C9000C4016FE0880F991FAA1FBB1F6A95D1F757
:103CA00089839A83AB83BC83BC01CD010E94D12957
:103CB0004901C901990F880B982F80959095BC01F7
:103CC00062277925681B790B8D2D9C2D0E942D0D67
:103CD000B4018E0D9F1D0E942D0DAF81B8851A165F
:103CE0001B060CF0905828960FB6F894DEBF0FBE56
:103CF000CDBFDF91CF911F910F91FF90EF90DF909B
:103D0000CF90BF90AF909F908F900895CA01B90156
:103D10002FE0660F771F881F991F2A95D1F76983B7
:103D20007A838B839C83A50194010E94D129490148
:103D3000C901990F880B982F80959095BC01682533
:103D40007925681B790B8D2D9C2D0E942D0DB401BA
:103D50008E0D9F1D0E942D0D9C0180E090E4101699
:103D6000110614F080E090EC821B930BBCCF8F9275
:103D70009F92AF92BF92CF92DF92EF92FF920F93FA
:103D80001F93CF93DF93CDB7DEB7EA970FB6F894C2
:103D9000DEBF0FBECDBF89AF9AAF1092170210924F
:103DA0001602D0901104ED2CF12C80912301882370
:103DB00011F180910C018823F1F0A0910601B091DE
:103DC0000701E0910801F09109019E012F5D3F4F2D
:103DD00042E01C966C9180810E94E10E882359F08C
:103DE00009A11AA11027012710270E151F0508F099
:103DF0008FC01092150280911602909117028115C2
:103E0000914009F0B6C2C0901802D0901902E0901B
:103E10001A02F0901B0277E1F594E794D794C794C7
:103E20007A95D1F7D0921902C092180280901C02A4
:103E300090901D02A0901E02B0901F02E7E1B59481
:103E4000A79497948794EA95D1F790921B02809259
:103E50001A02409120025091210260912202709139
:103E60002302F7E17595679557954795FA95D1F730
:103E700050931D0240931C020091240210912502D0
:103E80002091260230912702A7E1359527951795B5
:103E90000795AA95D1F710931F0200931E028091F7
:103EA0001C04009FF001019FF00DF00D11248130E2
:103EB00009F4A8C1823009F4B0C2811136C2449F0E
:103EC000C001459F900D900D11248E0F9F1F880FEC
:103ED000991FE0E0F0E8E81BF90B489DD001499DEF
:103EE000B00D589DB00D11240C9DC0010D9D900D7D
:103EF0001C9D900D11249D01281B390BC901BF0188
:103F0000880F991F5DDE90931402809313020DC2F7
:103F1000A0910801B0910901E0910601F09107011B
:103F20008C9111962D913C9136952795201731074C
:103F300080F49E012F5D3F4F41E063890E94E10EB6
:103F4000882309F458CF89A184FF03C00E945E1220
:103F500052CFA0910601B0910701E0910801F091C4
:103F600009019E012F5F3F4F4D2D1D966C91808161
:103F70000E94E10E882309F43ECFC801B7010E94D8
:103F80008829615060931502E0910D04F0910E04B0
:103F9000CF0184719927892B09F432C129813A8193
:103FA0004B815C81CA01B9010E94ED294B015C0182
:103FB0008092180290921902A0921A02B0921B02EB
:103FC0008D819E81AF81B885BC01CD010E94ED2914
:103FD0006B017C01C0921C02D0921D02E0921E0275
:103FE000F0921F0229853A854B855C85CA01B9018B
:103FF0000E94ED298B019C01009320021093210265
:1040000020932202309323028D859E85AF85B88947
:10401000BC01CD010E94ED29AB01BC0140932402FB
:10402000509325026093260270932702C501BB2797
:1040300097FDB095AB2F8BA39CA3ADA3BEA3C701E7
:10404000BB2797FDB095AB2F8FA398A7A9A7BAA7B9
:10405000C901BB2797FDB095AB2F8BA79CA7ADA738
:10406000BEA7CB01BB2797FDB095AB2F8FA798AB11
:10407000A9ABBAAB2BA13CA14DA15EA1CA01B9016C
:104080000E9479296BA37CA38DA39EA32FA138A5A1
:1040900049A55AA5CA01B9010E9479296FA378A739
:1040A00089A79AA7CBA0DCA0EDA0FEA0C60ED71EC4
:1040B000E81EF91E2BA53CA54DA55EA5CA01B901B8
:1040C0000E947929C60ED71EE81EF91E2FA538A911
:1040D00049A95AA9CA01B9010E9479296BA37CA3F5
:1040E0008DA39EA3C60ED71EE81EF91E9FE0F91AE7
:1040F000A1E0CA16D104E104A2E0FA0638F00E9459
:104100005E12109217021092160275CE809116025E
:10411000909117029160909317028093160280E1AC
:10412000E6FF39C0282F30E0A1E0B0E0AC0FBD1FA2
:10413000A20FB31F9C91DE01A20FB31F12964C91E8
:10414000592F5093010040930000DE01A20FB31FCE
:1041500013969C91DE01A20FB31F14964C91592F18
:104160005093030040930200DE01A20FB31F159687
:104170009C91159716962C91392F3093050020931A
:1041800004008A5F20911602309117022860309354
:10419000170220931602E078F170EF2B09F42BCE72
:1041A00090E0E1E0F0E0EC0FFD1FE80FF91F308137
:1041B000FE01E80FF91F22813093010020930000D7
:1041C000FE01E80FF91F3381FE01E80FF91F24817A
:1041D0003093030020930200FE01E80FF91F2581B0
:1041E0008681922F9093050080930400809116029F
:1041F0009091170280679093170280931602FBCD6F
:1042000080E08ECF089DC001099D900D189D900DF6
:1042100011244C9D90014D9D300D5C9D300D11245D
:104220007C01E21AF30AB701C7010E942D0D8C012F
:10423000BC010E942D0D5C01BC010E942D0D6C0182
:1042400060E670EB89E39DE395DCB8010E942D0DDB
:104250008BA39CA36AE27EEE87E39CE38BDC8FA3B7
:1042600098A76EEF7AEB87ED9CE384DCB8010E949F
:104270002D0D8BA79CA766EA79EB88EA9CE37ADC94
:104280008FA798AB62E377E88AEF9CE373DCB80111
:104290000E942D0D8BAB9CAB63E87EEC86E39DE327
:1042A00069DC8DAB9EAB6AEC79E989E99DE362DC60
:1042B000B8010E942D0D8FAB98AF6AEA7AEA8AE2C4
:1042C0009EE358DC4C01B5018BA19CA14FA158A5E0
:1042D000841B950B0E942D0D2BA53CA5AFA5B8A95D
:1042E0002A0F3B1FB601820F931F0E942D0D6C01F8
:1042F000B5018BA99CA9EDA9FEA98E0F9F1F0E9455
:104300002D0D8C0D9D1D2FA938AD820E931EB80169
:10431000880D991D0E942D0DB7010E942D0DE80EEC
:10432000F91EF0921402E092130280911302909110
:1043300014028A3939E193070CF48EC089E999E1B6
:10434000909314028093130220911302309114026F
:1043500045E0429FC001439F900D1124209112041B
:10436000222319F0919581959109909314028093DD
:104370001302209113023091140230935B022093B8
:104380005A02032E000C440B550B8091150490919A
:104390001604092E000CAA0BBB0B281B390B4A0B69
:1043A0005B0BA0911304B09114040E94192A20E021
:1043B00034E040E050E0F5D7DA01C9019058A10996
:1043C000B109811550E895075FEFA507B50724F4FB
:1043D00080E090E8AFEFBFEF8115E0E89E07A10510
:1043E000B10524F08FEF9FE7A0E0B0E0E9ADFAADB2
:1043F00093878287EA960FB6F894DEBF0FBECDBFD3
:10440000DF91CF911F910F91FF90EF90DF90CF90B0
:10441000BF90AF909F908F900895CC9CC001CD9C91
:10442000900D900D11248E0F9F1F880F991FE0E0B3
:10443000F0E8E81BF90B8C9CD0018D9CB00D9C9C86
:10444000B00D1124049FC001059F900D149F900D85
:1044500011248A0F9B1F53CD8736964E0CF074CFD4
:1044600087E696EE6DCF8F929F92AF92BF92CF92DA
:10447000DF92EF92FF920F931F93CF93DF938C0104
:10448000EB0188818058990BF8011482858389811A
:104490008058990B168287838091DB02882309F468
:1044A0003EC02D81822F90E0CB80F4E0CF9E600152
:1044B0001124AC0134E0559547953A95E1F74370E6
:1044C0005527C42AD52A3FEFC31A31E0D30AEC801E
:1044D000E4E0EE9E7001112495958795959587955A
:1044E00083709927E82AF92AFFEFEF1AF1E0FF0A13
:1044F0008A8134E0839FC001112422952695269558
:104500002370822BB7018F5F91405ADBF8019187AE
:104510008087B701C60154DBF801938782878D81BC
:10452000982F90959170B92EB29490EFB922A12C4A
:10453000869591E089278170982E9294990C990C18
:1045400020EC9222812CA828B928B092F001A092E8
:10455000EF01DF91CF911F910F91FF90EF90DF90CE
:10456000CF90BF90AF909F908F9008951F920F9221
:104570000FB60F9211242F933F934F935F936F9336
:104580007F938F939F93AF93BF93EF93FF93CF93BB
:10459000DF9300D000D0CDB7DEB783B78E7F83BF67
:1045A000E4E6F0E08081807180830E94D90AE4E033
:1045B000FBE72591359145915491E0E0FBE785912A
:1045C0009591A591B49189839A83AB83BC83BC01F7
:1045D000CD010E943B11E9E6F0E08081877F808376
:1045E000E9980F900F900F900F90DF91CF91FF916E
:1045F000EF91BF91AF919F918F917F916F915F915B
:104600004F913F912F910F900FBE0F901F901895D3
:104610001F921FB61F9211248F939F93AF93BF9346
:1046200080914C0290914D02A0914E02B0914F02A8
:104630000196A11DB11D80934C0290934D02A09351
:104640004E02B0934F02BF91AF919F918F911F90F7
:104650001FBE1F9018951F920F920FB60F92112434
:104660002F933F934F935F936F937F938F939F937A
:10467000AF93BF93EF93FF938091B900887F883306
:1046800009F461C0B8F5803291F168F5883009F419
:1046900052C0A0F4882309F472C0FF91EF91BF913A
:1046A000AF919F918F917F916F915F914F913F91CA
:1046B0002F910F900FBE0F901F9018958031D9F158
:1046C000883159F790914A0280914902981750F524
:1046D000E0914A0281E08E0F80934A02F0E0E75DAC
:1046E000FD4F80812AC0883269F38033B1F6809310
:1046F000280207C0803579F138F48034C1F188345C
:1047000061F60E94080EC9CF883539F6E0914A0259
:1047100081E08E0F80934A028091BB00F0E0E75D5C
:10472000FD4F80838091E9028111EBCF81E080937E
:10473000E80284EA0BC080914B028093BB0085ECB9
:104740008093BC00AACF8093280285EC8093BC00A4
:104750001092EA02A2CFE0914A0281E08E0F80938C
:104760004A028091BB00F0E0E75DFD4F80839091AD
:104770004A0280914902981710F385E8E1CF109220
:104780002802BFCF8F9381E080939C028F91189570
:10479000CDB7DEB7C055D1090FB6F894DEBF0FBE56
:1047A000CDBF0E949917E4E0FBE725913591459133
:1047B0005491E0E0FBE785919591A591B491BC01FE
:1047C000CD010E943B110E94970922966FAF22975C
:1047D00023967FAF239724968FAF249725969FAF7C
:1047E00025972D961CAE1DAE1EAE1FAE2D970E94B6
:1047F000970929966CAF7DAF8EAF9FAF2997DC01EB
:10480000CB0125962CAD3DAD4EAD5FAD2597821BFE
:10481000930BA40BB50B813C9742A940B105B8F1AD
:104820000E94970922966FAF229723967FAF239716
:1048300024968FAF249725969FAF259710927A00E4
:1048400060E088E00E94C4091982BE016F5F7F4F5B
:1048500080E00E94890D69816D7F80E00E941E0DBD
:10486000809164008F6E8093640083B7817F846041
:1048700083BFF89482E08CBB80916900886080934C
:104880006900E99A83B7816083BF789488950E9414
:10489000970929966CAF7DAF8EAF9FAF2997809116
:1048A000D7029091D802A091D902B091DA0229964C
:1048B0004CAD5DAD6EAD7FAD2997481B590B6A0BB2
:1048C0007B0B80912A0490E0B0E0A0E0841795076C
:1048D000A607B70708F08BCFE0912104F0912204DE
:1048E000309719F08BEC92E009958091A90288230A
:1048F00009F4E4C00DE912E0F12C8F2D0E94160A94
:10490000D8012D913D918D01821B930B97FF03C020
:104910009195819591090B970CF4CBC08EE08F0D8A
:10492000809305011092A902912C7CE0872E292DFD
:1049300030E027963FAF2EAF27978091DF0390910D
:10494000E003281739070CF4F5C18091250488236A
:1049500009F440C06091CF027091D00280911D0493
:1049600090911E0444275527481B590B641775075F
:104970004CF42091CB023091CC0224603093CC02D5
:104980002093CB02861797074CF42091CB023091ED
:10499000CC0228603093CC022093CB026091D102EC
:1049A0007091D202641775074CF42091CB023091BC
:1049B000CC0222603093CC022093CB02861797075B
:1049C0004CF48091CB029091CC0281609093CC0208
:1049D0008093CB0280912404882381F08091CB02C4
:1049E0009091CC029C01207333272033310531F4A0
:1049F0008F7C94609093CC028093CB0280912704AB
:104A0000882349F0E0911A04F0911B04309719F0C3
:104A10008BEC92E009954CE050E06FEB72E08BEC90
:104A200092E01DD5892B09F427C20E949709609353
:104A3000D7027093D8028093D9029093DA024CE0A7
:104A4000BE016F5D7F4F8BEC92E00E94D50D892BEC
:104A500009F035C28CE0EBECF2E0AFEBB2E0019094
:104A60000D928A95E1F7C090CB02D090CC02F12C48
:104A7000E12C2D962CAD3DAD4EAD5FAD2D97C21600
:104A8000D306E406F50671F00E94970922966FAFEF
:104A9000229723967FAF239724968FAF249725964E
:104AA0009FAF25972D96CCAEDDAEEEAEFFAE2D9727
:104AB0009ECEF394B6E0FB1220CF36CF8091BE029B
:104AC0008823E9F010E000E0802F0E94EB0A8111BA
:104AD00010C0802F0E94EA09F801E655FD4F908131
:104AE000891739F00E94060B009305011092BE024F
:104AF0001BCF0F5F1F4F0431110531F715CF4091C8
:104B00001D0350911E034115510509F452C08091B7
:104B10000101811130C080917A0086FD4AC08091E8
:104B20007800909179002091EB023091EC02B9016C
:104B3000E3E0660F771FEA95E1F7FB01E351FD4FD4
:104B4000A781A11104C0E281E11157C0925006E093
:104B5000880F991F0A95E1F763517D4FFB019483FC
:104B600083832F5F3F4F4217530709F44DC03093A3
:104B7000EC022093EB0210920101E091EB02F09124
:104B8000EC0213E0EE0FFF1F1A95E1F7E351FD4F22
:104B900088E0DE01119601900D928A95E1F78A81F5
:104BA0008770806480937C0080917A008064809319
:104BB0007A00D12CB6E0BB2EED2D0D2C000CFF0B96
:104BC00080911D0390911E03E817F9070CF0ACCEFD
:104BD000A3E0EE0FFF1FAA95E1F7E351FD4F88E038
:104BE000DE01119601900D928A95E1F78885882360
:104BF00081F08C819D81D394DFCFE0E0F2E0DF0192
:104C0000A81BB90BCD01A3CF1092EC021092EB02BE
:104C1000B2CFF5E0DF1208C080912704882321F08D
:104C200080910504823039F3C9800C2D10E08C810D
:104C30009D817801EE0CFF1CF701E05BFD4F918335
:104C40008083B09EF001B19EF00D1124EF51FC4F16
:104C5000848095802C813D81032E000C440B550BE4
:104C600082819381092E000CAA0BBB0B281B390BE8
:104C70004A0B5B0BA081B181DCD329966CAF7DAF71
:104C80008EAF9FAF299720E034E040E050E089D319
:104C9000DA01C9019058A109B109811520E89207EC
:104CA0002FEFA207B20724F480E090E8AFEFBFEF48
:104CB000811530E89307A105B10524F08FEF9FE738
:104CC000A0E0B0E0A401092C000C660B770BE1E03A
:104CD000EC1538F420912704222381F0F4E0CF1260
:104CE0000DC084179507A607B7070CF121E02C1516
:104CF000C0F0F801E553FD4F92837DCF84179507EF
:104D0000A607B70774F4919481949108A401990CB3
:104D1000660B770B481759076A077B0714F480E086
:104D200090E0F701E553FD4F9183808364CF80E0ED
:104D300090E8DCCF989CC0011124AC01415E5C4F2F
:104D40006A0180912304882329F06BE2A62E63E098
:104D5000B62E911056010E94970961966CAF7DAFF7
:104D60008EAF9FAF6197F50186819781A085B18550
:104D700061964CAD5DAD6EAD7FAD6197481B590B33
:104D80006A0B7B0B828590E0B0E0A0E0841795076A
:104D9000A607B70708F06EC0E0911F04F091200449
:104DA000D601EC901196FC90119712960C911297E7
:104DB00013961C91139714962C91149715963C9169
:104DC000159716964C91169717965C91179718960B
:104DD0006C91189719967C9119971A968C911A973D
:104DE0001B969C910995C82ED12C2796EEADFFAD50
:104DF00027978E9E80018F9E100D1124015E1C4FFF
:104E0000D80115968C91E1E0F0E002C0EE0FFF1F93
:104E10008A95E2F7CF012091CB023091CC02822318
:104E20009323C816D90631F10E949709D501169629
:104E30006D937D938D939C931997F801258181E063
:104E400090E0022E02C0880F991F0A94E2F7809525
:104E500090954091CB025091CC028423952302C0BF
:104E6000CC0CDD1C2A95E2F7C82AD92AD092CC02B4
:104E7000C092CB0293945BCD0E94970929966CAFA8
:104E80007DAF8EAF9FAF29978091D7029091D802C6
:104E9000A091D902B091DA0229962CAD3DAD4EAD6C
:104EA0005FAD2997281B390B4A0B5B0BDA01C9014F
:104EB00085369105A105B10508F0B7CD98CC89A13B
:104EC0009AA1992309F4AFC098E090935C028E33C5
:104ED00010F18E53990B22E3289FB001299F700D8A
:104EE000112403E111E0061B170B0233110514F026
:104EF00002E310E0A80155276F5F7F4F8DE592E038
:104F0000CBD241E0400FBE016F5F7F4F8CE592E056
:104F10000E94D50D9FCD823319F0873309F048C028
:104F20006EE770E082E692E093D280E092E1AAE739
:104F3000B0E080935D0290935E02A0935F02B09315
:104F4000600287E695E4A3E2B1E0F0E0E0E041E250
:104F5000409357002491822728E030E06C017D01C6
:104F600051E0C522DD24EE24FF24B695A795979540
:104F70008795CD28CE28CF2841F050E2852753E8E9
:104F8000952758EBA5275DEEB5272150310931F75C
:104F90003196E032F105E1F680937102909372024E
:104FA000A0937302B09374021092610249E1ABCFF7
:104FB0008C3359F48CE0E0E5F2E0ADE5B2E001902D
:104FC0000D928A95E1F74DE09ECF853399F440919B
:104FD0002904413041F48091030180935D021092D5
:104FE0005E0243E090CF4330E1F78091020180936D
:104FF0005D0289CF863341F48091050180935D0283
:105000000E94060B42E07FCF48E050E066E770E088
:105010008DE592E014D280912C048F3110F410921F
:10502000600249E070CF8D3369F46BA18CE1689F19
:10503000B00111246F5F7F4F4DE150E0CE018496A7
:105040003BD208CD8333E9F168F4803349F08133F2
:1050500009F000CD87E797E7909301088093000857
:105060000E94690D843331F08A3309F0F3CC0E9439
:10507000FF11F0CC8091A9028111ECCC8FEF8093CD
:1050800005010E94270A0DE912E08EE0F82E62E089
:105090008F2D0E942F0AA7ECB0E01197F1F700C006
:1050A000000082EF8F0D0E94160AF8018193919300
:1050B0008F01F394F4E1FF12EACF81E08093A9021B
:1050C000C9CC8091BE028111C5CC8FEF80930501C0
:1050D0000E94270A10E000E0802F0E94EB0A811155
:1050E00011C062E0802F0E942F0A87EC90E00197A8
:1050F000F1F700C00000802F0E94EA09F801E65590
:10510000FD4F80830F5F1F4F0431110529F781E0A8
:105110008093BE029FCC41D0A8F19E57A8F1985130
:1051200060F039F1983070F5092E9927660F771FD6
:10513000881F991F0A94D1F71CC0BB27993F4CF4D4
:10514000B111B1E0B62B672F782F8827985FB1F7A0
:1051500008C0869577956795B79508F4B1609395E3
:10516000C1F7BB0F30F411F460FF03C06F5F7F4FD6
:105170008F4F3EF490958095709561957F4F8F4F3E
:105180009F4F0895689424C022C057FD9058440F43
:10519000551F59F05F3F71F04795880F97FB991F96
:1051A00061F09F3F79F08795089512161306140653
:1051B000551FF2CF4695F1DF08C0161617061806E0
:1051C000991FF1CF86957105610508940895E894BB
:1051D000BB2766277727CB0197F908950BD078C0B6
:1051E00069D028F06ED018F0952309F05AC05FC03E
:1051F0001124EECFCADFA0F3959FD1F3950F50E0B5
:10520000551F629FF001729FBB27F00DB11D639F78
:10521000AA27F00DB11DAA1F649F6627B00DA11D1E
:10522000661F829F2227B00DA11D621F739FB00DC4
:10523000A11D621F839FA00D611D221F749F332734
:10524000A00D611D231F849F600D211D822F762FCD
:105250006A2F11249F5750408AF0E1F088234AF0CA
:10526000EE0FFF1FBB1F661F771F881F9150504016
:10527000A9F79E3F510570F014C0AACF5F3FECF331
:10528000983EDCF3869577956795B795F795E79502
:105290009F5FC1F7FE2B880F911D9695879597F913
:1052A000089597F99F6780E870E060E008959FEFA8
:1052B00080EC089500240A941616170618060906AD
:1052C000089500240A94121613061406050608957C
:1052D000092E0394000C11F4882352F0BB0F40F404
:1052E000BF2B11F460FF04C06F5F7F4F8F4F9F4F44
:1052F0000895DB018F939F9392D0BF91AF91A29FAE
:10530000800D911DA39F900DB29F900D11240895C3
:10531000AA1BBB1B51E107C0AA1FBB1FA617B707DB
:1053200010F0A61BB70B881F991F5A95A9F78095F7
:105330009095BC01CD01089597FB072E16F40094BB
:1053400006D077FD08D0E4DF07FC05D03EF4909549
:1053500081959F4F0895709561957F4F0895A1E2C3
:105360001A2EAA1BBB1BFD010DC0AA1FBB1FEE1FDF
:10537000FF1FA217B307E407F50720F0A21BB30B2A
:10538000E40BF50B661F771F881F991F1A9469F7A6
:1053900060957095809590959B01AC01BD01CF0102
:1053A0000895052E97FB16F400940FD057FD05D0F5
:1053B000D6DF07FC02D046F408C0509540953095E2
:1053C00021953F4F4F4F5F4F089590958095709571
:1053D00061957F4F8F4F9F4F0895692796276927C3
:1053E000782787277827089505D0332312F48A1B5E
:1053F0009B0B10C0A29FB001B39FC001A39F700D73
:10540000811D1124911DB29F700D811D1124911DCC
:105410000895F0DFB7FF0895821B930B0895EADF2C
:10542000A59F900DB49F900DA49F800D911D1124F8
:105430000895B7FFF4CFF3DF821B930B0895FB01B0
:10544000DC0102C005900D9241505040D8F70895FC
:10545000FB01DC0105900D920020E1F70895FB01AE
:10546000DC0104C08D910190801921F4415050401D
:10547000C8F7881B990B0895FB01DC0102C001905D
:105480000D9241505040D8F70895DC0101C06D9352
:1054900041505040E0F70895DC01CB01FC01F9993F
:1054A000FECF06C0F2BDE1BDF89A319600B40D9270
:1054B00041505040B8F70895DC01A40FB51F41508A
:1054C000504040F0CB01840F951F2E9105D04150E4
:1054D0005040D8F70895262FF999FECF92BD81BD8F
:1054E000F89A019700B4021639F01FBA20BD0FB622
:0E54F000F894FA9AF99A0FBE0895F894FFCF37
:1054FE0006010A0B18FF4D014301000000000000D9
:10550E00000000000000000000000000000000008D
:10551E000000000000000000000F0C0D0EFFFF0841
:10552E0009050406070A0B00030102FFFF08090F15
:10553E000D0C0E680004765401F7FD000175191A62
:10554E000C6A231B1C00001F207274433B41383928
:10555E003A006B6C376F06246D6E700806090702F1
:10556E0004FFFF0F0A03FF0C0E0D0BFFFFFFFFFFE3
:10557E00FFFFFFFFFFFFFF090AFFFF0406070503FA
:10558E000001020A0BFFFF0E0D0F0C0406070503A8
:10559E0000FFFF0FFFFFFF090D0E0C014F00FFFF75
:1055AE00030000000144000100014300010143001B
:1055BE000001420008000408060705080201030264
:1055CE000103000E0DFEF2ABC4AAF1DFDFBBAFDFAD
:0C55DE00DF00B8AAAAAAB088C3C5C700A5
:087B0000EFBEADDEEFBEADDE0D
:00000001FF
